:100000007DC10000ACC10000AAC10000A8C1000071
:10001000A6C10000A4C10000A2C10000A0C1000050
:100020009EC100009CC100009AC1000098C1000060
:1000300096C100000C94101292C1000090C1000003
:100040008EC100000C946F128AC1000088C10000AC
:1000500086C100000C94D81282C100000C94C61115
:100060007EC100000C94DF0F0C94B60F78C1000025
:1000700076C1000074C1000072C1000070C10000B0
:100080006EC100006CC100006AC1000068C10000C0
:1000900066C1000064C1000062C1000061C40000CC
:1000A0005EC100005CC100005AC1000058C10000E0
:1000B00056C1000054C1000052C1000050C10000F0
:1000C0004EC100004CC100004AC1000048C1000000
:1000D00046C1000044C1000042C1000040C1000010
:1000E0003EC100006D1D6F1D631D651D671D691DEF
:1000F0006B1DC90DCC0DBB0DBF0DC50D030ED00D75
:10010000D40DDA0DDE0DE20DE80DEC0DF00D030E51
:10011000F60DFA0DFE0DCF10D410D910E310ED102E
:100120006611F710FF10071111111B112511341161
:100130003E116611481152115C1100002200250089
:1001400028002B002E0031003400020100000501C0
:1001500008010B0102010000002100240027002AF1
:10016000002D003000330001010000040107010AE6
:1001700001010210202008081020401020408002B9
:1001800001020108040201010204081020408080DD
:100190004020100804020180040201804020100861
:1001A0000402010804020101020408102040800139
:1001B0000204081020408005050505070508080809
:1001C00008020202020A0A080804040404010101E8
:1001D00001010101010303030303030303040707F0
:1001E000070C0C0C0C0C0C0C0C020202020606068E
:1001F00006060606060B0B0B0B0B0B0B0B53746F53
:100200007020546573740054656D70203D20005358
:10021000746172742054657374004669726D7761FD
:1002200072652076657273696F6E3A20005761724D
:100230006E696E67212052544320444F4E2754204C
:10024000524553504F4E442100496E636F727265A0
:10025000637420536F6E6720466F726D6174210066
:100260005247423D6F6666005247423D6F6E0076D0
:10027000616C75653D006D656E75506F736974696D
:100280006F6E3D0073796E630057616B652075700A
:100290002C204E656F21000000200023002600293D
:1002A000002C002F003200000100000301060109AC
:1002B0000100000A0B02090C0D0E080703040100DF
:1002C000000000000000000000000000000000002E
:1002D00000000000000000000000000000121110EB
:1002E000000000000000000000000000000000000E
:1002F0000000000000000000A5259D2511241FBE60
:10030000CFEFD1E2DEBFCDBF00E00CBF14E0A0E034
:10031000B2E0E4EBF2E500E00BBF02C007900D9203
:10032000AE3DB107D9F727E0AEEDB4E001C01D92B4
:10033000A538B207E1F711E0CDE7D1E000E006C053
:1003400021970109802FFE010E942F28CC37D10769
:1003500080E00807A9F70E9499180C94492950CE0B
:1003600085ED8093BC008091BC0084FDFCCF109291
:100370004E0608954091DF05262F30E0240F311DF1
:1003800021323105DCF420914E062430C9F4FC0101
:1003900080E090E0861758F43091DF052191DC0170
:1003A000A354BA4FA30FB11D2C930196F3CF8091A4
:1003B000DF05680F6093DF0580E0089581E0089510
:1003C00082E008950895E091DF048091DE04E8174B
:1003D00030F4F0E0E356FA4F808190E008958FEF1B
:1003E0009FEF08959091DF048091DE04981750F4F8
:1003F000E92FF0E0E356FA4F208130E09F5F9093C1
:10040000DF0402C02FEF3FEFC90108958091DE04A1
:1004100090E02091DF04821B91090895CF92DF9232
:10042000EF92FF920F931F93CF93DF937C01262FC0
:10043000972F8A0180914F06882391F0C62FD72FDE
:100440006E01C40ED51ECC15DD0569F06991D7018A
:10045000ED91FC910190F081E02DC7011995F3CF4A
:10046000642F822F87DFC801DF91CF911F910F91F9
:10047000FF90EF90DF90CF900895CF93DF931F927E
:10048000CDB7DEB7698320914F062223D1F02091AA
:100490007206203240F021E030E0FC0133832283F9
:1004A00080E090E014C080915006E82FF0E0EF5A11
:1004B000F94F998190838F5F8093500680937206E5
:1004C00004C061E0CE01019655DF81E090E00F901D
:1004D000DF91CF910895089580E090E008958EBD5A
:1004E00000000DB407FEFDCF8EB50895CF92DF92C8
:1004F000EF92FF921F93CF93DF939091F7049111A6
:1005000003C08FEF9FEF77C09091F6049923C9F352
:10051000182FC091FD04D091FE04809195058111A2
:100520000DC00E9494116093910570939205809381
:1005300093059093940581E0809395050E94941112
:10054000C0909105D0909205E0909305F0909405AD
:10055000DC01CB018C199D09AE09BF098D32914098
:10056000A105B105F8F00E94941160939105709374
:10057000920580939305909394058091900591E066
:10058000982790939005992329F010928F05109247
:100590008E0508C08091FD049091FE0490938F0514
:1005A00080938E0520918E0530918F052095309592
:1005B0004091F80450E02423352326FF04C081E055
:1005C00080938D0502C010928D0527FF04C081E045
:1005D00080938C0502C010928C0580919005882331
:1005E00009F48FCF02C0D595C7951A95E2F7C0FFE1
:1005F00088CF80E09CE3DF91CF911F91FF90EF9037
:10060000DF90CF9008958FEE94E00C940C0F4F92F2
:100610005F926F927F928F929F92AF92BF92CF9292
:10062000DF92EF92FF920F931F93CF93DF934B01D3
:100630005C018091040690910506A0910606B09198
:10064000070688169906AA06BB0609F4C2C08CE301
:10065000C82ED12CE12CF12CC501B401A7019601C3
:100660000E94F12760930806CA01B901A70196010B
:100670000E94F12760930906CA01B90128E130E020
:1006800040E050E00E94F12769017A0160930A0678
:10069000CA01B9016C5F7F4F8F4F9F4F27E030E059
:1006A00040E050E00E94F1276F5F60930B06412C01
:1006B000512C320140E004E610E0C0E9D1E0242FE3
:1006C00030E02E54384FF901E370FF27309789F45A
:1006D000C901B8010E94DE27892B31F4C901BE018E
:1006E0000E94DE27892B29F48EE691E0A0E0B0E09D
:1006F00004C08DE691E0A0E0B0E0480E591E6A1EED
:100700007B1ED301C201AA27BB27C816D906EA0659
:10071000FB0610F04F5FD3CF40930E06309799F44D
:10072000C90164E670E00E94DE27892B39F4C90113
:1007300060E971E00E94DE27892B29F48EE691E0C2
:10074000A0E0B0E004C08DE691E0A0E0B0E0481A7F
:10075000590A6A0A7B0AC418D508E608F708C901CD
:1007600064E670E00E94DE27EC01C90160E971E0F7
:100770000E94DE27AAE9B3E020E0213039F4309767
:1007800049F4209729F4009729F402C04C9103C042
:100790004DE101C04CE150E060E070E0C416D506C8
:1007A000E606F70640F0C41AD50AE60AF70A2F5FF4
:1007B00011962C3011F72F5F20930D06C394C09231
:1007C0000C068092040690920506A0920606B0924E
:1007D0000706DF91CF911F910F91FF90EF90DF906F
:1007E000CF90BF90AF909F908F907F906F905F90D1
:1007F0004F900895CF92DF92EF92FF92CF93DF93C5
:10080000EC010E9494116B017C018F850E941510F0
:1008100021E0892B09F420E0298B8889811103C00C
:1008200081E08227898B29898A89281721F0CD8A3E
:10083000DE8AEF8AF88E8D899E89AF89B88DB701DF
:10084000A601481B590B6A0B7B0BDB01CA01CB804D
:10085000DC80ED80FE80C416D506E606F70664F45B
:100860003A81231749F02A83222331F04B895C898E
:100870004F5F5F4F5C8B4B8B3A8131110CC0CF8047
:10088000D884E984FA84C816D906EA06FB06ACF4D3
:100890008B899C890EC0CB84DC84ED84FE84C816D1
:1008A000D906EA06FB064CF48B899C8991958195C3
:1008B0009109998388831C8A1B8A2A8BDF91CF91A7
:1008C000FF90EF90DF90CF9008950F931F93CF93F9
:1008D000DF931F92CDB7DEB78C01862FF8016787B3
:1008E000408B91E04927418B428B148A138A1182F5
:1008F00010821282158A168A178A108E44E150E0FF
:1009000060E070E043835483658376834AEF50E070
:1009100060E070E0478350876187728748EE53E05C
:1009200060E070E0438754876587768760E02983BD
:100930000E946C10F8018089298181110BC022234B
:1009400049F061E087850F90DF91CF911F910F9162
:100950000C943D100F90DF91CF911F910F9108954E
:100960001F920F920FB60F9211240BB60F922F9376
:100970003F934F935F936F937F938F939F93AF9327
:10098000BF93EF93FF938091B900887F803609F47D
:100990009CC068F5883209F45BC090F4803109F49A
:1009A00054C038F4882309F4F6C0883009F44DC0E7
:1009B000F5C0883109F44CC0803209F45DC0EEC046
:1009C000803409F468C048F4803309F455C0883392
:1009D00009F0E4C080934C06D8C0803509F44FC0BC
:1009E000883509F45DC0883409F0D8C0D6C088398C
:1009F00009F4C7C0A8F4883709F467C038F488360A
:100A000009F463C0803709F460C0C8C0883809F4AD
:100A1000B8C0803909F45FC0803809F0BFC05BC03E
:100A2000803B09F486C038F4803A09F466C0883AFD
:100A300009F47FC0B3C0803C09F4A7C0883C09F426
:100A4000A4C0883B09F48AC0A9C08091290610C0BF
:100A500090914B0680914A06981770F5E0914B06ED
:100A600081E08E0F80934B06F0E0E65DF94F8081C8
:100A70008093BB0085EC86C080934C068EC0E091CD
:100A80004B0681E08E0F80934B068091BB00F0E017
:100A9000E65DF94F808390914B0680914A066EC0C7
:100AA000E0914B0681E08E0F80934B068091BB0056
:100AB000F0E0E65DF94F808380914D0681116DC0B5
:100AC00081E08093280684EA61C083E080934E062B
:100AD00010920306CFCF80910306803208F051C0F8
:100AE000E091030681E08E0F809303068091BB00A6
:100AF000F0E0ED51FA4F8083BDCF85EC8093BC00D0
:100B000010924E0680910306803230F4E091030685
:100B1000F0E0ED51FA4F10826091030670E0E09131
:100B2000E105F091E20583EE95E019951092030638
:100B300035C084E080934E061092E0051092DF05E8
:100B4000E091DD05F091DE0519958091DF058111B9
:100B500005C081E08093DF051092BD05E091E005BE
:100B600081E08E0F8093E005F0E0E354FA4F80813E
:100B70008093BB009091E0058091DF05981708F401
:100B800079CF85E88093BC0009C085EC8093BC00D8
:100B900010924E0603C010924C06E2DBFF91EF91DB
:100BA000BF91AF919F918F917F916F915F914F9185
:100BB0003F912F910F900BBE0F900FBE0F901F9083
:100BC00018950C94AB270C94A3272F923F924F9229
:100BD0005F926F927F928F929F92AF92BF92CF92CD
:100BE000DF92EF92FF920F931F93CF93DF9300D08A
:100BF0001F92CDB7DEB70E946F110091880510914A
:100C0000890520918A0530918B05DC01CB01801B81
:100C1000910BA20BB30B8A319144A105B10508F4E5
:100C20003EC10E946F11609388057093890580937F
:100C30008A0590938B0585E797E00E945E0E6B0115
:100C40007C0160E08AE00E943D108AE0482E512C31
:100C5000612C712CC701B601A30192010E941328D7
:100C6000CB01880F991FFC01EA57FC4FC080D1804F
:100C700085E090E029833A834B835C8337DC1C0159
:100C800029813A814B815C81CA01B901A30192019A
:100C90000E941328660F771FFB01EA57FC4FA080C4
:100CA000B18084E090E029833A834B835C831EDC2F
:100CB0007C0129813A814B815C81CA01B901A30180
:100CC00092010E94132829013A01660F771FFB0148
:100CD000EA57FC4F0081118183E090E007DC450179
:100CE0008E209F20A12CB12CAAE0880C991CAA1C54
:100CF000BB1CAA95D1F780239123AC0160E070E082
:100D0000D501C401842B952BA62BB72BC220D32051
:100D1000A60160E070E014E1440F551F661F771FC5
:100D20001A95D1F76C017D01C42AD52AE62AF72A43
:100D300080918D05882319F0E894F6F802C0689434
:100D4000F6F880918C05882319F0E894F7F802C032
:100D50006894F7F88F2DC3DB8E2DC1DB8D2DBFDBA3
:100D60008C2DBDDB8AE0882E912CA12CB12CC301E7
:100D7000B201A50194010E941328CB01880F991F8D
:100D8000FC01EA57FC4F0081118182E090E0298349
:100D90003A834B835C83AADB6C0129813A814B81C6
:100DA0005C81CA01B901A50194010E941328660F54
:100DB000771FFB01EA57FC4F6080718081E090E073
:100DC00029833A834B835C8391DBC022D122E12CBF
:100DD000F12CF4E1CC0CDD1CEE1CFF1CFA95D1F7D4
:100DE00086219721A0E0B0E01AE0880F991FAA1F82
:100DF000BB1F1A95D1F7C82AD92AEA2AFB2A2981CA
:100E00003A814B815C81CA01B901A50194010E941C
:100E10001328660F771FFB01EA57FC4F00811181F1
:100E200080E090E063DB80239123A0E0B0E0C82A5B
:100E3000D92AEA2AFB2A80918D05882319F0E894A3
:100E4000F6F802C06894F6F880918C05882319F0B2
:100E5000E894F7F802C06894F7F88F2D40DB8E2DE8
:100E60003EDB8D2D3CDB8C2D3ADB61E08AE00F9080
:100E70000F900F900F90DF91CF911F910F91FF90E6
:100E8000EF90DF90CF90BF90AF909F908F907F902A
:100E90006F905F904F903F902F900C943D100F906B
:100EA0000F900F900F90DF91CF911F910F91FF90B6
:100EB000EF90DF90CF90BF90AF909F908F907F90FA
:100EC0006F905F904F903F902F9008954F925F9258
:100ED0006F927F928F929F92AF92BF92CF92DF924A
:100EE000EF92FF920F931F93CF93DF9300D000D028
:100EF000CDB7DEB77C014B015A018091F504882300
:100F000041F080917B0502E815E0ACE7B5E0F8011F
:100F100042C081E08093F50482E8682E85E0782E57
:100F20009CE7492E95E0592E00E010E00F5F1F4F1F
:100F3000680181E0C81AD1089801A601B401CE0168
:100F40000196C2D7CE010196B9D6F30161933F0154
:100F5000CE01019661D79801A601B501CE01019697
:100F6000B3D7CE010196AAD6F20161932F01CE012B
:100F7000019652D706301105C9F6C3CF2C919213B2
:100F80000DC090819A3009F410823196119695E047
:100F9000E838F90731F090818A3080F79F5F9083BD
:100FA000F0CF8F5F843119F080937B0504C01092DD
:100FB0007B051092F5046CED74E0C70171D7FE015A
:100FC00031966F01F80181918F014AE0B60190E0FE
:100FD0000E945B27F60101900020E9F73197AF01ED
:100FE0004C195D09B601C70174D6F5E008381F0732
:100FF00049F7C70126960FB6F894DEBF0FBECDBFE6
:10100000DF91CF911F910F91FF90EF90DF90CF90E4
:10101000BF90AF909F908F907F906F905F904F9018
:10102000089588E090E0CFDD682F89E00E943D10B0
:1010300089E090E0C8DD682F86E00E943D108AE0DC
:1010400090E0C1DD682F83E00C943D100F931F9357
:101050008091250290912602892B09F455C0809138
:101060007A058823A9F00E949411009176051091C9
:1010700077052091780530917905DC01CB01801B43
:10108000910BA20BB30B893E9340A105B105C8F5A6
:1010900080917A05811138C00E94C91420911F02E5
:1010A000309120028217930779F50E94C214209193
:1010B0002102309122028217930731F50E94BB145E
:1010C000209123023091240282179307E9F40E94B1
:1010D00094116093760570937705809378059093CB
:1010E000790581E080937A0589E892E00E941B17D8
:1010F0008091000290910102909303058093020574
:1011000003C010927A05C4CF1F910F910895CF9319
:10111000DF93EC01019628812A33D9F7898184363F
:1011200039F51092EE041092ED0423964AE0FE0188
:101130008881219690ED980F2091ED043091EE0476
:101140009A3080F4429FB001439F700D1124082E05
:10115000000C990BC097860F971F9093EE04809315
:10116000ED04E5CF1216130614F420930302EF01E9
:10117000219688818F3689F48A81082E000C990B7C
:101180009C01205331093093EE042093ED04C39762
:10119000059710F42093020224968881823629F55F
:1011A0001092EE041092ED04FE0132964AE0819115
:1011B00090ED980F2091ED043091EE049A3080F478
:1011C000429FB001439F700D1124082E000C990B13
:1011D000C097860F971F9093EE048093ED04E7CF9E
:1011E00030932A0220932902EF01209129023091A5
:1011F0002A02032E000C440B550B60E67AEE80E0C9
:1012000090E00E941328DA01C90122E0880F991F9B
:10121000AA1FBB1F2A95D1F78093E9049093EA0493
:10122000A093EB04B093EC04CE01DF91CF9108952D
:10123000CF92DF92EF92FF920F931F93CF93DF93A2
:10124000CDB7DEB72C970FB6F894DEBF0FBECDBF7B
:101250008C0162E074E0CE01019622D603301105C4
:1012600029F422E030E040E050E021C00C301105CC
:1012700029F424E030E042E050E019C000331105C9
:1012800019F426E030E007C0003F110539F4209141
:10129000790730917A0744E050E009C0003C11051D
:1012A000A1F42091790730917A0746E050E065E794
:1012B00077E0CE01079608D6BE01695F7F4FCE0169
:1012C000019671D5CE010796A7D5CE010196F6D429
:1012D0006B017C01CE0101969FD5C6012C960FB6FD
:1012E000F894DEBF0FBECDBFDF91CF911F910F915C
:1012F000FF90EF90DF90CF90089581E080934F06AC
:1013000088E680937106109250061092720660E093
:101310008EE197E0B2D80E94B81780914E068111F5
:10132000FCCF81E080934E0680934D069FEF909313
:101330004C0610924B0696E090934A06809329063D
:1013400080912906806D809329068091280681303E
:1013500061F410922806809129068093BB00809149
:10136000BC0083FDF8CF85EC01C085EE8093BC0006
:1013700080914E068130E1F380914B06873018F45E
:1013800080914B0601C087E0AAE2B6E02DE935E086
:10139000F9019E2F921B981718F49D919193F9CF04
:1013A0001092DF048093DE048EE197E01BD8982F23
:1013B00092959F708F702AE0929F800D112490E08B
:1013C00090930905809308058EE197E00BD8982F3C
:1013D00092959F708F702AE0929F800D112490E06B
:1013E00090930705809306058EE197E00E94F20135
:1013F000982F9695969596959670292F220F220FE5
:10140000920F8F70890F90E09093050580930405EB
:101410008EE197E00E94F201982F92959F708F7055
:101420002AE0929F800D112490E09093750580939F
:1014300074058EE197E00E94F201982F92959F70BB
:101440008F702AE0929F800D112490E090930B05FD
:1014500080930A058EE197E00E94F201982F929501
:101460009F708F702AE0929F800D112490E09093DE
:101470000D0580930C058EE197E00E94F201982FF4
:1014800092959F708F702AE0929F800D112490E0BA
:1014900090930F0580930E0508950F931F93CF939C
:1014A000DF93CDB7DEB762970FB6F894DEBF0FBEFD
:1014B000CDBF8C014AE06A3071050CF5CE010D9666
:1014C000B0D46BEF73E0CE010196EAD4BE016F5F3A
:1014D0007F4FCE010796DCD4BE01635F7F4FCE0104
:1014E00007963BD4BC01C801D3D4CE01079694D44F
:1014F000CE01019691D4CE010D968ED401C091D427
:10150000C80162960FB6F894DEBF0FBECDBFDF9163
:10151000CF911F910F9108950F931F93CF93DF9356
:10152000CDB7DEB768970FB6F894DEBF0FBECDBF5C
:101530008B01833081F42091790730917A0742E062
:1015400050E065E777E0CE010D96BED4B801CE013C
:101550000196A3DF54C08C3009F038C02091790780
:1015600030917A0744E050E065E777E0CE0143969A
:10157000ABD4B801CE010D9690DF22E030E040E020
:1015800050E065E777E0CE0101969ED4BE016F5F23
:101590007F4FCE0107967CD4BE01635F7F4FCE01A3
:1015A0000796DBD3BE016D5E7F4FD7D3BC0185E7C5
:1015B00097E0E4D3CE0107962FD4CE0101962CD428
:1015C000CE010D9629D4CE01439631C0803311F05F
:1015D000803F39F4B801CE010D965FDF24E030E0A2
:1015E00007C0803C29F5CE010D9657DF26E030E09C
:1015F00040E050E065E777E0CE01019665D4BE019A
:101600006F5F7F4FCE01079643D4BE01635F7F4F6C
:10161000CE010796A2D3BC0185E797E0AFD3CE01F8
:101620000796FAD3CE010196F7D3CE010D96F4D3E7
:1016300068960FB6F894DEBF0FBECDBFDF91CF9195
:101640001F910F91089570D66093F9047093FA0476
:101650008093FB049093FC048091FF04882309F499
:1016600067C02091000530910105C901880F991FBD
:101670002E30310551F0FC01E55FFD4F4081518175
:1016800041505109518340830AC040912702509133
:1016900028024C5051095093280240932702DC0144
:1016A000A55FBD4F6D917C911197FC01E859FC4FEE
:1016B00040815181641775073CF4FC01E65BFC4FE7
:1016C000808191818D939C932D30310521F58091FE
:1016D000250290912602019721F480E88093F80476
:1016E00002C01092F80483EB94E00E94A816E091E7
:1016F0000005F0910105EE0FFF1FE55FFD4F8081B2
:1017000091810E9427178EEB94E00E94A816809189
:10171000F8040E945D17E0910005F0910105EE0FBD
:10172000FF1FE55FFD4F608171818091FD04F4CE64
:101730000895FAD56093F9047093FA048093FB043A
:101740009093FC048091FF04882309F467C02091E2
:10175000000530910105C901880F991F2E30310510
:1017600051F0FC01E55FFD4F408151814F5F5F4FBC
:10177000518340830AC04091270250912802445F60
:101780005F4F5093280240932702DC01A55FBD4FB5
:101790006D917C911197FC01E65BFC4F408151817A
:1017A000461757073CF4FC01E859FC4F80819181B2
:1017B0008D939C932D30310521F5809125029091D8
:1017C0002602019721F480E88093F80402C0109269
:1017D000F8048AEC94E00E94A816E0910005F091CC
:1017E0000105EE0FFF1FE55FFD4F808191810E9493
:1017F00027178EEB94E00E94A8168091F8040E94AF
:101800005D17E0910005F0910105EE0FFF1FE55F08
:10181000FD4F608171818091FD047ECE08950F930C
:101820001F93CF93DF93CDB7DEB768970FB6F894C9
:10183000DEBF0FBECDBF8C018091270290912802A0
:10184000489781F40E94BB14BC01CE01439625DE6B
:101850000E94C214BC01CE010D961FDE0E94C91465
:10186000BC011CC00E94BB14BC01CE01439615DE16
:101870000E94C214BC01CE010D960FDEDDD70E947E
:10188000070380910A06882339F0682F70E08D30B5
:1018900028F06C50710902C06CE070E0CE01019636
:1018A000FCDDBE016F5F7F4FCE010796F1D2BE0116
:1018B000635F7F4FCE01079650D2BE016D5E7F4FB2
:1018C0004CD2BC01C801E4D2CE010796A5D2CE010C
:1018D0000196A2D2CE010D969FD2CE0143969CD204
:1018E000C80168960FB6F894DEBF0FBECDBFDF917A
:1018F000CF911F910F9108950895CF92DF92EF92AB
:10190000FF920F931F93CF93DF936C017A018B01AA
:10191000C0E0D0E0CE15DF0589F0D8016D918D01D2
:10192000D601ED91FC910190F081E02DC601199551
:10193000892B11F47E0102C02196ECCFC701DF9103
:10194000CF911F910F91FF90EF90DF90CF9008956E
:10195000FC01538D448D252F30E0842F90E0821BB5
:10196000930B541710F0CF96089501970895FC013A
:10197000918D828D981761F0828DDF01A80FB11DC6
:101980005D968C91928D9F5F9F73928F90E00895EA
:101990008FEF9FEF0895FC01918D828D981731F0A4
:1019A000828DE80FF11D858D90E008958FEF9FEFF8
:1019B0000895FC01918D228D892F90E0805C9F4FCE
:1019C000821B91098F739927089581E896E0F1DFD2
:1019D00021E0892B09F420E0822F0895FC01848DF9
:1019E000DF01A80FB11DA35ABF4F2C91848D90E049
:1019F00001968F739927848FA689B7892C93A08924
:101A0000B1898C9180648C93938D848D981306C0DA
:101A10000288F389E02D80818F7D80830895EF9285
:101A2000FF920F931F93CF93DF93EC0181E0888F98
:101A30009B8D8C8D981305C0E889F989808185FD7F
:101A400023C0F62E0B8D10E00F5F1F4F0F73112771
:101A5000E02E8C8DE8120BC00FB607FCFACFE88998
:101A6000F989808185FFF5CFCE01B8DFF2CF8B8D6C
:101A7000FE01E80FF11DE35AFF4FF0820B8FEA8958
:101A8000FB898081806207C0EE89FF896083E889D5
:101A9000F98980818064808381E090E0DF91CF913B
:101AA0001F910F91FF90EF900895CF93DF93EC017A
:101AB000888D8823C1F0EA89FB89808185FD05C076
:101AC000A889B9898C9186FD0EC00FB607FCF5CFA9
:101AD000808185FFF2CFA889B9898C9185FFEDCFF0
:101AE000CE017CDFE8CFDF91CF91089580E090E0D8
:101AF000892B19F06ADF811125C080E090E0892BE5
:101B000041F080E090E0892B21F00E9400008111DB
:101B10001CC080E090E0892B41F080E090E0892BB0
:101B200021F00E940000811113C080E090E0892B19
:101B3000A1F080E090E0892B81F00E9400008111EB
:101B40000AC008950E940000D8CF0E940000E1CF93
:101B50000E940000EACF0C940000089590E0FC0180
:101B60003197E231F10508F04EC08827E758FF4F62
:101B70008F4F0C942F28809180008F7703C0809125
:101B800080008F7D80938000089580918000877F02
:101B9000F9CF84B58F7702C084B58F7D84BD089559
:101BA0008091B0008F7703C08091B0008F7D8093CB
:101BB000B0000895809190008F7707C080919000C9
:101BC0008F7D03C080919000877F8093900008955F
:101BD0008091A0008F7707C08091A0008F7D03C007
:101BE0008091A000877F8093A000089580912001BC
:101BF0008F7707C0809120018F7D03C080912001E5
:101C0000877F8093200108950E943529CF93DF9329
:101C1000EC0188819981009711F00E949326198226
:101C200018821D821C821B821A82DF91CF91089537
:101C30000F931F93CF93DF93EC01888199810097D5
:101C400029F02A813B812617370788F48B016F5FC3
:101C50007F4F0E945128009761F0998388831B83EE
:101C60000A832C813D81232B11F4FC01108281E039
:101C700001C080E0DF91CF911F910F910895EF9205
:101C8000FF920F931F93CF93DF93EC017B018A01A7
:101C9000BA01CEDF811103C0CE01B8DF07C01D83BA
:101CA0000C83B701888199810E944229CE01DF917E
:101CB000CF911F910F91FF90EF900895FC018081CB
:101CC0009181009711F00C942B2760E070E0CB011C
:101CD0000895EF92FF920F931F93CF93DF93FC0130
:101CE000248135816115710511F480E018C041151A
:101CF0005105A1F07B01EC018A01020F131FB8010D
:101D000097DF882391F3288139818C819D81B701E8
:101D1000820F931F0E9442291D830C8381E0DF9173
:101D2000CF911F910F91FF90EF900895CF93DF9384
:101D3000EC016115710559F0FB0101900020E9F7F4
:101D40003197AF01461B570BC4DF811102C0CE0192
:101D50005DDFCE01DF91CF910895CF93DF93EC014A
:101D6000FB014481558160817181B3DF811102C023
:101D7000CE014CDFCE01DF91CF910895CF93DF9359
:101D8000EC01FB018617970751F0608171816115A5
:101D9000710521F04481558172DF01C037DFCE012A
:101DA000DF91CF9108950F931F93CF93DF938C0111
:101DB000EB01FC01808191810097B1F0688179810C
:101DC0006115710579F0428153812C813D81421763
:101DD000530740F00E9442298C819D81F801958330
:101DE000848313C00E94932688819981F80191838E
:101DF00080838A819B81938382838C819D8195835B
:101E00008483198218821B821A821D821C82DF91B0
:101E1000CF911F910F910895FC01808191810C94C5
:101E20009326EF92FF920F931F93CF93DF93CDB73B
:101E3000DEB762970FB6F894DEBF0FBECDBF8C0140
:101E4000CB01F80111821082138212821582148252
:101E500050E09E012F5F3F4F7901B9010E94512749
:101E6000F70101900020E9F73197AF014E195F09A2
:101E7000B701C80104DF62960FB6F894DEBF0FBE4B
:101E8000CDBFDF91CF911F910F91FF90EF900895FB
:101E9000FC011182108213821282158214826ECF8D
:101EA000FC01118210821382128215821482611544
:101EB000710549F0FB0101900020E9F73197AF016E
:101EC000461B570BDCCE0895BF92CF92DF92EF9264
:101ED000FF920F931F93CF93DF937C016B01EA0175
:101EE00089012417350720F48D2FE901042F182FBD
:101EF0006CED74E0C701D4DFD60114968D919C91EE
:101F00001597C817D90738F58017910708F48C0181
:101F1000D601ED91FC911197E00FF11FB080108276
:101F20004D915C91BA016C0F7D1F6115710559F0DF
:101F3000FB0101900020E9F73197AF01461B570BD9
:101F4000C7019DDE02C0C70161DED601ED91FC91A3
:101F5000E00FF11FB082C701DF91CF911F910F9168
:101F6000FF90EF90DF90CF90BF9008951F920F9257
:101F70000FB60F9211240BB60F922F933F934F93EE
:101F80005F936F937F938F939F93AF93BF93EF93E1
:101F9000FF9381E896E022DDFF91EF91BF91AF9131
:101FA0009F918F917F916F915F914F913F912F9171
:101FB0000F900BBE0F900FBE0F901F9018951F92A1
:101FC0000F920FB60F9211240BB60F922F938F938F
:101FD0009F93EF93FF93E0919106F0919206808199
:101FE000E0919706F091980682FD12C09081809151
:101FF0009A068F5F8F7320919B06821751F0E091B4
:102000009A06F0E0EF57F94F958F80939A0601C03A
:102010008081FF91EF919F918F912F910F900BBE37
:102020000F900FBE0F901F901895CF93DF93282F1E
:1020300030E0F901EF54FD4F8491F901EF58FE4F64
:10204000D491F901E954FE4FC491CC2389F0811158
:1020500085DDEC2FF0E0EE0FFF1FE956FD4FA59157
:10206000B491EC91ED2381E090E021F480E002C096
:1020700080E090E0DF91CF9108951F93CF93DF939D
:10208000282F30E0F901EF54FD4F8491F901EF580A
:10209000FE4FD491F901E954FE4FC491CC23C1F015
:1020A000162F81115BDDEC2FF0E0EE0FFF1FE65CD9
:1020B000FE4FA591B4918FB7F894111105C09C9172
:1020C000ED2FE095E92302C0EC91ED2BEC938FBF4F
:1020D000DF91CF911F910895CF93DF9390E0FC01A2
:1020E000EF58FE4F2491FC01E954FE4F8491882360
:1020F00061F190E0880F991FFC01E95AFE4FC591EC
:10210000D491FC01E65CFE4FA591B491611109C028
:102110009FB7F8948881209582238883EC912E23A1
:102120000BC0623061F49FB7F8943881822F80959C
:1021300083238883EC912E2B2C939FBF06C08FB7EF
:10214000F894E8812E2B28838FBFDF91CF910895DB
:102150001F93CF93DF93182FEB0161E0BDDF209732
:1021600011F460E004C0CF3FD10531F461E0812F6C
:10217000DF91CF911F9181CFE12FF0E0EF54FD4F20
:10218000E4914E2F50E0FA013197E231F10508F069
:102190009DC08827E557FF4F8F4F0C942F2884B59B
:1021A000806884BDC7BD97C084B5806284BDC8BD4A
:1021B00092C080918000806880938000D0938900D5
:1021C000C093880088C080918000806280938000E6
:1021D000D0938B00C0938A007EC08091800088607D
:1021E00080938000D0938D00C0938C0074C0809148
:1021F000B00080688093B000C093B3006CC0809141
:10220000B00080628093B000C093B40064C080913D
:102210009000806880939000D0939900C0939800BC
:102220005AC080919000806280939000D0939B0070
:10223000C0939A0050C08091900088608093900075
:10224000D0939D00C0939C0046C08091A000806800
:102250008093A0008091A0008F7B8093A000D093FA
:10226000A900C093A80037C08091A000806280932D
:10227000A000D093AB00C093AA002DC08091A00015
:1022800088608093A000D093AD00C093AC0023C0C1
:1022900080912001806880932001D0932901C09310
:1022A000280119C080912001806280932001D09381
:1022B0002B01C0932A010FC0809120018860809378
:1022C0002001D0932D01C0932C0105C0C038D10549
:1022D0000CF04CCF46CFDF91CF911F9108953FB7BF
:1022E000F8948091240690912506A0912606B0913D
:1022F000270626B5A89B05C02F3F19F00196A11D02
:10230000B11D3FBFBA2FA92F982F8827820F911D8B
:10231000A11DB11DBC01CD0142E0660F771F881FD2
:10232000991F4A95D1F708952FB7F8946091200628
:102330007091210680912206909123062FBF089567
:1023400060931B0670931C0680931D0690931E06D7
:10235000DC01CB01845D9E4FAF4FBF4F80931706CA
:1023600090931806A0931906B0931A0682E090E0A5
:102370009093160680931506D7DF6093110670932D
:102380001206809313069093140608951F920F92DD
:102390000FB60F9211242F933F938F939F93AF9378
:1023A000BF938091200690912106A0912206B091C2
:1023B000230630911F0623E0230F2D3720F40196CA
:1023C000A11DB11D05C026E8230F0296A11DB11D58
:1023D00020931F068093200690932106A093220647
:1023E000B09323068091240690912506A09126069D
:1023F000B09127060196A11DB11D809324069093EC
:102400002506A0932606B0932706BF91AF919F9112
:102410008F913F912F910F900FBE0F901F901895A5
:102420001F920F920FB60F9211240BB60F922F939B
:102430003F934F935F936F937F938F939F93EF930C
:10244000FF934091730650917406609175067091E8
:102450007606411551056105710599F08091E004FA
:10246000E091E104F091E2049081892780831416C1
:10247000150616061706D4F4415051096109710971
:1024800015C0809170008D7F809370009091E00462
:10249000E091E104F091E2048081282F30E0892F5F
:1024A00090E08095909582239323808340937306D8
:1024B000509374066093750670937606FF91EF91C2
:1024C0009F918F917F916F915F914F913F912F914C
:1024D0000F900BBE0F900FBE0F901F9018951F927C
:1024E0000F920FB60F9211240BB60F922F933F93BA
:1024F0008F939F93AF93BF93EF93FF938091770652
:1025000090917806A0917906B0917A06892B8A2B52
:102510008B2B51F18091E304E091E404F091E50408
:102520009081892780838091770690917806A09189
:102530007906B0917A06181619061A061B064CF58C
:102540008091770690917806A0917906B0917A06ED
:102550000197A109B1098093770690937806A0931B
:102560007906B0937A0615C080916F008D7F8093B5
:102570006F009091E304E091E404F091E504808120
:10258000282F30E0892F90E0809590958223932327
:102590008083FF91EF91BF91AF919F918F913F9178
:1025A0002F910F900BBE0F900FBE0F901F9018959C
:1025B0001F920F920FB60F9211240BB60F922F930A
:1025C0003F938F939F93AF93BF93EF93FF9380912C
:1025D0007B0690917C06A0917D06B0917E06892BAA
:1025E0008A2B8B2B51F18091E604E091E704F09166
:1025F000E80490818927808380917B0690917C06F6
:10260000A0917D06B0917E06181619061A061B06C3
:102610004CF580917B0690917C06A0917D06B0914F
:102620007E060197A109B10980937B0690937C06F1
:10263000A0937D06B0937E0615C080916E008D7FBD
:1026400080936E009091E604E091E704F091E80435
:102650008081282F30E0892F90E08095909582230B
:1026600093238083FF91EF91BF91AF919F918F91C1
:102670003F912F910F900BBE0F900FBE0F901F90A8
:1026800018953F924F925F926F927F928F929F9296
:10269000AF92BF92CF92DF92EF92FF920F931F9370
:1026A000CF93DF93382E962E842EF90184E6E81618
:1026B000F1042CF082EBE81A87E0F80A03C08EE1FF
:1026C000E80EF11CE0920E0600930D06E0930C0656
:1026D00030920A069092090680920806AE2DB0E06C
:1026E00020E833E341EE51E00E94B9272B013C0181
:1026F00022EB37E0FF2484E6C82ED12CC0E9D1E0DC
:10270000C901825B97408E159F05DCF4C901837077
:102710009927892B99F4C901B6010E94DE27892BDC
:1027200031F4C901BE010E94DE27892B39F480E80B
:10273000480E81E5581E81E0681E711C2F5F3F4FD7
:10274000DFCF8EE4E81A88EFF80AC70164E670E08C
:102750000E94DE276C01C70160E971E00E94DE275C
:102760005C01C1E0D0E0112783E0E822FF24C0171C
:10277000D1072CF5C230D10589F4E114F10471F4CC
:10278000C114D10419F4A114B10441F480E8480E35
:102790008BE3581E86E2681E711C0FC0DE01A7562F
:1027A000BC4FAC91B0E020E831E541E050E00E9440
:1027B000B927460E571E681E791E2196D8CF292D9F
:1027C00030E0ACE3B0E00E94C3276B017C01C80C91
:1027D000D11CE11CF11C232D30E0A0E1BEE00E94E1
:1027E000C327C60ED71EE81EF91EDF01BB271197AF
:1027F00020E831E541E050E00E943728DC01CB01C0
:102800008C0D9D1DAE1DBF1DBC01CD01640D751D40
:10281000861D971DDF91CF911F910F91FF90EF9033
:10282000DF90CF90BF90AF909F908F907F906F90F0
:102830005F904F903F9084CDCF92DF92EF92FF92C6
:102840000F931F9371DDC0901106D0901206E09097
:102850001306F09014068B019C010C191D092E091A
:102860003F0980911B0690911C06A0911D06B09116
:102870001E06083E134021053105D0F00196A11D2A
:10288000B11D80931B0690931C06A0931D06B09368
:102890001E06B701A60148515C4F6F4F7F4F409312
:1028A0001106509312066093130670931406CACF54
:1028B00040911706509118066091190670911A06FA
:1028C00084179507A607B70780F1E0910F06F091EE
:1028D0001006309751F11995611571058105910523
:1028E00011F02EDD22C080911B0690911C06A09154
:1028F0001D06B0911E06845D9E4FAF4FBF4F809363
:10290000170690931806A0931906B0931A0681E053
:1029100090E02091150630911606232B11F480E0EB
:1029200090E0909316068093150660911B067091B7
:102930001C0680911D0690911E061F910F91FF901D
:10294000EF90DF90CF90089577DF0E94070380918A
:102950000E0690E08E54984F08956EDF0E94070394
:1029600080910D0690E0089567DF0E940703809133
:102970000C0690E0089560DF0E940703809108062E
:1029800090E0089559DF0E9407038091090690E0C6
:10299000089552DF0E94070380910A0690E008958F
:1029A0003F924F925F926F927F928F929F92AF92DF
:1029B000BF92CF92DF92EF92FF920F931F93CF932C
:1029C000DF9300D01F92CDB7DEB72091800627FDA0
:1029D000A9C149835A836B837C838C0161E0809118
:1029E0007F067ADB30908006832D8D7F4801A12CF5
:1029F000B12C09F0B7C060E072E18AE790E0A50170
:102A000094010E94132829013A0169017A0121E009
:102A1000C21AD108E108F1088FEFC816D104E10409
:102A2000F10409F008F44CC060E472E48FE090E037
:102A3000A50194010E94132869017A0191E0C91A45
:102A4000D108E108F108A2E03A1220C0BFEFCB168E
:102A5000D104E104F10409F008F462C160E970ED09
:102A600083E090E0A50194010E94132869017A0196
:102A7000E1E0CE1AD108E108F108FFEFCF16D1044A
:102A8000E104F10409F0C0F583E065C02FEFC21640
:102A9000D104E104F104B1F0A8F068E478EE81E03B
:102AA00090E0A50194010E94132869017A0181E058
:102AB000C81AD108E108F108332009F4D9C027C1A8
:102AC00081E001C082E0332091F045C0D301C20112
:102AD0002AE0B595A795979587952A95D1F76C012A
:102AE0007D01E1E0CE1AD108E108F10885E095B555
:102AF000987F892B85BD66C068E478EE81E090E020
:102B0000A50194010E94132869017A01B1E0CB1A52
:102B1000D108E108F108EFEFCE16D104E104F10489
:102B200009F008F4A3C064E274EF80E090E0A5012E
:102B300094010E94132869017A0191E0C91AD10811
:102B4000E108F108AFEFCA16D104E104F10411F075
:102B500008F0B0C085E09091B100987F892B8093F8
:102B6000B10030C060E072E18AE790E0A501940115
:102B70000E94132869017A01F1E0CF1AD108E10817
:102B8000F108C114D10421E0E206F10488F068E400
:102B900078EE81E090E0A50194010E94132869017C
:102BA0007A0181E0C81AD108E108F10893E001C078
:102BB00091E0A1E03A1206C080918100887F892BC4
:102BC0008093810089819A81AB81BC81892B8A2B7A
:102BD0008B2B81F0D801AA0FBB1F29813A814B8131
:102BE0005C810E94B92728EE33E040E050E00E946B
:102BF000F12703C02FEF3FEFA90191E03916A1F0B3
:102C0000A2E03A1619F131108DC0C7BC20937B06A3
:102C100030937C0640937D0650937E0680916E0033
:102C2000826080936E007EC0D0928900C09288003E
:102C300020937706309378064093790650937A066E
:102C400080916F00826080936F006CC0C092B3006F
:102C5000209373063093740640937506509376065E
:102C6000809170008260809370005CC084E073CFBC
:102C70008FEFC816D104E104F104D1F0C8F062E18D
:102C80007AE780E090E0A50194010E941328690191
:102C90007A01F1E0CF1AD108E108F1082FEFC2164E
:102CA000D104E104F10411F008F010CF84E01FCF4B
:102CB00083E01DCF62E17AE780E090E0A501940116
:102CC0000E94132869017A0191E0C91AD108E1082C
:102CD000F108AFEFCA16D104E104F104B1F0A8F095
:102CE000D301C2014AE0B595A795979587954A9576
:102CF000D1F76C017D01E1E0CE1AD108E108F108BD
:102D0000332009F4F3CE87E026CF86E0DCCEBFEF98
:102D1000CB16D104E104F10409F060F684E0D3CECF
:102D200082E019CF0F900F900F900F90DF91CF910D
:102D30001F910F91FF90EF90DF90CF90BF90AF90D9
:102D40009F908F907F906F905F904F903F900895ED
:102D5000009769F0FC0101900020E9F73197AF017D
:102D6000481B590BBC0181E896E00C947D0C80E077
:102D700090E008958F929F92AF92BF920F931F930E
:102D8000CF93DF93CDB7DEB7A1970FB6F894DEBF30
:102D90000FBECDBF19A2423008F44AE08E010F5D8C
:102DA0001F4F842E912CA12CB12CA50194010E94BF
:102DB000F127E62FB901CA0101501109EA3014F4D4
:102DC000E05D01C0E95CD801EC93232B242B252B7B
:102DD00061F7C801BDDFA1960FB6F894DEBF0FBE44
:102DE000CDBFDF91CF911F910F91BF90AF909F907A
:102DF0008F9008950F931F93CF93DF938C01C0E0C2
:102E0000D0E0F801EC0FFD1F6491662371F0E091B2
:102E10008106F09182060190F081E02D81E896E034
:102E20001995892B11F02196ECCFCE01DF91CF912E
:102E30001F910F910895CF93DF93DCDFEC018AEDB2
:102E400094E086DF8C0F9D1FDF91CF910895CF9284
:102E5000DF92EF92FF92CF93DF936C01990FEE0810
:102E6000FF08F7FE19C0E0918106F09182060190FB
:102E7000F081E02D6DE281E896E01995EC0166277E
:102E80007727CB016C197D098E099F094AE072DF13
:102E90007C01EC0EFD1E05C04AE0C701B6016ADFE9
:102EA0007C018AED94E054DF8E0D9F1DDF91CF9160
:102EB000FF90EF90DF90CF900895CF93DF93682F2E
:102EC00070E080E090E042E055DFEC018AED94E0B4
:102ED0003FDF8C0F9D1FDF91CF910895CF93DF933C
:102EE000FC01448155816081718181E896E00E94F6
:102EF0007D0CEC018AED94E02BDF8C0F9D1FDF91A0
:102F0000CF9108958F929F92AF92BF92CF92DF920E
:102F1000EF92FF92E4D94B015C0188EEC82E83E06A
:102F2000D82EE12CF12CDBD9DC01CB0188199909D1
:102F3000AA09BB09883E9340A105B10558F021E0DC
:102F4000C21AD108E108F10888EE880E83E0981EC5
:102F5000A11CB11CC114D104E104F10421F7FF90BC
:102F6000EF90DF90CF90BF90AF909F908F9008959B
:102F70002091720690917106213208F04AC080912A
:102F80004E068111FCCF32E030934E0631E0309393
:102F90004D063FEF30934C0610924B0620934A06A5
:102FA000A1E5B6E04AE256E0FA013E2F341B3217A3
:102FB00018F43D913193F9CF1092290620912906FA
:102FC000990F922B9093290690912806913061F4E5
:102FD00010922806909129069093BB009091BC0016
:102FE00093FDF8CF95EC01C095EE9093BC009091C5
:102FF0004E069230E1F390914C069F3F79F080911C
:103000004C06803241F080914C06803331F084E0F0
:1030100005C081E003C082E001C083E01092500649
:103020001092720610924F060895DF92EF92FF926F
:103030000F931F93CF93DF931F921F92CDB7DEB7ED
:10304000F82E162F81E080934F0688E68093710654
:10305000109250061092720660E08EE197E02A838B
:1030600049830E943D028AE0D82E4981842F6D2D2C
:103070000E94D227692F30E1839F600D11248EE1D9
:1030800097E00E943D02812F6D2D0E94D227692F6B
:1030900030E1839F600D11248EE197E00E943D0294
:1030A0008F2D6D2D0E94D227692F30E1839F600DF7
:1030B00011248EE197E00E943D0261E08EE197E0ED
:1030C0000E943D022A81822F6D2D0E94D227692FF6
:1030D00020E1829F600D11248EE197E00E943D0265
:1030E000802F6D2D0E94D227692F30E1839F600DC4
:1030F00011248EE197E00E943D028E2D6D2D0E94DD
:10310000D227692F20E1829F600D11248EE197E084
:103110000E943D0260E08EE197E00E943D020F9028
:103120000F90DF91CF911F910F91FF90EF90DF9063
:103130001FCFCF93DF93CDB7DEB7CC56D1090FB6F3
:10314000F894DEBF0FBECDBF789484B5826084BD95
:1031500084B5816084BD85B5826085BD85B581609B
:1031600085BD80916E00816080936E001092810019
:1031700080918100826080938100809181008160D4
:103180008093810080918000816080938000809195
:10319000B10084608093B1008091B0008160809321
:1031A000B0008091910082608093910080919100A5
:1031B0008160809391008091900081608093900065
:1031C0008091A10082608093A1008091A100816024
:1031D0008093A1008091A00081608093A0008091E5
:1031E000210182608093210180912101816080937F
:1031F00021018091200181608093200180917A00DB
:10320000846080937A0080917A00826080937A0053
:1032100080917A00816080937A0080917A00806842
:1032200080937A001092C10061E085E00E946C10EA
:1032300060E085E00E943D101092DF041092DE04F1
:10324000109250061092720610924E0681E0809302
:103250004D061092280661E084E10E943D1061E075
:1032600085E10E943D108091B9008E7F8093B90066
:103270008091B9008D7F8093B90088E48093B80075
:1032800085E48093BC00E0919106F091920682E083
:103290008083E0918D06F0918E061082E0918F067A
:1032A000F091900680E1808310929906E091950656
:1032B000F091960686E08083E0919306F091940663
:1032C000808180618083E0919306F09194068081F3
:1032D00088608083E0919306F091940680818068F5
:1032E0008083E0919306F091940680818F7D8083A6
:1032F0008BEC93E02DDD80E390E0A9DD81E090E0B0
:103300000E94E3058C3019F088E190E002C08CE067
:1033100090E0909328028093270280E090E00E9442
:10332000E305882321F081E08093080202C0109217
:10333000080282E090E00E94E3058F3F29F410929A
:10334000200210921F0205C090E09093200280930B
:103350001F0283E090E00E94E3058F3F29F4109262
:1033600022021092210205C090E0909322028093E5
:10337000210284E090E00E94E3058F3F29F410923F
:1033800024021092230205C090E0909324028093BF
:10339000230286E090E00E94E3058F3F29F410921B
:1033A00026021092250205C090E090932602809399
:1033B000250287E090E00E94E3058F3F19F4109208
:1033C0006B0506C091E0811101C090E090936B0500
:1033D00061E089E00E946C1061E086E00E946C1060
:1033E00061E083E00E946C1080911005833008F04A
:1033F00083C092E090937F06E82FF0E0EC5AFE4FF6
:10340000E491E09380068F5F80931005E13031F105
:10341000E23009F44AC0E11172C014BC15BC84B595
:10342000826084BD85B5816085BD80917F0690E016
:10343000FC01E954FE4FE491F0E0EE0FFF1FE65C63
:10344000FE4F259134913093E8042093E704FC016A
:10345000EF58FE4FE491E093E60451C010928000D3
:10346000109281008091810088608093810080911A
:10347000810081608093810080917F0690E0FC0153
:10348000E954FE4FE491F0E0EE0FFF1FE65CFE4FC3
:10349000259134913093E5042093E404FC01EF5826
:1034A000FE4FE491E093E3042AC01092B000109222
:1034B000B1008091B00082608093B0008091B10033
:1034C00081608093B10080917F0690E0FC01E95417
:1034D000FE4FE491F0E0EE0FFF1FE65CFE4F2591FA
:1034E00034913093E2042093E104FC01EF58FE4F45
:1034F000E491E093E00403C08FEF80938006809115
:103500000002909101020E9487089093010280932B
:10351000000261E08AE00E946C1061E088E00E9495
:103520006C1060E088E00E943D101FB7F894809115
:103530001105811127C0ECEEF1E08491E6EAF1E09B
:103540009491E82FF0E0EE0FFF1FE95AFE4FA5918E
:10355000B491EC91E92321F461E085E30E943D10F0
:1035600061E085E30E946C108CB580618CBD8CB5E8
:1035700080648CBD61E084E30E946C1061E083E3B1
:103580000E946C10809111058F5F809311051FBF01
:103590008CB5837F88608CBD8CB58C7F81608CBD41
:1035A0008DB581608DBD8CB588DC8CB586DC62E024
:1035B00086E30E946C1062E088E30E946C1062E077
:1035C00087E30E946C1061E082E00E946C1004E1CD
:1035D00010E020E030E000935F0710936007209335
:1035E0006107309362074EE150E060E070E0409385
:1035F000630750936407609365077093660780EDD7
:1036000097E0A0E0B0E08093670790936807A093ED
:103610006907B0936A070093460710934707209302
:1036200048073093490740934A0750934B076093EC
:103630004C0770934D0780934E0790934F07A093CC
:103640005007B093510700932D0710932E07209336
:103650002F07309330074093310750933207609320
:103660003307709334078093350790933607A09300
:103670003707B09338078AE192E0BCDB25E030E001
:1036800042E050E06BE777E0CE0101966C010E94CA
:10369000640F22E030E041E050E06BE777E0CE01DC
:1036A000875B9F4F0E94640FBE01675B7F4FCE0117
:1036B0008D5B9F4F0E94480F68EE73E0CE018D5BDB
:1036C0009F4F0E94960EB6010E94AD0E07DCCE0100
:1036D0008D5B9F4F0E940C0FCE01875B9F4F0E9416
:1036E0000C0FC6010E940C0F8FE092E0A4DB8091CA
:1036F00000029091010290930305809302050E94BD
:1037000087086FEF70E089E00E94A810FBDB60E0A3
:1037100070E089E00E94A8106FEF70E086E00E94E0
:10372000A810F0DB60E070E086E00E94A8106FEF68
:1037300070E083E00E94A810E5DB8AEE93E008DBEE
:103740008091810790918207009711F485E897E0B6
:10375000D601A81BB90BCD017ADB66EF73E0C60179
:103760000E94500F6DEF73E0CE0107960E94500F3C
:1037700064E074E0CE010D960E94500F6BE074E09F
:10378000CE0143960E94500F62E174E0CE0149964B
:103790000E94500F69E174E0CE014F960E94500FD5
:1037A00060E274E0CE0185960E94500F67E274E0FB
:1037B000CE018B960E94500F6EE274E0CE01C1964E
:1037C0000E94500F65E374E0CE01C7960E94500F2F
:1037D0006CED74E0CE01CD960E94500F6BE777E060
:1037E000CE01CD960E94BE0E87E092E003DB80E022
:1037F00090E02DDB0E9494112B013C01B8EE4B0EA2
:10380000B3E05B1E611C711C1FEF24EFE22EFF244E
:10381000F39400E036E0332E4BE3A42E4FE1B42EB8
:1038200087E30E941510892B09F401E088E30E94C8
:103830001510892B09F400E09BE0992E88248394CD
:103840000E949411DC01CB0184199509A609B709DE
:1038500097010F2C000C440B550B281739074A070A
:103860005B07F8F40E9494112B013C01011101C087
:103870001F5F1A3021F01B3031F4812C04C088EB1B
:10388000E82E8BE0F82EB601319E600D711D1124DB
:1038900085E797E00E94BE0E85E797E01FDB0E9458
:1038A000E5059A949110CCCFC5010197F1F78110ED
:1038B000B7CF8DEF91E0BFDA8E010D5B1F4F065041
:1038C0001109C8010E940C0F0C151D05C1F780914C
:1038D0006B0581110E9411080E947D090091080565
:1038E000109109050E9494114B015C0181E08093C5
:1038F000730511278091080590910905081719078C
:10390000A1F40E947D090E949411DC01CB01881969
:103910009909AA09BB09893B9B40A105B10550F350
:103920008DE292E088DA1092730560900E05F090B7
:103930000F0570900C0510910D0580900A053091CF
:103940000B059090080550910905A090060570910F
:103950000705B0900405E62C072D282D492D6A2D6A
:103960008B2D909105050E94411360E085E00E9437
:103970003D10282D492D6A2D8B2D57DB61E085E008
:103980000E943D10B0E62B2EBAEE3B2E412C512C5E
:1039900018EE612E13E0712E0E949411A201910184
:1039A0000E94F127672B682B692B29F480917305FE
:1039B00081110C947B250091020510910305D8011B
:1039C0008C91882309F447C10E94941180901805B6
:1039D00090901905A0901A05B0901B05DC01CB0151
:1039E00088199909AA09BB098090140590901505BA
:1039F000A0901605B090170588169906AA06BB0672
:103A000008F029C10E9494114B015C0160931805D4
:103A10007093190580931A0590931B051092EE047C
:103A20001092ED04C8016AE08C01FC01F08001965F
:103A300040ED4F0D2091ED043091EE044A3080F4BA
:103A4000629FA001639F500D1124EF2DFF0CFF0B0F
:103A5000F097E40FF51FF093EE04E093ED04E4CF4C
:103A60006091E9047091EA048091EB049091EC0478
:103A70002115310529F0032E000C440B550B05C010
:103A80002091030230E040E050E00E941328209390
:103A900014053093150540931605509317058F2D87
:103AA000FF0C990BAA0BBB0BFC01E156F109E730A7
:103AB000F10530F48827EE58FF4F8F4F0C942F28D4
:103AC000109213050FC081E00BC083E009C085E0B0
:103AD00007C086E005C088E003C08AE001C08CE032
:103AE00080931305D80111968C91833219F00F5FE2
:103AF0001F4F07C0809113058F5F809313050E5FE2
:103B00001F4FF80180818E3251F5209114053091BC
:103B100015054091160550911705AB962CAF3DAF9A
:103B20004EAF5FAFAB97CA01B90122E030E040E091
:103B300050E00E941328AB968CAD9DADAEADBFADED
:103B4000AB97820F931FA41FB51F8093140590930A
:103B50001505A0931605B09317050F5F1F4FD801E9
:103B60008C9180538A3028F4809312050F5F1F4F89
:103B700004C0809102028093120580911205F80121
:103B800090819C3211F40F5F1F4F20911305222367
:103B900009F461C040911405509115056091160516
:103BA00070911705AB964CAF5DAF6EAF7FAFAB9723
:103BB00090E004973CE0389FF001399FF00D11240C
:103BC000E20FF11DEE0FFF1FE75BFD4F808191813A
:103BD0000E94D0140E949411DC01CB01881999092C
:103BE000AA09BB09AB962CAD3DAD4EAD5FADAB9711
:103BF000281739074A075B0770F50E9494116093F4
:103C000018057093190580931A0590931B058091F0
:103C10008006813051F0823071F0811111C08091A5
:103C20006E008D7F80936E000BC080916F008D7F42
:103C300080936F0005C0809170008D7F809370002D
:103C400060E080917F060E943D1089E492E0F3D805
:103C500090E080E002C0902F812F90930205809326
:103C600003050E94941100916F0510917005209139
:103C7000710530917205DC01CB01801B910BA20B09
:103C8000B30B0697A105B10508F489C0809108021D
:103C9000811110C060E070E089E00E94A81060E02F
:103CA00070E086E00E94A81060E070E083E00E946F
:103CB000A8106BC080916B05811167C000911E0533
:103CC00010911F05C801880F991F800F911FFC01DB
:103CD000EE0FFF1FE555FD4F6091090270910A023A
:103CE00020813181620F731F70930A026093090271
:103CF000FC01EE0FFF1FE355FD4F2091630530914E
:103D00006405E080F180E20EF31EF0926405E0921B
:103D10006305880F991FFC01E155FD4F80916105F6
:103D200090916205A080B180A80EB91EB092620584
:103D3000A092610589E00E94A810B70186E00E9468
:103D4000A810B50183E00E94A81080911C059091F5
:103D50001D05019690931D0580931C058F3F9105CD
:103D600051F40F5F1F4F10931F0500931E05109213
:103D70001D0510921C0580911E0590911F05069748
:103D800024F010921F0510921E050E94941160935A
:103D90006F05709370058093710590937205009183
:103DA0000005109101050115110521F080916E05A6
:103DB00081118AC18091FF04811186C180913005F3
:103DC00081110DC00E94941160932C0570932D05F4
:103DD00080932E0590932F0581E08093300580918C
:103DE000240581110DC00E949411609320057093E9
:103DF0002105809322059093230581E0809324057B
:103E00000E94941180902C0590902D05A0902E0575
:103E1000B0902F05DC01CB0188199909AA09BB09CB
:103E20008090040290900502A0900602B0900702D4
:103E300088169906AA06BB06A8F50E9494116093FD
:103E40002C0570932D0580932E0590932F05012B43
:103E500099F441E050E0509301054093000568E873
:103E600073E180E090E06093040270930502809318
:103E70000602909307020CC01092010510920005F3
:103E800020920402309205024092060250920702EC
:103E900080916E05882321F0109201051092000593
:103EA00010926E050E94941100912C0510912D0521
:103EB00020912E0530912F05DC01CB01801B910B49
:103EC000A20BB30B803D9740A105B10508F0FAC0E5
:103ED0000E94941100912005109121052091220546
:103EE00030912305DC01CB01801B910BA20BB30B9E
:103EF00085369105A105B10508F4E6C00E9494112C
:103F000060932005709321058093220590932305EB
:103F10008091000590910105892B09F069C0CE01BF
:103F2000855A9F4F0E940F0C0E94A414B3010E9457
:103F3000DE27BC01CE01815B9F4F0E944D0A0E948B
:103F4000AD14BC01CE01875B9F4F0E944D0A0E94B9
:103F5000B414BC01C6010E944D0AB601CE018D5BAE
:103F60009F4F0E94480FBE01675B7F4FCE018D5B64
:103F70009F4F0E94AD0EBE01615B7F4F0E94AD0E50
:103F8000BC01CE018B5A9F4F0E94480FAE01455A8B
:103F90005F4FBE016B5A7F4FCE018F599F4F0E94DA
:103FA0006607BE016F597F4F85E797E00E94D30EE9
:103FB000CE018F599F4F0E940C0FCE018B5A9F4FFD
:103FC0000E940C0FCE018D5B9F4F0E940C0FC6010B
:103FD0000E940C0FCE01875B9F4F0E940C0FCE01F9
:103FE000815B9F4F0E940C0FCE01855A9F4F67C087
:103FF0000E94A414B301E2D7BC01CE018B5A9F4F9B
:104000000E944D0A0E94AD14BC01CE01815B9F4FFE
:104010000E944D0A0E94B414BC01CE018D5B9F4FDB
:104020000E944D0ABE016D5B7F4FCE01875B9F4FA3
:104030000E94480FBE01615B7F4FCE01875B9F4F9F
:104040000E94AD0EBE016B5A7F4F0E94AD0EBC01A7
:10405000CE01855A9F4F0E94480FC6010E940F0C47
:10406000AE01455A5F4FB601CE018F599F4F0E9456
:104070006607BE016F597F4F85E797E00E94D30E18
:10408000CE018F599F4F0E940C0FC6010E940C0F4A
:10409000CE01855A9F4F0E940C0FCE01875B9F4F28
:1040A0000E940C0FCE018D5B9F4F0E940C0FCE0122
:1040B000815B9F4F0E940C0FCE018B5A9F4F0E9435
:1040C0000C0F02C01092F5040E94E5058CE597E004
:1040D0000E94FA0383E497E00E94FA038AE297E0E1
:1040E0000E94FA038091FF04811105C01092FE0422
:1040F0001092FD0430C00E9494110091F9041091B7
:10410000FA042091FB043091FC04DC01CB01801BFC
:10411000910BA20BB30B81369A4EA105B105D8F0D5
:104120001092FF04E0910005F0910105EE0FFF1FD2
:10413000E45DFC4F8081918190930105809300059F
:10414000880F991FFC01E25FFC4F80819181909361
:10415000FE048093FD0480915C0790915D07181622
:1041600019060CF051C181E080936E051092030591
:104170001092020544E650E060E070E088EE93E0C3
:104180000E94D0140E9494116093F9047093FA0471
:104190008093FB049093FC048091000590910105AD
:1041A00001968430910529F09093010580930005D4
:1041B00004C0109201051092000586E792E00E946B
:1041C000FA1680910005909101050E9427178FE64D
:1041D00092E00E94FA16E0910005F0910105EE0FC1
:1041E000FF1FE55FFD4F808191810E94271720917D
:1041F000000530910105F901EE0FFF1FE25FFC4F52
:10420000808191819093FE048093FD0421503109B7
:10421000F901EE0FFF1FE051FD4F40815181411523
:10422000510509F4E0C0CA010197FC01EE0FFF1F20
:10423000EE52FD4F608171816217730709F0D3C0A0
:104240004230510569F528E1E1E3F2E0D601019041
:104250000D922A95E1F720911D0230911E022370E4
:104260003327232B21F42DE130E03C832B83209155
:10427000190230911A02E0911B02F0911C02319751
:10428000EE0FFF1FEC0DFD1D4081518142175307BA
:104290003CF487E090E0909301058093000527C4EB
:1042A0001092FF049093010580930005892BB9F4C7
:1042B0000E94A4147C010E94AD148C010E94B414CD
:1042C0009C01409117025091180260911502709163
:1042D000160280911302909114020E944113809162
:1042E000000590910105019741F5E0901D02F090C5
:1042F0001E0230E3E31A38EFF30A00911B0210911B
:104300001C022091190230911A02AD962FAFAD9781
:10431000AC963FAFAC970E94BB144C010E94C214F4
:104320005C010E94C914AD962FADAD97AC963FAD20
:10433000AC97A401B5010E944113809100059091B2
:1043400001050297C1F460911F0282E090E00E9493
:10435000E1056091210283E090E00E94E105609117
:10436000230284E090E00E94E1056091250286E04E
:1043700090E00E94E105809100059091010503976E
:1043800031F46091270281E090E00E94E10560E055
:1043900085E00E943D100E94A4147C010E94AD148F
:1043A000082F0E94B414AD968FAFAD970E94BB1436
:1043B000AC968FAFAC970E94C214182F0E94C914FC
:1043C000382FC701B301FAD5E82EAD962FADAD97C2
:1043D000AC964FADAC97612F832F0E94151861E00A
:1043E00085E00E943D10009100051091010580912B
:1043F000FD049091FE040E941809000F111FF8019E
:10440000E55FFD4F9183808380915C0790915D070C
:1044100097FF90C044E650E060E070E088EE93E0E3
:104420000E94D0148091FF04811151C00E94941108
:104430006093F9047093FA048093FB049093FC0456
:104440008091000590910105892B09F040C00E94E0
:10445000BB14BC01C6010E944D0A0E94C214BC01DB
:10446000CE018D5B9F4F0E944D0A0E94C914BC0172
:10447000CE01815B9F4F0E944D0ABE01615B7F4F61
:10448000CE01875B9F4F0E94480FBE016D5B7F4F3F
:10449000CE01875B9F4F0E94AD0EB6010E94AD0E0C
:1044A000BC0185E797E00E94BE0ECE01875B9F4F5F
:1044B0000E940C0FCE01815B9F4F0E940C0FCE011A
:1044C0008D5B9F4F0E940C0FC6010E940C0FE09164
:1044D0000005F0910105EE0FFF1FE45DFC4F8081A8
:1044E000918190930105809300058A30910549F4EC
:1044F00041E050E0509326024093250220E82093AB
:10450000F8043091FF0421E023272093FF048C015D
:10451000000F111FF801E25FFC4F808191819093A1
:10452000FE048093FD040E941809F801E55FFD4F29
:10453000918380838091430790914407009719F1FC
:1045400090936D0580936C0518161906E4F481E0CC
:1045500080936E05109203051092020544E650E028
:1045600060E070E088EE93E00E94D0140E94990B06
:104570008091FF04811107C010926B0560E087E015
:1045800090E00E94E10580916C0590916D05019687
:1045900061F580914507882341F11092F7048091DD
:1045A000FF04882329F10E9494110091670510915E
:1045B00068052091690530916A05DC01CB01801BFB
:1045C000910BA20BB30B87399105A105B10580F0C2
:1045D0000E94941160936705709368058093690544
:1045E00090936A050E94990B03C081E08093F704C1
:1045F00080912A0790912B070097A9F19093660567
:10460000809365051816190674F511E010936E0570
:10461000109203051092020544E650E060E070E05D
:1046200088EE93E00E94D0140E94230B8091FF0437
:10463000811119C010936B0561E087E090E00E9442
:10464000E1056091090288E090E00E94E105609137
:10465000630589E090E00E94E105609161058AE0D0
:1046600090E00E94E10580916505909166050196B4
:1046700061F580912C07882341F11092F604809116
:10468000FF04882329F10E94941100915D05109187
:104690005E0520915F0530916005DC01CB01801B38
:1046A000910BA20BB30B87399105A105B10580F0E1
:1046B0000E94941160935D0570935E0580935F0581
:1046C000909360050E94230B03C081E08093F60461
:1046D0008091FF04811135C0809143079091440778
:1046E00097FF16C044E650E060E070E088EE93E08B
:1046F0000E94D01481E08093080261E080E090E0A5
:104700000E94E10588E692E00E941B170E941108B2
:1047100080912A0790912B0797FF13C044E650E041
:1047200060E070E088EE93E00E94D01410920802DE
:1047300060E080E090E00E94E10580E692E00E9467
:104740001B1780910005909101058130910509F4B6
:10475000A6C01CF4892B79F1CAC18230910509F4F5
:1047600075C1039709F0C3C16091270270912802B7
:104770004AE0C6010E94110F6AEF73E0CE018D5B23
:104780009F4F0E94500FB601CE018D5B9F4F0E943C
:10479000AD0E6AEF73E00E94960EBC0185E797E0CC
:1047A0000E94BE0ECE018D5B9F4F0E940C0FC60172
:1047B0000E940C0F98C18091F504811134C00E94B1
:1047C0009411009138051091390520913A053091E6
:1047D0003B05DC01CB01801B910BA20BB30B0B97AC
:1047E000A105B10578F00E9494116093380570938B
:1047F000390580933A0590933B05CE0101960E94BE
:104800000F0C06C065E777E0CE0101960E94480FC5
:10481000BE016F5F7F4F85E797E00E94D30ECE0108
:1048200001960E940C0F8091410581110DC00E94DC
:10483000941160933D0570933E0580933F059093DE
:10484000400581E0809341050E94941100913D054F
:1048500010913E0520913F0530914005DC01CB01D0
:10486000801B910BA20BB30B893E9340A105B105B0
:1048700008F43BC10E94941160933D0570933E057E
:1048800080933F059093400590913C0581E08927F6
:1048900080933C05882309F426C180EC21C18091D6
:1048A000F5048111D1C08091550581110DC00E9480
:1048B0009411609351057093520580935305909322
:1048C000540581E08093550580914905811145C0CB
:1048D0000E94A414B30172D3BC01C6010E944D0A08
:1048E0000E94AD14BC01CE018D5B9F4F0E944D0A0A
:1048F0000E94B414BC01CE01815B9F4F0E944D0AFF
:10490000BE01615B7F4FCE01875B9F4F0E94480FC6
:10491000BE016D5B7F4FCE01875B9F4F0E94AD0E46
:10492000B6010E94AD0EBC018FEE94E00E94480FCC
:1049300081E080934905CE01875B9F4F0E940C0F59
:10494000CE01815B9F4F0E940C0FCE018D5B9F4F6C
:104950000E940C0FC6010E940C0F0E94941100913E
:104960005105109152052091530530915405DC01F9
:10497000CB01801B910BA20BB30B893E9340A10589
:10498000B10508F450C00E949411609351057093D2
:10499000520580935305909354050E94A414B301CB
:1049A0000DD3BC01CE0101960E944D0A0E94AD14A8
:1049B000BC01CE018D5B9F4F0E944D0A0E94B41432
:1049C000BC01CE01815B9F4F0E944D0ABE01615B1D
:1049D0007F4FCE01875B9F4F0E94480FBE016D5BEA
:1049E0007F4FCE01875B9F4F0E94AD0EBE016F5F70
:1049F0007F4F0E94AD0EBC018FEE94E00E94BE0E70
:104A0000CE01875B9F4F0E940C0FCE01815B9F4FB1
:104A10000E940C0FCE018D5B9F4F0E940C0FCE01A8
:104A200001960E940C0F6FEE74E0CE0101960E9479
:104A3000480FBE016F5F7F4F85E797E00E94D30E5E
:104A4000CE0101960E940C0F80E44AC060912302BF
:104A500070912402C6010E944D0A6091210270915A
:104A60002202CE018D5B9F4F0E944D0A60911F0272
:104A700070912002CE01815B9F4F0E944D0ABE01C2
:104A8000615B7F4FCE01875B9F4F0E94480FBE0145
:104A90006D5B7F4FCE01875B9F4F0E94AD0EB601CD
:104AA0000E94AD0EBC0185E797E00E94BE0ECE01CC
:104AB000875B9F4F0E940C0FCE01815B9F4F0E942E
:104AC0000C0FCE018D5B9F4F0E940C0FC6010E9400
:104AD0000C0F8091250290912602019721F480E825
:104AE0008093F80402C01092F8040E9426080E94E5
:104AF000760D0C94CC1C0E947D09E0900E05F09080
:104B00000F0500910C0510910D0520910A053091BB
:104B10000B054091080550910905609106057091BB
:104B2000070580910405909105050E94411384E8D2
:104B300092E00E941B170C94DB1C85E797E00E9413
:104B40000C0F8BE797E00C940C0FE1E8F6E0138272
:104B5000128288EE93E0A0E0B0E084839583A68380
:104B6000B7832BEA33E03183208325EC30E03587AF
:104B7000248724EC30E03787268720EC30E0318B27
:104B8000208B21EC30E0338B228B22EC30E0358B14
:104B9000248B26EC30E0378B268B118E128E138EF1
:104BA000148EEEE1F7E01382128284839583A6834C
:104BB000B7838DEB93E09183808363ED74E08BE7A3
:104BC00097E00E94500F66EF73E085E797E00E9440
:104BD000500F21E040E066E38CE597E00E94650419
:104BE00021E040E068E383E497E00E94650421E06F
:104BF00040E067E38AE297E00C946504CF93DF938B
:104C00008230910510F482E090E0E0918307F0910A
:104C1000840720E030E0C0E0D0E0309711F140811F
:104C2000518148175907C0F04817590761F482812C
:104C30009381209719F09B838A832BC090938407DC
:104C40008093830726C02115310519F042175307B9
:104C500018F49A01BE01DF01EF010280F381E02D1B
:104C6000DCCF2115310509F1281B390B2430310522
:104C700090F412968D919C9113976115710521F016
:104C8000FB019383828304C09093840780938307FE
:104C9000FD01329644C0FD01E20FF31F8193919311
:104CA000225031092D933C933AC0209181073091D5
:104CB0008207232B41F420912D0230912E02309354
:104CC00082072093810720912B0230912C0221151D
:104CD000310541F42DB73EB740912F02509130027B
:104CE000241B350BE0918107F0918207E217F3074F
:104CF000A0F42E1B3F0B2817390778F0AC014E5F4C
:104D00005F4F2417350748F04E0F5F1F50938207FF
:104D1000409381078193919302C0E0E0F0E0CF01DE
:104D2000DF91CF9108950F931F93CF93DF93009757
:104D300009F48CC0FC013297138212820091830720
:104D4000109184070115110581F420813181820FB2
:104D5000931F20918107309182072817390779F531
:104D6000F0938207E093810771C0D80140E050E0E2
:104D7000AE17BF0750F412962D913C911397AD01D9
:104D80002115310509F1D901F3CF9D01DA013383F2
:104D9000228360817181860F971F8217930769F4C0
:104DA000EC0128813981260F371F2E5F3F4F318359
:104DB00020838A819B8193838283452B29F4F093FE
:104DC0008407E093830742C01396FC93EE931297F7
:104DD000ED01499159919E01240F351FE217F30708
:104DE00071F480819181840F951F029611969C9396
:104DF0008E938281938113969C938E931297E0E019
:104E0000F0E0D80112968D919C911397009719F0BC
:104E1000F8018C01F6CF8D919C9198012E5F3F4F48
:104E2000820F931F2091810730918207281739073D
:104E300069F4309729F4109284071092830702C016
:104E4000138212821093820700938107DF91CF9122
:104E50001F910F9108951F93FC0199278827BC018A
:104E6000E89411911032E9F3193010F01E30C8F3B4
:104E70001B3249F01D3241F4689405C026D0610F01
:104E8000711D811D911D119110531A30B8F33EF41C
:104E900090958095709561957F4F8F4F9F4F1F9193
:104EA00008954532510518F4423008F004C0FB0162
:104EB0001082CB010895BB274A3031F4992322F4A4
:104EC000BDE2909581959F4F16C0592F482F372FDF
:104ED000262F660F771F881F991F660F771F881F61
:104EE000991F620F731F841F951F660F771F881FFE
:104EF000991F0895BB27FB015527AA27880F991FE3
:104F0000AA1FA41710F0A41B83955051B9F7A05DF8
:104F1000AA3308F0A95DA193009779F7B111B19375
:104F20001192CB0100C0DC01FC01672F7191772346
:104F3000E1F7329704C07C916D9370836291AE1754
:104F4000BF07C8F30895F999FECF92BD81BDF89AC5
:104F5000992780B50895262FF999FECF1FBA92BDE3
:104F600081BD20BD0FB6F894FA9AF99A0FBE01964A
:104F7000089509D0A59F900DB49F900DA49F800D1A
:104F8000911D11240895A29FB001B39FC001A39F5A
:104F9000700D811D1124911DB29F700D811D112472
:104FA000911D0895991B79E004C0991F961708F088
:104FB000961B881F7A95C9F78095089597FB072E51
:104FC00016F4009406D077FD08D057D007FC05D022
:104FD0003EF4909581959F4F0895709561957F4F10
:104FE0000895A1E21A2EAA1BBB1BFD010DC0AA1F2A
:104FF000BB1FEE1FFF1FA217B307E407F50720F042
:10500000A21BB30BE40BF50B661F771F881F991FBC
:105010001A9469F760957095809590959B01AC0105
:10502000BD01CF010895052E97FB16F400940FD013
:1050300057FD05D0D6DF07FC02D046F408C05095D6
:105040004095309521953F4F4F4F5F4F0895909574
:105050008095709561957F4F8F4F9F4F0895EE0F0C
:10506000FF1F881F8BBF0790F691E02D1994B7FFA3
:1050700080CF7FDF821B930B0895AA1BBB1B51E1DE
:1050800007C0AA1FBB1FA617B70710F0A61BB70BB8
:10509000881F991F5A95A9F780959095BC01CD015D
:1050A00008956F927F928F929F92AF92BF92CF920C
:1050B000DF92EF92FF920F931F93CF93DF93EC0158
:1050C000009781F4CB01DF91CF911F910F91FF9059
:1050D000EF90DF90CF90BF90AF909F908F907F9098
:1050E0006F908CCDFC01E60FF71F9C012250310917
:1050F000E217F30708F4A8C0D9010D911C9111978C
:1051000006171707A8F00530110508F49BC0C80161
:1051100004978617970708F495C002501109061BDB
:10512000170B019311936D937C93CF01FCDD8AC023
:105130005B01A01AB10A4C01800E911EA091830759
:10514000B091840740E050E0E12CF12C109709F475
:105150004AC0A815B905D1F56D907C9011976301EF
:1051600082E0C80ED11CCA14DB0480F1A3014A19E5
:105170005B096A0182E0C80ED11C1296BC9012979E
:105180001396AC91B5E0CB16D10440F0B282A38364
:1051900051834083D9016D937C930AC00E5F1F4FEA
:1051A000C301800F911FF90191838083EB2DFA2FAA
:1051B000E114F10431F0D7011396FC93EE931297AA
:1051C00041C0F0938407E09383073CC08D919C918C
:1051D00011974817590708F4AC017D0112960D90FC
:1051E000BC91A02DB3CF8091810790918207881543
:1051F0009905E1F446175707C8F480912B02909166
:105200002C02009741F48DB79EB740912F02509128
:105210003002841B950BE817F907B0F4F09382076E
:10522000E0938107F901718360830CC0CB01E6DC58
:105230007C01009749F0A801BE011BD0CE0173DDAF
:10524000C70104C0CE0102C080E090E0DF91CF91A1
:105250001F910F91FF90EF90DF90CF90BF90AF9094
:105260009F908F907F906F90089581E090E0F894E8
:1052700010C0FB01DC0102C001900D924150504072
:10528000D8F70895FB01DC0101900D920020E1F7B1
:10529000089511E0CDE7D1E000E005C0802FFE01C8
:1052A000DEDE2196011DCE37D10780E00807B1F779
:0452B000F894FFCFA0
:1052B4003C04060460EA000001FF00000000000056
:1052C40000000000000000000000000000000000DA
:1052D4000000000000000018003F00000085078067
:1052E400001F001C001F001E001F001E001F001FC7
:1052F400001E001F001E001F0000000601150126ED
:105304000137014A015D01720188019F01B801D290
:1053140001EE010B022A024B026E029302BA02E46E
:105324000210033F037003A403DC0317045504971E
:1053340004DD0427057505C80520067D06E0064939
:1053440007B8072D08A9082D09B9094D0AEA0A90DA
:105354000B400CFA0CC00D910E6F0F000000000101
:1053640000FFFF000000000000010000000000003A
:1053740000FFFF0100000000000000FFFF00000A22
:105384000908060009000D000E00000000000000DE
:105394000000000000000000000000000000000009
:1053A40000000000000000000100010001000200F4
:1053B40002000200030003000300030004000000D5
:1053C40000000000000003000C00300003000C008B
:1053D400300003000C003000C0000C000400070083
:1053E4000A000E00000000000000000000000000A1
:1053F40000000000000000000000000000000000A9
:10540400000017003B003B001F000C006300170066
:105414003B003B00010018000000000000000C00ED
:105424000000000000000100010000000000000076
:10543400000000000C00010002000400080010003D
:10544400200040008000000100021F1C1F1E1F1EC0
:105454001F1F1E1F1E1F00000000000F0D7D0CA843
:105464000C550DD90CB70CCB0C000000003D020EFE
:10547400026C02E2010602F201E301626C696E6BE6
:105484005061747465726E5B4461746559656172D0
:10549400496E6465785D3D002E0046726565207234
:1054A400616D203D200030303030303000313131FA
:1054B400313131003232323232320033333333332A
:1054C400330034343434343400353535353535002F
:1054D40036363636363600373737373737003838CA
:1054E40038383838003939393939390050696E6BF0
:1054F40050616E746865723A643D342C6F3D352C8E
:10550400623D3136303A3864232C38652C32702CA5
:105514003866232C38672C32702C3864232C386579
:105524002C3136702C3866232C38672C3136702C8D
:105534003863362C38622C3136702C3864232C387E
:10554400652C3136702C38622C3261232C32702C4D
:105554003136612C3136672C3136652C3136642C6A
:10556400326500646F776E56616C75653D00646FDB
:10557400745061747465726E3D00757056616C751B
:0E558400653D00303130333230000D0A00003A
:00000001FF
