:100000000C94AF000C94D7000C94D7000C94D7003C
:100010000C94D7000C94D7000C94D7000C94F00BE0
:100020000C94D7000C94D7000C94D7000C944B0C74
:100030000C94D7000C94D7000C94B00C0C94D700FF
:100040000C94A60B0C94D7000C94280A0C94020A6A
:100050000C94D7000C94D7000C94D7000C94D700C4
:100060000C9496010C94D700D81ADC1ACA1ACC1A30
:10007000D01AD21AD41A00000000250028002B0044
:1000800002010000000000240027002A00010204F1
:10009000081020408001020408102001020408100A
:1000A0002004040404040404040202020202020301
:1000B000030303030353746F702054657374005576
:1000C00020696E7075743D005374617274205465BC
:1000D0007374004669726D7761726520766572731C
:1000E000696F6E3A20005761726E696E6721205207
:1000F000544320444F4E275420524553504F4E44B2
:100100002100496E636F727265637420536F6E676E
:1001100020466F726D6174210076616C75653D00DB
:100120006D656E75506F736974696F6E3D005761D0
:100130006B652075702C204E656F2100000000005B
:10014000230026002900000000080002010000032F
:1001500004070000000000000000302328231124C1
:100160001FBECFEFD8E0DEBFCDBF13E0A0E0B1E00F
:10017000E0E2F2E502C005900D92A83AB107D9F786
:1001800026E0A8EAB3E001C01D92AB30B207E1F768
:1001900010E0CEEAD0E004C02197FE010E94EA23DD
:1001A000CD3AD107C9F70E9490130C9403290C94FF
:1001B000000085ED8093BC008091BC0084FDFCCFE5
:1001C0001092D404089540916C04262F30E0240F3F
:1001D000311D21323105DCF42091D4042430C9F4DE
:1001E000FC0180E090E0861758F430916C04219176
:1001F000DC01A65BBB4FA30FB11D2C930196F3CF7F
:1002000080916C04680F60936C0480E0089581E035
:10021000089582E008950895E091A9038091A803CC
:10022000E81730F4F0E0E65DFB4F808190E0089540
:100230008FEF9FEF08959091A9038091A8039817DD
:1002400050F4E92FF0E0E65DFB4F208130E09F5F46
:100250009093A90302C02FEF3FEFC9010895809149
:10026000A80390E02091A903821B91090895CF92E1
:10027000DF92EF92FF920F931F93CF93DF937C0156
:10028000262F972F8A018091D504882391F0C62FBD
:10029000D72F6E01C40ED51ECC15DD0571F0699106
:1002A000D701ED91FC910190F081E02DC7010995F6
:1002B000F3CF642F822F0E94E300C801DF91CF911A
:1002C0001F910F91FF90EF90DF90CF900895CF9303
:1002D000DF931F92CDB7DEB769832091D504222327
:1002E000D1F02091F804203240F021E030E0FC0110
:1002F0003383228380E090E015C08091D604E82FFC
:10030000F0E0E952FB4F998190838F5F8093D60490
:100310008093F80405C061E0CE0101960E94E300DD
:1003200081E090E00F90DF91CF9108951F920F929E
:100330000FB60F9211242F933F934F935F936F93B8
:100340007F938F939F93AF93BF93EF93FF9380918E
:10035000B900887F803609F49CC068F5883209F4BA
:100360005BC090F4803109F454C038F4882309F458
:10037000F6C0883009F44DC0F6C0883109F44CC08D
:10038000803209F45DC0EFC0803409F468C048F4DD
:10039000803309F455C0883309F0E5C08093D20456
:1003A000D8C0803509F44FC0883509F45DC0883461
:1003B00009F0D9C0D6C0883909F4C7C0A8F4883775
:1003C00009F467C038F4883609F463C0803709F44B
:1003D00060C0C9C0883809F4B8C0803909F45FC06A
:1003E000803809F0C0C05BC0803B09F486C038F497
:1003F000803A09F466C0883A09F47FC0B4C0803CF2
:1004000009F4A7C0883C09F4A4C0883B09F48AC059
:10041000AAC08091AF0410C09091D1048091D00403
:10042000981770F5E091D10481E08E0F8093D1048C
:10043000F0E0E055FB4F80818093BB0085EC86C0E7
:100440008093D2048EC0E091D10481E08E0F80931E
:10045000D1048091BB00F0E0E055FB4F8083909188
:10046000D1048091D0046EC0E091D10481E08E0F60
:100470008093D1048091BB00F0E0E055FB4F808376
:100480008091D30481116DC081E08093AE0484EA31
:1004900061C083E08093D40410929004CFCF809108
:1004A0009004803208F051C0E091900481E08E0FFA
:1004B000809390048091BB00F0E0E059FB4F808373
:1004C000BDCF85EC8093BC001092D4048091900441
:1004D000803230F4E0919004F0E0E059FB4F10825C
:1004E0006091900470E0E0916E04F0916F0480E7F9
:1004F00094E009951092900436C084E08093D4046F
:1005000010926D0410926C04E0916A04F0916B04F7
:10051000099580916C04811105C081E080936C0481
:1005200010924A04E0916D0481E08E0F80936D0477
:10053000F0E0E65BFB4F80818093BB0090916D04FF
:1005400080916C04981708F479CF85E88093BC00FB
:100550000AC085EC8093BC001092D40404C01092B1
:10056000D2040E94D900FF91EF91BF91AF919F916A
:100570008F917F916F915F914F913F912F910F904C
:100580000FBE0F901F9018950C94A4280C949C28D3
:1005900088E090E00E94C602682F89E00E94830AEA
:1005A00089E090E00E94C602682F86E00E94830ADC
:1005B0008AE090E00E94C602682F83E00C94830AD0
:1005C0000F931F938091210190912201892B09F4AF
:1005D00055C0809129048823A9F00E94730B0091D3
:1005E0002504109126042091270430912804DC0171
:1005F000CB01801B910BA20BB30B893E9340A1054D
:10060000B105C8F580912904811138C00E94980F66
:1006100020911B0130911C018217930779F50E94EC
:10062000900F20911D0130911E018217930731F523
:100630000E94880F20911F0130912001821793079B
:10064000E9F40E94730B6093250470932604809351
:1006500027049093280481E0809329048EE291E09E
:100660000E94621280910001909101019093CC034D
:100670008093CB0303C010922904C4CF1F910F9124
:100680000895CF93DF93EC01019628812A33D9F79F
:100690008981843639F51092B8031092B7032396F6
:1006A0004AE0FE018881219690ED980F2091B703D2
:1006B0003091B8039A3080F4429FB001439F700D8F
:1006C0001124082E000C990BC097860F971F90934A
:1006D000B8038093B703E5CF1216130614F42093E2
:1006E0000301EF01219688818F3689F48A81082ED3
:1006F000000C990B9C01205331093093B8032093CF
:10070000B703C397059710F42093020124968881BC
:10071000823629F51092B8031092B703FE01329683
:100720004AE0819190ED980F2091B7033091B80382
:100730009A3080F4429FB001439F700D1124082E1F
:10074000000C990BC097860F971F9093B803809366
:10075000B703E7CF3093260120932501EF012091C5
:10076000250130912601032E000C440B550B60E649
:100770007AEE80E090E00E94CB23DA01C90122E00A
:10078000880F991FAA1FBB1F2A95D1F78093B30327
:100790009093B403A093B503B093B603CE01DF9159
:1007A000CF910895CF92DF92EF92FF921F93CF9354
:1007B000DF93CDB7DEB72C970FB6F894DEBF0FBE30
:1007C000CDBF182F6BED72E0CE0101960E94980903
:1007D000133029F422E030E040E050E00FC01C303C
:1007E00029F424E030E042E050E008C01033B9F4CE
:1007F0002091FF053091000644E050E06BEF75E07A
:10080000CE0107960E94AD09BE01695F7F4FCE0100
:1008100001960E941909CE0107960E94520989810A
:100820009A81009729F00E94FC266B017C0103C08D
:10083000C12CD12C7601CE0101960E945209C6012D
:100840002C960FB6F894DEBF0FBECDBFDF91CF91CF
:100850001F91FF90EF90DF90CF9008950F931F931B
:10086000CF93DF939091C103911103C080E090E09A
:100870007EC09091C0039923C9F3D82FC091C903BA
:1008800080911D0481110DC00E94730B60931904A7
:1008900070931A0480931B0490931C0481E080934E
:1008A0001D040E94730B0091190410911A042091E9
:1008B0001B0430911C04DC01CB01801B910BA20BAB
:1008C000B30B8D329140A105B105F0F00E94730B7E
:1008D0006093190470931A0480931B0490931C0472
:1008E0008091180491E0982790931804992329F097
:1008F000109217041092160407C08091C90390E06B
:1009000090931704809316042091160430911704D5
:100910008901009510954091C20350E04023512376
:1009200046FF02C061E001C060E088E00E94830AE7
:100930004091C20350E098012423352327FF02C0D1
:1009400061E001C060E08CE00E94830A809118049D
:10095000882309F48BCF8C2F90E002C09595879562
:10096000DA95E2F781709927919581959109DF9148
:10097000CF911F910F91089581E08093D50488E66F
:100980008093F7041092D6041092F80460E084EA91
:1009900095E00E9467010E94F4128091D4048111B5
:1009A000FCCF81E08093D4048093D3049FEF909395
:1009B000D2041092D10496E09093D0048093AF04B7
:1009C0008091AF04806D8093AF048091AE0481303C
:1009D00061F41092AE048091AF048093BB008091CB
:1009E000BC0083FDF8CF85EC01C085EE8093BC0090
:1009F0008091D4048130E1F38091D104873018F4E0
:100A00008091D10401C087E0A0EBB4E02AE234E099
:100A1000F9019E2F921B981718F49D919193F9CF8D
:100A20001092A9038093A80384EA95E00E941B0119
:100A3000982F92959F708F702AE0929F800D1124BD
:100A400090E09093D2038093D10384EA95E00E94D2
:100A50001B01982F92959F708F702AE0929F800DB6
:100A6000112490E09093D0038093CF0384EA95E023
:100A70000E941B01982F9695969596959670292F12
:100A8000220F220F920F8F70890F90E09093CE0368
:100A90008093CD0384EA95E00E941B01982F9295E4
:100AA0009F708F702AE0929F800D112490E09093A8
:100AB00015048093140484EA95E00E941B01982F8A
:100AC00092959F708F702AE0929F800D112490E084
:100AD0009093D4038093D30384EA95E00E941B0192
:100AE000982F92959F708F702AE0929F800D11240D
:100AF00090E09093D6038093D50384EA95E00E941A
:100B00001B01982F92959F708F702AE0929F800D05
:100B1000112490E09093D8038093D70308950F9306
:100B20001F93CF93DF93CDB7DEB762970FB6F894DC
:100B3000DEBF0FBECDBF8C014AE06A3071054CF5B7
:100B4000CE010D960E94570964ED72E0CE01019628
:100B50000E949809BE016F5F7F4FCE0107960E94E9
:100B60008F09BE01635F7F4FCE0107960E94EF0899
:100B7000BC01C8010E948F09CE0107960E9452094C
:100B8000CE0101960E945209CE010D960E94520993
:100B900002C00E945709C80162960FB6F894DEBFE2
:100BA0000FBECDBFDF91CF911F910F9108950F938D
:100BB0001F93CF93DF93CDB7DEB768970FB6F89446
:100BC000DEBF0FBECDBF8B01833091F42091FF05B6
:100BD0003091000642E050E06BEF75E0CE010D96DB
:100BE0000E94AD09B801CE0101960E948F0555C043
:100BF0008C3009F042C02091FF053091000644E09E
:100C000050E06BEF75E0CE0143960E94AD09B8014C
:100C1000CE010D960E948F0522E030E040E050E0CA
:100C20006BEF75E0CE0101960E94AD09BE016F5FCA
:100C30007F4FCE0107960E948F09BE01635F7F4FF1
:100C4000CE0107960E94EF08BE016D5E7F4F0E94A5
:100C5000EF08BC018BEF95E00E940209CE010796D8
:100C60000E945209CE0101960E945209CE010D96B2
:100C70000E945209CE0143962DC0803369F5CE0102
:100C80000D960E948F0524E030E040E050E06BEFCD
:100C900075E0CE0101960E94AD09BE016F5F7F4FE6
:100CA000CE0107960E948F09BE01635F7F4FCE0180
:100CB00007960E94EF08BC018BEF95E00E940209A5
:100CC000CE0107960E945209CE0101960E94520958
:100CD000CE010D960E94520968960FB6F894DEBFB9
:100CE0000FBECDBFDF91CF911F910F9108950E944C
:100CF000730B6093C5037093C6038093C7039093EF
:100D0000C8038091CA03882309F44CC02091C3030F
:100D10003091C403C901880F991F2E30310551F05D
:100D2000FC01E95FFE4F40815181415051095183DF
:100D300040830AC040912301509124014C50510935
:100D40005093240140932301DC01A95FBE4F6D91B4
:100D50007C911197FC01E659FD4F40815181641748
:100D600075073CF4FC01E45BFD4F408151814D93DC
:100D70005C932D30310569F42091210130912201DD
:100D80002130310521F420E82093C20302C01092E3
:100D9000C203FC01E95FFE4F608171818091C9034C
:100DA0000C94D70508950E94730B6093C50370934C
:100DB000C6038093C7039093C8038091CA03882316
:100DC00009F441C02091C3033091C403C901880FC5
:100DD000991F2E30310551F0FC01E95FFE4F408133
:100DE00051814F5F5F4F518340830AC0409123017F
:100DF00050912401445F5F4F50932401409323019D
:100E0000DC01A95FBE4F6D917C911197FC01E45B01
:100E1000FD4F40815181461757073CF4FC01E659CC
:100E2000FD4F408151814D935C932D30310511F47C
:100E30001092C203FC01E95FFE4F608171818091D5
:100E4000C9030C94D70508958EBD00000DB407FEAC
:100E5000FDCF8EB508950895CF92DF92EF92FF9265
:100E60000F931F93CF93DF936C017A018B01C0E046
:100E7000D0E0CE15DF0589F0D8016D918D01D60146
:100E8000ED91FC910190F081E02DC6010995892B2F
:100E900011F47E0102C02196ECCFC701DF91CF9102
:100EA0001F910F91FF90EF90DF90CF900895FC017C
:100EB000918D828D981761F0828DDF01A80FB11D91
:100EC0005D968C91928D9F5F9F73928F90E00895B5
:100ED0008FEF9FEF0895FC01918D828D981731F06F
:100EE000828DE80FF11D858D90E008958FEF9FEFC3
:100EF0000895FC01918D228D892F90E0805C9F4F99
:100F0000821B91098F739927089587E095E00E94CD
:100F1000790721E0892B09F420E0822F0895FC0154
:100F2000848DDF01A80FB11DA35ABF4F2C91848D72
:100F300090E001968F739927848FA689B7892C93A7
:100F4000A089B1898C9180648C93938D848D981342
:100F500006C00288F389E02D80818F7D808308950B
:100F6000EF92FF920F931F93CF93DF93EC0181E0F9
:100F7000888F9B8D8C8D981305C0E889F9898081B5
:100F800085FD24C0F62E0B8D10E00F5F1F4F0F73F1
:100F90001127E02E8C8DE8120CC00FB607FCFACF9B
:100FA000E889F989808185FFF5CFCE010E948F07FE
:100FB000F1CF8B8DFE01E80FF11DE35AFF4FF08258
:100FC0000B8FEA89FB898081806207C0EE89FF89E7
:100FD0006083E889F98980818064808381E090E082
:100FE000DF91CF911F910F91FF90EF900895CF93D4
:100FF000DF93EC01888D8823C9F0EA89FB89808121
:1010000085FD05C0A889B9898C9186FD0FC00FB6F2
:1010100007FCF5CF808185FFF2CFA889B9898C9133
:1010200085FFEDCFCE010E948F07E7CFDF91CF91F3
:10103000089580E090E0892B29F00E9485078111B6
:101040000C9400000895833081F028F4813099F0E9
:101050008230A1F008958730A9F08830B9F084304B
:10106000D1F4809180008F7D03C0809180008F77C4
:1010700080938000089584B58F7702C084B58F7DFA
:1010800084BD08958091B0008F7703C08091B00037
:101090008F7D8093B00008950E94E726CF93DF9361
:1010A000EC0188819981009711F00E9485251982B1
:1010B00018821D821C821B821A82DF91CF910895B3
:1010C0000F931F93CF93DF93EC0188819981009751
:1010D00029F02A813B812617370788F48B016F5F3F
:1010E0007F4F0E941D26009761F0998388831B83A0
:1010F0000A832C813D81232B11F4FC01108281E0B5
:1011000001C080E0DF91CF911F910F910895EF9280
:10111000FF920F931F93CF93DF93FC0124813581BE
:101120006115710511F480E019C041155105A9F050
:101130007B01EC018A01020F131FB8010E946008B5
:10114000882389F3288139818C819D81B701820FA1
:10115000931F0E94F5261D830C8381E0DF91CF91C0
:101160001F910F91FF90EF900895EF92FF920F93D0
:101170001F93CF93DF93EC017B018A01BA010E9498
:101180006008811104C0CE010E944E0807C01D8373
:101190000C83B701888199810E94F526CE01DF91E9
:1011A000CF911F910F91FF90EF900895CF93DF9310
:1011B000EC016115710561F0FB0101900020E9F778
:1011C0003197AF01461B570B0E948708811103C05E
:1011D000CE010E944E08CE01DF91CF910895CF93AA
:1011E000DF93EC01FB0144815581608171810E9494
:1011F0008708811103C0CE010E944E08CE01DF9105
:10120000CF910895CF93DF93EC01FB0186179707E9
:1012100061F0608171816115710529F0448155810A
:101220000E94B50802C00E944E08CE01DF91CF9106
:1012300008950F931F93CF93DF938C01EB01FC0173
:10124000808191810097B1F0688179816115710584
:1012500079F0428153812C813D814217530740F040
:101260000E94F5268C819D81F8019583848313C0AB
:101270000E94852588819981F801918380838A81E4
:101280009B81938382838C819D8195838483198242
:1012900018821B821A821D821C82DF91CF911F91BE
:1012A0000F910895FC01808191810C948525EF9226
:1012B000FF920F931F93CF93DF93CDB7DEB7629763
:1012C0000FB6F894DEBF0FBECDBF8C01CB01F80185
:1012D00011821082138212821582148250E09E01C4
:1012E0002F5F3F4F7901B9010E942327F701019039
:1012F0000020E9F73197AF014E195F09B701C80126
:101300000E94B50862960FB6F894DEBF0FBECDBF3F
:10131000DF91CF911F910F91FF90EF900895FC0105
:101320001182108213821282158214820C94020997
:10133000FC011182108213821282158214826115BF
:10134000710551F0FB0101900020E9F73197AF01E1
:10135000461B570B0C94B5080895BF92CF92DF92AD
:10136000EF92FF920F931F93CF93DF937C016B015A
:10137000EA0189012417350720F48D2FE901042F94
:10138000182F62EC72E0C7010E949809D6011496EA
:101390008D919C911597C817D90748F5801791072B
:1013A00008F48C01D601ED91FC911197E00FF11F2B
:1013B000B08010824D915C91BA016C0F7D1F611558
:1013C000710561F0FB0101900020E9F73197AF0151
:1013D000461B570BC7010E94B50803C0C7010E94F6
:1013E0004E08D601ED91FC91E00FF11FB082C701CC
:1013F000DF91CF911F910F91FF90EF90DF90CF90F1
:10140000BF9008951F920F920FB60F9211242F9341
:101410003F934F935F936F937F938F939F93AF937C
:10142000BF93EF93FF9387E095E00E948F07FF91B2
:10143000EF91BF91AF919F918F917F916F915F914C
:101440004F913F912F910F900FBE0F901F901895C5
:101450001F920F920FB60F9211242F938F939F9389
:10146000EF93FF93E0911705F09118058081E091CB
:101470001D05F0911E0582FD12C09081809120050E
:101480008F5F8F7320912105821751F0E091200525
:10149000F0E0E95FFA4F958F8093200501C08081CD
:1014A000FF91EF919F918F912F910F900FBE0F9011
:1014B0001F901895CF93DF93282F30E0F901EA5B56
:1014C000FE4F8491F901E357FF4FD491F901EF5595
:1014D000FF4FC491CC2391F081110E942308EC2F7F
:1014E000F0E0EE0FFF1FE45CFE4FA591B491EC918C
:1014F000ED2381E090E021F480E002C080E090E004
:10150000DF91CF9108951F93CF93DF93282F30E081
:10151000F901EA5BFE4F8491F901E357FF4FD49143
:10152000F901EF55FF4FC491CC23C9F0162F81115B
:101530000E942308EC2FF0E0EE0FFF1FEA58FF4F48
:10154000A591B4918FB7F894111105C09C91ED2F1E
:10155000E095E92302C0EC91ED2BEC938FBFDF9176
:10156000CF911F910895CF93DF9390E0FC01E35753
:10157000FF4F2491FC01EF55FF4F8491882361F1C7
:1015800090E0880F991FFC01ED57FF4FC591D49152
:10159000FC01EA58FF4FA591B491611109C09FB7B2
:1015A000F8948881209582238883EC912E230BC0A8
:1015B000623061F49FB7F8943881822F809583233D
:1015C0008883EC912E2B2C939FBF06C08FB7F89485
:1015D000E8812E2B28838FBFDF91CF9108951F9331
:1015E000CF93DF93182FEB0161E00E94B30A20979D
:1015F00011F460E004C0CF3FD10539F461E0812FE0
:10160000DF91CF911F910C94830AE12FF0E0EA5B08
:10161000FE4FE491E330F9F048F4E130B9F0E23004
:10162000A1F584B5806284BDC8BD34C0E730E9F05F
:10163000E83019F1E43049F58091800080628093B0
:101640008000D0938B00C0938A0024C084B580684A
:1016500084BDC7BD1FC080918000806880938000DA
:10166000D0938900C093880015C08091B000806835
:101670008093B000C093B3000DC08091B000806231
:101680008093B000C093B40005C0C038D1050CF001
:10169000B5CFAFCFDF91CF911F9108953FB7F894A9
:1016A0008091AA049091AB04A091AC04B091AD04D8
:1016B00026B5A89B05C02F3F19F00196A11DB11DAD
:1016C0003FBFBA2FA92F982F8827820F911DA11DE8
:1016D000B11DBC01CD0142E0660F771F881F991F25
:1016E0004A95D1F708952FB7F8946091A6047091A8
:1016F000A7048091A8049091A9042FBF0895609336
:10170000A1047093A2048093A3049093A404DC0129
:10171000CB01845D9E4FAF4FBF4F80939D0490934C
:101720009E04A0939F04B093A00482E090E0909365
:101730009C0480939B040E94730B609397047093A6
:1017400098048093990490939A0408951F920F929D
:101750000FB60F9211242F933F938F939F93AF93C4
:10176000BF938091A6049091A704A091A804B09182
:10177000A9043091A50423E0230F2D3720F401960E
:10178000A11DB11D05C026E8230F0296A11DB11DA4
:101790002093A5048093A6049093A704A093A80483
:1017A000B093A9048091AA049091AB04A091AC04D9
:1017B000B091AD040196A11DB11D8093AA04909330
:1017C000AB04A093AC04B093AD04BF91AF919F91D3
:1017D0008F913F912F910F900FBE0F901F901895F2
:1017E0001F920F920FB60F9211242F933F934F9396
:1017F0005F936F937F938F939F93EF93FF934091AA
:10180000F9045091FA046091FB047091FC044115B5
:1018100051056105710599F08091AA03E091AB0330
:10182000F091AC0390818927808314161506160663
:101830001706D4F4415051096109710915C080910E
:1018400070008D7F809370009091AA03E091AB03AC
:10185000F091AC038081282F30E0892F90E08095B3
:1018600090958223932380834093F9045093FA0444
:101870006093FB047093FC04FF91EF919F918F9113
:101880007F916F915F914F913F912F910F900FBE7C
:101890000F901F9018951F920F920FB60F92112460
:1018A0002F933F938F939F93AF93BF93EF93FF93A8
:1018B0008091FD049091FE04A091FF04B091000579
:1018C000892B8A2B8B2B51F18091AD03E091AE03D4
:1018D000F091AF039081892780838091FD049091DE
:1018E000FE04A091FF04B0910005181619061A060F
:1018F0001B064CF58091FD049091FE04A091FF041D
:10190000B09100050197A109B1098093FD0490935E
:10191000FE04A093FF04B093000515C080916F00F2
:101920008D7F80936F009091AD03E091AE03F091B5
:10193000AF038081282F30E0892F90E0809590952B
:10194000822393238083FF91EF91BF91AF919F9169
:101950008F913F912F910F900FBE0F901F90189570
:101960001F920F920FB60F9211242F933F938F93D4
:101970009F93AF93BF93EF93FF9380910105909155
:101980000205A0910305B0910405892B8A2B8B2BAE
:1019900051F18091B003E091B103F091B2039081D5
:1019A000892780838091010590910205A09103050C
:1019B000B0910405181619061A061B064CF58091FD
:1019C000010590910205A0910305B09104050197CE
:1019D000A109B1098093010590930205A093030525
:1019E000B093040515C080916E008D7F80936E00CA
:1019F0009091B003E091B103F091B2038081282F60
:101A000030E0892F90E08095909582239323808306
:101A1000FF91EF91BF91AF919F918F913F912F9146
:101A20000F900FBE0F901F9018953F924F925F92AC
:101A30006F927F928F929F92AF92BF92CF92DF92DE
:101A4000EF92FF920F931F93CF93DF93382E962E32
:101A5000842EF90184E6E816F1042CF082EBE81AF2
:101A600087E0F80A03C08EE1E80EF11CE092BF03A4
:101A70000093BE03E093BD033092BB039092BA0380
:101A80008092B903AE2DB0E020E833E341EE51E09F
:101A90000E94B2282B013C0122EB37E0FF2484E6B0
:101AA000C82ED12CC0E9D1E0C901825B97408E15C8
:101AB0009F05DCF4C90183709927892B99F4C9012A
:101AC000B6010E949523892B31F4C901BE010E9401
:101AD0009523892B39F480E8480E81E5581E81E072
:101AE000681E711C2F5F3F4FDFCF8EE4E81A88EF2E
:101AF000F80AC70164E670E00E9495236C01C701F3
:101B000060E971E00E9495235C01C1E0D0E01127FB
:101B100083E0E822FF24C017D1072CF5C230D1059D
:101B200089F4E114F10471F4C114D10419F4A1147D
:101B3000B10441F480E8480E8BE3581E86E2681E2B
:101B4000711C0FC0DE01A957BD4FAC91B0E020E879
:101B500031E541E050E00E94B228460E571E681E53
:101B6000791E2196D8CF292D30E0ACE3B0E00E9459
:101B7000F4286B017C01C80CD11CE11CF11C232D45
:101B800030E0A0E1BEE00E94F428C60ED71EE81E99
:101B9000F91EDF01BB27119720E831E541E050E055
:101BA0000E94F023DC01CB018C0D9D1DAE1DBF1DDD
:101BB000BC01CD01640D751D861D971DDF91CF9170
:101BC0001F910F91FF90EF90DF90CF90BF90AF905B
:101BD0009F908F907F906F905F904F903F900C946C
:101BE0007F0BCF92DF92EF92FF920F931F930E9491
:101BF000730BC0909704D0909804E0909904F090F3
:101C00009A048B019C010C191D092E093F09809132
:101C1000A1049091A204A091A304B091A404083E51
:101C2000134021053105D0F00196A11DB11D80930F
:101C3000A1049093A204A093A304B093A404B701B9
:101C4000A60148515C4F6F4F7F4F409397045093CC
:101C500098046093990470939A04C9CF40919D04AD
:101C600050919E0460919F047091A0048417950781
:101C7000A607B70788F1E0919504F0919604309794
:101C800059F10995611571058105910519F00E94B9
:101C90007F0B22C08091A1049091A204A091A30483
:101CA000B091A404845D9E4FAF4FBF4F80939D04BD
:101CB00090939E04A0939F04B093A00481E090E0D1
:101CC00020919B0430919C04232B11F480E090E040
:101CD00090939C0480939B046091A1047091A20452
:101CE0008091A3049091A4041F910F91FF90EF9015
:101CF000DF90CF9008954F925F926F927F928F9274
:101D00009F92AF92BF92CF92DF92EF92FF920F938A
:101D10001F93CF93DF934B015C01809191049091CD
:101D20009204A0919304B091940488169906AA068F
:101D3000BB0609F4C2C08CE3C82ED12CE12CF12CD7
:101D4000C501B401A70196010E94A9236093B903BC
:101D5000CA01B901A70196010E94A9236093BA03A1
:101D6000CA01B90128E130E040E050E00E94A92317
:101D700069017A016093BB03CA01B9016C5F7F4FAF
:101D80008F4F9F4F27E030E040E050E00E94A923B2
:101D90006F5F6093BC03412C512C320140E004E69C
:101DA00010E0C0E9D1E0242F30E02E54384FF90183
:101DB000E370FF27309789F4C901B8010E94952389
:101DC000892B31F4C901BE010E949523892B29F486
:101DD0008EE691E0A0E0B0E004C08DE691E0A0E0E6
:101DE000B0E0480E591E6A1E7B1ED301C201AA270D
:101DF000BB27C816D906EA06FB0610F04F5FD3CF03
:101E00004093BF03309799F4C90164E670E00E94E3
:101E10009523892B39F4C90160E971E00E9495236B
:101E2000892B29F48EE691E0A0E0B0E004C08DE6B5
:101E300091E0A0E0B0E0481A590A6A0A7B0AC41887
:101E4000D508E608F708C90164E670E00E9495230A
:101E5000EC01C90160E971E00E949523A8E8B2E0B5
:101E600020E0213039F4309749F4209729F4009785
:101E700029F402C04C9103C04DE101C04CE150E097
:101E800060E070E0C416D506E606F70640F0C41A16
:101E9000D50AE60AF70A2F5F11962C3011F72F5F4B
:101EA0002093BE03C394C092BD038092910490928C
:101EB0009204A0929304B0929404DF91CF911F9169
:101EC0000F91FF90EF90DF90CF90BF90AF909F90D9
:101ED0008F907F906F905F904F9008950E94F10DCA
:101EE0000E947B0E8091BF0390E08E54984F08951E
:101EF0000E94F10D0E947B0E8091BE0390E0089538
:101F00000E94F10D0E947B0E8091BD0390E0089528
:101F10000E94F10D0E947B0E8091B90390E008951C
:101F20000E94F10D0E947B0E8091BA0390E008950B
:101F30000E94F10D0E947B0E8091BB0390E00895FA
:101F4000CF92DF92EF92FF92CF93DF93EC010E944A
:101F5000730B6B017C018F850E945A0A21E0892B4B
:101F600009F420E0298B8889811103C081E0822750
:101F7000898B29898A89281721F0CD8ADE8AEF8A00
:101F8000F88E8D899E89AF89B88DB701A601481B4F
:101F9000590B6A0B7B0BDB01CA01CB80DC80ED8027
:101FA000FE80C416D506E606F70664F43A812317C8
:101FB00049F02A83222331F04B895C894F5F5F4FC0
:101FC0005C8B4B8B3A8131110CC0CF80D884E98473
:101FD000FA84C816D906EA06FB06ACF48B899C89FC
:101FE0000EC0CB84DC84ED84FE84C816D906EA06D4
:101FF000FB064CF48B899C89919581959109998375
:1020000088831C8A1B8A2A8BDF91CF91FF90EF90E7
:10201000DF90CF9008950F931F93CF93DF931F927C
:10202000CDB7DEB78C01862FF8016787408B91E032
:102030004927418B428B148A138A118210821282A3
:10204000158A168A178A108E44E150E060E070E02D
:1020500043835483658376834AEF50E060E070E009
:10206000478350876187728748EE53E060E070E0F5
:10207000438754876587768760E029830E94B30A87
:10208000F8018089298181110BC0222349F061E088
:1020900087850F90DF91CF911F910F910C94830A48
:1020A0000F90DF91CF911F910F9108953F924F9222
:1020B0005F926F927F928F929F92AF92BF92CF92D8
:1020C000DF92EF92FF920F931F93CF93DF9300D095
:1020D00000D0CDB7DEB72091060527FDAAC1498300
:1020E0005A836B837C838C0161E0809105050E949B
:1020F000B30A30900605832D8D7F4801A12CB12CA9
:1021000009F0B7C060E072E18AE790E0A5019401B0
:102110000E94CB2329013A0169017A0121E0C21A08
:10212000D108E108F1088FEFC816D104E104F104E9
:1021300009F008F44CC060E472E48FE090E0A5017F
:1021400094010E94CB2369017A0191E0C91AD10858
:10215000E108F108A2E03A1220C0BFEFCB16D1048B
:10216000E104F10409F008F462C160E970ED83E074
:1021700090E0A50194010E94CB2369017A01E1E07E
:10218000CE1AD108E108F108FFEFCF16D104E1041F
:10219000F10409F0C0F583E065C02FEFC216D10449
:1021A000E104F104B1F0A8F068E478EE81E090E099
:1021B000A50194010E94CB2369017A0181E0C81A2C
:1021C000D108E108F108332009F4D9C027C181E022
:1021D00001C082E0332091F045C0D301C2012AE062
:1021E000B595A795979587952A95D1F76C017D01AF
:1021F000E1E0CE1AD108E108F10885E095B5987FB5
:10220000892B85BD66C068E478EE81E090E0A50189
:1022100094010E94CB2369017A01B1E0CB1AD10865
:10222000E108F108EFEFCE16D104E104F10409F062
:1022300008F4A3C064E274EF80E090E0A50194018B
:102240000E94CB2369017A0191E0C91AD108E10803
:10225000F108AFEFCA16D104E104F10411F008F05F
:10226000B0C085E09091B100987F892B8093B10038
:1022700030C060E072E18AE790E0A50194010E941D
:10228000CB2369017A01F1E0CF1AD108E108F10806
:10229000C114D10421E0E206F10488F068E478EE8C
:1022A00081E090E0A50194010E94CB2369017A01AD
:1022B00081E0C81AD108E108F10893E001C091E07B
:1022C000A1E03A1206C080918100887F892B80931B
:1022D000810089819A81AB81BC81892B8A2B8B2BD0
:1022E00081F0D801AA0FBB1F29813A814B815C8103
:1022F0000E94B22828EE33E040E050E00E94A9237B
:1023000003C02FEF3FEFA90191E03916A1F0A2E041
:102310003A1619F131108DC0C7BC209301053093D6
:102320000205409303055093040580916E0082607E
:1023300080936E007EC0D0928900C0928800209366
:10234000FD043093FE044093FF04509300058091F8
:102350006F00826080936F006CC0C092B3002093C6
:10236000F9043093FA044093FB045093FC048091E9
:1023700070008260809370005CC084E073CF8FEF48
:10238000C816D104E104F104D1F0C8F062E17AE7A3
:1023900080E090E0A50194010E94CB2369017A01BD
:1023A000F1E0CF1AD108E108F1082FEFC216D104ED
:1023B000E104F10411F008F010CF84E01FCF83E0B6
:1023C0001DCF62E17AE780E090E0A50194010E94D0
:1023D000CB2369017A0191E0C91AD108E108F1081B
:1023E000AFEFCA16D104E104F104B1F0A8F0D301B3
:1023F000C2014AE0B595A795979587954A95D1F77B
:102400006C017D01E1E0CE1AD108E108F10833202A
:1024100009F4F3CE87E026CF86E0DCCEBFEFCB1603
:10242000D104E104F10409F060F684E0D3CE82E047
:1024300019CF0F900F900F900F90DF91CF911F91B8
:102440000F91FF90EF90DF90CF90BF90AF909F9053
:102450008F907F906F905F904F903F90089500977E
:1024600069F0FC0101900020E9F73197AF01481BAA
:10247000590BBC0187E095E00C942C0780E090E0BC
:1024800008950F931F93CF93DF938C01C0E0D0E0AA
:10249000F801EC0FFD1F6491662371F0E0910705D0
:1024A000F09108050190F081E02D87E095E0099515
:1024B000892B11F02196ECCFCE01DF91CF911F91A6
:1024C0000F910895CF93DF930E944112EC0180ECAD
:1024D00092E00E942F128C0F9D1FDF91CF910895E3
:1024E0008F929F92AF92BF92CF92DF92EF92FF9224
:1024F0000E944E0B4B015C0188EEC82E83E0D82E63
:10250000E12CF12C0E944E0BDC01CB0188199909BA
:10251000AA09BB09883E9340A105B10558F021E006
:10252000C21AD108E108F10888EE880E83E0981EEF
:10253000A11CB11CC114D104E104F10419F7FF90EE
:10254000EF90DF90CF90BF90AF909F908F900895C5
:10255000E0910705F09108050190F081E02D682FCA
:1025600087E095E009948F929F92AF92BF920F936C
:102570001F93CF93DF93CDB7DEB7A1970FB6F89433
:10258000DEBF0FBECDBF19A2423008F44AE08E0173
:102590000F5D1F4F842E912CA12CB12CA50194010D
:1025A0000E94A923E62FB901CA0101501109EA309E
:1025B00014F4E05D01C0E95CD801EC93232B242BDB
:1025C000252B61F7C8010E942F12A1960FB6F8942F
:1025D000DEBF0FBECDBFDF91CF911F910F91BF9096
:1025E000AF909F908F9008952091F8049091F704F8
:1025F000213208F04AC08091D4048111FCCF32E02E
:102600003093D40431E03093D3043FEF3093D204BD
:102610001092D1042093D004A7EDB4E040EB54E035
:10262000FA013E2F341B321718F43D913193F9CF44
:102630001092AF042091AF04990F922B9093AF04A6
:102640009091AE04913061F41092AE049091AF0479
:102650009093BB009091BC0093FDF8CF95EC01C026
:1026600095EE9093BC009091D4049230E1F3909158
:10267000D2049F3F79F08091D204803241F0809162
:10268000D204803331F084E005C081E003C082E0F1
:1026900001C083E01092D6041092F8041092D50481
:1026A0000895CF92DF92EF92FF92CF93DF936C0168
:1026B000990FEE08FF08F7FE12C08DE20E94A812E3
:1026C000EC0166277727CB016C197D098E099F09DC
:1026D0004AE00E94B3127C01EC0EFD1E06C04AE0E7
:1026E000C701B6010E94B3127C0180EC92E00E9407
:1026F0002F128E0D9F1DDF91CF91FF90EF90DF90F5
:10270000CF900895CF93DF930E942F12EC0180ECBD
:1027100092E00E942F128C0F9D1FDF91CF910895A0
:10272000CF93DF93CDB7DEB7CC56D1090FB6F8946F
:10273000DEBF0FBECDBF789484B5826084BD84B502
:10274000816084BD85B5826085BD85B5816085BDAC
:1027500080916E00816080936E0010928100809164
:1027600081008260809381008091810081608093EC
:102770008100809180008160809380008091B10011
:1027800084608093B1008091B00081608093B0003C
:1027900080917A00846080937A0080917A008260D0
:1027A00080937A0080917A00816080937A00809192
:1027B0007A00806880937A001092C10060E085E022
:1027C0000E94830A1092A9031092A8031092D604C3
:1027D0001092F8041092D40481E08093D3041092F4
:1027E000AE0461E082E10E94830A61E083E10E941D
:1027F000830A8091B9008E7F8093B9008091B900DF
:102800008D7F8093B90088E48093B80085E480933D
:10281000BC00E0911705F091180582E08083E091FB
:102820001305F09114051082E0911505F09116053D
:1028300080E1808310921F05E0911B05F0911C053B
:1028400086E08083E0911905F0911A05808180610E
:102850008083E0911905F0911A058081886080835A
:10286000E0911905F0911A05808180688083E091DC
:102870001905F0911A0580818F7D808381E090E0B9
:102880000E94C6028C3019F088E190E002C08CE012
:1028900090E0909324018093230180E090E00E94D7
:1028A000C602882321F081E08093040102C01092C7
:1028B000040182E090E00E94C6028F3F29F410924A
:1028C0001C0110921B0105C090E090931C018093A5
:1028D0001B0183E090E00E94C6028F3F29F4109212
:1028E0001E0110921D0105C090E090931E0180937F
:1028F0001D0184E090E00E94C6028F3F29F41092EF
:10290000200110921F0105C090E090932001809358
:102910001F0186E090E00E94C6028F3F29F41092CA
:1029200022011092210105C090E090932201809332
:10293000210187E090E00E94C6028F3F19F41092B7
:102940000C0406C091E0811101C090E090930C044A
:1029500084EB92E00E942F1280910C0490E00E9480
:10296000511361E089E00E94B30A61E086E00E94B1
:10297000B30A61E083E00E94B30A8091D9038330F7
:1029800008F083C092E090930505E82FF0E0E0584E
:10299000FF4FE491E09306058F5F8093D903E13008
:1029A00031F1E23009F44AC0E11172C014BC15BC27
:1029B00084B5826084BD85B5816085BD8091050543
:1029C00090E0FC01EF55FF4FE491F0E0EE0FFF1FA8
:1029D000EA58FF4F259134913093B2032093B1030D
:1029E000FC01E357FF4FE491E093B00351C0109214
:1029F0008000109281008091810088608093810026
:102A0000809181008160809381008091050590E034
:102A1000FC01EF55FF4FE491F0E0EE0FFF1FEA5885
:102A2000FF4F259134913093AF032093AE03FC0107
:102A3000E357FF4FE491E093AD032AC01092B0003A
:102A40001092B1008091B00082608093B0008091BC
:102A5000B10081608093B1008091050590E0FC0198
:102A6000EF55FF4FE491F0E0EE0FFF1FEA58FF4FE4
:102A7000259134913093AC032093AB03FC01E357D1
:102A8000FF4FE491E093AA0303C08FEF8093060504
:102A900080910001909101010E94410390930101F6
:102AA0008093000161E08AE00E94B30A61E085E062
:102AB0000E94B30A1FB7F8948091DA03811127C0EE
:102AC000EBEAF0E08491E7E9F0E09491E82FF0E0A0
:102AD000EE0FFF1FED57FF4FA591B491EC91E92345
:102AE00021F461E08AE00E94830A61E08AE00E94AA
:102AF000B30A8CB580618CBD8CB580648CBD61E0FF
:102B00008DE00E94B30A61E08BE00E94B30A8091DD
:102B1000DA038F5F8093DA031FBF8CB58C608CBDA6
:102B20008CB583608CBD8DB58E7F8DBD62E08EE0EF
:102B30000E94B30A62E080E10E94B30A62E08FE083
:102B40000E94B30A61E082E00E94B30A04E110E04F
:102B500020E030E00093E5051093E6052093E705BB
:102B60003093E8054EE150E060E070E04093E90505
:102B70005093EA056093EB057093EC0580ED97E0C8
:102B8000A0E0B0E08093ED059093EE05A093EF05F3
:102B9000B093F0050093CC051093CD052093CE059E
:102BA0003093CF054093D0055093D1056093D20563
:102BB0007093D3058093D4059093D505A093D60543
:102BC000B093D7050093B3051093B4052093B505D2
:102BD0003093B6054093B7055093B8056093B90597
:102BE0007093BA058093BB059093BC05A093BD0577
:102BF000B093BE0583ED90E00E94411225E030E0E5
:102C000042E050E061E076E0CE0101960E94AD091D
:102C100022E030E041E050E061E076E0CE01815B0F
:102C20009F4F0E94AD09BE01615B7F4FCE01875B64
:102C30009F4F0E948F096EEB72E0CE01875B9F4F22
:102C40000E94D608BE016F5F7F4F0E94EF08DC0133
:102C500014964D915C9115976D917C9187E095E06C
:102C60000E942C0780EC92E00E942F12CE01875B1D
:102C70009F4F0E945209CE01815B9F4F0E945209D3
:102C8000CE0101960E94520988EC90E00E946212E7
:102C900083E480937C0080917A00806480937A0042
:102CA00080917A0086FDFCCF609178008091790058
:102CB00070E0782B072E000C880B990B0E947F2761
:102CC00020E030E040EA50E40E94DE2723E333E3D3
:102CD00043E950E40E94DE2720E030E040E85AE378
:102CE0000E94DE2723E333E343E35FE30E944424AF
:102CF0006B017C018FEB90E00E944112A7019601CD
:102D0000C701B6010E94EB24882319F083EC92E0FE
:102D10001AC046015701E894B7F82FEF3FEF4FE78D
:102D20005FE7C501B4010E94EB2481110FC02FEFB2
:102D30003FEF4FE75FE7C501B4010E9478271816FF
:102D40002CF487EC92E00E942F1272C02FEF3FEF1D
:102D50004FE75FE4C701B6010E94E62418161CF491
:102D60008BEC92E0F0CF2FEF3FEF4FE75FECC70126
:102D7000B6010E94782787FDF3CF20E030E0A9015B
:102D8000C701B6010E94782787FF07C08DE20E9425
:102D9000A812C701B601905802C0C701B6012AE0C7
:102DA00037ED43EA5BE30E9444242B013C010E947F
:102DB000B7244B015C010E947D279B01AC01C3013C
:102DC000B2010E9443242B013C014AE0C501B40139
:102DD0000E94B3128EE20E94A81220E030E040E28E
:102DE00051E4C301B2010E94DE272B013C010E9485
:102DF000B7244B01A12CB12C4AE0C501B4010E94BB
:102E0000B312C501B4010E947D279B01AC01C3012F
:102E1000B2010E94432420E030E040E251E40E94ED
:102E2000DE270E94B72480E090E04AE00E94B312BF
:102E300080910001909101019093CC038093CB038A
:102E40000E9441036FEF70E089E00E94EF0A0E9448
:102E5000701260E070E089E00E94EF0A6FEF70E0AE
:102E600086E00E94EF0A0E94701260E070E086E047
:102E70000E94EF0A6FEF70E083E00E94EF0A0E9469
:102E800070126FEC72E0CE0101960E94980966ED17
:102E900072E0CE0107960E9498096DED72E0CE01B6
:102EA0000D960E94980964EE72E0CE0143960E944E
:102EB00098096BEE72E0CE0149960E94980962EF84
:102EC00072E0CE014F960E94980969EF72E0CE0140
:102ED00085960E94980960E073E0CE018B960E946F
:102EE000980967E073E0CE01C1960E9498096EE0F0
:102EF00073E0CE01C7960E94980962EC72E0CE01A1
:102F0000CD960E94980962EC72E0CE018D5B9F4FD6
:102F10000E94980920E030E040E251E4C701B60188
:102F20000E94782720E030E048EC52E487FF0FC091
:102F3000C701B6010E94DE270E94B0244AE0CE01FC
:102F4000875B9F4F0E94570962ED72E00EC0C70178
:102F5000B6010E94DE270E94B0244AE0CE01875BC2
:102F60009F4F0E94570963ED72E0CE01815B9F4F36
:102F70000E949809BE01675B7F4FCE01815B9F4F26
:102F80000E94EF08BC01CE01CD960E940209CE013D
:102F9000815B9F4F0E945209CE01875B9F4F0E9429
:102FA000520961E076E0CE018D5B9F4F0E940209DD
:102FB0000E94730BAD966CAF7DAF8EAF9FAFAD9798
:102FC00061E085E00E94830A44244A94E4EFF1E042
:102FD000A496FFAFEEAFA497A2961FAEA2971AE0F9
:102FE000812E912CA12CB12C8FE00E945A0A892BA2
:102FF00021F4F1E0A296FFAFA29780E10E945A0A65
:10300000892B19F4A2961FAEA297BCE02B2E312C6F
:1030100021E0A9962FAFA9970E94730BDC01CB0189
:10302000AD962CAD3DAD4EAD5FADAD97821B930B14
:10303000A40BB50BA4964EAD5FADA4978A01550FB6
:10304000220B330B081719072A073B0708F097C113
:103050000E94730BAD966CAF7DAF8EAF9FAFAD97F7
:10306000A2965FADA297511101C043946AE0461643
:1030700039F08CE048120AC0A9961FAEA99706C085
:10308000A8EBBBE0A496BFAFAEAFA49761E070E041
:103090006C0F7D1FB6E0B49D600D711D11248BEF88
:1030A00095E00E9402098091FB059091FC05009734
:1030B00019F00E94FC2603C060E070E0CB01A5017E
:1030C00094010E94CB23A8962CAF3DAF4EAF5FAFCB
:1030D000A897660F771FFB01E553FE4F4081518192
:1030E000F6E0440F551FFA95E1F79A0140E050E0F1
:1030F00060E070E080E090E000E30E94F823E22EC0
:10310000532E3A016B01F82E192FA8966CAD7DADA8
:103110008EAD9FADA897A50194010E94CB23A896E0
:103120002CAF3DAF4EAF5FAFA897660F771FFB0187
:10313000E553FE4F40815181B6E0440F551FBA95CB
:10314000E1F79A0140E050E060E070E080E090E05C
:1031500006E20E94F823E22A532A642A752AC62A24
:10316000D72AF82A192BA8966CAD7DAD8EAD9FADF0
:10317000A897A50194010E94CB23A8962CAF3DAF40
:103180004EAF5FAFA897660F771FFB01E553FE4F69
:103190004081518186E0440F551F8A95E1F79A01DD
:1031A00040E050E060E070E080E090E00CE10E94E0
:1031B000F823E22A532A642A752AC62AD72AF82A2B
:1031C000192BA8966CAD7DAD8EAD9FADA897A501CE
:1031D00094010E94CB23A8962CAF3DAF4EAF5FAFBA
:1031E000A897660F771FFB01E553FE4F4081518181
:1031F00026E0440F551F2A95E1F79A0140E050E080
:1032000060E070E080E090E002E10E94F823E22AB2
:10321000532A642A752AC62AD72AF82A192BA8966F
:103220006CAD7DAD8EAD9FADA897A50194010E94B8
:10323000CB23A8962CAF3DAF4EAF5FAFA897660FDC
:10324000771FFB01E553FE4F4081518166E0440F3B
:10325000551F6A95E1F79A0140E050E060E070E0A8
:1032600080E090E008E00E94F823E22A532A642AD2
:10327000752AC62AD72AF82A192BA8966CAD7DADD7
:103280008EAD9FADA897A50194010E94CB23660F38
:10329000771FFB01E553FE4F40815181F6E0440F5B
:1032A000551FFA95E1F756954795569547952E2D5A
:1032B000242B352D352BA301B6018F2D912F04E042
:1032C0000E941324122F532E3A016B017C0161E0FE
:1032D0008AE00E94830A212F352DA301B601C70180
:1032E00008E30E941324822F0E942407212F352DEA
:1032F000A301B601C70100E30E941324822F0E949C
:103300002407212F352DA301B601C70108E20E9431
:103310001324822F0E942407212F352DA301B601EB
:10332000C70100E20E941324822F0E942407212F4C
:10333000352DA301B601C70108E10E941324822F95
:103340000E942407212F352DA301B601C70100E1FA
:103350000E941324822F0E942407212F352DA301C0
:10336000B601C70108E00E941324822F0E9424079F
:10337000812F0E94240760E08AE00E94830AE1E036
:103380002E1A310809F048CE8BE39FE10197F1F73F
:10339000A996FFADA997F11127CE85EB90E00E9489
:1033A00062128E01075B1F4FD02EC12E9E012F5F30
:1033B0003F4F190106501109C8010E945209021518
:1033C0001305C1F780910C0481110E94C8020E946C
:1033D000BC040091D1031091D2030E94730B4B01E6
:1033E0005C0181E08093130411278091D1039091B7
:1033F000D20308171907A9F40E94BC040E94730B9A
:10340000DC01CB0188199909AA09BB09893B9B40BA
:10341000A105B10550F386EE90E00E946212109271
:103420001304E090D703F090D8030091D5031091D6
:10343000D6032091D3033091D4034091D10350910E
:10344000D2036091CF037091D0038091CD0390910E
:10345000CE030E94150D60E085E00E94830A61E0C2
:1034600085E00E94830A0E94730B20E137E240E06E
:1034700050E00E94A923672B682B692B29F48091C7
:10348000130481110C9406230091CB031091CC03FB
:10349000D8018C91882309F43CC10E94730B809061
:1034A000E1039090E203A090E303B090E403DC0119
:1034B000CB0188199909AA09BB098090DD03909076
:1034C000DE03A090DF03B090E00388169906AA06F9
:1034D000BB0608F01EC10E94730B4B015C01609398
:1034E000E1037093E2038093E3039093E40310926B
:1034F000B8031092B703C8017C01FC01108101964A
:1035000040ED410F2091B7033091B8034A3088F461
:10351000BAE0B29FA001B39F500D1124E12F110F0B
:10352000FF0BF097E40FF51FF093B803E093B70398
:10353000E3CF6091B3037091B4038091B503909190
:10354000B6032115310529F0032E000C440B550B51
:1035500005C02091030130E040E050E00E94CB2301
:103560002093DD033093DE034093DF035093E003A9
:10357000812F110F990BAA0BBB0BFC01E156F1092E
:10358000E730F10520F4EC5CFF4F0C94EA23109235
:10359000DC0315C081E001C083E08093DC030FC031
:1035A00085E0FBCF86E0F9CFF8E0F093DC0307C0BD
:1035B0002AE02093DC0303C03CE03093DC03D70116
:1035C00011968C91833221F0BFEFEB1AFB0A08C0F1
:1035D0008091DC038F5F8093DC03E2E0EE0EF11C50
:1035E000D7018C918E32F9F44090DD035090DE03C8
:1035F0006090DF037090E003C301B20122E030E08D
:1036000040E050E00E94CB23420E531E641E751E04
:103610004092DD035092DE036092DF037092E0037C
:10362000BFEFEB1AFB0AF701808180538A3030F438
:103630008093DB03FFEFEF1AFF0A04C080910201C1
:103640008093DB03E091DB03D7018C918C3219F47A
:10365000BFEFEB1AFB0A8091DC03882309F45CC0FE
:103660004090DD035090DE036090DF037090E00334
:10367000F0E034974CE04E9F90014F9F300D1124A5
:10368000F901E80FF11DEE0FFF1FEB5BFE4FB301D9
:10369000A201808191810E9456100E94730BDC016F
:1036A000CB0188199909AA09BB09481659066A0667
:1036B0007B0690F50E94730B6093E1037093E20325
:1036C0008093E3039093E40380910605813051F0E9
:1036D000823071F0811111C080916E008D7F8093D6
:1036E0006E000BC080916F008D7F80936F0005C0CE
:1036F000809170008D7F8093700060E0809105055F
:103700000E94830A82E091E00E94621290E080E0D1
:1037100005C0902F812F02C09E2D8F2D9093CB033B
:103720008093CC030E94730B00910F04109110043E
:103730002091110430911204DC01CB01801B910B0C
:10374000A20BB30B0697A105B10508F489C08091BF
:103750000401811110C060E070E089E00E94EF0A6E
:1037600060E070E086E00E94EF0A60E070E083E0D5
:103770000E94EF0A6BC080910C04811167C0009118
:10378000E7031091E803C801880F991F800F911F6C
:10379000FC01EE0FFF1FE955FE4F6091050170918E
:1037A000060120813181620F731F709306016093BF
:1037B0000501FC01EE0FFF1FE755FE4F20910404A9
:1037C00030910504E080F180E20EF31EF0920504D2
:1037D000E0920404880F991FFC01E555FE4F80918B
:1037E000020490910304A080B180A80EB91EB0928B
:1037F0000304A092020489E00E94EF0AB70186E068
:103800000E94EF0AB50183E00E94EF0A8091E50370
:103810009091E60301969093E6038093E5038F3F32
:10382000910551F40F5F1F4F1093E8030093E703D6
:103830001092E6031092E5038091E7039091E8036C
:10384000069724F01092E8031092E7030E94730B8E
:1038500060930F04709310048093110490931204EA
:103860000E944E0B0091E9031091EA032091EB03B3
:103870003091EC03DC01CB01801B910BA20BB30B4D
:103880008A319144A105B10508F4B4C10E944E0BE0
:103890006093E9037093EA038093EB039093EC0346
:1038A00060E08AE00E94830A8091FB059091FC050C
:1038B000009719F00E94FC2603C060E070E0CB0185
:1038C0002AE030E040E050E00E94CB2329013A0199
:1038D000660F771FFB01E553FE4F0081118185E0E4
:1038E00090E00E942E04802B912B06E0880F991FF8
:1038F0000A95E1F79C0140E050E060E070E080E074
:1039000090E000E30E94F823A2962FAFA297832EA7
:10391000942EA52EB62EE72EF82EA3969FAFA39732
:10392000C301B2012AE030E040E050E00E94CB2326
:1039300029013A01660F771FFB01E553FE4F008115
:10394000118184E090E00E942E04802B912BAC0129
:1039500096E0440F551F9A95E1F79A0140E050E038
:1039600060E070E080E090E006E20E94F823A2961A
:10397000AFADA297A22BA296AFAFA297832A942AAB
:10398000A52AB62AE72AF82AA396BFADA397B92B92
:10399000A396BFAFA397C301B2012AE030E040E095
:1039A00050E00E94CB2329013A01660F771FFB01EB
:1039B000E553FE4F0081118183E090E00E942E04C8
:1039C000802B912BAC0136E0440F551F3A95E1F75F
:1039D0009A0140E050E060E070E080E090E00CE1AF
:1039E0000E94F823A296EFADA297E22BA296EFAF2A
:1039F000A297832A942AA52AB62AE72AF82AA39608
:103A0000FFADA397F92BA396FFAFA397C301B20114
:103A10002AE030E040E050E00E94CB2329013A0147
:103A2000660F771FFB01E553FE4F0081118182E095
:103A300090E00E942E04802B912BAC0166E0440F95
:103A4000551F6A95E1F79A0140E050E060E070E0B0
:103A500080E090E002E10E94F823A296AFADA29729
:103A6000A22BA296AFAFA297832A942AA52AB62AA0
:103A7000E72AF82AA396BFADA397B92BA396BFAFA9
:103A8000A397C301B2012AE030E040E050E00E9479
:103A9000CB2329013A01660F771FFB01E553FE4F47
:103AA0000081118181E090E00E942E04802B912BF7
:103AB000AC01F6E0440F551FFA95E1F79A0140E09A
:103AC00050E060E070E080E090E008E00E94F823C1
:103AD000A2960FADA297022B832A942AA52AB62A72
:103AE000E72AF82AA3961FADA397192BC301B201A9
:103AF0002AE030E040E050E00E94CB23660F771FC1
:103B0000FB01E553FE4F4080518080E090E00E9431
:103B10002E0484299529AC01B6E0440F551FBA95AF
:103B2000E1F75695479556954795202F242B382D2C
:103B3000352B492D5A2D6B2D7E2D8F2D912F04E085
:103B40000E941324122F732E4A015B017C0108E3AB
:103B50000E941324822F0E942407212F372DA401B5
:103B6000B501C70100E30E941324822F0E9424079D
:103B7000212F372DA401B501C70108E20E941324AB
:103B8000822F0E942407212F372DA401B501C701E0
:103B900000E20E941324822F0E942407212F372D38
:103BA000A401B501C70108E10E941324822F0E94DD
:103BB0002407212F372DA401B501C70100E10E9480
:103BC0001324822F0E942407212F372DA401B50131
:103BD000C70108E00E941324822F0E942407812F2E
:103BE0000E94240761E08AE00E94830A60E08AE084
:103BF0000E94830A82EE95E00E94A00F89EC95E076
:103C00000E94A00F80EB95E00E94A00F8091CA0354
:103C1000811103C01092C9032BC00E94730B009145
:103C2000C5031091C6032091C7033091C803DC017E
:103C3000CB01801B910BA20BB30B81369A4EA105D1
:103C4000B105B0F01092CA03E091C303F091C40330
:103C5000EE0FFF1FE25DFD4F808191819093C403C1
:103C60008093C303FC01E15EFD4F80818093C90313
:103C70008091E2059091E305181619060CF097C1A2
:103C80001092CC031092CB0344E650E060E070E069
:103C900088EE93E00E9456100E94730B6093C50358
:103CA0007093C6038093C7039093C8038091C303A6
:103CB0009091C40301968430910529F09093C40338
:103CC0008093C30304C01092C4031092C30380E224
:103CD00091E00E9441128091C3039091C4030E941D
:103CE000511389E191E00E944112E091C303F091E8
:103CF000C403EE0FFF1FE95FFE4F808191810E9498
:103D000051132091C3033091C403F901E15EFD4FCB
:103D100080818093C90321503109F901EE0FFF1F03
:103D2000EF5FFD4F408151814115510509F430C1CC
:103D3000CA010197FC01EE0FFF1FED51FE4F60819C
:103D400071816217730709F023C14230510569F58B
:103D500028E1EDE2F1E0D10101900D922A95E1F721
:103D60002091190130911A0123703327232B21F45C
:103D70002DE130E03C832B83209115013091160119
:103D8000E0911701F09118013197EE0FFF1FE20D3E
:103D9000F31D40815181421753073CF487E090E0C6
:103DA0009093C4038093C3032DC41092CA039093CD
:103DB000C4038093C303892BB9F40E946E0F7C0166
:103DC0000E94780F8C010E94800F40911301509146
:103DD000140160911101709112019C0180910F01F9
:103DE000909110010E94150D8091C3039091C4031E
:103DF0000197E9F4E0901901F0901A0130E3E31A19
:103E000038EFF30A00911701109118016090150125
:103E1000709016010E94880F4C010E94900F5C0167
:103E20000E94980F9301A401B5010E94150D809185
:103E3000C3039091C4030297C1F460911B0182E017
:103E400090E00E94C40260911D0183E090E00E9416
:103E5000C40260911F0184E090E00E94C40260915E
:103E6000210186E090E00E94C4028091C3039091FA
:103E7000C403039731F46091230181E090E00E9434
:103E8000C40260E085E00E94830A0E946E0F68EE23
:103E900073E00E949523182F0E94780F082F0E942C
:103EA000800FF82E0E94880FA82E0E94900FB82E27
:103EB0000E94980FE82E81E08093D50488E68093D5
:103EC000F7041092D6041092F80460E084EA95E0BA
:103ED0000E9467018A2D6AE00E948923692F40E1D0
:103EE000849F600D112484EA95E00E9467018B2D68
:103EF0006AE00E948923692F50E1859F600D11249B
:103F000084EA95E00E9467018E2D6AE00E94892371
:103F1000692FA0E18A9F600D112484EA95E00E9438
:103F2000670161E084EA95E00E9467018F2D6AE0F5
:103F30000E948923692FB0E18B9F600D112484EAD0
:103F400095E00E946701802F6AE00E948923692F13
:103F5000E0E18E9F600D112484EA95E00E946701E4
:103F6000812F6AE00E948923692FF0E18F9F600D05
:103F7000112484EA95E00E94670160E084EA95E0FC
:103F80000E9467010E94F41261E085E00E94830AAA
:103F90000091C3031091C4038091C9030E94D2030E
:103FA000000F111FF801E95FFE4F9183808380911C
:103FB000E2059091E30597FF88C044E650E060E099
:103FC00070E088EE93E00E9456108091CA03811140
:103FD0004DC00E94730B6093C5037093C60380931A
:103FE000C7039093C8038091C3039091C403892BA6
:103FF000E9F50E94880FBC01C1010E948F050E9453
:10400000900FBC018D2D9C2D0E948F050E94980F52
:10401000BC01CE018B5A9F4F0E948F05BE016B5A87
:104020007F4FCE01815B9F4F0E948F096D2D7C2DAC
:10403000CE01815B9F4F0E94EF08B1010E94EF0803
:10404000BC018BEF95E00E940209CE01815B9F4F7E
:104050000E945209CE018B5A9F4F0E9452098D2D0A
:104060009C2D0E945209C1010E945209E091C30394
:10407000F091C403EE0FFF1FE25DFD4F008111813F
:104080001093C4030093C3030A30110549F481E07F
:1040900090E0909322018093210180E88093C203F5
:1040A0009091CA0381E089278093CA03F801E15EF9
:1040B000FD4F80818093C9030E94D203000F111F1E
:1040C000F801E95FFE4F918380838091C90590914B
:1040D000CA05009701F190930E0480930D04181601
:1040E0001906CCF41092CC031092CB0344E650E0B6
:1040F00060E070E088EE93E00E9456100E94D306C4
:104100008091CA03811107C010920C0460E087E01F
:1041100090E00E94C40280910D0490910E040196DB
:1041200061F58091CB05882341F11092C103809104
:10413000CA03882329F10E94730B0091080410918F
:10414000090420910A0430910B04DC01CB01801B8F
:10415000910BA20BB30B87399105A105B10580F036
:104160000E94730B609308047093090480930A04FF
:1041700090930B040E94D30603C081E08093C10397
:104180008091B0059091B105009799F19093070443
:10419000809306041816190664F51092CC03109249
:1041A000CB0344E650E060E070E088EE93E00E94CC
:1041B00056100E9477068091CA0381111AC081E0CF
:1041C00080930C0461E087E090E00E94C40260915B
:1041D000050188E090E00E94C4026091040489E037
:1041E00090E00E94C402609102048AE090E00E9484
:1041F000C4028091060490910704019661F58091B4
:10420000B205882341F11092C0038091CA0388232C
:1042100029F10E94730B0091FE031091FF0320917E
:10422000000430910104DC01CB01801B910BA20B37
:10423000B30B87399105A105B10580F00E94730B7E
:104240006093FE037093FF03809300049093010436
:104250000E94770603C081E08093C0038091CA0367
:10426000811135C08091C9059091CA0597FF16C08C
:1042700044E650E060E070E088EE93E00E94561063
:1042800081E08093040161E080E090E00E94C4023C
:1042900085E193E00E9482130E94C8028091B005DC
:1042A0009091B10597FF13C044E650E060E070E0E4
:1042B00088EE93E00E9456101092040160E080E0C6
:1042C00090E00E94C4028CE193E00E9482138091EE
:1042D000C3039091C4038130910509F402C11CF419
:1042E000892B61F18FC18230910509F43DC103979B
:1042F00009F088C160912301709124014AE0C10155
:104300000E94570963ED72E08D2D9C2D0E94980943
:10431000B1018D2D9C2D0E94EF0863ED72E00E948B
:10432000D608BC018BEF95E00E9402098D2D9C2DD3
:104330000E945209C1010E94520960C10E94730B80
:104340000091ED031091EE032091EF033091F00303
:10435000DC01CB01801B910BA20BB30B893E934078
:10436000A105B10508F46EC00E94730B6093ED03C4
:104370007093EE038093EF039093F00380912301F9
:1043800090912401489789F40E94880FBC01C101D3
:104390000E948F050E94900FBC018D2D9C2D0E94C4
:1043A0008F050E94980FBC011EC00E94880FBC019F
:1043B000C1010E948F050E94900FBC018D2D9C2D84
:1043C0000E948F050E94F10D0E947B0E8091BB031D
:1043D000882339F0682F70E08D3028F06C50710917
:1043E00002C06CE070E0CE018B5A9F4F0E948F0597
:1043F000BE016B5A7F4FCE01815B9F4F0E948F0998
:104400006D2D7C2DCE01815B9F4F0E94EF08B10185
:104410000E94EF08BC01CE01855A9F4F0E948F0970
:10442000CE01815B9F4F0E945209CE018B5A9F4F54
:104430000E9452098D2D9C2D0E945209C1010E949B
:10444000520907C06BEF75E0CE01855A9F4F0E945D
:104450008F09BE01655A7F4F8BEF95E00E941909C5
:10446000CE01855A9F4F0E9452098091F603811117
:104470000DC00E94730B6093F2037093F30380935B
:10448000F4039093F50381E08093F6030E94730B8D
:104490000091F2031091F3032091F4033091F5039E
:1044A000DC01CB01801B910BA20BB30B893E934027
:1044B000A105B10508F4A4C00E94730B6093F20338
:1044C0007093F3038093F4039093F5039091F103B9
:1044D00081E089278093F103882309F48FC080EC61
:1044E0008AC00E946E0F68EE73E00E949523BC01A3
:1044F000C1010E948F050E94780FBC018D2D9C2D5B
:104500000E948F050E94800FBC01CE018B5A9F4FE5
:104510000E948F05BE016B5A7F4FCE01815B9F4F7A
:104520000E948F096D2D7C2DCE01815B9F4F0E94D3
:10453000EF08B1010E94EF08BC018BEF95E00E94EB
:104540000209CE01815B9F4F0E945209CE018B5A16
:104550009F4F0E9452098D2D9C2D0E945209C1012E
:104560000E94520980E447C060911F0170912001B0
:10457000C1010E948F0560911D0170911E018D2D5A
:104580009C2D0E948F0560911B0170911C01CE0132
:104590008B5A9F4F0E948F05BE016B5A7F4FCE01F1
:1045A000815B9F4F0E948F096D2D7C2DCE01815B19
:1045B0009F4F0E94EF08B1010E94EF08BC018BEFF2
:1045C00095E00E940209CE01815B9F4F0E94520933
:1045D000CE018B5A9F4F0E9452098D2D9C2D0E9417
:1045E0005209C1010E94520980912101909122013A
:1045F000019721F480E88093C20302C01092C203A5
:104600000E94E0020E9419080C94331A0E94BC0414
:10461000E090D703F090D8030091D5031091D60312
:104620002091D3033091D4034091D1035091D20310
:104630006091CF037091D0038091CD039091CE0310
:104640000E94150D84E293E00E9482130C94441A98
:104650008BEF95E00E94520981E096E00C9452099C
:10466000E7E0F5E01382128288EE93E0A0E0B0E08C
:1046700084839583A683B78328E932E0318320833E
:1046800025EC30E03587248724EC30E03787268717
:1046900020EC30E0318B208B21EC30E0338B228B0F
:1046A00022EC30E0358B248B26EC30E0378B268BE8
:1046B000118E128E138E148EE4EAF5E013821282AC
:1046C00084839583A683B78388EA92E0918380836D
:1046D00060EA73E081E096E00E9498096FEC72E076
:1046E0008BEF95E00E94980921E040E06EE082EEB9
:1046F00095E00E940B1021E040E060E189EC95E03C
:104700000E940B1021E040E06FE080EB95E00C94FC
:104710000B10991B79E004C0991F961708F0961B9F
:10472000881F7A95C9F78095089597FB072E16F490
:10473000009407D077FD09D00E942F2407FC05D0F4
:104740003EF4909581959F4F0895709561957F4FA8
:104750000895A1E21A2EAA1BBB1BFD010DC0AA1FC2
:10476000BB1FEE1FFF1FA217B307E407F50720F0DA
:10477000A21BB30BE40BF50B661F771F881F991F55
:104780001A9469F760957095809590959B01AC019E
:10479000BD01CF010895052E97FB1EF400940E94E1
:1047A000E22357FD07D00E94A92307FC03D04EF453
:1047B0000C94E22350954095309521953F4F4F4FF3
:1047C0005F4F089590958095709561957F4F8F4FBD
:1047D0009F4F0895EE0FFF1F0590F491E02D09946F
:1047E000B7FF0C94B2280E94B228821B930B089545
:1047F0000F93083090F0982F872F762F652F542F26
:10480000432F322F22270850F4CF220F331F441F8B
:10481000551F661F771F881F991F0A95B2F70F91C2
:10482000089597FB10F8169400080F93083098F03D
:104830000850232F342F452F562F672F782F892F7D
:10484000902DF4CF05949795879577956795579513
:104850004795379527950A95AAF70F910895AA1BB2
:10486000BB1B51E107C0AA1FBB1FA617B70710F05B
:10487000A61BB70B881F991F5A95A9F7809590958D
:10488000BC01CD0108955058BB27AA270E945B2484
:104890000C9462280E94542838F00E945B2820F073
:1048A00039F49F3F19F426F40C9451280EF4E09546
:1048B000E7FB0C944B28E92F0E94732858F3BA1792
:1048C000620773078407950720F079F4A6F50C9426
:1048D00095280EF4E0950B2EBA2FA02D0B01B901EF
:1048E00090010C01CA01A0011124FF27591B99F066
:1048F000593F50F4503E68F11A16F040A22F232F72
:10490000342F4427585FF3CF469537952795A795C1
:10491000F0405395C9F77EF41F16BA0B620B730B68
:10492000840BBAF09150A1F0FF0FBB1F661F771FD9
:10493000881FC2F70EC0BA0F621F731F841F48F48E
:10494000879577956795B795F7959E3F08F0B0CF17
:104950009395880F08F09927EE0F979587950895FE
:104960000E94B7246894B1110C94962808950E946F
:104970007B2888F09F5798F0B92F9927B751B0F04E
:10498000E1F0660F771F881F991F1AF0BA95C9F7D3
:1049900014C0B13091F00E949528B1E008950C94B4
:1049A0009528672F782F8827B85F39F0B93FCCF367
:1049B000869577956795B395D9F73EF49095809550
:1049C000709561957F4F8F4F9F4F08950E94BA2732
:1049D00008F48FEF08950E94BA27880B990B089569
:1049E000CF93DF938230910510F482E090E0E09164
:1049F0000906F0910A0620E030E0C0E0D0E03097F0
:104A000011F14081518148175907C0F048175907E3
:104A100061F482819381209719F09B838A832BC054
:104A200090930A068093090626C02115310519F0D6
:104A30004217530718F49A01BE01DF01EF0102800B
:104A4000F381E02DDCCF2115310509F1281B390B4D
:104A50002430310590F412968D919C911397611535
:104A6000710521F0FB019383828304C090930A06B1
:104A700080930906FD01329644C0FD01E20FF31F49
:104A800081939193225031092D933C933AC0209108
:104A9000070630910806232B41F42091290130911B
:104AA0002A013093080620930706209127013091B0
:104AB00028012115310541F42DB73EB740912B0156
:104AC00050912C01241B350BE0910706F09108064C
:104AD000E217F307A0F42E1B3F0B2817390778F0D5
:104AE000AC014E5F5F4F2417350748F04E0F5F1F34
:104AF00050930806409307068193919302C0E0E02B
:104B0000F0E0CF01DF91CF9108950F931F93CF93E2
:104B1000DF93009709F48CC0FC0132971382128254
:104B20000091090610910A060115110581F42081F2
:104B30003181820F931F20910706309108062817B4
:104B4000390779F5F0930806E093070671C0D8019C
:104B500040E050E0AE17BF0750F412962D913C9103
:104B60001397AD012115310509F1D901F3CF9D014D
:104B7000DA013383228360817181860F971F821748
:104B8000930769F4EC0128813981260F371F2E5FC6
:104B90003F4F318320838A819B8193838283452B7E
:104BA00029F4F0930A06E093090642C01396FC9399
:104BB000EE931297ED01499159919E01240F351FF3
:104BC000E217F30771F480819181840F951F02969B
:104BD00011969C938E938281938113969C938E93CE
:104BE0001297E0E0F0E0D80112968D919C91139716
:104BF000009719F0F8018C01F6CF8D919C919801E6
:104C00002E5F3F4F820F931F2091070630910806B9
:104C10002817390769F4309729F410920A06109280
:104C2000090602C013821282109308060093070639
:104C3000DF91CF911F910F910895A0E0B0E0E3E2E2
:104C4000F6E20C94C128EC01009721F4CB010E94FC
:104C5000F024B8C0FC01E60FF71F9C012250310977
:104C6000E217F30708F4ACC0D9010D911C9111971C
:104C700006171707B0F00530110508F49FC0C801EA
:104C800004978617970708F499C002501109061B6C
:104C9000170B019311936D937C93CF010E9485258F
:104CA0008DC05B01A01AB10A4C01800E911EA0912B
:104CB0000906B0910A0640E050E0E12CF12C109773
:104CC00009F44AC0A815B905D1F56D907C901197EB
:104CD000630182E0C80ED11CCA14DB0480F1A30179
:104CE0004A195B096A0182E0C80ED11C1296BC9079
:104CF00012971396AC91B5E0CB16D10440F0B28276
:104D0000A38351834083D9016D937C930AC00E5FC6
:104D10001F4FC301800F911FF90191838083EB2DF9
:104D2000FA2FE114F10431F0D7011396FC93EE93BE
:104D3000129744C0F0930A06E09309063FC08D9194
:104D40009C9111974817590708F4AC017D01129600
:104D50000D90BC91A02DB3CF8091070690910806CD
:104D600088159905E1F446175707C8F48091270183
:104D700090912801009741F48DB79EB740912B0187
:104D800050912C01841B950BE817F907C8F4F09398
:104D90000806E0930706F901718360830FC0CB0119
:104DA0000E94F0247C01009759F0A801BE010E94E6
:104DB000EC26CE010E948525C70104C0CE0102C0A9
:104DC00080E090E0CDB7DEB7EEE00C94DD2881E026
:104DD00090E0F8940C940329FB01DC0102C00190DF
:104DE0000D9241505040D8F70895FB01DC0101902D
:104DF0000D920020E1F708951F93FC019927882761
:104E0000BC01E89411911032E9F3193010F01E3012
:104E1000C8F31B3251F01D3249F4689406C00E9459
:104E20003927610F711D811D911D119110531A3089
:104E3000B0F33EF490958095709561957F4F8F4FBC
:104E40009F4F1F9108954532510520F4423010F0D4
:104E50000C942E27FB011082CB010895BB274A300A
:104E600031F4992322F4BDE2909581959F4F0C94E3
:104E70004F27592F482F372F262F660F771F881F50
:104E8000991F660F771F881F991F620F731F841F5A
:104E9000951F660F771F881F991F0895BB27FB0179
:104EA0005527AA27880F991FAA1FA41710F0A41B23
:104EB00083955051B9F7A05DAA3308F0A95DA1937D
:104EC000009779F7B111B1931192CB010C94682737
:104ED000DC01FC01672F71917723E1F7329704C061
:104EE0007C916D9370836291AE17BF07C8F30895EC
:104EF0000E94BA2708F481E00895E89409C097FB5E
:104F00003EF490958095709561957F4F8F4F9F4FA0
:104F10009923A9F0F92F96E9BB279395F6958795E4
:104F200077956795B795F111F8CFFAF4BB0F11F4A7
:104F300060FF1BC06F5F7F4F8F4F9F4F16C088234E
:104F400011F096E911C0772321F09EE8872F762F84
:104F500005C0662371F096E8862F70E060E02AF0C5
:104F60009A95660F771F881FDAF7880F96958795B1
:104F700097F90895990F0008550FAA0BE0E8FEEF86
:104F800016161706E807F907C0F012161306E4070D
:104F9000F50798F0621B730B840B950B39F40A2606
:104FA00061F0232B242B252B21F408950A2609F4E4
:104FB000A140A6958FEF811D811D08950E94F127C4
:104FC0000C9462280E94542838F00E945B2820F03C
:104FD000952311F00C944B280C94512811240C9417
:104FE00096280E94732870F3959FC1F3950F50E0A7
:104FF000551F629FF001729FBB27F00DB11D639F8B
:10500000AA27F00DB11DAA1F649F6627B00DA11D30
:10501000661F829F2227B00DA11D621F739FB00DD6
:10502000A11D621F839FA00D611D221F749F332746
:10503000A00D611D231F849F600D211D822F762FDF
:105040006A2F11249F5750409AF0F1F088234AF0BC
:10505000EE0FFF1FBB1F661F771F881F9150504028
:10506000A9F79E3F510580F00C944B280C9496288C
:105070005F3FE4F3983ED4F3869577956795B795AF
:10508000F795E7959F5FC1F7FE2B880F911D9695C9
:10509000879597F9089597F99F6780E870E060E039
:1050A00008959FEF80EC089500240A9416161706C1
:1050B00018060906089500240A9412161306140609
:1050C00005060895092E0394000C11F4882352F06C
:1050D000BB0F40F4BF2B11F460FF04C06F5F7F4F24
:1050E0008F4F9F4F089557FD9058440F551F59F00B
:1050F0005F3F71F04795880F97FB991F61F09F3FC5
:1051000079F087950895121613061406551FF2CFED
:105110004695F1DF08C0161617061806991FF1CF3D
:1051200086957105610508940895E894BB27662764
:105130007727CB0197F90895F999FECF92BD81BDEC
:10514000F89A992780B50895262FF999FECF1FBAAE
:1051500092BD81BD20BD0FB6F894FA9AF99A0FBEA0
:10516000019608950E94F428A59F900DB49F900D7C
:10517000A49F800D911D112408952F923F924F926C
:105180005F926F927F928F929F92AF92BF92CF92D7
:10519000DF92EF92FF920F931F93CF93DF93CDB7E0
:1051A000DEB7CA1BDB0B0FB6F894DEBF0FBECDBF58
:1051B00009942A88398848885F846E847D848C8429
:1051C0009B84AA84B984C884DF80EE80FD800C8132
:1051D0001B81AA81B981CE0FD11D0FB6F894DEBF15
:1051E0000FBECDBFED010895A29FB001B39FC001D6
:1051F000A39F700D811D1124911DB29F700D811D03
:105200001124911D089510E0CEEAD0E004C0FE0103
:105210000E94EA232196CF3AD107C9F7F894FFCF2D
:105220002903060401FF0000000000000000000048
:10523000000000000000000000000000000000006E
:1052400000000018003F0000000B0680001F001C3B
:10525000001F001E001F001E001F001F001E001F59
:10526000001E001F00000006011501260137014A3B
:10527000015D01720188019F01B801D201EE010BAD
:10528000022A024B026E029302BA02E40210033FAA
:10529000037003A403DC03170455049704DD0427FB
:1052A000057505C80520067D06E0064907B8072DE7
:1052B00008A9082D09B9094D0AEA0A900B400CFA11
:1052C0000CC00D910E6F0F000000000100FFFF00E9
:1052D00000000000000100000000000000FFFF01CE
:1052E00000000000000000FFFF0000FEFFFDFFFBCC
:1052F000FFF7FFEFFFDFFFBFFF7FFFFFFEFFFD00B8
:105300000A0908060009000D000E00000000000058
:10531000000000000000000000000000000000008D
:105320000000000000000000000100010001000278
:105330000002000200030003000300030004000059
:10534000000000030C30030C30030C30C00C0400D0
:1053500007000A000E00000000000000000000002E
:10536000000000000000000000000000000000003D
:105370000000000017003B003B001F000C00630012
:1053800017003B003B000100180000000000000077
:105390000C000000000000000100010000000000FF
:1053A0000000000000000C001F1C1F1E1F1E1F1FFE
:1053B0001E1F1E1F00000000B0072C0779075707AB
:1053C0006B07F70700000000670137012F011B0181
:1053D0000C010B016C6564206C6F636B3D002E004B
:1053E0000D0A006E616E00696E66006F76660030B1
:1053F0003030303030003131313131310032323201
:1054000032323200333333333333003434343434D0
:1054100034003535353535350036363636363600D6
:105420003737373737370038383838383800393970
:1054300039393939005247423D6F6E005247423D7B
:105440006F66660073796E630050696E6B50616EB3
:10545000746865723A643D342C6F3D352C623D3181
:1054600036303A3864232C38652C32702C38662359
:105470002C38672C32702C3864232C38652C31364C
:10548000702C3866232C38672C3136702C386336F4
:105490002C38622C3136702C3864232C38652C3132
:1054A00036702C38622C3261232C32702C313661EC
:1054B0002C3136672C3136652C3136642C32650040
:0854C0003031303231300000C0
:00000001FF
