:100000003CC1000067C1000065C1000063C1000081
:1000100061C100005FC100005DC100005BC1000064
:1000200059C1000057C1000055C1000053C1000074
:1000300051C100000C9433204DC100004BC10000A1
:1000400049C100000C94D81F45C1000043C1000005
:1000500041C100000C947D1F3DC100000C944A2258
:1000600039C100000C94B2250C94062733C100005E
:1000700031C100002FC100002DC100002BC10000C4
:1000800029C1000027C1000025C1000023C10000D4
:100090000C94F2250C9445271DC100000C946B199B
:1000A00019C1000017C1000015C1000013C10000F4
:1000B00011C100000FC100000DC100000BC1000004
:1000C00009C1000007C1000005C100000C943226E0
:1000D0000C948427FFC000000C9472260C94C32754
:1000E000F9C0000057616B652075702C204E656F5C
:1000F0002100496E636F727265637420536F6E677F
:1001000020466F726D6174210053746F70205465C6
:100110007374005520696E7075743D00537461727C
:10012000742054657374004669726D77617265203E
:1001300076657273696F6E3A200076616C75653D05
:10014000006D656E75506F736974696F6E3D000266
:10015000010000002100240027002A002D003000AB
:10016000330001010000040107010A010000220020
:10017000250028002B002E00310034000201000071
:10018000050108010B0100002000230026002900C2
:100190002C002F00320000010000030106010901BC
:1001A00005050505070508080808020202020A0AF3
:1001B0000808040404040101010101010101030311
:1001C000030303030303040707070C0C0C0C0C0CBC
:1001D0000C0C0202020206060606060606060B0BB9
:1001E0000B0B0B0B0B0B01021020200808102040FA
:1001F00010204080020102010804020101020408EB
:100200001020408080402010080402018004020178
:1002100080402010080402010804020101020408C1
:100220001020408001020408102040800000090ACC
:1002300002080B0C0D07060304010000000000007B
:1002400000000000000000000000000000000000AE
:10025000000000000000000011100F00000000006E
:10026000000000000000000000000000000000008E
:100270000000DB0311183529D60311241FBECFEF70
:10028000D1E2DEBFCDBF00E00CBF14E0A0E0B2E0E1
:10029000EEEFF6E600E00BBF02C007900D92A63B22
:1002A000B107D9F71BBE19E0A6EBB4E001C01D925F
:1002B000A532B107E1F712E0C8E7D2E004C0229707
:1002C000FE010E946F33C237D107C9F70E946C2A22
:1002D0000C94733395CEEF92FF920F93DF93CF93ED
:1002E000CDB7DEB760970FB6F894DEBF0FBECDBFB7
:1002F000A82F002309F461C07E010894E11CF11CC1
:1003000088E0F70111928A95E9F729833A834B83B4
:100310005C836D837E83AF83988780E2801BE82FA8
:10032000FF27E7FDF0954D815E816F817885181676
:1003300084F01D861E861F86188A882799278E1BA3
:100340009F0B04C076956795579547958A95D2F788
:1003500028C0202F332727FD3095DB01CA01022E4C
:1003600004C0B695A795979587950A94D2F78D877F
:100370009E87AF87B88B04C0440F551F661F771F39
:10038000EA95D2F789819A81AB81BC8104C0B69588
:10039000A795979587952A95D2F7482B592B6A2BC5
:1003A0007B2B49875A876B877C8729853A854B85C4
:1003B0005C856D857E85AF8598898A2F60960FB69E
:1003C000F894DEBF0FBECDBFCF91DF910F91FF90AC
:1003D000EF900895EF92FF920F93DF93CF93CDB7F5
:1003E000DEB760970FB6F894DEBF0FBECDBFA82F63
:1003F000002309F461C07E010894E11CF11C88E02F
:10040000F70111928A95E9F729833A834B835C833C
:100410006D837E83AF83988780E2801BE82FFF2760
:10042000E7FDF09549815A816B817C81181684F033
:1004300019861A861B861C86882799278E1B9F0B78
:1004400004C0440F551F661F771F8A95D2F728C036
:10045000202F332727FD3095DB01CA01022E04C06F
:10046000880F991FAA1FBB1F0A94D2F789879A8702
:10047000AB87BC8704C07695679557954795EA95F5
:10048000D2F78D819E81AF81B88504C0880F991FF6
:10049000AA1FBB1F2A95D2F7482B592B6A2B7B2BFF
:1004A0004D875E876F87788B29853A854B855C857C
:1004B0006D857E85AF8598898A2F60960FB6F894F2
:1004C000DEBF0FBECDBFCF91DF910F91FF90EF90B8
:1004D00008951F93FC0199278827BC01E894119186
:1004E0001032E9F3193010F01E30C8F31B3249F016
:1004F0001D3241F4689405C042D0610F711D811D09
:10050000911D119110531A30B8F33EF490958095D7
:10051000709561957F4F8F4F9F4F1F910895FB01FD
:10052000DC0102C001900D9241505040D8F708956F
:10053000FB01DC0101900D920020E1F70895FB0121
:100540009F01E8944230C4F04532B4F44A3029F4B3
:1005500097FB1EF4909581959F4F642F77270E94FB
:100560005933805D8A330CF0895D8193CB0100970C
:10057000A1F716F45DE251931082C90115C0592FFD
:10058000482F372F262F660F771F881F991F660F5A
:10059000771F881F991F620F731F841F951F660F97
:1005A000771F881F991F0895DC01FC01672F719147
:1005B0007723E1F7329704C07C916D937083629149
:1005C000AE17BF07C8F30895482F6AE00E94FD32B6
:1005D000282F30E084E0220F331F8A95E1F7842F23
:1005E0000E94FD32892F820F0895CF93DF9301C0BF
:1005F000CF01FC0181918A33D9F7EF0180818436E4
:1006000089F532961092400510923F051BC08091EB
:100610003F05909140059C0153E0220F331F5A95EE
:10062000E1F7880F991F280F391F842F992787FD1D
:100630009095280F391F2053304030934005209368
:100640003F0531964081842F80538A3000F380919A
:100650003F05909140051816190614F48093630421
:10066000EF01219688818F36B9F4FE013196AF01F2
:100670004F5F5F4F8181992787FD90959C012053A3
:1006800030403093400520933F05C397059710F401
:1006900020936404EA0122968881823689F5CE018E
:1006A00002961092400510923F051BC080913F05B5
:1006B000909140059C01A3E0220F331FAA95E1F71A
:1006C000880F991F280F391F842F992787FD909530
:1006D000280F391F205330403093400520933F05A9
:1006E000CF01FC014191842F80538A30F8F2809130
:1006F0003F05909140059093660480936504EF0157
:100700002091650430916604442737FD4095542FAD
:1007100060E67AEE80E090E00E943E3362E0220FD5
:10072000331F441F551F6A95D1F72093410530931D
:1007300042054093430550934405CE01DF91CF918C
:1007400008958130910521F56F5F7F4F71F580E548
:1007500095E060E072E00E94C52D86EB94E067E0D2
:1007600072E00E94C52D8FED94E066E340E021E049
:100770000E949E1B88EF94E068E340E021E00E9425
:100780009E1B81E195E067E340E021E00C949E1B15
:10079000892B59F46F5F7F4F41F486EB94E00E9400
:1007A000A52E80E595E00C94A52E089580E090E0BC
:1007B0006FEF7FEFC6CF81E090E06FEF7FEFC1CFAB
:1007C0008091820390918303892B09F453C0809117
:1007D0004B058823A9F00E94922220914C0530916C
:1007E0004D0540914E0550914F05621B730B840BD4
:1007F000950B695E73408040904010F010924B055D
:1008000080914B058823B1F50E94EA1E20917C035C
:1008100030917D038217930769F50E94E21E2091B3
:100820007E0330917F038217930721F50E94DC1E1F
:10083000209180033091810382179307D9F40E949D
:10084000922260934C0570934D0580934E059093D2
:100850004F0581E080934B0589E998E064EE70E0F4
:100860000E94072B8091D9039091DA0390932D0574
:1008700080932C050895EF92FF920F931F93CF93CF
:10088000DF93EC018881882309F426C10E9492221B
:1008900020915605309157054091580550915905C2
:1008A000621B730B840B950B209145053091460517
:1008B00040914705509148052617370748075907C3
:1008C00008F00AC10E949222609356057093570562
:1008D00080935805909359051092400510923F055A
:1008E0001BC080913F05909140059C0113E0220FB1
:1008F000331F1A95E1F7880F991F280F391F842F8E
:10090000992787FD9095280F391F20533040309349
:10091000400520933F0521964881842F80538A30DB
:1009200000F3E0913F05F091400560914105709121
:1009300042058091430590914405309731F09F0125
:10094000442737FD4095542F05C02091630430E0C3
:1009500040E050E00E943E33209345053093460529
:100960004093470550934805109249058881843685
:1009700091F085363CF48236D1F0833654F48136DA
:10098000C1F413C0863669F086364CF0873689F498
:100990000AC081E001C083E0809349050CC085E076
:1009A000FBCF86E0F9CF88E0F7CF8AE0F5CF8CE087
:1009B000F3CF1092490521968881833231F48091DA
:1009C00049058F5F80934905219688818E32E9F42D
:1009D000E0904505F09046050091470510914805C7
:1009E000C801B70122E030E040E050E00E943E3311
:1009F000E20EF31E041F151FE0924505F092460516
:100A000000934705109348052196888180538A30CA
:100A100020F480934A05219604C080916404809359
:100A20004A0590914A0588818C3209F421962091DB
:100A30004905222309F450C0892F90E0FC01EE0FF4
:100A4000FF1FE80FF91FEE0FFF1FEE0FFF1FE20F52
:100A5000F11DEE0FFF1FE558FC4F60817181209161
:100A600045053091460540914705509148058AE279
:100A700095E00E94A0200E9492222091560530917C
:100A800057054091580550915905621B730B840B13
:100A9000950B2091450530914605409147055091B1
:100AA00048052617370748075907B0F40E949222D5
:100AB0006093560570935705809358059093590598
:100AC0008AE295E00E94842089E998E062EF70E074
:100AD0000E94072BC0E0D0E0CE01DF91CF911F91A3
:100AE0000F91FF90EF900895EF92FF920F931F9355
:100AF000DF93CF93CDB7DEB768970FB6F894DEBF1C
:100B00000FBECDBF082F7E010894E11CF11CC70168
:100B10006EE072E00E94C52D033059F48E01095F2A
:100B20001F4FC80166EB74E040E050E022E030E087
:100B30001BC00C3059F48E01035F1F4FC80166EBD8
:100B400074E042E050E024E030E00EC00033A9F44D
:100B50008E010D5E1F4F2091BA043091BB04C80175
:100B600066EB74E044E050E00E943B2EC701B80100
:100B70000E94802EC8010E94A52E8E010F5F1F4F7C
:100B8000C8010E94F62CF62EE72EC8010E94A52E61
:100B90008F2D9E2D68960FB6F894DEBF0FBECDBF89
:100BA000CF91DF911F910F91FF90EF900895809169
:100BB00069058823A1F489E695E00E947A2A892BA9
:100BC00071F00E9492226093720570937305809376
:100BD00074059093750589E695E00E94842A0E9429
:100BE00092222091720530917305409174055091C5
:100BF0007505621B730B840B950B695E7340804017
:100C00009040C0F00E949222609372057093730529
:100C100080937405909375058091710591E0892703
:100C200080937105882321F080EC8093BF040895A0
:100C30001092BF0408950F931F93082F8091D8043A
:100C4000882309F485C08091D904882309F480C0E1
:100C50001091BE0480915A058823A1F48AE595E09D
:100C60000E947A2A892B71F00E9492226093650576
:100C70007093660580936705909368058AE595E013
:100C80000E94842A0E949222209165053091660577
:100C90004091670550916805621B730B840B950B9F
:100CA0006D52714080409040E8F00E949222609323
:100CB000650570936605809367059093680580913C
:100CC000640591E0892780936405882329F01092B8
:100CD00063051092620506C08091BE048093620590
:100CE000109263052091BF0430E0809162059091DD
:100CF0006305809590952823392326FF03C088E05B
:100D000061E002C088E060E00E9450252091BF04AD
:100D1000809162059091630580959095282327FF27
:100D200003C08CE061E002C08CE060E00E945025CE
:100D300080916405882361F0812F90E002C0959531
:100D400087950A95E2F780FF03C02FEF3FEF02C0BF
:100D500020E030E0C9011F910F9108959F92AF925A
:100D6000BF92CF92DF92EF92FF920F931F93D82EF4
:100D7000F62E142F922E84ECA82E85E0B82EC501F5
:100D800068E670E00E94D717C5016091C0040E9418
:100D90005818812F19DC682FC5010E9458188F2D13
:100DA00013DC682FC5010E9458188D2D0DDC682FAB
:100DB000C5010E9458188C2D07DC682FC5010E94C0
:100DC0005818892D01DC682FC5010E945818802F02
:100DD000FBDB682FC5010E9458188E2DF5DB682FAC
:100DE000C5010E945818C5016091C0040E9458189E
:100DF000C5010E9499181F910F91FF90EF90DF900D
:100E0000CF90BF90AF909F900895FF920F931F9344
:100E100004EC15E0C80168E670E00E94D717C8012D
:100E20006091C0040E945818C8010E949918C80116
:100E300068E670E047E050E00E94A718C8010E94F1
:100E4000EA17282F22952F709AE0F92E2F9D9001F6
:100E500011248F70820F8093C5041092C604C801BC
:100E60000E94EA17282F22952F702F9D90011124A0
:100E70008F70820F8093C3041092C404C8010E9433
:100E8000EA17282F2F7322952F702F9D9001112480
:100E90008F70820F8093C1041092C204C8010E9417
:100EA000EA17282F22952F702F9D900111248F7003
:100EB000820F8093CD041092CE04C8010E94EA17DD
:100EC000282F22952F702F9D900111248F70820F53
:100ED0008093C7041092C804C8010E94EA17282F03
:100EE00022952F702F9D900111248F70820F809377
:100EF000C9041092CA04C8010E94EA17282F22953B
:100F00002F702F9D900111248F70820F8093CB043E
:100F10001092CC041F910F91FF9008958091D103FE
:100F2000882379F489E060E070E00E94BF2386E0C6
:100F300060E070E00E94BF2383E060E070E00C940A
:100F4000BF238091330590913405DC01AA0FBB1FAC
:100F5000A80FB91FFD01EE0FFF1FE35CFB4F60817F
:100F600071818091610490916204680F791F709380
:100F7000620460936104AA0FBB1FFD01E15CFB4F9B
:100F8000809137059091380520813181820F931F20
:100F90009093380580933705AF5BBB4F809139053F
:100FA00090913A052D913C91820F931F90933A05B1
:100FB0008093390589E00E94BF23609137057091C5
:100FC000380586E00E94BF236091390570913A058B
:100FD00083E00E94BF2380913505909136050196EC
:100FE00090933605809335058F3F910569F4809184
:100FF0003305909134050196909334058093330521
:101000001092360510923505809133059091340584
:10101000069724F0109234051092330508952F920C
:101020003F924F925F926F927F928F929F92AF9278
:10103000BF92CF92DF92EF92FF920F931F93DF93B5
:10104000CF93CDB7DEB7C558D0400FB6F894DEBF0A
:101050000FBECDBF89E998E067E271E00E94B22A35
:101060005E010894A11CB11CC50160E575E041E07A
:1010700050E022E030E00E943B2E97E0E92EF12C78
:10108000EC0EFD1EC701B5010E949D2EC70160E157
:1010900072E00E94782D6C018E01035F1F4FC80122
:1010A00060E575E042E050E024E030E00E943B2E35
:1010B000C601B8010E94922DBC0189E998E00E9406
:1010C000192BC8010E94A52EC7010E94A92EC50197
:1010D0000E94A52E89E998E06CE171E00E94072B3F
:1010E00089E30E948B23AA2797FDA095BA2FBC0104
:1010F000CD010E94C33120E030E040EA50E40E947C
:10110000773223E333E343E950E40E94773220E06F
:1011100030E040E85AE30E94773223E333E343E3CD
:101120005FE30E94C0305B016C0189E998E063E1F4
:1011300071E00E94B22A89E998E0B601A50122E097
:1011400030E00E94E32C8091D9039091DA039093D0
:101150002D0580932C0549DA89E06FEF70E00E943D
:10116000BF2368EE73E080E090E00E94C62289E031
:1011700060E070E00E94BF2386E06FEF70E00E94A5
:10118000BF2368EE73E080E090E00E94C62286E014
:1011900060E070E00E94BF2383E06FEF70E00E9488
:1011A000BF2368EE73E080E090E00E94C6228E01CB
:1011B000055D1F4FC80167E072E00E94C52DCE019A
:1011C000C19662E172E00E94C52DCE01C79669E129
:1011D00072E00E94C52DCE01CD9660E272E00E94C1
:1011E000C52DC801489667E272E00E94C52DC8016E
:1011F0004E966EE272E00E94C52DC801849665E3AA
:1012000072E00E94C52DC8018A966CE372E00E94CC
:10121000C52DC801C09663E472E00E94C52DC801C7
:10122000C6966AE472E00E94C52D8CE3882E912C4C
:10123000800E911EC40161E572E00E94C52DCE01B1
:1012400083599F4F61E572E00E94C52DC601B5012B
:1012500020E030E040E251E40E942431882374F41D
:10126000B9E1EB2EF12CEC0EFD1EC70162E572E038
:101270000E94DD2D8E010D5E1F4F0DC0A5E2EA2EEE
:10128000F12CEC0EFD1EC70166E572E00E94DD2D1B
:101290008E01015E1F4FC601B50120E030E048EC31
:1012A00052E40E9477320E9490319B01AC01C80148
:1012B000B9014AE00E940C2EC701B8010E94922D8C
:1012C000BC01C4010E94802EC8010E94A52EC70146
:1012D0000E94A92ECE0183599F4F60E575E00E94C0
:1012E000802E0E949222EA966CAF7DAF8EAF9FAFA8
:1012F000EA9785E061E00E94502524EF31E0EE9608
:101300003FAF2EAFEE973FEFEB963FAFEB97E696F2
:101310001FAEE69787E30E948225892B21F441E0E6
:10132000E6964FAFE69788E30E948225892B19F451
:10133000E6961FAEE69751E0EC965FAFEC97E59628
:101340001FAE1EAEE5970E949222EA962CAD3DADEF
:101350004EAD5FADEA97621B730B840B950BEE9657
:10136000EEADFFADEE979F01442737FD4095542F1A
:10137000261737074807590708F043C20E949222F0
:10138000EA966CAF7DAF8EAF9FAFEA97E696FFAD62
:10139000E697FF2339F4EB962FADEB972F5FEB9693
:1013A0002FAFEB97EB963FADEB973A3039F448EB24
:1013B0005BE0EE965FAF4EAFEE9708C0EB965FAD89
:1013C000EB975C3019F4EC961FAEEC97EB968FAD73
:1013D000EB9796E0899FB0011124EBE2F0E0EC0F6F
:1013E000FD1F6E0F7F1F86EB94E00E94802E86EB20
:1013F00094E00E94F62C6B017C012AE030E040E092
:1014000050E00E943E33DC01CB01880F991F8650CB
:101410009D4FFC0140815181E6E0440F551FEA9544
:10142000E1F79A0140E050E060E070E080E090E099
:1014300000E30E94EA01122FB32EA42E952E862ED1
:10144000772E682E592EC701B6012AE030E040E021
:1014500050E00E943E33022FF32EE42ED52E622F51
:10146000732F842F952F2AE030E040E050E00E9457
:101470003E33C22E432E342E252E622F732F842FFF
:10148000952F2AE030E040E050E00E943E33EF9696
:101490002FAFEF97C158DF4F3883CF57D040C05898
:1014A000DF4F4883C058D040CF57DF4F5883C158D3
:1014B000D040B901CA012AE030E040E050E00E948B
:1014C0003E33CE57DF4F2883C258D040CD57DF4F31
:1014D0003883C358D040CC57DF4F4883C458D040DE
:1014E000CB57DF4F5883C558D040602F7F2D8E2DAE
:1014F0009D2D2AE030E040E050E00E943E33DC01C8
:10150000CB01880F991F86509D4FFC01408151816E
:1015100066E0440F551F6A95E1F79A0140E050E0FC
:1015200060E070E080E090E006E20E94EA01122BA9
:10153000B32AA42A952A862A772A682A592A6C2D42
:10154000742D832D922D2AE030E040E050E00E947F
:101550003E33DC01CB01880F991F86509D4FFC0163
:101560004081518136E0440F551F3A95E1F79A01C9
:1015700040E050E060E070E080E090E00CE10E942C
:10158000EA01122BB32AA42A952A862A772A682AE6
:10159000592AEF966FADEF97C158DF4F7881CF573B
:1015A000D040C058DF4F8881C058D040CF57DF4F60
:1015B0009881C158D0402AE030E040E050E00E94DD
:1015C0003E33DC01CB01880F991F86509D4FFC01F3
:1015D0004081518106E0440F551F0A95E1F79A01B9
:1015E00040E050E060E070E080E090E002E10E94C6
:1015F000EA01122BB32AA42A952A862A772A682A76
:10160000592ACE57DF4F6881C258D040CD57DF4F9F
:101610007881C358D040CC57DF4F8881C458D04020
:10162000CB57DF4F9881C558D0402AE030E040E0EA
:1016300050E00E943E33DC01CB01880F991F865099
:101640009D4FFC0140815181A6E0440F551FAA9592
:10165000E1F79A0140E050E060E070E080E090E067
:1016600008E00E94EA01122BB32AA42A952A862AAE
:10167000772A682A592ACE57DF4F6881C258D0404E
:10168000CD57DF4F7881C358D040CC57DF4F88818A
:10169000C458D040CB57DF4F9881C558D0402AE07E
:1016A00030E040E050E00E943E33CA01B9012AE038
:1016B00030E040E050E00E943E33DC01CB01880F77
:1016C000991F86509D4FFC0120813181E6E0220F59
:1016D000331FEA95E1F73695279536952795122B16
:1016E000B32A212F3B2D4A2D592D682D772D862D7C
:1016F000952D04E00E946B01922E132FF42EE52EFF
:10170000D62EC72EB82EA92E87E061E00E94502564
:10171000292D312F4F2D5E2D6D2D7C2D8B2D9A2D4A
:1017200008E30E946B012EBD0DB407FEFDCF8EB500
:10173000292D312F4F2D5E2D6D2D7C2D8B2D9A2D2A
:1017400000E30E946B012EBD0DB407FEFDCF8EB5E8
:10175000292D312F4F2D5E2D6D2D7C2D8B2D9A2D0A
:1017600008E20E946B012EBD0DB407FEFDCF8EB5C1
:10177000292D312F4F2D5E2D6D2D7C2D8B2D9A2DEA
:1017800000E20E946B012EBD0DB407FEFDCF8EB5A9
:10179000292D312F4F2D5E2D6D2D7C2D8B2D9A2DCA
:1017A00008E10E946B012EBD0DB407FEFDCF8EB582
:1017B000292D312F4F2D5E2D6D2D7C2D8B2D9A2DAA
:1017C00000E10E946B012EBD0DB407FEFDCF8EB56A
:1017D000292D312F4F2D5E2D6D2D7C2D8B2D9A2D8A
:1017E00008E00E946B012EBD0DB407FEFDCF8EB543
:1017F0009EBC0DB407FEFDCF8EB587E060E00E9471
:101800005025E5962EAD3FADE5972F5F3F4FE5960E
:101810003FAF2EAFE5972C30310509F094CD80ED28
:1018200097E00E941F23EC963FADEC97332309F01D
:1018300071CD89E998E069E071E00E94072B8E0183
:1018400003591F4F65E2E62EF12CEC0EFD1EC80178
:101850000E94A52E065010400E151F05C1F7CB574C
:10186000DF4F0FB6F894DEBF0FBECDBFCF91DF9133
:101870001F910F91FF90EF90DF90CF90BF90AF90AE
:101880009F908F907F906F905F904F903F902F90A0
:1018900008958F929F92AF92BF92CF92DF92EF9274
:1018A000FF920F931F93DF93CF93CDB7DEB762976D
:1018B0000FB6F894DEBF0FBECDBF982E892E5B0108
:1018C0006A3071056CF56E010894C11CD11CC6010B
:1018D00069E572E00E94C52D2DE0E22EF12CEC0EA0
:1018E000FD1EC701B6010E949D2E8E01095F1F4F8C
:1018F000C801B5014AE00E940C2EC701B8010E9440
:10190000922DBC01892D982D0E94952EC8010E9410
:10191000A52EC7010E94A92EC6010E94A52E04C0B3
:10192000892D4AE00E940C2E892D982D62960FB6C3
:10193000F894DEBF0FBECDBFCF91DF911F910F9105
:10194000FF90EF90DF90CF90BF90AF909F908F90DF
:1019500008958F929F92AF92BF92CF92DF92EF92B3
:10196000FF920F931F93DF93CF93CDB7DEB7EC9722
:101970000FB6F894DEBF0FBECDBF5B018330F1F42C
:101980006E010894C11CD11CC60183DFEDE0EE2E70
:10199000F12CEC0EFD1EC701B6010E949D2E8E019A
:1019A000095F1F4F2091BA043091BB04C80166EB58
:1019B00074E042E050E00E943B2E68C08C3009F099
:1019C00046C073E1872E912C8C0E9D1EC40166EBE0
:1019D00074E040E050E022E030E00E943B2E6FE1F6
:1019E000C62ED12CCC0EDD1EC601B4010E949D2E48
:1019F00059E1E52EF12CEC0EFD1EC701B50149DFC2
:101A0000C601B7010E94922D5C018E010B5D1F4F34
:101A10002091BA043091BB04C80166EB74E044E045
:101A200050E00E943B2EC501B8010E94922DBC01DE
:101A300086EB94E00E94802EC8010E94A52EC7016B
:101A40000E94A52EC6010E94A92EC4012FC080337A
:101A500079F54BE2C42ED12CCC0EDD1EC60166EB0F
:101A600074E040E050E024E030E00E943B2E37E399
:101A7000E32EF12CEC0EFD1EC701B6010E949D2E37
:101A80008E010F5C1F4FC801B50103DFC701B8010C
:101A90000E94922DBC0186EB94E00E94802EC8012A
:101AA0000E94A52EC7010E94A92EC6010E94A52E44
:101AB000EC960FB6F894DEBF0FBECDBFCF91DF918D
:101AC0001F910F91FF90EF90DF90CF90BF90AF905C
:101AD0009F908F900895CF93DF930E9492226093FE
:101AE000DA047093DB048093DC049093DD0480912E
:101AF000CF04882309F44CC0C091BC04D091BD042C
:101B0000CE30D10559F0FE01EE0FFF1FE859FC4F12
:101B10008081918101979183808309C080918403A2
:101B2000909185030C979093850380938403DE0145
:101B3000AA0FBB1FAD0148595C4FCD018C559C4F7E
:101B4000FA0120813181FC018081918128173907B8
:101B50003CF4AA57BC4F8D919C91FA0191838083EC
:101B6000CD30D10561F48091820390918303019778
:101B700021F480E88093BF0402C01092BF04CC0F10
:101B8000DD1FC859DC4F688179818091BE04E1DE98
:101B9000DF91CF910895CF93DF930E9492226093BB
:101BA000DA047093DB048093DC049093DD0480916D
:101BB000CF04882309F442C0C091BC04D091BD0475
:101BC000CE30D10559F0FE01EE0FFF1FE859FC4F52
:101BD0008081918101969183808309C080918403E3
:101BE000909185030C969093850380938403DE0186
:101BF000AA0FBB1FAD0148595C4FCD018A579C4FBE
:101C0000FA0120813181FC01808191818217930743
:101C10003CF4AC55BC4F8D919C91FA01918380832B
:101C2000CD30D10511F41092BF04CC0FDD1FC8597F
:101C3000DC4F688179818091BE048BDEDF91CF918A
:101C400008956F927F928F929F92AF92BF92CF92A0
:101C5000DF92EF92FF920F931F93DF93CF93CDB755
:101C6000DEB7E0970FB6F894DEBF0FBECDBF782E7B
:101C7000692E0E949222209176053091770540913D
:101C8000780550917905621B730B840B950B695E87
:101C900073408040904008F478C00E949222609384
:101CA00076057093770580937805909379058091F8
:101CB000840390918503489741F50E94EA1EBC0178
:101CC0004E010894811C911CC401E3DDADE0AA2EF5
:101CD000B12CAC0EBD1EC501B4010E949D2E0E9408
:101CE000E21EBC01F7E0EF2EF12CEC0EFD1EC70149
:101CF000D0DDC501B7010E94922D6C010E94DC1E4F
:101D0000BC018E010D5E1F4F28C00E94E81EBC0161
:101D1000E9E18E2E912C8C0E9D1EC401BADD65E288
:101D2000A62EB12CAC0EBD1EC501B4010E949D2E85
:101D30000E94E21EBC015FE1E52EF12CEC0EFD1EBF
:101D4000C701A7DDC501B7010E94922D6C010E9459
:101D5000DC1EBC018E01055D1F4FC8019ADDC60166
:101D6000B8010E94922DBC01872D962D0E94952EC0
:101D7000C8010E94A52EC7010E94A52EC5010E9480
:101D8000A92EC4010E94A52E06C0872D962D66EBB4
:101D900074E00E94952E872D962DE0960FB6F8944C
:101DA000DEBF0FBECDBFCF91DF911F910F91FF908E
:101DB000EF90DF90CF90BF90AF909F908F907F90EB
:101DC0006F9008952F923F924F925F926F927F9201
:101DD0008F929F92AF92BF92CF92DF92EF92FF923B
:101DE0000F931F93DF93CF93CDB7DEB72E970FB628
:101DF000F894DEBF0FBECDBF0E94A02220917A05CD
:101E000030917B0540917C0550917D05621B730BE1
:101E1000840B950B6A5171448040904008F41FC2B6
:101E20000E94A02260937A0570937B0580937C05C5
:101E300090937D0587E060E00E94502586EB94E05A
:101E40000E94F62C3B014C012AE030E040E050E0DB
:101E50000E943E33DC01CB01880F991F86509D4FB5
:101E6000FC01A080B18085E090E00E941B06A82ABA
:101E7000B92AA6E0AA0CBB1CAA95E1F7950140E09F
:101E800050E060E070E080E090E000E30E94EA0152
:101E9000522E432E342E252E69877A878B879C8776
:101EA000C401B3012AE030E040E050E00E943E333C
:101EB000122F032FF42EE52E622F732F842F952FD0
:101EC0002AE030E040E050E00E943E33DC01CB01EC
:101ED000880F991F86509D4FFC010190F081E02DE5
:101EE000FE87ED8784E090E00E941B063C01612F95
:101EF000702F8F2D9E2D2AE030E040E050E00E94B0
:101F00003E33122F032FF42EE52E622F732F842FD2
:101F1000952F2AE030E040E050E00E943E33DC01A3
:101F2000CB01880F991F86509D4FFC01C080D18046
:101F300083E090E00E941B0698878F83612F702FAB
:101F40008F2D9E2D2AE030E040E050E00E943E338D
:101F5000122F032FF42EE52E622F732F842F952F2F
:101F60002AE030E040E050E00E943E33DC01CB014B
:101F7000880F991F86509D4FFC01A080B18082E0A0
:101F800090E00E941B069E838D83612F702F8F2D02
:101F90009E2D2AE030E040E050E00E943E33122FB8
:101FA000032FF42EE52E622F732F842F952F2AE016
:101FB00030E040E050E00E943E33DC01CB01880F6E
:101FC000991F86509D4FFC010190F081E02DFA830E
:101FD000E98381E090E00E941B069C838B83612F44
:101FE000702F8F2D9E2D2AE030E040E050E00E94BF
:101FF0003E33CA01B9012AE030E040E050E00E94DF
:102000003E33DC01CB01880F991F86509D4FFC01A8
:102010008080918080E090E00E941B067C012D85ED
:102020003E852629372946E0220F331F4A95E1F7DE
:1020300040E050E060E070E080E090E006E20E9466
:10204000EA01522A432A342A252A3985362B398730
:10205000EA85E72BEA87FB85F82BFB872C85292B64
:102060002C878F819885C82AD92A96E0CC0CDD1C54
:102070009A95E1F7960140E050E060E070E080E082
:1020800090E00CE10E94EA01522A432A342A252AD0
:10209000E985E62BE987FA85F72BFA872B85282B2C
:1020A0002B873C85392B3C878D819E81A82AB92AB4
:1020B00086E0AA0CBB1C8A95E1F7950140E050E050
:1020C00060E070E080E090E002E10E94EA01522AC4
:1020D000432A342A252AE985E62BE987FA85F72B56
:1020E000FA872B85282B2B873C85392B3C878981C8
:1020F0009A81EB81FC818E2B9F2B06E0880F991F24
:102100000A95E1F79A8389839C0140E050E060E002
:1021100070E080E090E008E00E94EA01522A432A41
:10212000342A252AF985F62BF9872A85272B2A8731
:102130008E289F2816E0880C991C1A95E1F7969432
:1021400087949694879458284928252D342D432D1B
:10215000522D6F2F7A85EB858E2BFC859F2B04E00B
:102160000E946B01422E132FF42EE52EA62E872EF1
:10217000682E592E08E30E946B012EBD0DB407FE98
:10218000FDCF8EB5242D312F4F2D5E2D6A2D782D4C
:10219000862D952D00E30E946B012EBD0DB407FE28
:1021A000FDCF8EB5242D312F4F2D5E2D6A2D782D2C
:1021B000862D952D08E20E946B012EBD0DB407FE01
:1021C000FDCF8EB5242D312F4F2D5E2D6A2D782D0C
:1021D000862D952D00E20E946B012EBD0DB407FEE9
:1021E000FDCF8EB5242D312F4F2D5E2D6A2D782DEC
:1021F000862D952D08E10E946B012EBD0DB407FEC2
:10220000FDCF8EB5242D312F4F2D5E2D6A2D782DCB
:10221000862D952D00E10E946B012EBD0DB407FEA9
:10222000FDCF8EB5242D312F4F2D5E2D6A2D782DAB
:10223000862D952D08E00E946B012EBD0DB407FE82
:10224000FDCF8EB54EBC0DB407FEFDCF8EB587E039
:1022500061E00E94502587E060E00E9450252E96A4
:102260000FB6F894DEBF0FBECDBFCF91DF911F91A7
:102270000F91FF90EF90DF90CF90BF90AF909F9025
:102280008F907F906F905F904F903F902F90089528
:102290006F927F928F929F92AF92BF92CF92DF9276
:1022A000EF92FF920F931F93DF93CF93CDB7DEB7DB
:1022B000C257D0400FB6F894DEBF0FBECDBF80919D
:1022C0002C0590912D050E943B0490932D05809341
:1022D0002C050E94922220913B0530913C054091B3
:1022E0003D0550913E05621B730B840B950B6630C8
:1022F00071058105910580F080913205882311F4E4
:102300000E948E070E94922260933B0570933C05C9
:1023100080933D0590933E0555DD8FED94E00E943E
:102320001E1B88EF94E00E941E1B81E195E00E9435
:102330001E1B8091CF04882319F41092BE0429C07B
:102340000E9492222091DA043091DB044091DC0457
:102350005091DD04621B730B840B950B61567A4E12
:1023600080409040B0F01092CF04E091BC04F09116
:10237000BD04EE0FFF1FE45DFC4F0190F081E02DE6
:10238000F093BD04E093BC04EE53FC4F8081809336
:10239000BE048091DF049091E004181619060CF039
:1023A0005CC110922D0510922C058AE295E068EE32
:1023B00073E024E630E040E050E00E94A0200E945C
:1023C00092226093DA047093DB048093DC04909390
:1023D000DD048091BC049091BD0401969093BD04EE
:1023E0008093BC04049721F41092BD041092BC04A5
:1023F00089E998E061E471E00E94B22A6091BC042E
:102400007091BD0489E998E04AE050E00E94F32B06
:1024100089E998E06AE371E00E94B22AE091BC0485
:10242000F091BD04EE0FFF1FE859FC4F60817181F0
:1024300089E998E04AE050E00E94F32B2091BC0427
:102440003091BD04F901EE53FC4F80818093BE04AE
:10245000D9011197FD01EE0FFF1FE25FFC4F2081B4
:1024600031812115310509F4E9C0F901EE0FFF1F93
:10247000E85BFC4F808191818A179B0709F0DEC0E1
:102480002230310509F089C39E01255A3F4F42E7AA
:1024900054E088E1FA010190AF01F90101929F0136
:1024A0008150C1F780917A0390917B038370907083
:1024B000892B39F48DE190E0FE01E55AFF4F9383BB
:1024C0008283FE01E55AFF4F809178039091790352
:1024D0000197880F991FE80FF91F2091760330911B
:1024E000770380819181821793070CF056C387E0B0
:1024F00090E09093BD048093BC0460C3A0907003EF
:10250000B090710380907203909073036090740395
:10251000709075030E94D61E6C010E94D01E8C0123
:102520000E94CE1E7C01C501B401A30196010E9448
:10253000221E8091BC049091BD040197E1F40E9499
:10254000EA1E6C010E94E21E7C010E94DC1EAC01AE
:1025500020917603309177030091780310917903ED
:10256000E0917A03F0917B03E053F84FC601B70185
:102570007F010E94221E8091BC049091BD040297AD
:1025800041F56091D3038FE696E070E040917C03C3
:102590000E943E226091D30370E06F5F7F4F8FE611
:1025A00096E040917E030E943E226091D30370E04A
:1025B0006E5F7F4F8FE696E0409180030E943E223F
:1025C0006091D4038FE696E070E0409182030E9410
:1025D0003E228091BC049091BD04039749F4609120
:1025E000D2038FE696E070E0409184030E943E2281
:1025F00085E060E00E9450250E94EA1EC82E0E94DD
:10260000E21ED82E0E94DC1EF82E0E94D61E182F25
:102610000E94D01E082F0E94CE1E68EE73E00E941A
:102620000933E82E8C2D6D2D4F2D212FCC24C394F2
:102630000E94AE0685E061E00E9450250091BC0436
:102640001091BD048091BE040E947405000F111FFB
:1026500008591C4FF801918380838091DF04909189
:10266000E00497FF8DC08AE295E068EE73E024E60F
:1026700030E040E050E00E94A0208091CF04882309
:1026800009F04FC00E9492226093DA047093DB0439
:102690008093DC049093DD048091BC049091BD0490
:1026A000892B09F03EC00E94EA1EBC014E0108942D
:1026B000811C911CC401EDD8FDE0AF2EB12CAC0EF5
:1026C000BD1EC501B4010E949D2E0E94E21EBC01E8
:1026D000E7E0EE2EF12CEC0EFD1EC701DAD8C501A5
:1026E000B7010E94922D6C010E94DC1EBC018E017C
:1026F0000D5E1F4FC801CDD8C601B8010E94922DB2
:10270000BC0186EB94E00E94802EC8010E94A52E99
:10271000C7010E94A52EC5010E94A92EC4010E94D6
:10272000A52EE091BC04F091BD04EE0FFF1FE45D07
:10273000FC4F008111811093BD040093BC040A304A
:10274000110549F481E090E0909383038093820324
:1027500080E88093BF048091CF0491E08927809323
:10276000CF04F801EE53FC4F80818093BE040E9499
:102770007405000F111F08591C4FF80191838083C5
:102780008091F8049091F904009721F0909331051D
:10279000809330058091F8049091F9041816190679
:1027A000ECF410922D0510922C058AE295E068EE6B
:1027B00073E024E630E040E050E00E94A020EBD936
:1027C0008091CF04882351F4109232056091D50393
:1027D0008FE696E070E040E00E943E228091300556
:1027E000909131058F5F9F4F49F58091FA048130B8
:1027F00029F51092D8048091CF04882311F10E940A
:1028000092222091D4043091D5044091D604509165
:10281000D704621B730B840B950B67397105810517
:10282000910578F00E9492226093D4047093D504AD
:102830008093D6049093D704AED903C081E08093EF
:10284000D8048091110590911205009721F0909382
:102850002F0580932E058091110590911205181671
:102860001906CCF510922D0510922C058AE295E000
:1028700068EE73E024E630E040E050E00E94A020E3
:102880002AD98091CF04882331F581E080933205E5
:102890006091D5038FE696E070E041E00E943E2211
:1028A0006091D6038FE696E070E0409161040E944B
:1028B0003E226091D7038FE696E070E040913705A5
:1028C0000E943E226091D8038FE696E070E040912E
:1028D00039050E943E2280912E0590912F058F5F31
:1028E0009F4F49F580911305813029F51092D90445
:1028F0008091CF04882311F10E9492222091D0046C
:102900003091D1044091D2045091D304621B730BD7
:10291000840B950B673971058105910578F00E944C
:1029200092226093D0047093D1048093D204909348
:10293000D304D1D803C081E08093D9048091CF041F
:10294000882309F041C08091F8049091F90497FF21
:102950001BC08AE295E068EE73E024E630E040E0D8
:1029600050E00E94A02081E08093D1036091DE04BA
:102970008FE696E070E041E00E943E2289E998E00F
:102980006BE572E00E94E52C809111059091120593
:1029900097FF1AC08AE295E068EE73E024E630E023
:1029A00040E050E00E94A0201092D1036091DE042C
:1029B0008FE696E070E040E00E943E2289E998E0D0
:1029C00062E672E00E94E52C8091BC049091BD0407
:1029D00081309105F1F0823091051CF4892B49F08A
:1029E000EDC08230910509F45CC0039709F0E6C0A0
:1029F000A7C08E01075E1F4FC80123D986EB94E064
:102A0000B8010E94802EC8010E94A52E0E94D70501
:102A1000C1C00E94D61EBC015FE1852E912C8C0E98
:102A20009D1EC4010E94490C4BE2C42ED12CCC0E39
:102A3000DD1EC601B4010E949D2E0E94D01EBC0165
:102A400035E2E32EF12CEC0EFD1EC7010E94490C6D
:102A5000C601B7010E94922D5C010E94CE1E8E011C
:102A60000F5C1F4F68EE73E00E940933BC01C80180
:102A70000E94490CC501B8010E94922DBC0186EB51
:102A800094E00E94802EC8010E94A52EC7010E94DA
:102A9000A52EC6010E94A92EC4010E94A52E80E485
:102AA0004CC027E3822E912C8C0E9D1E60917C03DE
:102AB00070917D03C4010E94490C93E4A92EB12CAE
:102AC000AC0EBD1EC501B4010E949D2E8DE3E82E03
:102AD000F12CEC0EFD1E60917E0370917F03C70107
:102AE0000E94490CC501B7010E94922D6C018E0114
:102AF000075B1F4F6091800370918103C8010E94A2
:102B0000490CC601B8010E94922DBC0186EB94E0ED
:102B10000E94802EC8010E94A52EC7010E94A52EEA
:102B2000C5010E94A92EC4010E94A52E8091820396
:102B300090918303019761F580E88093BF042AC0D8
:102B400005E5E02EF12CEC0EFD1EC70166E572E0F6
:102B50000E94DD2D8E01015B1F4F609184037091F7
:102B60008503C8014AE00E940C2EC701B8010E94EB
:102B7000922D66E572E00E94782DBC0186EB94E010
:102B80000E94802EC8010E94A52EC7010E94A92E76
:102B90001092BF040E94E00311C01092CF04AA0F4C
:102BA000BB1FA25FBC4F8D919C9101979093BD0478
:102BB0008093BC04892B09F0BCCCA0CCCE58DF4F4D
:102BC0000FB6F894DEBF0FBECDBFCF91DF911F913E
:102BD0000F91FF90EF90DF90CF90BF90AF909F90BC
:102BE0008F907F906F900895CF92EF92FF920F9306
:102BF0001F9385E060E00E94502584EC95E0A9D207
:102C000089E998E040E052EC61E070E00E9402281F
:102C10006091D2038FE696E070E00E9437228C30FC
:102C200019F088E190E002C08CE090E09093850379
:102C3000809384036091DE048FE696E070E00E944A
:102C40003722882321F081E08093D10302C01092C3
:102C5000D1036091D3038FE696E070E00E943722A3
:102C60008F3F29F410927D0310927C030BC060917A
:102C7000D3038FE696E070E00E94372280937C03B6
:102C800010927D036091D30370E06F5F7F4F8FE6FA
:102C900096E00E9437228F3F29F410927F03109212
:102CA0007E030DC06091D30370E06F5F7F4F8FE6AE
:102CB00096E00E94372280937E0310927F036091FA
:102CC000D30370E06E5F7F4F8FE696E00E9437225D
:102CD0008F3F29F410928103109280030DC0609100
:102CE000D30370E06E5F7F4F8FE696E00E9437223D
:102CF00080938003109281036091D4038FE696E065
:102D000070E00E9437228F3F29F4109283031092C3
:102D100082030BC06091D4038FE696E070E00E94BE
:102D2000372280938203109283036091D5038FE64C
:102D300096E070E00E9437228F3F19F4109232051E
:102D40000EC06091D5038FE696E070E00E943722B6
:102D500010923205882319F081E08093320589E9C9
:102D600098E06AE672E00E94102C6091320589E9D1
:102D700098E070E04AE050E00E94F32B89E061E0C7
:102D80000E949D2486E061E00E949D2483E061E032
:102D90000E949D248AE295E062E00E94F01E8091EC
:102DA000D9039091DA030E94F5029093DA0380939D
:102DB000D90387E061E00E949D2485E061E00E94E4
:102DC0009D24DFD08CE0C7D083E0CAD086E362E0E8
:102DD0000E949D2488E362E00E949D2487E362E0D4
:102DE0000E949D2482E061E00E949D2434E1E32E54
:102DF000F12C012D112DE092E204F092E3040093F6
:102E0000E4041093E5042EE130E040E050E020932C
:102E1000E6043093E7044093E8045093E90480ED1E
:102E200097E0A0E0B0E08093EA049093EB04A093D5
:102E3000EC04B093ED04E092FB04F092FC040093E8
:102E4000FD041093FE042093FF043093000540938B
:102E50000105509302058093030590930405A09308
:102E60000505B0930605E0921405F0921505009350
:102E700016051093170520931805309319054093F4
:102E80001A0550931B0580931C0590931D05A09374
:102E90001E05B0931F050E940F08809132058823FC
:102EA00009F16091D6038FE696E070E00E94372228
:102EB000682F89E00E9450256091D7038FE696E045
:102EC00070E00E943722682F86E00E9450256091B2
:102ED000D8038FE696E070E00E943722682F83E0E7
:102EE0000E9450250E9405076091C3047091C4049C
:102EF0004091C5045091C6042091C7043091C80484
:102F00000091C9041091CA04E090CB04F090CC0465
:102F10008091C1049091C20495D685E060E00E9442
:102F200050258091C1046091C3044091C504209153
:102F3000C7040091C904E090CB04CC24C3940E9440
:102F4000AE0685E061E00E9450251F910F91FF9031
:102F5000EF90CF9008959CB5937F982B9CBD0895DA
:102F60002CB5382F33702C7F322B3CBD2DB590E023
:102F7000959587959595879581702E7F822B8DBD30
:102F8000089585E361E00E94502585E361E00E9499
:102F90009D248CB580618CBD8CB580648CBD84E330
:102FA00061E00E949D2483E361E00C949D2481E014
:102FB0008093C3056093A0051092C1051092C205CD
:102FC000089520919F0530E080919E05281B3109CE
:102FD000C901089540919E0580919F05481718F0FA
:102FE0002FEF3FEF0AC0E42FF0E0E258FA4F808164
:102FF000282F30E04F5F40939E05C9010895E0916E
:103000009E0580919F05E81718F0EFEFFFEF06C0CF
:10301000F0E0E258FA4F8081E82FF0E0CF01089508
:1030200008951092C7051092C60588EE93E0A0E0BF
:10303000B0E08093C8059093C905A093CA05B093EA
:10304000CB058EE894E09093C5058093C405089560
:10305000CF92DF92EF92FF920F931F93CF93DF9364
:103060007C016B018A018091C3058823A1F0C0E037
:10307000D0E00DC0D701ED91FC91D601AC0FBD1F82
:103080000190F081E02DC7016C9119952196C01730
:10309000D10780F303C0CB01642F02D1C801DF91B7
:1030A000CF911F910F91FF90EF90DF90CF900895F7
:1030B000DF93CF930F92CDB7DEB7FC016983809188
:1030C000C3058823C9F08091C205803238F081E0C1
:1030D00090E09383828320E030E014C08091C105AA
:1030E000E82FF0E0EF55FA4F998190838F5F80933E
:1030F000C1058093C20504C0CE01019661E0D0D025
:1031000021E030E0C9010F90CF91DF9108950F9336
:10311000062F8091A00561EA75E04091C20521E08B
:103120006AD01092C1051092C2051092C3050F918A
:10313000089561E0ECCF413208F040E2862F6EE75F
:1031400075E010D010929E0580939F05089521E0B0
:10315000F2CF10929E0510929F051092C105109219
:10316000C2054EC2382F413210F040E042C080917B
:10317000D0058823E1F791E09093D0052093D20504
:103180008FEF80933D061092F80541504093F9056A
:103190004F5F9093D1058091D105330F832B80939E
:1031A000D1058091D305813041F41092D3058091EF
:1031B000D1058093BB0085EC01C085EE8093BC00F7
:1031C0008091D0058130E1F38091F805841710F4E7
:1031D0004091F80520E030E00AC0FB01E20FF31F48
:1031E000D901A852BA4F8C9180832F5F3F4F24178B
:1031F000A0F3842F08950F931F93582F122F41325D
:1032000010F081E04AC08091D0058823E1F782E088
:103210008093D0050093D2058FEF80933D061092E6
:10322000F8054093F905A8EDB5E0FB0102C08191D6
:103230008D938E2F861B8417D0F31092D105809129
:10324000D105550F852B8093D1058091D305813011
:1032500041F41092D3058091D1058093BB0085EC99
:1032600001C085EE8093BC00112321F08091D00530
:103270008230E1F380913D068F3F11F480E00DC074
:1032800080913D06803211F482E007C080913D06B6
:10329000803311F084E001C083E01F910F91089505
:1032A000482F613210F081E008958091D00584307C
:1032B00011F082E0089560931B06AAEFB5E0842F19
:1032C0009C01F90102C081918D938E2F841B86177A
:1032D000D0F380E008951F920F920FB60F920BB6B5
:1032E0000F9211242F933F934F935F936F937F938C
:1032F0008F939F93AF93BF93EF93FF938091B90008
:1033000090E0887F90708036910509F4F2C0813694
:103310009105CCF58832910509F47BC0893291057D
:10332000B4F48031910509F46FC0813191053CF40A
:10333000009709F447C1089709F04FC165C088316B
:10334000910509F466C0809709F047C182C08034B6
:10335000910509F4A4C08134910544F480339105AA
:1033600009F482C0C89709F038C189C08035910539
:1033700009F489C08835910509F496C0883491050F
:1033800009F02BC1AEC08839910509F413C1893900
:103390009105ECF48837910509F4ABC089379105A4
:1033A0004CF48836910509F4A4C08037910509F0E2
:1033B00014C19FC08838910509F4FCC0803991057B
:1033C00009F49DC08038910509F007C198C0803B81
:1033D000910509F4C6C0813B91054CF4803A9105F2
:1033E00009F49FC0883A910509F0F7C0BAC0803C43
:1033F000910509F4E3C0883C910509F4DFC0883BDE
:10340000910509F0EAC0C2C08091D1058093BB004C
:10341000CFC09091F8058091F905981768F49091C4
:10342000F805E92FF0E0E852FA4F80818093BB0065
:103430009F5F9093F805BCC08091D205882309F462
:103440004BC085ED8093BC008091BC0084FDFCCF17
:10345000C2C080E280933D0685ED8093BC008091E0
:10346000BC0084FDFCCFB7C080E380933D0685EDB2
:103470008093BC008091BC0084FDFCCFACC088E38D
:1034800080933D069BC08091F8059091BB00E82F8A
:10349000F0E0E852FA4F90838F5F8093F8059091A7
:1034A000F8058091F90582C08091F8059091BB00E4
:1034B000E82FF0E0E852FA4F90838F5F8093F80591
:1034C0008091D205882341F085ED8093BC008091E6
:1034D000BC0084FDFCCF7FC081E08093D30584EAEB
:1034E0006EC085ED8093BC008091BC0084FDFCCF54
:1034F00072C083E08093D00510923C0659C0809141
:103500003C06803208F056C080913C069091BB008A
:10351000E82FF0E0E45EF94F90838F5F80933C06E4
:1035200047C080913C06803230F4E0913C06F0E0E8
:10353000E45EF94F108285ED8093BC008091BC0061
:1035400084FDFCCF1092D00560913C06E091D60539
:10355000F091D7058CE196E070E0199510923C0649
:103560002DC084E08093D00510921A0610921B069D
:10357000E091D405F091D505199580911B0688231B
:1035800029F481E080931B061092FA0590911A06A7
:10359000E92FF0E0E650FA4F80818093BB009F5FF7
:1035A00090931A0690911A0680911B06981710F4B2
:1035B00085EC01C085E88093BC000FC085EC80934A
:1035C000BC0009C010923D0685ED8093BC0080913F
:1035D000BC0084FDFCCF1092D005FF91EF91BF910C
:1035E000AF919F918F917F916F915F914F913F919B
:1035F0002F910F900BBE0F900FBE0F901F9018953C
:103600001092D00581E08093D2051092D30584E119
:1036100061E00E94502585E161E00E945025E9EBC0
:10362000F0E080818E7F808380818D7F808388E43D
:103630008093B80085E48093BC000895EF92FF92D8
:103640000F931F93CF93DF93EC016CD77B018C0119
:103650008F850E948225982F898B8889882329F459
:10366000198A992311F481E0898B99898A8998179D
:1036700021F0ED8AFE8A0F8B188F8D899E89AF8984
:10368000B88DA8019701281B390B4A0B5B0B8B8166
:103690009C81AD81BE8182179307A407B50764F4AE
:1036A00099898A81981741F09A83992329F08B8907
:1036B0009C8901969C8B8B8B8A818823C9F48D8988
:1036C0009E89AF89B88DA8019701281B390B4A0B39
:1036D0005B0B8F819885A985BA8582179307A4070C
:1036E000B50734F48B899C89998388831C8A1B8A4B
:1036F0008A818823D1F08D899E89AF89B88DE81A97
:10370000F90A0A0B1B0B8B859C85AD85BE858E1532
:103710009F05A007B1074CF48B899C8990958195F2
:103720009F4F998388831C8A1B8A89898A8BDF91A2
:10373000CF911F910F91FF90EF9008951F93CF931A
:10374000DF93EC01122F6F87488B80E0442309F44C
:1037500081E0898B8A8B1C8A1B8A198218821A82C3
:103760001D8A1E8A1F8A188E84E190E0A0E0B0E0D6
:103770008B839C83AD83BE838AEF90E0A0E0B0E0B2
:103780008F839887A987BA8788EE93E0A0E0B0E09E
:103790008B879C87AD87BE878F8560E00E949D24C4
:1037A0008889882331F4113021F48F8561E00E94EB
:1037B0005025DF91CF911F9108958F929F92AF92E4
:1037C000BF92CF92DF92EF92FF920F931F93CF930E
:1037D000DF937B018C01EA012CE330E040E050E014
:1037E0000E941C336883C801B7012CE330E040E03D
:1037F00050E00E941C33122F032FF42EE52E622F6F
:10380000732F842F952F2CE330E040E050E00E948E
:103810001C336983612F702F8F2D9E2D2CE330E098
:1038200040E050E00E941C33122F032FF42EE52EAF
:10383000622F732F842F952F28E130E040E050E075
:103840000E941C336A83612F702F8F2D9E2D28E1DB
:1038500030E040E050E00E941C3379018A01C80149
:10386000B7016C5F7F4F8F4F9F4F27E030E040E004
:1038700050E00E941C336F5F6B8320E0AA24BB24BE
:10388000650101C02F5F822E9924F401EE54F84F98
:10389000CF0183709070892B99F4CF0164E670E0BA
:1038A0000E940933892B39F4CF0160E971E00E944D
:1038B0000933892B29F48EE691E0A0E0B0E004C042
:1038C0008DE691E0A0E0B0E0A80EB91ECA1EDB1E96
:1038D000C501A0E0B0E0E816F9060A071B0790F65C
:1038E0002E83F401EE54F84F83E0882E912C8E2223
:1038F0009F228114910499F4CF0164E670E00E9444
:103900000933892B39F4CF0160E971E00E94093352
:10391000892B29F48EE691E0A0E0B0E004C08DE6AA
:1039200091E0A0E0B0E0A81AB90ACA0ADB0A98013F
:1039300087010A191B092C093D09CF0164E670E0D3
:103940000E9409337C01CF0160E971E00E940933D4
:10395000AC01EAE9F4E060E0613051F481149104D3
:1039600049F4E114F10441F44115510529F002C074
:10397000808103C08CE101C08DE190E0A0E0B0E067
:10398000081719072A073B0740F0081B190B2A0BD9
:103990003B0B6F5F31966C30F9F66F5F6D83802F54
:1039A0008F5F8C83DF91CF911F910F91FF90EF90EC
:1039B000DF90CF90BF90AF909F908F900895EF923F
:1039C000FF920F931F937B018C018091550690917C
:1039D0005606A0915706B0915806E816F9060A0750
:1039E0001B0769F0C801B7014AE456E0E6DEE09241
:1039F0005506F092560600935706109358061F91ED
:103A00000F91FF90EF900895DADF2091500630E09B
:103A10002E54384FC9010895D2DF20914C0622233D
:103A200019F42CE030E009C0822F90E02D3020F016
:103A30009C012C50304001C09C01C90108954F9257
:103A40005F926F927F928F929F92AF92BF92CF922E
:103A5000DF92EF92FF920F931F93CF93DF934C016E
:103A6000DC0116961C91612F70E080E090E020E868
:103A700033E341EE51E00E94DE325B016C0122EB48
:103A800037E0E12FF0E0EE54F84F1DC0C90183701C
:103A90009070892BB1F4C90164E670E00E9409338B
:103AA000892B39F4C90160E971E00E940933892B3F
:103AB00041F480E891E5A1E0B0E0A80EB91ECA1E6D
:103AC000DB1E2F5F3F4F2E173F0701F7D4011596DE
:103AD0008C91482E5524C90164E670E00E94093398
:103AE0007C01C90160E971E00E9409338C01C1E0E9
:103AF000D0E093E0692E712C6222732227C0C2307D
:103B0000D10591F46114710479F4E114F10419F40C
:103B10000115110549F480E89BE3A6E2B0E0A80E88
:103B2000B91ECA1EDB1E11C0FE01E756FB4F6081A5
:103B300070E080E090E020E831E541E050E00E9454
:103B4000DE32A60EB71EC81ED91E2196C415D50595
:103B5000B4F2D40112966C9170E080E090E020E124
:103B60003EE040E050E00E94DE327B018C01F40137
:103B7000618170E080E090E02CE330E040E050E0D4
:103B80000E94DE32E60EF71E081F191FD4018C9129
:103B9000E80EF11C011D111D14966C9170E061502E
:103BA0007040882777FD8095982F20E831E541E027
:103BB00050E00E94DE32E60EF71E081F191FEA0CC5
:103BC000FB1C0C1D1D1DB701C801DF91CF911F917A
:103BD0000F91FF90EF90DF90CF90BF90AF909F90AC
:103BE0008F907F906F905F904F9008956093400604
:103BF0007093410680934206909343062091670498
:103C0000309168044091690450916A04260F371F6F
:103C1000481F591F2093440630934506409346069B
:103C20005093470682E090E09093490680934806BF
:103C300079D4609351067093520680935306909303
:103C400054060895EF92FF920F93F701E436F105C1
:103C50001CF0E25BF74001C07E96E09350060093B3
:103C60004F0620934E0680934C0660934B0640937C
:103C70004A068AE496E0E3DEB9DF0F91FF90EF9009
:103C80000895EF92FF920F931F931CC02F5F3F4F39
:103C90004F4F5F4F209340063093410640934206BA
:103CA0005093430688EE93E0A0E0B0E0E80EF91EE2
:103CB0000A1F1B1FE0925106F09252060093530612
:103CC000109354062FD4E0905106F09052060091C4
:103CD0005306109154066E197F09800B910B2091A9
:103CE0004006309141064091420650914306685E7D
:103CF00073408040904050F6809144069091450674
:103D0000A0914606B0914706281739074A075B0776
:103D1000C0F1E0913E06F0913F06309791F1199580
:103D2000611571058105910511F060DF2AC0809150
:103D3000670490916804A0916904B0916A0420918D
:103D40004006309141064091420650914306820F51
:103D5000931FA41FB51F8093440690934506A0931C
:103D60004606B093470620E030E0809148069091E7
:103D70004906892B11F021E030E030934906209369
:103D800048066091400670914106809142069091EC
:103D900043061F910F91FF90EF90089572DF34CE8C
:103DA00070DF0DDE80914F0690E008956ADF07DE38
:103DB00080914E0690E0089564DF01DE80914A060E
:103DC00090E008955EDFFBDD80914B0690E0089562
:103DD00058DF22CE56DFF3DD80914C0690E0089547
:103DE000DC0190916E06933008F083C06C93E92F4C
:103DF000F0E0E15BFE4F849111968C9311979F5FE9
:103E000090936E06813039F1823009F44BC08823DB
:103E100009F072C014BC15BC84B5826084BD85B540
:103E2000816085BD8C91282F30E0F901E056FE4F6E
:103E3000E491F0E0EE0FFF1FE459FE4F859194915D
:103E400090935E0680935D062A513E4FF90184915E
:103E500080935F06089510928000109281008091F7
:103E600081008860809381008091810081608093CF
:103E700081008C91282F30E0F901E056FE4FE4914B
:103E8000F0E0EE0FFF1FE459FE4F8591949190935F
:103E90006506809364062A513E4FF9018491809310
:103EA000660608951092B0001092B1008091B000A3
:103EB00082608093B0008091B10081608093B100F6
:103EC0008C91282F30E0F901E056FE4FE491F0E0AC
:103ED000EE0FFF1FE459FE4F8591949190936C066D
:103EE00080936B062A513E4FF901849180936D06B1
:103EF00008958FEF11968C9308951F920F920FB62D
:103F00000F920BB60F9211248F939F93AF93BF9391
:103F1000EF93FF938091590690915A06A0915B060A
:103F2000B0915C06E0915D06F0915E060097A105F8
:103F3000B10531F1808190915F068927808380915E
:103F4000590690915A06A0915B06B0915C0618162E
:103F500019061A061B06FCF48091590690915A0620
:103F6000A0915B06B0915C060197A109B10980930D
:103F7000590690935A06A0935B06B0935C060BC05B
:103F800080916E008D7F80936E00908180915F069E
:103F9000809589238083FF91EF91BF91AF919F918D
:103FA0008F910F900BBE0F900FBE0F901F90189522
:103FB0001F920F920FB60F920BB60F9211248F9390
:103FC0009F93AF93BF93EF93FF938091600690917F
:103FD0006106A0916206B0916306E0916406F091DB
:103FE00065060097A105B10531F1808190916606C3
:103FF000892780838091600690916106A091620676
:10400000B0916306181619061A061B06FCF4809177
:10401000600690916106A0916206B09163060197D7
:10402000A109B1098093600690936106A09362068E
:10403000B09363060BC080916F008D7F80936F00FB
:10404000908180916606809589238083FF91EF910E
:10405000BF91AF919F918F910F900BBE0F900FBEAC
:104060000F901F9018951F920F920FB60F920BB6DC
:104070000F9211242F933F934F935F938F939F93AE
:10408000EF93FF932091670630916806409169068F
:1040900050916A06E0916B06F0916C06211531058E
:1040A0004105510579F0808190916D0689278083C3
:1040B000121613061406150684F4215030404040B1
:1040C00050400BC0809170008D7F80937000908174
:1040D00080916D06809589238083209367063093B5
:1040E00068064093690650936A06FF91EF919F918D
:1040F0008F915F914F913F912F910F900BBE0F9039
:104100000FBE0F901F901895FC018181813051F0F6
:10411000823071F0882389F480916E008D7F8093C6
:104120006E000BC080916F008D7F80936F0005C083
:10413000809170008D7F80937000808160E0B0C4BA
:104140002F923F925F926F927F928F929F92AF9247
:10415000BF92CF92DF92EF92FF920F931F93DF9364
:10416000CF9300D00F92CDB7DEB78C011B0129830E
:104170003A834B835C83DC0111968C91119787FD08
:1041800060C18C9161E0D9D3F8015180552021F0B4
:10419000F2E05F1609F0C7C031018824992460E07D
:1041A00072E18AE790E0A40193010E943E33590135
:1041B0006A01860175010894E108F10801091109F5
:1041C0002FEFE216F1040105110509F008F49BC078
:1041D00060E472E48FE090E0A40193010E943E331A
:1041E00079018A010894E108F1080109110982E0C6
:1041F000581611F092E019C09FEFE916F10401057D
:10420000110509F010F492E087C060E970ED83E0D9
:1042100090E0A40193010E943E3379018A01089441
:10422000E108F1080109110993E0AFEFEA16F10482
:104230000105110509F008F467C068E478EE81E033
:1042400090E0A40193010E943E3379018A01089411
:10425000E108F10801091109552011F493E01EC08D
:10426000B2E05B1611F094E019C0EFEFEE16F10426
:104270000105110509F010F494E04EC064E274EFFA
:1042800080E090E0A40193010E943E3379018A010D
:104290000894E108F1080109110995E0FFEFEF1614
:1042A000F1040105110581F178F162E17AE780E01E
:1042B00090E0A40193010E943E3379018A010894A1
:1042C000E108F10801091109552011F096E001C03B
:1042D00094E02FEFE216F10401051105A9F0A0F01A
:1042E000C601B50120E034E040E050E00E943E33DA
:1042F00079018A010894E108F108010911095520A2
:1043000051F495E003C091E0552031F485B5887FE4
:10431000982B95BD3EC097E08091B100887F982B87
:104320009093B10036C05101CC24DD2460E072E1ED
:104330008AE790E0A60195010E943E3379018A0147
:104340000894E108F1080109110980E0E81680E00D
:10435000F80681E0080780E0180710F491E010C02B
:1043600068E478EE81E090E0A60195010E943E337A
:1043700079018A010894E108F1080109110993E023
:10438000A1E05A1631F480918100887F982B909398
:10439000810089819A81AB81BC810097A105B1051B
:1043A00029F48FEF9FEFAFEFBFEF13C0220C331C48
:1043B000B10180E090E029813A814B815C810E94CB
:1043C000DE3228EE33E040E050E00E941C33C901A9
:1043D000DA01E1E05E16A1F0F2E05F1619F1552076
:1043E00081F5E7BC8093590690935A06A0935B062B
:1043F000B0935C0680916E00826080936E0021C055
:10440000F0928900E09288008093600690936106A4
:10441000A0936206B093630680916F0082608093E0
:104420006F000FC0E092B300809367069093680618
:10443000A0936906B0936A068091700082608093B1
:1044400070000F900F900F900F90CF91DF911F9100
:104450000F91FF90EF90DF90CF90BF90AF909F9023
:104460008F907F906F905F903F902F900895F99973
:10447000FECF72BD61BDF89A80B50895F999FECF5F
:104480001FBA72BD61BD40BD0FB6F894FA9AF99A91
:104490000FBE08951F920F920FB60F9211242F9303
:1044A0003F938F939F93AF93BF93809174069091A6
:1044B0007506A0917606B091770630917806019640
:1044C000A11DB11D232F2D5F2D3720F02D570196F3
:1044D000A11DB11D209378068093740690937506F4
:1044E000A0937606B093770680917006909171063E
:1044F000A0917206B09173060196A11DB11D809323
:10450000700690937106A0937206B0937306BF91E4
:10451000AF919F918F913F912F910F900FBE0F9070
:104520001F9018958FB7F8942091740630917506F6
:1045300040917606509177068FBFB901CA01089560
:104540009FB7F894209170063091710640917206E1
:104550005091730686B5A89B06C08F3F21F02F5F50
:104560003F4F4F4F5F4F9FBF542F432F322F222774
:10457000280F311D411D511D82E0220F331F441FA2
:10458000551F8A95D1F7B901CA0108959B01AC0165
:104590007FB7F8948091700690917106A091720691
:1045A000B091730666B5A89B05C06F3F19F00196E0
:1045B000A11DB11D7FBFBA2FA92F982F8827860F65
:1045C000911DA11DB11D62E0880F991FAA1FBB1F7D
:1045D0006A95D1F7BC012DC0FFB7F89480917006A1
:1045E00090917106A0917206B0917306E6B5A89BF2
:1045F00005C0EF3F19F00196A11DB11DFFBFBA2FF5
:10460000A92F982F88278E0F911DA11DB11DE2E0C3
:10461000880F991FAA1FBB1FEA95D1F7861B970B1E
:10462000885E9340C8F2215030404040504068516D
:104630007C4F211531054105510571F6089501970B
:1046400039F0880F991F880F991F02970197F1F78A
:104650000895789484B5826084BD84B5816084BDFA
:1046600085B5826085BD85B5816085BDEEE6F0E0EB
:10467000808181608083E1E8F0E010828081826047
:104680008083808181608083E0E8F0E080818160C8
:104690008083E1EBF0E0808184608083E0EBF0E0F8
:1046A000808181608083E1E9F0E0808182608083A5
:1046B000808181608083E0E9F0E080818160808397
:1046C000E1EAF0E080818260808380818160808384
:1046D000E0EAF0E0808181608083E1E2F1E08081C6
:1046E00082608083808181608083E0E2F1E080816C
:1046F00081608083EAE7F0E080818460808380814C
:1047000082608083808181608083808180688083F3
:104710001092C1000895382F863308F03653209147
:104720007B00832F86958695869590E081709070AA
:1047300043E0880F991F4A95E1F7277F282B2093A4
:104740007B00377080916B048295880F880F807C86
:10475000832B80937C0080917A00806480937A0020
:1047600080917A0086FDFCCF2091780040917900FD
:10477000942F80E030E0282B392BC90108951F9336
:10478000CF93DF93182FEB0161E0D7D0209709F486
:10479000CAC0CF3FD10509F4C9C0E12FF0E0E45D04
:1047A000FD4F8491893009F466C08A30B0F48430BA
:1047B000F1F1853040F4823059F1833070F5813069
:1047C00009F0AEC020C0873009F443C0883008F03B
:1047D00048C0863009F0A4C034C08D3009F478C0D8
:1047E0008E3038F48B3009F45AC08C3008F066C033
:1047F0004CC0803109F480C0813109F487C08F300A
:1048000009F08EC06FC084B5806884BDC7BD91C0FB
:1048100084B5806284BDC8BD8CC0809180008068F2
:1048200080938000D0938900C093880082C08091DB
:104830008000806280938000D0938B00C0938A00B8
:1048400078C08091B00080688093B000C093B300BE
:1048500070C08091B00080628093B000C093B400BB
:1048600068C080919000806880939000D0939900F8
:10487000C09398005EC08091900080628093900009
:10488000D0939B00C0939A0054C0809190008860A0
:1048900080939000D0939D00C0939C004AC080916B
:1048A000A00080688093A0008091A0008F7B8093FF
:1048B000A000D093A900C093A8003BC08091A000A5
:1048C00080628093A000D093AB00C093AA0031C057
:1048D0008091A00088608093A000D093AD00C09329
:1048E000AC0027C080912001806880932001D09384
:1048F0002901C09328011DC080912001806280930E
:104900002001D0932B01C0932A0113C08091200174
:10491000886080932001D0932D01C0932C0109C0A1
:10492000C038D1051CF4812F60E002C0812F61E006
:10493000B7D0DF91CF911F910895CF93DF93482F88
:1049400050E0CA018A519E4FFC01349140565E4F9F
:10495000FA018491882369F190E0880F991FFC0186
:10496000EE5AFE4FA591B491FC01E459FE4FC5915A
:10497000D491662351F42FB7F8948C91932F90958E
:1049800089238C93888189230BC0623061F42FB70F
:10499000F8948C91932F909589238C938881832B05
:1049A00088832FBF06C09FB7F8948C91832B8C937C
:1049B0009FBFDF91CF910895893009F449C08A30B3
:1049C000A0F4843051F1853040F4823079F18330A5
:1049D00000F5813009F063C026C0873079F1883056
:1049E00098F5863009F05BC025C08D3009F442C0CF
:1049F0008E3028F48B30B1F18C30C0F52DC0803171
:104A000009F442C0813109F445C08F3009F047C034
:104A100037C0809180008F7703C0809180008F7DA8
:104A200080938000089584B58F7702C084B58F7D10
:104A300084BD08958091B0008F7703C08091B0004D
:104A40008F7D8093B0000895809190008F7707C08C
:104A5000809190008F7D03C080919000877F80932C
:104A6000900008958091A0008F7707C08091A000EA
:104A70008F7D03C08091A000877F8093A000089560
:104A8000809120018F7703C0809120018F7D8093DA
:104A90002001089580912001877F8093200108954F
:104AA000FF920F931F93F62E482F50E0CA01845DAA
:104AB0009D4FFC012491CA018A519E4FFC01149123
:104AC00040565E4FFA0104910023C1F0222311F0F9
:104AD000822F72DFE02FF0E0EE0FFF1FE459FE4F50
:104AE000A591B4919FB7F894FF2021F48C91109573
:104AF000812302C08C91812B8C939FBF1F910F91BA
:104B0000FF9008950F931F93482F50E0CA01845DD2
:104B10009D4FFC012491CA018A519E4FFC010491D2
:104B200040565E4FFA011491112319F420E030E051
:104B300014C0222311F0822F3FDF812F90E0880FD5
:104B4000991F8A579E4FFC01A591B4918C9120E04A
:104B500030E0802311F021E030E0C9011F910F9176
:104B6000089508951F920F920FB60F920BB60F92F1
:104B700011242F933F934F938F939F93EF93FF9322
:104B80008091C00082FD1DC04091C6002091B906F1
:104B90003091BA062F5F3F4F2F7330708091BB0664
:104BA0009091BC062817390771F0E091B906F09191
:104BB000BA06E758F94F40833093BA062093B906F6
:104BC00002C08091C600FF91EF919F918F914F910C
:104BD0003F912F910F900BBE0F900FBE0F901F9023
:104BE000189508951F920F920FB60F920BB60F9261
:104BF00011242F933F934F938F939F93EF93FF93A2
:104C00008091C80082FD1DC04091CE0020914107D7
:104C1000309142072F5F3F4F2F73307080914307D1
:104C2000909144072817390771F0E0914107F091FE
:104C30004207EF5FF84F40833093420720934107CC
:104C400002C08091CE00FF91EF919F918F914F9183
:104C50003F912F910F900BBE0F900FBE0F901F90A2
:104C6000189508951F920F920FB60F920BB60F92E0
:104C700011242F933F934F938F939F93EF93FF9321
:104C80008091D00082FD1DC04091D6002091C907BF
:104C90003091CA072F5F3F4F2F7330708091CB0741
:104CA0009091CC072817390771F0E091C907F0916E
:104CB000CA07E757F84F40833093CA072093C907C4
:104CC00002C08091D600FF91EF919F918F914F91FB
:104CD0003F912F910F900BBE0F900FBE0F901F9022
:104CE000189508951F920F920FB60F920BB60F9260
:104CF00011242F933F934F938F939F93EF93FF93A1
:104D00008091300182FD1DC04091360120915108F3
:104D1000309152082F5F3F4F2F73307080915308AE
:104D2000909154082817390771F0E0915108F091DB
:104D30005208EF5EF74F408330935208209351089A
:104D400002C080913601FF91EF919F918F914F9119
:104D50003F912F910F900BBE0F900FBE0F901F90A1
:104D60001895E091A508F091A608E05CFF4F8191AD
:104D7000919120813181805C9F4F821B930B60E475
:104D800070E00E940933892B09F0EBDEE091C7083F
:104D9000F091C808E05CFF4F8191919120813181B1
:104DA000805C9F4F821B930B60E470E00E9409338C
:104DB000892B09F016DFE091E908F091EA08E05C40
:104DC000FF4F8191919120813181805C9F4F821BA7
:104DD000930B60E470E00E940933892B09F041DFF6
:104DE000E0910B09F0910C09E05CFF4F81919191EA
:104DF00020813181805C9F4F821B930B60E470E0C7
:104E00000E940933892B09F06CCF08951F920F92ED
:104E10000FB60F920BB60F9211242F933F938F93DF
:104E20009F93EF93FF932091FD063091FE068091B2
:104E3000FF06909100072817390731F48091C100CF
:104E40008F7D8093C10014C0E091FF06F0910007B0
:104E5000E354F94F20818091FF069091000701965D
:104E60008F739070909300078093FF062093C60085
:104E7000FF91EF919F918F913F912F910F900BBEDA
:104E80000F900FBE0F901F9018951F920F920FB6A4
:104E90000F920BB60F9211242F933F938F939F93F2
:104EA000EF93FF93209185073091860780918707C4
:104EB000909188072817390731F48091C9008F7DB8
:104EC0008093C90014C0E0918707F0918807EB5BDD
:104ED000F84F2081809187079091880701968F7302
:104EE000907090938807809387072093CE00FF915E
:104EF000EF919F918F913F912F910F900BBE0F904B
:104F00000FBE0F901F9018951F920F920FB60F9221
:104F10000BB60F9211242F933F938F939F93EF9390
:104F2000FF9320910D0830910E0880910F08909109
:104F300010082817390731F48091D1008F7D8093B4
:104F4000D10014C0E0910F08F0911008E353F84F1E
:104F5000208180910F089091100801968F739070B6
:104F60009093100880930F082093D600FF91EF9143
:104F70009F918F913F912F910F900BBE0F900FBE7D
:104F80000F901F9018951F920F920FB60F920BB6AD
:104F90000F9211242F933F938F939F93EF93FF933F
:104FA00020919508309196088091970890919808E3
:104FB0002817390731F4809131018F7D80933101B9
:104FC00014C0E0919708F0919808EB5AF74F2081B0
:104FD000809197089091980801968F7390709093A4
:104FE00098088093970820933601FF91EF919F9145
:104FF0008F913F912F910F900BBE0F900FBE0F908E
:105000001F901895AF92BF92DF92EF92FF920F938D
:105010001F93CF93DF93EC017A018B01DD244030A5
:1050200081EE580780E0680780E0780711F0DD2402
:10503000D39491E0A92EB12CEC89FD89DD2069F093
:10504000C50108A002C0880F991F0A94E2F7808367
:1050500060E079E08DE390E005C0108260E874E8DC
:105060008EE190E0A80197010E941C33215030404E
:1050700040405040569547953795279580E1203020
:10508000380720F0DD2011F0DD24D6CFE889F9893A
:105090003083EA89FB89208319A2EE89FF89408148
:1050A00021E030E0C9010C8C02C0880F991F0A94DE
:1050B000E2F7482B4083EE89FF894081C9010D8CBE
:1050C00002C0880F991F0A94E2F7482B4083EE89AB
:1050D000FF894081C9010E8C02C0880F991F0A9474
:1050E000E2F7482B4083EE89FF8980810F8C02C054
:1050F000220F331F0A94E2F7209528232083DF91A3
:10510000CF911F910F91FF90EF90DF90BF90AF90E4
:105110000895DC011C96ED91FC911D97E05CFF4F1A
:105120008191919120813181805C9F4F821B930BF3
:1051300060E470E00C940933DC011C96ED91FC9165
:105140001D97E05CFF4F20813181E054F040DF018A
:10515000AE5BBF4F8D919C9111972817390719F4B9
:105160002FEF3FEF07C08D919C91E80FF91F8081D1
:10517000282F30E0C9010895DC011C96ED91FC91C7
:105180001D97E05CFF4F20813181E054F040DF014A
:10519000AE5BBF4F8D919C9111972817390719F479
:1051A0002FEF3FEF10C08D919C911197E80FF91FE1
:1051B00020818D919C91119701968F73907011961B
:1051C0009C938E9330E0C9010895DC0191968C91F7
:1051D0009197882339F05496ED91FC9155978081F1
:1051E00086FFF9CF91961C920895CF93DF93EC013F
:1051F000EE85FF85E05CFF4F20813181E054F04077
:105200002F5F3F4F2F733070DF01AE5BBF4F8D912B
:105210009C91119728173907D1F3E05CFF4F8081EB
:105220009181E054F040E80FF91F6083EE85FF851F
:10523000E05CFF4F31832083EE89FF89208181E08C
:1052400090E00F8C02C0880F991F0A94E2F7282B78
:10525000208381E089A3EC89FD898081806480833B
:1052600081E090E0DF91CF9108951F9310929C0808
:1052700010929B0828EE33E040E050E020939D0818
:1052800030939E0840939F085093A0086AEA74E008
:1052900070939A086093990889E796E09093A6081E
:1052A0008093A5088DEB96E09093A8088093A708BB
:1052B00085EC90E09093AA088093A90884EC90E094
:1052C0009093AC088093AB0880EC90E09093AE088C
:1052D0008093AD0881EC90E09093B0088093AF0884
:1052E00082EC90E09093B2088093B10886EC90E055
:1052F0009093B4088093B30814E01093B508B3E01A
:10530000B093B608A7E0A093B708F5E0F093B8080B
:10531000E1E0E093B9081092BE081092BD08209316
:10532000BF083093C0084093C1085093C2087093DF
:10533000BC086093BB0881E097E09093C808809315
:10534000C70885E497E09093CA088093C9088DEC5C
:1053500090E09093CC088093CB088CEC90E09093F5
:10536000CE088093CD0888EC90E09093D00880938D
:10537000CF0889EC90E09093D2088093D1088AEC12
:1053800090E09093D4088093D3088EEC90E09093B3
:10539000D6088093D5081093D708B093D808A09367
:1053A000D908F093DA08E093DB081092E008109235
:1053B000DF082093E1083093E2084093E30850931C
:1053C000E4087093DE086093DD0889E897E0909325
:1053D000EA088093E9088DEC97E09093EC088093BD
:1053E000EB0885ED90E09093EE088093ED0884ED56
:1053F00090E09093F0088093EF0880ED90E0909318
:10540000F2088093F10881ED90E09093F408809386
:10541000F30882ED90E09093F6088093F50886ED0E
:1054200090E09093F8088093F7081093F908B093F0
:10543000FA08A093FB08F093FC08E093FD08109293
:105440000209109201092093030930930409409343
:10545000050950930609709300096093FF0881E1E4
:1054600098E090930C0980930B0985E598E0909360
:105470000E0980930D0985E391E0909310098093C4
:105480000F0984E391E0909312098093110980E35E
:1054900091E0909314098093130981E391E0909334
:1054A00016098093150982E391E09093180980937F
:1054B000170986E391E090931A09809319091093D4
:1054C0001B09B0931C09A0931D09F0931E09E093DA
:1054D0001F091F9108950895CF93DF93BAD8FBDF7A
:1054E0000E94F415C1EBD6E20E9448112097E1F327
:1054F00038DCFACFFC0120E030E08081882311F411
:1055000021E030E0C9010895FC0181E08083089525
:10551000CF92DF92EF92FF920F931F93CF93DF937F
:105520007C016B018A01C0E0D0E00FC0D6016D9113
:105530006D01D701ED91FC910190F081E02DC70143
:105540001995C80FD91F015010400115110571F7A9
:10555000CE01DF91CF911F910F91FF90EF90DF90DF
:10556000CF900895EF92FF920F931F93CF93DF9305
:105570007C018B01C0E0D0E0F8010F5F1F4F649108
:10558000662359F0D701ED91FC910190F081E02D57
:10559000C7011995C80FD91FEFCFCE01DF91CF9169
:1055A0001F910F91FF90EF900895CF93DF93FB0130
:1055B000EC01A881B9816081718144815581129685
:1055C000ED91FC9113971995DF91CF910895EF928A
:1055D000FF920F931F938C01DC01ED91FC910190E0
:1055E000F081E02D6DE019957C01D801ED91FC91E1
:1055F0000190F081E02DC8016AE019959C012E0D03
:105600003F1DC9011F910F91FF90EF900895EF92F8
:10561000FF920F931F937C01A5DF8C01C701D7DF99
:105620009C01200F311FC9011F910F91FF90EF9036
:105630000895EF92FF920F931F937C01B6DF8C01C8
:10564000C701C5DF9C01200F311FC9011F910F91B8
:10565000FF90EF900895CF93DF93EC0161157105F2
:1056600019F420E030E00FC0DB010D900020E9F7D5
:105670001197A61BB70BE881F9810280F381E02D19
:10568000AD0119959C01C901DF91CF9108954F9209
:105690005F927F928F929F92AF92BF92CF92DF9252
:1056A000EF92FF920F931F93DF93CF93CDB7DEB7A7
:1056B000A1970FB6F894DEBF0FBECDBF2C01742E9C
:1056C000CB01223008F42AE019A231E2C32ED12CFA
:1056D000CC0EDD1E822E9924AA24BB24672D752FA3
:1056E000A5019401A9D779018A01C801B701A501D3
:1056F000940164D7472D461B0894C108D1084A304D
:1057000014F4405D01C0495CF6014083E114F104EA
:105710000105110521F07E2C5F2DC801DFCFC201EC
:10572000B60199DFA1960FB6F894DEBF0FBECDBFCC
:10573000CF91DF911F910F91FF90EF90DF90CF906D
:10574000BF90AF909F908F907F905F904F90089503
:10575000DC012115310541F4ED91FC910190F081BE
:10576000E02D642F1995089592CFCF92DF92EF929A
:10577000FF920F931F93CF93DF93EC016A017B019C
:105780002115310541F4E881F9810190F081E02D86
:10579000642F19951DC02A303105C9F477FF16C052
:1057A000E881F9810190F081E02D6DE219958C017D
:1057B00044275527BA014C195D096E097F09CE01AE
:1057C0002AE065DF9801280F391F03C02AE05FDF58
:1057D0009C01C901DF91CF911F910F91FF90EF9034
:1057E000DF90CF900895CF92DF92EF92FF920F93C8
:1057F0001F936C017B019A010027F7FC0095102F85
:10580000B801A701B2DF8C01C601E1DE080F191F44
:10581000C8011F910F91FF90EF90DF90CF900895F6
:105820001ACF08957F928F929F92AF92BF92CF929C
:10583000DF92EF92FF920F931F93CF93DF934C0170
:105840007A018B01722ECB01BA01A8019701B2D661
:10585000882321F0C4016BEE72E01FC0C0E0D0E0ED
:1058600057016801E894D7F8C601B5012FEF3FEF63
:105870004FE75FE79FD6882349F4C601B5012FEFB4
:105880003FEF4FE75FE7E0D4181614F0C1E0D0E037
:10589000219731F0C4016FEE72E0DDDEEC0184C0CF
:1058A000C801B7012FEF3FEF4FE75FE41CD6181692
:1058B0004CF0C801B7012FEF3FEF4FE75FECC4D4C6
:1058C000882324F4C40163EF72E0E7CFC801B70175
:1058D00020E030E040E050E0B7D487FD03C0C0E0F6
:1058E000D0E00EC0D401ED91FC910190F081E02D4B
:1058F000C4016DE21995EC0117FB109517F910958D
:1059000020E030E040E05FE3DD240AC0CA01B901D5
:1059100020E030E040E251E49BD49B01AC01D39401
:10592000D714A0F3C801B7012BD45B016C01FDD4DF
:105930007B018C01C401B801A7012AE030E008DF37
:10594000C80FD91F772031F0C40167EF72E083DE02
:10595000C80FD91FC801B70114D59B01AC01C601FE
:10596000B5010DD41FC020E030E040E251E4BFD5C6
:105970007B018C01D5D45B016C01CC24B7FCC094B5
:10598000DC2CC401B601A5012AE030E0EEDEC80F30
:10599000D91FC601B501F7D49B01AC01C801B701FD
:1059A000EED37A947720F9F6CE01DF91CF911F9153
:1059B0000F91FF90EF90DF90CF90BF90AF909F90AE
:1059C0008F907F9008952ECF0895EF92FF920F93BE
:1059D0001F937C0140DE8C01C701F9DD080F191F00
:1059E000C8011F910F91FF90EF900895FC018081F5
:1059F0009181009729F420E030E040E050E004C0BD
:105A00000E9469029B01AC01B901CA0108950F937C
:105A10001F93CF93DF93EC018B016F5F7F4F8881E2
:105A20009981D0D2009711F480E005C099838883D2
:105A30001B830A8381E0DF91CF911F910F9108951D
:105A4000CF93DF93EC0188819981892B29F08A819A
:105A50009B818617970758F4CE01D9DF882341F040
:105A60008C819D81892B19F4E881F981108281E074
:105A7000DF91CF910895EF92FF920F931F93CF93F1
:105A8000DF93EC017B016C817D81E114F104B9F0BD
:105A90004115510591F08A01060F171FB801D0DF9B
:105AA000882369F0888199812C813D81820F931F21
:105AB000B7010E9498021D830C8381E001C080E041
:105AC000DF91CF911F910F91FF90EF900895CF93A9
:105AD000DF93EC0188819981009709F0DBD119826D
