:100000000C94A1000C94C9000C94C9000C94C90074
:100010000C94C9000C94C9000C94C9000C94900570
:100020000C94C9000C94C9000C94C9000C94EB0505
:100030000C94C9000C94C9000C9450060C94C9008F
:100040000C9446050C94C9000C94C8030C94A203AC
:100050000C94C9000C94C9000C94C9000C94C900FC
:100060000C94B30A0C94C900781A7C1A681A6A1A9C
:100070006E1A701A741A00000000250028002B0068
:1000800002010000000000240027002A00010204F1
:10009000081020408001020408102001020408100A
:1000A0002004040404040404040202020202020301
:1000B000030303030353746F702054657374005576
:1000C00020696E7075743D005374617274205465BC
:1000D0007374004669726D7761726520766572731C
:1000E000696F6E3A2000496E636F727265637420A7
:1000F000536F6E6720466F726D6174210076616C7C
:1001000075653D006D656E75506F736974696F6ECE
:100110003D00000000002300260029000000000828
:1001200000020100000304070000000000000000BE
:1001300057616B652075702C204E656F2100B622CB
:10014000AE2211241FBECFEFD8E0DEBFCDBF13E03B
:10015000A0E0B1E0ECE2F1E502C005900D92A23A18
:10016000B107D9F726E0A2EAB3E001C01D92A4309E
:10017000B207E1F710E0C0EAD0E004C02197FE0129
:100180000E947023CF39D107C9F70E949E120C94A8
:1001900089280C9400000895CF92DF92EF92FF928D
:1001A0000F931F93CF93DF936C017A018B01C0E013
:1001B000D0E0CE15DF0589F0D8016D918D01D60113
:1001C000ED91FC910190F081E02DC6010995892BFC
:1001D00011F47E0102C02196ECCFC701DF91CF91CF
:1001E0001F910F91FF90EF90DF90CF900895FC0149
:1001F000918D828D981761F0828DDF01A80FB11D5E
:100200005D968C91928D9F5F9F73928F90E0089581
:100210008FEF9FEF0895FC01918D828D981731F03B
:10022000828DE80FF11D858D90E008958FEF9FEF8F
:100230000895FC01918D228D892F90E0805C9F4F65
:10024000821B91098F739927089580E095E00E94A1
:10025000190121E0892B09F420E0822F0895FC0187
:10026000848DDF01A80FB11DA35ABF4F2C91848D3F
:1002700090E001968F739927848FA689B7892C9374
:10028000A089B1898C9180648C93938D848D98130F
:1002900006C00288F389E02D80818F7D80830895D8
:1002A000EF92FF920F931F93CF93DF93EC0181E0C6
:1002B000888F9B8D8C8D981305C0E889F989808182
:1002C00085FD24C0F62E0B8D10E00F5F1F4F0F73BE
:1002D0001127E02E8C8DE8120CC00FB607FCFACF68
:1002E000E889F989808185FFF5CFCE010E942F0131
:1002F000F1CF8B8DFE01E80FF11DE35AFF4FF08225
:100300000B8FEA89FB898081806207C0EE89FF89B3
:100310006083E889F98980818064808381E090E04E
:10032000DF91CF911F910F91FF90EF900895CF93A0
:10033000DF93EC01888D8823C9F0EA89FB898081ED
:1003400085FD05C0A889B9898C9186FD0FC00FB6BF
:1003500007FCF5CF808185FFF2CFA889B9898C9100
:1003600085FFEDCFCE010E942F01E7CFDF91CF9126
:10037000089580E090E0892B29F00E9425018111E9
:100380000C9400000895833081F028F4813099F0B6
:100390008230A1F008958730A9F08830B9F0843018
:1003A000D1F4809180008F7D03C0809180008F7791
:1003B00080938000089584B58F7702C084B58F7DC7
:1003C00084BD08958091B0008F7703C08091B00004
:1003D0008F7D8093B00008950E946D26CF93DF93A8
:1003E000EC0188819981009711F00E940B251982F8
:1003F00018821D821C821B821A82DF91CF91089580
:100400000F931F93CF93DF93EC018881998100971D
:1004100029F02A813B812617370788F48B016F5F0B
:100420007F4F0E94A325009761F0998388831B83E7
:100430000A832C813D81232B11F4FC01108281E081
:1004400001C080E0DF91CF911F910F910895EF924D
:10045000FF920F931F93CF93DF93FC01248135818B
:100460006115710511F480E019C041155105A9F01D
:100470007B01EC018A01020F131FB8010E940002E8
:10048000882389F3288139818C819D81B701820F6E
:10049000931F0E947B261D830C8381E0DF91CF9107
:1004A0001F910F91FF90EF900895EF92FF920F939D
:1004B0001F93CF93DF93EC017B018A01BA010E9465
:1004C0000002811104C0CE010E94EE0107C01D830D
:1004D0000C83B701888199810E947B26CE01DF9130
:1004E000CF911F910F91FF90EF900895CF93DF93DD
:1004F000EC016115710561F0FB0101900020E9F745
:100500003197AF01461B570B0E942702811103C090
:10051000CE010E94EE01CE01DF91CF910895CF93DD
:10052000DF93EC01FB0144815581608171810E9460
:100530002702811103C0CE010E94EE01CE01DF919E
:10054000CF910895CF93DF93EC01FB0186179707B6
:1005500061F0608171816115710529F044815581D7
:100560000E94550202C00E94EE01CE01DF91CF91A0
:1005700008950F931F93CF93DF938C01EB01FC0140
:10058000808191810097B1F0688179816115710551
:1005900079F0428153812C813D814217530740F00D
:1005A0000E947B268C819D81F8019583848313C0F2
:1005B0000E940B2588819981F801918380838A812B
:1005C0009B81938382838C819D819583848319820F
:1005D00018821B821A821D821C82DF91CF911F918B
:1005E0000F910895FC01808191810C940B25EF926D
:1005F000FF920F931F93CF93DF93CDB7DEB7629730
:100600000FB6F894DEBF0FBECDBF8C01CB01F80151
:1006100011821082138212821582148250E09E0190
:100620002F5F3F4F7901B9010E94A926F701019080
:100630000020E9F73197AF014E195F09B701C801F2
:100640000E94550262960FB6F894DEBF0FBECDBF72
:10065000DF91CF911F910F91FF90EF900895FC01D2
:100660001182108213821282158214820C94A202CB
:10067000FC0111821082138212821582148261158C
:10068000710551F0FB0101900020E9F73197AF01AE
:10069000461B570B0C9455020895BF92CF92DF92E0
:1006A000EF92FF920F931F93CF93DF937C016B0127
:1006B000EA0189012417350720F48D2FE901042F61
:1006C000182F61EC72E0C7010E943803D60114961E
:1006D0008D919C911597C817D90748F580179107F8
:1006E00008F48C01D601ED91FC911197E00FF11FF8
:1006F000B08010824D915C91BA016C0F7D1F611525
:10070000710561F0FB0101900020E9F73197AF011D
:10071000461B570BC7010E94550203C0C7010E9428
:10072000EE01D601ED91FC91E00FF11FB082C701FF
:10073000DF91CF911F910F91FF90EF90DF90CF90BD
:10074000BF9008951F920F920FB60F9211242F930E
:100750003F934F935F936F937F938F939F93AF9349
:10076000BF93EF93FF9380E095E00E942F01FF91EC
:10077000EF91BF91AF919F918F917F916F915F9119
:100780004F913F912F910F900FBE0F901F90189592
:100790001F920F920FB60F9211242F938F939F9356
:1007A000EF93FF93E0911005F09111058081E091A6
:1007B0001605F091170582FD12C0908180911905F0
:1007C0008F5F8F7320911A05821751F0E091190500
:1007D000F0E0E050FB4F958F8093190501C08081B8
:1007E000FF91EF919F918F912F910F900FBE0F90DE
:1007F0001F901895CF93DF93282F30E0F901E45E26
:10080000FE4F8491F901E357FF4FD491F901EF5561
:10081000FF4FC491CC2391F081110E94C301EC2FB2
:10082000F0E0EE0FFF1FEE5EFE4FA591B491EC914C
:10083000ED2381E090E021F480E002C080E090E0D0
:10084000DF91CF9108951F93CF93DF93282F30E04E
:10085000F901E45EFE4F8491F901E357FF4FD49113
:10086000F901EF55FF4FC491CC23C9F0162F811128
:100870000E94C301EC2FF0E0EE0FFF1FEA58FF4F7C
:10088000A591B4918FB7F894111105C09C91ED2FEB
:10089000E095E92302C0EC91ED2BEC938FBFDF9143
:1008A000CF911F910895CF93DF9390E0FC01E35720
:1008B000FF4F2491FC01EF55FF4F8491882361F194
:1008C00090E0880F991FFC01ED57FF4FC591D4911F
:1008D000FC01EA58FF4FA591B491611109C09FB77F
:1008E000F8948881209582238883EC912E230BC075
:1008F000623061F49FB7F8943881822F809583230A
:100900008883EC912E2B2C939FBF06C08FB7F89451
:10091000E8812E2B28838FBFDF91CF9108951F93FD
:10092000CF93DF93182FEB0161E00E9453042097CF
:1009300011F460E004C0CF3FD10539F461E0812FAC
:10094000DF91CF911F910C942304E12FF0E0E45E3E
:10095000FE4FE491E330F9F048F4E130B9F0E230D1
:10096000A1F584B5806284BDC8BD34C0E730E9F02C
:10097000E83019F1E43049F580918000806280937D
:100980008000D0938B00C0938A0024C084B5806817
:1009900084BDC7BD1FC080918000806880938000A7
:1009A000D0938900C093880015C08091B000806802
:1009B0008093B000C093B3000DC08091B0008062FE
:1009C0008093B000C093B40005C0C038D1050CF0CE
:1009D000B5CFAFCFDF91CF911F9108953FB7F89476
:1009E0008091480490914904A0914A04B0914B042D
:1009F00026B5A89B05C02F3F19F00196A11DB11D7A
:100A00003FBFBA2FA92F982F8827820F911DA11DB4
:100A1000B11DBC01CD0142E0660F771F881F991FF1
:100A20004A95D1F708952FB7F894609144047091D6
:100A3000450480914604909147042FBF0895609328
:100A40003F04709340048093410490934204DC017E
:100A5000CB01845D9E4FAF4FBF4F80933B0490937B
:100A60003C04A0933D04B0933E0482E090E0909358
:100A70003A04809339040E941305609335047093FF
:100A80003604809337049093380408951F920F9290
:100A90000FB60F9211242F933F938F939F93AF9391
:100AA000BF938091440490914504A0914604B09175
:100AB00047043091430423E0230F2D3720F401969F
:100AC000A11DB11D05C026E8230F0296A11DB11D71
:100AD000209343048093440490934504A0934604D8
:100AE000B09347048091480490914904A0914A042E
:100AF000B0914B040196A11DB11D809348049093C1
:100B00004904A0934A04B0934B04BF91AF919F91C5
:100B10008F913F912F910F900FBE0F901F901895BE
:100B20001F920F920FB60F9211242F933F934F9362
:100B30005F936F937F938F939F93EF93FF93409176
:100B4000F2045091F3046091F4047091F50441159E
:100B500051056105710599F08091A203E091A3030D
:100B6000F091A40390818927808314161506160638
:100B70001706D4F4415051096109710915C08091DB
:100B800070008D7F809370009091A203E091A30389
:100B9000F091A4038081282F30E0892F90E0809588
:100BA00090958223932380834093F2045093F3041F
:100BB0006093F4047093F504FF91EF919F918F91EE
:100BC0007F916F915F914F913F912F910F900FBE49
:100BD0000F901F9018951F920F920FB60F9211242D
:100BE0002F933F938F939F93AF93BF93EF93FF9375
:100BF0008091F6049091F704A091F804B091F90463
:100C0000892B8A2B8B2B51F18091A503E091A603B0
:100C1000F091A7039081892780838091F6049091B9
:100C2000F704A091F804B091F904181619061A06F1
:100C30001B064CF58091F6049091F704A091F804FE
:100C4000B091F9040197A109B1098093F60490933A
:100C5000F704A093F804B093F90415C080916F00D5
:100C60008D7F80936F009091A503E091A603F09192
:100C7000A7038081282F30E0892F90E08095909500
:100C8000822393238083FF91EF91BF91AF919F9136
:100C90008F913F912F910F900FBE0F901F9018953D
:100CA0001F920F920FB60F9211242F933F938F93A1
:100CB0009F93AF93BF93EF93FF938091FA0490912A
:100CC000FB04A091FC04B091FD04892B8A2B8B2B93
:100CD00051F18091A803E091A903F091AA039081BA
:100CE000892780838091FA049091FB04A091FC04F1
:100CF000B091FD04181619061A061B064CF58091D2
:100D0000FA049091FB04A091FC04B091FD040197BA
:100D1000A109B1098093FA049093FB04A093FC0409
:100D2000B093FD0415C080916E008D7F80936E009E
:100D30009091A803E091A903F091AA038081282F44
:100D400030E0892F90E080959095822393238083D3
:100D5000FF91EF91BF91AF919F918F913F912F9113
:100D60000F900FBE0F901F9018953F924F925F9279
:100D70006F927F928F929F92AF92BF92CF92DF92AB
:100D8000EF92FF920F931F93CF93DF93382E962EFF
:100D9000842EF90184E6E816F1042CF082EBE81ABF
:100DA00087E0F80A03C08EE1E80EF11CE092D90357
:100DB0000093D803E093D7033092D5039092D403E5
:100DC0008092D303AE2DB0E020E833E341EE51E052
:100DD0000E9438282B013C0122EB37E0FF2484E6F7
:100DE000C82ED12CC0E9D1E0C901825B97408E1595
:100DF0009F05DCF4C90183709927892B99F4C901F7
:100E0000B6010E941B23892B31F4C901BE010E9447
:100E10001B23892B39F480E8480E81E5581E81E0B8
:100E2000681E711C2F5F3F4FDFCF8EE4E81A88EFFA
:100E3000F80AC70164E670E00E941B236C01C70139
:100E400060E971E00E941B235C01C1E0D0E0112742
:100E500083E0E822FF24C017D1072CF5C230D1056A
:100E600089F4E114F10471F4C114D10419F4A1144A
:100E7000B10441F480E8480E8BE3581E86E2681EF8
:100E8000711C0FC0DE01A65BBD4FAC91B0E020E845
:100E900031E541E050E00E943828460E571E681E9A
:100EA000791E2196D8CF292D30E0ACE3B0E00E9426
:100EB0007A286B017C01C80CD11CE11CF11C232D8C
:100EC00030E0A0E1BEE00E947A28C60ED71EE81EE0
:100ED000F91EDF01BB27119720E831E541E050E022
:100EE0000E947623DC01CB018C0D9D1DAE1DBF1D24
:100EF000BC01CD01640D751D861D971DDF91CF913D
:100F00001F910F91FF90EF90DF90CF90BF90AF9027
:100F10009F908F907F906F905F904F903F900C9438
:100F20001F05CF92DF92EF92FF920F931F930E94C3
:100F30001305C0903504D0903604E0903704F0904B
:100F400038048B019C010C191D092E093F09809161
:100F50003F0490914004A0914104B0914204083EA6
:100F6000134021053105D0F00196A11DB11D8093DC
:100F70003F0490934004A0934104B0934204B7010E
:100F8000A60148515C4F6F4F7F4F409335045093FB
:100F900036046093370470933804C9CF40913B0402
:100FA00050913C0460913D0470913E048417950774
:100FB000A607B70788F1E0913304F0913404309725
:100FC00059F10995611571058105910519F00E9486
:100FD0001F0522C080913F0490914004A0914104DC
:100FE000B0914204845D9E4FAF4FBF4F80933B044E
:100FF00090933C04A0933D04B0933E0481E090E0C4
:101000002091390430913A04232B11F480E090E0D0
:1010100090933A048093390460913F0470914004A6
:1010200080914104909142041F910F91FF90EF90A5
:10103000DF90CF9008954F925F926F927F928F9240
:101040009F92AF92BF92CF92DF92EF92FF920F9357
:101050001F93CF93DF934B015C0180912F049091FC
:101060003004A0913104B091320488169906AA0682
:10107000BB0609F4C2C08CE3C82ED12CE12CF12CA4
:10108000C501B401A70196010E942F236093D303E9
:10109000CA01B901A70196010E942F236093D403CE
:1010A000CA01B90128E130E040E050E00E942F235E
:1010B00069017A016093D503CA01B9016C5F7F4F62
:1010C0008F4F9F4F27E030E040E050E00E942F23F9
:1010D0006F5F6093D603412C512C320140E004E64F
:1010E00010E0C0E9D1E0242F30E02E54384FF90150
:1010F000E370FF27309789F4C901B8010E941B23D0
:10110000892B31F4C901BE010E941B23892B29F4CC
:101110008EE691E0A0E0B0E004C08DE691E0A0E0B2
:10112000B0E0480E591E6A1E7B1ED301C201AA27D9
:10113000BB27C816D906EA06FB0610F04F5FD3CFCF
:101140004093D903309799F4C90164E670E00E9496
:101150001B23892B39F4C90160E971E00E941B232C
:10116000892B29F48EE691E0A0E0B0E004C08DE682
:1011700091E0A0E0B0E0481A590A6A0A7B0AC41854
:10118000D508E608F708C90164E670E00E941B2351
:10119000EC01C90160E971E00E941B23ABE4B2E0FD
:1011A00020E0213039F4309749F4209729F4009752
:1011B00029F402C04C9103C04DE101C04CE150E064
:1011C00060E070E0C416D506E606F70640F0C41AE3
:1011D000D50AE60AF70A2F5F11962C3011F72F5F18
:1011E0002093D803C394C092D70380922F04909287
:1011F0003004A0923104B0923204DF91CF911F915C
:101200000F91FF90EF90DF90CF90BF90AF909F90A5
:101210008F907F906F905F904F9008950E949107FC
:101220000E941B088091D90390E08E54984F089536
:101230000E9491070E941B088091D80390E00895B6
:101240000E9491070E941B088091D70390E00895A7
:101250000E9491070E941B088091D30390E008959B
:101260000E9491070E941B088091D40390E008958A
:101270000E9491070E941B088091D50390E0089579
:10128000CF92DF92EF92FF92CF93DF93EC010E9417
:1012900013056B017C018F850E94FA0321E0892BE5
:1012A00009F420E0298B8889811103C081E082271D
:1012B000898B29898A89281721F0CD8ADE8AEF8ACD
:1012C000F88E8D899E89AF89B88DB701A601481B1C
:1012D000590B6A0B7B0BDB01CA01CB80DC80ED80F4
:1012E000FE80C416D506E606F70664F43A81231795
:1012F00049F02A83222331F04B895C894F5F5F4F8D
:101300005C8B4B8B3A8131110CC0CF80D884E9843F
:10131000FA84C816D906EA06FB06ACF48B899C89C8
:101320000EC0CB84DC84ED84FE84C816D906EA06A0
:10133000FB064CF48B899C89919581959109998341
:1013400088831C8A1B8A2A8BDF91CF91FF90EF90B4
:10135000DF90CF90089585ED8093BC008091BC0014
:1013600084FDFCCF1092CD04089540918204262F75
:1013700030E0240F311D21323105DCF42091CD0401
:101380002430C9F4FC0180E090E0861758F43091D5
:1013900082042191DC01A05ABB4FA30FB11D2C93F5
:1013A0000196F3CF80918204680F6093820480E0FD
:1013B000089581E0089582E008950895E091AC03D6
:1013C0008091AB03E81730F4F0E0E355FC4F8081E7
:1013D00090E008958FEF9FEF08959091AC03809176
:1013E000AB03981750F4E92FF0E0E355FC4F208150
:1013F00030E09F5F9093AC0302C02FEF3FEFC90135
:1014000008958091AB0390E02091AC03821B910979
:101410000895CF92DF92EF92FF920F931F93CF9395
:10142000DF937C01262F972F8A018091CE04882399
:1014300091F0C62FD72F6E01C40ED51ECC15DD0539
:1014400071F06991D701ED91FC910190F081E02D4F
:10145000C7010995F3CF642F822F0E94B509C801F7
:10146000DF91CF911F910F91FF90EF90DF90CF9080
:101470000895CF93DF931F92CDB7DEB76983209194
:10148000CE042223D1F02091F104203240F021E05B
:1014900030E0FC013383228380E090E015C080912E
:1014A000CF04E82FF0E0E053FB4F998190838F5FEA
:1014B0008093CF048093F10405C061E0CE010196D2
:1014C0000E94B50981E090E00F90DF91CF910895DF
:1014D0000F931F93CF93DF931F92CDB7DEB78C018D
:1014E000862FF8016787408B91E04927418B428B1B
:1014F000148A138A118210821282158A168A178A18
:10150000108E44E150E060E070E0438354836583D3
:1015100076834AEF50E060E070E047835087618750
:10152000728748EE53E060E070E043875487658738
:10153000768760E029830E945304F801808929811D
:1015400081110BC0222349F061E087850F90DF9164
:10155000CF911F910F910C9423040F90DF91CF91A5
:101560001F910F9108951F920F920FB60F921124A1
:101570002F933F934F935F936F937F938F939F939B
:10158000AF93BF93EF93FF938091B900887F80362C
:1015900009F49CC068F5883209F45BC090F480318E
:1015A00009F454C038F4882309F4F6C0883009F4EB
:1015B0004DC0F6C0883109F44CC0803209F45DC0DA
:1015C000EFC0803409F468C048F4803309F455C092
:1015D000883309F0E5C08093CB04D8C0803509F486
:1015E0004FC0883509F45DC0883409F0D9C0D6C031
:1015F000883909F4C7C0A8F4883709F467C038F4FB
:10160000883609F463C0803709F460C0C9C08838DF
:1016100009F4B8C0803909F45FC0803809F0C0C04F
:101620005BC0803B09F486C038F4803A09F466C098
:10163000883A09F47FC0B4C0803C09F4A7C0883C54
:1016400009F4A4C0883B09F48AC0AAC08091A80408
:1016500010C09091CA048091C904981770F5E09168
:10166000CA0481E08E0F8093CA04F0E0E755FB4F77
:1016700080818093BB0085EC86C08093CB048EC0B4
:10168000E091CA0481E08E0F8093CA048091BB0070
:10169000F0E0E755FB4F80839091CA048091C90424
:1016A0006EC0E091CA0481E08E0F8093CA048091DD
:1016B000BB00F0E0E755FB4F80838091CC048111A3
:1016C0006DC081E08093A70484EA61C083E08093C9
:1016D000CD041092A604CFCF8091A604803208F0EA
:1016E00051C0E091A60481E08E0F8093A604809102
:1016F000BB00F0E0EA57FB4F8083BDCF85EC8093C1
:10170000BC001092CD048091A604803230F4E091A8
:10171000A604F0E0EA57FB4F10826091A60470E047
:10172000E0918404F091850486E894E00995109294
:10173000A60436C084E08093CD04109283041092F6
:101740008204E0918004F0918104099580918204E3
:10175000811105C081E08093820410926004E091C1
:10176000830481E08E0F80938304F0E0E05AFB4F06
:1017700080818093BB0090918304809182049817AC
:1017800008F479CF85E88093BC000AC085EC80938B
:10179000BC001092CD0404C01092CB040E94AB098F
:1017A000FF91EF91BF91AF919F918F917F916F9139
:1017B0005F914F913F912F910F900FBE0F901F900F
:1017C00018950C942A280C94222888E090E00E9416
:1017D000E30B682F89E00E94230489E090E00E94D7
:1017E000E30B682F86E00E9423048AE090E00E94C9
:1017F000E30B682F83E00C9423040F931F938091D5
:10180000210190912201892B09F455C080915F0438
:101810008823A9F00E94130500915B0410915C04D9
:1018200020915D0430915E04DC01CB01801B910BA3
:10183000A20BB30B893E9340A105B105C8F5809179
:101840005F04811138C00E94380920911B0130913A
:101850001C018217930779F50E94300920911D0120
:1018600030911E018217930731F50E9428092091BB
:101870001F013091200182179307E9F40E9413059C
:1018800060935B0470935C0480935D0490935E04AA
:1018900081E080935F0480E391E00E948111809158
:1018A0000001909101019093E6038093E50303C04A
:1018B00010925F04C4CF1F910F910895CF93DF93CF
:1018C000EC01019628812A33D9F78981843639F5CC
:1018D0001092D2031092D10323964AE0FE01888130
:1018E000219690ED980F2091D1033091D2039A3038
:1018F00080F4429FB001439F700D1124082E000C0C
:10190000990BC097860F971F9093D2038093D103B2
:10191000E5CF1216130614F420930301EF0121966C
:1019200088818F3689F48A81082E000C990B9C01DE
:10193000205331093093D2032093D103C3970597E5
:1019400010F42093020124968881823629F51092A2
:10195000D2031092D103FE0132964AE0819190EDBC
:10196000980F2091D1033091D2039A3080F4429F96
:10197000B001439F700D1124082E000C990BC097E5
:10198000860F971F9093D2038093D103E7CF3093B4
:10199000260120932501EF01209125013091260198
:1019A000032E000C440B550B60E67AEE80E090E0CD
:1019B0000E945123DA01C90122E0880F991FAA1F52
:1019C000BB1F2A95D1F78093CD039093CE03A093AC
:1019D000CF03B093D003CE01DF91CF910895CF9282
:1019E000DF92EF92FF921F93CF93DF93CDB7DEB7D5
:1019F0002C970FB6F894DEBF0FBECDBF182F6AED3F
:101A000072E0CE0101960E943803133029F422E0DF
:101A100030E040E050E00FC01C3029F424E030E01A
:101A200042E050E008C01033B9F42091F80530913D
:101A3000F90544E050E064EF75E0CE0107960E949E
:101A40004D03BE01695F7F4FCE0101960E94B9022E
:101A5000CE0107960E94F20289819A81009729F0AF
:101A60000E9482266B017C0103C0C12CD12C76011F
:101A7000CE0101960E94F202C6012C960FB6F89490
:101A8000DEBF0FBECDBFDF91CF911F91FF90EF90D2
:101A9000DF90CF9008950F931F93CF93DF93909192
:101AA000DB03911103C080E090E07EC09091DA03E7
:101AB0009923C9F3D82FC091E30380915304811176
:101AC0000DC00E94130560934F04709350048093DF
:101AD00051049093520481E0809353040E941305B3
:101AE00000914F0410915004209151043091520400
:101AF000DC01CB01801B910BA20BB30B8D3291400B
:101B0000A105B105F0F00E94130560934F04709396
:101B10005004809351049093520480914E0491E0BC
:101B2000982790934E04992329F010924D04109217
:101B30004C0407C08091E30390E090934D048093A0
:101B40004C0420914C0430914D048901009510956E
:101B50004091DC0350E04023512346FF02C061E086
:101B600001C060E088E00E9423044091DC0350E063
:101B700098012423352327FF02C061E001C060E003
:101B80008CE00E94230480914E04882309F48BCFBB
:101B90008C2F90E002C095958795DA95E2F78170D9
:101BA0009927919581959109DF91CF911F910F917F
:101BB00008950F931F93CF93DF93CDB7DEB762974E
:101BC0000FB6F894DEBF0FBECDBF8C014AE06A307D
:101BD00071054CF5CE010D960E94F70263ED72E09F
:101BE000CE0101960E943803BE016F5F7F4FCE0188
:101BF00007960E942F03BE01635F7F4FCE010796B9
:101C00000E948F02BC01C8010E942F03CE010796DB
:101C10000E94F202CE0101960E94F202CE010D96C0
:101C20000E94F20202C00E94F702C80162960FB63B
:101C3000F894DEBF0FBECDBFDF91CF911F910F9102
:101C400008950F931F93CF93DF93CDB7DEB76897B7
:101C50000FB6F894DEBF0FBECDBF8B01833091F479
:101C60002091F8053091F90542E050E064EF75E00D
:101C7000CE010D960E944D03B801CE0101960E943F
:101C8000D90D55C08C3009F042C02091F805309133
:101C9000F90544E050E064EF75E0CE0143960E9400
:101CA0004D03B801CE010D960E94D90D22E030E01F
:101CB00040E050E064EF75E0CE0101960E944D03D4
:101CC000BE016F5F7F4FCE0107960E942F03BE01BA
:101CD000635F7F4FCE0107960E948F02BE016D5E4B
:101CE0007F4F0E948F02BC0184EF95E00E94A20208
:101CF000CE0107960E94F202CE0101960E94F202E6
:101D0000CE010D960E94F202CE0143962DC0803383
:101D100069F5CE010D960E94D90D24E030E040E037
:101D200050E064EF75E0CE0101960E944D03BE01C4
:101D30006F5F7F4FCE0107960E942F03BE01635F46
:101D40007F4FCE0107960E948F02BC0184EF95E081
:101D50000E94A202CE0107960E94F202CE010196D5
:101D60000E94F202CE010D960E94F20268960FB612
:101D7000F894DEBF0FBECDBFDF91CF911F910F91C1
:101D800008950E9413056093DF037093E00380932E
:101D9000E1039093E2038091E403882309F44CC0AB
:101DA0002091DD033091DE03C901880F991F2E3089
:101DB000310551F0FC01E95FFE4F408151814150F6
:101DC0005109518340830AC040912301509124015D
:101DD0004C5051095093240140932301DC01A95F29
:101DE000BE4F6D917C911197FC01EB58FD4F4081E6
:101DF0005181641775073CF4FC01E95AFD4F40819D
:101E000051814D935C932D30310569F4209121016E
:101E1000309122012130310521F420E82093DC03A8
:101E200002C01092DC03FC01E95FFE4F608171810A
:101E30008091E3030C94210E08950E941305609392
:101E4000DF037093E0038093E1039093E2038091BA
:101E5000E403882309F441C02091DD033091DE03BF
:101E6000C901880F991F2E30310551F0FC01E95F3F
:101E7000FE4F408151814F5F5F4F518340830AC0C5
:101E80004091230150912401445F5F4F50932401FE
:101E900040932301DC01A95FBE4F6D917C911197A6
:101EA000FC01E95AFD4F40815181461757073CF428
:101EB000FC01EB58FD4F408151814D935C932D30D7
:101EC000310511F41092DC03FC01E95FFE4F6081E3
:101ED00071818091E3030C94210E08958EBD000062
:101EE0000DB407FEFDCF8EB508953F924F925F92DD
:101EF0006F927F928F929F92AF92BF92CF92DF921A
:101F0000EF92FF920F931F93CF93DF9300D000D0F7
:101F1000CDB7DEB72091FF0427FDAAC149835A83BC
:101F20006B837C838C0161E08091FE040E945304EA
:101F30003090FF04832D8D7F4801A12CB12C09F036
:101F4000B7C060E072E18AE790E0A50194010E94C9
:101F5000512329013A0169017A0121E0C21AD1080D
:101F6000E108F1088FEFC816D104E104F10409F08B
:101F700008F44CC060E472E48FE090E0A5019401A5
:101F80000E94512369017A0191E0C91AD108E10840
:101F9000F108A2E03A1220C0BFEFCB16D104E10451
:101FA000F10409F008F462C160E970ED83E090E0AB
:101FB000A50194010E94512369017A01E1E0CE1A42
:101FC000D108E108F108FFEFCF16D104E104F104D4
:101FD00009F0C0F583E065C02FEFC216D104E1041B
:101FE000F104B1F0A8F068E478EE81E090E0A5019A
:101FF00094010E94512369017A0181E0C81AD10835
:10200000E108F108332009F4D9C027C181E001C0FB
:1020100082E0332091F045C0D301C2012AE0B5959A
:10202000A795979587952A95D1F76C017D01E1E0F9
:10203000CE1AD108E108F10885E095B5987F892B83
:1020400085BD66C068E478EE81E090E0A50194016A
:102050000E94512369017A01B1E0CB1AD108E1084D
:10206000F108EFEFCE16D104E104F10409F008F411
:10207000A3C064E274EF80E090E0A50194010E94A7
:10208000512369017A0191E0C91AD108E108F108E8
:10209000AFEFCA16D104E104F10411F008F0B0C0AA
:1020A00085E09091B100987F892B8093B10030C07A
:1020B00060E072E18AE790E0A50194010E9451235B
:1020C00069017A01F1E0CF1AD108E108F108C114E1
:1020D000D10421E0E206F10488F068E478EE81E0C2
:1020E00090E0A50194010E94512369017A0181E0E9
:1020F000C81AD108E108F10893E001C091E0A1E01D
:102100003A1206C080918100887F892B80938100DC
:1021100089819A81AB81BC81892B8A2B8B2B81F0A1
:10212000D801AA0FBB1F29813A814B815C810E9493
:10213000382828EE33E040E050E00E942F2303C00F
:102140002FEF3FEFA90191E03916A1F0A2E03A1676
:1021500019F131108DC0C7BC2093FA043093FB04F1
:102160004093FC045093FD0480916E008260809344
:102170006E007EC0D0928900C09288002093F60441
:102180003093F7044093F8045093F90480916F0062
:10219000826080936F006CC0C092B3002093F20401
:1021A0003093F3044093F4045093F504809170004D
:1021B0008260809370005CC084E073CF8FEFC8169C
:1021C000D104E104F104D1F0C8F062E17AE780E0E3
:1021D00090E0A50194010E94512369017A01F1E088
:1021E000CF1AD108E108F1082FEFC216D104E1049B
:1021F000F10411F008F010CF84E01FCF83E01DCF71
:1022000062E17AE780E090E0A50194010E94512309
:1022100069017A0191E0C91AD108E108F108AFEF2C
:10222000CA16D104E104F104B1F0A8F0D301C2014F
:102230004AE0B595A795979587954A95D1F76C0192
:102240007D01E1E0CE1AD108E108F108332009F45C
:10225000F3CE87E026CF86E0DCCEBFEFCB16D104ED
:10226000E104F10409F060F684E0D3CE82E019CFF6
:102270000F900F900F900F90DF91CF911F910F91C2
:10228000FF90EF90DF90CF90BF90AF909F908F9096
:102290007F906F905F904F903F900895009769F006
:1022A000FC0101900020E9F73197AF01481B590B61
:1022B000BC0180E095E00C94CC0080E090E00895B3
:1022C0000F931F93CF93DF938C01C0E0D0E0F80110
:1022D000EC0FFD1F6491662371F0E0910005F09111
:1022E00001050190F081E02D80E095E00995892BB2
:1022F00011F02196ECCFCE01DF91CF911F910F917C
:102300000895CF93DF930E946011EC018FEB92E070
:102310000E944E118C0F9D1FDF91CF9108958F92D7
:102320009F92AF92BF92CF92DF92EF92FF920E9464
:10233000EE044B015C0188EEC82E83E0D82EE12C20
:10234000F12C0E94EE04DC01CB0188199909AA093D
:10235000BB09883E9340A105B10558F021E0C21A9F
:10236000D108E108F10888EE880E83E0981EA11CD0
:10237000B11CC114D104E104F10419F7FF90EF90EE
:10238000DF90CF90BF90AF909F908F9008958F92E5
:102390009F92AF92BF920F931F93CF93DF93CDB7CE
:1023A000DEB7A1970FB6F894DEBF0FBECDBF19A25E
:1023B000423008F44AE08E010F5D1F4F842E912CAD
:1023C000A12CB12CA50194010E942F23E62FB90165
:1023D000CA0101501109EA3014F4E05D01C0E95C62
:1023E000D801EC93232B242B252B61F7C8010E94E5
:1023F0004E11A1960FB6F894DEBF0FBECDBFDF9190
:10240000CF911F910F91BF90AF909F908F900895A3
:102410002091F1049091F004213208F04AC080919B
:10242000CD048111FCCF32E03093CD0431E0309304
:10243000CC043FEF3093CB041092CA042093C9041C
:10244000A0EDB4E049EA54E0FA013E2F341B321704
:1024500018F43D913193F9CF1092A8042091A8046B
:10246000990F922B9093A8049091A704913061F456
:102470001092A7049091A8049093BB009091BC0087
:1024800093FDF8CF95EC01C095EE9093BC00909130
:10249000CD049230E1F39091CB049F3F79F080918D
:1024A000CB04803241F08091CB04803331F084E062
:1024B00005C081E003C082E001C083E01092CF0438
:1024C0001092F1041092CE040895CF92DF92EF9211
:1024D000FF92CF93DF936C01990FEE08FF08F7FE90
:1024E0001AC0E0910005F09101050190F081E02D06
:1024F0006DE280E095E00995EC0166277727CB0136
:102500006C197D098E099F094AE00E94C7117C0160
:10251000EC0EFD1E06C04AE0C701B6010E94C711BD
:102520007C018FEB92E00E944E118E0D9F1DDF917A
:10253000CF91FF90EF90DF90CF900895CF93DF93EE
:10254000CDB7DEB7CC56D1090FB6F894DEBF0FBEBB
:10255000CDBF789484B5826084BD84B5816084BD2C
:1025600085B5826085BD85B5816085BD80916E0031
:10257000816080936E001092810080918100826062
:10258000809381008091810081608093810080919F
:1025900080008160809380008091B100846080938E
:1025A000B1008091B00081608093B00080917A008A
:1025B000846080937A0080917A00826080937A00B0
:1025C00080917A00816080937A0080917A0080689F
:1025D00080937A001092C10060E085E00E9423049D
:1025E0001092AC031092AB031092CF041092F1043E
:1025F0001092CD0481E08093CC041092A70461E096
:1026000082E10E94230461E083E10E94230480911F
:10261000B9008E7F8093B9008091B9008D7F80933F
:10262000B90088E48093B80085E48093BC00E09111
:102630001005F091110582E08083E0910C05F09186
:102640000D051082E0910E05F0910F0580E1808369
:1026500010921805E0911405F091150586E080832D
:10266000E0911205F0911305808180618083E091F3
:102670001205F0911305808188608083E091120536
:10268000F0911305808180688083E0911205F091BC
:10269000130580818F7D808381E090E00E94E30BB1
:1026A0008C3019F088E190E002C08CE090E09093CB
:1026B00024018093230180E090E00E94E30B8823B3
:1026C00021F081E08093040102C01092040182E0B5
:1026D00090E00E94E30B8F3F29F410921C011092AE
:1026E0001B0105C090E090931C0180931B0183E0C7
:1026F00090E00E94E30B8F3F29F410921E0110928C
:102700001D0105C090E090931E0180931D0184E09F
:1027100090E00E94E30B8F3F29F410922001109269
:102720001F0105C090E09093200180931F0186E077
:1027300090E00E94E30B8F3F29F410922201109247
:10274000210105C090E0909322018093210187E050
:1027500090E00E94E30B8F3F19F41092280406C00A
:1027600091E0811101C090E09093280483EB92E006
:102770000E944E118091280490E00E94651261E051
:1027800089E00E94530461E086E00E94530461E006
:1027900083E00E9453048091E703833008F083C0F4
:1027A00092E09093FE04E82FF0E0E058FF4FE491B0
:1027B000E093FF048F5F8093E703E13031F1E23073
:1027C00009F44AC0E11172C014BC15BC84B5826022
:1027D00084BD85B5816085BD8091FE0490E0FC01DB
:1027E000EF55FF4FE491F0E0EE0FFF1FEA58FF4F67
:1027F000259134913093AA032093A903FC01E35758
:10280000FF4FE491E093A80351C010928000109212
:102810008100809181008860809381008091810097
:102820008160809381008091FE0490E0FC01EF556F
:10283000FF4FE491F0E0EE0FFF1FEA58FF4F2591A4
:1028400034913093A7032093A603FC01E357FF4F75
:10285000E491E093A5032AC01092B0001092B10059
:102860008091B00082608093B0008091B10081605F
:102870008093B1008091FE0490E0FC01EF55FF4F82
:10288000E491F0E0EE0FFF1FEA58FF4F25913491DD
:102890003093A4032093A303FC01E357FF4FE4917B
:1028A000E093A20303C08FEF8093FF0480910001A7
:1028B000909101010E945E0C9093010180930001B0
:1028C00061E08AE00E94530461E085E00E945304C5
:1028D0001FB7F8948091E803811127C0EBEAF0E07C
:1028E0008491E7E9F0E09491E82FF0E0EE0FFF1F0C
:1028F000ED57FF4FA591B491EC91E92321F461E0EC
:102900008AE00E94230461E08AE00E9453048CB5AF
:1029100080618CBD8CB580648CBD61E08DE00E94CF
:10292000530461E08BE00E9453048091E8038F5FC1
:102930008093E8031FBF8CB58C608CBD8CB5836021
:102940008CBD8DB58E7F8DBD62E08EE00E945304FC
:1029500062E080E10E94530462E08FE00E94530431
:1029600061E082E00E94530404E110E020E030E0E6
:102970000093DE051093DF052093E0053093E10519
:102980004EE150E060E070E04093E2055093E305D3
:102990006093E4057093E50580ED97E0A0E0B0E07A
:1029A0008093E6059093E705A093E805B093E905C9
:1029B0000093C5051093C6052093C7053093C8053D
:1029C0004093C9055093CA056093CB057093CC051D
:1029D0008093CD059093CE05A093CF05B093D005FD
:1029E0000093AC051093AD052093AE053093AF0571
:1029F0004093B0055093B1056093B2057093B30551
:102A00008093B4059093B505A093B605B093B70530
:102A100083ED90E00E94601124E030E042E050E05D
:102A20006AEF75E0CE0101960E944D0322E030E08E
:102A300041E050E06AEF75E0CE01815B9F4F0E945C
:102A40004D03BE01615B7F4FCE01875B9F4F0E94AC
:102A50002F036DEB72E0CE01875B9F4F0E947602E1
:102A6000BE016F5F7F4F0E948F02FC014481558140
:102A70006081718180E095E00E94CC008FEB92E054
:102A80000E944E11CE01875B9F4F0E94F202CE0141
:102A9000815B9F4F0E94F202CE0101960E94F202DA
:102AA00088EC90E00E94811183E480937C00809107
:102AB0007A00806480937A0080917A0086FDFCCF52
:102AC000609178008091790070E0782B072E000CDF
:102AD000880B990B0E94052720E030E040EA50E483
:102AE0000E94642723E333E343E950E40E94642710
:102AF00020E030E040E85AE30E94642723E333E318
:102B000043E35FE30E94CA236B017C018FEB90E0FB
:102B10000E946011A7019601C701B6010E947124AD
:102B2000882319F082EC92E01AC046015701E8941C
:102B3000B7F82FEF3FEF4FE75FE7C501B4010E9401
:102B4000712481110FC02FEF3FEF4FE75FE7C50101
:102B5000B4010E94FE2618162CF486EC92E00E9426
:102B60004E117BC02FEF3FEF4FE75FE4C701B60187
:102B70000E946C2418161CF48AEC92E0F0CF2FEF20
:102B80003FEF4FE75FECC701B6010E94FE2687FDCD
:102B9000F3CF20E030E0A901C701B6010E94FE2674
:102BA00087FF0FC0E0910005F09101050190F081D1
:102BB000E02D6DE280E095E00995C701B6019058DF
:102BC00002C0C701B6012AE037ED43EA5BE30E9489
:102BD000CA232B013C010E943D244B015C010E9451
:102BE00003279B01AC01C301B2010E94C9232B0141
:102BF0003C014AE0C501B4010E94C7118DEB92E08F
:102C00000E944E1120E030E040E251E4C301B201E5
:102C10000E9464272B013C010E943D244B01A12C02
:102C2000B12C4AE0C501B4010E94C711C501B4012D
:102C30000E9403279B01AC01C301B2010E94C9237A
:102C400020E030E040E251E40E9464270E943D24ED
:102C500080E090E04AE00E94C711809100019091CD
:102C600001019093E6038093E5030E945E0C6FEFF1
:102C700070E089E00E948F040E948F1160E070E094
:102C800089E00E948F046FEF70E086E00E948F045D
:102C90000E948F1160E070E086E00E948F046FEF69
:102CA00070E083E00E948F040E948F116EEC72E04E
:102CB000CE0101960E94380365ED72E0CE010796C1
:102CC0000E9438036CED72E0CE010D960E9438032D
:102CD00063EE72E0CE0143960E9438036AEE72E022
:102CE000CE0149960E94380361EF72E0CE014F9603
:102CF0000E94380368EF72E0CE0185960E94380387
:102D00006FEF72E0CE018B960E94380366E073E0AD
:102D1000CE01C1960E9438036DE073E0CE01C796E4
:102D20000E94380361EC72E0CE01CD960E94380318
:102D300061EC72E0CE018D5B9F4F0E94380320E072
:102D400030E040E251E4C701B6010E94FE2620E0D7
:102D500030E048EC52E487FF0FC0C701B6010E9483
:102D600064270E9436244AE0CE01875B9F4F0E9471
:102D7000F70261ED72E00EC0C701B6010E94642740
:102D80000E9436244AE0CE01875B9F4F0E94F702E3
:102D900062ED72E0CE01815B9F4F0E943803BE015D
:102DA000675B7F4FCE01815B9F4F0E948F02BC010A
:102DB000CE01CD960E94A202CE01815B9F4F0E9460
:102DC000F202CE01875B9F4F0E94F2026AEF75E02C
:102DD000CE018D5B9F4F0E94A2020E941305AB960D
:102DE0006CAF7DAF8EAF9FAFAB9761E085E00E9487
:102DF000230444244A9424EF31E0AD963FAF2EAF34
:102E0000AD97A2961FAEA2971AE0812E912CA12C0D
:102E1000B12C8FE00E94FA03892B21F431E0A296B5
:102E20003FAFA29780E10E94FA03892B19F4A29682
:102E30001FAEA297BCE02B2E312C41E0A3964FAFE2
:102E4000A3970E941305DC01CB01AB962CAD3DADE1
:102E50004EAD5FADAB97821B930BA40BB50BAD963C
:102E60004EAD5FADAD978A01550F220B330B08179E
:102E700019072A073B0708F097C10E941305AB9674
:102E80006CAF7DAF8EAF9FAFAB97A2965FADA297B1
:102E9000511101C043946AE0461639F08CE04812A3
:102EA0000AC0A3961FAEA39706C0E8EBFBE0AD9661
:102EB000FFAFEEAFAD9761E070E06C0F7D1FF6E005
:102EC000F49D600D711D112484EF95E00E94A20213
:102ED0008091F4059091F505009719F00E948226E3
:102EE00003C060E070E0CB01A50194010E94512372
:102EF000A7962CAF3DAF4EAF5FAFA797660F771F7A
:102F0000FB01E553FE4F40815181F6E0440F551F10
:102F1000FA95E1F79A0140E050E060E070E080E06F
:102F200090E000E30E947E23E22E532E3A016B01D3
:102F3000F82E192FA7966CAD7DAD8EAD9FADA797DE
:102F4000A50194010E945123A7962CAF3DAF4EAF2F
:102F50005FAFA797660F771FFB01E553FE4F4081D8
:102F60005181B6E0440F551FBA95E1F79A0140E050
:102F700050E060E070E080E090E006E20E947E2396
:102F8000E22A532A642A752AC62AD72AF82A192B34
:102F9000A7966CAD7DAD8EAD9FADA797A5019401B1
:102FA0000E945123A7962CAF3DAF4EAF5FAFA797BE
:102FB000660F771FFB01E553FE4F4081518186E08C
:102FC000440F551F8A95E1F79A0140E050E060E018
:102FD00070E080E090E00CE10E947E23E22A532A18
:102FE000642A752AC62AD72AF82A192BA7966CAD07
:102FF0007DAD8EAD9FADA797A50194010E94512391
:10300000A7962CAF3DAF4EAF5FAFA797660F771F68
:10301000FB01E553FE4F4081518126E0440F551FCF
:103020002A95E1F79A0140E050E060E070E080E02E
:1030300090E002E10E947E23E22A532A642A752A44
:10304000C62AD72AF82A192BA7966CAD7DAD8EAD6E
:103050009FADA797A50194010E945123A7962CAF7D
:103060003DAF4EAF5FAFA797660F771FFB01E553EC
:10307000FE4F4081518166E0440F551F6A95E1F78C
:103080009A0140E050E060E070E080E090E008E00D
:103090000E947E23E22A532A642A752AC62AD72A46
:1030A000F82A192BA7966CAD7DAD8EAD9FADA79775
:1030B000A50194010E945123660F771FFB01E55380
:1030C000FE4F40815181F6E0440F551FFA95E1F71C
:1030D00056954795569547952E2D242B352D352BF6
:1030E000A301B6018F2D912F04E00E949923122F86
:1030F000532E3A016B017C0161E08AE00E942304B7
:10310000212F352DA301B601C70108E30E949923A1
:10311000822F0E946E0F212F352DA301B601C7010A
:1031200000E30E949923822F0E946E0F212F352DDC
:10313000A301B601C70108E20E949923822F0E94D1
:103140006E0F212F352DA301B601C70100E20E94A9
:103150009923822F0E946E0F212F352DA301B601D6
:10316000C70108E10E949923822F0E946E0F212F30
:10317000352DA301B601C70100E10E949923822FDA
:103180000E946E0F212F352DA301B601C70108E063
:103190000E949923822F0E946E0F812F0E946E0F32
:1031A00060E08AE00E94230421E0221A310809F03D
:1031B00048CE8BE39FE10197F1F7A3963FADA3972C
:1031C000311127CE85EB90E00E9481118E01075BC3
:1031D0001F4FD02EC12EAE014F5F5F4F1A01065018
:1031E0001109C8010E94F20202151305C1F780916E
:1031F000280481110E94E50B81E08093CE0488E6CB
:103200008093F0041092CF041092F10460E08DE9F5
:1032100095E00E94390A0E9408128091CD04811124
:10322000FCCF81E08093CD048093CC049FEF9093FA
:10323000CB041092CA0496E09093C9048093A8042A
:103240008091A804806D8093A8048091A7048130A8
:1032500061F41092A7048091A8048093BB00809130
:10326000BC0083FDF8CF85EC01C085EE8093BC00E7
:103270008091CD048130E1F38091CA04873018F445
:103280008091CA0401C087E0A9EAB4E02DEA33E0E6
:10329000F9019E2F921B981718F49D919193F9CFE5
:1032A0001092AC038093AB038DE995E00E94ED0989
:1032B000982F92959F708F705AE0959F800D1124E2
:1032C000682E712C7092F0036092EF038DE995E007
:1032D0000E94ED09982F92959F708F706AE0969FDB
:1032E000800D1124882E912C9092EE038092ED0394
:1032F0008DE995E00E94ED09982F96959695969503
:103300009670A92EAA0CAA0CA90E8F708A0DA82E51
:10331000B12CB092EC03A092EB038DE995E00E94F2
:10332000ED09982F92959F708F70EAE09E9F800D17
:10333000112490E09093EA038093E9038DE995E0EE
:103340000E94ED09982F92959F708F70FAE09F9FD1
:10335000800D1124482E512C5092F2034092F1031B
:103360008DE995E00E94ED09982F92959F708F70DE
:103370002AE0929F800D1124082F10E01093F4038F
:103380000093F3038DE995E00E94ED09982F929543
:103390009F708F703AE0939F800D1124E82EF12CDE
:1033A000F092F603E092F5039201A301B401C50186
:1033B0000E94B50660E085E00E94230461E085E09C
:1033C0000E9423040091E5031091E603F801808137
:1033D000882309F43EC10E9413058090FD0390905C
:1033E000FE03A090FF03B0900004DC01CB0188191C
:1033F0009909AA09BB098090F9039090FA03A0905B
:10340000FB03B090FC0388169906AA06BB0608F0D9
:1034100020C10E9413054B015C016093FD03709372
:10342000FE038093FF03909300041092D203109246
:10343000D103C8017C01FC011081019640ED410FD0
:103440002091D1033091D2034A3088F4FAE0F29F00
:10345000A001F39F500D1124E12F110FFF0BF097E6
:10346000E40FF51FF093D203E093D103E3CF609113
:10347000CD037091CE038091CF039091D00321159D
:10348000310529F0032E000C440B550B05C020918B
:10349000030130E040E050E00E9451232093F90303
:1034A0003093FA034093FB035093FC03812F110FD9
:1034B000990BAA0BBB0BFC01E156F109E730F105B2
:1034C00020F4EC5CFF4F0C9470231092F80317C0AB
:1034D00081E001C083E08093F80311C085E0FBCF59
:1034E000F6E0F093F8030BC028E02093F80307C040
:1034F0003AE03093F80303C04CE04093F803F7013F
:103500008181833221F0FFEFEF1AFF0A08C080911A
:10351000F8038F5F8093F80322E0E20EF11CF701BD
:1035200080818E32F9F44090F9035090FA03609054
:10353000FB037090FC03C301B20122E030E040E0E5
:1035400050E00E945123420E531E641E751E40928D
:10355000F9035092FA036092FB037092FC03FFEFB1
:10356000EF1AFF0AF701808180538A3030F480938C
:10357000F703FFEFEF1AFF0A04C080910201809366
:10358000F7032091F703F70180818C3219F4FFEFE4
:10359000EF1AFF0A4091F803442309F45DC04090FC
:1035A000F9035090FA036090FB037090FC0330E045
:1035B000245031095CE0529FC001539F900D1124AB
:1035C000FC01E40FF11DEE0FFF1FEB5BFE4FB3019B
:1035D000A201808191810E94750F0E941305DC0178
:1035E000CB0188199909AA09BB09481659066A0628
:1035F0007B0690F50E9413056093FD037093FE0314
:103600008093FF03909300048091FF04813051F078
:10361000823071F0811111C080916E008D7F809396
:103620006E000BC080916F008D7F80936F0005C08E
:10363000809170008D7F8093700060E08091FE0427
:103640000E94230486EE90E00E94811190E080E0C9
:1036500005C0902F812F02C09E2D8F2D9093E503E2
:103660008093E6030E94130500912B0410912C0413
:1036700020912D0430912E04DC01CB01801B910B95
:10368000A20BB30B0697A105B10508F489C0809180
:103690000401811110C060E070E089E00E948F0495
:1036A00060E070E086E00E948F0460E070E083E0FC
:1036B0000E948F046BC080912804811167C0009123
:1036C000030410910404C801880F991F800F911FF3
:1036D000FC01EE0FFF1FE955FE4F6091050170914F
:1036E000060120813181620F731F70930601609380
:1036F0000501FC01EE0FFF1FE755FE4F209120044E
:1037000030912104E080F180E20EF31EF09221045A
:10371000E0922004880F991FFC01E555FE4F80912F
:103720001E0490911F04A080B180A80EB91EB09213
:103730001F04A0921E0489E00E948F04B70186E056
:103740000E948F04B50183E00E948F0480910104E0
:1037500090910204019690930204809301048F3F9C
:10376000910551F40F5F1F4F10930404009303045D
:1037700010920204109201048091030490910404B9
:10378000069724F010920404109203040E9413057B
:1037900060932B0470932C0480932D0490932E043B
:1037A0000E94EE0400910504109106042091070484
:1037B00030910804DC01CB01801B910BA20BB30BF1
:1037C0008A319144A105B10508F4B4C10E94EE0408
:1037D0006093050470930604809307049093080493
:1037E00060E08AE00E9423048091F4059091F50541
:1037F000009719F00E94822603C060E070E0CB01C0
:103800002AE030E040E050E00E94512329013A01D3
:10381000660F771FFB01E553FE4F0081118185E0A4
:1038200090E00E944B0D802B912B06E0880F991F92
:103830000A95E1F79C0140E050E060E070E080E034
:1038400090E000E30E947E23A2962FAFA297832EE2
:10385000942EA52EB62EE72EF82EA3969FAFA397F3
:10386000C301B2012AE030E040E050E00E94512361
:1038700029013A01660F771FFB01E553FE4F0081D6
:10388000118184E090E00E944B0D802B912BAC01C4
:1038900096E0440F551F9A95E1F79A0140E050E0F9
:1038A00060E070E080E090E006E20E947E23A29655
:1038B000EFADA297E22BA296EFAFA297832A942AAC
:1038C000A52AB62AE72AF82AA396FFADA397F92BD3
:1038D000A396FFAFA397C301B2012AE030E040E016
:1038E00050E00E94512329013A01660F771FFB0126
:1038F000E553FE4F0081118183E090E00E944B0D63
:10390000802B912BAC0136E0440F551F3A95E1F71F
:103910009A0140E050E060E070E080E090E00CE16F
:103920000E947E23A296EFADA297E22BA296EFAF64
:10393000A297832A942AA52AB62AE72AF82AA396C8
:10394000FFADA397F92BA396FFAFA397C301B201D5
:103950002AE030E040E050E00E94512329013A0182
:10396000660F771FFB01E553FE4F0081118182E056
:1039700090E00E944B0D802B912BAC0166E0440F30
:10398000551F6A95E1F79A0140E050E060E070E071
:1039900080E090E002E10E947E23A296EFADA29724
:1039A000E22BA296EFAFA297832A942AA52AB62AE1
:1039B000E72AF82AA396FFADA397F92BA396FFAFAA
:1039C000A397C301B2012AE030E040E050E00E943A
:1039D000512329013A01660F771FFB01E553FE4F82
:1039E0000081118181E090E00E944B0D802B912B92
:1039F000AC01F6E0440F551FFA95E1F79A0140E05B
:103A000050E060E070E080E090E008E00E947E23FB
:103A1000A2960FADA297022B832A942AA52AB62A32
:103A2000E72AF82AA3961FADA397192BC301B20169
:103A30002AE030E040E050E00E945123660F771FFB
:103A4000FB01E553FE4F4080518080E090E00E94F2
:103A50004B0D84299529AC01B6E0440F551FBA954A
:103A6000E1F75695479556954795202F242B382DED
:103A7000352B492D5A2D6B2D7E2D8F2D912F04E046
:103A80000E949923122F732E4A015B017C0108E3E7
:103A90000E949923822F0E946E0F212F372DA4019F
:103AA000B501C70100E30E949923822F0E946E0F87
:103AB000212F372DA401B501C70108E20E949923E7
:103AC000822F0E946E0F212F372DA401B501C7014F
:103AD00000E20E949923822F0E946E0F212F372D22
:103AE000A401B501C70108E10E949923822F0E9419
:103AF0006E0F212F372DA401B501C70100E10E94EF
:103B00009923822F0E946E0F212F372DA401B5011A
:103B1000C70108E00E949923822F0E946E0F812F17
:103B20000E946E0F61E08AE00E94230460E08AE058
:103B30000E9423048BED95E00E94400982EC95E001
:103B40000E94400989EA95E00E9440098091E403BF
:103B5000811103C01092E3032BC00E941305009152
:103B6000DF031091E0032091E1033091E203DC01D7
:103B7000CB01801B910BA20BB30B81369A4EA10592
:103B8000B105B0F01092E403E091DD03F091DE03A3
:103B9000EE0FFF1FE35DFD4F808191819093DE0367
:103BA0008093DD03FC01E25EFD4F80818093E3039F
:103BB0008091DB059091DC05181619060CF097C171
:103BC0001092E6031092E50344E650E060E070E0F6
:103BD00088EE93E00E94750F0E9413056093DF0347
:103BE0007093E0038093E1039093E2038091DD03FF
:103BF0009091DE0301968430910529F09093DE03C5
:103C00008093DD0304C01092DE031092DD0384E094
:103C100091E00E9460118091DD039091DE030E948B
:103C200065128DEF90E00E946011E091DD03F0914C
:103C3000DE03EE0FFF1FE95FFE4F808191810E943E
:103C400065122091DD033091DE03F901E25EFD4F44
:103C500080818093E30321503109F901EE0FFF1FAA
:103C6000E050FE4F408151814115510509F430C1AA
:103C7000CA010197FC01EE0FFF1FEE51FE4F60815C
:103C800071816217730709F023C14230510569F54C
:103C900028E1EDE2F1E0D10101900D922A95E1F7E2
:103CA0002091190130911A0123703327232B21F41D
:103CB0004DE150E05C834B8320911501309116015A
:103CC000E0911701F09118013197EE0FFF1FE20DFF
:103CD000F31D40815181421753073CF487E090E087
:103CE0009093DE038093DD0335C41092E403909338
:103CF000DE038093DD03892BB9F40E940E097C0159
:103D00000E9418098C010E942009409113015091D2
:103D1000140160911101709112019C0180910F01B9
:103D2000909110010E94B5068091DD039091DE0311
:103D30000197E9F4E0901901F0901A0150E3E51AB7
:103D400058EFF50A009117011091180160901501C4
:103D5000709016010E9428094C010E9430095C01F4
:103D60000E9438099301A401B5010E94B506809113
:103D7000DD039091DE030297C1F460911B0182E0A4
:103D800090E00E94E10B60911D0183E090E00E94B1
:103D9000E10B60911F0184E090E00E94E10B6091D3
:103DA000210186E090E00E94E10B8091DD0390917B
:103DB000DE03039731F46091230181E090E00E94DB
:103DC000E10B60E085E00E9423040E940E0968EE8A
:103DD00073E00E941B23182F0E941809082F0E94CD
:103DE0002009F82E0E942809A82E0E943009B82E1A
:103DF0000E943809E82E81E08093CE0488E6809303
:103E0000F0041092CF041092F10460E08DE995E087
:103E10000E94390A8A2D6AE00E940F23692FE0E18F
:103E20008E9F600D11248DE995E00E94390A8B2D3B
:103E30006AE00E940F23692FF0E18F9F600D11242B
:103E40008DE995E00E94390A8E2D6AE00E940F23C9
:103E5000692F20E1829F600D11248DE995E00E9479
:103E6000390A61E08DE995E00E94390A8F2D6AE0F8
:103E70000E940F23692F30E1839F600D11248DE98B
:103E800095E00E94390A802F6AE00E940F23692F73
:103E900040E1849F600D11248DE995E00E94390A6C
:103EA000812F6AE00E940F23692F50E1859F600DEA
:103EB00011248DE995E00E94390A60E08DE995E0D2
:103EC0000E94390A0E94081261E085E00E942304E2
:103ED0000091DD031091DE038091E3030E94EF0C5B
:103EE000000F111FF801E95FFE4F918380838091DD
:103EF000DB059091DC0597FF88C044E650E060E068
:103F000070E088EE93E00E94750F8091E4038111C8
:103F10004DC00E9413056093DF037093E00380930C
:103F2000E1039093E2038091DD039091DE03892BFE
:103F3000E9F50E942809BC01C1010E94D90D0E9427
:103F40003009BC018D2D9C2D0E94D90D0E9438098D
:103F5000BC01CE018B5A9F4F0E94D90DBE016B5AF6
:103F60007F4FCE01815B9F4F0E942F036D2D7C2DD3
:103F7000CE01815B9F4F0E948F02B1010E948F0290
:103F8000BC0184EF95E00E94A202CE01815B9F4FAD
:103F90000E94F202CE018B5A9F4F0E94F2028D2D99
:103FA0009C2D0E94F202C1010E94F202E091DD0309
:103FB000F091DE03EE0FFF1FE35DFD4F00811181E5
:103FC0001093DE030093DD030A30110549F481E00C
:103FD00090E0909322018093210180E88093DC039C
:103FE0009091E40381E089278093E403F801E25E85
:103FF000FD4F80818093E3030E94EF0C000F111F9F
:10400000F801E95FFE4F918380838091C205909112
:10401000C305009701F190932A0480932904181690
:104020001906CCF41092E6031092E50344E650E042
:1040300060E070E088EE93E00E94750F0E941D0F13
:104040008091E403811107C01092280460E087E0AA
:1040500090E00E94E10B8091290490912A0401963E
:1040600061F58091C405882341F11092DB038091B2
:10407000E403882329F10E94130500912404109180
:1040800025042091260430912704DC01CB01801BFC
:10409000910BA20BB30B87399105A105B10580F0F7
:1040A0000E941305609324047093250480932604D2
:1040B000909327040E941D0F03C081E08093DB03CF
:1040C0008091A9059091AA05009799F190932304F6
:1040D000809322041816190664F51092E6031092D4
:1040E000E50344E650E060E070E088EE93E00E9473
:1040F000750F0E94C10E8091E40381111AC081E006
:104100008093280461E087E090E00E94E10B6091D9
:10411000050188E090E00E94E10B6091200489E0B5
:1041200090E00E94E10B60911E048AE090E00E9402
:10413000E10B8091220490912304019661F5809116
:10414000AB05882341F11092DA038091E4038823C0
:1041500029F10E94130500911A0410911B0420916B
:104160001C0430911D04DC01CB01801B910BA20BC0
:10417000B30B87399105A105B10580F00E941305A5
:1041800060931A0470931B0480931C0490931D0485
:104190000E94C10E03C081E08093DA038091E403A2
:1041A00081113DC08091C2059091C30597FF1AC04F
:1041B00044E650E060E070E088EE93E00E94750F06
:1041C00081E08093040161E080E090E00E94E10BD7
:1041D00084E193E00E944E118FEB92E00E944E1119
:1041E0000E94E50B8091A9059091AA0597FF17C041
:1041F00044E650E060E070E088EE93E00E94750FC6
:104200001092040160E080E090E00E94E10B8BE1FD
:1042100093E00E944E118FEB92E00E944E1180912C
:10422000DD039091DE038130910509F402C11CF495
:10423000892B61F18FC18230910509F43DC103974B
:1042400009F088C160912301709124014AE0C10105
:104250000E94F70262ED72E08D2D9C2D0E943803C2
:10426000B1018D2D9C2D0E948F0262ED72E00E94A3
:104270007602BC0184EF95E00E94A2028D2D9C2D58
:104280000E94F202C1010E94F20260C10E94130565
:104290000091090410910A0420910B0430910C0440
:1042A000DC01CB01801B910BA20BB30B893E934029
:1042B000A105B10508F46EC00E94130560930904BE
:1042C00070930A0480930B0490930C048091230153
:1042D00090912401489789F40E942809BC01C101EA
:1042E0000E94D90D0E943009BC018D2D9C2D0E9489
:1042F000D90D0E943809BC011EC00E942809BC01CA
:10430000C1010E94D90D0E943009BC018D2D9C2D48
:104310000E94D90D0E9491070E941B088091D5032D
:10432000882339F0682F70E08D3028F06C507109C7
:1043300002C06CE070E0CE018B5A9F4F0E94D90DF5
:10434000BE016B5A7F4FCE01815B9F4F0E942F03AE
:104350006D2D7C2DCE01815B9F4F0E948F02B1019C
:104360000E948F02BC01CE01855A9F4F0E942F03ED
:10437000CE01815B9F4F0E94F202CE018B5A9F4F6C
:104380000E94F2028D2D9C2D0E94F202C1010E941A
:10439000F20207C064EF75E0CE01855A9F4F0E947C
:1043A0002F03BE01655A7F4F84EF95E00E94B9024A
:1043B000CE01855A9F4F0E94F20280911204811112
:1043C0000DC00E94130560930E0470930F04809338
:1043D00010049093110481E0809312040E9413054D
:1043E00000910E0410910F042091100430911104DB
:1043F000DC01CB01801B910BA20BB30B893E9340D8
:10440000A105B10508F4A4C00E94130560930E0431
:1044100070930F04809310049093110490910D04F5
:1044200081E0892780930D04882309F48FC080ECF4
:104430008AC00E940E0968EE73E00E941B23BC0133
:10444000C1010E94D90D0E941809BC018D2D9C2D1F
:104450000E94D90D0E942009BC01CE018B5A9F4FAA
:104460000E94D90DBE016B5A7F4FCE01815B9F4FD9
:104470000E942F036D2D7C2DCE01815B9F4F0E94EA
:104480008F02B1010E948F02BC0184EF95E00E946F
:10449000A202CE01815B9F4F0E94F202CE018B5A95
:1044A0009F4F0E94F2028D2D9C2D0E94F202C101AD
:1044B0000E94F20280E447C060911F0170912001C8
:1044C000C1010E94D90D60911D0170911E018D2DB9
:1044D0009C2D0E94D90D60911B0170911C01CE0191
:1044E0008B5A9F4F0E94D90DBE016B5A7F4FCE0150
:1044F000815B9F4F0E942F036D2D7C2DCE01815B30
:104500009F4F0E948F02B1010E948F02BC0184EF75
:1045100095E00E94A202CE01815B9F4F0E94F202B1
:10452000CE018B5A9F4F0E94F2028D2D9C2D0E942E
:10453000F202C1010E94F2028091210190912201B8
:10454000019721F480E88093DC0302C01092DC0321
:104550000E94FD0B0E94B9010C94E21984EF95E0D2
:104560000E94F2028AEF95E00C94F202E0E0F5E09E
:104570001382128288EE93E0A0E0B0E084839583FA
:10458000A683B78327E932E03183208325EC30E02E
:104590003587248724EC30E03787268720EC30E00D
:1045A000318B208B21EC30E0338B228B22EC30E0FE
:1045B000358B248B26EC30E0378B268B118E128EB8
:1045C000138E148EEDE9F5E01382128284839583B5
:1045D000A683B78387EA92E0918380836AE973E0D8
:1045E0008AEF95E00E9438036EEC72E084EF95E06C
:1045F0000E94380321E040E06EE08BED95E00E94E0
:10460000680A21E040E060E182EC95E00E94680ADF
:1046100021E040E06FE089EA95E00C94680A991B7C
:1046200079E004C0991F961708F0961B881F7A95A9
:10463000C9F78095089597FB072E16F4009407D0CC
:1046400077FD09D00E94B52307FC05D03EF4909574
:1046500081959F4F0895709561957F4F0895A1E2D0
:104660001A2EAA1BBB1BFD010DC0AA1FBB1FEE1FEC
:10467000FF1FA217B307E407F50720F0A21BB30B37
:10468000E40BF50B661F771F881F991F1A9469F7B3
:1046900060957095809590959B01AC01BD01CF010F
:1046A0000895052E97FB1EF400940E94682357FD81
:1046B00007D00E942F2307FC03D04EF40C946823EC
:1046C00050954095309521953F4F4F4F5F4F08953E
:1046D00090958095709561957F4F8F4F9F4F08956E
:1046E000EE0FFF1F0590F491E02D0994B7FF0C9495
:1046F00038280E943828821B930B08950F930830A6
:1047000090F0982F872F762F652F542F432F322F1D
:1047100022270850F4CF220F331F441F551F661F56
:10472000771F881F991F0A95B2F70F91089597FB7D
:1047300010F8169400080F93083098F00850232FB3
:10474000342F452F562F672F782F892F902DF4CF98
:1047500005949795879577956795579547953795DC
:1047600027950A95AAF70F910895AA1BBB1B51E143
:1047700007C0AA1FBB1FA617B70710F0A61BB70BD1
:10478000881F991F5A95A9F780959095BC01CD0176
:1047900008955058BB27AA270E94E1230C94E827CC
:1047A0000E94DA2738F00E94E12720F039F49F3F79
:1047B00019F426F40C94D7270EF4E095E7FB0C943B
:1047C000D127E92F0E94F92758F3BA176207730718
:1047D0008407950720F079F4A6F50C941B280EF4B5
:1047E000E0950B2EBA2FA02D0B01B90190010C0101
:1047F000CA01A0011124FF27591B99F0593F50F419
:10480000503E68F11A16F040A22F232F342F442770
:10481000585FF3CF469537952795A795F040539568
:10482000C9F77EF41F16BA0B620B730B840BBAF038
:104830009150A1F0FF0FBB1F661F771F881FC2F7A3
:104840000EC0BA0F621F731F841F48F487957795B7
:104850006795B795F7959E3F08F0B0CF9395880F71
:1048600008F09927EE0F9795879508950E943D24AB
:104870006894B1110C941C2808950E94012888F0B6
:104880009F5798F0B92F9927B751B0F0E1F0660F14
:10489000771F881F991F1AF0BA95C9F714C0B13055
:1048A00091F00E941B28B1E008950C941B28672FFB
:1048B000782F8827B85F39F0B93FCCF38695779584
:1048C0006795B395D9F73EF490958095709561956D
:1048D0007F4F8F4F9F4F08950E94402708F48FEF1E
:1048E00008950E944027880B990B0895CF93DF937A
:1048F0008230910510F482E090E0E0910206F091A0
:10490000030620E030E0C0E0D0E0309711F14081B4
:10491000518148175907C0F04817590761F482813F
:104920009381209719F09B838A832BC09093030671
:104930008093020626C02115310519F0421753074E
:1049400018F49A01BE01DF01EF010280F381E02D2E
:10495000DCCF2115310509F1281B390B2430310535
:1049600090F412968D919C9113976115710521F029
:10497000FB019383828304C0909303068093020615
:10498000FD01329644C0FD01E20FF31F8193919324
:10499000225031092D933C933AC02091000630916A
:1049A0000106232B41F42091290130912A013093F3
:1049B000010620930006209127013091280121153E
:1049C000310541F42DB73EB740912B0150912C0198
:1049D000241B350BE0910006F0910106E217F30766
:1049E000A0F42E1B3F0B2817390778F0AC014E5F5F
:1049F0005F4F2417350748F04E0F5F1F5093010695
:104A0000409300068193919302C0E0E0F0E0CF0173
:104A1000DF91CF9108950F931F93CF93DF9300976A
:104A200009F48CC0FC0132971382128200910206B5
:104A3000109103060115110581F420813181820F47
:104A4000931F20910006309101062817390779F548
:104A5000F0930106E093000671C0D80140E050E0F9
:104A6000AE17BF0750F412962D913C911397AD01EC
:104A70002115310509F1D901F3CF9D01DA01338305
:104A8000228360817181860F971F8217930769F4D3
:104A9000EC0128813981260F371F2E5F3F4F31836C
:104AA00020838A819B8193838283452B29F4F09311
:104AB0000306E093020642C01396FC93EE9312970E
:104AC000ED01499159919E01240F351FE217F3071B
:104AD00071F480819181840F951F029611969C93A9
:104AE0008E938281938113969C938E931297E0E02C
:104AF000F0E0D80112968D919C911397009719F0D0
:104B0000F8018C01F6CF8D919C9198012E5F3F4F5B
:104B1000820F931F20910006309101062817390754
:104B200069F4309729F4109203061092020602C02D
:104B3000138212821093010600930006DF91CF9139
:104B40001F910F910895A0E0B0E0E9EAF5E20C941E
:104B50004728EC01009721F4CB010E947624B8C0CD
:104B6000FC01E60FF71F9C0122503109E217F30701
:104B700008F4ACC0D9010D911C91119706171707C5
:104B8000B0F00530110508F49FC0C80104978617DE
:104B9000970708F499C002501109061B170B0193DF
:104BA00011936D937C93CF010E940B258DC05B0107
:104BB000A01AB10A4C01800E911EA0910206B0917C
:104BC000030640E050E0E12CF12C109709F44AC0B4
:104BD000A815B905D1F56D907C901197630182E01D
:104BE000C80ED11CCA14DB0480F1A3014A195B0969
:104BF0006A0182E0C80ED11C1296BC9012971396DF
:104C0000AC91B5E0CB16D10440F0B282A3835183BE
:104C10004083D9016D937C930AC00E5F1F4FC3017F
:104C2000800F911FF90191838083EB2DFA2FE114FE
:104C3000F10431F0D7011396FC93EE93129744C020
:104C4000F0930306E09302063FC08D919C9111976B
:104C50004817590708F4AC017D0112960D90BC91DC
:104C6000A02DB3CF8091000690910106881599057B
:104C7000E1F446175707C8F4809127019091280165
:104C8000009741F48DB79EB740912B0150912C01B4
:104C9000841B950BE817F907C8F4F0930106E0931D
:104CA0000006F901718360830FC0CB010E94762456
:104CB0007C01009759F0A801BE010E947226CE0126
:104CC0000E940B25C70104C0CE0102C080E090E025
:104CD000CDB7DEB7EEE00C94632881E090E0F89465
:104CE0000C948928FB01DC0102C001900D92415017
:104CF0005040D8F70895FB01DC0101900D9200208F
:104D0000E1F708951F93FC0199278827BC01E894D7
:104D100011911032E9F3193010F01E30C8F31B3234
:104D200051F01D3249F4689406C00E94BF26610FFD
:104D3000711D811D911D119110531A30B0F33EF475
:104D400090958095709561957F4F8F4F9F4F1F91E4
:104D500008954532510520F4423010F00C94B426E9
:104D6000FB011082CB010895BB274A3031F499230F
:104D700022F4BDE2909581959F4F0C94D526592F32
:104D8000482F372F262F660F771F881F991F660F12
:104D9000771F881F991F620F731F841F951F660F4F
:104DA000771F881F991F0895BB27FB015527AA2746
:104DB000880F991FAA1FA41710F0A41B83955051A8
:104DC000B9F7A05DAA3308F0A95DA193009779F720
:104DD000B111B1931192CB010C94EE26DC01FC01D0
:104DE000672F71917723E1F7329704C07C916D931F
:104DF00070836291AE17BF07C8F308950E944027E1
:104E000008F481E00895E89409C097FB3EF490957A
:104E10008095709561957F4F8F4F9F4F9923A9F093
:104E2000F92F96E9BB279395F69587957795679522
:104E3000B795F111F8CFFAF4BB0F11F460FF1BC066
:104E40006F5F7F4F8F4F9F4F16C0882311F096E9F9
:104E500011C0772321F09EE8872F762F05C06623A7
:104E600071F096E8862F70E060E02AF09A95660F60
:104E7000771F881FDAF7880F9695879597F9089519
:104E8000990F0008550FAA0BE0E8FEEF161617065B
:104E9000E807F907C0F012161306E407F50798F0C3
:104EA000621B730B840B950B39F40A2661F0232BDC
:104EB000242B252B21F408950A2609F4A140A69558
:104EC0008FEF811D811D08950E9477270C94E8279C
:104ED0000E94DA2738F00E94E12720F0952311F094
:104EE0000C94D1270C94D72711240C941C280E94D1
:104EF000F92770F3959FC1F3950F50E0551F629FFE
:104F0000F001729FBB27F00DB11D639FAA27F00D22
:104F1000B11DAA1F649F6627B00DA11D661F829F49
:104F20002227B00DA11D621F739FB00DA11D621F2E
:104F3000839FA00D611D221F749F3327A00D611D4B
:104F4000231F849F600D211D822F762F6A2F11242D
:104F50009F5750409AF0F1F088234AF0EE0FFF1F60
:104F6000BB1F661F771F881F91505040A9F79E3FB7
:104F7000510580F00C94D1270C941C285F3FE4F37A
:104F8000983ED4F3869577956795B795F795E7950D
:104F90009F5FC1F7FE2B880F911D9695879597F916
:104FA000089597F99F6780E870E060E008959FEFAB
:104FB00080EC089500240A941616170618060906B0
:104FC000089500240A94121613061406050608957F
:104FD000092E0394000C11F4882352F0BB0F40F407
:104FE000BF2B11F460FF04C06F5F7F4F8F4F9F4F47
:104FF000089557FD9058440F551F59F05F3F71F0C9
:105000004795880F97FB991F61F09F3F79F087952F
:105010000895121613061406551FF2CF4695F1DFB8
:1050200008C0161617061806991FF1CF8695710548
:10503000610508940895E894BB2766277727CB017C
:1050400097F90895F999FECF92BD81BDF89A9927F5
:1050500080B50895262FF999FECF1FBA92BD81BD64
:1050600020BD0FB6F894FA9AF99A0FBE01960895EA
:105070000E947A28A59F900DB49F900DA49F800D4B
:10508000911D112408952F923F924F925F926F923B
:105090007F928F929F92AF92BF92CF92DF92EF92C8
:1050A000FF920F931F93CF93DF93CDB7DEB7CA1B49
:1050B000DB0B0FB6F894DEBF0FBECDBF09942A8874
:1050C000398848885F846E847D848C849B84AA841C
:1050D000B984C884DF80EE80FD800C811B81AA81A9
:1050E000B981CE0FD11D0FB6F894DEBF0FBECDBF74
:1050F000ED010895A29FB001B39FC001A39F700D61
:10510000811D1124911DB29F700D811D1124911DCF
:10511000089510E0C0EAD0E004C0FE010E947023B0
:0C5120002196C13AD107C9F7F894FFCFDF
:10512C002303060401FF0000000000000000000043
:10513C000000000000000000000000000000000063
:10514C0000000018003F000000040680001F001C37
:10515C00001F001E001F001E001F001F001E001F4E
:10516C00001E001F00000006011501260137014A30
:10517C00015D01720188019F01B801D201EE010BA2
:10518C00022A024B026E029302BA02E40210033F9F
:10519C00037003A403DC03170455049704DD0427F0
:1051AC00057505C80520067D06E0064907B8072DDC
:1051BC0008A9082D09B9094D0AEA0A900B400CFA06
:1051CC000CC00D910E6F0F000000000100FFFF00DE
:1051DC0000000000000100000000000000FFFF01C3
:1051EC0000000000000000FFFF0000FEFFFDFFFBC1
:1051FC00FFF7FFEFFFDFFFBFFF7FFFFFFEFFFD0AA3
:10520C000908060009000D000E0000000000000057
:10521C000000000000000000000000000000000082
:10522C00000000000000000001000100010002006D
:10523C00020002000300030003000300040000004E
:10524C000000030C30030C30030C30C00C040007BE
:10525C00000A000E0000000000000000000000002A
:10526C0000000000000000000000001F1C1F1E1F9B
:10527C001E1F1F1E1F1E1F00000000000000001735
:10528C00003B003B001F000C00630017003B003B81
:10529C0000010018000000000000000C00000000DD
:1052AC0000000001000100000000000000000000F0
:1052BC00000C00000000005001CC001901F7000B9D
:1052CC0001970100000000390A090A010AED09DE04
:1052DC0009DD096C6564206C6F636B3D002E000D5D
:1052EC000A006E616E00696E66006F766600303083
:1052FC0030303030003131313131310032323232F4
:10530C0032320033333333333300343434343434C3
:10531C0000353535353535003636363636360037C8
:10532C003737373737003838383838380039393963
:10533C00393939005247423D6F6E005247423D6F3A
:10534C0066660050696E6B50616E746865723A6483
:10535C003D342C6F3D352C623D3136303A38642368
:10536C002C38652C32702C3866232C38672C327014
:10537C002C3864232C38652C3136702C3866232C51
:10538C0038672C3136702C3863362C38622C313619
:10539C00702C3864232C38652C3136702C38622CE8
:1053AC003261232C32702C3136612C3136672C3122
:1053BC0036652C3136642C32650030313032303069
:0253CC000000DF
:00000001FF
