:100000000C94AF000C94D7000C94D7000C94D7003C
:100010000C94D7000C94D7000C94D7000C94D90EF4
:100020000C94D7000C94D7000C94D7000C94340F88
:100030000C94D7000C94D7000C94990F0C94D70013
:100040000C948F0E0C94D7000C94110D0C94EB0CA7
:100050000C94D7000C94D7000C94D7000C94D700C4
:100060000C944B030C94D700041C061CFA1BFC1BBD
:10007000FE1B001C021C00000000250028002B00B5
:1000800002010000000000240027002A00010204F1
:10009000081020408001020408102001020408100A
:1000A0002004040404040404040202020202020301
:1000B000030303030353746F702054657374005576
:1000C00020696E7075743D005374617274205465BC
:1000D0007374004669726D7761726520766572731C
:1000E000696F6E3A20005761726E696E6721205207
:1000F000544320444F4E275420524553504F4E44B2
:100100002100496E636F727265637420536F6E676E
:1001100020466F726D6174210076616C75653D00DB
:100120006D656E75506F736974696F6E3D005761D0
:100130006B652075702C204E656F2100000000005B
:10014000230026002900000000080002010000032F
:1001500004070000000000000000192611261124E9
:100160001FBECFEFD8E0DEBFCDBF26E0ACEAB3E0E4
:1001700001C01D92A035B207E1F713E0A0E0B1E0A5
:10018000E2EFF7E502C005900D92AC3AB107D9F75E
:1001900010E0CEEAD0E004C02197FE010E9487293A
:1001A000CD3AD107C9F70E94C8140C94EC2B0C94DB
:1001B000000085ED8093BC008091BC0084FDFCCFE5
:1001C0001092190508954091AA04262F30E0240FBB
:1001D000311D21323105DCF4209119052430C9F498
:1001E000FC0180E090E0861758F43091AA04219138
:1001F000DC01A857BB4FA30FB11D2C930196F3CF81
:100200008091AA04680F6093AA0480E0089581E0B9
:10021000089582E008950895E091AD038091AC03C4
:10022000E81730F4F0E0E859FB4F808190E0089542
:100230008FEF9FEF08959091AD038091AC039817D5
:1002400050F4E92FF0E0E859FB4F208130E09F5F48
:100250009093AD0302C02FEF3FEFC9010895809145
:10026000AC0390E02091AD03821B91090895CF92D9
:10027000DF92EF92FF920F931F93CF93DF937C0156
:10028000262F972F8A0180911A05882391F0C62F77
:10029000D72F6E01C40ED51ECC15DD0571F0699106
:1002A000D701ED91FC910190F081E02DC7010995F6
:1002B000F3CF642F822F0E94E300C801DF91CF911A
:1002C0001F910F91FF90EF90DF90CF900895CF9303
:1002D000DF931F92CDB7DEB7698320911A052223E1
:1002E000D1F020913D05203240F021E030E0FC01CA
:1002F0003383228380E090E015C080911B05E82FB6
:10030000F0E0E45EFA4F998190838F5F80931B0544
:1003100080933D0505C061E0CE0101960E94E30097
:1003200081E090E00F90DF91CF9108958DEB93E005
:100330000C943B0C4F925F926F927F928F929F92A0
:10034000AF92BF92CF92DF92EF92FF920F931F93E3
:10035000CF93DF934B015C018091CF049091D00447
:10036000A091D104B091D20488169906AA06BB06C2
:1003700009F4C2C08CE3C82ED12CE12CF12CC501AC
:10038000B401A70196010E9446296093D304CA01D3
:10039000B901A70196010E9446296093D404CA01BD
:1003A000B90128E130E040E050E00E9446296901AF
:1003B0007A016093D504CA01B9016C5F7F4F8F4FFA
:1003C0009F4F27E030E040E050E00E9446296F5FF9
:1003D0006093D604412C512C320140E004E610E039
:1003E000C0E9D1E0242F30E02E54384FF901E370FA
:1003F000FF27309789F4C901B8010E943229892B5F
:1004000031F4C901BE010E943229892B29F48EE6FC
:1004100091E0A0E0B0E004C08DE691E0A0E0B0E0A3
:10042000480E591E6A1E7B1ED301C201AA27BB2794
:10043000C816D906EA06FB0610F04F5FD3CF4093EB
:10044000D904309799F4C90164E670E00E9432291A
:10045000892B39F4C90160E971E00E943229892BA6
:1004600029F48EE691E0A0E0B0E004C08DE691E0D2
:10047000A0E0B0E0481A590A6A0A7B0AC418D508F5
:10048000E608F708C90164E670E00E943229EC0131
:10049000C90160E971E00E943229ACE8B2E020E0D5
:1004A000213039F4309749F4209729F4009729F442
:1004B00002C04C9103C04DE101C04CE150E060E04E
:1004C00070E0C416D506E606F70640F0C41AD50A51
:1004D000E60AF70A2F5F11962C3011F72F5F209351
:1004E000D804C394C092D7048092CF049092D004D1
:1004F000A092D104B092D204DF91CF911F910F91BD
:10050000FF90EF90DF90CF90BF90AF909F908F9033
:100510007F906F905F904F9008950E94DA100E9434
:100520009A018091D50490E00895CF92DF92EF92E6
:10053000FF92CF93DF93EC010E945C0E6B017C0174
:100540008F850E94430D21E0892B09F420E0298B3F
:100550008889811103C081E08227898B29898A8952
:10056000281721F0CD8ADE8AEF8AF88E8D899E8940
:10057000AF89B88DB701A601481B590B6A0B7B0BDD
:10058000DB01CA01CB80DC80ED80FE80C416D5067D
:10059000E606F70664F43A81231749F02A832223FA
:1005A00031F04B895C894F5F5F4F5C8B4B8B3A819D
:1005B00031110CC0CF80D884E984FA84C816D906DA
:1005C000EA06FB06ACF48B899C890EC0CB84DC84E4
:1005D000ED84FE84C816D906EA06FB064CF48B8926
:1005E0009C89919581959109998388831C8A1B8A9E
:1005F0002A8BDF91CF91FF90EF90DF90CF900895FD
:100600000F931F93CF93DF931F92CDB7DEB78C016B
:10061000862FF8016787408B91E04927418B428BF9
:10062000148A138A118210821282158A168A178AF6
:10063000108E44E150E060E070E0438354836583B2
:1006400076834AEF50E060E070E04783508761872F
:10065000728748EE53E060E070E043875487658717
:10066000768760E029830E949C0DF80180892981AA
:1006700081110BC0222349F061E087850F90DF9143
:10068000CF911F910F910C946C0D0F90DF91CF9132
:100690001F910F9108951F920F920FB60F92112480
:1006A0002F933F934F935F936F937F938F939F937A
:1006B000AF93BF93EF93FF938091B900887F80360B
:1006C00009F49CC068F5883209F45BC090F480316D
:1006D00009F454C038F4882309F4F6C0883009F4CA
:1006E0004DC0F6C0883109F44CC0803209F45DC0B9
:1006F000EFC0803409F468C048F4803309F455C071
:10070000883309F0E5C080931705D8C0803509F417
:100710004FC0883509F45DC0883409F0D9C0D6C00F
:10072000883909F4C7C0A8F4883709F467C038F4D9
:10073000883609F463C0803709F460C0C9C08838BE
:1007400009F4B8C0803909F45FC0803809F0C0C02E
:100750005BC0803B09F486C038F4803A09F466C077
:10076000883A09F47FC0B4C0803C09F4A7C0883C33
:1007700009F4A4C0883B09F48AC0AAC08091F4049B
:1007800010C09091160580911505981770F5E091AD
:10079000160581E08E0F80931605F0E0EB50FB4FBD
:1007A00080818093BB0085EC86C0809317058EC046
:1007B000E091160581E08E0F809316058091BB00B5
:1007C000F0E0EB50FB4F808390911605809115056A
:1007D0006EC0E091160581E08E0F80931605809122
:1007E000BB00F0E0EB50FB4F808380911805811136
:1007F0006DC081E08093F30484EA61C083E080935C
:1008000019051092CE04CFCF8091CE04803208F02B
:1008100051C0E091CE0481E08E0F8093CE04809190
:10082000BB00F0E0E255FB4F8083BDCF85EC8093A9
:10083000BC00109219058091CE04803230F4E09112
:10084000CE04F0E0E255FB4F10826091CE0470E0E0
:10085000E091AC04F091AD048EEA94E00995109219
:10086000CE0436C084E0809319051092AB04109238
:10087000AA04E091A804F091A90409958091AA0422
:10088000811105C081E08093AA0410928804E09150
:10089000AB0481E08E0F8093AB04F0E0E857FB4F90
:1008A00080818093BB009091AB048091AA0498173B
:1008B00008F479CF85E88093BC000AC085EC80936A
:1008C000BC001092190504C0109217050E94D900AF
:1008D000FF91EF91BF91AF919F918F917F916F9118
:1008E0005F914F913F912F910F900FBE0F901F90EE
:1008F00018950C941A280C9412284F925F926F92BC
:100900007F928F929F92AF92BF92CF92DF92EF929F
:10091000FF920F931F93CF93DF9300D000D000D0AE
:10092000CDB7DEB77C014B015A018091C303882308
:1009300041F080915B0402E614E0ACE5B4E0F8011C
:1009400048C081E08093C30382E6682E84E0782E5D
:100950009CE5492E94E0592E00E010E00F5F1F4FF8
:10096000680181E0C81AD1089801A601B401CE013E
:1009700001960E94960CCE0101960E94860BF3010F
:1009800061933F01CE0101960E943B0C9801A601A4
:10099000B501CE0101960E94960CCE0101960E94EF
:1009A000860BF20161932F01CE0101960E943B0C50
:1009B0000630110599F6BDCF2C9192130DC0908190
:1009C0009A3009F410823196119694E0E836F907CE
:1009D00031F090818A3080F79F5F9083F0CF8F5FF6
:1009E000843119F080935B0404C010925B04109270
:1009F000C30366EC72E0C7010E94810CFE013196D0
:100A00006F01F80181918F014AE0B60190E00E94E8
:100A1000A426F60101900020E9F73197AF014C19A7
:100A20005D09B601C7010E94910BF4E008361F076B
:100A300041F7C70126960FB6F894DEBF0FBECDBFB3
:100A4000DF91CF911F910F91FF90EF90DF90CF90AA
:100A5000BF90AF909F908F907F906F905F904F90DE
:100A6000089588E090E00E947B04682F89E00E944E
:100A70006C0D89E090E00E947B04682F86E00E9464
:100A80006C0D8AE090E00E947B04682F83E00C9458
:100A90006C0D0F931F938091250190912601892B56
:100AA00009F455C080915A048823A9F00E945C0E75
:100AB0000091560410915704209158043091590424
:100AC000DC01CB01801B910BA20BB30B893E934041
:100AD000A105B105C8F580915A04811138C00E9462
:100AE0008D0220911F01309120018217930779F523
:100AF0000E948611209121013091220182179307D3
:100B000031F50E947E11209123013091240182173A
:100B10009307E9F40E945C0E6093560470935704A7
:100B2000809358049093590481E080935A048EE294
:100B300091E00E949A13809100019091010190939D
:100B4000D0038093CF0303C010925A04C4CF1F91E7
:100B50000F910895CF93DF93EC01019628812A33FA
:100B6000D9F78981843639F51092BC031092BB0302
:100B700023964AE0FE018881219690ED980F2091FE
:100B8000BB033091BC039A3080F4429FB001439F75
:100B9000700D1124082E000C990BC097860F971F1B
:100BA0009093BC038093BB03E5CF1216130614F495
:100BB00020930301EF01219688818F3689F48A8181
:100BC000082E000C990B9C01205331093093BC0373
:100BD0002093BB03C397059710F42093020124963A
:100BE0008881823629F51092BC031092BB03FE0166
:100BF00032964AE0819190ED980F2091BB0330919D
:100C0000BC039A3080F4429FB001439F700D1124C1
:100C1000082E000C990BC097860F971F9093BC036A
:100C20008093BB03E7CF30932A0120932901EF0182
:100C30002091290130912A01032E000C440B550B01
:100C400060E67AEE80E090E00E946829DA01C9014E
:100C500022E0880F991FAA1FBB1F2A95D1F7809306
:100C6000B7039093B803A093B903B093BA03CE012E
:100C7000DF91CF910895CF92DF92EF92FF921F9371
:100C8000CF93DF93CDB7DEB72C970FB6F894DEBFC6
:100C90000FBECDBF182F6FED72E0CE0101960E94FE
:100CA000810C133029F422E030E040E050E00FC026
:100CB0001C3029F424E030E042E050E008C010335A
:100CC000B9F4209144063091450644E050E060E4D8
:100CD00076E0CE0107960E94960CBE01695F7F4FB9
:100CE000CE0101960E94020CCE0107960E943B0C99
:100CF000CE0101960E94860B6B017C01CE0101960C
:100D00000E943B0CC6012C960FB6F894DEBF0FBEB6
:100D1000CDBFDF91CF911F91FF90EF90DF90CF90EB
:100D200008950F931F93CF93DF939091C503911173
:100D300003C080E090E07EC09091C4039923C9F382
:100D4000D82FC091CB0380914E0481110DC00E9419
:100D50005C0E60934A0470934B0480934C04909310
:100D60004D0481E080934E040E945C0E00914A0481
:100D700010914B0420914C0430914D04DC01CB01C7
:100D8000801B910BA20BB30B8D329140A105B105D5
:100D9000F0F00E945C0E60934A0470934B048093C1
:100DA0004C0490934D048091490491E098279093CE
:100DB0004904992329F0109248041092470407C06F
:100DC0008091CB0390E09093480480934704209156
:100DD0004704309148048901009510954091C6035D
:100DE00050E04023512346FF02C061E001C060E0B3
:100DF00088E00E946C0D4091C60350E098012423C6
:100E0000352327FF02C061E001C060E08CE00E9452
:100E10006C0D80914904882309F48BCF8C2F90E0CE
:100E200002C095958795DA95E2F78170992791959B
:100E300081959109DF91CF911F910F91089581E0E4
:100E400080931A0588E680933C0510921B0510924A
:100E50003D0560E089EE95E00E9467010E942C1438
:100E6000809119058111FCCF81E080931905809351
:100E700018059FEF909317051092160596E0909332
:100E800015058093F4048091F404806D8093F4043C
:100E90008091F304813061F41092F3048091F404A2
:100EA0008093BB008091BC0083FDF8CF85EC01C02E
:100EB00085EE8093BC00809119058130E1F380912B
:100EC0001605873018F48091160501C087E0A5EF5C
:100ED000B4E028E634E0F9019E2F921B981718F42D
:100EE0009D919193F9CF1092AD038093AC0389EE5D
:100EF00095E00E941B01982F92959F708F702AE0B9
:100F0000929F800D112490E09093D6038093D50397
:100F100089EE95E00E941B01982F92959F708F702B
:100F20002AE0929F800D112490E09093D403809347
:100F3000D30389EE95E00E941B01982F9695969514
:100F400096959670292F220F220F920F8F70890F7E
:100F500090E09093D2038093D10389EE95E00E94B4
:100F60001B01982F92959F708F702AE0929F800DA1
:100F7000112490E0909346048093450489EE95E017
:100F80000E941B01982F92959F708F702AE0929F6C
:100F9000800D112490E09093D8038093D70389EEBD
:100FA00095E00E941B01982F92959F708F702AE008
:100FB000929F800D112490E09093DA038093D903DF
:100FC00089EE95E00E941B01982F92959F708F707B
:100FD0002AE0929F800D112490E09093DC0380938F
:100FE000DB0308950F931F93CF93DF93CDB7DEB745
:100FF00062970FB6F894DEBF0FBECDBF8C014AE0FA
:101000006A3071054CF5CE010D960E94400C68EDDA
:1010100072E0CE0101960E94810CBE016F5F7F4F8E
:10102000CE0107960E94780CBE01635F7F4FCE0110
:1010300007960E94D80BBC01C8010E94780CCE0113
:1010400007960E943B0CCE0101960E943B0CCE01FC
:101050000D960E943B0C02C00E94400CC801629693
:101060000FB6F894DEBF0FBECDBFDF91CF911F91B9
:101070000F9108950F931F93CF93DF93CDB7DEB7F2
:1010800068970FB6F894DEBF0FBECDBF8B018330DB
:1010900091F4209144063091450642E050E060E42E
:1010A00076E0CE010D960E94960CB801CE01019615
:1010B0000E94F20755C08C3009F042C020914406CE
:1010C0003091450644E050E060E476E0CE0143967E
:1010D0000E94960CB801CE010D960E94F20722E004
:1010E00030E040E050E060E476E0CE0101960E94FE
:1010F000960CBE016F5F7F4FCE0107960E94780C61
:10110000BE01635F7F4FCE0107960E94D80BBE01E0
:101110006D5E7F4F0E94D80BBC0180E496E00E9478
:10112000EB0BCE0107960E943B0CCE0101960E946C
:101130003B0CCE010D960E943B0CCE0143962DC078
:10114000803369F5CE010D960E94F20724E030E06D
:1011500040E050E060E476E0CE0101960E94960CFB
:10116000BE016F5F7F4FCE0107960E94780CBE01D3
:10117000635F7F4FCE0107960E94D80BBC0180E4CD
:1011800096E00E94EB0BCE0107960E943B0CCE012D
:1011900001960E943B0CCE010D960E943B0C689676
:1011A0000FB6F894DEBF0FBECDBFDF91CF911F9178
:1011B0000F9108950E945C0E6093C7037093C8035B
:1011C0008093C9039093CA038091CC03882309F4C8
:1011D0004CC02091CD033091CE03C901880F991FD7
:1011E0002E30310551F0FC01E55FFE4F4081518109
:1011F00041505109518340830AC0409127015091C9
:1012000028014C5051095093280140932701DC01DB
:10121000A55FBE4F6D917C911197FC01E259FD4F86
:1012200040815181641775073CF4FC01E05BFD4F80
:10123000408151814D935C932D30310569F42091AB
:101240002501309126012130310521F420E8209339
:10125000C60302C01092C603FC01E55FFE4F608129
:1012600071818091CB030C943A0808950E945C0E22
:101270006093C7037093C8038093C9039093CA0314
:101280008091CC03882309F441C02091CD03309193
:10129000CE03C901880F991F2E30310551F0FC0192
:1012A000E55FFE4F408151814F5F5F4F5183408327
:1012B0000AC04091270150912801445F5F4F50932D
:1012C000280140932701DC01A55FBE4F6D917C9101
:1012D0001197FC01E05BFD4F408151814617570794
:1012E0003CF4FC01E259FD4F408151814D935C93E8
:1012F0002D30310511F41092C603FC01E55FFE4F5D
:10130000608171818091CB030C943A0808950F930A
:101310001F93CF93DF93CDB7DEB768970FB6F894DE
:10132000DEBF0FBECDBF8C018091270190912801B7
:10133000489791F40E947E11BC01CE0143960E9411
:10134000F2070E948611BC01CE010D960E94F207A1
:101350000E948D02BC011FC00E947E11BC01CE0103
:1013600043960E94F2070E948611BC01CE010D96A1
:101370000E94F2070E94DA100E949A018091D5041F
:10138000882339F0682F70E08D3028F06C50710997
:1013900002C06CE070E0CE0101960E94F207BE012F
:1013A0006F5F7F4FCE0107960E94780CBE01635F8E
:1013B0007F4FCE0107960E94D80BBE016D5E7F4F16
:1013C0000E94D80BBC01C8010E94780CCE01079680
:1013D0000E943B0CCE0101960E943B0CCE010D9663
:1013E0000E943B0CCE0143960E943B0CC8016896BC
:1013F0000FB6F894DEBF0FBECDBFDF91CF911F9126
:101400000F9108958EBD00000DB407FEFDCF8EB57F
:1014100008950895CF92DF92EF92FF920F931F935A
:10142000CF93DF936C017A018B01C0E0D0E0CE1541
:10143000DF0589F0D8016D918D01D601ED91FC9108
:101440000190F081E02DC6010995892B11F47E01F0
:1014500002C02196ECCFC701DF91CF911F910F9170
:10146000FF90EF90DF90CF900895FC01918D828DD9
:10147000981761F0828DDF01A80FB11D5D968C91E8
:10148000928D9F5F9F73928F90E008958FEF9FEFF3
:101490000895FC01918D828D981731F0828DE80FAF
:1014A000F11D858D90E008958FEF9FEF0895FC0169
:1014B000918D228D892F90E0805C9F4F821B910936
:1014C0008F73992708958CE495E00E94570A21E0D4
:1014D000892B09F420E0822F0895FC01848DDF011F
:1014E000A80FB11DA35ABF4F2C91848D90E0019697
:1014F0008F739927848FA689B7892C93A089B18986
:101500008C9180648C93938D848D981306C002888F
:10151000F389E02D80818F7D80830895EF92FF9283
:101520000F931F93CF93DF93EC0181E0888F9B8D06
:101530008C8D981305C0E889F989808185FD24C0C8
:10154000F62E0B8D10E00F5F1F4F0F731127E02E4B
:101550008C8DE8120CC00FB607FCFACFE889F98928
:10156000808185FFF5CFCE010E946D0AF1CF8B8D72
:10157000FE01E80FF11DE35AFF4FF0820B8FEA895D
:10158000FB898081806207C0EE89FF896083E889DA
:10159000F98980818064808381E090E0DF91CF9140
:1015A0001F910F91FF90EF900895CF93DF93EC017F
:1015B000888D8823C9F0EA89FB89808185FD05C073
:1015C000A889B9898C9186FD0FC00FB607FCF5CFAD
:1015D000808185FFF2CFA889B9898C9185FFEDCFF5
:1015E000CE010E946D0AE7CFDF91CF91089580E090
:1015F00090E0892B29F00E94630A81110C9400006D
:101600000895833081F028F4813099F08230A1F080
:1016100008958730A9F08830B9F08430D1F48091F2
:1016200080008F7D03C0809180008F778093800041
:10163000089584B58F7702C084B58F7D84BD0895E9
:101640008091B0008F7703C08091B0008F7D809330
:10165000B00008950E94D72BCF93DF93EC018881CF
:101660009981009711F00E94752A198218821D82B3
:101670001C821B821A82DF91CF9108950F931F93D2
:10168000CF93DF93EC0188819981009729F02A811B
:101690003B812617370788F48B016F5F7F4F0E94CD
:1016A0000D2B009761F0998388831B830A832C811B
:1016B0003D81232B11F4FC01108281E001C080E008
:1016C000DF91CF911F910F910895EF92FF920F93A9
:1016D0001F93CF93DF93EC017B018A01BA010E9433
:1016E0003E0B811104C0CE010E942C0B07C01D834C
:1016F0000C83B701888199810E94E52BCE01DF918F
:10170000CF911F910F91FF90EF900895FC01808180
:101710009181009711F00C94722660E070E0CB018B
:101720000895EF92FF920F931F93CF93DF93FC01E5
:10173000248135816115710511F480E019C04115CE
:101740005105A9F07B01EC018A01020F131FB801BA
:101750000E943E0B882389F3288139818C819D81E9
:10176000B701820F931F0E94E52B1D830C8381E03C
:10177000DF91CF911F910F91FF90EF900895CF933C
:10178000DF93EC016115710561F0FB010190002010
:10179000E9F73197AF01461B570B0E94910B81115E
:1017A00003C0CE010E942C0BCE01DF91CF91089592
:1017B000CF93DF93EC01FB014481558160817181FE
:1017C0000E94910B811103C0CE010E942C0BCE010F
:1017D000DF91CF910895CF93DF93EC01FB01861742
:1017E000970761F0608171816115710529F044816D
:1017F00055810E94650B02C00E942C0BCE01DF9127
:10180000CF9108950F931F93CF93DF938C01EB013A
:10181000FC01808191810097B1F068817981611527
:10182000710579F0428153812C813D814217530724
:1018300040F00E94E52B8C819D81F8019583848383
:1018400013C00E94752A88819981F8019183808351
:101850008A819B81938382838C819D8195838483FC
:10186000198218821B821A821D821C82DF91CF91FD
:101870001F910F910895FC01808191810C94752A2C
:10188000EF92FF920F931F93CF93DF93CDB7DEB705
:1018900062970FB6F894DEBF0FBECDBF8C01CB01AF
:1018A000F80111821082138212821582148250E094
:1018B0009E012F5F3F4F7901B9010E949926F701E0
:1018C00001900020E9F73197AF014E195F09B70188
:1018D000C8010E94650B62960FB6F894DEBF0FBE7A
:1018E000CDBFDF91CF911F910F91FF90EF900895A1
:1018F000FC011182108213821282158214820C94D0
:10190000EB0BFC0111821082138212821582148269
:101910006115710551F0FB0101900020E9F7319745
:10192000AF01461B570B0C94650B0895BF92CF92E5
:10193000DF92EF92FF920F931F93CF93DF937C017F
:101940006B01EA0189012417350720F48D2FE90185
:10195000042F182F66EC72E0C7010E94810CD6019B
:1019600014968D919C911597C817D90748F5801743
:10197000910708F48C01D601ED91FC911197E00FCD
:10198000F11FB08010824D915C91BA016C0F7D1FE8
:101990006115710561F0FB0101900020E9F73197B5
:1019A000AF01461B570BC7010E94650B03C0C7015F
:1019B0000E942C0BD601ED91FC91E00FF11FB0823B
:1019C000C701DF91CF911F910F91FF90EF90DF90B2
:1019D000CF90BF9008951F920F920FB60F921124CF
:1019E0002F933F934F935F936F937F938F939F9327
:1019F000AF93BF93EF93FF938CE495E00E946D0A41
:101A0000FF91EF91BF91AF919F918F917F916F91D6
:101A10005F914F913F912F910F900FBE0F901F90AC
:101A200018951F920F920FB60F9211242F938F9338
:101A30009F93EF93FF93E0915C05F0915D058081AA
:101A4000E0916205F091630582FD12C09081809162
:101A500065058F5F8F7320916605821751F0E091C5
:101A60006505F0E0E45BFA4F958F8093650501C052
:101A70008081FF91EF919F918F912F910F900FBED9
:101A80000F901F901895CF93DF93282F30E0F90126
:101A9000EA5BFE4F8491F901E357FF4FD491F901BE
:101AA000EF55FF4FC491CC2391F081110E94010B9F
:101AB000EC2FF0E0EE0FFF1FE45CFE4FA591B49118
:101AC000EC91ED2381E090E021F480E002C080E021
:101AD00090E0DF91CF9108951F93CF93DF93282F4C
:101AE00030E0F901EA5BFE4F8491F901E357FF4FC3
:101AF000D491F901EF55FF4FC491CC23C9F0162FB3
:101B000081110E94010BEC2FF0E0EE0FFF1FEA584D
:101B1000FF4FA591B4918FB7F894111105C09C9116
:101B2000ED2FE095E92302C0EC91ED2BEC938FBFF4
:101B3000DF91CF911F910895CF93DF9390E0FC0147
:101B4000E357FF4F2491FC01EF55FF4F8491882309
:101B500061F190E0880F991FFC01ED57FF4FC5918F
:101B6000D491FC01EA58FF4FA591B491611109C0CD
:101B70009FB7F8948881209582238883EC912E2347
:101B80000BC0623061F49FB7F8943881822F809542
:101B900083238883EC912E2B2C939FBF06C08FB795
:101BA000F894E8812E2B28838FBFDF91CF91089581
:101BB0001F93CF93DF93182FEB0161E00E949C0DE0
:101BC000209711F460E004C0CF3FD10539F461E003
:101BD000812FDF91CF911F910C946C0DE12FF0E0DC
:101BE000EA5BFE4FE491E330F9F048F4E130B9F0FC
:101BF000E230A1F584B5806284BDC8BD34C0E73051
:101C0000E9F0E83019F1E43049F580918000806214
:101C100080938000D0938B00C0938A0024C084B549
:101C2000806884BDC7BD1FC080918000806880939C
:101C30008000D0938900C093880015C08091B000C7
:101C400080688093B000C093B3000DC08091B00055
:101C500080628093B000C093B40005C0C038D10545
:101C60000CF0B5CFAFCFDF91CF911F9108953FB763
:101C7000F8948091EF049091F004A091F104B09158
:101C8000F20426B5A89B05C02F3F19F00196A11DAF
:101C9000B11D3FBFBA2FA92F982F8827820F911D02
:101CA000A11DB11DBC01CD0142E0660F771F881F49
:101CB000991F4A95D1F708952FB7F8946091EB04D6
:101CC0007091EC048091ED049091EE042FBF089583
:101CD0006093E6047093E7048093E8049093E9042A
:101CE000DC01CB01845D9E4FAF4FBF4F8093E20478
:101CF0009093E304A093E404B093E50482E090E0C1
:101D00009093E1048093E0040E945C0E6093DC04F5
:101D10007093DD048093DE049093DF0408951F9296
:101D20000F920FB60F9211242F933F938F939F938F
:101D3000AF93BF938091EB049091EC04A091ED04DC
:101D4000B091EE043091EA0423E0230F2D3720F404
:101D50000196A11DB11D05C026E8230F0296A11D05
:101D6000B11D2093EA048093EB049093EC04A093BC
:101D7000ED04B093EE048091EF049091F004A091F3
:101D8000F104B091F2040196A11DB11D8093EF04FE
:101D90009093F004A093F104B093F204BF91AF913B
:101DA0009F918F913F912F910F900FBE0F901F9099
:101DB00018951F920F920FB60F9211242F933F93F5
:101DC0004F935F936F937F938F939F93EF93FF93C3
:101DD00040913E0550913F0560914005709141054D
:101DE000411551056105710599F08091AE03E091AF
:101DF000AF03F091B00390818927808314161506F4
:101E000016061706D4F4415051096109710915C02D
:101E1000809170008D7F809370009091AE03E0916F
:101E2000AF03F091B0038081282F30E0892F90E03C
:101E30008095909582239323808340933E05509311
:101E40003F056093400570934105FF91EF919F918D
:101E50008F917F916F915F914F913F912F910F9053
:101E60000FBE0F901F9018951F920F920FB60F92F2
:101E700011242F933F938F939F93AF93BF93EF932F
:101E8000FF938091420590914305A0914405B09144
:101E90004505892B8A2B8B2B51F18091B103E09161
:101EA000B203F091B303908189278083809142052A
:101EB00090914305A0914405B09145051816190667
:101EC0001A061B064CF58091420590914305A0919E
:101ED0004405B09145050197A109B10980934205D8
:101EE00090934305A0934405B093450515C0809198
:101EF0006F008D7F80936F009091B103E091B203EA
:101F0000F091B3038081282F30E0892F90E08095F5
:101F10009095822393238083FF91EF91BF91AF919E
:101F20009F918F913F912F910F900FBE0F901F9017
:101F300018951F920F920FB60F9211242F933F9373
:101F40008F939F93AF93BF93EF93FF938091460539
:101F500090914705A0914805B0914905892B8A2B9E
:101F60008B2B51F18091B403E091B503F091B6034E
:101F70009081892780838091460590914705A091A3
:101F80004805B0914905181619061A061B064CF5A6
:101F90008091460590914705A0914805B09149056B
:101FA0000197A109B1098093460590934705A09335
:101FB0004805B093490515C080916E008D7F8093D0
:101FC0006E009091B403E091B503F091B603808167
:101FD000282F30E0892F90E08095909582239323DD
:101FE0008083FF91EF91BF91AF919F918F913F912E
:101FF0002F910F900FBE0F901F9018953F924F9208
:102000005F926F927F928F929F92AF92BF92CF9288
:10201000DF92EF92FF920F931F93CF93DF93382EAF
:10202000962E842EF90184E6E816F1042CF082EB5A
:10203000E81A87E0F80A03C08EE1E80EF11CE0928E
:10204000D9040093D804E093D7043092D504909239
:10205000D4048092D304AE2DB0E020E833E341EE07
:1020600051E00E9428282B013C0122EB37E0FF249D
:1020700084E6C82ED12CC0E9D1E0C901825B97402B
:102080008E159F05DCF4C90183709927892B99F47B
:10209000C901B6010E943229892B31F4C901BE0160
:1020A0000E943229892B39F480E8480E81E5581EB8
:1020B00081E0681E711C2F5F3F4FDFCF8EE4E81A6E
:1020C00088EFF80AC70164E670E00E9432296C01CB
:1020D000C70160E971E00E9432295C01C1E0D0E0F3
:1020E000112783E0E822FF24C017D1072CF5C23066
:1020F000D10589F4E114F10471F4C114D10419F487
:10210000A114B10441F480E8480E8BE3581E86E226
:10211000681E711C0FC0DE01A557BD4FAC91B0E029
:1021200020E831E541E050E00E942828460E571E85
:10213000681E791E2196D8CF292D30E0ACE3B0E09F
:102140000E946A286B017C01C80CD11CE11CF11CA7
:10215000232D30E0A0E1BEE00E946A28C60ED71E03
:10216000E81EF91EDF01BB27119720E831E541E0A9
:1021700050E00E948D29DC01CB018C0D9D1DAE1D10
:10218000BF1DBC01CD01640D751D861D971DDF911E
:10219000CF911F910F91FF90EF90DF90CF90BF9064
:1021A000AF909F908F907F906F905F904F903F90F7
:1021B0000C94680ECF92DF92EF92FF920F931F93D1
:1021C0000E945C0EC090DC04D090DD04E090DE0440
:1021D000F090DF048B019C010C191D092E093F09A9
:1021E0008091E6049091E704A091E804B091E9049D
:1021F000083E134021053105D0F00196A11DB11D07
:102200008093E6049093E704A093E804B093E90474
:10221000B701A60148515C4F6F4F7F4F4093DC04DC
:102220005093DD046093DE047093DF04C9CF4091C6
:10223000E2045091E3046091E4047091E504841792
:102240009507A607B70788F1E091DA04F091DB045F
:10225000309759F10995611571058105910519F0BE
:102260000E94680E22C08091E6049091E704A0913C
:10227000E804B091E904845D9E4FAF4FBF4F809357
:10228000E2049093E304A093E404B093E50481E0B6
:1022900090E02091E0043091E104232B11F480E0E0
:1022A00090E09093E1048093E0046091E6047091E3
:1022B000E7048091E8049091E9041F910F91FF9049
:1022C000EF90DF90CF9008950E94DA100E949A015B
:1022D0008091D90490E08E54984F08950E94DA10AE
:1022E0000E949A018091D80490E008950E94DA102B
:1022F0000E949A018091D70490E008950E94DA101C
:102300000E949A018091D30490E008950E94DA100F
:102310000E949A018091D40490E008953F924F92D8
:102320005F926F927F928F929F92AF92BF92CF9265
:10233000DF92EF92FF920F931F93CF93DF9300D022
:1023400000D0CDB7DEB720914B0527FDAAC1498348
:102350005A836B837C838C0161E080914A050E94E3
:102360009C0D30904B05832D8D7F4801A12CB12C05
:1023700009F0B7C060E072E18AE790E0A50194013E
:102380000E94682929013A0169017A0121E0C21AF3
:10239000D108E108F1088FEFC816D104E104F10477
:1023A00009F008F44CC060E472E48FE090E0A5010D
:1023B00094010E94682969017A0191E0C91AD10843
:1023C000E108F108A2E03A1220C0BFEFCB16D10419
:1023D000E104F10409F008F462C160E970ED83E002
:1023E00090E0A50194010E94682969017A01E1E069
:1023F000CE1AD108E108F108FFEFCF16D104E104AD
:10240000F10409F0C0F583E065C02FEFC216D104D6
:10241000E104F104B1F0A8F068E478EE81E090E026
:10242000A50194010E94682969017A0181E0C81A16
:10243000D108E108F108332009F4D9C027C181E0AF
:1024400001C082E0332091F045C0D301C2012AE0EF
:10245000B595A795979587952A95D1F76C017D013C
:10246000E1E0CE1AD108E108F10885E095B5987F42
:10247000892B85BD66C068E478EE81E090E0A50117
:1024800094010E94682969017A01B1E0CB1AD10850
:10249000E108F108EFEFCE16D104E104F10409F0F0
:1024A00008F4A3C064E274EF80E090E0A501940119
:1024B0000E94682969017A0191E0C91AD108E108EE
:1024C000F108AFEFCA16D104E104F10411F008F0ED
:1024D000B0C085E09091B100987F892B8093B100C6
:1024E00030C060E072E18AE790E0A50194010E94AB
:1024F000682969017A01F1E0CF1AD108E108F108F1
:10250000C114D10421E0E206F10488F068E478EE19
:1025100081E090E0A50194010E94682969017A0197
:1025200081E0C81AD108E108F10893E001C091E008
:10253000A1E03A1206C080918100887F892B8093A8
:10254000810089819A81AB81BC81892B8A2B8B2B5D
:1025500081F0D801AA0FBB1F29813A814B815C8190
:102560000E94282828EE33E040E050E00E944629EF
:1025700003C02FEF3FEFA90191E03916A1F0A2E0CF
:102580003A1619F131108DC0C7BC2093460530931F
:102590004705409348055093490580916E0082603D
:1025A00080936E007EC0D0928900C09288002093F4
:1025B000420530934305409344055093450580916F
:1025C0006F00826080936F006CC0C092B300209354
:1025D0003E0530933F05409340055093410580915F
:1025E00070008260809370005CC084E073CF8FEFD6
:1025F000C816D104E104F104D1F0C8F062E17AE731
:1026000080E090E0A50194010E94682969017A01A7
:10261000F1E0CF1AD108E108F1082FEFC216D1047A
:10262000E104F10411F008F010CF84E01FCF83E043
:102630001DCF62E17AE780E090E0A50194010E945D
:10264000682969017A0191E0C91AD108E108F10805
:10265000AFEFCA16D104E104F104B1F0A8F0D30140
:10266000C2014AE0B595A795979587954A95D1F708
:102670006C017D01E1E0CE1AD108E108F1083320B8
:1026800009F4F3CE87E026CF86E0DCCEBFEFCB1691
:10269000D104E104F10409F060F684E0D3CE82E0D5
:1026A00019CF0F900F900F900F90DF91CF911F9146
:1026B0000F91FF90EF90DF90CF90BF90AF909F90E1
:1026C0008F907F906F905F904F903F90089500970C
:1026D00069F0FC0101900020E9F73197AF01481B38
:1026E000590BBC018CE495E00C940A0A80E090E060
:1026F00008950F931F93CF93DF938C01C0E0D0E038
:10270000F801EC0FFD1F6491662371F0E0914C0518
:10271000F0914D050190F081E02D8CE495E0099554
:10272000892B11F02196ECCFCE01DF91CF911F9133
:102730000F910895CF93DF930E947913EC0184ECFD
:1027400092E00E9467138C0F9D1FDF91CF91089537
:102750008F929F92AF92BF92CF92DF92EF92FF92B1
:102760000E94370E4B015C0188EEC82E83E0D82E04
:10277000E12CF12C0E94370EDC01CB01881999095C
:10278000AA09BB09883E9340A105B10558F021E094
:10279000C21AD108E108F10888EE880E83E0981E7D
:1027A000A11CB11CC114D104E104F10419F7FF907C
:1027B000EF90DF90CF90BF90AF909F908F90089553
:1027C000E0914C05F0914D050190F081E02D682FCE
:1027D0008CE495E009948F929F92AF92BF920F93F1
:1027E0001F93CF93DF93CDB7DEB7A1970FB6F894C1
:1027F000DEBF0FBECDBF19A2423008F44AE08E0101
:102800000F5D1F4F842E912CA12CB12CA50194019A
:102810000E944629E62FB901CA0101501109EA3088
:1028200014F4E05D01C0E95CD801EC93232B242B68
:10283000252B61F7C8010E946713A1960FB6F89483
:10284000DEBF0FBECDBFDF91CF911F910F91BF9023
:10285000AF909F908F90089520913D0590913C05F9
:10286000213208F04AC0809119058111FCCF32E075
:102870003093190531E0309318053FEF3093170579
:102880001092160520931505ACE1B5E045EF54E034
:10289000FA013E2F341B321718F43D913193F9CFD2
:1028A0001092F4042091F404990F922B9093F40465
:1028B0009091F304913061F41092F3049091F40438
:1028C0009093BB009091BC0093FDF8CF95EC01C0B4
:1028D00095EE9093BC00909119059230E1F39091A0
:1028E00017059F3F79F080911705803241F0809164
:1028F0001705803331F084E005C081E003C082E039
:1029000001C083E010921B0510923D0510921A053C
:102910000895CF92DF92EF92FF92CF93DF936C01F5
:10292000990FEE08FF08F7FE12C08DE20E94E01337
:10293000EC0166277727CB016C197D098E099F0969
:102940004AE00E94EB137C01EC0EFD1E06C04AE03B
:10295000C701B6010E94EB137C0184EC92E00E9457
:1029600067138E0D9F1DDF91CF91FF90EF90DF9049
:10297000CF900895CF93DF930E946713EC0184EC0E
:1029800092E00E9467138C0F9D1FDF91CF910895F5
:10299000CF93DF93CDB7DEB7C857D1090FB6F89400
:1029A000DEBF0FBECDBF789484B5826084BD84B590
:1029B000816084BD85B5826085BD85B5816085BD3A
:1029C00080916E00816080936E00109281008091F2
:1029D000810082608093810080918100816080937A
:1029E0008100809180008160809380008091B1009F
:1029F00084608093B1008091B00081608093B000CA
:102A000080917A00846080937A0080917A0082605D
:102A100080937A0080917A00816080937A0080911F
:102A20007A00806880937A001092C10060E085E0AF
:102A30000E946C0D1092AD031092AC0310921B0516
:102A400010923D051092190581E0809318051092AF
:102A5000F30461E082E10E946C0D61E083E10E9479
:102A60006C0D8091B9008E7F8093B9008091B90080
:102A70008D7F8093B90088E48093B80085E48093CB
:102A8000BC00E0915C05F0915D0582E08083E091FF
:102A90005805F09159051082E0915A05F0915B05B7
:102AA00080E1808310926405E0916005F0916105FA
:102AB00086E08083E0915E05F0915F058081806112
:102AC0008083E0915E05F0915F058081886080835E
:102AD000E0915E05F0915F05808180688083E091E0
:102AE0005E05F0915F0580818F7D808381E090E0BD
:102AF0000E947B048C3019F088E190E002C08CE0E9
:102B000090E0909328018093270180E090E00E945C
:102B10007B04882321F081E08093080102C0109299
:102B2000080182E090E00E947B048F3F29F410921C
:102B3000200110921F0105C090E090932001809326
:102B40001F0183E090E00E947B048F3F29F41092E4
:102B500022011092210105C090E090932201809300
:102B6000210184E090E00E947B048F3F29F41092C1
:102B700024011092230105C090E0909324018093DA
:102B8000230186E090E00E947B048F3F29F410929D
:102B900026011092250105C090E0909326018093B4
:102BA000250187E090E00E947B048F3F19F410928A
:102BB0003C0406C091E0811101C090E090933C0478
:102BC00088EB92E00E94671380913C0490E00E94A1
:102BD000891461E089E00E949C0D61E086E00E941A
:102BE0009C0D61E083E00E949C0D8091DD038330A9
:102BF00008F083C092E090934A05E82FF0E0E05897
:102C0000FF4FE491E0934B058F5F8093DD03E1304C
:102C100031F1E23009F44AC0E11172C014BC15BCB4
:102C200084B5826084BD85B5816085BD80914A058B
:102C300090E0FC01EF55FF4FE491F0E0EE0FFF1F35
:102C4000EA58FF4F259134913093B6032093B50392
:102C5000FC01E357FF4FE491E093B40351C010929D
:102C600080001092810080918100886080938100B3
:102C70008091810081608093810080914A0590E07D
:102C8000FC01EF55FF4FE491F0E0EE0FFF1FEA5813
:102C9000FF4F259134913093B3032093B203FC018D
:102CA000E357FF4FE491E093B1032AC01092B000C4
:102CB0001092B1008091B00082608093B00080914A
:102CC000B10081608093B10080914A0590E0FC01E1
:102CD000EF55FF4FE491F0E0EE0FFF1FEA58FF4F72
:102CE000259134913093B0032093AF03FC01E35757
:102CF000FF4FE491E093AE0303C08FEF80934B0549
:102D000080910001909101010E94AA059093010118
:102D10008093000161E08AE00E949C0D61E085E003
:102D20000E949C0D1FB7F8948091DE03811127C08B
:102D3000EBEAF0E08491E7E9F0E09491E82FF0E02D
:102D4000EE0FFF1FED57FF4FA591B491EC91E923D2
:102D500021F461E08AE00E946C0D61E08AE00E944B
:102D60009C0D8CB580618CBD8CB580648CBD61E0A0
:102D70008DE00E949C0D61E08BE00E949C0D809193
:102D8000DE038F5F8093DE031FBF8CB58C608CBD2C
:102D90008CB583608CBD8DB58E7F8DBD62E08EE07D
:102DA0000E949C0D62E080E10E949C0D62E08FE039
:102DB0000E949C0D61E082E00E949C0D04E110E005
:102DC00020E030E000932A0610932B0620932C0677
:102DD00030932D064EE150E060E070E040932E0607
:102DE00050932F06609330067093310680ED97E084
:102DF000A0E0B0E08093320690933306A0933406AF
:102E0000B093350600931106109312062093130613
:102E100030931406409315065093160660931706D8
:102E2000709318068093190690931A06A0931B06B8
:102E3000B0931C060093F8051093F9052093FA054A
:102E40003093FB054093FC055093FD056093FE0510
:102E50007093FF058093000690930106A0930206ED
:102E6000B093030683ED90E00E94791325E030E0F3
:102E700042E050E066E476E0CE0101960E94960CB6
:102E800022E030E041E050E066E476E0CE01815B94
:102E90009F4F0E94960CBE01615B7F4FCE01875B06
:102EA0009F4F0E94780C62EC72E0CE01875B9F4FCF
:102EB0000E94BF0BBE016F5F7F4F0E94D80BDC01E9
:102EC00014964D915C9115976D917C918CE495E0F1
:102ED0000E940A0A84EC92E00E946713CE01875B8D
:102EE0009F4F0E943B0CCE01815B9F4F0E943B0C89
:102EF000CE0101960E943B0C88EC90E00E949A1350
:102F000083E480937C0080917A00806480937A00CF
:102F100080917A0086FDFCCF6091780080917900E5
:102F200070E0782B072E000C880B990B0E94F52679
:102F300020E030E040EA50E40E94542723E333E3EA
:102F400043E950E40E94542720E030E040E85AE38F
:102F50000E94542723E333E343E35FE30E947A288C
:102F60006B017C018FEB90E00E947913A701960121
:102F7000C701B6010E942129882319F087EC92E04D
:102F80001AC046015701E894B7F82FEF3FEF4FE71B
:102F90005FE7C501B4010E94212981110FC02FEF05
:102FA0003FEF4FE75FE7C501B4010E94EE26181618
:102FB0002CF48BEC92E00E94671372C02FEF3FEF6E
:102FC0004FE75FE4C701B6010E941C2918161CF4E4
:102FD0008FEC92E0F0CF2FEF3FEF4FE75FECC701B0
:102FE000B6010E94EE2687FDF3CF20E030E0A90174
:102FF000C701B6010E94EE2687FF07C08DE20E943E
:10300000E013C701B601905802C0C701B6012AE01B
:1030100037ED43EA5BE30E947A282B013C010E94D2
:10302000ED284B015C010E94F3269B01AC01C3011A
:10303000B2010E9479282B013C014AE0C501B4018C
:103040000E94EB138EE20E94E01320E030E040E2A9
:1030500051E4C301B2010E9454272B013C010E949C
:10306000ED284B01A12CB12C4AE0C501B4010E940E
:10307000EB13C501B4010E94F3269B01AC01C3010F
:10308000B2010E94792820E030E040E251E40E9441
:1030900054270E94ED2880E090E04AE00E94EB1364
:1030A00080910001909101019093D0038093CF0310
:1030B0000E94AA056FEF70E089E00E94D80D0E947F
:1030C000A81360E070E089E00E94D80D6FEF70E017
:1030D00086E00E94D80D0E94A81360E070E086E0B0
:1030E0000E94D80D6FEF70E083E00E94D80D0E941F
:1030F000A81363ED72E0CE0101960E94810C6AED87
:1031000072E0CE0107960E94810C61EE72E0CE0162
:103110000D960E94810C68EE72E0CE0143960E94EB
:10312000810C6FEE72E0CE0149960E94810C66EF31
:1031300072E0CE014F960E94810C6DEF72E0CE01DD
:1031400085960E94810C64E073E0CE018B960E940C
:10315000810C6BE073E0CE01C1960E94810C62E1AC
:1031600073E0CE01C7960E94810C66EC72E0CE013E
:10317000CD960E94810C66EC72E0CE018D5B9F4F74
:103180000E94810C20E030E040E251E4C701B6012A
:103190000E94EE2620E030E048EC52E487FF0FC0AA
:1031A000C701B6010E9454270E94E6284AE0CE01DA
:1031B000875B9F4F0E94400C66ED72E00EC0C70116
:1031C000B6010E9454270E94E6284AE0CE01875BA0
:1031D0009F4F0E94400C67ED72E0CE01815B9F4FD4
:1031E0000E94810CBE01675B7F4FCE01815B9F4FC8
:1031F0000E94D80BBC01CE01CD960E94EB0BCE01F4
:10320000815B9F4F0E943B0CCE01875B9F4F0E94CA
:103210003B0C66E476E0CE018D5B9F4F0E94EB0B8A
:103220000E945C0EE9966CAF7DAF8EAF9FAFE997C1
:1032300061E085E00E946C0D44244A94E4EFF1E0E3
:10324000E096FFAFEEAFE097AE961FAEAE971AE0F6
:10325000812E912CA12CB12C8FE00E94430D892B43
:1032600021F4F1E0AE96FFAFAE9780E10E94430DEE
:10327000892B19F4AE961FAEAE97BCE02B2E312CE5
:1032800021E0E5962FAFE5970E945C0EDC01CB01B3
:10329000E9962CAD3DAD4EAD5FADE997821B930B2A
:1032A000A40BB50BE0964EAD5FADE0978A01550FCC
:1032B000220B330B081719072A073B0708F08FC1A9
:1032C0000E945C0EE9966CAF7DAF8EAF9FAFE99721
:1032D000AE965FADAE97511101C043948AE0481697
:1032E00039F09CE049120AC0E5961FAEE59706C08A
:1032F000A8EBBBE0E096BFAFAEAFE09761E070E057
:103300006C0F7D1FB6E0B49D600D711D112480E42B
:1033100096E00E94EB0B80E496E00E94860BA501EC
:1033200094010E946829E4962CAF3DAF4EAF5FAF89
:10333000E497660F771FFB01E153FE4F40815181F7
:10334000F6E0440F551FFA95E1F79A0140E050E08E
:1033500060E070E080E090E000E30E949529E22EBA
:10336000532E3A016B01F82E192FE4966CAD7DAD0A
:103370008EAD9FADE497A50194010E946829E49663
:103380002CAF3DAF4EAF5FAFE497660F771FFB01E9
:10339000E153FE4F40815181B6E0440F551FBA956D
:1033A000E1F79A0140E050E060E070E080E090E0FA
:1033B00006E20E949529E22A532A642A752AC62A1F
:1033C000D72AF82A192BE4966CAD7DAD8EAD9FAD52
:1033D000E497A50194010E946829E4962CAF3DAFC3
:1033E0004EAF5FAFE497660F771FFB01E153FE4FCF
:1033F0004081518186E0440F551F8A95E1F79A017B
:1034000040E050E060E070E080E090E00CE10E947D
:103410009529E22A532A642A752AC62AD72AF82A25
:10342000192BE4966CAD7DAD8EAD9FADE497A501F3
:1034300094010E946829E4962CAF3DAF4EAF5FAF78
:10344000E497660F771FFB01E153FE4F40815181E6
:1034500026E0440F551F2A95E1F79A0140E050E01D
:1034600060E070E080E090E002E10E949529E22AAD
:10347000532A642A752AC62AD72AF82A192BE496D1
:103480006CAD7DAD8EAD9FADE497A50194010E941A
:103490006829E4962CAF3DAF4EAF5FAFE497660F5F
:1034A000771FFB01E153FE4F4081518166E0440FDD
:1034B000551F6A95E1F79A0140E050E060E070E046
:1034C00080E090E008E00E949529E22A532A642ACD
:1034D000752AC62AD72AF82A192BE4966CAD7DAD39
:1034E0008EAD9FADE497A50194010E946829660FF7
:1034F000771FFB01E153FE4F40815181F6E0440FFD
:10350000551FFA95E1F756954795569547952E2DF7
:10351000242B352D352BA301B6018F2D912F04E0DF
:103520000E94B029122F532E3A016B017C0161E0F9
:103530008AE00E946C0D212F352DA301B601C70131
:1035400008E30E94B029822F0E94020A212F352D04
:10355000A301B601C70100E30E94B029822F0E9497
:10356000020A212F352DA301B601C70108E20E94EE
:10357000B029822F0E94020A212F352DA301B60106
:10358000C70100E20E94B029822F0E94020A212F67
:10359000352DA301B601C70108E10E94B029822F91
:1035A0000E94020A212F352DA301B601C70100E1B7
:1035B0000E94B029822F0E94020A212F352DA301DB
:1035C000B601C70108E00E94B029822F0E94020ABA
:1035D000812F0E94020A60E08AE00E946C0DE1E007
:1035E0002E1A310809F050CE8BE39FE10197F1F7D5
:1035F000E596FFADE597F1112FCE85EB90E00E94A7
:103600009A138E01075B1F4FD02EC12E9E012F5F94
:103610003F4F190106501109C8010E943B0C0215C9
:103620001305C1F780913C0481110E9431050E946D
:103630001F070091D5031091D6030E945C0E4B0129
:103640005C0181E08093440411278091D50390911F
:10365000D60308171907A9F40E941F070E945C0EE1
:10366000DC01CB0188199909AA09BB09893B9B4058
:10367000A105B10550F386EE90E00E949A131092D6
:103680004404E090DB03F090DC030091D903109137
:10369000DA032091D7033091D8034091D50350919C
:1036A000D6036091D3037091D4038091D10390919C
:1036B000D2030E94FE0F60E085E00E946C0D61E085
:1036C00085E00E946C0D0E945C0E20E137E240E034
:1036D00050E00E944629672B682B692B29F48091C2
:1036E000440481110C94EF250091CF031091D00375
:1036F000D8018C91882309F437C10E945C0E809018
:10370000E5039090E603A090E703B090E803DC01A6
:10371000CB0188199909AA09BB098090E10390900F
:10372000E203A090E303B090E40388169906AA068A
:10373000BB0608F019C10E945C0E4B015C0160934E
:10374000E5037093E6038093E7039093E8031092F8
:10375000BC031092BB03C8014AE07C01FC0110814C
:10376000019650ED510F2091BB033091BC035A30AC
:1037700080F4429FB001439F700D1124E12F110F7F
:10378000FF0BF097E60FF71FF093BC03E093BB032A
:10379000E4CF6091B7037091B8038091B903909121
:1037A000BA032115310529F0032E000C440B550BEB
:1037B00005C02091030130E040E050E00E946829FC
:1037C0002093E1033093E2034093E3035093E40337
:1037D000812F110F990BAA0BBB0BFC01E156F109CC
:1037E000E730F10520F4EC5CFF4F0C948729109230
:1037F000E0030FC081E00BC083E009C085E007C093
:1038000086E005C088E003C08AE001C08CE08093B8
:10381000E003D70111968C91833221F0BFEFEB1AB0
:10382000FB0A08C08091E0038F5F8093E003E2E031
:10383000EE0EF11CD7018C918E32F9F44090E10329
:103840005090E2036090E3037090E403C301B2017F
:1038500022E030E040E050E00E946829420E531E12
:10386000641E751E4092E1035092E2036092E303EE
:103870007092E403BFEFEB1AFB0AF70180818053DB
:103880008A3030F48093DF03FFEFEF1AFF0A04C0A1
:10389000809102018093DF032091DF03D7018C9197
:1038A0008C3219F4BFEFEB1AFB0A4091E00344237A
:1038B00009F45DC04090E1035090E2036090E3039F
:1038C0007090E40330E0245031095CE0529FC00165
:1038D000539F900D1124FC01E40FF11DEE0FFF1F0B
:1038E000E75BFE4FB301A201808191810E948E119E
:1038F0000E945C0EDC01CB0188199909AA09BB0959
:10390000481659066A067B0690F50E945C0E609385
:10391000E5037093E6038093E7039093E8038091B7
:103920004B05813051F0823071F0811111C08091CE
:103930006E008D7F80936E000BC080916F008D7F35
:1039400080936F0005C0809170008D7F8093700020
:1039500060E080914A050E946C0D82E091E00E9437
:103960009A1390E080E005C0902F812F02C09E2D19
:103970008F2D9093CF038093D0030E945C0E009113
:103980004004109141042091420430914304DC0131
:10399000CB01801B910BA20BB30B0697A105B105C0
:1039A00008F489C080910801811110C060E070E0C6
:1039B00089E00E94D80D60E070E086E00E94D80D9A
:1039C00060E070E083E00E94D80D6BC080913C0401
:1039D000811167C00091EB031091EC03C801880FBF
:1039E000991F800F911FFC01EE0FFF1FE555FE4F41
:1039F0006091090170910A0120813181620F731F6A
:103A000070930A0160930901FC01EE0FFF1FE3555B
:103A1000FE4F2091340430913504E080F180E20EB5
:103A2000F31EF0923504E0923404880F991FFC01D4
:103A3000E155FE4F8091320490913304A080B18013
:103A4000A80EB91EB0923304A092320489E00E94FD
:103A5000D80DB70186E00E94D80DB50183E00E9421
:103A6000D80D8091E9039091EA0301969093EA03BF
:103A70008093E9038F3F910551F40F5F1F4F10931F
:103A8000EC030093EB031092EA031092E903809198
:103A9000EB039091EC03069724F01092EC03109244
:103AA000EB030E945C0E609340047093410480938A
:103AB0004204909343040091CD031091CE0301156D
:103AC000110521F080913F0481118BC18091CC03BD
:103AD000811187C18091FD0381110DC00E945C0E90
:103AE0006093F9037093FA038093FB039093FC03B4
:103AF00081E08093FD038091F10381110DC00E944C
:103B00005C0E6093ED037093EE038093EF0390934C
:103B1000F00381E08093F1030E945C0E8090F90332
:103B20009090FA03A090FB03B090FC03DC01CB0162
:103B300088199909AA09BB09809004019090050190
:103B4000A0900601B090070188169906AA06BB0648
:103B5000C8F50E945C0E6093F9037093FA0380939A
:103B6000FB039093FC03012B99F4E1E0F0E0F09368
:103B7000CE03E093CD0328E833E140E050E020930A
:103B8000040130930501409306015093070110C0D2
:103B90001092CE031092CD0380E69AEEA0E0B0E042
:103BA0008093040190930501A0930601B09307014F
:103BB00080913F04882321F01092CE031092CD0310
:103BC00010923F040E945C0E0091F9031091FA03D9
:103BD0002091FB033091FC03DC01CB01801B910B96
:103BE000A20BB30B803D9740A105B10508F0F7C0CB
:103BF0000E945C0E0091ED031091EE032091EF0303
:103C00003091F003DC01CB01801B910BA20BB30BB5
:103C100085369105A105B10508F4E3C00E945C0E4C
:103C20006093ED037093EE038093EF039093F003A2
:103C30008091CD039091CE03892B09F067C0CE010E
:103C40008F599F4F0E9487090E94641168EE73E0AC
:103C50000E943229BC01CE018B5A9F4F0E94F2076D
:103C60000E946E11BC01CE01815B9F4F0E94F20742
:103C70000E947611BC01C1010E94F207B1018D2D95
:103C80009C2D0E94780CBE01615B7F4F8D2D9C2D79
:103C90000E94D80BBE016B5A7F4F0E94D80BBC010B
:103CA000CE01855A9F4F0E94780CAE014F595F4F4D
:103CB000BE01655A7F4FCE0189599F4F0E947D04F6
:103CC000BE0169597F4F80E496E00E94020CCE014C
:103CD00089599F4F0E943B0CCE01855A9F4F0E94ED
:103CE0003B0C8D2D9C2D0E943B0CC1010E943B0C76
:103CF000CE01815B9F4F0E943B0CCE018B5A9F4FA0
:103D00000E943B0CCE018F599F4F66C00E946411E8
:103D100068EE73E00E943229BC01CE01855A9F4FA4
:103D20000E94F2070E946E11BC01CE018B5A9F4F78
:103D30000E94F2070E947611BC018D2D9C2D0E94DD
:103D4000F2076D2D7C2DCE01815B9F4F0E94780C78
:103D5000BE016B5A7F4FCE01815B9F4F0E94D80BF3
:103D6000BE01655A7F4F0E94D80BBC01CE018F590E
:103D70009F4F0E94780CC1010E948709AE014F59E4
:103D80005F4FB101CE0189599F4F0E947D04BE0152
:103D900069597F4F80E496E00E94020CCE01895958
:103DA0009F4F0E943B0CC1010E943B0CCE018F59DA
:103DB0009F4F0E943B0CCE01815B9F4F0E943B0CAA
:103DC0008D2D9C2D0E943B0CCE018B5A9F4F0E9443
:103DD0003B0CCE01855A9F4F0E943B0C02C01092B3
:103DE000C3030E94370E0091050410910604209130
:103DF000070430910804DC01CB01801B910BA20B5E
:103E0000B30B8A319144A105B10508F4ACC10E94FD
:103E1000370E609305047093060480930704909313
:103E2000080460E08AE00E946C0D80E496E00E9445
:103E3000860B2AE030E040E050E00E94682929012A
:103E40003A01660F771FFB01E153FE4F008111819C
:103E500085E090E00E949106802B912B06E0880F70
:103E6000991F0A95E1F79C0140E050E060E070E0A6
:103E700080E090E000E30E949529AE962FAFAE97C8
:103E8000832E942EA52EB62EE72EF82EAF969FAF3A
:103E9000AF97C301B2012AE030E040E050E00E9459
:103EA000682929013A01660F771FFB01E153FE4F94
:103EB0000081118184E090E00E949106802B912B7B
:103EC000AC0196E0440F551F9A95E1F79A0140E046
:103ED00050E060E070E080E090E006E20E9495290A
:103EE000AE96AFADAE97A22BAE96AFAFAE97832A8C
:103EF000942AA52AB62AE72AF82AAF96BFADAF972B
:103F0000B92BAF96BFAFAF97C301B2012AE030E043
:103F100040E050E00E94682929013A01660F771FAE
:103F2000FB01E153FE4F0081118183E090E00E948C
:103F30009106802B912BAC0136E0440F551F3A952A
:103F4000E1F79A0140E050E060E070E080E090E04E
:103F50000CE10E949529AE96EFADAE97E22BAE969E
:103F6000EFAFAE97832A942AA52AB62AE72AF82A21
:103F7000AF96FFADAF97F92BAF96FFAFAF97C301E9
:103F8000B2012AE030E040E050E00E9468292901B7
:103F90003A01660F771FFB01E153FE4F008111814B
:103FA00082E090E00E949106802B912BAC0166E0AC
:103FB000440F551F6A95E1F79A0140E050E060E038
:103FC00070E080E090E002E10E949529AE96AFADEE
:103FD000AE97A22BAE96AFAFAE97832A942AA52AAE
:103FE000B62AE72AF82AAF96BFADAF97B92BAF969E
:103FF000BFAFAF97C301B2012AE030E040E050E02C
:104000000E94682929013A01660F771FFB01E153DD
:10401000FE4F0081118181E090E00E949106802B8B
:10402000912BAC01F6E0440F551FFA95E1F79A0188
:1040300040E050E060E070E080E090E008E00E9446
:104040009529AE960FADAE97022B832A942AA52A06
:10405000B62AE72AF82AAF961FADAF97192BC301EE
:10406000B2012AE030E040E050E00E946829660F8B
:10407000771FFB01E153FE4F4080518080E090E0CC
:104080000E94910684299529AC01B6E0440F551F82
:10409000BA95E1F75695479556954795202F242BCD
:1040A000382D352B492D5A2D6B2D7E2D8F2D912F8F
:1040B00004E00E94B029122F732E4A015B017C019B
:1040C00008E30E94B029822F0E94020A212F372D77
:1040D000A401B501C70100E30E94B029822F0E940C
:1040E000020A212F372DA401B501C70108E20E9461
:1040F000B029822F0E94020A212F372DA401B50179
:10410000C70100E20E94B029822F0E94020A212FDB
:10411000372DA401B501C70108E10E94B029822F03
:104120000E94020A212F372DA401B501C70100E129
:104130000E94B029822F0E94020A212F372DA4014C
:10414000B501C70108E00E94B029822F0E94020A2F
:10415000812F0E94020A61E08AE00E946C0D60E0FB
:104160008AE00E946C0D87E296E00E9495028EE044
:1041700096E00E94950285EF95E00E94950280915D
:10418000CC03811103C01092CB032BC00E945C0EA4
:104190000091C7031091C8032091C9033091CA034D
:1041A000DC01CB01801B910BA20BB30B81369A4E25
:1041B000A105B105B0F01092CC03E091CD03F091D0
:1041C000CE03EE0FFF1FEE5CFD4F80819181909337
:1041D000CE038093CD03FC01ED5DFD4F8081809384
:1041E000CB038091270690912806181619060CF02B
:1041F0009BC181E080933F041092D0031092CF03C3
:1042000044E650E060E070E088EE93E00E948E119A
:104210000E945C0E6093C7037093C8038093C90328
:104220009093CA038091CD039091CE030196843080
:10423000910529F09093CE038093CD0304C0109292
:10424000CE031092CD0380E291E00E947913809119
:10425000CD039091CE030E94891489E191E00E94E0
:104260007913E091CD03F091CE03EE0FFF1FE55FD0
:10427000FE4F808191810E9489142091CD0330915D
:10428000CE03F901ED5DFD4F80818093CB0321507A
:104290003109F901EE0FFF1FEB5FFD4F40815181A6
:1042A0004115510509F431C1CA010197FC01EE0F16
:1042B000FF1FE951FE4F608171816217730709F09A
:1042C00024C14230510569F528E1E1E3F1E0D10173
:1042D00001900D922A95E1F720911D0130911E0168
:1042E00023703327232B21F42DE130E03C832B83F3
:1042F0002091190130911A01E0911B01F0911C01EC
:104300003197EE0FFF1FE20DF31D408151814217DF
:1043100053073CF487E090E09093CE038093CD0365
:104320005AC41092CC039093CE038093CD03892B73
:10433000B9F40E9464117C010E946E118C010E94EC
:1043400076114091170150911801609115017091FB
:1043500016019C0180911301909114010E94FE0F9F
:104360008091CD039091CE030197E9F4E0901D0177
:10437000F0901E0130E3E31A38EFF30A00911B01BD
:1043800010911C016090190170901A010E947E1119
:104390004C010E9486115C010E948D029301A401D0
:1043A000B5010E94FE0F8091CD039091CE0302973C
:1043B000C1F460911F0182E090E00E947904609155
:1043C000210183E090E00E9479046091230184E060
:1043D00090E00E9479046091250186E090E00E94BF
:1043E00079048091CD039091CE03039731F46091CD
:1043F000270181E090E00E94790460E085E00E945E
:104400006C0D0E94641168EE73E00E943229082F3F
:104410000E946E11F82E0E947611E82E0E947E11E5
:10442000982E0E948611A82E0E948D02B82E81E03F
:1044300080931A0588E680933C0510921B05109224
:104440003D0560E089EE95E00E9467011AE0892D44
:10445000612F0E942629692F40E1849F600D11245D
:1044600089EE95E00E9467018A2D612F0E9426291E
:10447000692F50E1859F600D112489EE95E00E941F
:1044800067018B2D612F0E942629692FA0E18A9F49
:10449000600D112489EE95E00E94670161E089EECC
:1044A00095E00E9467018E2D612F0E942629692FB9
:1044B000B0E18B9F600D112489EE95E00E946701A9
:1044C0008F2D612F0E942629692FE0E18E9F600DBC
:1044D000112489EE95E00E946701802F612F0E94D0
:1044E0002629692FF0E18F9F600D112489EE95E058
:1044F0000E94670160E089EE95E00E9467010E94DA
:104500002C1461E085E00E946C0D0091CD031091A8
:10451000CE038091CB030E943B06000F111FF801D0
:10452000E55FFE4F91838083809127069091280656
:1045300097FF88C044E650E060E070E088EE93E0CA
:104540000E948E118091CC0381114DC00E945C0E9F
:104550006093C7037093C8038093C9039093CA0301
:104560008091CD039091CE03892BE9F50E947E11B5
:10457000BC01C1010E94F2070E948611BC018D2D71
:104580009C2D0E94F2070E948D02BC01CE018B5A25
:104590009F4F0E94F207BE016B5A7F4FCE01815B95
:1045A0009F4F0E94780C6D2D7C2DCE01815B9F4F1B
:1045B0000E94D80BB1010E94D80BBC0180E496E0A8
:1045C0000E94EB0BCE01815B9F4F0E943B0CCE0102
:1045D0008B5A9F4F0E943B0C8D2D9C2D0E943B0CB3
:1045E000C1010E943B0CE091CD03F091CE03EE0F90
:1045F000FF1FEE5CFD4F008111811093CE030093ED
:10460000CD030A30110549F421E030E03093260152
:104610002093250180E88093C6039091CC0381E02C
:1046200089278093CC03F801ED5DFD4F8081809355
:10463000CB030E943B06000F111FF801E55FFE4F00
:104640009183808380910E0690910F06009719F157
:1046500090933E0480933D0418161906E4F481E01B
:1046600080933F041092D0031092CF0344E650E0B1
:1046700060E070E088EE93E00E948E110E9436099F
:104680008091CC03811107C010923C0460E087E068
:1046900090E00E94790480913D0490913E0401963F
:1046A00061F580911006882341F11092C503809135
:1046B000CC03882329F10E945C0E009138041091EC
:1046C000390420913A0430913B04DC01CB01801B7A
:1046D000910BA20BB30B87399105A105B10580F0B1
:1046E0000E945C0E609338047093390480933A04FE
:1046F00090933B040E94360903C081E08093C50378
:104700008091F5059091F6050097A9F190933704F3
:10471000809336041816190674F511E010933F04BF
:104720001092D0031092CF0344E650E060E070E0B6
:1047300088EE93E00E948E110E94DA088091CC03EB
:10474000811119C010933C0461E087E090E00E9461
:1047500079046091090188E090E00E9479046091F9
:10476000340489E090E00E947904609132048AE088
:1047700090E00E947904809136049091370401966C
:1047800061F58091F705882341F11092C40380916F
:10479000CC03882329F10E945C0E00912E04109115
:1047A0002F042091300430913104DC01CB01801BB7
:1047B000910BA20BB30B87399105A105B10580F0D0
:1047C0000E945C0E60932E0470932F04809330043B
:1047D000909331040E94DA0803C081E08093C403FF
:1047E0008091CC03811135C080910E0690910F0607
:1047F00097FF16C044E650E060E070E088EE93E07A
:104800000E948E1181E08093080161E080E090E0D9
:104810000E94790489E193E00E94BA140E94310554
:104820008091F5059091F60597FF13C044E650E09E
:1048300060E070E088EE93E00E948E111092080113
:1048400060E080E090E00E94790480E293E00E94C2
:10485000BA148091CD039091CE038130910509F473
:104860009FC01CF4892B61F1B6C18230910509F417
:1048700064C1039709F0AFC16091270170912801CD
:104880004AE0C1010E94400C67ED72E08D2D9C2D25
:104890000E94810CB1018D2D9C2D0E94D80B67EDDB
:1048A00072E00E94BF0BBC0180E496E00E94EB0B1B
:1048B0008D2D9C2D0E943B0CC1010E943B0C87C199
:1048C0008091C303811130C00E945C0E00910904E5
:1048D00010910A0420910B0430910C04DC01CB01EF
:1048E000801B910BA20BB30B893E9340A105B10530
:1048F00070F00E945C0E6093090470930A04809328
:104900000B0490930C04C1010E94870905C060E468
:1049100076E0C1010E94780CB10180E496E00E942B
:10492000020CC1010E943B0C8091120481110DC048
:104930000E945C0E60930E0470930F048093100429
:104940009093110481E0809312040E945C0E009108
:104950000E0410910F042091100430911104DC0119
:10496000CB01801B910BA20BB30B893E9340A10599
:10497000B10508F42EC10E945C0E60930E04709382
:104980000F04809310049093110490910D0481E022
:10499000892780930D04882309F419C180EC14C180
:1049A0008091C3038111C7C08091260481110DC07D
:1049B0000E945C0E6093220470932304809324046D
:1049C0009093250481E08093260480911A0481113C
:1049D00044C00E94641168EE73E00E943229BC0159
:1049E000C1010E94F2070E946E11BC018D2D9C2D09
:1049F0000E94F2070E947611BC01CE018B5A9F4F94
:104A00000E94F207BE016B5A7F4FCE01815B9F4F20
:104A10000E94780C6D2D7C2DCE01815B9F4F0E94F2
:104A2000D80BB1010E94D80BBC018DEB93E00E9422
:104A3000780C81E080931A04CE01815B9F4F0E9425
:104A40003B0CCE018B5A9F4F0E943B0C8D2D9C2D11
:104A50000E943B0CC1010E943B0C0E945C0E009125
:104A60002204109123042091240430912504DC01B8
:104A7000CB01801B910BA20BB30B893E9340A10588
:104A8000B10508F44BC00E945C0E60932204709341
:104A9000230480932404909325040E94641168EEFB
:104AA00073E00E943229BC01C1010E94F2070E94FA
:104AB0006E11BC018D2D9C2D0E94F2070E94761173
:104AC000BC01CE018B5A9F4F0E94F207BE016B5A68
:104AD0007F4FCE01815B9F4F0E94780C6D2D7C2D06
:104AE000CE01815B9F4F0E94D80BB1010E94D80B71
:104AF000BC018DEB93E00E94EB0BCE01815B9F4FDD
:104B00000E943B0CCE018B5A9F4F0E943B0C8D2D77
:104B10009C2D0E943B0CC1010E943B0C6DEB73E08D
:104B2000C1010E94780CB10180E496E00E94020C61
:104B3000C1010E943B0C80E447C060912301709149
:104B40002401C1010E94F2076091210170912201AC
:104B50008D2D9C2D0E94F20760911F017091200104
:104B6000CE018B5A9F4F0E94F207BE016B5A7F4FB6
:104B7000CE01815B9F4F0E94780C6D2D7C2DCE0164
:104B8000815B9F4F0E94D80BB1010E94D80BBC01E2
:104B900080E496E00E94EB0BCE01815B9F4F0E9468
:104BA0003B0CCE018B5A9F4F0E943B0C8D2D9C2DB0
:104BB0000E943B0CC1010E943B0C80912501909109
:104BC0002601019721F480E88093C60302C0109269
:104BD000C6030E9449050E94F70A0C94631B0E94B9
:104BE0001F07E090DB03F090DC030091D9031091E4
:104BF000DA032091D7033091D8034091D503509127
:104C0000D6036091D3037091D4038091D103909126
:104C1000D2030E94FE0F88E293E00E94BA140C9423
:104C2000741B80E496E00E943B0C86E496E00C94B2
:104C30003B0CECE4F5E01382128288EE93E0A0E0F6
:104C4000B0E084839583A683B7832CE932E0318377
:104C5000208325EC30E03587248724EC30E037874B
:104C6000268720EC30E0318B208B21EC30E0338B39
:104C7000228B22EC30E0358B248B26EC30E0378B16
:104C8000268B118E128E138E148EE9EEF5E01382B0
:104C9000128284839583A683B7838CEA92E0918302
:104CA000808364EA73E086E496E00E94810C63ED01
:104CB00072E080E496E00E94810C21E040E06EE02A
:104CC00087E296E00E94000321E040E060E18EE090
:104CD00096E00E94000321E040E06FE085EF95E060
:104CE0000C9400031F93FC0199278827BC01E894CA
:104CF00011911032E9F3193010F01E30C8F31B3255
:104D000051F01D3249F4689406C00E94AF26610F2D
:104D1000711D811D911D119110531A30B0F33EF495
:104D200090958095709561957F4F8F4F9F4F1F9104
:104D300008954532510520F4423010F00C94A42619
:104D4000FB011082CB010895BB274A3031F499232F
:104D500022F4BDE2909581959F4F0C94C526592F62
:104D6000482F372F262F660F771F881F991F660F32
:104D7000771F881F991F620F731F841F951F660F6F
:104D8000771F881F991F0895BB27FB015527AA2766
:104D9000880F991FAA1FA41710F0A41B83955051C8
:104DA000B9F7A05DAA3308F0A95DA193009779F740
:104DB000B111B1931192CB010C94DE26DC01FC0100
:104DC000672F71917723E1F7329704C07C916D933F
:104DD00070836291AE17BF07C8F308950E94302711
:104DE00008F481E00895E89409C097FB3EF490959B
:104DF0008095709561957F4F8F4F9F4F9923A9F0B4
:104E0000F92F96E9BB279395F69587957795679542
:104E1000B795F111F8CFFAF4BB0F11F460FF1BC086
:104E20006F5F7F4F8F4F9F4F16C0882311F096E919
:104E300011C0772321F09EE8872F762F05C06623C7
:104E400071F096E8862F70E060E02AF09A95660F80
:104E5000771F881FDAF7880F9695879597F9089539
:104E6000990F0008550FAA0BE0E8FEEF161617067B
:104E7000E807F907C0F012161306E407F50798F0E3
:104E8000621B730B840B950B39F40A2661F0232BFC
:104E9000242B252B21F408950A2609F4A140A69578
:104EA0008FEF811D811D08950E9467270C94D827DC
:104EB0000E94CA2738F00E94D12720F0952311F0D4
:104EC0000C94C1270C94C72711240C940C280E9421
:104ED000E92770F3959FC1F3950F50E0551F629F2E
:104EE000F001729FBB27F00DB11D639FAA27F00D43
:104EF000B11DAA1F649F6627B00DA11D661F829F6A
:104F00002227B00DA11D621F739FB00DA11D621F4E
:104F1000839FA00D611D221F749F3327A00D611D6B
:104F2000231F849F600D211D822F762F6A2F11244D
:104F30009F5750409AF0F1F088234AF0EE0FFF1F80
:104F4000BB1F661F771F881F91505040A9F79E3FD7
:104F5000510580F00C94C1270C940C285F3FE4F3BA
:104F6000983ED4F3869577956795B795F795E7952D
:104F70009F5FC1F7FE2B880F911D9695879597F936
:104F8000089597F99F6780E870E060E008959FEFCB
:104F900080EC089500240A941616170618060906D0
:104FA000089500240A94121613061406050608959F
:104FB000092E0394000C11F4882352F0BB0F40F427
:104FC000BF2B11F460FF04C06F5F7F4F8F4F9F4F67
:104FD000089557FD9058440F551F59F05F3F71F0E9
:104FE0004795880F97FB991F61F09F3F79F0879550
:104FF0000895121613061406551FF2CF4695F1DFD9
:1050000008C0161617061806991FF1CF8695710568
:10501000610508940895E894BB2766277727CB019C
:1050200097F90895F999FECF92BD81BDF89A992715
:1050300080B50895262FF999FECF1FBA92BD81BD84
:1050400020BD0FB6F894FA9AF99A0FBE019608950A
:105050000E946A28A59F900DB49F900DA49F800D7B
:10506000911D112408952F923F924F925F926F925B
:105070007F928F929F92AF92BF92CF92DF92EF92E8
:10508000FF920F931F93CF93DF93CDB7DEB7CA1B69
:10509000DB0B0FB6F894DEBF0FBECDBF09942A8894
:1050A000398848885F846E847D848C849B84AA843C
:1050B000B984C884DF80EE80FD800C811B81AA81C9
:1050C000B981CE0FD11D0FB6F894DEBF0FBECDBF94
:1050D000ED010895A29FB001B39FC001A39F700D81
:1050E000811D1124911DB29F700D811D1124911DF0
:1050F00008955058BB27AA270E9491280C94D827BE
:105100000E94CA2738F00E94D12720F039F49F3F2F
:1051100019F426F40C94C7270EF4E095E7FB0C94E1
:10512000C127E92F0E94E92758F3BA1762077307CE
:105130008407950720F079F4A6F50C940B280EF45B
:10514000E0950B2EBA2FA02D0B01B90190010C0197
:10515000CA01A0011124FF27591B99F0593F50F4AF
:10516000503E68F11A16F040A22F232F342F442707
:10517000585FF3CF469537952795A795F0405395FF
:10518000C9F77EF41F16BA0B620B730B840BBAF0CF
:105190009150A1F0FF0FBB1F661F771F881FC2F73A
:1051A0000EC0BA0F621F731F841F48F4879577954E
:1051B0006795B795F7959E3F08F0B0CF9395880F08
:1051C00008F09927EE0F9795879508950E94ED288E
:1051D0006894B1110C940C2808950E94F12788F06E
:1051E0009F5798F0B92F9927B751B0F0E1F0660FAB
:1051F000771F881F991F1AF0BA95C9F714C0B130EC
:1052000091F00E940B28B1E008950C940B28672FB1
:10521000782F8827B85F39F0B93FCCF3869577951A
:105220006795B395D9F73EF4909580957095619503
:105230007F4F8F4F9F4F08950E94302708F48FEFC4
:1052400008950E943027880B990B0895991B79E0E7
:1052500004C0991F961708F0961B881F7A95C9F706
:105260008095089597FB072E16F4009407D077FDDC
:1052700009D00E94CC2907FC05D03EF49095819579
:105280009F4F0895709561957F4F0895A1E21A2E62
:10529000AA1BBB1BFD010DC0AA1FBB1FEE1FFF1FDA
:1052A000A217B307E407F50720F0A21BB30BE40B2A
:1052B000F50B661F771F881F991F1A9469F7609571
:1052C0007095809590959B01AC01BD01CF0108952B
:1052D000052E97FB1EF400940E947F2957FD07D0EE
:1052E0000E94462907FC03D04EF40C947F29509568
:1052F0004095309521953F4F4F4F5F4F08959095C2
:105300008095709561957F4F8F4F9F4F0895EE0F59
:10531000FF1F0590F491E02D0994B7FF0C94282805
:105320000E942828821B930B08950F93083090F059
:10533000982F872F762F652F542F432F322F222718
:105340000850F4CF220F331F441F551F661F771FCD
:10535000881F991F0A95B2F70F91089597FB10F8CF
:10536000169400080F93083098F00850232F342F1C
:10537000452F562F672F782F892F902DF4CF059426
:10538000979587957795679557954795379527957D
:105390000A95AAF70F910895AA1BBB1B51E107C0FC
:1053A000AA1FBB1FA617B70710F0A61BB70B881FB5
:1053B000991F5A95A9F780959095BC01CD01089544
:1053C000CF93DF938230910510F482E090E0E0917A
:1053D0004E06F0914F0620E030E0C0E0D0E030977C
:1053E00011F14081518148175907C0F048175907FA
:1053F00061F482819381209719F09B838A832BC06B
:1054000090934F0680934E0626C02115310519F062
:105410004217530718F49A01BE01DF01EF01028021
:10542000F381E02DDCCF2115310509F1281B390B63
:105430002430310590F412968D919C91139761154B
:10544000710521F0FB019383828304C090934F0682
:1054500080934E06FD01329644C0FD01E20FF31F1A
:1054600081939193225031092D933C933AC020911E
:105470004C0630914D06232B41F420912D013091A3
:105480002E0130934D0620934C0620912B01309134
:105490002C012115310541F42DB73EB740912F0164
:1054A00050913001241B350BE0914C06F0914D06D4
:1054B000E217F307A0F42E1B3F0B2817390778F0EB
:1054C000AC014E5F5F4F2417350748F04E0F5F1F4A
:1054D00050934D0640934C068193919302C0E0E0B7
:1054E000F0E0CF01DF91CF9108950F931F93CF93F9
:1054F000DF93009709F48CC0FC013297138212826B
:1055000000914E0610914F060115110581F420817E
:105510003181820F931F20914C0630914D06281740
:10552000390779F5F0934D06E0934C0671C0D80128
:1055300040E050E0AE17BF0750F412962D913C9119
:105540001397AD012115310509F1D901F3CF9D0163
:10555000DA013383228360817181860F971F82175E
:10556000930769F4EC0128813981260F371F2E5FDC
:105570003F4F318320838A819B8193838283452B94
:1055800029F4F0934F06E0934E0642C01396FC9325
:10559000EE931297ED01499159919E01240F351F09
:1055A000E217F30771F480819181840F951F0296B1
:1055B00011969C938E938281938113969C938E93E4
:1055C0001297E0E0F0E0D80112968D919C9113972C
:1055D000009719F0F8018C01F6CF8D919C919801FC
:1055E0002E5F3F4F820F931F20914C0630914D0646
:1055F0002817390769F4309729F410924F06109252
:105600004E0602C01382128210934D0600934C0680
:10561000DF91CF911F910F910895A0E0B0E0E3E1F9
:10562000FBE20C943728EC01009721F4CB010E9497
:10563000E029B8C0FC01E60FF71F9C012250310998
:10564000E217F30708F4ACC0D9010D911C91119732
:1056500006171707B0F00530110508F49FC0C80100
:1056600004978617970708F499C002501109061B82
:10567000170B019311936D937C93CF010E94752AB0
:105680008DC05B01A01AB10A4C01800E911EA09141
:105690004E06B0914F0640E050E0E12CF12C1097FF
:1056A00009F44AC0A815B905D1F56D907C90119701
:1056B000630182E0C80ED11CCA14DB0480F1A3018F
:1056C0004A195B096A0182E0C80ED11C1296BC908F
:1056D00012971396AC91B5E0CB16D10440F0B2828C
:1056E000A38351834083D9016D937C930AC00E5FDD
:1056F0001F4FC301800F911FF90191838083EB2D10
:10570000FA2FE114F10431F0D7011396FC93EE93D4
:10571000129744C0F0934F06E0934E063FC08D9120
:105720009C9111974817590708F4AC017D01129616
:105730000D90BC91A02DB3CF80914C0690914D0659
:1057400088159905E1F446175707C8F480912B0195
:1057500090912C01009741F48DB79EB740912F0195
:1057600050913001841B950BE817F907C8F4F093AA
:105770004D06E0934C06F901718360830FC0CB01A5
:105780000E94E0297C01009759F0A801BE010E9407
:10579000DC2BCE010E94752AC70104C0CE0102C0D5
:1057A00080E090E0CDB7DEB7EEE00C94532881E0C6
:1057B00090E0F8940C94EC2BFB01DC0102C001900A
:1057C0000D9241505040D8F70895FB01DC01019043
:1057D0000D920020E1F7089510E0CEEAD0E004C079
:1057E000FE010E9487292196CF3AD107C9F7F89484
:0257F000FFCFE9
:1057F2002D03060460EA000001FF00000000000023
:105802000000000000000000000000000000000096
:105812000000000000000018003F00000050068059
:10582200001F001C001F001E001F001E001F001F83
:10583200001E001F001E001F0000000601150126A9
:105842000137014A015D01720188019F01B801D24D
:1058520001EE010B022A024B026E029302BA02E42B
:105862000210033F037003A403DC031704550497DB
:1058720004DD0427057505C80520067D06E00649F6
:1058820007B8072D08A9082D09B9094D0AEA0A9097
:105892000B400CFA0CC00D910E6F0F0000000001BE
:1058A20000FFFF00000000000001000000000000F7
:1058B20000FFFF0100000000000000FFFF0000FEEB
:1058C200FFFDFFFBFFF7FFEFFFDFFFBFFF7FFFFFE4
:1058D200FEFFFD000A0908060009000D000E000087
:1058E20000000000000000000000000000000000B6
:1058F20000000000000000000000000000010001A4
:105902000001000200020002000300030003000382
:1059120000040000000000030C30030C30030C30C4
:10592200C00C040007000A000E0000000000000086
:105932000000000000000000000000000000000065
:10594200000000000000000017003B003B001F00A9
:105952000C00630017003B003B0001001800000030
:10596200000000000C000000000000000100010027
:10597200000000000000000000000C001F1C1F1EA1
:105982001F1E1F1F1E1F1E1F000000008E0A0A0A74
:10599200570A350A490AD50A000000006701370193
:1059A2002F011B010C010B016C6564206C6F636B92
:1059B2003D002E000D0A006E616E00696E66006F7A
:1059C20076660030303030303000313131313131B3
:1059D2000032323232323200333333333333003433
:1059E20034343434340035353535353500363636D1
:1059F20036363600373737373737003838383838A1
:105A02003800393939393939005247423D6F6E0011
:105A12005247423D6F66660073796E630050696E4D
:105A22006B50616E746865723A643D342C6F3D351B
:105A32002C623D3136303A3864232C38652C327072
:105A42002C3866232C38672C32702C3864232C387F
:105A5200652C3136702C3866232C38672C31367021
:105A62002C3863362C38622C3136702C3864232C57
:105A720038652C3136702C38622C3261232C32700E
:105A82002C3136612C3136672C3136652C31366437
:0C5A92002C326500303130333130000020
:00000001FF
