:100000000C94BD000C94E5000C94E5000C94E50004
:100010000C94E5000C94E5000C94E5000C945B2432
:100020000C94E5000C94E5000C94E5000C94AA24D3
:100030000C94E5000C94E5000C9405250C94E50067
:100040000C94B9230C94E5000C9429240C940324FB
:100050000C94E5000C94E5000C94E5000C94E5008C
:100060000C9460250C94E500496E636F72726563B1
:100070007420536F6E6720466F726D617421005754
:10008000616B652075702C204E656F2100020100A8
:100090004661756C747920525443210053746F701B
:1000A00020546573740054656D702E2073656E73F3
:1000B0006F72206E6F7420666F756E642E005374BD
:1000C0006172742054657374004E4353333134208D
:1000D000666F7220485720322E78204856353132CC
:1000E00032206F7220485635323232004669726DC6
:1000F000776172652076657273696F6E3A2000577A
:1001000061726E696E67212052544320444F4E271E
:100110005420524553504F4E44210000000000240B
:100120000027002A0000000000250028002B000006
:1001300000000800020100000304070000000000A6
:100140000000000000000023002600290004040431
:100150000404040404020202020202030303030370
:10016000030102040810204080010204081020014D
:10017000020408102000B826C22C11241FBECFEFA5
:10018000D8E0DEBFCDBF26E0A0EFB3E001C01D92F6
:10019000AF3DB207E1F713E0A0E0B1E0E0EEF3E637
:1001A00002C005900D92A03FB107D9F710E0CCEB4B
:1001B000D0E004C02197FE010E94CF2FCB3BD10796
:1001C000C9F70E9443270C94E3310C9400008CBDC6
:1001D0009DBD08958091C706E091C806F091C906BB
:1001E000F8949181982B91832281382F3095232385
:1001F0002283A7E0B0E01197F1F7918193239183D7
:10020000A3E2B0E01197F1F790817894EFECF0E081
:100210003197F1F7982381E009F480E008959091F7
:10022000C706E091C806F091C906292F209580FFE6
:1002300014C0F8948281822382838181892B8183F7
:10024000A3E2B0E01197F1F78281982B9283789422
:1002500087ED90E00197F1F70895F8948281822369
:1002600082838181892B8183AFEFB0E01197F1F711
:100270008281982B928378948FE090E0EBCF0F935C
:100280001F93CF93DF93082FC8E0D0E011E081E007
:10029000902F912309F480E00E940F01110F219704
:1002A000B1F7F894E091C806F091C9069181809168
:1002B000C706809598239183E091C806F091C906FE
:1002C0009281892382837894DF91CF911F910F913E
:1002D00008958091C706E091C806F091C906F89488
:1002E0009181282F20959223918378943DE743E0D4
:1002F00050E0315029F1DA011197F1F790819823FC
:10030000C1F3F8949281922392839181982B9183E7
:100310007894ABE7B7E01197F1F7F89491819223C5
:100320009183A3E1B1E01197F1F79081982381E0E7
:1003300009F080E07894E3E6F6E03197F1F708956C
:1003400080E0089591E090939B058093BD05109205
:100350009C051092BE050895833081F028F4813009
:1003600099F08230A9F008958730A9F08830C9F05B
:100370008430B1F4809180008F7D03C08091800033
:100380008F7780938000089584B58F7784BD08951A
:1003900084B58F7DFBCF8091B0008F778093B000C4
:1003A00008958091B0008F7DF9CFCF93DF93282FF0
:1003B00030E0F901E15DFE4F8491F901EF59FE4F04
:1003C000D491F901E35BFE4FC491CC23A1F08111DC
:1003D0000E94AC01EC2FF0E0EE0FFF1FED5BFE4F33
:1003E000A591B491EC91ED2381E090E009F480E0D7
:1003F000DF91CF91089580E090E0FACF1F93CF93E3
:10040000DF93282F30E0F901E15DFE4F8491F9017F
:10041000EF59FE4FD491F901E35BFE4FC491CC2319
:10042000A9F0162F81110E94AC01EC2FF0E0EE0F25
:10043000FF1FEB5DFE4FA591B4918FB7F894EC913F
:10044000111108C0D095DE23DC938FBFDF91CF91CF
:100450001F910895DE2BF8CFCF93DF9390E0FC013E
:10046000EF59FE4F2491835B9E4FFC0184918823BA
:10047000C9F090E0880F991FFC01E55EFE4FA59141
:10048000B491FC01EB5DFE4FC591D49161110DC09B
:100490009FB7F8948C91209582238C938881282390
:1004A00028839FBFDF91CF910895623051F49FB7A9
:1004B000F8943C91822F809583238C93E8812E2B96
:1004C000EFCF8FB7F894EC912E2B2C938FBFEACF00
:1004D0004F925F926F927F928F929F92AF92BF9254
:1004E000CF92DF92EF92FF920F931F93CF93DF9300
:1004F00000D000D01F92CDB7DEB72091CC0527FDEC
:100500002CC149835A836B837C838C0161E0809189
:10051000CB050E942C028091CC058D834801B12C23
:10052000A12C8D7F09F031C160E072E18AE790E093
:10053000A50198010E94B02F29013A017A016901B1
:1005400091E0C91AD108E108F108AFEFCA16D10449
:10055000E104F10409F00CF4C7C060E472E48FE038
:1005600090E0A50198010E94B02F69017A01B1E0E5
:10057000CB1AD108E108F1088D81823009F06AC0F8
:1005800082E09FEFC916D104E104F10409F00CF4F4
:100590005EC160E970ED83E090E0A50198010E94E2
:1005A000B02F69017A01A1E0CA1AD108E108F10867
:1005B00083E0BFEFCB16D104E104F10409F00CF4A1
:1005C00046C168E478EE81E090E0A50198010E94C0
:1005D000B02F69017A0181E0C81AD108E108F10859
:1005E00084E09FEFC916D104E104F10409F00CF492
:1005F0002EC164E274EF80E090E0A50194010E94B6
:10060000B02F69017A01B1E0CB1AD108E108F108F5
:1006100085E09FEFC916D104E104F10409F008F464
:1006200016C162E17AE780E090E0A50194010E94A2
:10063000B02F69017A01B1E0CB1AD108E108F108C5
:100640008FEFC816D104E104F10411F008F0F0C0F6
:1006500086E0FDC08FEFC816D104E104F10409F073
:100660000CF491C068E478EE81E090E0A501980177
:100670000E94B02F69017A0191E0C91AD108E108FE
:10068000F108AD8184E0A111C4CF83E0AFEFCA16B9
:10069000D104E104F10461F15CF162E17AE780E008
:1006A00090E0A50194010E94B02F69017A0181E0D8
:1006B000C81AD108E108F10884E09FEFC916D104F7
:1006C000E104F104A9F0A0F0730162019AE0F5944D
:1006D000E794D794C7949A95D1F7A1E0CA1AD108A4
:1006E000E108F10885E004C081E0AD81A111AFC04F
:1006F00095B5987F892B85BD89819A81AB81BC8115
:100700002FEF3FEFA901892B8A2B8B2B79F0D80192
:10071000AA0FBB1F29813A814B815C810E94752EF3
:1007200028EE33E040E050E00E948E2F9D81913012
:1007300009F45CC0923009F46BC091110EC0C7BCC3
:100740002093C7053093C8054093C9055093CA0547
:1007500080916E00826080936E000F900F900F90DA
:100760000F900F90DF91CF911F910F91FF90EF901D
:10077000DF90CF90BF90AF909F908F907F906F90C1
:100780005F904F90089582E0B0CF60E072E18AE719
:1007900090E0A50198010E94B02F69017A01B1E0B3
:1007A000CB1AD108E108F10891E0C114D10481E02D
:1007B000E806F10484F068E478EE81E090E0A501B9
:1007C00098010E94B02F69017A0191E0C91AD108FD
:1007D000E108F10893E0AD81A13009F08DCF80915F
:1007E0008100887F892B8093810086CFD0928900F9
:1007F000C09288002093C3053093C4054093C5057B
:100800005093C60580916F00826080936F00A5CFE2
:10081000C092B3002093BF053093C0054093C1053B
:100820005093C2058091700082608093700095CFD4
:10083000730162018AE0F594E794D794C7948A958E
:10084000D1F7B1E0CB1AD108E108F10887E0909127
:10085000B100987F892B8093B1004ECF1F93CF9327
:10086000DF93182FEB0161E00E942C02209739F4EE
:1008700060E0812FDF91CF911F910C94FE01CF3F5B
:10088000D10511F461E0F5CFE12FF0E0E15DFE4F1D
:10089000E491E33031F140F4E130B1F0E230E1F0E5
:1008A000C038D1057CF7E4CFE73029F1E83059F1C1
:1008B000E430B1F780918000806280938000D09313
:1008C0008B00C0938A0004C084B5806884BDC7BD16
:1008D000DF91CF911F91089584B5806284BDC8BD1A
:1008E000F7CF80918000806880938000D09389004A
:1008F000C0938800EDCF8091B00080688093B000F5
:10090000C093B300E5CF8091B00080628093B000C7
:10091000C093B400DDCF3FB7F89480914905909122
:100920004A05A0914B05B0914C0526B5A89B05C082
:100930002F3F19F00196A11DB11D3FBFBA2FA92F5E
:10094000982F8827BC01CD01620F711D811D911D5B
:1009500042E0660F771F881F991F4A95D1F70895C7
:100960008F929F92AF92BF92CF92DF92EF92FF92BF
:100970004B015C010E948B046B017C010E948B0483
:100980006C197D098E099F09683E734081059105A8
:10099000A8F321E0821A9108A108B10888EEC80ED8
:1009A00083E0D81EE11CF11C81149104A104B10460
:1009B00029F7FF90EF90DF90CF90BF90AF909F907E
:1009C0008F9008952FB7F894609145057091460572
:1009D00080914705909148052FBF08950895089587
:1009E0000895AF92BF92CF92DF92EF92FF920F9352
:1009F0001F93CF93DF936C017B018B01040F151FB5
:100A0000EB015E01AE18BF08C017D10759F069911C
:100A1000D601ED91FC910190F081E02DC601099580
:100A2000892B79F7C501DF91CF911F910F91FF902D
:100A3000EF90DF90CF90BF90AF90089542E050E0EC
:100A400068E173E08DEC95E00C94F104CF93DF93B3
:100A5000FC0144815581608171818DEC95E00E949B
:100A6000F104EC010E941E058C0F9D1FDF91CF91B8
:100A70000895FC01538D448D252F30E0842F90E0A4
:100A8000821B930B541710F0CF9608950197089589
:100A9000FC01918D828D981761F0A28DAE0FBF2F52
:100AA000B11D5D968C91928D9F5F9F73928F90E0A8
:100AB00008958FEF9FEF0895FC01918D828D981717
:100AC00031F0828DE80FF11D858D90E008958FEF54
:100AD0009FEF0895FC01918D228D892F90E0805C1D
:100AE0009F4F821B91098F73992708958DEC95E094
:100AF0000E946A0521E0892B09F420E0822F0895E5
:100B000080E090E0892B29F00E94760581110C94F9
:100B100000000895FC01A48DA80FB92FB11DA35AA0
:100B2000BF4F2C91848D90E001968F739927848F0D
:100B3000A689B7892C93A089B1898C918370806430
:100B40008C93938D848D981306C00288F389E02DD1
:100B500080818F7D80830895EF92FF920F931F9382
:100B6000CF93DF93EC0181E0888F9B8D8C8D981360
:100B70001AC0E889F989808185FF15C09FB7F8946C
:100B8000EE89FF896083E889F989808183708064B8
:100B900080839FBF81E090E0DF91CF911F910F9103
:100BA000FF90EF900895F62E0B8D10E00F5F1F4F12
:100BB0000F731127E02E8C8D8E110CC00FB607FC21
:100BC000FACFE889F989808185FFF5CFCE010E94AF
:100BD0008A05F1CFEB8DEC0FFD2FF11DE35AFF4F8E
:100BE000F0829FB7F8940B8FEA89FB89808180623D
:100BF000CFCF0F931F93CF93DF938C01D0E0C0E052
:100C0000F801EC0FFD1F6491662341F08DEC95E037
:100C10000E94AC05892B11F02196F2CFCE01DF9115
:100C2000CF911F910F910895CF93DF930E94F90503
:100C3000EC010E941E058C0F9D1FDF91CF9108953E
:100C4000CF93DF93EC01888D8823B9F0AA89BB8903
:100C5000E889F9898C9185FD03C0808186FD0DC0EE
:100C60000FB607FCF7CF8C9185FFF2CF808185FF0F
:100C7000EDCFCE010E948A05E9CFDF91CF91089593
:100C800060930F05709310058093110590931205E2
:100C9000645D7E4F8F4F9F4F60930B0570930C05E3
:100CA00080930D0590930E0582E090E090930A05E5
:100CB000809309050E94E204609305057093060580
:100CC000809307059093080508952F923F924F92C5
:100CD0005F926F927F928F929F92AF92BF92CF92CC
:100CE000DF92EF92FF920F931F93CF93DF93382EF3
:100CF000962E842E222E84E6E816F1040CF459C0B8
:100D000092EBE91A97E0F90AE092190500931805A9
:100D100020921705309215059092140580921305C4
:100D2000AE2DB0E020E833E341EE51E00E94752E95
:100D30002B013C0122EB37E0FF24E4E6F0E0C0E9C0
:100D4000D1E0C901825B97408E159F05B4F19EE406
:100D5000E91A98EFF90AC70164E670E00E947A2F59
:100D60006C01C70160E971E00E947A2F5C01C0EC60
:100D7000D2E0E1E0F0E0112783E0E822FF24E01771
:100D8000F1070CF042C0E230F10591F5E114F104F5
:100D900079F5C114D10419F4A114B10449F580E81E
:100DA000480E8BE3581E86E2681E711C3196219610
:100DB000E6CF8EE1E80EF11CA7CFC9018370992719
:100DC000892B99F4C901BF010E947A2F892B31F434
:100DD000C901BE010E947A2F892B39F490E8490E8F
:100DE00091E5591E91E0691E711C2F5F3F4FA9CFFD
:100DF000A881B0E020E831E541E050E00E94752E86
:100E0000460E571E681E791ED1CF292D30E0ACE367
:100E1000B0E00E94B72E6B017C01C80CD11CE11C14
:100E2000F11C232D30E0A0E1BEE00E94B72EC60EDB
:100E3000D71EE81EF91E822D8150990BDC0120E897
:100E400031E541E050E00E94D52F6C0D7D1D8E1DD7
:100E50009F1D640D751D861D971DDF91CF911F91FC
:100E60000F91FF90EF90DF90CF90BF90AF909F9049
:100E70008F907F906F905F904F903F902F900C9449
:100E80004006CF92DF92EF92FF920F931F930E9442
:100E9000E2048B019C01C0900505D0900605E0900E
:100EA0000705F090080560910F057091100580917D
:100EB0001105909112050C191D092E093F09083ED4
:100EC000134021053105E0F0DC01CB010196A11DA5
:100ED000B11D80930F0590931005A0931105B09359
:100EE0001205B701A60148515C4F6F4F7F4F4093E9
:100EF0000505509306056093070570930805C7CF55
:100F00001F910F91FF90EF90DF90CF9008954F9237
:100F10005F926F927F928F929F92AF92BF92CF9289
:100F2000DF92EF92FF920F931F93CF93DF934B01CA
:100F30005C018091010590910205A0910305B0919B
:100F4000040588159905AA05BB0509F4C6C08CE3FC
:100F5000C82ED12CE12CF12CC501A70196010E94CD
:100F60008E2F60931305CA01B901A70196010E9453
:100F70008E2F60931405C501B40120E13EE040E0EE
:100F800050E00E948E2FCA01B90128E130E040E014
:100F900050E00E948E2F60931505C501B40120E832
:100FA00031E541E050E00E948E2F69017A01CA01CB
:100FB000B9016C5F7F4F8F4F9F4F27E030E040E0DB
:100FC00050E00E948E2F6F5F60931605412C512CCC
:100FD000320140E004E610E0C0E9D1E0242F30E027
:100FE0002E54384FF901E370FF273097F9F4C90107
:100FF000B8010E947A2F892B31F4C901BE010E94E9
:101000007A2F892B99F48EE691E0A0E0B0E0480EAB
:10101000591E6A1E7B1ED301C201AA27BB27C81610
:10102000D906EA06FB0638F04F5FD8CF8DE691E08F
:10103000A0E0B0E0ECCF40931905C90164E670E090
:101040000E947A2FEC01C90160E971E00E947A2FB9
:10105000309721F42097D9F40097C9F04DE651E07C
:1010600060E070E0441A550A660A770AC418D50889
:10107000E608F708A0ECB2E020E0213069F43097F0
:10108000E9F5209711F40097C9F54DE106C04EE649
:1010900051E060E070E0E6CF4C9150E070E060E03D
:1010A00031E0320FC416D506E606F70640F0C41A42
:1010B000D50AE60AF70A1196232F3C30F1F62F5F86
:1010C00020931805C394C092170580920105909251
:1010D0000205A0920305B0920405DF91CF911F9104
:1010E0000F91FF90EF90DF90CF90BF90AF909F90C7
:1010F0008F907F906F905F904F9008954CE1CDCF8F
:101100000E9441070E9487078091190590E08E5444
:10111000984F08950E9441070E9487078091180503
:1011200090E008950E9441070E948707809117056B
:1011300090E008950E9441070E948707809113055F
:1011400090E008950E9441070E948707809114054E
:1011500090E008950E9441070E948707809115053D
:1011600090E00895CF92DF92EF92FF92CF93DF93BA
:10117000EC010E94E2046B017C018F850E94D50185
:101180009C0181E02115310509F480E0898B888973
:10119000811105C091E0232B09F090E0998B2989FA
:1011A0008A89281721F0CD8ADE8AEF8AF88E8D8908
:1011B0009E89AF89B88DB701A601481B590B6A0BF0
:1011C0007B0BDB01CA01CB80DC80ED80FE80C81682
:1011D000D906EA06FB0664F43A81231749F02A830C
:1011E000222349F04B895C894F5F5F4F5C8B4B8BAF
:1011F0003A81311117C0CF80D884E984FA84C816A7
:10120000D906EA06FB0634F48B899C899983888386
:101210001C8A1B8A2A8BDF91CF91FF90EF90DF9081
:10122000CF900895CB84DC84ED84FE84C816D90663
:10123000EA06FB067CF78B899C899195819591093B
:10124000E5CF2091DE04260F3327331F21323105ED
:10125000ECF420919505FC0190E080E0243069F0E9
:1012600082E00895A091DE042191AC0142545B4FCD
:10127000A40FB52FB11D2C930196861798F380917A
:10128000DE04680F6093DE0480E0089581E0089535
:101290001092950581E08093940510926F0561E0AE
:1012A00082E10E94FE0161E083E10E94FE01E9EB20
:1012B000F0E080818E7F808380818D7F808388E4D1
:1012C0008093B80085E48093BC000895CF93DF93AA
:1012D00091E09093BD048823B9F0C091B800D091FB
:1012E000BA008091BC008A7B8093BC0060E082E100
:1012F0000E94FE0160E083E10E94FE010E94480915
:10130000D093BA00C093B800DF91CF910895CF92E7
:10131000DF92EF92FF920F931F93CF93DF93D091C1
:10132000BE0581E0D13208F09CC0C091BD050E948D
:101330008B046B017C018091950581116CC082E06A
:101340008093950581E0809394058FEF80939305BA
:1013500010929205D0939105ADE9B5E0E1E7F5E093
:1013600080E0D8138DC01092700580917005CC0F6D
:10137000C82BC093700580916F05813009F084C03F
:1013800010926F050E948B046B017C0180917005A7
:101390008093BB008091970590919805A091990545
:1013A000B0919A05892B8A2B8B2BA1F00E948B047C
:1013B00000919705109198052091990530919A0513
:1013C0006C197D098E099F09061717072807390729
:1013D00008F442C08091BC0083FDD8CF85EC809397
:1013E000BC000E948B046B017C01809195058230CA
:1013F00009F44CC0809193058F3F09F469C0809136
:101400009305803209F466C080919305803309F416
:1014100063C084E026C08091970590919805A091C3
:101420009905B0919A05892B8A2B8B2B09F483CFD0
:101430000E948B04009197051091980520919905C1
:1014400030919A056C197D098E099F0906171707B7
:101450002807390708F06FCF809196050E9466092A
:1014600085E010929C051092BE0510929B05DF91BD
:10147000CF911F910F91FF90EF90DF90CF90089543
:101480009D9191938F5F6DCF85EEA9CF8091970548
:1014900090919805A0919905B0919A05892B8A2B76
:1014A0008B2B09F4A2CF0E948B0400919705109119
:1014B00098052091990530919A056C197D098E093E
:1014C0009F09061717072807390708F08ECFC4CFE2
:1014D00080E0C7CF82E0C5CF83E0C3CF0895E0911D
:1014E0004E0580914D05E81730F4F0E0E15BFA4FCE
:1014F000808190E008958FEF9FEF089590914E05C1
:1015000080914D052FEF3FEF981748F4E92FF0E059
:10151000E15BFA4F208130E09F5F90934E05C90157
:10152000089580914D0590914E05891B990B089562
:10153000CF92DF92EF92FF920F931F93CF93DF939F
:101540007C01CB018A0120919B05222389F0EB01CC
:101550006B01C40ED51ECC15DD0569F06991D7016C
:10156000ED91FC910190F081E02DC7010995F3CF39
:10157000642F0E942109C801DF91CF911F910F9123
:10158000FF90EF90DF90CF900895CF93DF931F925D
:10159000CDB7DEB7698320919B052223F9F0209116
:1015A000BE05203258F021E030E0FC013383228375
:1015B00090E080E00F90DF91CF91089580919C059D
:1015C000E82FF0E0E356FA4F998190838F5F809384
:1015D0009C058093BE0581E090E0ECCF61E0CE01F8
:1015E00001960E942109F7CF682F8AE696E00C94B5
:1015F000C50A90E080E00895CF92DF92EF92FF92CB
:101600000F931F93CF93DF939091BC0491110BC064
:101610008FEF9FEFDF91CF911F910F91FF90EF9090
:10162000DF90CF9008959091BB04992389F3082F00
:10163000C091BA04D0E08091B20481110DC00E9423
:10164000E2046093AE047093AF048093B00490936F
:10165000B10481E08093B2040E94E204C090AE0421
:10166000D090AF04E090B004F090B1046C197D0903
:101670008E099F096D32714081059105B0F010917E
:10168000AD040E94E2046093AE047093AF048093B3
:10169000B0049093B10491E091279093AD04992305
:1016A00031F11092AC041092AB042091AB04309154
:1016B000AC04209530958091AA04282326FF1CC0F5
:1016C00081E08093A90427FF1AC081E08093A804D9
:1016D0008091AD04882309F49BCF02C0D595C795AE
:1016E0000A95E2F7C0FF94CF80E09CE393CFD093BC
:1016F000AC04C093AB04D9CF1092A904E4CF1092EC
:10170000A804E6CFEF92FF920F931F93CF93DF933E
:10171000182F8091820481110DC00E94E204609311
:101720007E0470937F04809380049093810481E011
:1017300080938204C0917C04D0917D04C930D1058E
:1017400008F075C0FE01E955F44F0C94CF2FB00B93
:10175000BC0BC00BCE0BB00BBC0BF30BF50B060C8C
:101760000E9469012196CA30D10509F097C01092F4
:101770007D0410927C0428C08CEC0E943F01F2CFC3
:1017800084E40E943F010E94E20460937E0470930F
:101790007F048093800490938104E4CF0E94E2044C
:1017A00000917E0410917F04209180043091810487
:1017B000601B710B820B930BC4E0D0E06E3E724055
:1017C0008105910508F06AC06091780470917904F0
:1017D00080917A0490917B04DF91CF911F910F91BA
:1017E000FF90EF9008958EEBC8CF98E0E92EF12C92
:1017F00010E001E00E94EA008111102B000F81E04F
:10180000E81AF108B9F710937604ACCF88E0E82E17
:10181000F12C10E001E00E94EA008111102B000F72
:1018200021E0E21AF108B9F7109377049BCFC93091
:10183000D10509F097CF60917604709177046F3FDE
:10184000760711F470E060E0072E000C880B990B0E
:101850000E94422D20E030E040E85DE30E94A12D8F
:1018600011110FC020E030E040E251E40E94A12DB0
:10187000609378047093790480937A0490937B0446
:1018800071CF26E636E646EE5FE30E94A12D20E00A
:1018900030E040E052E40E94C72EE4CFD0937D04B4
:1018A000C0937C0491CF0F931F938091600190911E
:1018B0006101892B09F44DC0809167048823A9F048
:1018C0000E94E20400916304109164042091650475
:1018D00030916604601B710B820B930B693E734061
:1018E00081059105B0F1109267040E94AA08209129
:1018F0005A0130915B018217930759F50E94A208A3
:1019000020915C0130915D018217930711F50E94CF
:101910009A0820915E0130915F0182179307C9F404
:101920000E94E204609363047093640480936504EE
:101930009093660481E0809367048FE790E00E94B3
:10194000140680913D0190913E019093340580935F
:1019500033051F910F910895CF93DF93EC012196EA
:10196000FC0120812A33C9F42181243609F522960D
:1019700030E020E06AE0899190ED980F9A3078F499
:10198000629FA001639F500D1124082E000C990B3B
:10199000C0979A01280F391FEECFCE01DFCF3093C9
:1019A0005B0420935A042115310511F02093330173
:1019B00088818F3689F48A81082E000C990B9C014E
:1019C0002053310930935B0420935A04C397059741
:1019D00010F420933201249688818236F1F4229605
:1019E00030E020E06AE0899190ED980F9A3068F439
:1019F000629FA001639F500D1124082E000C990BCB
:101A0000C0979A01280F391FEECF30935B042093C3
:101A10005A043093310120933001209130013091EC
:101A20003101032E000C440B550B60E67AEE80E08A
:101A300090E00E94B02F82E0220F331F441F551FF9
:101A40008A95D1F720935604309357044093580455
:101A500050935904CE01DF91CF9108958EBD0000BF
:101A60000DB407FEFDCF8EB508958F929F92AF9271
:101A7000BF92CF92DF92EF92FF920F931F93CF937B
:101A8000DF937C01D62F0E948B044B015C01809177
:101A90009505811167C0CD2F81E0809395058093D6
:101AA00094059FEF90939305109292059D0F90934C
:101AB00091058093700580917005EE0CFF1C8E29B6
:101AC0008093700580916F05813009F083C010927A
:101AD0006F050E948B046B017C01809170058093DF
:101AE000BB008091970590919805A0919905B091C0
:101AF0009A05892B8A2B8B2BA1F00E948B04809056
:101B0000970590909805A0909905B0909A056C194A
:101B10007D098E099F0986169706A806B90608F45E
:101B200042C08091BC0083FDD8CF85EC8093BC007F
:101B30000E948B046B017C0180919505813009F432
:101B40004BC0809192058D1710F4C0919205E1E78A
:101B5000F5E0AFE4B5E080E08C1751F191919D93F1
:101B60008F5FFACF8091970590919805A091990584
:101B7000B0919A05892B8A2B8B2B09F488CF0E9470
:101B80008B0400919705109198052091990530914B
:101B90009A05681979098A099B0906171707280702
:101BA000390708F074CF809196050E946609C0E05D
:101BB00010924E05C0934D058C2FDF91CF911F9150
:101BC0000F91FF90EF90DF90CF90BF90AF909F90DC
:101BD0008F90089585EEAACF8091970590919805F2
:101BE000A0919905B0919A05892B8A2B8B2B09F42A
:101BF000A3CF0E948B048090970590909805A090A9
:101C00009905B0909A056C197D098E099F09861671
:101C10009706A806B90608F08FCFC5CFCF93C0911D
:101C200034018C2F0E94A20160E08AE696E00E94B7
:101C3000C50A0E94870967E070E08C2F90E00E943F
:101C4000350D8AE696E00E947E0A982F92959F7045
:101C5000CAE08F709C9F800D112490E09093410505
:101C6000809340058AE696E00E947E0A982F92951E
:101C70009F708F709C9F800D112490E09093380589
:101C8000809337058AE696E00E947E0A982F929507
:101C900093708F709C9F800D112490E09093360577
:101CA000809335058AE696E00E947E0A8AE696E0F1
:101CB0000E947E0A982F92959F708F709C9F800D36
:101CC000112490E090933A05809339058AE696E0D6
:101CD0000E947E0A982F92959F708F709C9F800D16
:101CE000112490E090933C0580933B058AE696E0B2
:101CF0000E947E0A982F92959F708F709C9F800DF6
:101D0000112490E090933E0580933D05CF91089576
:101D1000FC0180819181009711F00C94CA2C60E045
:101D200070E0CB0108952F923F924F925F926F9295
:101D30007F928F929F92AF92BF92CF92DF92EF925B
:101D4000FF92CF93DF93CDB7DEB764970FB6F894C9
:101D5000DEBF0FBECDBF0E948B04C090A404D09004
:101D6000A504E090A604F090A7046C197D098E09E3
:101D70009F096E34734C8105910508F4F0C10E94EF
:101D80008B046093A4047093A5048093A60490939D
:101D9000A70481EC96E00E94880E69837A838B8386
:101DA0009C8360E08AE00E94FE012AE0222E312C12
:101DB000412C512C69817A818B819C81A2019101F6
:101DC0000E94B02F49015A01660F771F64557D4F5D
:101DD000DB01ED90FC9085E090E00E94FC0A6C0134
:101DE000C501B401A20191010E94B02F660F771FB7
:101DF00064557D4FFB01A080B18084E090E00E949B
:101E0000FC0A3C0169817A818B819C8124E630E067
:101E100040E050E00E94B02FCA01B901A201910137
:101E20000E94B02F660F771F64557D4FDB018D90A8
:101E30009C9083E090E00E94FC0ACE20DF20F12CF1
:101E4000E12C64E1CC0CDD1CEE1CFF1C6A95D1F783
:101E500088219921B0E0A0E0C82AD92AEA2AFB2AE1
:101E6000A620B720C501B0E0A0E07AE0880F991F56
:101E7000AA1FBB1F7A95D1F7C82AD92AEA2AFB2ABA
:101E800069817A818B819C8128EE33E040E050E0CB
:101E90000E94B02F298B3A8B4B8B5C8B20913501A4
:101EA0003091360140913701509138012D833E83A6
:101EB0004F8358878091A904882309F406C1DA0169
:101EC000C9018C299D29AE29BF2940903901509024
:101ED0003A0160903B0170903C012091A8042223BC
:101EE00009F400C16C017D01C428D528E628F72833
:101EF000309029058F2D9927AA27BB2789879A8794
:101F0000AB87BC874701AA24BB2455274F2D3E2D04
:101F10002D2D2D873E874F87588B332009F4EFC036
:101F20008C2D0E942E0D8D850E942E0D882D0E94D5
:101F30002E0D89850E942E0D3AE0832E912CA12C26
:101F4000B12C69897A898B899C89A50194010E94A9
:101F5000B02F660F771F64557D4FDB010D90BC914C
:101F6000A02DBA87A98782E090E00E94FC0A6C014C
:101F700069817A818B819C8120E137E240E050E0E9
:101F80000E94B02FCA01B901A50194010E94B02F8F
:101F9000660F771F64557D4FFB01E080F18081E083
:101FA00090E00E94FC0A29853A85C222D322A6012C
:101FB00070E060E0E4E1440F551F661F771FEA956B
:101FC000D1F78E219F21B0E0A0E06C017D01FAE005
:101FD000CC0CDD1CEE1CFF1CFA95D1F7C42AD52AC7
:101FE000E62AF72A69817A818B819C8120EA36E88A
:101FF00041E050E00E94B02FCA01B901A50194014F
:102000000E94B02F660F771F64557D4FDB01AD90A6
:10201000BC9090E080E00E94FC0A8A219B21B0E005
:10202000A0E08C299D29AE29BF292091A904222353
:1020300009F470C02D813E814F815885822B932BEE
:10204000A42BB52B2091A804222309F470C06C01A5
:102050007D01C428D528E628F7284F2C552466246E
:1020600077244701AA24BB24BB27AF2D9E2D8D2D9D
:1020700089839A83AB83BC83332009F465C08C2D9C
:102080000E942E0D89810E942E0D882D0E942E0DFA
:10209000842D0E942E0D61E08AE064960FB6F894BC
:1020A000DEBF0FBECDBFDF91CF91FF90EF90DF90ED
:1020B000CF90BF90AF909F908F907F906F905F90E8
:1020C0004F903F902F900C94FE018D819E81AF81A7
:1020D000B88580959095A095B0958C219D21AE21D5
:1020E000BF21F3CEB301A201409550956095709544
:1020F0006A017B01C822D922EA22FB22F9CE898516
:102100000E942E0D882D0E942E0D8D850E942E0D71
:102110008C2D10CF4D815E816F81788540955095D3
:102120006095709584239523A623B7238BCFB301A5
:10213000A20140955095609570956A017B01C82277
:10214000D922EA22FB2289CF842D0E942E0D882DD0
:102150000E942E0D89810E942E0D8C2D9ACF64969F
:102160000FB6F894DEBF0FBECDBFDF91CF91FF90C9
:10217000EF90DF90CF90BF90AF909F908F907F9027
:102180006F905F904F903F902F9008950F931F9303
:10219000CF93DF938C01EB01FC018081918100974B
:1021A000E1F06881798161157105A9F0428153815F
:1021B0002C813D814217530770F00E94DC318C81E5
:1021C0009D81F801958384831D821C82DF91CF91CC
:1021D0001F910F9108950E948D3088819981F80197
:1021E000918380838A819B81938382838C819D816B
:1021F00095838483198218821B821A82E5CFCF933C
:10220000DF93EC0188819981009711F00E948D3055
:10221000198218821D821C821B821A82DF91CF9143
:102220000895FC0180819181009711F00C948D300C
:1022300008950F931F93CF93DF93EC0188819981C9
:10224000009759F02A813B812617370730F081E04B
:10225000DF91CF911F910F9108958B016F5F7F4F99
:102260000E941631009759F0998388831B830A8353
:102270002C813D81232B59F7FC011082E8CF80E0AF
:10228000E7CFEF92FF920F931F93CF93DF936115E8
:10229000710541F480E0DF91CF911F910F91FF9084
:1022A000EF90089541155105B1F07B01EC010C81CF
:1022B0001D81040F151FB8010E941911882351F3C5
:1022C000288139818C819D81B701820F931F0E94E3
:1022D000DC311D830C8381E0DECFCF93DF93EC01F3
:1022E000FB0101900020E9F73197AF01461B570B26
:1022F0000E944111811103C0CE010E94FF10CE0146
:10230000DF91CF910895CF93DF93EC01FB014481DE
:102310005581608171810E944111811103C0CE01FC
:102320000E94FF10CE01DF91CF910895EF92FF92AE
:102330000F931F93CF93DF93EC017B018A01BA01C6
:102340000E94191181110BC0CE010E94FF10CE0115
:10235000DF91CF911F910F91FF90EF9008951D8312
:102360000C83B701888199810E94DC31F0CFFB0199
:1023700001900020E9F73197AF01461B570B0C94F1
:1023800096110F931F93CF93DF93CDB7DEB762976C
:102390000FB6F894DEBF0FBECDBF8C01CB01F801A4
:1023A0001182108213821282158214824AE0BE01C9
:1023B0006F5F7F4F0E94F12CBE016F5F7F4FC8019E
:1023C0000E94B71162960FB6F894DEBF0FBECDBF64
:1023D000DF91CF911F910F910895CF93DF93EC017F
:1023E000FB018617970749F06081718161157105BE
:1023F00041F0448155810E949611CE01DF91CF9129
:1024000008950E94FF10F9CFFC01118210821382FF
:102410001282158214820C94ED11FC01118210823B
:102420001382128215821482FB0101900020E9F7C9
:102430003197AF01461B570B0C949611AF92BF9288
:10244000CF92DF92EF92FF920F931F93CF93DF9380
:102450006C015B017A0189012417350720F48F2D67
:102460007901042F182F6AE173E0C6010E940D1252
:10247000D5011496CD91DC91EC16FD06E0F40C1715
:102480001D0708F4E801D501ED91FC911197EC0FBF
:10249000FD1F108110826D917C916E0D7F1DC60114
:1024A00061157105A1F00E94B711F501808191813C
:1024B000C80FD91F1883C601DF91CF911F910F91CB
:1024C000FF90EF90DF90CF90BF90AF9008950E9463
:1024D000FF10EBCF4F925F926F927F928F929F92FD
:1024E000AF92BF92CF92DF92EF92FF920F931F9322
:1024F000CF93DF9300D000D000D0CDB7DEB77C0102
:102500004B015A018091750481113AC081E080939A
:1025100075049FE6692E94E0792E29E6422E24E088
:10252000522E10E000E00F5F1F4F680181E0C81AD3
:10253000D1089801A601B401CE0101960E941E1295
:10254000CE0101960E94880ED3016D933D01CE010C
:1025500001960E9411119801A601B501CE010196C4
:102560000E941E12CE0101960E94880EF201619314
:102570002F01CE0101960E9411110630110599F626
:10258000909168048FE6C82E84E0D82EE9E6F4E046
:102590008601A801D8018C919A3008F04DC08F5F58
:1025A0008C930F5F1F4FDA018C918A3019F4D80198
:1025B00011971C923196B4E005371B0751F79F5FC6
:1025C000943109F43FC0909368046AE173E0C70155
:1025D0000E940D12FE0131965F01D6018D916D01B1
:1025E0004AE0B50190E00E94F12CF5010190002035
:1025F000E9F73197AF014A195B09B501C7010E949C
:1026000041110C151D0549F7C70126960FB6F89420
:10261000DEBF0FBECDBFDF91CF911F910F91FF9015
:10262000EF90DF90CF90BF90AF909F908F907F9072
:102630006F905F904F9008952081281709F4B1CFD3
:102640008F5FAECF1092680410927504BECFCF9208
:10265000DF92EF92FF921F93CF93DF93CDB7DEB758
:102660002C970FB6F894DEBF0FBECDBF182F6EE3C8
:1026700073E0CE0107960E940D1222E030E050E098
:1026800040E0133071F024E030E042E050E01C30D4
:1026900041F01033B9F42091C5063091C60644E0EC
:1026A00050E061EC76E0CE0101960E941E12BE0160
:1026B0006F5F7F4FCE0107960E94C610CE01019634
:1026C0000E941111CE0107960E94880E6B01CE0167
:1026D00007960E941111C6012C960FB6F894DEBF22
:1026E0000FBECDBFDF91CF911F91FF90EF90DF9094
:1026F000CF9008950F931F93CF93DF93CDB7DEB79D
:1027000062970FB6F894DEBF0FBECDBF8C0177FF86
:1027100003C07195619571096A307105A4F5CE0108
:102720000D960E94C11160E273E0CE0101960E94F5
:102730000D12BE016F5F7F4FCE0107960E940412FB
:10274000BE01635F7F4FCE0107960E948311BC01DB
:10275000C8010E940412CE0107960E941111CE01F9
:1027600001960E941111CE010D960E941111C8010F
:1027700062960FB6F894DEBF0FBECDBFDF91CF914A
:102780001F910F910895C8010E94C111F0CF0F93BE
:102790001F93CF93DF93CDB7DEB768970FB6F8944A
:1027A000DEBF0FBECDBF8B01833079F52091C5060A
:1027B0003091C60642E050E061EC76E0CE010D9625
:1027C0000E941E12B801CE0101960E947A13BE012A
:1027D0006F5F7F4FCE0107960E940412BE01635FB8
:1027E0007F4FCE0107960E948311BC0181EC96E0D9
:1027F0000E94ED11CE0107960E941111CE010196A3
:102800000E941111CE010D9644C08C3009F04EC0CB
:102810002091C5063091C60644E050E061EC76E0B8
:10282000CE0143960E941E12B801CE010D960E9461
:102830007A1322E030E050E040E061EC76E0CE0137
:1028400001960E941E12BE016F5F7F4FCE01079658
:102850000E940412BE01635F7F4FCE0107960E9463
:102860008311BE016D5E7F4F0E948311BC0181EC1C
:1028700096E00E94ED11CE0107960E941111CE0143
:1028800001960E941111CE010D960E941111CE01E8
:1028900043960E94111168960FB6F894DEBF0FBEE2
:1028A000CDBFDF91CF911F910F910895803399F79C
:1028B000CE010D960E947A1324E030E050E040E013
:1028C00061EC76E0CE0101960E941E1280CF0E943C
:1028D000E20460935F0470936004809361049093BA
:1028E000620480915E04882309F44FC020915C0447
:1028F00030915D04C901880F991F21313105A1F183
:10290000FC01E05CFE4F40815181415051095183EF
:102910004083DC01A05CBE4F6D917C911197FC015E
:10292000E453FD4F40815181641775073CF4FC016D
:10293000EC57FD4F408151814D935C93203131051F
:1029400009F5209160013091610121303105B9F420
:1029500020E82093AA04805C9E4FFC016081718175
:102960008091BA040C94C7134091620150916301A5
:102970004C5051095093630140936201CACF1092A9
:10298000AA04E9CF2930310531F708950E94E20405
:1029900060935F0470936004809361049093620479
:1029A00080915E04882309F444C020915C04309136
:1029B0005D04C901880F991F2131310561F1FC01C6
:1029C000E05CFE4F408151814F5F5F4F51834083F8
:1029D000DC01A05CBE4F6D917C911197FC01EC571E
:1029E000FD4F40815181461757073CF4FC01E453E9
:1029F000FD4F408151814D935C9320313105B1F4FD
:102A00001092AA04805C9E4FFC01608171818091CC
:102A1000BA040C94C7134091620150916301445F62
:102A20005F4F5093630140936201D2CF293031054B
:102A300049F708950F931F93CF93DF93CDB7DEB778
:102A400068970FB6F894DEBF0FBECDBF8C018091A2
:102A5000620190916301489709F048C00E949A086A
:102A6000BC01CE0143960E947A130E94A208BC01C9
:102A7000CE010D960E947A130E94AA08BC01CE01D5
:102A800001960E947A13BE016F5F7F4FCE010796B9
:102A90000E940412BE01635F7F4FCE0107960E9421
:102AA0008311BE016D5E7F4F0E948311BC01C8017E
:102AB0000E940412CE0107960E941111CE010196C8
:102AC0000E941111CE010D960E941111CE01439664
:102AD0000E941111C80168960FB6F894DEBF0FBEB0
:102AE000CDBFDF91CF911F910F9108950E949A0859
:102AF000BC01CE0143960E947A130E94A208BC0139
:102B0000CE010D960E947A130E9441070E9487070A
:102B1000809115056CE070E0882309F4B0CF682F30
:102B200070E08D3008F4ABCF6C507109A8CF8F9254
:102B30009F92AF92BF92CF92DF92EF92FF920F934C
:102B40001F93CF93DF93CDB7DEB72C970FB6F894D2
:102B5000DEBF0FBECDBF8C016A017B0180919C045A
:102B6000811111C00E94E204645B7B4F8F4F9F4F25
:102B7000609398047093990480939A0490939B04B3
:102B800081E080939C0480919004811109C06BE1E5
:102B900073E08AE894E00E940D1281E08093900433
:102BA0000E94E2048090980490909904A0909A0466
:102BB000B0909B04681979098A099B09693E7340A2
:102BC0008105910508F4D0C00E94E2046093980446
:102BD0007093990480939A0490939B0420E030E0D2
:102BE000A901C701B6010E94692F20E030E040E052
:102BF0005FE387FDD2C0C701B6010E94C72E0E94C5
:102C0000332F7B0177FF04C0EE24FF24E61AF70A76
:102C10005B0139E1A31A3CEFB30A80916401909102
:102C200065019B012D593F4F69012A553109490121
:102C3000B701892B09F0B6C0CE0107960E94C111D9
:102C400060E273E0CE0101960E940D12BE01695F41
:102C50007F4FCE0101960E94831160E273E00E94D3
:102C60006D11BC018AE894E00E94ED11CE0101963D
:102C70000E941111CE0107960E9411113FECA3167C
:102C800037E0B30618F5B701CE0107960E94C111CF
:102C90006FE173E0CE0101960E940D12BE01695FE3
:102CA0007F4FCE0101960E94831160E273E00E9483
:102CB0006D11BC018AE894E00E94ED11CE010196ED
:102CC0000E941111CE0107960E94111187ECC816BF
:102CD000D10418F5B701CE0107960E94C1116EE12B
:102CE00073E0CE0101960E940D12BE01695F7F4F15
:102CF000CE0101960E94831160E273E00E946D1183
:102D0000BC018AE894E00E94ED11CE0101960E9478
:102D10001111CE0107960E94111123E18216910430
:102D200018F5B701CE0107960E94C1116DE173E05D
:102D3000CE0101960E940D12BE01695F7F4FCE0148
:102D400001960E94831160E273E00E946D11BC0144
:102D50008AE894E00E94ED11CE0101960E941111C3
:102D6000CE0107960E9411116AE874E0C8010E9422
:102D70000412C8012C960FB6F894DEBF0FBECDBF6B
:102D8000DF91CF911F910F91FF90EF90DF90CF9047
:102D9000BF90AF909F908F900895C701B6010E9499
:102DA000C62E2DCFCE0107960E94C11160E273E0BE
:102DB000CE0101960E940D12BE01695F7F4FCE01C8
:102DC00001960E94831160E273E00E946D11BC01C4
:102DD0008AE894E00E94ED11CE0101960E94111143
:102DE000CE0107960E9411113FECA31637E0B306FF
:102DF00038F5C7016AE070E00E947A2FCE0107968D
:102E00000E94C1116FE173E0CE0101960E940D1284
:102E1000BE01695F7F4FCE0101960E9483116FE171
:102E200073E00E946D11BC018AE894E00E94ED11EC
:102E3000CE0101960E941111CE0107960E94111138
:102E400087ECC816D10438F5C7016AE070E00E942B
:102E50007A2FCE0107960E94C1116EE173E0CE0178
:102E600001960E940D12BE01695F7F4FCE0101964F
:102E70000E9483116FE173E00E946D11BC018AE82A
:102E800094E00E94ED11CE0101960E941111CE0135
:102E900007960E94111123E18216910408F064CF75
:102EA000C7016AE070E00E947A2FCE0107960E9467
:102EB000C1116DE173E0CE0101960E940D12BE01B9
:102EC000695F7F4FCE0101960E9483116FE173E02D
:102ED0003CCF85ED8093BC0080919705909198053B
:102EE000A0919905B0919A050796A11DB11D23E007
:102EF000B695A795979587952A95D1F72091BC000F
:102F000024FD03C0109295050895409197055091B6
:102F100098056091990570919A05452B462B472B92
:102F200069F30097A105B10541F02AE22A95F1F76E
:102F300000C00197A109B109E1CF809196050C94D9
:102F400066090C94672E0C945F2E88E090E00E9436
:102F5000A317682F70E089E00E942E0489E090E0BA
:102F60000E94A317682F70E086E00E942E048AE07A
:102F700090E00E94A317682F70E083E00C942E0469
:102F80008F929F92AF92BF92CF92DF92EF92FF9279
:102F90000F931F93CF93DF93CDB7DEB7EC970FB6A8
:102FA000F894DEBF0FBECDBF0E94E20420E137E2FD
:102FB00040E050E00E948E2F672B682B692B01F5B3
:102FC00080913F058823E1F00E940E0EE0903D05C0
:102FD000F0903E0500913B0510913C05209139058C
:102FE00030913A0540914005509141056091370577
:102FF0007091380580913505909136050E946506DF
:1030000010925504109254041092530410925204DA
:103010001092510410925004009133051091340520
:10302000F8018081882309F409C10E94E204C0905C
:10303000F603D090F703E090F803F090F9036C19D1
:103040007D098E099F09C090F203D090F303E090B0
:10305000F403F090F503C616D706E806F90608F063
:10306000EDC00E94E2044B015C018092F603909255
:10307000F703A092F803B092F903680130E020E072
:103080004AE0F801F1908F0180ED8F0D8A3070F4E5
:10309000429FC001439F900D11242F2DFF0C330B35
:1030A00020533109280F391F6F01EBCF30935B0498
:1030B00020935A04609156047091570480915804EB
:1030C000909159042115310501F1032E000C440B98
:1030D000550B0E94B02F2093F2033093F3034093DB
:1030E000F4035093F503EFE9EF0DE730A0F40E2E53
:1030F000000CFF0BE258F74E0C94CF2F171C191C35
:103100000B1C0F1C111C131C151C2091330130E0EB
:1031100050E040E0DECF1092F103F601818183326E
:1031200041F48091F1038F5F8093F10386010E5F7C
:103130001F4FF80180818E32F1F4C090F203D090DD
:10314000F303E090F403F090F503C701B60122E029
:1031500030E040E050E00E94B02FC20ED31EE41ECB
:10316000F51EC092F203D092F303E092F403F092C2
:10317000F5030F5F1F4FF801808180538A3008F0FC
:103180005AC38093F0030F5F1F4FF80180818C3288
:1031900011F40F5F1F4FE091F103EE2309F44EC0CD
:1031A000C090F203D090F303E090F403F090F503A5
:1031B0008091F0038450990B4CE0489F9001499F07
:1031C000300D1124E20FF32FF11DEE0FFF1FEA5710
:1031D000FE4FB701A601808191810E9468020E9482
:1031E000E204681979098A099B09C616D706E80618
:1031F000F90620F50E94E2046093F6037093F7034A
:103200008093F8039093F9038091CC05813009F401
:1032100017C3823009F41AC3811105C080916E0072
:103220008D7F80936E0060E08091CB050E94FE014F
:1032300088E690E00E94140610E000E01093340548
:10324000009333050E94E20400914C0410914D0458
:1032500020914E0430914F04601B710B820B930B35
:10326000663071058105910560F18091CC05813052
:1032700009F4F2C2823009F4F2C2811105C08091D2
:103280006E008695817099F480913F018111EAC2A8
:1032900070E060E089E00E942E0470E060E086E06B
:1032A0000E942E0470E060E083E00E942E040E94E1
:1032B000E20460934C0470934D0480934E04909309
:1032C0004F0480915C0490915D04892B21F08091E2
:1032D0004B048111DBC180915E048111D7C18091C3
:1032E000100481110DC00E94E20460930C047093DD
:1032F0000D0480930E0490930F0481E080931004DA
:103300008091040481110DC00E94E20460930004C6
:1033100070930104809302049093030481E08093EE
:1033200004040E94E20400910C0410910D04209109
:103330000E0430910F04601B710B820B930B0091F4
:103340000001109101012091020130910301061743
:1033500017072807390708F04DC00E94E204609360
:103360000C0470930D0480930E0490930F048091CD
:10337000FE039091FF03009709F0E0C281E090E026
:1033800090935D0480935C0488E893E1A0E0B0E052
:103390008093000190930101A0930201B093030177
:1033A0008091FE039091FF038230910581F4109289
:1033B0005D0410925C0440E65AEE60E070E04093D9
:1033C0000001509301016093020170930301019683
:1033D000833091050CF0D2C29093FF038093FE03DB
:1033E00080914B04882321F010925D0410925C04BC
:1033F00010924B040E94E20400910C0410910D0401
:1034000020910E0430910F04601B710B820B930B03
:10341000603D77408105910508F082C30E94E20477
:1034200000910004109101042091020430910304E2
:10343000601B710B820B930B65367105810591053D
:1034400008F424C10E94E204609300047093010414
:10345000809302049093030480915C0490915D0436
:1034600020912A05222309F48EC2892B89F5CE01E9
:1034700049960E941A1581E02091640130916501FE
:10348000232B09F480E00E94820BAB01BC01CE012A
:1034900001960E949715AE01475E5F4FBE016F5FB8
:1034A0007F4FCE014F960E946A12BE01615E7F4F30
:1034B00081EC96E00E94C610CE014F960E94111139
:1034C000CE0101960E941111CE0149960E94111160
:1034D00080915C0490915D04019709F062C00E94A4
:1034E000800868EE73E00E947A2FBC01CE018B96B3
:1034F0000E947A130E948A08BC01CE0185960E9420
:103500007A130E949208BC01CE0149960E947A1358
:10351000BE01675E7F4FCE014F960E940412BE012E
:103520006B5D7F4FCE014F960E948311BE01655D9A
:103530007F4F0E948311BC01CE01C1960E940412EC
:10354000CE0101960E941A15AE014F5C5F4FBE017D
:103550006F5F7F4FCE01C7960E946A12BE01695C01
:103560007F4F81EC96E00E94C610CE01C7960E9464
:103570001111CE0101960E941111CE01C1960E9437
:103580001111CE014F960E941111CE0149960E9451
:103590001111CE0185960E941111CE018B960E94C9
:1035A000111180915C0490915D04049709F06EC044
:1035B00081E02091640130916501232B09F480E0C2
:1035C0000E94820BAB01BC01CE01C1960E949715EF
:1035D0000E94800868EE73E00E947A2FBC01CE0141
:1035E00085960E947A130E948A08BC01CE014F96EC
:1035F0000E947A130E949208BC01CE0101960E949B
:103600007A13BE016F5F7F4FCE0149960E9404126C
:10361000BE01615E7F4FCE0149960E948311BE01BB
:103620006B5D7F4F0E948311BC01CE018B960E947F
:103630000412AE014F5C5F4FBE01655D7F4FCE014E
:10364000C7960E946A12BE01695C7F4F81EC96E0CA
:103650000E94C610CE01C7960E941111CE018B9612
:103660000E941111CE0149960E941111CE010196BE
:103670000E941111CE014F960E941111CE01859624
:103680000E941111CE01C1960E9411110E94930E49
:1036900088EA96E00E94B2088FE896E00E94B2089D
:1036A00086E796E00E94B20880915E0481113BC2D9
:1036B0001092BA048091A8069091A90618161906CE
:1036C0003CF08091540490915504019709F06AC32D
:1036D00081E080934B04109234051092330544E648
:1036E00050E060E070E088EE93E00E9468020E9483
:1036F000E20460935F04709360048093610490938C
:10370000620480915C0490915D040196853091057E
:1037100009F436C290935D0480935C0480915C044C
:1037200090915D04069721F410925D0410925C0460
:1037300020915C0430915D048901000F111FF80194
:10374000E85FFE4F80818093BA04D9011197FD0193
:10375000EE0FFF1FEC5CFD4F6081718161157105FB
:1037600009F411C3AB0141505109FA01EE0FFF1FDB
:10377000E45FFD4F0190F081E02DAE17BF0709F027
:1037800002C36230710509F0FEC188E1EEE6F1E0A6
:10379000DE01119601900D928A95E1F78091580112
:1037A0009091590183709927892B21F48DE190E044
:1037B0009C838B8380915601909157010197880FCC
:1037C000991FE1E0F0E0EC0FFD1F8E0F9F1F20918D
:1037D000540130915501FC0180819181821793073A
:1037E0000CF0D1C18AE090E090935D0480935C047A
:1037F000EC960FB6F894DEBF0FBECDBFDF91CF9130
:103800001F910F91FF90EF90DF90CF90BF90AF90FE
:103810009F908F90089581E08093F1037ECC83E0A8
:10382000FBCF85E0F9CF86E0F7CF88E0F5CF8AE0DF
:10383000F3CF8CE0F1CF809132018093F003A5CCDF
:1038400080916F008D7F80936F00EDCC8091700030
:103850008D7F80937000E7CC80916F0012CD8091B6
:1038600070000FCD80914305811121CD0091FC03A3
:103870001091FD03F801EE0FFF1FE00FF11FDF01B4
:10388000AA0FBB1FA851BE4F8D919C91609106015C
:1038900070910701680F791F70930701609306010B
:1038A000DF01AA0FBB1FA651BE4FCD90DC908091C7
:1038B000410490914204C80ED91ED0924204C09295
:1038C0004104EE0FFF1FE451FE4FE080F180809134
:1038D0003F0490914004E80EF91EF0924004E092FB
:1038E0003F0489E00E942E04B60186E00E942E0467
:1038F000B70183E00E942E048091FA039091FB03AC
:1039000001969093FB038093FA038F3F910551F446
:103910000F5F1F4F1093FD030093FC031092FB03F6
:103920001092FA038091FC039091FD0306970CF42A
:10393000BECC1092FD031092FC03B9CC019709F0A4
:103940002FCD84E090E090935D0480935C0488E840
:1039500093E1A0E0B0E08093000190930101A09377
:103960000201B093030180912A058111FEC682E015
:1039700090E09093FF038093FE0312CD1092FF031B
:103980001092FE032DCD892B09F062C0CE01C196A5
:103990000E941A150E94800868EE73E00E947A2F38
:1039A000BC01CE0185960E947A130E948A08BC0150
:1039B000CE014F960E947A130E949208BC01CE015C
:1039C00001960E947A13BE016F5F7F4FCE01499628
:1039D0000E940412BE01615E7F4FCE0149960E9493
:1039E0008311BE016B5D7F4F0E948311BC01CE012C
:1039F0008B960E940412AE014F5C5F4FBE01655D65
:103A00007F4FCE01C7960E946A12BE01695C7F4F4C
:103A100081EC96E00E94C610CE01C7960E9411115B
:103A2000CE018B960E941111CE0149960E94111170
:103A3000CE0101960E941111CE014F960E941111E4
:103A4000CE0185960E941111CE01C1960E941111DE
:103A500080915C0490915D04019709F017CE0E945B
:103A6000800868EE73E00E947A2FBC01CE018B962D
:103A70000E947A130E948A08BC01CE0185960E949A
:103A80007A130E949208BC01CE0149960E947A13D3
:103A9000BE01675E7F4FCE014F960E940412BE01A9
:103AA0006B5D7F4FCE014F960E948311BE01655D15
:103AB0007F4F0E948311BC01CE01C1960E94041267
:103AC000CE0101960E941A15AE014F5C5F4FBE01F8
:103AD0006F5F7F4FCE01C7960E946A12BE01695C7C
:103AE0007F4F81EC96E00E94C610CE01C7960E94DF
:103AF0001111CE0101960E941111CE01C1960E94B2
:103B00001111CE014F960E941111CE0149960E94CB
:103B10001111CE0185960E941111CE018B96B4CD64
:103B200010927504B3CD0E94E20400915F041091DD
:103B300060042091610430916204601B710B820B60
:103B4000930B61367A4E8105910508F4B3CD10923E
:103B50005E04E0915C04F0915D04EE0FFF1FE45AF7
:103B6000FD4F8081918190935D0480935C04880F68
:103B7000991FFC01E85FFE4F80818093BA049ACDC3
:103B800086E090E0C7CD10925E0450935D044093B0
:103B90005C04452BB9F40E9480087C010E948A08CD
:103BA0008C010E9492084091500150915101609106
:103BB0004E0170914F019C0180914C0190914D01FB
:103BC0000E94650680915C0490915D04019719F54F
:103BD000E0905801F0905901F0E3EF1AF8EFFF0A76
:103BE0000091560110915701809054019090550119
:103BF0000E949A085C010E94A2086C010E94AA0817
:103C00009401A501B6010E946506609152018DE004
:103C100090E00E94A11780915C0490915D0402974E
:103C2000C1F460915A0182E090E00E94A117609176
:103C30005C0183E090E00E94A11760915E0184E046
:103C400090E00E94A1176091600186E090E00E94E0
:103C5000A11780915C0490915D04039731F4609109
:103C6000620181E090E00E94A11780915C04909134
:103C70005D04049731F4609164018BE090E00E9450
:103C8000A11780915C0490915D04059739F46091CF
:103C90006601645F8CE090E00E94A1170E9480089A
:103CA00068EE73E00E947A2F082F0E948A08F82E8F
:103CB0000E949208E82E0E949A08B82E0E94A2083C
:103CC000C82E0E94AA08D82E809134010E94A20119
:103CD00060E08AE696E00E94C50A1AE08B2D612F0B
:103CE0000E946E2F8295807F682F690F8AE696E08A
:103CF0000E94C50A8C2D612F0E946E2F8295807FB5
:103D0000682F690F8AE696E00E94C50A8D2D612F03
:103D10000E946E2F8295807F682F690F8AE696E059
:103D20000E94C50A61E08AE696E00E94C50A8E2DCF
:103D3000612F0E946E2F8295807F682F690F8AE61F
:103D400096E00E94C50A8F2D612F0E946E2F8295EA
:103D5000807F682F690F8AE696E00E94C50A802F4F
:103D6000612F0E946E2F8295807F682F690F8AE6EF
:103D700096E00E94C50A60E08AE696E00E94C50AC5
:103D80000E94870935CD2331310561F02950310971
:103D90002230310538F00E942713F801E05CFE4F15
:103DA000918380838091A8069091A90697FD07C012
:103DB0008091540490915504019609F0F3C044E6B3
:103DC00050E060E070E088EE93E00E94680280912D
:103DD0005E0481114DC000915C0410915D040E944D
:103DE000E20460935F047093600480936104909395
:103DF0006204012BE9F50E949A08BC01CE01859668
:103E00000E947A130E94A208BC01CE014F960E9424
:103E10007A130E94AA08BC01CE0101960E947A136F
:103E2000BE016F5F7F4FCE0149960E940412BE0112
:103E3000615E7F4FCE0149960E948311BE016B5D8A
:103E40007F4F0E948311BC0181EC96E00E94ED112E
:103E5000CE0149960E941111CE0101960E941111C6
:103E6000CE014F960E941111CE0185960E9411112C
:103E700080915C0490915D04019709F05AC00E9402
:103E8000920890935501809354010E948A08909360
:103E90005701809356010E94800868EE73E00E94EB
:103EA0007A2FBC019093590180935801809152015F
:103EB00090915301892B09F099C1CE0185960E94FA
:103EC0007A136091560170915701CE014F960E946E
:103ED0007A136091540170915501CE0101960E94B0
:103EE0007A13BE016F5F7F4FCE0149960E94041284
:103EF000BE01615E7F4FCE0149960E948311BE01D3
:103F00006B5D7F4F0E948311BC0181EC96E00E94A3
:103F1000ED11CE0149960E941111CE0101960E9429
:103F20001111CE014F960E941111CE0185960E946B
:103F30001111E0915C04F0915D04EE0FFF1FE45A53
:103F4000FD4F2081318130935D0420935C042D303E
:103F5000310549F481E090E0909361018093600124
:103F600080E88093AA0480915E0491E08927809381
:103F70005E048901000F111FF801E85FFE4F808188
:103F80008093BA04A901425151094230510550F0C1
:103F90002930310539F00E942713F801E05CFE4F0B
:103FA0009183808380918F0690919006009709F00D
:103FB0002EC180915204909153040197E1F481E065
:103FC00080934B04109234051092330544E650E080
:103FD00060E070E088EE93E00E9468020E94C614E0
:103FE00080915E04811107C01092430560E087E074
:103FF00090E00E94A1178091490490914A04019693
:1040000009F00EC180919106882309F409C110922C
:10401000BC0480915E048823F9F00E94E2040091C0
:104020004504109146042091470430914804601BD8
:10403000710B820B930B673971058105910560F057
:104040000E94E20460934504709346048093470401
:10405000909348040E94C61480917606909177064A
:10406000009709F0E1C080915004909151040197AC
:1040700071F511E010934B04109234051092330542
:1040800044E650E060E070E088EE93E00E94680251
:104090000E94671480915E04811119C0109343053A
:1040A00061E087E090E00E94A1176091060188E03E
:1040B00090E00E94A1176091410489E090E00E9485
:1040C000A11760913F048AE090E00E94A1178091BF
:1040D000430490914404019609F0AFC080917806A2
:1040E000882309F4AAC080915E041092BB0488233F
:1040F00021F10E94E20400913B0410913C042091C4
:104100003D0430913E04601B710B820B930B6739A9
:1041100071058105910508F449C00E94E20460938D
:104120003B0470933C0480933D0490933E040E94B2
:10413000671480915E04811139C080918F0690913F
:10414000900697FD06C08091520490915304019609
:1041500091F444E650E060E070E088EE93E00E9465
:10416000680281E080933F0161E090E080E00E947E
:10417000A1170E94A517809176069091770697FD6A
:1041800006C08091500490915104019679F444E660
:1041900050E060E070E088EE93E00E9468021092C8
:1041A0003F0160E090E080E00E94A117E0915C0494
:1041B000F0915D04E431F10508F01ACBEE51FF4DAA
:1041C0000C94CF2F212152214F229722C222062365
:1041D000F81BF81BF81B35235D235D235D23F81BBB
:1041E000F81BF81BF81BF81BC2220623CE0185968C
:1041F0000E947A136091540170915501CE014F963F
:104200000E947A13609156017091570166CE909387
:104210004A0480934904181619060CF4D0CEC9CE6E
:1042200081E08093BC0418CF9093440480934304AE
:10423000181619060CF41DCF16CF81E08093BB042D
:1042400078CF8091750481111EC00E949A08209138
:1042500004013091050182179307E9F00E949A0842
:104260009093050180930401CE0101960E941A15D6
:10427000BE016F5F7F4F81EC96E00E94C610CE01B9
:1042800001960E9411110E949A0880FD76C180EC6F
:104290008093AA0474C161EC76E0CE0101960E947D
:1042A0000412E6CF809175048111E2C0809133043D
:1042B000811111C00E94E20467517C4F8F4F9F4FC4
:1042C00060932F04709330048093310490933204F0
:1042D00081E08093330480912704811144C00E94BF
:1042E000800868EE73E00E947A2FBC01CE0101962F
:1042F0000E947A130E948A08BC01CE0149960E944E
:104300007A130E949208BC01CE0185960E947A130E
:10431000BE016B5D7F4FCE014F960E940412BE011D
:10432000675E7F4FCE014F960E948311BE016F5F83
:104330007F4F0E948311BC0181E294E00E9404122D
:1043400081E080932704CE014F960E941111CE0187
:1043500085960E941111CE0149960E941111CE013D
:1043600001960E9411110091520110915301809108
:104370001904811105C00093180481E08093190489
:104380000E94E204C0902F04D0903004E0903104E9
:10439000F09032046C197D098E099F09693E7340C3
:1043A0008105910530F4809118048017110609F4F5
:1043B0004EC00E94E20460932F04709330048093F7
:1043C000310490933204012B09F054C00E948008FC
:1043D00068EE73E00E947A2FBC01CE0101960E9424
:1043E0007A130E948A08BC01CE0149960E947A1372
:1043F0000E949208BC01CE0185960E947A13BE01EC
:104400006B5D7F4FCE014F960E940412BE01675E26
:104410007F4FCE014F960E948311BE016F5F7F4F89
:104420000E948311BC0181E294E00E94ED11CE0153
:104430004F960E941111CE0185960E941111CE0156
:1044400049960E941111CE0101960E94111161E25C
:1044500074E0CE0101960E940412BE016F5F7F4F8F
:1044600081EC96E00E94C610CE0101960E941111C7
:1044700080E40ECF0E94800868EE73E00E947A2FDD
:10448000BC01CE0101960E947A130E949208BC01E1
:10449000CE0149960E947A130E948A08ABCF6091A0
:1044A0005E0170915F01CE0185960E947A13609142
:1044B0005C0170915D01CE014F960E947A1360916C
:1044C0005A0170915B01CE0101960E947A13BE01E0
:1044D0006F5F7F4FCE0149960E940412BE01615E5C
:1044E0007F4FCE0149960E948311BE016B5D7F4FC5
:1044F0000E948311BC0181EC96E00E94ED11CE0177
:1045000049960E941111CE0101960E941111CE010F
:104510004F960E941111CE0185960E941111809133
:10452000600190916101019741F580E8B1CE609101
:10453000620170916301CE0149960E94C1116FE141
:1045400073E0CE0101960E940D12BE01675E7F4F9F
:10455000CE0101960E9483116FE173E00E946D11FC
:10456000BC0181EC96E00E94ED11CE0101960E9403
:104570001111CE0149960E9411111092AA040E94B5
:10458000530C36C980917504811124C081E02091BB
:10459000640130916501232B09F480E00E94820BB5
:1045A000AB01BC01CE0101960E949715BE016F5F61
:1045B0007F4F81EC96E00E94C610CE0101960E94CA
:1045C00011118091640190916501892BD1F480E4EF
:1045D0008093AA0481E02091640130916501232B2E
:1045E00009F480E00E94820B1091AA0420E030E0E0
:1045F000A9010E943B2D87FF07C010681093AA04F1
:10460000F7C81092AA04E6CF1F77F8CF6091660131
:1046100070916701CE0101960E947A13BE016F5F0F
:104620007F4FCE0149960E9404126DE173E0CE01E6
:1046300049960E946D11BC0181EC96E00E94ED113B
:10464000CE0149960E941111CE0101960E941111CE
:10465000809166019091670197FD03C01092AA04B2
:10466000C7C880E88093AA04C3C880915201909182
:104670005301892B99F462E273E081EC96E00E9489
:10468000B71183E090E090931D0180931C018CE0B2
:1046900090E090931F0180931E01AAC869E273E025
:1046A00081EC96E00E94B7118CE090E090931D01A0
:1046B00080931C0183E090E0ECCF609158017091F1
:1046C00059018091520190915301892BE9F5CE0156
:1046D00085960E947A136091560170915701CE0120
:1046E0004F960E947A136091540170915501CE014A
:1046F00001960E947A13BE016F5F7F4FCE014996EB
:104700000E940412BE01615E7F4FCE0149960E9455
:104710008311BE016B5D7F4F0E948311BC0181EC50
:1047200096E00E94ED11CE0149960E941111CE0132
:1047300001960E941111CE014F960E941111CE01D7
:1047400085960E94111154C8CE0185960E947A1355
:104750006091540170915501CE014F960E947A13D9
:104760006091560170915701C2CF81E090E00C94A6
:10477000E7191F920F920FB60F9211242F933F93B8
:104780008F939F93AF93BF9380914505909146057A
:10479000A0914705B09148053091440523E0230FCF
:1047A0002D3758F50196A11DB11D20934405809326
:1047B000450590934605A0934705B0934805809121
:1047C000490590914A05A0914B05B0914C05019681
:1047D000A11DB11D8093490590934A05A0934B05F7
:1047E000B0934C05BF91AF919F918F913F912F91C5
:1047F0000F900FBE0F901F90189526E8230F02967A
:10480000A11DB11DD2CF1F920F920FB60F9211248E
:104810002F933F934F935F936F937F938F939F93C8
:10482000AF93BF93EF93FF938DEC95E00E948A05C1
:10483000FF91EF91BF91AF919F918F917F916F9178
:104840005F914F913F912F910F900FBE0F901F904E
:1048500018951F920F920FB60F9211242F938F93DA
:104860009F93EF93FF93E091DD05F091DE0580814A
:10487000E091E305F091E40582FD1BC090818091F9
:10488000E6058F5F8F732091E705821741F0E09175
:10489000E605F0E0E353FA4F958F8093E605FF912C
:1048A000EF919F918F912F910F900FBE0F901F90BE
:1048B00018958081F4CF1F920F920FB60F9211249A
:1048C0002F933F938F939F93AF93BF93EF93FF9358
:1048D0008091BF059091C005A091C105B091C2051E
:1048E0000097A105B10531F130911E05E0911F053A
:1048F000F0912005208123272083181619061A0617
:104900001B061CF40197A109B1098093BF05909380
:10491000C005A093C105B093C205FF91EF91BF916F
:10492000AF919F918F913F912F910F900FBE0F905C
:104930001F901895209170002D7F2093700020917A
:104940001E05E0911F05F09120053081209523235D
:104950002083DBCF1F920F920FB60F9211248F93FB
:104960009F93AF93BF93EF93FF938091C305909173
:10497000C405A091C505B091C605892B8A2B8B2B48
:10498000A1F190912105E0912205F091230580810C
:10499000892780838091C3059091C405A091C505A6
:1049A000B091C605181619061A061B069CF48091CC
:1049B000C3059091C405A091C505B091C6050197A6
:1049C000A109B1098093C3059093C405A093C505BF
:1049D000B093C605FF91EF91BF91AF919F918F91D9
:1049E0000F900FBE0F901F90189580916F008D7FD4
:1049F00080936F0080912105E0912205F0912305BD
:104A00009081809589238083E5CF1F920F920FB606
:104A10000F9211248F939F93AF93BF93EF93FF93C4
:104A20008091C7059091C805A091C905B091CA05AC
:104A3000892B8A2B8B2BA1F190912405E0912505E0
:104A4000F09126058081892780838091C705909108
:104A5000C805A091C905B091CA05181619061A060D
:104A60001B069CF48091C7059091C805A091C905CB
:104A7000B091CA050197A109B1098093C705909328
:104A8000C805A093C905B093CA05FF91EF91BF91E6
:104A9000AF919F918F910F900FBE0F901F9018951F
:104AA00080916E008D7F80936E0080912405E0914F
:104AB0002505F09126059081809589238083E5CF97
:104AC0001F920F920FB60F9211242F933F934F9383
:104AD0005F936F937F938F939F93AF93BF93EF9366
:104AE000FF938091B900887F803609F44AC0F0F5C1
:104AF000883209F4A7C018F5803109F49BC0B8F4D6
:104B0000882309F4F9C0883009F494C0FF91EF912B
:104B1000BF91AF919F918F917F916F915F914F91D5
:104B20003F912F910F900FBE0F901F9018958831D5
:104B300009F488C0803251F78093930514C0803403
:104B400009F49DC040F48033B9F38833F9F68093BB
:104B5000930585ECB0C0803509F485C0883509F42B
:104B600096C0883499F60E946917D0CF883909F425
:104B70008CC038F5883729F050F4883611F080372A
:104B800029F683E0809395051092000557C0883878
:104B900009F47BC0803919F0803809F0B7CF8091D3
:104BA0000005803208F071C0E091000581E08E0FB1
:104BB000809300058091BB00F0E0E052FB4F8083C2
:104BC0003DC0803B39F0E0F4803A09F479C0883A7E
:104BD00009F09CCF84E0809395051092DF04109239
:104BE000DE04E0911C05F0911D0509958091DE041D
:104BF00081110FC081E08093DE041092BE0409C0D1
:104C0000803C09F4A6CF883C09F4A3CF883B09F087
:104C10007DCFE091DF0481E08E0F8093DF04F0E030
:104C2000E254FB4F80818093BB009091DF04809120
:104C3000DE0429C0809170058093BB0085EC8093D1
:104C4000BC0064CF9091920580919105981758F51A
:104C5000E091920581E08E0F80939205F0E0EF588D
:104C6000FA4F8081E9CFE091920581E08E0F809329
:104C700092058091BB00F0E0EF58FA4F808390914D
:104C80009205809191059817C8F285E8D8CFE091F8
:104C9000920581E08E0F809392058091BB00F0E039
:104CA000EF58FA4F80838091940581115CCF81E0A9
:104CB00080936F0584EA8093BC001092950526CFFF
:104CC00085EC8093BC0010929505809100058032A0
:104CD00030F4E0910005F0E0E052FB4F108260916B
:104CE000000570E0E0911A05F0911B0580EE94E05C
:104CF0000995109200050ACF1092930534CFCF93F7
:104D0000DF93EC01862F6F87188A91E0998B9A8B3D
:104D10001C8A1B8A198218821A821D8A1E8A1F8A7F
:104D2000188E44E150E060E070E04B835C836D835B
:104D30007E834AEF50E060E070E04F8358876987D8
:104D40007A8748EE53E060E070E04B875C876D87C0
:104D50007E8760E00E942C028889811106C061E094
:104D60008F85DF91CF910C94FE01DF91CF91089553
:104D7000EDECF5E01382128288EE93E0A0E0B0E063
:104D800084839583A683B78328EF32E03183208321
:104D900025EC30E03587248724EC30E03787268700
:104DA00020EC30E0318B208B21EC30E0338B228BF8
:104DB00022EC30E0358B248B26EC30E0378B268BD1
:104DC000118E128E138E148EEAE6F6E01382128292
:104DD00084839583A683B7838AE093E0918380835D
:104DE00060E373E085ED96E00E940D1260E087E0DD
:104DF0000E942C02E8E6F1E0E491A7ECB6E0EC9327
:104E0000E4E5F1E0E491F0E0EE0FFF1FED5BFE4F13
:104E10008591949112969C938E9311971B961C9258
:104E20001B971D961C921D971C961C921C971A96F8
:104E30001C921A9719961C92199718961C921897FB
:104E400017961C92179716961C92169715961C92F9
:104E5000159714961C92149713961C926BE173E0AD
:104E600081EC96E00E940D126EE088EA96E00E94C6
:104E70007F2660E18FE896E00E947F266FE086E75C
:104E800096E00C947F26CF93DF93CDB7DEB7CE5458
:104E9000D1090FB6F894DEBF0FBECDBF789484B5AC
:104EA000826084BD84B5816084BD85B5826085BD26
:104EB00085B5816085BD80916E00816080936E00B4
:104EC00010928100809181008260809381008091A6
:104ED0008100816080938100809180008160809357
:104EE00080008091B10084608093B1008091B00017
:104EF00081608093B00080917A00846080937A0012
:104F000080917A00826080937A0080917A0081603B
:104F100080937A0080917A00806880937A00109262
:104F2000C10010924E0510924D0510929C051092F2
:104F3000BE050E9448098EEE94E090931D05809373
:104F40001C058FEE94E090931B0580931A05E09169
:104F5000DD05F091DE0582E08083E091D905F091D6
:104F6000DA051082E091DB05F091DC0580E18083B9
:104F70001092E505E091E105F091E20586E080837D
:104F8000E091DF05F091E005808180618083E09110
:104F9000DF05F091E005808188608083E091DF0586
:104FA000F091E005808180688083E091DF05F091D9
:104FB000E00580818F7D808381E090E00E94A317CF
:104FC0008C3009F4D3C188E190E090936301809321
:104FD000620190E080E00E94A317882309F4C9C110
:104FE00081E080933F0182E090E00E94A3178F3F11
:104FF00009F0C2C110925B0110925A0183E090E067
:105000000E94A3178F3F09F0BDC110925D0110925D
:105010005C0184E090E00E94A3178F3F09F0B8C1C3
:1050200010925F0110925E0186E090E00E94A3174B
:105030008F3F09F0B3C1109261011092600187E0C7
:1050400090E00E94A3178F3F09F0AEC11092430574
:105050008BE090E00E94A3178F3F09F0ACC1109243
:105060006501109264018CE090E00E94A3178F3FCD
:1050700031F08C50990B90936701809366018DE01D
:1050800090E00E94A3178F3F29F090E09093530186
:105090008093520161E089E00E942C0261E086E089
:1050A0000E942C0261E083E00E942C02809127057F
:1050B000833008F0F5C192E09093CB05E82FF0E043
:1050C000E357FF4FE491E093CC058F5F8093270572
:1050D000E13009F497C108F474C1E23009F4B9C1B0
:1050E00080913D0190913E010E94AC0C90933E0155
:1050F00080933D0161E08AE00E942C0262E088E03A
:105100000E942C0288E00E94D50121E0892B09F041
:1051100020E0209329051FB7F8948091280581117C
:1051200027C0E7E5F1E08491EBE6F1E09491E82F08
:10513000F0E0EE0FFF1FE55EFE4FA591B491EC91FC
:10514000E92321F461E08AE00E94FE0161E08AE047
:105150000E942C028CB580618CBD8CB580648CBDA6
:1051600061E08DE00E942C0261E08BE00E942C0245
:10517000809128058F5F809328051FBF80912905A6
:10518000882309F491C189E791E00E94E70062E079
:105190008EE00E942C0262E080E10E942C0262E01C
:1051A0008FE00E942C0261E082E00E942C0204E168
:1051B00010E020E030E00093AB061093AC062093A3
:1051C000AD063093AE064EE150E060E070E04093F3
:1051D000AF065093B0066093B1067093B20680EDAF
:1051E00097E0A0E0B0E08093B3069093B406A0935C
:1051F000B506B093B60600939206109393062093DB
:1052000094063093950640939606509397066093C4
:1052100098067093990680939A0690939B06A093A4
:105220009C06B0939D060093790610937A0620930E
:105230007B0630937C0640937D0650937E066093F8
:105240007F06709380068093810690938206A093D8
:105250008306B09384068EE090E00E94A3178F3FF0
:1052600031F091E0811101C090E0909342058FE010
:105270000E94D501892B91F46091420581E0682755
:10528000609342058EE090E00E94A11744E650E052
:1052900060E070E088EE93E00E9468028091420531
:1052A000811104C180E090E0A0E0B0E88093390172
:1052B00090933A01A0933B01B0933C0180E090E0D1
:1052C000A0E0B0E48093350190933601A0933701BC
:1052D000B09338018CEE90E00E94F90525E030E0B3
:1052E00042E050E065ED76E0CE0101967C010E943F
:1052F0001E1222E030E041E050E065ED76E0CE01A4
:10530000875B9F4F0E941E12BE01675B7F4FCE01DD
:105310008D5B9F4F0E94041267E373E0CE018D5BAB
:105320009F4F0E946D11B7010E9483110E942605B4
:10533000CE018D5B9F4F0E941111CE01875B9F4F65
:105340000E941111C7010E94111109EC10E043E203
:10535000D42EDA94DD2009F4BAC0F80164918DEC02
:1053600095E00E94AC050F5F1F4FF3CF8CE090E0FB
:105370002CCE10923F0137CE90E090935B0180934A
:105380005A013CCE90E090935D0180935C0141CE48
:1053900090E090935F0180935E0146CE90E0909301
:1053A0006101809360014BCE91E0811101C090E0DA
:1053B000909343054DCE90E09093650180936401F6
:1053C00052CE14BC15BC84B5826084BD85B58160A5
:1053D00085BD8091CB0590E0FC01E35BFE4FE4913D
:1053E000F0E0EE0FFF1FEB5DFE4F259134913093FF
:1053F000260520932505FC01EF59FE4FE491E0932B
:1054000024056ECE10928000109281008091810060
:105410008860809381008091810081608093810009
:105420008091CB0590E0FC01E35BFE4FE491F0E05E
:10543000EE0FFF1FEB5DFE4F259134913093230556
:1054400020932205FC01EF59FE4FE491E0932105E2
:1054500047CE1092B0001092B1008091B0008260EF
:105460008093B0008091B10081608093B100809101
:10547000CB0590E0FC01E35BFE4FE491F0E0EE0F22
:10548000FF1FEB5DFE4F2591349130932005209353
:105490001F05FC01EF59FE4FE491E0931E0520CE5D
:1054A0008FEF8093CC051CCE89E56ECE80E090E036
:1054B000A0E0B0E48093390190933A01A0933B01BE
:1054C000B0933C0180E090E0A0E0B0E8FBCE0E9409
:1054D0001E058EEB90E00E94140680913D01909194
:1054E0003E0190933405809333050E94AC0C6FEF1E
:1054F00070E089E00E942E0468EE73E080E090E0A6
:105500000E94B00470E060E089E00E942E046FEF1A
:1055100070E086E00E942E0468EE73E080E090E088
:105520000E94B00470E060E086E00E942E046FEFFD
:1055300070E083E00E942E0468EE73E080E090E06B
:105540000E94B00470E060E083E00E942E046BE1F2
:1055500073E0C7010E940D1269E373E0CE01079664
:105560000E940D1260E473E0CE010D960E940D12B0
:1055700067E473E0CE0143960E940D126EE473E07F
:10558000CE0149960E940D1265E573E0CE014F965B
:105590000E940D126CE573E0CE0185960E940D12FB
:1055A00063E673E0CE018B960E940D126AE673E00B
:1055B000CE01C1960E940D1261E773E0CE01C7963D
:1055C0000E940D126AE173E0CE01CD960E940D1289
:1055D00065ED76E0CE01CD960E94ED110E94E204C9
:1055E0002B013C01F8EE4F0EF3E05F1E611C711CB5
:1055F000912C1FEF94EFC92EDD24D39426E0822E48
:105600003BE3A32E3FE1B32E8FE00E94D501892B0F
:1056100011F49924939480E10E94D501892B09F417
:10562000912C0E94E2046419750986099709960174
:105630000D2C000C440B550B01E0261737074807CB
:105640005907E0F40E94E2042B013C01911001C0D3
:105650001F5F1A3009F4DDC008F0E0C001E0B701B7
:10566000189D600D711D112481EC96E00E94ED11D2
:1056700081EC96E00E9426050E94930EC5010197D9
:10568000F1F70111C1CFC090D406C11004C00E942F
:1056900069018111C6C01092D2061092D4061092F0
:1056A000D30686EA90E00E94140610913401812FFF
:1056B0000E94A20181E190E00E94F40A0E94870901
:1056C00062E070E0812F90E00E94350D8AE696E05E
:1056D0000E947E0A855000E0883320F082E58093A6
:1056E000340101E010913401812F0E94A20188E26F
:1056F00090E00E94F40A0E94870961E070E0812F27
:1057000090E00E94350D8AE696E00E947E0A181607
:1057100019060CF4E8C0013009F0E5C080E990E01A
:105720000E94140605E010E048EE53E060E070E0EF
:1057300088EE93E00E94680260ED77E080E090E000
:105740000E94B0040150110979F78CE990E00E94A1
:1057500014068E010D5B1F4F06501109C8010E94EF
:105760001111E016F106C1F78091430581110E94E5
:10577000A5170E940E0E00914005109141050E9450
:10578000E2046B017C0181E080933F051127809149
:105790004005909141050817190799F40E940E0ED3
:1057A0000E94E2046C197D098E099F09693B7B40C8
:1057B0008105910560F38FEF90E00E94140610922E
:1057C0003F05E0903D05F0903E0500913B051091AE
:1057D0003C052091390530913A05409140055091A2
:1057E000410560913705709138058091350590919C
:1057F00036050E94650600E010E00E94C017011502
:105800001105D9F30E9476058823B9F30E940000A0
:10581000F4CF80EDC82E87E0D82E20CF1AE000E02C
:105820001ECF80EF0E943F01B12C01E011E00E94E9
:10583000EA00D82E0E94EA0021E0D2121FC0813077
:10584000E1F5113408F427CFC092D206C11003C08D
:1058500081E08093D4068091CA06882309F41BCF87
:10586000AAECB6E0EBE2F5E08D91819395E0E333AD
:10587000F907D1F781E080932A0517CFEB2DF0E0EF
:10588000D81211C08091D2061817A8F4DF01A953CD
:10589000B94F13968C91802381F4D12C193010F4D8
:1058A0001093D306C12EE953F94F8381902F909521
:1058B000892383830BC08113F0CFEB2DF0E0E953F4
:1058C000F94F8381802B8383DD24D3948D2D0E9417
:1058D0000F011F5F000F11F4B39401E087E08B15F7
:1058E00008F0A5CFAECF812F0E94A2018FE090E0FB
:1058F0000E94F40A88E090E00E94F40A0E9487095E
:10590000812F0E94A20187E390E00E94F40A8CE1BB
:1059100090E00E94F40A0E948709812F0E94A20150
:1059200087E290E00E94F40A90E080E00E94F40A8E
:105930000E948709812F0E94A20187E290E00E94C5
:10594000F40A81E190E00E94F40A0E948709812F05
:105950000E94A2018FE090E00E94F40A90E080E0B3
:105960000E94F40A0E948709812F0E94A2018EE002
:1059700090E00E94F40A90E080E00E94F40A0E9405
:105980008709E3CE81EC96E00E94111185ED96E047
:105990000C9411111F93FC0199278827BC01E894EE
:1059A00011911032E9F3193010F01E30C8F31B3298
:1059B00051F01D3249F4689406C00E94FC2C610F1E
:1059C000711D811D911D119110531A30B0F33EF4D9
:1059D00090958095709561957F4F8F4F9F4F1F9148
:1059E0000895BB274A3031F4992322F4BDE2909503
:1059F00081959F4F0C94122D592F482F372F262F0A
:105A0000660F771F881F991F660F771F881F991FC2
:105A1000620F731F841F951F660F771F881F991FC2
:105A20000895BB27FB015527AA27880F991FAA1F96
:105A3000A41710F0A41B83955051B9F7A05DAA33A9
:105A400008F0A95DA193009779F7B111B193119274
:105A5000CB010C942B2DDC01FC01672F7191772376
:105A6000E1F7329704C07C916D9370836291AE1719
:105A7000BF07C8F308950E947D2D08F481E00895C2
:105A8000E89409C097FB3EF49095809570956195D8
:105A90007F4F8F4F9F4F9923A9F0F92F96E9BB278E
:105AA0009395F695879577956795B795F111F8CF0A
:105AB000FAF4BB0F11F460FF1BC06F5F7F4F8F4F75
:105AC0009F4F16C0882311F096E911C0772321F06B
:105AD0009EE8872F762F05C0662371F096E8862F03
