:100000000C943A020C946B020C946B020C946B02ED
:100010000C946B020C946B020C946B020C946B02AC
:100020000C946B020C946B020C946B020C946B029C
:100030000C946B020C94B92C0C946B020C946B0214
:100040000C946B020C940C2D0C946B020C946B02B0
:100050000C946B020C946B2D0C946B020C94EF2A95
:100060000C946B020C94C32B0C94992B0C946B0284
:100070000C946B020C946B020C946B020C946B024C
:100080000C946B020C946B020C946B020C946B023C
:100090000C94632B0C94392B0C946B020C94CA2D8A
:1000A0000C946B020C946B020C946B020C946B021C
:1000B0000C946B020C946B020C946B020C94F92B55
:1000C0000C946B020C946B020C946B020C946B02FC
:1000D0000C946B020C946B020C946B020C946B02EC
:1000E0000C946B020C949B230C942F070C94932A72
:1000F0000C943C2A0C946B030C9499230C94870366
:100100000C9450030C947A230C94180D0C94F82939
:100110000C94BA060C946B070C945E030C94410685
:100120000C94E40C0C942D070C9475030C946F063E
:100130000C94810E0C942C070C948B030C942A06BF
:100140000C9457280C9483060C947D030C94B006F1
:100150000C946F030C94BC0D0C9437080C94910311
:100160000C9465030C9495030C9485290C949D23A1
:100170000C94750E0C94CB0E0C9483030C94850E8A
:100180000C94D10C0C9456030C9479030C945506E2
:100190000C9488280C94C4060C94EB0C0C94370631
:1001A0000C94C20C0C949C060C945D060C94972342
:1001B0000C9465060C9479060C94BA0E0C94A60661
:1001C0000C94C10C0C94CD290C94A1230C942D36C5
:1001D0000C9492060C944B060C94CF070C947F075A
:1001E0000C945C070C949F230C94272F0C943206DC
:1001F0000C9493230C94B80E0C945A030C948D0712
:100200000C946B2A0C94930E0C9490030C94620340
:100210005570646174696E672074696D65206672DB
:100220006F6D204750532E2E2E00496E636F7272F1
:1002300065637420536F6E6720466F726D61742121
:1002400000416C6C20617474656D70747320776507
:10025000726520756E7375636365737366756C2E56
:1002600000417474656D707420746F2073796E63CF
:100270002077697468204750532E0057616B6520C2
:1002800075702C204E656F210044617465206F727B
:100290002054696D65206E6F7420696E2072616EE6
:1002A0006765000201004661756C74792052544301
:1002B000210053746F7020546573740054656D7021
:1002C0002E2073656E736F72206E6F7420666F756B
:1002D0006E642E00475053204E4F54206465746561
:1002E00063746564210047505320646574656374CA
:1002F00065640053746172742054657374004E43D6
:100300005333313420666F7220485720322E7820C4
:10031000485635313232206F7220485635323232EB
:10032000004669726D776172652076657273696FD8
:100330006E3A20005761726E696E672120525443F5
:1003400020444F4E275420524553504F4E442100D5
:1003500000002100240027002A002D003000330077
:1003600001010000040107010A010000220025002C
:1003700028002B002E00310034000201000005018E
:1003800008010B0100000A0B02090C0D0E080703FF
:100390000401000000000000000000000000000058
:1003A000000000000000000000000000000000004D
:1003B000121110000000000000000000000000000A
:1003C00000000000000000000000000020002300EA
:1003D000260029002C002F0032000001000003013C
:1003E00006010901050505050705080808080202B8
:1003F00002020A0A080804040404010101010101BF
:1004000001010303030303030303040707070C0CA1
:100410000C0C0C0C0C0C0202020206060606060668
:1004200006060B0B0B0B0B0B0B0B0102102020080D
:10043000081020401020408002010201080402013F
:1004400001020408102040808040201008040201AE
:100450008004020180402010080402010804020107
:10046000010204081020408001020408102040808E
:10047000272F2D3611241FBECFEFD1E2DEBFCDBF17
:1004800000E00CBF2AE0A8E3B5E001C01D92A6334E
:10049000B207E1F715E0A0E0B2E0ECECF6E700E02F
:1004A0000BBF02C007900D92A833B107D9F712E035
:1004B000C9E3D2E000E006C021970109802FFE01C8
:1004C0000E941339C833D10780E00807A9F70E94BA
:1004D00016300C94543B0C9400008CBD9DBD0895C7
:1004E0008091EB09E091EC09F091ED09F89491818C
:1004F000982B91832281382F309523232283A7E0E4
:10050000B0E01197F1F7918193239183A3E2B0E0DA
:100510001197F1F790817894EFECF0E03197F1F7D3
:10052000982381E009F480E008959091EB09E0912F
:10053000EC09F091ED09292F209580FF14C0F89463
:100540008281822382838181892B8183A3E2B0E02F
:100550001197F1F78281982B9283789487ED90E040
:100560000197F1F70895F894828182238283818133
:10057000892B8183AFEFB0E01197F1F78281982B3F
:10058000928378948FE090E0EBCF0F931F93CF93FB
:10059000DF93082FC8E0D0E011E081E0902F912395
:1005A00009F480E00E949502110F2197B1F7F894A9
:1005B000E091EC09F091ED0991818091EB09809532
:1005C00098239183E091EC09F091ED0992818923C0
:1005D00082837894DF91CF911F910F91089580913C
:1005E000EB09E091EC09F091ED09F8949181282F45
:1005F00020959223918378943DE743E050E0315079
:1006000029F1DA011197F1F790819823C1F3F89459
:100610009281922392839181982B91837894ABE776
:10062000B7E01197F1F7F894918192239183A3E1B8
:10063000B1E01197F1F79081982381E009F080E013
:100640007894E3E6F6E03197F1F7089580E00895B5
:1006500091E0909350078093720710925107109287
:10066000730708958150823108F05AC0E82FF0E0F6
:100670008827E25CFC4F8F4F0C9413395E036203B2
:10068000500356035A03900365036B036F0375030E
:1006900079037D038303870390038B039103950301
:1006A000809180008F7780938000089580918000F2
:1006B0008F7DF9CF80918000877FF5CF84B58F77CC
:1006C00084BD089584B58F7DFBCF8091B0008F7776
:1006D0008093B00008958091B0008F7DF9CF809114
:1006E00090008F77809390000895809190008F7D87
:1006F000F9CF80919000877FF5CF8091A0008F7710
:100700008093A00008958091A0008F7DF9CF809103
:10071000A000877FF5CF809120018F778093200103
:100720000895809120018F7DF9CF80912001877FEE
:10073000F5CFCF93DF93282F30E0F901EC57FC4F32
:100740008491F901E65DFB4FD491F901EC51FC4F26
:10075000C491CC23A1F081110E943203EC2FF0E070
:10076000EE0FFF1FE653FC4FA591B491EC91ED23E2
:1007700081E090E009F480E0DF91CF91089580E07E
:1007800090E0FACF1F93CF93DF93282F30E0F90149
:10079000EC57FC4F8491F901E65DFB4FD491F901D0
:1007A000EC51FC4FC491CC23A9F0162F81110E946B
:1007B0003203EC2FF0E0EE0FFF1FE659FC4FA5913E
:1007C000B4918FB7F894EC91111108C0D095DE2345
:1007D000DC938FBFDF91CF911F910895DE2BF8CF6F
:1007E000CF93DF9390E0FC01E65DFB4F24918C51A9
:1007F0009C4FFC0184918823C9F090E0880F991FD9
:10080000FC01E05BFC4FA591B491FC01E659FC4F63
:10081000C591D49161110DC09FB7F8948C9120952A
:1008200082238C938881282328839FBFDF91CF91D7
:100830000895623051F49FB7F8943C91822F8095CF
:1008400083238C93E8812E2BEFCF8FB7F894EC9114
:100850002E2B2C938FBFEACF4F925F926F927F9295
:100860008F929F92AF92BF92CF92DF92EF92FF92C0
:100870000F931F93CF93DF9300D01F921F92CDB79A
:10088000DEB72091810727FD2CC149835A836B83F2
:100890007C838C0161E0809180070E94F00380914D
:1008A00081078D834801B12CA12C8D7F09F031C1C6
:1008B00060E072E18AE790E0A50198010E94F438B7
:1008C00029013A017A01690191E0C91AD108E108C8
:1008D000F108AFEFCA16D104E104F10409F00CF4F9
:1008E000C7C060E472E48FE090E0A50198010E9427
:1008F000F43869017A01B1E0CB1AD108E108F108B6
:100900008D81823009F06AC082E09FEFC916D10460
:10091000E104F10409F00CF45EC160E970ED83E0DC
:1009200090E0A50198010E94F43869017A01A1E0E4
:10093000CA1AD108E108F10883E0BFEFCB16D10451
:10094000E104F10409F00CF446C168E478EE81E0BA
:1009500090E0A50198010E94F43869017A0181E0D4
:10096000C81AD108E108F10884E09FEFC916D10444
:10097000E104F10409F00CF42EC164E274EF80E0AC
:1009800090E0A50194010E94F43869017A01B1E078
:10099000CB1AD108E108F10885E09FEFC916D10410
:1009A000E104F10409F008F416C162E17AE780E09D
:1009B00090E0A50194010E94F43869017A01B1E048
:1009C000CB1AD108E108F1088FEFC816D104E10471
:1009D000F10411F008F0F0C086E0FDC08FEFC816FA
:1009E000D104E104F10409F00CF491C068E478EE5C
:1009F00081E090E0A50198010E94F43869017A0134
:100A000091E0C91AD108E108F108AD8184E0A11193
:100A1000C4CF83E0AFEFCA16D104E104F10461F161
:100A20005CF162E17AE780E090E0A50194010E9428
:100A3000F43869017A0181E0C81AD108E108F108A7
:100A400084E09FEFC916D104E104F104A9F0A0F0FD
:100A5000730162019AE0F594E794D794C7949A954C
:100A6000D1F7A1E0CA1AD108E108F10885E004C075
:100A700081E0AD81A111AFC095B5987F892B85BD6F
:100A800089819A81AB81BC812FEF3FEFA901892B2E
:100A90008A2B8B2B79F0D801AA0FBB1F29813A81B1
:100AA0004B815C810E94E03728EE33E040E050E06B
:100AB0000E94D2389D81913009F45CC0923009F4D3
:100AC0006BC091110EC0C7BC20937C0730937D078B
:100AD00040937E0750937F0780916E0082608093E1
:100AE0006E000F900F900F900F900F90DF91CF91AD
:100AF0001F910F91FF90EF90DF90CF90BF90AF903C
:100B00009F908F907F906F905F904F90089582E0BC
:100B1000B0CF60E072E18AE790E0A50198010E9401
:100B2000F43869017A01B1E0CB1AD108E108F10883
:100B300091E0C114D10481E0E806F10484F068E496
:100B400078EE81E090E0A50198010E94F4386901F7
:100B50007A0191E0C91AD108E108F10893E0AD816A
:100B6000A13009F08DCF80918100887F892B8093FF
:100B7000810086CFD0928900C092880020937807A8
:100B80003093790740937A0750937B0780916F00E9
:100B9000826080936F00A5CFC092B300209374074A
:100BA00030937507409376075093770780917000D4
:100BB00082608093700095CF730162018AE0F594A2
:100BC000E794D794C7948A95D1F7B1E0CB1AD108AE
:100BD000E108F10887E09091B100987F892B80931C
:100BE000B1004ECF1F93CF93DF93182FEB0161E03D
:100BF0000E94F003209739F460E0812FDF91CF91BC
:100C00001F910C94C203CF3FD10511F461E0F5CFE1
:100C1000E12FF0E0EC57FC4FE491E150E23108F0B5
:100C2000B3C0F0E08827E85EF94F8F4F0C9413397A
:100C30002A063206370641064B06C40655065D06EF
:100C400065066F067906830692069C06C406A6060C
:100C5000B006BA0684B5806884BDC7BDDF91CF9168
:100C60001F91089584B5806284BDC8BDF7CF80917F
:100C70008000806880938000D0938900C0938800B2
:100C8000EDCF80918000806280938000D0938B00B4
:100C9000C0938A00E3CF80918000886080938000B9
:100CA000D0938D00C0938C00D9CF8091B000806824
:100CB0008093B000C093B300D1CF8091B000806228
:100CC0008093B000C093B400C9CF80919000806839
:100CD00080939000D0939900C0939800BFCF8091EB
:100CE0009000806280939000D0939B00C0939A0004
:100CF000B5CF80919000886080939000D0939D0044
:100D0000C0939C00ABCF8091A00080688093A0002E
:100D10008091A0008F7B8093A000D093A900C09306
:100D2000A8009CCF8091A00080628093A000D09307
:100D3000AB00C093AA0092CF8091A00088608093FE
:100D4000A000D093AD00C093AC0088CF809120016B
:100D5000806880932001D0932901C09328017ECF21
:100D600080912001806280932001D0932B01C09359
:100D70002A0174CF80912001886080932001D09354
:100D80002D01C0932C016ACFC038D1050CF03ECFA5
:100D900033CF3FB7F8948091FE069091FF06A09163
:100DA0000007B091010726B5A89B05C02F3F19F099
:100DB0000196A11DB11D3FBFBA2FA92F982F8827DB
:100DC000BC01CD01620F711D811D911D42E0660FB6
:100DD000771F881F991F4A95D1F708958F929F9288
:100DE000AF92BF92CF92DF92EF92FF924B015C01E4
:100DF0000E94C9066B017C010E94C9066C197D091D
:100E00008E099F09683E734081059105A8F321E092
:100E1000821A9108A108B10888EEC80E83E0D81E96
:100E2000E11CF11C81149104A104B10429F7FF9085
:100E3000EF90DF90CF90BF90AF909F908F900895EC
:100E40002FB7F8946091FA067091FB068091FC062A
:100E50009091FD062FBF0895089508950895AF92CB
:100E6000BF92CF92DF92EF92FF920F931F93CF9397
:100E7000DF936C017B018B01040F151FEB015E01F9
:100E8000AE18BF08C017D10759F06991D601ED918E
:100E9000FC910190F081E02DC6011995892B79F71D
:100EA000C501DF91CF911F910F91FF90EF90DF90DF
:100EB000CF90BF90AF900895FC01538D448D252FA6
:100EC00030E0842F90E0821B930B541710F0CF96E4
:100ED000089501970895FC01918D828D981761F016
:100EE000A28DAE0FBF2FB11D5D968C91928D9F5F2D
:100EF0009F73928F90E008958FEF9FEF0895FC010C
:100F0000918D828D981731F0828DE80FF11D858DBE
:100F100090E008958FEF9FEF0895FC01918D228D51
:100F2000892F90E0805C9F4F821B91098F739927D6
:100F3000089582E897E00E948D0721E0892B09F44B
:100F400020E0822F08958FE198E00E948D0721E034
:100F5000892B09F420E0822F0895FC01A48DA80FAD
:100F6000B92FB11DA35ABF4F2C91848D90E00196EB
:100F70008F739927848FA689B7892C93A089B1890B
:100F80008C91837080648C93938D848D981306C0AC
:100F90000288F389E02D80818F7D80830895EF9210
:100FA000FF920F931F93CF93DF93EC0181E0888F23
:100FB0009B8D8C8D98131AC0E889F989808185FFF3
:100FC00015C09FB7F894EE89FF896083E889F98995
:100FD00080818370806480839FBF81E090E0DF9197
:100FE000CF911F910F91FF90EF900895F62E0B8DEA
:100FF00010E00F5F1F4F0F731127E02E8C8D8E11A5
:101000000CC00FB607FCFACFE889F989808185FF0B
:10101000F5CFCE010E94AD07F1CFEB8DEC0FFD2F88
:10102000F11DE35AFF4FF0829FB7F8940B8FEA89C6
:10103000FB8980818062CFCF0F931F93CF93DF9383
:101040008C01D0E0C0E0F801EC0FFD1F6491662335
:1010500041F08FE198E00E94CF07892B11F0219693
:10106000F2CFCE01DF91CF911F910F910895CF93D1
:10107000DF93EC01888D8823B9F0AA89BB89E889C0
:10108000F9898C9185FD03C0808186FD0DC00FB666
:1010900007FCF7CF8C9185FFF2CF808185FFEDCFE4
:1010A000CE010E94AD07E9CFDF91CF91089580E096
:1010B00090E0892B29F00E94A30781110E94000073
:1010C00080E090E0892B29F00E94990781110E940D
:1010D000000080E090E0892B49F080E090E0892BCF
:1010E00029F00E94000081110E94000080E090E041
:1010F000892B49F080E090E0892B29F00E940000C4
:1011000081110C94000008956093C4067093C50685
:101110008093C6069093C706645D7E4F8F4F9F4FA6
:101120006093C0067093C1068093C2069093C30675
:1011300082E090E09093BF068093BE060E94200755
:101140006093BA067093BB068093BC069093BD066D
:101150000895CF92DF92EF92FF920F931F930E9418
:1011600020078B019C01C090BA06D090BB06E0908E
:10117000BC06F090BD066091C4067091C5068091D2
:10118000C6069091C7060C191D092E093F09083E95
:10119000134021053105E0F0DC01CB010196A11DD2
:1011A000B11D8093C4069093C506A093C606B09364
:1011B000C706B701A60148515C4F6F4F7F4F409360
:1011C000BA065093BB066093BC067093BD06C7CFAA
:1011D0001F910F91FF90EF90DF90CF9008954F9265
:1011E0005F926F927F928F929F92AF92BF92CF92B7
:1011F000DF92EF92FF920F931F93CF93DF93FC0147
:101200001681A12FB0E020E833E341EE51E00E94C7
:10121000E0374B015C01C2EBD7E09D0104E610E032
:1012200080E9E82EFF24F394CE01825B9740821779
:1012300093079CF14580512C2E54384FC90164E628
:1012400070E00E94BE387C01C90160E971E00E9433
:10125000BE386C0104EC13E0C1E0D0E0390183E05A
:1012600068227724C415D5050CF040C0C230D105E2
:1012700071F56114710459F5E114F10419F4C11404
:10128000D10429F5B0E88B0EBBE39B1EB6E2AB1E82
:10129000B11C21960F5F1F4FE5CFCE0183709927B8
:1012A000892B99F4CE01B8010E94BE38892B31F404
:1012B000CE01B7010E94BE38892B39F4A0E88A0E0E
:1012C000A1E59A1EA1E0AA1EB11C2196ADCFD801BE
:1012D0008C91A82FB0E020E831E541E050E00E9479
:1012E000E037860E971EA81EB91ED3CF228130E0AC
:1012F000A0E1BEE00E94EB376B017C01218130E070
:10130000ACE3B0E00E94EB37C60ED71EE81EF91E14
:101310008081C80ED11CE11CF11CA481A150BB0B23
:1013200020E831E541E050E00E9422396C0D7D1D3E
:101330008E1D9F1D680D791D8A1D9B1DDF91CF910C
:101340001F910F91FF90EF90DF90CF90BF90AF90E3
:101350009F908F907F906F905F904F900895EF9245
:10136000FF920F9394E6E916F104CCF092EBE91AA0
:1013700097E0F90AE092CE060093CD062093CC06C2
:101380008093CA066093C9064093C80688EC96E02D
:101390000E94EF080F91FF90EF900C9484089EE15B
:1013A000E90EF11CE7CF6F927F928F929F92AF92DE
:1013B000BF92CF92DF92EF92FF920F931F93CF9342
:1013C000DF936B017C01EA018CE3882E912CA12C28
:1013D000B12CC701A50194010E94D2386883CA01CB
:1013E000B901A50194010E94D2386983C701B601F1
:1013F00020E13EE040E050E00E94D238CA01B9014D
:1014000028E130E040E050E00E94D2386A83C70112
:10141000B60120E831E541E050E00E94D238690190
:101420007A01CA01B9016C5F7F4F8F4F9F4F27E050
:1014300030E040E050E00E94D2386F5F6B83812C37
:10144000912C540140E094E6692E712C00E911E0E2
:10145000242F30E02E54384FF901E370FF273097E6
:10146000F9F4C901B3010E94BE38892B31F4C901D6
:10147000B8010E94BE38892B99F48EE691E0A0E075
:10148000B0E0880E991EAA1EBB1ED501C401AA2772
:10149000BB27C816D906EA06FB0638F04F5FD8CF3F
:1014A0008DE691E0A0E0B0E0ECCF4E83C90164E6A8
:1014B00070E00E94BE388C01C90160E971E00E94B1
:1014C000BE38309729F401151105E1F40097D1F0E9
:1014D0004DE651E060E070E0841A950AA60AB70A6A
:1014E000C818D908EA08FB08A4ECB3E020E02130D2
:1014F00071F4309791F50115110511F4009769F514
:101500004DE106C04EE651E060E070E0E5CF4C9161
:1015100050E070E060E031E0320FC416D506E60618
:10152000F70640F0C41AD50AE60AF70A1196232FE7
:101530003C30E9F62F5F2D83C394CC82DF91CF91AD
:101540001F910F91FF90EF90DF90CF90BF90AF90E1
:101550009F908F907F906F9008954CE1D9CFCF925C
:10156000DF92EF92FF92C090B606D090B706E0905F
:10157000B806F090B906C616D706E806F90671F067
:101580006B017C0148EC56E00E94D309C092B6067C
:10159000D092B706E092B806F092B906FF90EF90AD
:1015A000DF90CF9008950E94A9080E94AF0A809111
:1015B000CE0690E08E54984F08950E94A9080E948C
:1015C000AF0A8091CD0690E008950E94A9080E947C
:1015D000AF0A8091CC0690E008950E94A9080E946D
:1015E000AF0A8091C80690E008950E94A9080E9461
:1015F000AF0A8091C90690E008950E94A9080E9450
:10160000AF0A8091CA0690E00895CF92DF92EF92E0
:10161000FF92CF93DF93EC010E9420076B017C01C6
:101620008F850E9499039C0181E02115310509F401
:1016300080E0898B8889811105C091E0232B09F016
:1016400090E0998B29898A89281721F0CD8ADE8A32
:10165000EF8AF88E8D899E89AF89B88DB701A60172
:10166000481B590B6A0B7B0BDB01CA01CB80DC806A
:10167000ED80FE80C816D906EA06FB0664F43A81BE
:10168000231749F02A83222349F04B895C894F5F55
:101690005F4F5C8B4B8B3A81311117C0CF80D88460
:1016A000E984FA84C816D906EA06FB0634F48B8965
:1016B0009C89998388831C8A1B8A2A8BDF91CF910E
:1016C000FF90EF90DF90CF900895CB84DC84ED8481
:1016D000FE84C816D906EA06FB067CF78B899C892E
:1016E000919581959109E5CF20919306260F332797
:1016F000331F21323105ECF420914A07FC0190E0C0
:1017000080E0243069F082E00895A0919306219151
:10171000AC014D58594FA40FB52FB11D2C93019614
:10172000861798F380919306680F6093930680E084
:10173000089581E0089510924A0781E08093490757
:101740001092240761E084E10E94C20361E085E118
:101750000E94C203E9EBF0E080818E7F808380816C
:101760008D7F808388E48093B80085E48093BC00FB
:101770000895CF93DF9391E0909372068823B9F098
:10178000C091B800D091BA008091BC008A7B809350
:10179000BC0060E084E10E94C20360E085E10E9439
:1017A000C2030E949B0BD093BA00C093B800DF9194
:1017B000CF910895CF92DF92EF92FF920F931F93F4
:1017C000CF93DF93D091730781E0D13208F09CC0B2
:1017D000C09172070E94C9066B017C0180914A0783
:1017E00081116CC082E080934A0781E080934907B1
:1017F0008FEF8093480710924707D0934607A2E5E2
:10180000B7E0E6E2F7E080E0D8138DC0109225073C
:1018100080912507CC0FC82BC09325078091240702
:10182000813009F084C0109224070E94C9066B0120
:101830007C01809125078093BB0080914C0790919B
:101840004D07A0914E07B0914F07892B8A2B8B2B08
:10185000A1F00E94C90600914C0710914D072091FC
:101860004E0730914F076C197D098E099F090617A5
:1018700017072807390708F442C08091BC0083FD90
:10188000D8CF85EC8093BC000E94C9066B017C0117
:1018900080914A07823009F44CC0809148078F3FFD
:1018A00009F469C080914807803209F466C08091CC
:1018B0004807803309F463C084E026C080914C0758
:1018C00090914D07A0914E07B0914F07892B8A2B1D
:1018D0008B2B09F483CF0E94C90600914C0710910D
:1018E0004D0720914E0730914F076C197D098E09E5
:1018F0009F09061717072807390708F06FCF80914F
:101900004B070E94B90B85E01092510710927307A4
:1019100010925007DF91CF911F910F91FF90EF90A0
:10192000DF90CF9008959D9191938F5F6DCF85EE5D
:10193000A9CF80914C0790914D07A0914E07B0918F
:101940004F07892B8A2B8B2B09F4A2CF0E94C90643
:1019500000914C0710914D0720914E0730914F0791
:101960006C197D098E099F09061717072807390783
:1019700008F08ECFC4CF80E0C7CF82E0C5CF83E030
:10198000C3CF0895E091030780910207E81730F470
:10199000F0E0EC5FF84F808190E008958FEF9FEFCB
:1019A000089590910307809102072FEF3FEF98175A
:1019B00048F4E92FF0E0EC5FF84F208130E09F5FC2
:1019C00090930307C901089580910207909103073E
:1019D000891B990B0895CF92DF92EF92FF920F939C
:1019E0001F93CF93DF937C01CB018A012091500795
:1019F000222389F0EB016B01C40ED51ECC15DD0549
:101A000069F06991D701ED91FC910190F081E02D91
:101A1000C7011995F3CF642F0E94740BC801DF91A1
:101A2000CF911F910F91FF90EF90DF90CF9008958D
:101A3000CF93DF931F92CDB7DEB769832091500714
:101A40002223F9F020917307203258F021E030E092
:101A5000FC013383228390E080E00F90DF91CF91EF
:101A6000089580915107E82FF0E0EE5AF84F9981E0
:101A700090838F5F809351078093730781E090E09C
:101A8000ECCF61E0CE0101960E94740BF7CF682F76
:101A90008CEB98E00C94180DDF92EF92FF920F936D
:101AA0001F93CF93DF93182FF62ED42ED22F809131
:101AB0006B020E94280360E08CEB98E00E94180DF6
:101AC000CAE08D2D6C2F0E94B2388295807F682FDE
:101AD000690F8CEB98E00E94180D8F2D6C2F0E94DF
:101AE000B2388295807F682F690F8CEB98E00E9456
:101AF000180D812F6C2F0E94B2388295807F682F3D
:101B0000690F8CEB98E00E94180D61E08CEB98E077
:101B10000E94180D8D2F6C2F0E94B2388295807F05
:101B2000682F690F8CEB98E00E94180D802F6C2FA6
:101B30000E94B2388295807F682F690F8CEB98E005
:101B40000E94180D8E2D6C2F0E94B2388295807FD6
:101B5000682F690F8CEB98E00E94180D60E08CEB09
:101B600098E00E94180DDF91CF911F910F91FF9087
:101B7000EF90DF900C94DA0B90E080E00895CF9224
:101B8000DF92EF92FF920F931F93CF93DF93909189
:101B9000710691110BC08FEF9FEFDF91CF911F91D5
:101BA0000F91FF90EF90DF90CF9008959091700685
:101BB000992389F3082FC0916F06D0E080916706C2
:101BC00081110DC00E942007609363067093640624
:101BD000809365069093660681E0809367060E9475
:101BE0002007C0906306D0906406E0906506F090F0
:101BF00066066C197D098E099F096D327140810559
:101C00009105B0F0109162060E9420076093630670
:101C100070936406809365069093660691E0912721
:101C200090936206992331F110926106109260063A
:101C300020916006309161062095309580915F0675
:101C4000282326FF1CC081E080935E0627FF1AC070
:101C500081E080935D0680916206882309F49BCF22
:101C600002C0D595C7950A95E2F7C0FF94CF80E0F2
:101C70009CE393CFD0936106C0936006D9CF1092B6
:101C80005E06E4CF10925D06E6CFEF92FF920F93CF
:101C90001F93CF93DF93182F8091370681110DC0CA
:101CA0000E942007609333067093340680933506B4
:101CB0009093360681E080933706C0913106D0912B
:101CC0003206C930D10508F077C0FE018827E459F3
:101CD000F14F8F4F0C941339750E810E850E930EB4
:101CE000750E810EB80EBA0ECB0E0E94EF02219631
:101CF000CA30D10509F097C0109232061092310611
:101D000028C08CEC0E94C502F2CF84E40E94C50278
:101D10000E94200760933306709334068093350643
:101D200090933606E4CF0E9420070091330610916D
:101D300034062091350630913606601B710B820BFC
:101D4000930BC4E0D0E06E3E72408105910508F02F
:101D50006AC060912D0670912E0680912F06909199
:101D60003006DF91CF911F910F91FF90EF90089572
:101D70008EEBC8CF98E0E92EF12C10E001E00E9434
:101D800070028111102B000F81E0E81AF108B9F7F9
:101D900010932B06ACCF88E0E82EF12C10E001E088
:101DA0000E9470028111102B000F21E0E21AF1084D
:101DB000B9F710932C069BCFC930D10509F097CF06
:101DC00060912B0670912C066F3F760711F470E03E
:101DD00060E0072E000C880B990B0E94AD3620E0C6
:101DE00030E040E85DE30E940C3711110FC020E0A5
:101DF00030E040E251E40E940C3760932D0670936E
:101E00002E0680932F069093300671CF26E636E695
:101E100046EE5FE30E940C3720E030E040E052E401
:101E20000E94FB37E4CFD0933206C093310691CFA6
:101E3000CF93DF93EC012196FC0120812A33C9F472
:101E40002181243609F5229630E020E06AE089916C
:101E500090ED980F9A3078F4629FA001639F500D27
:101E60001124082E000C990BC0979A01280F391FD6
:101E7000EECFCE01DFCF3093100620930F06211551
:101E8000310511F02093370288818F3689F48A81D9
:101E9000082E000C990B9C01205331093093100639
:101EA00020930F06C397059710F4209336022496CB
:101EB00088818236F1F4229630E020E06AE0899150
:101EC00090ED980F9A3068F4629FA001639F500DC7
:101ED0001124082E000C990BC0979A01280F391F66
:101EE000EECF3093100620930F06309335022093E7
:101EF00034022091340230913502032E000C440B41
:101F0000550B60E67AEE80E090E00E94F43882E0C3
:101F1000220F331F441F551F8A95D1F720930B06BC
:101F200030930C0640930D0650930E06CE01DF91C0
:101F3000CF910895CF92DF92EF92FF920F931F936C
:101F4000CF93DF93EC018B010E942007CE80DF80CE
:101F5000E884F984AB01BC014C195D096E097F0965
:101F600088819981092E000CAA0BBB0B8417950759
:101F7000A607B707A0F48A85882389F01A868D8181
:101F80001C821D82823060F181E090E0DF91CF9170
:101F90001F910F91FF90EF90DF90CF9008958B8568
:101FA0009C8580179107C9F481E08C838D818F5FB8
:101FB0008D830E9420076E837F838887998781E0C5
:101FC0008A872D818A819B81281719064CF01C82F3
:101FD0001D821A868FEF9FEFD9CF8C81811103C0AC
:101FE00090E080E0D3CF0F3F1F4FD1F7DFCF8EBD02
:101FF00000000DB407FEFDCF8EB508958F929F921D
:10200000AF92BF92CF92DF92EF92FF920F931F9306
:10201000CF93DF937C01D62F0E94C9064B015C0150
:1020200080914A07811167C0CD2F81E080934A07D4
:10203000809349079FEF90934807109247079D0FA1
:10204000909346078093250780912507EE0CFF1C8F
:102050008E298093250780912407813009F083C061
:10206000109224070E94C9066B017C01809125070C
:102070008093BB0080914C0790914D07A0914E0733
:10208000B0914F07892B8A2B8B2BA1F00E94C90698
:1020900080904C0790904D07A0904E07B0904F074E
:1020A0006C197D098E099F0986169706A806B90640
:1020B00008F442C08091BC0083FDD8CF85EC8093AA
:1020C000BC000E94C9066B017C0180914A078130E7
:1020D00009F44BC0809147078D1710F4C091470752
:1020E000E6E2F7E0A4E0B7E080E08C1751F19191CF
:1020F0009D938F5FFACF80914C0790914D07A091EF
:102100004E07B0914F07892B8A2B8B2B09F488CF70
:102110000E94C90600914C0710914D0720914E076F
:1021200030914F07681979098A099B090617170723
:102130002807390708F074CF80914B070E94B90B2C
:10214000C0E010920307C09302078C2FDF91CF915C
:102150001F910F91FF90EF90DF90CF90BF90AF90C5
:102160009F908F90089585EEAACF80914C07909113
:102170004D07A0914E07B0914F07892B8A2B8B2BCF
:1021800009F4A3CF0E94C90680904C0790904D0798
:10219000A0904E07B0904F076C197D098E099F09DA
:1021A00086169706A806B90608F08FCFC5CFCF933D
:1021B000C0916B028C2F0E94280360E08CEB98E0AA
:1021C0000E94180D0E94DA0B67E070E08C2F90E0FF
:1021D0000E94FE0F8CEB98E00E94D10C982F9295F4
:1021E0009F70CAE08F709C9F800D112490E09093A7
:1021F000F6068093F5068CEB98E00E94D10C982FA0
:1022000092959F708F709C9F800D112490E0909309
:10221000ED068093EC068CEB98E00E94D10C982F91
:10222000929593708F709C9F800D112490E09093F5
:10223000EB068093EA068CEB98E00E94D10C8CEBC5
:1022400098E00E94D10C982F92959F708F709C9F60
:10225000800D112490E09093EF068093EE068CEBB6
:1022600098E00E94D10C982F92959F708F709C9F40
:10227000800D112490E09093F1068093F0068CEB92
:1022800098E00E94D10C982F92959F708F709C9F20
:10229000800D112490E09093F3068093F206CF9185
:1022A0000895FC0101900020E9F73197AF01481B28
:1022B000590BBC018FE198E00C942F07CF93DF936B
:1022C0000E941C08EC018CE194E00E9451118C0FDB
:1022D0009D1FDF91CF9108950F931F93809163020B
:1022E00090916402892B09F44DC080911C068823CB
:1022F000A9F00E942007009118061091190620915C
:102300001A0630911B06601B710B820B930B693E02
:10231000734081059105B0F110921C060E94FD0AE0
:1023200020915D0230915E028217930759F50E9459
:10233000F50A20915F02309160028217930711F530
:102340000E94ED0A20916102309162028217930788
:10235000C9F40E94200760931806709319068093B1
:102360001A0690931B0681E080931C068BE792E08F
:102370000E945E1180914002909141029093E90683
:102380008093E8061F910F9108958F929F92AF92CC
:10239000BF920F931F93CF93DF93CDB7DEB7A19773
:1023A0000FB6F894DEBF0FBECDBF19A2423008F4BD
:1023B0004AE08E010F5D1F4F842E912CB12CA12C71
:1023C000A50194010E94D238E62FB901CA01EA3072
:1023D000F4F4E05DD801EE938D01232B242B252B03
:1023E00079F790E080E0109719F0CD010E9451112B
:1023F000A1960FB6F894DEBF0FBECDBFDF91CF918F
:102400001F910F91BF90AF909F908F900895E95CBE
:10241000E1CFCF93DF93682F70E090E080E04AE057
:102420000E94C511EC018CE194E00E9451118C0FC7
:102430009D1FDF91CF910895CF93DF93FC014481DD
:102440005581608171818FE198E00E942F07EC0136
:102450008CE194E00E9451118C0F9D1FDF91CF9170
:102460000895CF93DF930E945111EC018CE194E029
:102470000E9451118C0F9D1FDF91CF910895FC0197
:1024800080819181009711F00C94353660E070E006
:10249000CB0108952F923F924F925F926F927F925D
:1024A0008F929F92AF92BF92CF92DF92EF92FF9264
:1024B000CF93DF93CDB7DEB764970FB6F894DEBF46
:1024C0000FBECDBF0E94C906C0905906D0905A06D3
:1024D000E0905B06F0905C066C197D098E099F09FF
:1024E0006E34734C8105910508F4F0C10E94C90651
:1024F0006093590670935A0680935B0690935C062E
:1025000085EE99E00E943F1269837A838B839C83D6
:1025100060E08AE00E94C2032AE0222E312C412C86
:10252000512C69817A818B819C81A20191010E9449
:10253000F43849015A01660F771F60557C4FDB0163
:10254000ED90FC9085E090E00E94BF0D6C01C5010C
:10255000B401A20191010E94F438660F771F605503
:102560007C4FFB01A080B18084E090E00E94BF0D11
:102570003C0169817A818B819C8124E630E040E0D6
:1025800050E00E94F438CA01B901A20191010E94F1
:10259000F438660F771F60557C4FDB018D909C905F
:1025A00083E090E00E94BF0DCE20DF20F12CE12CD3
:1025B00064E1CC0CDD1CEE1CFF1C6A95D1F7882170
:1025C0009921B0E0A0E0C82AD92AEA2AFB2AA6204D
:1025D000B720C501B0E0A0E07AE0880F991FAA1FDC
:1025E000BB1F7A95D1F7C82AD92AEA2AFB2A698122
:1025F0007A818B819C8128EE33E040E050E00E949C
:10260000F438298B3A8B4B8B5C8B209138023091BC
:10261000390240913A0250913B022D833E834F8311
:10262000588780915E06882309F406C1DA01C90142
:102630008C299D29AE29BF2940903C0250903D0233
:1026400060903E0270903F0220915D06222309F4C3
:1026500000C16C017D01C428D528E628F7283090F8
:10266000DE068F2D9927AA27BB2789879A87AB87F4
:10267000BC874701AA24BB2455274F2D3E2D2D2D65
:102680002D873E874F87588B332009F4EFC08C2D60
:102690000E94F70F8D850E94F70F882D0E94F70F7B
:1026A00089850E94F70F3AE0832E912CA12CB12C42
:1026B00069897A898B899C89A50194010E94F438E3
:1026C000660F771F60557C4FDB010D90BC91A02DEC
:1026D000BA87A98782E090E00E94BF0D6C016981F2
:1026E0007A818B819C8120E137E240E050E00E94BA
:1026F000F438CA01B901A50194010E94F438660FAB
:10270000771F60557C4FFB01E080F18081E090E015
:102710000E94BF0D29853A85C222D322A60170E00E
:1027200060E0E4E1440F551F661F771FEA95D1F77B
:102730008E219F21B0E0A0E06C017D01FAE0CC0C7D
:10274000DD1CEE1CFF1CFA95D1F7C42AD52AE62A17
:10275000F72A69817A818B819C8120EA36E841E001
:1027600050E00E94F438CA01B901A50194010E9409
:10277000F438660F771F60557C4FDB01AD90BC903D
:1027800090E080E00E94BF0D8A219B21B0E0A0E094
:102790008C299D29AE29BF2920915E06222309F4A8
:1027A00070C02D813E814F815885822B932BA42BA5
:1027B000B52B20915D06222309F470C06C017D01C8
:1027C000C428D528E628F7284F2C552466247724DA
:1027D0004701AA24BB24BB27AF2D9E2D8D2D8983B5
:1027E0009A83AB83BC83332009F465C08C2D0E948F
:1027F000F70F89810E94F70F882D0E94F70F842D13
:102800000E94F70F61E08AE064960FB6F894DEBF8D
:102810000FBECDBFDF91CF91FF90EF90DF90CF90B3
:10282000BF90AF909F908F907F906F905F904F90F0
:102830003F902F900C94C2038D819E81AF81B8850B
:1028400080959095A095B0958C219D21AE21BF21BA
:10285000F3CEB301A20140955095609570956A0141
:102860007B01C822D922EA22FB22F9CE89850E9467
:10287000F70F882D0E94F70F8D850E94F70F8C2D82
:1028800010CF4D815E816F81788540955095609520
:10289000709584239523A623B7238BCFB301A20180
:1028A00040955095609570956A017B01C822D922A8
:1028B000EA22FB2289CF842D0E94F70F882D0E94E7
:1028C000F70F89810E94F70F8C2D9ACF64960FB66F
:1028D000F894DEBF0FBECDBFDF91CF91FF90EF9098
:1028E000DF90CF90BF90AF909F908F907F906F9030
:1028F0005F904F903F902F9008950F931F93CF9329
:10290000DF938C01EB01FC01808191810097E1F064
:102910006881798161157105A9F0428153812C810B
:102920003D814217530770F00E944D3B8C819D8181
:10293000F801958384831D821C82DF91CF911F91C2
:102940000F9108950E94DA3988819981F801918365
:1029500080838A819B81938382838C819D819583EF
:102960008483198218821B821A82E5CFCF93DF936A
:10297000EC0188819981009711F00E94DA3919825F
:1029800018821D821C821B821A82DF91CF910895CA
:10299000FC0180819181009711F00C94DA3908953F
:1029A0000F931F93CF93DF93EC0188819981009758
:1029B00059F02A813B812617370730F081E0DF91FB
:1029C000CF911F910F9108958B016F5F7F4F0E94F0
:1029D000633A009759F0998388831B830A832C817B
:1029E0003D81232B59F7FC011082E8CF80E0E7CF2F
:1029F000EF92FF920F931F93CF93DF9361157105B1
:102A000041F480E0DF91CF911F910F91FF90EF9003
:102A1000089541155105B1F07B01EC010C811D8138
:102A2000040F151FB8010E94D014882351F3288188
:102A300039818C819D81B701820F931F0E944D3B8C
:102A40001D830C8381E0DECFCF93DF93EC01FB018C
:102A500001900020E9F73197AF01461B570B0E9408
:102A6000F814811103C0CE010E94B614CE01DF918B
:102A7000CF910895CF93DF93EC01FB014481558101
:102A8000608171810E94F814811103C0CE010E94FF
:102A9000B614CE01DF91CF910895EF92FF920F937C
:102AA0001F93CF93DF93EC017B018A01BA010E944F
:102AB000D01481110BC0CE010E94B614CE01DF915B
:102AC000CF911F910F91FF90EF9008951D830C837C
:102AD000B701888199810E944D3BF0CFFB010190A5
:102AE0000020E9F73197AF01461B570B0C944D15A9
:102AF0000F931F93CF93DF93CDB7DEB762970FB6D7
:102B0000F894DEBF0FBECDBF8C01CB01F80111825E
:102B1000108213821282158214824AE0BE016F5F16
:102B20007F4F0E945C36BE016F5F7F4FC8010E94DD
:102B30006E1562960FB6F894DEBF0FBECDBFDF9163
:102B4000CF911F910F910895CF93DF93EC01FB017B
:102B50008617970749F0608171816115710541F011
:102B6000448155810E944D15CE01DF91CF9108958A
:102B70000E94B614F9CFFC011182108213821282D6
:102B8000158214820C94A415FC0111821082138208
:102B9000128215821482FB0101900020E9F731971F
:102BA000AF01461B570B0C944D15AF92BF92CF92BD
:102BB000DF92EF92FF920F931F93CF93DF936C01FD
:102BC0005B017A0189012417350720F48F2D7901E3
:102BD000042F182F6EE174E0C6010E94C415D501C0
:102BE0001496CD91DC91EC16FD06E0F40C171D0750
:102BF00008F4E801D501ED91FC911197EC0FFD1F50
:102C0000108110826D917C916E0D7F1DC601611542
:102C10007105A1F00E946E15F50180819181C80FA8
:102C2000D91F1883C601DF91CF911F910F91FF909B
:102C3000EF90DF90CF90BF90AF9008950E94B614B0
:102C4000EBCF4F925F926F927F928F929F92AF9253
:102C5000BF92CF92DF92EF92FF920F931F93CF9389
:102C6000DF9300D000D0CDB7DEB77C014B015A0115
:102C700080912A0681113AC081E080932A0694E26D
:102C8000692E96E0792E2EE1422E26E0522E10E09B
:102C900000E00F5F1F4F680181E0C81AD10898015A
:102CA000A601B401CE0101960E94D515CE01019670
:102CB0000E943F12D3016D933D01CE0101960E9407
:102CC000C8149801A601B501CE0101960E94D51540
:102CD000CE0101960E943F12F20161932F01CE01B5
:102CE00001960E94C8140630110599F690911D06B0
:102CF00084E2C82E86E0D82EEEE1F6E08601A80137
:102D0000D8018C919A3008F04DC08F5F8C930F5F83
:102D10001F4FDA018C918A3019F4D80111971C9257
:102D20003196B6E00A321B0751F79F5F943109F4E0
:102D30003FC090931D066EE174E0C7010E94C41568
:102D4000FE0131965F01D6018D916D014AE0B5011A
:102D500090E00E945C36F50101900020E9F7319780
:102D6000AF014A195B09B501C7010E94F8140C159F
:102D70001D0549F7C70126960FB6F894DEBF0FBEB2
:102D8000CDBFDF91CF911F910F91FF90EF90DF901A
:102D9000CF90BF90AF909F908F907F906F905F90FB
:102DA0004F9008952081281709F4B1CF8F5FAECFDF
:102DB00010921D0610922A06BECFCF92DF92EF929C
:102DC000FF921F93CF93DF93CDB7DEB72C970FB64B
:102DD000F894DEBF0FBECDBF182F67E874E0CE01B8
:102DE00007960E94C41522E030E050E040E0133026
:102DF00071F024E030E042E050E01C3041F010334C
:102E0000B9F42091E9093091EA0944E050E065EE17
:102E100079E0CE0101960E94D515BE016F5F7F4F0C
:102E2000CE0107960E947D14CE0101960E94C8141F
:102E3000CE0107960E943F126B01CE0107960E94B9
:102E4000C814C6012C960FB6F894DEBF0FBECDBFD6
:102E5000DF91CF911F91FF90EF90DF90CF90089579
:102E60000F931F93CF93DF93CDB7DEB762970FB663
:102E7000F894DEBF0FBECDBF8C0177FF03C0719504
:102E8000619571096A307105A4F5CE010D960E9415
:102E9000781564E274E0CE0101960E94C415BE016B
:102EA0006F5F7F4FCE0107960E94BB15BE01635F27
:102EB0007F4FCE0107960E943A15BC01C8010E94BF
:102EC000BB15CE0107960E94C814CE0101960E9440
:102ED000C814CE010D960E94C814C80162960FB6A0
:102EE000F894DEBF0FBECDBFDF91CF911F910F9140
:102EF0000895C8010E947815F0CF0F931F93CF93C8
:102F0000DF93CDB7DEB768970FB6F894DEBF0FBE7C
:102F1000CDBF8B01833079F52091E9093091EA0921
:102F200042E050E065EE79E0CE010D960E94D515A5
:102F3000B801CE0101960E943017BE016F5F7F4F2E
:102F4000CE0107960E94BB15BE01635F7F4FCE0185
:102F500007960E943A15BC0185EE99E00E94A415DF
:102F6000CE0107960E94C814CE0101960E94C81493
:102F7000CE010D9644C08C3009F04EC02091E90975
:102F80003091EA0944E050E065EE79E0CE014396E5
:102F90000E94D515B801CE010D960E94301722E08F
:102FA00030E050E040E065EE79E0CE0101960E940D
:102FB000D515BE016F5F7F4FCE0107960E94BB15EE
:102FC000BE01635F7F4FCE0107960E943A15BE0196
:102FD0006D5E7F4F0E943A15BC0185EE99E00E941C
:102FE000A415CE0107960E94C814CE0101960E9436
:102FF000C814CE010D960E94C814CE0143960E94BB
:10300000C81468960FB6F894DEBF0FBECDBFDF912F
:10301000CF911F910F910895803399F7CE010D96AE
:103020000E94301724E030E050E040E065EE79E0A7
:10303000CE0101960E94D51580CF0E942007609393
:1030400014067093150680931606909317068091C8
:103050001306882309F44FC02091110630911206FF
:10306000C901880F991F21313105A1F1FC01ED5BE8
:10307000FD4F408151814150510951834083DC0112
:10308000AD5BBD4F6D917C911197FC01E053FC4FFE
:1030900040815181641775073CF4FC01E857FC4FEF
:1030A000408151814D935C932031310509F5209188
:1030B00063023091640221303105B9F420E8209395
:1030C0005F068D5B9D4FFC016081718180916F0671
:1030D0000C947D1740916502509166024C50510945
:1030E0005093660240936502CACF10925F06E9CF03
:1030F0002930310531F708950E94200760931406A6
:103100007093150680931606909317068091130608
:10311000882309F444C02091110630911206C90198
:10312000880F991F2131310561F1FC01ED5BFD4FE5
:10313000408151814F5F5F4F51834083DC01AD5B24
:10314000BD4F6D917C911197FC01E857FC4F408178
:103150005181461757073CF4FC01E053FC4F408176
:1031600051814D935C9320313105B1F410925F068B
:103170008D5B9D4FFC016081718180916F060C9485
:103180007D174091650250916602445F5F4F5093F6
:10319000660240936502D2CF2930310549F7089580
:1031A0000F931F93CF93DF93CDB7DEB768970FB61A
:1031B000F894DEBF0FBECDBF8C0180916502909167
:1031C0006602489709F048C00E94ED0ABC01CE0192
:1031D00043960E9430170E94F50ABC01CE010D965D
:1031E0000E9430170E94FD0ABC01CE0101960E9488
:1031F0003017BE016F5F7F4FCE0107960E94BB154F
:10320000BE01635F7F4FCE0107960E943A15BE0153
:103210006D5E7F4F0E943A15BC01C8010E94BB152C
:10322000CE0107960E94C814CE0101960E94C814D0
:10323000CE010D960E94C814CE0143960E94C81478
:10324000C80168960FB6F894DEBF0FBECDBFDF9100
:10325000CF911F910F9108950E94ED0ABC01CE01FC
:1032600043960E9430170E94F50ABC01CE010D96CC
:103270000E9430170E94A9080E94AF0A8091CA06D6
:103280006CE070E0882309F4B0CF682F70E08D30D7
:1032900008F4ABCF6C507109A8CF8F929F92AF9278
:1032A000BF92CF92DF92EF92FF920F931F93CF9333
:1032B000DF93CDB7DEB72C970FB6F894DEBF0FBE05
:1032C000CDBF8C016A017B0180915106811111C033
:1032D0000E942007645B7B4F8F4F9F4F60934D068A
:1032E00070934E0680934F069093500681E0809332
:1032F000510680914506811109C06FE174E08FE3AA
:1033000096E00E94C41581E0809345060E94200744
:1033100080904D0690904E06A0904F06B0905006BB
:10332000681979098A099B09693E734081059105ED
:1033300008F4D0C00E94200760934D0670934E069B
:1033400080934F069093500620E030E0A901C7011A
:10335000B6010E949D3820E030E040E05FE387FD49
:10336000D2C0C701B6010E94FB370E9467387B01BB
:1033700077FF04C0EE24FF24E61AF70A5B0139E167
:10338000A31A3CEFB30A80916702909168029B01F7
:103390002D593F4F69012A5531094901B701892B40
:1033A00009F0B6C0CE0107960E94781564E274E079
:1033B000CE0101960E94C415BE01695F7F4FCE0108
:1033C00001960E943A1564E274E00E942415BC0143
:1033D0008FE396E00E94A415CE0101960E94C814C6
:1033E000CE0107960E94C8143FECA31637E0B3063F
:1033F00018F5B701CE0107960E94781563E274E0D4
:10340000CE0101960E94C415BE01695F7F4FCE01B7
:1034100001960E943A1564E274E00E942415BC01F2
:103420008FE396E00E94A415CE0101960E94C81475
:10343000CE0107960E94C81487ECC816D10418F56F
:10344000B701CE0107960E94781562E274E0CE01C2
:1034500001960E94C415BE01695F7F4FCE0101969F
:103460000E943A1564E274E00E942415BC018FE3C7
:1034700096E00E94A415CE0101960E94C814CE01C8
:1034800007960E94C81423E18216910418F5B7012B
:10349000CE0107960E94781561E274E0CE01019694
:1034A0000E94C415BE01695F7F4FCE0101960E9444
:1034B0003A1564E274E00E942415BC018FE396E0A3
:1034C0000E94A415CE0101960E94C814CE01079651
:1034D0000E94C8146FE376E0C8010E94BB15C801C2
:1034E0002C960FB6F894DEBF0FBECDBFDF91CF9103
:1034F0001F910F91FF90EF90DF90CF90BF90AF9012
:103500009F908F900895C701B6010E94FA372DCF82
:10351000CE0107960E94781564E274E0CE01019610
:103520000E94C415BE01695F7F4FCE0101960E94C3
:103530003A1564E274E00E942415BC018FE396E022
:103540000E94A415CE0101960E94C814CE010796D0
:103550000E94C8143FECA31637E0B30638F5C70144
:103560006AE070E00E94BE38CE0107960E9478158E
:1035700063E274E0CE0101960E94C415BE01695F4A
:103580007F4FCE0101960E943A1563E274E00E94DB
:103590002415BC018FE396E00E94A415CE0101968C
:1035A0000E94C814CE0107960E94C81487ECC81662
:1035B000D10438F5C7016AE070E00E94BE38CE0140
:1035C00007960E94781562E274E0CE0101960E948F
:1035D000C415BE01695F7F4FCE0101960E943A1566
:1035E00063E274E00E942415BC018FE396E00E9420
:1035F000A415CE0101960E94C814CE0107960E9420
:10360000C81423E18216910408F064CFC7016AE070
:1036100070E00E94BE38CE0107960E94781561E2E4
:1036200074E0CE0101960E94C415BE01695F7F4F10
:10363000CE0101960E943A1563E274E03CCF85ED1D
:103640008093BC0080914C0790914D07A0914E074C
:10365000B0914F070796A11DB11D23E0B695A79520
:10366000979587952A95D1F72091BC0024FD03C03A
:1036700010924A07089540914C0750914D07609170
:103680004E0770914F07452B462B472B69F3009748
:10369000A105B10541F02AE22A95F1F700C0019792
:1036A000A109B109E1CF80914B070C94B90B0C949F
:1036B000D2370C94CA3788E090E00E94591B682FDB
:1036C00070E089E00E94F20589E090E00E94591BB9
:1036D000682F70E086E00E94F2058AE090E00E9488
:1036E000591B682F70E083E00C94F2052F923F92F3
:1036F0004F925F926F927F928F929F92AF92BF9202
:10370000CF92DF92EF92FF920F931F93CF93DF93AD
:10371000CDB7DEB7EE970FB6F894DEBF0FBECDBFC4
:103720000E94200720E137E240E050E00E94D238BA
:10373000672B682B692B01F58091F4068823E1F053
:103740000E94D710E090F206F090F3060091F00688
:103750001091F1062091EE063091EF064091F506AA
:103760005091F6066091EC067091ED068091EA06A4
:103770009091EB060E94AF090E9420076093070614
:10378000709308068093090690930A060091030639
:10379000109104062091050630910606601B710BFE
:1037A000820B930B00913002109131022091320272
:1037B000309133020617170728073907E0F5809183
:1037C0000206811107C081E692E00E945E1181E04D
:1037D0008093020682E897E00E948D07892B59F1B9
:1037E00082E897E00E946B0790918B05E92FF0E04B
:1037F000E85CFA4F80839F5F923509F446C190934D
:103800008B058A30C1F4E0918B05F0E0E85CFA4F5B
:10381000108210928B05E9E3F5E021E030E040E012
:103820005191C90101965A3209F432C145279C01D0
:1038300083359105A9F740910706509108066091DC
:10384000090670910A068091030690910406A091E2
:103850000506B09106068A019B01081B190B2A0B6D
:103860003B0B8091300290913102A0913202B091D5
:103870003302805A9541AF4FBF4F80179107A2077F
:10388000B30770F440930306509304066093050653
:103890007093060681E492E00E945E111092020687
:1038A0001092F6051092F7051092F8051092F9059E
:1038B0008FEC98E09093FD058093FC050091CC0877
:1038C00010E01093FF050093FE058091990990E0A8
:1038D00090930106809300068091C8088530B1F569
:1038E0008091CC088A3108F4CBC28091CF089091A6
:1038F000D008843F914008F094C21092FB051092CA
:10390000FA058FEF9FEFDC018093F6059093F705A2
:10391000A093F805B093F9058BE090E09093F30540
:103920008093F2056091F6057091F7058091F80596
:103930009091F90540E10E94C5118CE194E00E944C
:10394000511182E08093C8081092CC086091F6056E
:103950007091F70583E19AE00E949A0F9093F10528
:103960008093F005019721F486E294E00E943112E1
:103970008091F0059091F105019621F481E394E0A6
:103980000E9431126091F6057091F70586E09AE089
:103990000E949A0F9093EF058093EE05019721F412
:1039A0008FE394E00E9431128091EE059091EF0533
:1039B000019621F488E494E00E9431126091F605AA
:1039C0007091F70589EF99E00E949A0F9093ED05A9
:1039D0008093EC05019721F484E594E00E94311274
:1039E0008091EC059091ED05019621F48FE594E02E
:1039F0000E9431120091E8061091E906F8018081D9
:103A0000882309F4A7C30E942007C0909205D09094
:103A10009305E0909405F09095056C197D098E0949
:103A20009F09C0908E05D0908F05E0909005F09092
:103A30009105C616D706E806F90608F08BC30E9462
:103A400020074B015C018092920590929305A09211
:103A50009405B0929505780130E020E04AE0F80145
:103A6000D1908F0180ED8D0D8A3008F0A9C2429F60
:103A7000C001439F900D11242D2DDD0C330B2053DD
:103A80003109280F391F7F01EACF10928B05B9CE7B
:103A9000885C9A4FFC01808181340CF087538295B9
:103AA000807F285C3A4FF901928191340CF4B0C1C7
:103AB0009753890F4813BFCE80913805843209F09F
:103AC000BACE80913B05823509F0B5CE80913C0598
:103AD0008D3409F0B0CE80913D05833409F0ABCE32
:103AE000A0903F0590904005B09041056090420540
:103AF0007090430540904405A4E4B5E090E080E078
:103B0000ECE0F0E02D912C3209F084C10196883070
:103B1000910509F07FC1EF5FF0E0E85CFA4FC080EB
:103B2000D1808281082E000C990BC0971AE0189F53
:103B30007001199FF00C11248381E80EF11C87FDA0
:103B4000FA9420E3E21AF108048155804CE050E039
:103B500061E070E0C7010E941F36882309F46BCE34
:103B60008C2DCC0C990BC097189F9001199F300D8C
:103B70001124C9018D0D911DD7FC9A956C0190E31C
:103B8000C91AD1084FE150E061E070E0C6010E941F
:103B90001F36882309F44FCE8A2DAA0C990BC097A3
:103BA000189F9001199F300D1124F901E90DF11DA5
:103BB00097FCFA954F01F0E38F1A910847E150E026
:103BC00070E060E0C4010E941F36882309F433CE00
:103BD0008B2DBB0C990BC097189F5001199FB00CEF
:103BE0001124A60CB11C67FCBA9420E3A21AB108F8
:103BF0004BE350E070E060E0C5010E941F3688236F
:103C000009F419CE872D770C990BC097189F3001B6
:103C1000199F700C1124640C711C47FC7A9430E3DA
:103C2000631A71084BE350E070E060E0C3010E944A
:103C30001F36882309F4FFCD202F000F330B2053AC
:103C40003109129FC001139F900D11248C01005364
:103C5000184F050D111D57FC1A9500531109063E0A
:103C600087E01807C4F46982AA828B82CD82EE8233
:103C7000025B0F83CE0101960E94EF0886519B4D97
:103C8000AE014F5F5F4F0E94D3090F8110E00E54C9
:103C9000184FEE80CD8046EF57E062EE77E0C80126
:103CA0000E941F36882309F4C6CD8092200AA09274
:103CB000210A6092220AC092230AE092240A1093F9
:103CC000260A0093250A0E9420076B017C01C092FE
:103CD000280AD092290AE0922A0AF0922B0A0E941E
:103CE00020076C197D098E099F09693B7B4081057E
:103CF000910508F0A0CD80E192E00E945E118091D4
:103D0000200A0E9409128091210A0E9409128091C2
:103D1000220A0E9409128091250A9091260A18EE23
:103D2000C12E13E0D12EB6010E94BE387C01009155
:103D3000240A10E02091230A30E04091220A50E04A
:103D40006091210A70E08091200A90E00E94AF0902
:103D5000A0916902B0916A0220E13EE00E941B3905
:103D60000091C4061091C5062091C6063091C70681
:103D7000DC01CB01800F911FA21FB31F8093C406EB
:103D80009093C506A093C606B093C7060E94A908E3
:103D900048EC56E00E94D3090E94D30A4C010E94CD
:103DA000DD0A082F0E94E50AB82E0E94ED0AF82EBF
:103DB0000E94F50A182F0E94FD0A382FC401B6018F
:103DC0000E94BE38E82E2B2D4F2D612F832F0E948D
:103DD0004C0D8091070690910806A0910906B091BC
:103DE0000A068093030690930406A0930506B093F9
:103DF000060680E497E7ABE1B0E080933002909351
:103E00003102A0933202B09333021092020613CD16
:103E100090534FCE3196E335F10509F073CEE0E0D3
:103E20007BCE8091D1089091D20885974B9740F531
:103E3000E8ECF8E082E090E040E050E0BA01DC011C
:103E400011962091CC082A171B0609F00CF48EC09D
:103E500023853485275031092730310508F085C086
:103E600025853685235131092F30310508F470C07E
:103E7000258536852A5031092930310508F470C06E
:103E8000063011050CF45DCD28EC38E03EAF2DAFC7
:103E900043E0242E312C55ECC52E5DE9D52E5CE196
:103EA000E52E51E8F52E201631060CF078C0EDAD68
:103EB000FEAD65857685A184B28490E080E00E94A5
:103EC000AB362B013C01B50190E080E00E94AB369F
:103ED0004B015C012DEC3CEC4CE45FE30E940C37A1
:103EE0009B01AC01C301B2010E94A636F0E0E0E004
:103EF00087FD14C02DEC3CEC4CE45FE3C301B20140
:103F00000E940C379B01AC01C501B4010E94A6368A
:103F1000E2E0F0E087FD02C0E1E0F0E0A7019601F9
:103F200063E971E080E091E00E94A2386F01FF0F29
:103F3000EE08FF08C626D726E826F926FFEF2F1A37
:103F40003F0A2DAD3EAD2E5F3F4F3EAF2DAFABCF05
:103F5000440F551F661F771F4160029634966FCF3E
:103F6000440F551F661F771FF8CFCD010197959518
:103F700087959093FB058093FA050C972CF410928B
:103F8000FB051092FA057CCF4093F6055093F70598
:103F90006093F8057093F90584E090E0BFCCC0927F
:103FA000F605D092F705E092F805F092F90580E267
:103FB00090E09093FB058093FA058FEF9FEFAECCD6
:103FC0003093100620930F0660910B0670910C063B
:103FD00080910D0690910E062115310511F1032EE9
:103FE000000C440B550B0E94F43820938E0530933F
:103FF0008F054093900550939105EFE9ED0DE73063
:10400000B0F40E2E000CFF0B8827E65FFF4D8F4F9C
:104010000C9413399F23A1239323972399239B2344
:104020009D232091370230E050E040E0DCCF109239
:104030008D05F7018181833241F480918D058F5F79
:1040400080938D0587010E5F1F4FF80180818E32AE
:10405000F1F4C0908E05D0908F05E0909005F0901F
:104060009105C701B60122E030E040E050E00E9437
:10407000F438C20ED31EE41EF51EC0928E05D092F7
:104080008F05E0929005F09291050F5F1F4FF801A8
:10409000808180538A3008F056C380938C050F5F6F
:1040A0001F4FF80180818C3211F40F5F1F4FE09198
:1040B0008D05EE2309F44EC0C0908E05D0908F057B
:1040C000E0909005F090910580918C058450990BBB
:1040D0004CE0489F9001499F300D1124E20FF32FCF
:1040E000F11DEE0FFF1FE657FD4FB701A6018081BE
:1040F00091810E942C040E942007681979098A097D
:104100009B09C616D706E806F90620F50E94200787
:104110006093920570939305809394059093950511
:1041200080918107813009F413C3823009F416C3EA
:10413000811105C080916E008D7F80936E0060E0DC
:10414000809180070E94C2038AE292E00E945E1181
:1041500010E000E01093E9060093E8060E942007B3
:104160000091E8051091E9052091EA053091EB05F1
:10417000601B710B820B930B6630710581059105F5
:1041800060F180918107813009F4EEC2823009F438
:10419000EEC2811105C080916E008695817099F400
:1041A000809142028111E6C270E060E089E00E94E5
:1041B000F20570E060E086E00E94F20570E060E0E9
:1041C00083E00E94F2050E9420076093E805709347
:1041D000E9058093EA059093EB0580911106909193
:1041E0001206892B21F08091E7058111DBC18091B6
:1041F00013068111D7C18091AC0581110DC00E94B9
:1042000020076093A8057093A9058093AA05909351
:10421000AB0581E08093AC058091A00581110DC0B4
:104220000E94200760939C0570939D0580939E05D6
:1042300090939F0581E08093A0050E942007009144
:10424000A8051091A9052091AA053091AB05601B26
:10425000710B820B930B00910002109101022091CF
:10426000020230910302061717072807390708F0E2
:104270004DC00E9420076093A8057093A905809304
:10428000AA059093AB0580919A0590919B050097A4
:1042900009F0DCC281E090E0909312068093110651
:1042A00088E893E1A0E0B0E08093000290930102DF
:1042B000A0930202B093030280919A0590919B050E
:1042C0008230910581F4109212061092110640E698
:1042D0005AEE60E070E04093000250930102609358
:1042E0000202709303020196833091050CF0CEC256
:1042F00090939B0580939A058091E705882321F090
:1043000010921206109211061092E7050E942007E3
:104310000091A8051091A9052091AA053091AB053F
:10432000601B710B820B930B603D774081059105FB
:1043300008F07EC30E94200700919C0510919D0506
:1043400020919E0530919F05601B710B820B930B92
:10435000653671058105910508F424C10E94200786
:1043600060939C0570939D0580939E0590939F0597
:1043700080911106909112062091DF06222309F404
:104380008AC2892B89F5CE0149960E94D01881E016
:104390002091670230916802232B09F480E00E948B
:1043A000450EAB01BC01CE0101960E944D19AE0134
:1043B000475E5F4FBE016F5F7F4FCE014F960E94F9
:1043C0002116BE01615E7F4F85EE99E00E947D144B
:1043D000CE014F960E94C814CE0101960E94C814C7
:1043E000CE0149960E94C814809111069091120640
:1043F000019709F062C00E94D30A68EE73E00E9440
:10440000BE38BC01CE018B960E9430170E94DD0A97
:10441000BC01CE0185960E9430170E94E50ABC01BE
:10442000CE0149960E943017BE01675E7F4FCE01D4
:104430004F960E94BB15BE016B5D7F4FCE014F961C
:104440000E943A15BE01655D7F4F0E943A15BC017E
:10445000CE01C1960E94BB15CE0101960E94D018D4
:10446000AE014F5C5F4FBE016F5F7F4FCE01C796BD
:104470000E942116BE01695C7F4F85EE99E00E9483
:104480007D14CE01C7960E94C814CE0101960E94E9
:10449000C814CE01C1960E94C814CE014F960E9446
:1044A000C814CE0149960E94C814CE0185960E9478
:1044B000C814CE018B960E94C81480911106909169
:1044C0001206049709F06EC081E0209167023091D6
:1044D0006802232B09F480E00E94450EAB01BC0169
:1044E000CE01C1960E944D190E94D30A68EE73E076
:1044F0000E94BE38BC01CE0185960E9430170E94F2
:10450000DD0ABC01CE014F960E9430170E94E50AD9
:10451000BC01CE0101960E943017BE016F5F7F4F34
:10452000CE0149960E94BB15BE01615E7F4FCE0150
:1045300049960E943A15BE016B5D7F4F0E943A1565
:10454000BC01CE018B960E94BB15AE014F5C5F4F44
:10455000BE01655D7F4FCE01C7960E942116BE0148
:10456000695C7F4F85EE99E00E947D14CE01C7966D
:104570000E94C814CE018B960E94C814CE014996A1
:104580000E94C814CE0101960E94C814CE014F9615
:104590000E94C814CE0185960E94C814CE01C1960F
:1045A0000E94C8140E944A128CEC99E00E94050BEC
:1045B00083EB99E00E94050B8AE999E00E94050BC4
:1045C00080911306811137C210926F068091CC0939
:1045D0009091CD09181619063CF08091F005909144
:1045E000F105019709F012C381E08093E70510926D
:1045F000E9061092E80644E650E060E070E088EEDC
:1046000093E00E942C040E9420076093140670938C
:1046100015068093160690931706809111069091C7
:10462000120601968630910509F432C29093120663
:104630008093110620911106309112068901000F16
:10464000111FF801E85FFD4F808180936F06D9014B
:104650001197FD01EE0FFF1FE85CFC4F6081718137
:104660006115710509F4C3C2AB0141505109FA014A
:10467000EE0FFF1FE05FFC4F0190F081E02DAE17C1
:10468000BF0709F0B4C26230710509F006C288E1C3
:10469000E2E7F2E0DE01119601900D928A95E1F7D2
:1046A00080915B0290915C0283709927892B21F4A1
:1046B0008DE190E09C838B838091590290915A0206
:1046C0000197880F991FE1E0F0E0EC0FFD1F8E0FBE
:1046D0009F1F2091570230915802FC0180819181E7
:1046E000821793070CF0D9C18AE090E090931206EC
:1046F00080931106EE960FB6F894DEBF0FBECDBFC5
:10470000DF91CF911F910F91FF90EF90DF90CF90AD
:10471000BF90AF909F908F907F906F905F904F90E1
:104720003F902F90089581E080938D0582CC83E0A7
:10473000FBCF85E0F9CF86E0F7CF88E0F5CF8AE0C0
:10474000F3CF8CE0F1CF8091360280938C05A9CC19
:1047500080916F008D7F80936F00F1CC809170000D
:104760008D7F80937000EBCC80916F0016CD80918F
:10477000700013CD8091F806811125CD0091980528
:1047800010919905F801EE0FFF1FE00FF11FDF01F7
:10479000AA0FBB1FA451BD4F8D919C916091060241
:1047A00070910702680F791F7093070260930602E9
:1047B000DF01AA0FBB1FA251BD4FCD90DC908091AD
:1047C000DD059091DE05C80ED91ED092DE05C0929F
:1047D000DD05EE0FFF1FE051FD4FE080F18080917D
:1047E000DB059091DC05E80EF91EF092DC05E09205
:1047F000DB0589E00E94F205B60186E00E94F20521
:10480000B70183E00E94F20580919605909197058B
:10481000019690939705809396058F3F910551F4EB
:104820000F5F1F4F109399050093980510929705FD
:1048300010929605809198059091990506970CF431
:10484000C2CC1092990510929805BDCC019709F041
:1048500033CD84E090E0909312068093110688E8AF
:1048600093E1A0E0B0E08093000290930102A09356
:104870000202B09303028091DF068111ACC682E090
:1048800090E090939B0580939A0516CD10929B051E
:1048900010929A0531CD892B09F062C0CE01C196E4
:1048A0000E94D0180E94D30A68EE73E00E94BE38BE
:1048B000BC01CE0185960E9430170E94DD0ABC0122
:1048C000CE014F960E9430170E94E50ABC01CE012E
:1048D00001960E943017BE016F5F7F4FCE0149964F
:1048E0000E94BB15BE01615E7F4FCE0149960E94BA
:1048F0003A15BE016B5D7F4F0E943A15BC01CE0197
:104900008B960E94BB15AE014F5C5F4FBE01655D8B
:104910007F4FCE01C7960E942116BE01695C7F4F72
:1049200085EE99E00E947D14CE01C7960E94C814BE
:10493000CE018B960E94C814CE0149960E94C814DD
:10494000CE0101960E94C814CE014F960E94C81451
:10495000CE0185960E94C814CE01C1960E94C8144B
:104960008091110690911206019709F01BCE0E94CA
:10497000D30A68EE73E00E94BE38BC01CE018B966C
:104980000E9430170E94DD0ABC01CE0185960E946C
:1049900030170E94E50ABC01CE0149960E943017EB
:1049A000BE01675E7F4FCE014F960E94BB15BE01D0
:1049B0006B5D7F4FCE014F960E943A15BE01655D3B
:1049C0007F4F0E943A15BC01CE01C1960E94BB15D3
:1049D000CE0101960E94D018AE014F5C5F4FBE0120
:1049E0006F5F7F4FCE01C7960E942116BE01695CA2
:1049F0007F4F85EE99E00E947D14CE01C7960E94FC
:104A0000C814CE0101960E94C814CE01C1960E941E
:104A1000C814CE014F960E94C814CE0149960E9438
:104A2000C814CE0185960E94C814CE018B96B8CDCD
:104A300010922A06B7CD0E9420070091140610910B
:104A400015062091160630911706601B710B820B1C
:104A5000930B61367A4E8105910508F4B7CD10921B
:104A60001306E0911106F0911206EE0FFF1FE05AB7
:104A7000FC4F808191819093120680931106880FDC
:104A8000991FFC01E85FFD4F808180936F069ECDEA
:104A90001092120610921106CDCD1092130650936B
:104AA000120640931106452BB9F40E94D30A7C01EB
:104AB0000E94DD0A8C010E94E50A40915302509148
:104AC000540260915102709152029C0180914F02F8
:104AD000909150020E94AF098091110690911206A8
:104AE000019719F5E0905B02F0905C02F0E3EF1A99
:104AF000F8EFFF0A0091590210915A028090570274
:104B0000909058020E94ED0A5C010E94F50A6C0127
:104B10000E94FD0A9401A501B6010E94AF096091AF
:104B200055028DE090E00E94571B809111069091F4
:104B300012060297C1F460915D0282E090E00E944B
:104B4000571B60915F0283E090E00E94571B6091C9
:104B5000610284E090E00E94571B6091630286E04E
:104B600090E00E94571B80911106909112060397C6
:104B700031F46091650281E090E00E94571B8091C2
:104B8000110690911206049731F4609167028BE050
:104B900090E00E94571B8091110690911206059794
:104BA00039F460916902645F8CE090E00E94571BC9
:104BB0000E94D30A5C010E94DD0A082F0E94E50AC8
:104BC000D82E0E94ED0AF82E0E94F50A182F0E9496
:104BD000FD0A382FC50168EE73E00E94BE38E82E4A
:104BE0002D2D4F2D612F832F0E944C0D83CD23310E
:104BF000310561F0295031092230310538F00E9429
:104C0000DD16F801ED5BFD4F918380838091CC0927
:104C10009091CD0997FD07C08091F0059091F10525
:104C2000019609F0F3C044E650E060E070E088EEE1
:104C300093E00E942C048091130681114DC00091D5
:104C40001106109112060E942007609314067093BB
:104C500015068093160690931706012BE9F50E941E
:104C6000ED0ABC01CE0185960E9430170E94F50A1C
:104C7000BC01CE014F960E9430170E94FD0ABC0174
:104C8000CE0101960E943017BE016F5F7F4FCE01AB
:104C900049960E94BB15BE01615E7F4FCE014996C9
:104CA0000E943A15BE016B5D7F4F0E943A15BC0110
:104CB00085EE99E00E94A415CE0149960E94C81481
:104CC000CE0101960E94C814CE014F960E94C814CE
:104CD000CE0185960E94C81480911106909112060B
:104CE000019709F05AC00E94E50A909358028093F8
:104CF00057020E94DD0A90935A02809359020E9443
:104D0000D30A68EE73E00E94BE38BC0190935C0247
:104D100080935B028091550290915602892B09F095
:104D20009BC1CE0185960E94301760915902709107
:104D30005A02CE014F960E9430176091570270912F
:104D40005802CE0101960E943017BE016F5F7F4F5F
:104D5000CE0149960E94BB15BE01615E7F4FCE0118
:104D600049960E943A15BE016B5D7F4F0E943A152D
:104D7000BC0185EE99E00E94A415CE0149960E94DF
:104D8000C814CE0101960E94C814CE014F960E940D
:104D9000C814CE0185960E94C814E0911106F091C6
:104DA0001206EE0FFF1FE05AFC4F20813181309335
:104DB0001206209311062D30310549F481E090E070
:104DC000909364028093630280E880935F068091F1
:104DD000130691E08927809313068901000F111FA4
:104DE000F801E85FFD4F808180936F06A901425171
:104DF00051094230510550F02930310539F00E94F7
:104E0000DD16F801ED5BFD4F918380838091B3093E
:104E10009091B409009709F030C18091EE0590910E
:104E2000EF050197E1F481E08093E7051092E90630
:104E30001092E80644E650E060E070E088EE93E00F
:104E40000E942C040E947C1880911306811107C0D7
:104E50001092F80660E087E090E00E94571B809176
:104E6000E5059091E605019609F010C18091B5091C
:104E7000882309F40BC110927106809113068823D0
:104E8000F9F00E9420070091E1051091E2052091C0
:104E9000E3053091E405601B710B820B930B6739BE
:104EA00071058105910560F00E9420076093E1057E
:104EB0007093E2058093E3059093E4050E947C18CB
:104EC00080919A0990919B09009709F0E3C0809125
:104ED000EC059091ED05019771F511E01093E70550
:104EE0001092E9061092E80644E650E060E070E0B7
:104EF00088EE93E00E942C040E941D1880911306F6
:104F0000811119C01093F80661E087E090E00E94DB
:104F1000571B6091060288E090E00E94571B609149
:104F2000DD0589E090E00E94571B6091DB058AE077
:104F300090E00E94571B8091DF059091E00501965B
:104F400009F0B1C080919C09882309F4ACC080911C
:104F5000130610927006882321F10E942007009109
:104F6000D7051091D8052091D9053091DA05601B3D
:104F7000710B820B930B673971058105910508F45C
:104F800049C00E9420076093D7057093D80580938D
:104F9000D9059093DA050E941D188091130681119E
:104FA00039C08091B3099091B40997FD06C08091F2
:104FB000EE059091EF05019691F444E650E060E033
:104FC00070E088EE93E00E942C0481E0809342021E
:104FD00061E090E080E00E94571B0E945B1B809183
:104FE0009A0990919B0997FD06C08091EC059091DC
:104FF000ED05019679F444E650E060E070E088EE5B
:1050000093E00E942C041092420260E090E080E065
:105010000E94571BE0911106F0911206E431F10550
:1050200008F068CB8827E85EF74D8F4F0C94133952
:10503000572888288529CD29F8293C2A7A237A23DC
:105040007A236B2A932A932A932A7A237A237A2320
:105050007A237A23F8293C2ACE0185960E943017BC
:105060006091570270915802CE014F960E943017FE
:105070006091590270915A0264CE9093E605809334
:10508000E505181619060CF4CECEC7CE81E0809344
:10509000710616CF9093E0058093DF051816190668
:1050A0000CF41BCF14CF81E08093700676CF8091F3
:1050B0002A0681111EC00E94ED0A2091040230913F
:1050C000050282179307E9F00E94ED0A909305020A
:1050D00080930402CE0101960E94D018BE016F5F3A
:1050E0007F4F85EE99E00E947D14CE0101960E94CB
:1050F000C8140E94ED0A80FD76C180EC80935F06A3
:1051000074C165EE79E0CE0101960E94BB15E6CF31
:1051100080912A068111E2C08091CF05811111C0D2
:105120000E94200767517C4F8F4F9F4F6093CB05A4
:105130007093CC058093CD059093CE0581E080934C
:10514000CF058091C305811144C00E94D30A68EE47
:1051500073E00E94BE38BC01CE0101960E94301758
:105160000E94DD0ABC01CE0149960E9430170E94C0
:10517000E50ABC01CE0185960E943017BE016B5D29
:105180007F4FCE014F960E94BB15BE01675E7F4FD9
:10519000CE014F960E943A15BE016F5F7F4F0E946D
:1051A0003A15BC018DEB95E00E94BB1581E0809320
:1051B000C305CE014F960E94C814CE0185960E9469
:1051C000C814CE0149960E94C814CE0101960E94CF
:1051D000C81400915502109156028091B5058111B5
:1051E00005C00093B40581E08093B5050E942007B7
:1051F000C090CB05D090CC05E090CD05F090CE05C9
:105200006C197D098E099F09693E734081059105DE
:1052100030F48091B4058017110609F44EC00E9445
:1052200020076093CB057093CC058093CD059093B8
:10523000CE05012B09F054C00E94D30A68EE73E03A
:105240000E94BE38BC01CE0101960E9430170E9418
:10525000DD0ABC01CE0149960E9430170E94E50A82
:10526000BC01CE0185960E943017BE016B5D7F4F59
:10527000CE014F960E94BB15BE01675E7F4FCE01E7
:105280004F960E943A15BE016F5F7F4F0E943A15FC
:10529000BC018DEB95E00E94A415CE014F960E94B3
:1052A000C814CE0185960E94C814CE0149960E946A
:1052B000C814CE0101960E94C8146DEB75E0CE01B2
:1052C00001960E94BB15BE016F5F7F4F85EE99E08E
:1052D0000E947D14CE0101960E94C81480E40ECF76
:1052E0000E94D30A68EE73E00E94BE38BC01CE0172
:1052F00001960E9430170E94E50ABC01CE01499632
:105300000E9430170E94DD0AABCF6091610270915C
:105310006202CE0185960E94301760915F02709103
:105320006002CE014F960E94301760915D0270912D
:105330005E02CE0101960E943017BE016F5F7F4F63
:10534000CE0149960E94BB15BE01615E7F4FCE0122
:1053500049960E943A15BE016B5D7F4F0E943A1537
:10536000BC0185EE99E00E94A415CE0149960E94E9
:10537000C814CE0101960E94C814CE014F960E9417
:10538000C814CE0185960E94C81480916302909142
:105390006402019741F580E8B1CE60916502709199
:1053A0006602CE0149960E94781563E274E0CE0150
:1053B00001960E94C415BE01675E7F4FCE01019623
:1053C0000E943A1563E274E00E942415BC0185EE48
:1053D00099E00E94A415CE0101960E94C814CE0146
:1053E00049960E94C81410925F060E946C1182C9EF
:1053F00080912A06811124C081E0209167023091BA
:105400006802232B09F480E00E94450EAB01BC0129
:10541000CE0101960E944D19BE016F5F7F4F85EE50
:1054200099E00E947D14CE0101960E94C8148091DB
:10543000670290916802892BD1F480E480935F0623
:1054400081E02091670230916802232B09F480E00B
:105450000E94450E10915F0620E030E0A9010E94F5
:10546000A63687FF07C0106810935F0643C91092E5
:105470005F06E6CF1F77F8CF6091690270916A02EC
:10548000CE0101960E943017BE016F5F7F4FCE01A3
:1054900049960E94BB1561E274E0CE0149960E94D4
:1054A0002415BC0185EE99E00E94A415CE01499611
:1054B0000E94C814CE0101960E94C814809169020E
:1054C00090916A0297FD03C010925F0613C980E8AD
:1054D00080935F060FC98091550290915602892BE7
:1054E00099F46DE674E085EE99E00E946E1583E014
:1054F00090E090931D0280931C028CE090E09093CA
:105500001F0280931E02F6C864E774E085EE99E0FE
:105510000E946E158CE090E090931D0280931C0217
:1055200083E090E0ECCF60915B0270915C0280912F
:10553000550290915602892BE9F5CE0185960E947D
:1055400030176091590270915A02CE014F960E9415
:1055500030176091570270915802CE0101960E9457
:105560003017BE016F5F7F4FCE0149960E94BB1579
:10557000BE01615E7F4FCE0149960E943A15BE0181
:105580006B5D7F4F0E943A15BC0185EE99E00E9449
:10559000A415CE0149960E94C814CE0101960E941E
:1055A000C814CE014F960E94C814CE0185960E9461
:1055B000C814A0C8CE0185960E943017609157028A
:1055C00070915802CE014F960E9430176091590297
:1055D00070915A02C2CF81E090E00C9473211F9227
:1055E0000F920FB60F9211242F933F938F939F9397
:1055F000AF93BF938091FA069091FB06A091FC06B1
:10560000B091FD063091F90623E0230F2D3758F5B0
:105610000196A11DB11D2093F9068093FA0690937F
:10562000FB06A093FC06B093FD068091FE069091C8
:10563000FF06A0910007B09101070196A11DB11DC1
:105640008093FE069093FF06A0930007B093010796
:10565000BF91AF919F918F913F912F910F900FBE6E
:105660000F901F90189526E8230F0296A11DB11DDB
:10567000D2CF1F920F920FB60F9211240BB60F923A
:105680002F933F934F935F936F937F938F939F934A
:10569000AF93BF93EF93FF9382E897E00E94AD072B
:1056A000FF91EF91BF91AF919F918F917F916F91FA
:1056B0005F914F913F912F910F900BBE0F900FBEB6
:1056C0000F901F9018951F920F920FB60F921124F2
:1056D0000BB60F922F938F939F93EF93FF93E091CD
:1056E0009207F09193078081E0919807F0919907D4
:1056F00082FD1DC0908180919B078F5F8F732091E9
:105700009C07821741F0E0919B07F0E0EE57F84FBD
:10571000958F80939B07FF91EF919F918F912F9190
:105720000F900BBE0F900FBE0F901F9018958081A9
:10573000F2CF1F920F920FB60F9211240BB60F9259
:105740002F933F934F935F936F937F938F939F9389
:10575000AF93BF93EF93FF938FE198E00E94AD0763
:10576000FF91EF91BF91AF919F918F917F916F9139
:105770005F914F913F912F910F900BBE0F900FBEF5
:105780000F901F9018951F920F920FB60F92112431
:105790000BB60F922F938F939F93EF93FF93E0910C
:1057A0002F08F09130088081E0913508F09136089B
:1057B00082FD1DC09081809138088F5F8F7320918A
:1057C0003908821741F0E0913808F0E0E15EF74FC8
:1057D000958F80933808FF91EF919F918F912F9132
:1057E0000F900BBE0F900FBE0F901F9018958081E9
:1057F000F2CF1F920F920FB60F9211240BB60F9299
:105800002F933F934F935F936F937F938F939F93C8
:10581000AF93BF93EF93FF938091C9080E949903C0
:105820002091CD083091CE082F5F3F4F3093CE08A6
:105830002093CD089091CC08953618F096E090937F
:10584000C8089091C808943009F466C0B8F4923042
:10585000F1F0933009F444C09091CB08992309F4F6
:105860006BC081117CC08091CA08882309F463C091
:105870008091CA0861E00E94C2035EC0953009F4BD
:1058800057C0963049F791E0909399094FC0811124
:10589000E3CF2091CD083091CE082436310528F48D
:1058A0001092CE081092CD08D7CF1092990910927D
:1058B000CC08E091CC0891E09E0F9093CC08F0E0EA
:1058C0002091CD083091CE08EE0FFF1FE853F74F1F
:1058D000308727831092CE081092CD0893E019C02C
:1058E000813009F0B9CFE091CC0891E09E0F909300
:1058F000CC08F0E02091CD083091CE08EE0FFF1FCC
:10590000E853F74F308727831092CE081092CD08C6
:1059100094E09093C808A0CF882359F22091CD0835
:105920003091CE082536310508F496CF95E0F1CFB9
:10593000811192CFB5CF2F9AFF91EF91BF91AF9187
:105940009F918F917F916F915F914F913F912F9197
:105950000F900BBE0F900FBE0F901F901895809167
:10596000CA08882321F08091CA0860E084CF2F986C
:10597000E3CF1F920F920FB60F9211240BB60F9226
:105980002F933F938F939F93AF93BF93EF93FF9387
:105990008091740790917507A0917607B091770771
:1059A0000097A105B10541F13091D306E091D406ED
:1059B000F091D506208123272083181619061A0690
:1059C0001B061CF40197A109B109809374079093F9
:1059D0007507A0937607B0937707FF91EF91BF917A
:1059E000AF919F918F913F912F910F900BBE0F9090
:1059F0000FBE0F901F901895209170002D7F20935F
:105A000070002091D306E091D406F091D506308144
:105A1000209523232083D9CF1F920F920FB60F9288
:105A200011240BB60F928F939F93AF93BF93EF9375
:105A3000FF938091780790917907A0917A07B091B0
:105A40007B07892B8A2B8B2BB1F19091D606E091A5
:105A5000D706F091D80680818927808380917807C6
:105A600090917907A0917A07B0917B0718161906D3
:105A70001A061B069CF48091780790917907A091F3
:105A80007A07B0917B070197A109B1098093780744
:105A900090937907A0937A07B0937B07FF91EF91DA
:105AA000BF91AF919F918F910F900BBE0F900FBE42
:105AB0000F901F90189580916F008D7F80936F00DD
:105AC0008091D606E091D706F091D8069081809516
:105AD00089238083E3CF1F920F920FB60F92112478
