:100000000C94BD000C94E5000C94E5000C94E50004
:100010000C94E5000C94E5000C94E5000C9430255C
:100020000C94E5000C94E5000C94E5000C947F25FD
:100030000C94E5000C94E5000C94DA250C94E50092
:100040000C948E240C94E5000C94FE240C94D8247B
:100050000C94E5000C94E5000C94E5000C94E5008C
:100060000C9435260C94E500496E636F72726563DB
:100070007420536F6E6720466F726D617421005754
:10008000616B652075702C204E656F2100020100A8
:100090004661756C747920525443210053746F701B
:1000A00020546573740054656D702E2073656E73F3
:1000B0006F72206E6F7420666F756E642E005374BD
:1000C0006172742054657374004E4353333134208D
:1000D000666F7220485720322E78204856353132CC
:1000E00032206F7220485635323232004669726DC6
:1000F000776172652076657273696F6E3A2000577A
:1001000061726E696E67212052544320444F4E271E
:100110005420524553504F4E44210000000000240B
:100120000027002A0000000000250028002B000006
:1001300000000800020100000304070000000000A6
:100140000000000000000023002600290004040431
:100150000404040404020202020202030303030370
:10016000030102040810204080010204081020014D
:100170000204081020008D27AD2D11241FBECFEFE3
:10018000D8E0DEBFCDBF27E0ACE1B4E001C01D92F6
:10019000A631B207E1F714E0A0E0B1E0E6EBF5E646
:1001A00002C005900D92AC31B107D9F710E0CCEB4D
:1001B000D0E004C02197FE010E94BA30CB3BD107AA
:1001C000C9F70E9418280C94CE320C9400008CBD04
:1001D0009DBD08958091FE06E091FF06F091000715
:1001E000F8949181982B91832281382F3095232385
:1001F0002283A7E0B0E01197F1F7918193239183D7
:10020000A3E2B0E01197F1F790817894EFECF0E081
:100210003197F1F7982381E009F480E008959091F7
:10022000FE06E091FF06F0910007292F209580FF40
:1002300014C0F8948281822382838181892B8183F7
:10024000A3E2B0E01197F1F78281982B9283789422
:1002500087ED90E00197F1F70895F8948281822369
:1002600082838181892B8183AFEFB0E01197F1F711
:100270008281982B928378948FE090E0EBCF0F935C
:100280001F93CF93DF93082FC8E0D0E011E081E007
:10029000902F912309F480E00E940F01110F219704
:1002A000B1F7F894E091FF06F091000791818091F9
:1002B000FE06809598239183E091FF06F091000758
:1002C0009281892382837894DF91CF911F910F913E
:1002D00008958091FE06E091FF06F0910007F894E2
:1002E0009181282F20959223918378943DE743E0D4
:1002F00050E0315029F1DA011197F1F790819823FC
:10030000C1F3F8949281922392839181982B9183E7
:100310007894ABE7B7E01197F1F7F89491819223C5
:100320009183A3E1B1E01197F1F79081982381E0E7
:1003300009F080E07894E3E6F6E03197F1F708956C
:1003400080E0089591E09093D2058093F405109297
:10035000D3051092F5050895833081F028F481309B
:1003600099F08230A9F008958730A9F08830C9F05B
:100370008430B1F4809180008F7D03C08091800033
:100380008F7780938000089584B58F7784BD08951A
:1003900084B58F7DFBCF8091B0008F778093B000C4
:1003A00008958091B0008F7DF9CFCF93DF93282FF0
:1003B00030E0F901E15DFE4F8491F901EF59FE4F04
:1003C000D491F901E35BFE4FC491CC23A1F08111DC
:1003D0000E94AC01EC2FF0E0EE0FFF1FED5BFE4F33
:1003E000A591B491EC91ED2381E090E009F480E0D7
:1003F000DF91CF91089580E090E0FACF1F93CF93E3
:10040000DF93282F30E0F901E15DFE4F8491F9017F
:10041000EF59FE4FD491F901E35BFE4FC491CC2319
:10042000A9F0162F81110E94AC01EC2FF0E0EE0F25
:10043000FF1FEB5DFE4FA591B4918FB7F894EC913F
:10044000111108C0D095DE23DC938FBFDF91CF91CF
:100450001F910895DE2BF8CFCF93DF9390E0FC013E
:10046000EF59FE4F2491835B9E4FFC0184918823BA
:10047000C9F090E0880F991FFC01E55EFE4FA59141
:10048000B491FC01EB5DFE4FC591D49161110DC09B
:100490009FB7F8948C91209582238C938881282390
:1004A00028839FBFDF91CF910895623051F49FB7A9
:1004B000F8943C91822F809583238C93E8812E2B96
:1004C000EFCF8FB7F894EC912E2B2C938FBFEACF00
:1004D0004F925F926F927F928F929F92AF92BF9254
:1004E000CF92DF92EF92FF920F931F93CF93DF9300
:1004F00000D000D01F92CDB7DEB72091030627FDB4
:100500002CC149835A836B837C838C0161E0809189
:1005100002060E942C02809103068D834801B12CB3
:10052000A12C8D7F09F031C160E072E18AE790E093
:10053000A50198010E949B3029013A017A016901C5
:1005400091E0C91AD108E108F108AFEFCA16D10449
:10055000E104F10409F00CF4C7C060E472E48FE038
:1005600090E0A50198010E949B3069017A01B1E0F9
:10057000CB1AD108E108F1088D81823009F06AC0F8
:1005800082E09FEFC916D104E104F10409F00CF4F4
:100590005EC160E970ED83E090E0A50198010E94E2
:1005A0009B3069017A01A1E0CA1AD108E108F1087B
:1005B00083E0BFEFCB16D104E104F10409F00CF4A1
:1005C00046C168E478EE81E090E0A50198010E94C0
:1005D0009B3069017A0181E0C81AD108E108F1086D
:1005E00084E09FEFC916D104E104F10409F00CF492
:1005F0002EC164E274EF80E090E0A50194010E94B6
:100600009B3069017A01B1E0CB1AD108E108F10809
:1006100085E09FEFC916D104E104F10409F008F464
:1006200016C162E17AE780E090E0A50194010E94A2
:100630009B3069017A01B1E0CB1AD108E108F108D9
:100640008FEFC816D104E104F10411F008F0F0C0F6
:1006500086E0FDC08FEFC816D104E104F10409F073
:100660000CF491C068E478EE81E090E0A501980177
:100670000E949B3069017A0191E0C91AD108E10812
:10068000F108AD8184E0A111C4CF83E0AFEFCA16B9
:10069000D104E104F10461F15CF162E17AE780E008
:1006A00090E0A50194010E949B3069017A0181E0EC
:1006B000C81AD108E108F10884E09FEFC916D104F7
:1006C000E104F104A9F0A0F0730162019AE0F5944D
:1006D000E794D794C7949A95D1F7A1E0CA1AD108A4
:1006E000E108F10885E004C081E0AD81A111AFC04F
:1006F00095B5987F892B85BD89819A81AB81BC8115
:100700002FEF3FEFA901892B8A2B8B2B79F0D80192
:10071000AA0FBB1F29813A814B815C810E94602F07
:1007200028EE33E040E050E00E9479309D81913026
:1007300009F45CC0923009F46BC091110EC0C7BCC3
:100740002093FE053093FF05409300065093010669
:1007500080916E00826080936E000F900F900F90DA
:100760000F900F90DF91CF911F910F91FF90EF901D
:10077000DF90CF90BF90AF909F908F907F906F90C1
:100780005F904F90089582E0B0CF60E072E18AE719
:1007900090E0A50198010E949B3069017A01B1E0C7
:1007A000CB1AD108E108F10891E0C114D10481E02D
:1007B000E806F10484F068E478EE81E090E0A501B9
:1007C00098010E949B3069017A0191E0C91AD10811
:1007D000E108F10893E0AD81A13009F08DCF80915F
:1007E0008100887F892B8093810086CFD0928900F9
:1007F000C09288002093FA053093FB054093FC05D6
:100800005093FD0580916F00826080936F00A5CFAB
:10081000C092B3002093F6053093F7054093F80596
:100820005093F9058091700082608093700095CF9D
:10083000730162018AE0F594E794D794C7948A958E
:10084000D1F7B1E0CB1AD108E108F10887E0909127
:10085000B100987F892B8093B1004ECF1F93CF9327
:10086000DF93182FEB0161E00E942C02209739F4EE
:1008700060E0812FDF91CF911F910C94FE01CF3F5B
:10088000D10511F461E0F5CFE12FF0E0E15DFE4F1D
:10089000E491E33031F140F4E130B1F0E230E1F0E5
:1008A000C038D1057CF7E4CFE73029F1E83059F1C1
:1008B000E430B1F780918000806280938000D09313
:1008C0008B00C0938A0004C084B5806884BDC7BD16
:1008D000DF91CF911F91089584B5806284BDC8BD1A
:1008E000F7CF80918000806880938000D09389004A
:1008F000C0938800EDCF8091B00080688093B000F5
:10090000C093B300E5CF8091B00080628093B000C7
:10091000C093B400DDCF3FB7F894809180059091EB
:100920008105A0918205B091830526B5A89B05C0DD
:100930002F3F19F00196A11DB11D3FBFBA2FA92F5E
:10094000982F8827BC01CD01620F711D811D911D5B
:1009500042E0660F771F881F991F4A95D1F70895C7
:100960008F929F92AF92BF92CF92DF92EF92FF92BF
:100970004B015C010E948B046B017C010E948B0483
:100980006C197D098E099F09683E734081059105A8
:10099000A8F321E0821A9108A108B10888EEC80ED8
:1009A00083E0D81EE11CF11C81149104A104B10460
:1009B00029F7FF90EF90DF90CF90BF90AF909F907E
:1009C0008F9008952FB7F89460917C0570917D0504
:1009D00080917E0590917F052FBF08950895089519
:1009E0000895AF92BF92CF92DF92EF92FF920F9352
:1009F0001F93CF93DF936C017B018B01040F151FB5
:100A0000EB015E01AE18BF08C017D10759F069911C
:100A1000D601ED91FC910190F081E02DC601099580
:100A2000892B79F7C501DF91CF911F910F91FF902D
:100A3000EF90DF90CF90BF90AF90089542E050E0EC
:100A400062E473E084E096E00C94F104CF93DF93CA
:100A5000FC01448155816081718184E096E00E94AF
:100A6000F104EC010E941E058C0F9D1FDF91CF91B8
:100A70000895FC01538D448D252F30E0842F90E0A4
:100A8000821B930B541710F0CF9608950197089589
:100A9000FC01918D828D981761F0A28DAE0FBF2F52
:100AA000B11D5D968C91928D9F5F9F73928F90E0A8
:100AB00008958FEF9FEF0895FC01918D828D981717
:100AC00031F0828DE80FF11D858D90E008958FEF54
:100AD0009FEF0895FC01918D228D892F90E0805C1D
:100AE0009F4F821B91098F739927089584E096E0A8
:100AF0000E946A0521E0892B09F420E0822F0895E5
:100B000080E090E0892B29F00E94760581110C94F9
:100B100000000895FC01A48DA80FB92FB11DA35AA0
:100B2000BF4F2C91848D90E001968F739927848F0D
:100B3000A689B7892C93A089B1898C918370806430
:100B40008C93938D848D981306C00288F389E02DD1
:100B500080818F7D80830895EF92FF920F931F9382
:100B6000CF93DF93EC0181E0888F9B8D8C8D981360
:100B70001AC0E889F989808185FF15C09FB7F8946C
:100B8000EE89FF896083E889F989808183708064B8
:100B900080839FBF81E090E0DF91CF911F910F9103
:100BA000FF90EF900895F62E0B8D10E00F5F1F4F12
:100BB0000F731127E02E8C8D8E110CC00FB607FC21
:100BC000FACFE889F989808185FFF5CFCE010E94AF
:100BD0008A05F1CFEB8DEC0FFD2FF11DE35AFF4F8E
:100BE000F0829FB7F8940B8FEA89FB89808180623D
:100BF000CFCF0F931F93CF93DF938C01D0E0C0E052
:100C0000F801EC0FFD1F6491662341F084E096E04B
:100C10000E94AC05892B11F02196F2CFCE01DF9115
:100C2000CF911F910F910895CF93DF930E94F90503
:100C3000EC010E941E058C0F9D1FDF91CF9108953E
:100C4000CF93DF93EC01888D8823B9F0AA89BB8903
:100C5000E889F9898C9185FD03C0808186FD0DC0EE
:100C60000FB607FCF7CF8C9185FFF2CF808185FF0F
:100C7000EDCFCE010E948A05E9CFDF91CF91089593
:100C80006093460570934705809348059093490506
:100C9000645D7E4F8F4F9F4F609342057093430575
:100CA000809344059093450582E090E09093410540
:100CB000809340050E94E20460933C0570933D05DB
:100CC00080933E0590933F0508952F923F924F9257
:100CD0005F926F927F928F929F92AF92BF92CF92CC
:100CE000DF92EF92FF920F931F93CF93DF93382EF3
:100CF000962E842E222E84E6E816F1040CF459C0B8
:100D000092EBE91A97E0F90AE092500500934F053B
:100D100020924E0530924C0590924B0580924A05E8
:100D2000AE2DB0E020E833E341EE51E00E94602FA9
:100D30002B013C0122EB37E0FF24E4E6F0E0C0E9C0
:100D4000D1E0C901825B97408E159F05B4F19EE406
:100D5000E91A98EFF90AC70164E670E00E9465306D
:100D60006C01C70160E971E00E9465305C01C4EE6E
:100D7000D2E0E1E0F0E0112783E0E822FF24E01771
:100D8000F1070CF042C0E230F10591F5E114F104F5
:100D900079F5C114D10419F4A114B10449F580E81E
:100DA000480E8BE3581E86E2681E711C3196219610
:100DB000E6CF8EE1E80EF11CA7CFC9018370992719
:100DC000892B99F4C901BF010E946530892B31F448
:100DD000C901BE010E946530892B39F490E8490EA3
:100DE00091E5591E91E0691E711C2F5F3F4FA9CFFD
:100DF000A881B0E020E831E541E050E00E94602F9A
:100E0000460E571E681E791ED1CF292D30E0ACE367
:100E1000B0E00E94A22F6B017C01C80CD11CE11C28
:100E2000F11C232D30E0A0E1BEE00E94A22FC60EEF
:100E3000D71EE81EF91E822D8150990BDC0120E897
:100E400031E541E050E00E94C0306C0D7D1D8E1DEB
:100E50009F1D640D751D861D971DDF91CF911F91FC
:100E60000F91FF90EF90DF90CF90BF90AF909F9049
:100E70008F907F906F905F904F903F902F900C9449
:100E80004006CF92DF92EF92FF920F931F930E9442
:100E9000E2048B019C01C0903C05D0903D05E090A0
:100EA0003E05F0903F0560914605709147058091A1
:100EB0004805909149050C191D092E093F09083E66
:100EC000134021053105E0F0DC01CB010196A11DA5
:100ED000B11D8093460590934705A0934805B093B4
:100EE0004905B701A60148515C4F6F4F7F4F4093B2
:100EF0003C0550933D0560933E0570933F05C7CF79
:100F00001F910F91FF90EF90DF90CF9008954F9237
:100F10005F926F927F928F929F92AF92BF92CF9289
:100F2000DF92EF92FF920F931F93CF93DF934B01CA
:100F30005C018091380590913905A0913A05B091F6
:100F40003B0588159905AA05BB0509F4C6C08CE3C5
:100F5000C82ED12CE12CF12CC501A70196010E94CD
:100F6000793060934A05CA01B901A70196010E9430
:100F7000793060934B05C501B40120E13EE040E0CB
:100F800050E00E947930CA01B90128E130E040E028
:100F900050E00E94793060934C05C501B40120E80F
:100FA00031E541E050E00E94793069017A01CA01DF
:100FB000B9016C5F7F4F8F4F9F4F27E030E040E0DB
:100FC00050E00E9479306F5F60934D05412C512CA9
:100FD000320140E004E610E0C0E9D1E0242F30E027
:100FE0002E54384FF901E370FF273097F9F4C90107
:100FF000B8010E946530892B31F4C901BE010E94FD
:101000006530892B99F48EE691E0A0E0B0E0480EBF
:10101000591E6A1E7B1ED301C201AA27BB27C81610
:10102000D906EA06FB0638F04F5FD8CF8DE691E08F
:10103000A0E0B0E0ECCF40935005C90164E670E059
:101040000E946530EC01C90160E971E00E946530E1
:10105000309721F42097D9F40097C9F04DE651E07C
:1010600060E070E0441A550A660A770AC418D50889
:10107000E608F708A4EEB2E020E0213069F43097EA
:10108000E9F5209711F40097C9F54DE106C04EE649
:1010900051E060E070E0E6CF4C9150E070E060E03D
:1010A00031E0320FC416D506E606F70640F0C41A42
:1010B000D50AE60AF70A1196232F3C30F1F62F5F86
:1010C00020934F05C394C0924E05809238059092AC
:1010D0003905A0923A05B0923B05DF91CF911F915F
:1010E0000F91FF90EF90DF90CF90BF90AF909F90C7
:1010F0008F907F906F905F904F9008954CE1CDCF8F
:101100000E9441070E9487078091500590E08E540D
:10111000984F08950E9441070E94870780914F05CC
:1011200090E008950E9441070E94870780914E0534
:1011300090E008950E9441070E94870780914A0528
:1011400090E008950E9441070E94870780914B0517
:1011500090E008950E9441070E94870780914C0506
:1011600090E00895CF92DF92EF92FF92CF93DF93BA
:10117000EC010E94E2046B017C018F850E94D50185
:101180009C0181E02115310509F480E0898B888973
:10119000811105C091E0232B09F090E0998B2989FA
:1011A0008A89281721F0CD8ADE8AEF8AF88E8D8908
:1011B0009E89AF89B88DB701A601481B590B6A0BF0
:1011C0007B0BDB01CA01CB80DC80ED80FE80C81682
:1011D000D906EA06FB0664F43A81231749F02A830C
:1011E000222349F04B895C894F5F5F4F5C8B4B8BAF
:1011F0003A81311117C0CF80D884E984FA84C816A7
:10120000D906EA06FB0634F48B899C899983888386
:101210001C8A1B8A2A8BDF91CF91FF90EF90DF9081
:10122000CF900895CB84DC84ED84FE84C816D90663
:10123000EA06FB067CF78B899C899195819591093B
:10124000E5CF20911505260F3327331F21323105B5
:10125000ECF42091CC05FC0190E080E0243069F0B2
:1012600082E00895A09115052191AC014B505B4F90
:10127000A40FB52FB11D2C930196861798F380917A
:101280001505680F6093150580E0089581E00895C5
:101290001092CC0581E08093CB051092A60561E009
:1012A00082E10E94FE0161E083E10E94FE01E9EB20
:1012B000F0E080818E7F808380818D7F808388E4D1
:1012C0008093B80085E48093BC000895CF93DF93AA
:1012D00091E09093F4048823B9F0C091B800D091C4
:1012E000BA008091BC008A7B8093BC0060E082E100
:1012F0000E94FE0160E083E10E94FE010E94480915
:10130000D093BA00C093B800DF91CF910895CF92E7
:10131000DF92EF92FF920F931F93CF93DF93D091C1
:10132000F50581E0D13208F09CC0C091F4050E941F
:101330008B046B017C018091CC0581116CC082E033
:101340008093CC0581E08093CB058FEF8093CA0515
:101350001092C905D093C805A4EDB5E0E8EAF5E020
:1013600080E0D8138DC01092A7058091A705CC0FFF
:10137000C82BC093A7058091A605813009F084C0D1
:101380001092A6050E948B046B017C018091A70539
:101390008093BB008091CE059091CF05A091D005A0
:1013A000B091D105892B8A2B8B2BA1F00E948B0445
:1013B0000091CE051091CF052091D0053091D10537
:1013C0006C197D098E099F09061717072807390729
:1013D00008F442C08091BC0083FDD8CF85EC809397
:1013E000BC000E948B046B017C018091CC05823093
:1013F00009F44CC08091CA058F3F09F469C08091FF
:10140000CA05803209F466C08091CA05803309F4A8
:1014100063C084E026C08091CE059091CF05A09155
:10142000D005B091D105892B8A2B8B2B09F483CF62
:101430000E948B040091CE051091CF052091D0051C
:101440003091D1056C197D098E099F090617170780
:101450002807390708F06FCF8091CD050E946609F3
:1014600085E01092D3051092F5051092D205DF9118
:10147000CF911F910F91FF90EF90DF90CF90089543
:101480009D9191938F5F6DCF85EEA9CF8091CE0511
:101490009091CF05A091D005B091D105892B8A2BD1
:1014A0008B2B09F4A2CF0E948B040091CE051091E2
:1014B000CF052091D0053091D1056C197D098E0999
:1014C0009F09061717072807390708F08ECFC4CFE2
:1014D00080E0C7CF82E0C5CF83E0C3CF0895E0911D
:1014E000850580918405E81730F4F0E0EA57FA4F5B
:1014F000808190E008958FEF9FEF0895909185058A
:10150000809184052FEF3FEF981748F4E92FF0E022
:10151000EA57FA4F208130E09F5F90938505C9011B
:1015200008958091840590918505891B990B0895F4
:10153000CF92DF92EF92FF920F931F93CF93DF939F
:101540007C01CB018A012091D205222389F0EB0195
:101550006B01C40ED51ECC15DD0569F06991D7016C
:10156000ED91FC910190F081E02DC7010995F3CF39
:10157000642F0E942109C801DF91CF911F910F9123
:10158000FF90EF90DF90CF900895CF93DF931F925D
:10159000CDB7DEB769832091D2052223F9F02091DF
:1015A000F505203258F021E030E0FC01338322833E
:1015B00090E080E00F90DF91CF9108958091D30566
:1015C000E82FF0E0EC52FA4F998190838F5F80937F
:1015D000D3058093F50581E090E0ECCF61E0CE018A
:1015E00001960E942109F7CF682F81EA96E00C94BA
:1015F000C50A90E080E00895CF92DF92EF92FF92CB
:101600000F931F93CF93DF939091F30491110BC02D
:101610008FEF9FEFDF91CF911F910F91FF90EF9090
:10162000DF90CF9008959091F204992389F3082FC9
:10163000C091F104D0E08091E90481110DC00E94B5
:10164000E2046093E5047093E6048093E7049093CA
:10165000E80481E08093E9040E94E204C090E5047C
:10166000D090E604E090E704F090E8046C197D095E
:101670008E099F096D32714081059105B0F010917E
:10168000E4040E94E2046093E5047093E60480930E
:10169000E7049093E80491E091279093E404992360
:1016A00031F11092E3041092E2042091E2043091AF
:1016B000E304209530958091E104282326FF1CC087
:1016C00081E08093E00427FF1AC081E08093DF046B
:1016D0008091E404882309F49BCF02C0D595C79577
:1016E0000A95E2F7C0FF94CF80E09CE393CFD093BC
:1016F000E304C093E204D9CF1092E004E4CF109247
:10170000DF04E6CFEF92FF920F931F93CF93DF9307
:10171000182F8091B70481110DC00E94E2046093DC
:10172000B3047093B4048093B5049093B60481E03D
:101730008093B704C091B104D091B204C930D105EF
:1017400008F075C0FE01E955F44F0C94BA30B00BA7
:10175000BC0BC00BCE0BB00BBC0BF30BF50B060C8C
:101760000E9469012196CA30D10509F097C01092F4
:10177000B2041092B10428C08CEC0E943F01F2CF59
:1017800084E40E943F010E94E2046093B3047093DA
:10179000B4048093B5049093B604E4CF0E94E204AD
:1017A0000091B3041091B4042091B5043091B604B3
:1017B000601B710B820B930BC4E0D0E06E3E724055
:1017C0008105910508F06AC06091AD047091AE0486
:1017D0008091AF049091B004DF91CF911F910F9150
:1017E000FF90EF9008958EEBC8CF98E0E92EF12C92
:1017F00010E001E00E94EA008111102B000F81E04F
:10180000E81AF108B9F71093AB04ACCF88E0E82EE2
:10181000F12C10E001E00E94EA008111102B000F72
:1018200021E0E21AF108B9F71093AC049BCFC9305C
:10183000D10509F097CF6091AB047091AC046F3F74
:10184000760711F470E060E0072E000C880B990B0E
:101850000E942D2E20E030E040E85DE30E948C2EB7
:1018600011110FC020E030E040E251E40E948C2EC4
:101870006093AD047093AE048093AF049093B00472
:1018800071CF26E636E646EE5FE30E948C2E20E01E
:1018900030E040E052E40E94B22FE4CFD093B20493
:1018A000C093B10491CFCF93DF93EC012196FC015B
:1018B00020812A33C9F42181243609F5229630E0AB
:1018C00020E06AE0899190ED980F9A3078F4629F59
:1018D000A001639F500D1124082E000C990BC09796
:1018E0009A01280F391FEECFCE01DFCF309390043D
:1018F00020938F042115310511F02093390188813F
:101900008F3689F48A81082E000C990B9C01205394
:1019100031093093900420938F04C397059710F4F6
:1019200020933801249688818236F1F4229630E0A3
:1019300020E06AE0899190ED980F9A3068F4629FF8
:10194000A001639F500D1124082E000C990BC09725
:101950009A01280F391FEECF3093900420938F0403
:1019600030933701209336012091360130913701B1
:10197000032E000C440B550B60E67AEE80E090E0FD
:101980000E949B3082E0220F331F441F551F8A950F
:10199000D1F720938B0430938C0440938D045093A3
:1019A0008E04CE01DF91CF9108958EBD00000DB45D
:1019B00007FEFDCF8EB508958F929F92AF92BF9292
:1019C000CF92DF92EF92FF920F931F93CF93DF930B
:1019D0007C01D62F0E948B044B015C018091CC05C9
:1019E000811167C0CD2F81E08093CC058093CB051A
:1019F0009FEF9093CA051092C9059D0F9093C8055B
:101A00008093A7058091A705EE0CFF1C8E2980937B
:101A1000A7058091A605813009F083C01092A60524
:101A20000E948B046B017C018091A7058093BB0011
:101A30008091CE059091CF05A091D005B091D105B0
:101A4000892B8A2B8B2BA1F00E948B048090CE05D2
:101A50009090CF05A090D005B090D1056C197D096C
:101A60008E099F0986169706A806B90608F442C093
:101A70008091BC0083FDD8CF85EC8093BC000E9490
:101A80008B046B017C018091CC05813009F44BC043
:101A90008091C9058D1710F4C091C905E8EAF5E0F9
:101AA000A6E8B5E080E08C1751F191919D938F5F8E
:101AB000FACF8091CE059091CF05A091D005B0913D
:101AC000D105892B8A2B8B2B09F488CF0E948B049C
:101AD0000091CE051091CF052091D0053091D10510
:101AE000681979098A099B09061717072807390712
:101AF00008F074CF8091CD050E946609C0E0109275
:101B00008505C09384058C2FDF91CF911F910F9194
:101B1000FF90EF90DF90CF90BF90AF909F908F900D
:101B2000089585EEAACF8091CE059091CF05A09122
:101B3000D005B091D105892B8A2B8B2B09F4A3CF2B
:101B40000E948B048090CE059090CF05A090D00588
:101B5000B090D1056C197D098E099F0986169706EC
:101B6000A806B90608F08FCFC5CFCF93C0913A0130
:101B70008C2F0E94A20160E081EA96E00E94C50AD3
:101B80000E94870967E070E08C2F90E00E94DC0CD7
:101B900081EA96E00E947E0A982F92959F70CAE093
:101BA0008F709C9F800D112490E090937805809316
:101BB000770581EA96E00E947E0A982F92959F70A1
:101BC0008F709C9F800D112490E090936F058093FF
:101BD0006E0581EA96E00E947E0A982F9295937096
:101BE0008F709C9F800D112490E090936D058093E1
:101BF0006C0581EA96E00E947E0A81EA96E00E94E6
:101C00007E0A982F92959F708F709C9F800D112453
:101C100090E0909371058093700581EA96E00E94B0
:101C20007E0A982F92959F708F709C9F800D112433
:101C300090E0909373058093720581EA96E00E948C
:101C40007E0A982F92959F708F709C9F800D112413
:101C500090E09093750580937405CF910895FC01F1
:101C600080819181009711F00C94B52D60E070E0B7
:101C7000CB0108952F923F924F925F926F927F9285
:101C80008F929F92AF92BF92CF92DF92EF92FF928C
:101C9000CF93DF93CDB7DEB764970FB6F894DEBF6E
:101CA0000FBECDBF0E948B04C090DB04D090DC043B
:101CB000E090DD04F090DE046C197D098E099F0927
:101CC0006E34734C8105910508F412C20E948B0496
:101CD0006093DB047093DC048093DD049093DE0456
:101CE0008091DA048823B1F180E00E94D50C80E075
:101CF0000E94D50C80E00E94D50C80E00E94D50C9B
:101D000080E00E94D50C80E00E94D50C80E00E940B
:101D1000D50C80E00E94D50C61E08AE00E94FE01B3
:101D200060E08AE064960FB6F894DEBF0FBECDBFC8
:101D3000DF91CF91FF90EF90DF90CF90BF90AF9069
:101D40009F908F907F906F905F904F903F902F90DB
:101D50000C94FE0188EF96E00E942F0E69837A832F
:101D60008B839C8360E08AE00E94FE012AE0222EA1
:101D7000312C412C512C69817A818B819C81A2016B
:101D800091010E949B3049015A01660F771F6053F1
:101D90007D4FDB01ED90FC9085E090E00E94FC0A15
:101DA0006C01C501B401A20191010E949B30660F34
:101DB000771F60537D4FFB01A080B18084E090E0ED
:101DC0000E94FC0A3C0169817A818B819C8124E616
:101DD00030E040E050E00E949B30CA01B901A2010E
:101DE00091010E949B30660F771F60537D4FDB018E
:101DF0008D909C9083E090E00E94FC0ACE20DF2032
:101E0000F12CE12C64E1CC0CDD1CEE1CFF1C6A956E
:101E1000D1F788219921B0E0A0E0C82AD92AEA2A7E
:101E2000FB2AA620B720C501B0E0A0E07AE0880F29
:101E3000991FAA1FBB1F7A95D1F7C82AD92AEA2A67
:101E4000FB2A69817A818B819C8128EE33E040E016
:101E500050E00E949B30298B3A8B4B8B5C8B2091FE
:101E60003B0130913C0140913D0150913E012D8359
:101E70003E834F8358878091E004882309F4EEC0A5
:101E8000DA01C9018C299D29AE29BF2940903F0163
:101E90005090400160904101709042012091DF0418
:101EA000222309F4E8C06C017D01C428D528E62866
:101EB000F728309060058F2D9927AA27BB2789879F
:101EC0009A87AB87BC874701AA24BB2455274F2D8F
:101ED0003E2D2D2D2D873E874F87588B332009F4BB
:101EE000D7C08C2D0E94D50C8D850E94D50C882DD5
:101EF0000E94D50C89850E94D50C3AE0832E912C46
:101F0000A12CB12C69897A898B899C89A5019401BE
:101F10000E949B30660F771F60537D4FDB010D9051
:101F2000BC91A02DBA87A98782E090E00E94FC0AAC
:101F30006C0169817A818B819C8120E137E240E0EC
:101F400050E00E949B30CA01B901A50194010E9492
:101F50009B30660F771F60537D4FFB01E080F1805F
:101F600081E090E00E94FC0A29853A85C222D322B2
:101F7000A60170E060E0E4E1440F551F661F771F83
:101F8000EA95D1F78E219F21B0E0A0E06C017D01A0
:101F9000FAE0CC0CDD1CEE1CFF1CFA95D1F7C42A2C
:101FA000D52AE62AF72A69817A818B819C8120EAE9
:101FB00036E841E050E00E949B30CA01B901A5011A
:101FC00094010E949B30660F771F60537D4FDB01A9
:101FD000AD90BC9090E080E00E94FC0A8A219B2199
:101FE000B0E0A0E08C299D29AE29BF292091E00412
:101FF000222309F458C02D813E814F815885822BC0
:10200000932BA42BB52B2091DF04222309F458C075
:102010006C017D01C428D528E628F7284F2C5524CB
:10202000662477244701AA24BB24BB27AF2D9E2D0D
:102030008D2D89839A83AB83BC83332009F44DC0F3
:102040008C2D0E94D50C89810E94D50C882D0E9470
:10205000D50C842D0E94D50C61E063CE8D819E81CC
:10206000AF81B88580959095A095B0958C219D21E4
:10207000AE21BF210BCFB301A201409550956095D1
:1020800070956A017B01C822D922EA22FB2211CF76
:1020900089850E94D50C882D0E94D50C8D850E94C3
:1020A000D50C8C2D28CF4D815E816F817885409530
:1020B00050956095709584239523A623B723A3CFCD
:1020C000B301A20140955095609570956A017B011E
:1020D000C822D922EA22FB22A1CF842D0E94D50C4E
:1020E000882D0E94D50C89810E94D50C8C2DB2CFF1
:1020F00064960FB6F894DEBF0FBECDBFDF91CF91CF
:10210000FF90EF90DF90CF90BF90AF909F908F9017
:102110007F906F905F904F903F902F9008950F9316
:102120001F93CF93DF938C01EB01FC0180819181A0
:102130000097E1F06881798161157105A9F042810C
:1021400053812C813D814217530770F00E94C732A2
:102150008C819D81F801958384831D821C82DF918F
:10216000CF911F910F9108950E94783188819981B4
:10217000F801918380838A819B81938382838C8100
:102180009D8195838483198218821B821A82E5CFF0
:10219000CF93DF93EC0188819981009711F00E9421
:1021A0007831198218821D821C821B821A82DF916B
:1021B000CF910895FC0180819181009711F00C94DA
:1021C000783108950F931F93CF93DF93EC018881AB
:1021D0009981009759F02A813B812617370730F003
:1021E00081E0DF91CF911F910F9108958B016F5F77
:1021F0007F4F0E940132009759F0998388831B8397
:102200000A832C813D81232B59F7FC011082E8CFF2
:1022100080E0E7CFEF92FF920F931F93CF93DF936E
:102220006115710541F480E0DF91CF911F910F910D
:10223000FF90EF90089541155105B1F07B01EC013D
:102240000C811D81040F151FB8010E94E210882324
:1022500051F3288139818C819D81B701820F931FB1
:102260000E94C7321D830C8381E0DECFCF93DF93C2
:10227000EC01FB0101900020E9F73197AF01461B0B
:10228000570B0E940A11811103C0CE010E94C81091
:10229000CE01DF91CF910895CF93DF93EC01FB0145
:1022A00044815581608171810E940A11811103C0AE
:1022B000CE010E94C810CE01DF91CF910895EF9218
:1022C000FF920F931F93CF93DF93EC017B018A0161
:1022D000BA010E94E21081110BC0CE010E94C81009
:1022E000CE01DF91CF911F910F91FF90EF90089554
:1022F0001D830C83B701888199810E94C732F0CF7A
:10230000FB0101900020E9F73197AF01461B570B05
:102310000C945F110F931F93CF93DF93CDB7DEB76C
:1023200062970FB6F894DEBF0FBECDBF8C01CB0114
:10233000F8011182108213821282158214824AE0FF
:10234000BE016F5F7F4F0E94DC2DBE016F5F7F4F2C
:10235000C8010E94801162960FB6F894DEBF0FBECE
:10236000CDBFDF91CF911F910F910895CF93DF9350
:10237000EC01FB018617970749F0608171816115B7
:10238000710541F0448155810E945F11CE01DF91BA
:10239000CF9108950E94C810F9CFFC0111821082DC
:1023A00013821282158214820C94B611FC011182E0
:1023B00010821382128215821482FB010190002088
:1023C000E9F73197AF01461B570B0C945F11AF92A1
:1023D000BF92CF92DF92EF92FF920F931F93CF9312
:1023E000DF936C015B017A0189012417350720F422
:1023F0008F2D7901042F182F64E473E0C6010E9429
:10240000D611D5011496CD91DC91EC16FD06E0F4C1
:102410000C171D0708F4E801D501ED91FC91119707
:10242000EC0FFD1F108110826D917C916E0D7F1D50
:10243000C60161157105A1F00E948011F50180812E
:102440009181C80FD91F1883C601DF91CF911F91C9
:102450000F91FF90EF90DF90CF90BF90AF900895D5
:102460000E94C810EBCF4F925F926F927F928F9233
:102470009F92AF92BF92CF92DF92EF92FF920F9313
:102480001F93CF93DF9300D000D000D0CDB7DEB73D
:102490007C014B015A018091AA0481113AC081E06C
:1024A0008093AA0494EA692E94E0792E2EE9422EB4
:1024B00024E0522E10E000E00F5F1F4F680181E022
:1024C000C81AD1089801A601B401CE0101960E9454
:1024D000E711CE0101960E942F0ED3016D933D01AD
:1024E000CE0101960E94DA109801A601B501CE0135
:1024F00001960E94E711CE0101960E942F0EF20173
:1025000061932F01CE0101960E94DA100630110569
:1025100099F690919D0484EAC82E84E0D82EEEE9C5
:10252000F4E08601A801D8018C919A3008F04DC0E2
:102530008F5F8C930F5F1F4FDA018C918A3019F4F3
:10254000D80111971C923196B4E00A3A1B0751F753
:102550009F5F943109F43FC090939D0464E473E05D
:10256000C7010E94D611FE0131965F01D6018D91FF
:102570006D014AE0B50190E00E94DC2DF50101906B
:102580000020E9F73197AF014A195B09B501C7018E
:102590000E940A110C151D0549F7C70126960FB6B2
:1025A000F894DEBF0FBECDBFDF91CF911F910F9189
:1025B000FF90EF90DF90CF90BF90AF909F908F9063
:1025C0007F906F905F904F9008952081281709F4B5
:1025D000B1CF8F5FAECF10929D041092AA04BECFF0
:1025E000CF92DF92EF92FF921F93CF93DF93CDB7FD
:1025F000DEB72C970FB6F894DEBF0FBECDBF182FF5
:102600006BE573E0CE0107960E94D61122E030E020
:1026100050E040E0133071F024E030E042E050E060
:102620001C3041F01033B9F42091FC063091FD06C6
:1026300044E050E068EF76E0CE0101960E94E71199
:10264000BE016F5F7F4FCE0107960E948F10CE01B3
:1026500001960E94DA10CE0107960E942F0E6B01A0
:10266000CE0107960E94DA10C6012C960FB6F89498
:10267000DEBF0FBECDBFDF91CF911F91FF90EF90D6
:10268000DF90CF9008950F931F93CF93DF93CDB733
:10269000DEB762970FB6F894DEBF0FBECDBF8C01D8
:1026A00077FF03C07195619571096A307105A4F5D2
:1026B000CE010D960E948A116AE473E0CE01019664
:1026C0000E94D611BE016F5F7F4FCE0107960E9418
:1026D000CD11BE01635F7F4FCE0107960E944C1162
:1026E000BC01C8010E94CD11CE0107960E94DA10EC
:1026F000CE0101960E94DA10CE010D960E94DA10EA
:10270000C80162960FB6F894DEBF0FBECDBFDF9151
:10271000CF911F910F910895C8010E948A11F0CFA7
:102720000F931F93CF93DF93CDB7DEB768970FB6A4
:10273000F894DEBF0FBECDBF8B01833079F52091B9
:10274000FC063091FD0642E050E068EF76E0CE01F5
:102750000D960E94E711B801CE0101960E94431325
:10276000BE016F5F7F4FCE0107960E94CD11BE0163
:10277000635F7F4FCE0107960E944C11BC0188EF2A
:1027800096E00E94B611CE0107960E94DA10CE01A3
:1027900001960E94DA10CE010D9644C08C3009F0EB
:1027A0004EC02091FC063091FD0644E050E068EFF9
:1027B00076E0CE0143960E94E711B801CE010D9656
:1027C0000E94431322E030E050E040E068EF76E002
:1027D000CE0101960E94E711BE016F5F7F4FCE01CF
:1027E00007960E94CD11BE01635F7F4FCE01079611
:1027F0000E944C11BE016D5E7F4F0E944C11BC01C6
:1028000088EF96E00E94B611CE0107960E94DA107A
:10281000CE0101960E94DA10CE010D960E94DA10C8
:10282000CE0143960E94DA1068960FB6F894DEBF88
:102830000FBECDBFDF91CF911F910F9108958033CF
:1028400099F7CE010D960E94431324E030E050E04A
:1028500040E068EF76E0CE0101960E94E71180CF5C
:102860000E94E2046093940470939504809396040C
:102870009093970480919304882309F44FC020918A
:10288000910430919204C901880F991F22313105BA
:10289000A1F1FC01EA5BFE4F408151814150510999
:1028A00051834083DC01AA5BBE4F6D917C911197EF
:1028B000FC01E051FD4F40815181641775073CF4E4
:1028C000FC01EE55FD4F408151814D935C932131C8
:1028D000310509F5209168013091690121303105F8
:1028E000B9F420E82093E1048A5B9E4FFC016081EB
:1028F00071818091F1040C94901340916A01509180
:102900006B014C50510950936B0140936A01CACF3F
:102910001092E104E9CF2A30310531F708950E9481
:10292000E2046093940470939504809396049093CA
:10293000970480919304882309F444C02091910462
:1029400030919204C901880F991F2231310561F13C
:10295000FC01EA5BFE4F408151814F5F5F4F518325
:102960004083DC01AA5BBE4F6D917C911197FC0105
:10297000EE55FD4F40815181461757073CF4FC014D
:10298000E051FD4F408151814D935C9321313105E0
:10299000B1F41092E1048A5B9E4FFC016081718169
:1029A0008091F1040C94901340916A0150916B0155
:1029B000445F5F4F50936B0140936A01D2CF2A303E
:1029C000310549F708950F931F93CF93DF93CDB748
:1029D000DEB768970FB6F894DEBF0FBECDBF8C018F
:1029E00080916A0190916B01489709F048C00E945C
:1029F0009A08BC01CE0143960E9443130E94A2088C
:102A0000BC01CE010D960E9443130E94AA08BC018E
:102A1000CE0101960E944313BE016F5F7F4FCE012E
:102A200007960E94CD11BE01635F7F4FCE010796CE
:102A30000E944C11BE016D5E7F4F0E944C11BC0183
:102A4000C8010E94CD11CE0107960E94DA10CE0176
:102A500001960E94DA10CE010D960E94DA10CE0186
:102A600043960E94DA10C80168960FB6F894DEBF4C
:102A70000FBECDBFDF91CF911F910F9108950E949E
:102A80009A08BC01CE0143960E9443130E94A208FB
:102A9000BC01CE010D960E9443130E9441070E9483
:102AA000870780914C056CE070E0882309F4B0CF73
:102AB000682F70E08D3008F4ABCF6C507109A8CF4F
:102AC0008F929F92AF92BF92CF92DF92EF92FF923E
:102AD0000F931F93CF93DF93CDB7DEB72C970FB62D
:102AE000F894DEBF0FBECDBF8C016A017B018091DF
:102AF000D104811111C00E94E204645B7B4F8F4FAF
:102B00009F4F6093CD047093CE048093CF04909335
:102B1000D00481E08093D1048091C504811109C063
:102B200065E473E08FEB94E00E94D61181E080931E
:102B3000C5040E94E2048090CD049090CE04A09041
:102B4000CF04B090D004681979098A099B09693EBD
:102B500073408105910508F4D0C00E94E20460939F
:102B6000CD047093CE048093CF049093D00420E0E2
:102B700030E0A901C701B6010E94543020E030E0E6
:102B800040E05FE387FDD2C0C701B6010E94B22FCB
:102B90000E941E307B0177FF04C0EE24FF24E61A5A
:102BA000F70A5B0139E1A31A3CEFB30A80916C018B
:102BB00090916D019B012D593F4F69012A553109B3
:102BC0004901B701892B09F0B6C0CE0107960E94D2
:102BD0008A116AE473E0CE0101960E94D611BE010B
:102BE000695F7F4FCE0101960E944C116AE473E049
:102BF0000E943611BC018FEB94E00E94B611CE0109
:102C000001960E94DA10CE0107960E94DA103FEC7E
:102C1000A31637E0B30618F5B701CE0107960E9458
:102C20008A1169E473E0CE0101960E94D611BE01BB
:102C3000695F7F4FCE0101960E944C116AE473E0F8
:102C40000E943611BC018FEB94E00E94B611CE01B8
:102C500001960E94DA10CE0107960E94DA1087ECE6
:102C6000C816D10418F5B701CE0107960E948A1143
:102C700068E473E0CE0101960E94D611BE01695F3F
:102C80007F4FCE0101960E944C116AE473E00E94CE
:102C90003611BC018FEB94E00E94B611CE01019673
:102CA0000E94DA10CE0107960E94DA1023E1821604
:102CB000910418F5B701CE0107960E948A1167E4C6
:102CC00073E0CE0101960E94D611BE01695F7F4F6D
:102CD000CE0101960E944C116AE473E00E94361105
:102CE000BC018FEB94E00E94B611CE0101960E94C8
:102CF000DA10CE0107960E94DA106FEB74E0C8017B
:102D00000E94CD11C8012C960FB6F894DEBF0FBEFD
:102D1000CDBFDF91CF911F910F91FF90EF90DF908A
:102D2000CF90BF90AF909F908F900895C701B6014C
:102D30000E94B12F2DCFCE0107960E948A116AE41E
:102D400073E0CE0101960E94D611BE01695F7F4FEC
:102D5000CE0101960E944C116AE473E00E94361184
:102D6000BC018FEB94E00E94B611CE0101960E9447
:102D7000DA10CE0107960E94DA103FECA31637E076
:102D8000B30638F5C7016AE070E00E946530CE01F5
:102D900007960E948A1169E473E0CE0101960E94B1
:102DA000D611BE01695F7F4FCE0101960E944C1182
:102DB00069E473E00E943611BC018FEB94E00E943D
:102DC000B611CE0101960E94DA10CE0107960E943C
:102DD000DA1087ECC816D10438F5C7016AE070E054
:102DE0000E946530CE0107960E948A1168E473E064
:102DF000CE0101960E94D611BE01695F7F4FCE01C0
:102E000001960E944C1169E473E00E943611BC01E6
:102E10008FEB94E00E94B611CE0101960E94DA1069
:102E2000CE0107960E94DA1023E18216910408F081
:102E300064CFC7016AE070E00E946530CE0107965A
:102E40000E948A1167E473E0CE0101960E94D611B8
:102E5000BE01695F7F4FCE0101960E944C1169E46B
:102E600073E03CCF85ED8093BC008091CE059091BE
:102E7000CF05A091D005B091D1050796A11DB11D38
:102E800023E0B695A795979587952A95D1F7209138
:102E9000BC0024FD03C01092CC0508954091CE05DE
:102EA0005091CF056091D0057091D105452B462BEF
:102EB000472B69F30097A105B10541F02AE22A9555
:102EC000F1F700C00197A109B109E1CF8091CD05CB
:102ED0000C9466090C94522F0C944A2F8091450152
:102EE0008823D9F088E090E00E946C17682F70E08A
:102EF00089E00E942E0489E090E00E946C17682F00
:102F000070E086E00E942E048AE090E00E946C1738
:102F1000682F70E083E00C942E0470E060E089E09C
:102F20000E942E0470E060E086E00E942E0470E0B3
:102F300060E0F0CF8091DA04882341F01092DA0447
:102F40008091D904809345010C946E1708950F93D6
:102F50001F938091680190916901892B09F44FC0FA
:102F600080919C048823A9F00E94E20400919804B7
:102F70001091990420919A0430919B04601B710B6D
:102F8000820B930B693E734081059105C0F110924D
:102F90009C040E94AA08209162013091630182176B
:102FA000930769F50E94A2082091640130916501A0
:102FB0008217930721F50E949A08209166013091AB
:102FC000670182179307D9F40E949A170E94E204BE
:102FD000609398047093990480939A0490939B044F
:102FE00081E080939C048FE790E00E94140680911A
:102FF00043019091440190936B0580936A051F9162
:103000000F9108958F929F92AF92BF92CF92DF92CD
:10301000EF92FF920F931F93CF93DF93CDB7DEB75D
:10302000EC970FB6F894DEBF0FBECDBF80911D04A4
:10303000811107C00E94AA0880931C0481E080933C
:103040001D0480919304811129C000911C0410E09B
:103050000E94AA080817190709F10E94AA0880937C
:103060001C040E94AA0820917001309171018217FE
:10307000930749F481E08093DA04809145018093BD
:10308000D904109245010E94AA0820917201309142
:1030900073018217930711F40E949A170E94E204A9
:1030A00020E137E240E050E00E947930672B682B46
:1030B000692B01F5809176058823E1F00E94B50D1A
:1030C000E0907405F09075050091720510917305FC
:1030D00020917005309171054091770550917805E8
:1030E00060916E0570916F0580916C0590916D05F2
:1030F0000E94650610928A04109289041092880436
:1031000010928704109286041092850400916A053B
:1031100010916B05F8018081882309F409C10E9490
:10312000E204C0902B04D0902C04E0902D04F09089
:103130002E046C197D098E099F09C0902704D09038
:103140002804E0902904F0902A04C616D706E80661
:10315000F90608F0EDC00E94E2044B015C01809288
:103160002B0490922C04A0922D04B0922E0468019E
:1031700030E020E04AE0F801F1908F0180ED8F0D02
:103180008A3070F4429FC001439F900D11242F2D6F
:10319000FF0C330B20533109280F391F6F01EBCF80
:1031A0003093900420938F0460918B0470918C0471
:1031B00080918D0490918E042115310501F1032E2B
:1031C000000C440B550B0E949B3020932704309336
:1031D00028044093290450932A04EFE9EF0DE730C7
:1031E000A0F40E2E000CFF0BE850F74E0C94BA30F2
:1031F000171C191C0B1C0F1C111C131C151C2091D7
:10320000390130E050E040E0DECF10922604F601B4
:103210008181833241F4809126048F5F809326045C
:1032200086010E5F1F4FF80180818E32F1F4C0904D
:103230002704D0902804E0902904F0902A04C701C4
:10324000B60122E030E040E050E00E949B30C20E28
:10325000D31EE41EF51EC0922704D0922804E092EB
:103260002904F0922A040F5F1F4FF80180818053D8
:103270008A3008F0E0C2809325040F5F1F4FF801E9
:1032800080818C3211F40F5F1F4FE0912604EE23F2
:1032900009F44EC0C0902704D0902804E09029047F
:1032A000F0902A04809125048450990B4CE0489FAB
:1032B0009001499F300D1124E20FF32FF11DEE0F05
:1032C000FF1FEE56FE4FB701A601808191810E943B
:1032D00068020E94E204681979098A099B09C616E6
:1032E000D706E806F90620F50E94E20460932B0455
:1032F00070932C0480932D0490932E0480910306E8
:10330000813009F49DC2823009F4A0C2811105C048
:1033100080916E008D7F80936E0060E08091020648
:103320000E94FE0188E690E00E94140610E000E092
:1033300010936B0500936A050E94E20400918104DA
:10334000109182042091830430918404601B710BDE
:10335000820B930B663071058105910560F18091B8
:103360000306813009F478C2823009F478C28111F1
:1033700005C080916E008695817099F48091450119
:10338000811170C270E060E089E00E942E0470E05C
:1033900060E086E00E942E0470E060E083E00E941E
:1033A0002E040E94E204609381047093820480934F
:1033B0008304909384048091910490919204892BCA
:1033C00021F0809180048111DBC1809193048111EF
:1033D000D7C18091450481110DC00E94E204609321
:1033E000410470934204809343049093440481E029
:1033F000809345048091390481110DC00E94E2043C
:1034000060933504709336048093370490933804A6
:1034100081E0809339040E94E204009141041091FC
:1034200042042091430430914404601B710B820BD1
:10343000930B009100011091010120910201309144
:103440000301061717072807390708F04DC00E9427
:10345000E204609341047093420480934304909388
:1034600044048091330490913404009709F066C2BB
:1034700081E090E0909392048093910488E893E136
:10348000A0E0B0E08093000190930101A0930201BD
:10349000B0930301809133049091340482309105FC
:1034A00081F4109292041092910440E65AEE60E08A
:1034B00070E040930001509301016093020170930A
:1034C00003010196833091050CF058C290933404A7
:1034D0008093330480918004882321F01092920419
:1034E00010929104109280040E94E2040091410421
:1034F000109142042091430430914404601B710BED
:10350000820B930B603D77408105910508F008C35D
:103510000E94E20400913504109136042091370492
:1035200030913804601B710B820B930B653671056B
:103530008105910508F424C10E94E20460933504DA
:1035400070933604809337049093380480919104EB
:103550009091920420916105222309F414C2892BD1
:1035600089F5CE0149960E94E31481E020916C0117
:1035700030916D01232B09F480E00E94820BAB0196
:10358000BC01CE0101960E946015AE01475E5F4FFF
:10359000BE016F5F7F4FCE014F960E943312BE0176
:1035A000615E7F4F88EF96E00E948F10CE014F96AC
:1035B0000E94DA10CE0101960E94DA10CE014996DF
:1035C0000E94DA108091910490919204019709F081
:1035D00062C00E94800868EE73E00E946530BC0102
:1035E000CE018B960E9443130E948A08BC01CE0133
:1035F00085960E9443130E949208BC01CE01499611
:103600000E944313BE01675E7F4FCE014F960E941A
:10361000CD11BE016B5D7F4FCE014F960E944C11C4
:10362000BE01655D7F4F0E944C11BC01CE01C19669
:103630000E94CD11CE0101960E94E314AE014F5CB1
:103640005F4FBE016F5F7F4FCE01C7960E9433125E
:10365000BE01695C7F4F88EF96E00E948F10CE011B
:10366000C7960E94DA10CE0101960E94DA10CE01B0
:10367000C1960E94DA10CE014F960E94DA10CE0158
:1036800049960E94DA10CE0185960E94DA10CE018A
:103690008B960E94DA108091910490919204049785
:1036A00009F06EC081E020916C0130916D01232BF7
:1036B00009F480E00E94820BAB01BC01CE01C196EF
:1036C0000E9460150E94800868EE73E00E946530D9
:1036D000BC01CE0185960E9443130E948A08BC015A
:1036E000CE014F960E9443130E949208BC01CE0166
:1036F00001960E944313BE016F5F7F4FCE01499632
:103700000E94CD11BE01615E7F4FCE0149960E949D
:103710004C11BE016B5D7F4F0E944C11BC01CE016C
:103720008B960E94CD11AE014F5C5F4FBE01655D6F
:103730007F4FCE01C7960E943312BE01695C7F4F56
:1037400088EF96E00E948F10CE01C7960E94DA1093
:10375000CE018B960E94DA10CE0149960E94DA10B3
:10376000CE0101960E94DA10CE014F960E94DA1027
:10377000CE0185960E94DA10CE01C1960E94DA1021
:103780000E943A0E8FED96E00E94B20886EC96E019
:103790000E94B2088DEA96E00E94B20880919304DC
:1037A0008111C1C11092F1048091DF069091E00671
:1037B000181619063CF08091890490918A040197AB
:1037C00009F082C381E08093800410926B0510920F
:1037D0006A0544E650E060E070E088EE93E00E9405
:1037E00068028091DA04882309F4CAC10E949A17FA
:1037F000EC960FB6F894DEBF0FBECDBFDF91CF9130
:103800001F910F91FF90EF90DF90CF90BF90AF90FE
:103810009F908F90089581E080932604F8CC83E0F8
:10382000FBCF85E0F9CF86E0F7CF88E0F5CF8AE0DF
:10383000F3CF8CE0F1CF80913801809325041FCD28
:1038400080916F008D7F80936F0067CD80917000B5
:103850008D7F8093700061CD80916F008CCD8091C1
:10386000700089CD80917A0581119BCD0091310442
:1038700010913204F801EE0FFF1FE00FF11FDF017E
:10388000AA0FBB1FAC50BE4F8D919C916091060159
:1038900070910701680F791F70930701609306010B
:1038A000DF01AA0FBB1FAA50BE4FCD90DC908091C4
:1038B000760490917704C80ED91ED0927704C092F6
:1038C0007604EE0FFF1FE850FE4FE080F1808091FC
:1038D000740490917504E80EF91EF0927504E0925C
:1038E000740489E00E942E04B60186E00E942E0432
:1038F000B70183E00E942E0480912F049091300440
:1039000001969093300480932F048F3F910551F4DA
:103910000F5F1F4F10933204009331041092300454
:1039200010922F04809131049091320406970CF488
:1039300038CD109232041092310433CD019709F042
:10394000A9CD84E090E0909392048093910488E85C
:1039500093E1A0E0B0E08093000190930101A09377
:103960000201B0930301809161058111D3C782E008
:1039700090E090933404809333048CCD10923404FF
:1039800010923304A7CD892B09F062C0CE01C196F5
:103990000E94E3140E94800868EE73E00E94653084
:1039A000BC01CE0185960E9443130E948A08BC0187
:1039B000CE014F960E9443130E949208BC01CE0193
:1039C00001960E944313BE016F5F7F4FCE0149965F
:1039D0000E94CD11BE01615E7F4FCE0149960E94CB
:1039E0004C11BE016B5D7F4F0E944C11BC01CE019A
:1039F0008B960E94CD11AE014F5C5F4FBE01655D9D
:103A00007F4FCE01C7960E943312BE01695C7F4F83
:103A100088EF96E00E948F10CE01C7960E94DA10C0
:103A2000CE018B960E94DA10CE0149960E94DA10E0
:103A3000CE0101960E94DA10CE014F960E94DA1054
:103A4000CE0185960E94DA10CE01C1960E94DA104E
:103A50008091910490919204019709F091CE0E9477
:103A6000800868EE73E00E946530BC01CE018B9641
:103A70000E9443130E948A08BC01CE0185960E94D1
:103A800043130E949208BC01CE0149960E94431341
:103A9000BE01675E7F4FCE014F960E94CD11BE01E1
:103AA0006B5D7F4FCE014F960E944C11BE01655D4C
:103AB0007F4F0E944C11BC01CE01C1960E94CD11D6
:103AC000CE0101960E94E314AE014F5C5F4FBE0130
:103AD0006F5F7F4FCE01C7960E943312BE01695CB3
:103AE0007F4F88EF96E00E948F10CE01C7960E940C
:103AF000DA10CE0101960E94DA10CE01C1960E9422
:103B0000DA10CE014F960E94DA10CE0149960E943B
:103B1000DA10CE0185960E94DA10CE018B962ECE59
:103B20001092AA042DCE0E94E204009194041091F8
:103B300095042091960430919704601B710B820BC1
:103B4000930B61367A4E8105910508F42DCE1092C3
:103B50009304E0919104F0919204EE0FFF1FEC5852
:103B6000FD4F808191819093920480939104880FFE
:103B7000991FFC01E85FFE4F80818093F10414CE11
:103B80000E94E204609394047093950480939604D9
:103B900090939704809191049091920401968530BE
:103BA000910509F46DC090939204809391048091E3
:103BB000910490919204079721F41092920410922C
:103BC000910420919104309192048901000F111FFA
:103BD000F801E85FFE4F80818093F104D9011197CD
:103BE000FD01EE0FFF1FEA5BFD4F608171816115E2
:103BF000710509F45AC1AB0141505109FA01EE0FA8
:103C0000FF1FE85EFD4F0190F081E02DAE17BF076A
:103C100009F04BC162307105B1F588E1EAE7F1E0E6
:103C2000DE01119601900D928A95E1F78091600175
:103C30009091610183709927892B21F48DE190E0A7
:103C40009C838B8380915E0190915F010197880F27
:103C5000991FE1E0F0E0EC0FFD1F8E0F9F1F2091F8
:103C60005C0130915D01FC01808191818217930795
:103C700054F48BE090E09093920480939104B8CD3B
:103C800086E090E090CF109293045093920440937A
:103C90009104452BB9F40E9480087C010E948A0897
:103CA0008C010E94920840915801509159016091F5
:103CB0005601709157019C018091540190915501DA
:103CC0000E9465068091910490919204019719F5E4
:103CD000E0906001F0906101F0E3EF1AF8EFFF0A65
:103CE00000915E0110915F0180905C0190905D01F8
:103CF0000E949A085C010E94A2086C010E94AA0816
:103D00009401A501B6010E94650660915A018DE0FB
:103D100090E00E946A17809191049091920402971A
:103D2000C1F46091620182E090E00E946A176091A4
:103D3000640183E090E00E946A176091660184E06C
:103D400090E00E946A176091680186E090E00E940E
:103D50006A178091910490919204039731F46091D5
:103D60006A0181E090E00E946A178091910490912D
:103D70009204049731F460916C018BE090E00E9412
:103D80006A178091910490919204059739F460919B
:103D90006E01645F8CE090E00E946A17809191044C
:103DA00090919204069761F4609170018EE090E02A
:103DB0000E946A17609172018FE090E00E946A177A
:103DC0000E94800868EE73E00E946530082F0E9410
:103DD0008A08F82E0E949208E82E0E949A08B82EAF
:103DE0000E94A208C82E0E94AA08D82E80913A01EB
:103DF0000E94A20160E081EA96E00E94C50A1AE0F2
:103E00008B2D612F0E9459308295807F682F690F1A
:103E100081EA96E00E94C50A8C2D612F0E945930DC
:103E20008295807F682F690F81EA96E00E94C50A1B
:103E30008D2D612F0E9459308295807F682F690FE8
:103E400081EA96E00E94C50A61E081EA96E00E945C
:103E5000C50A8E2D612F0E9459308295807F682F70
:103E6000690F81EA96E00E94C50A8F2D612F0E949A
:103E700059308295807F682F690F81EA96E00E9411
:103E8000C50A802F612F0E9459308295807F682F4C
:103E9000690F81EA96E00E94C50A60E081EA96E037
:103EA0000E94C50A0E948709A3CC2431310561F024
:103EB0002A5031092230310538F00E94F012F80101
:103EC000EA5BFE4F918380838091DF069091E0064C
:103ED00097FD07C08091890490918A04019609F0AA
:103EE000F5C00E949A1744E650E060E070E088EE6A
:103EF00093E00E9468028091930481114DC000916B
:103F00009104109192040E94E204609394047093CF
:103F100095048093960490939704012BE9F50E94F1
:103F20009A08BC01CE0185960E9443130E94A20804
:103F3000BC01CE014F960E9443130E94AA08BC0107
:103F4000CE0101960E944313BE016F5F7F4FCE01E9
:103F500049960E94CD11BE01615E7F4FCE01499608
:103F60000E944C11BE016B5D7F4F0E944C11BC0141
:103F700088EF96E00E94B611CE0149960E94DA10B1
:103F8000CE0101960E94DA10CE014F960E94DA10FF
:103F9000CE0185960E94DA1080919104909192044E
:103FA000019709F05AC00E94920890935D01809396
:103FB0005C010E948A0890935F0180935E010E94D9
:103FC000800868EE73E00E946530BC019093610147
:103FD0008093600180915A0190915B01892B09F0D7
:103FE000A4C1CE0185960E94431360915E01709139
:103FF0005F01CE014F960E94431360915C01709166
:104000005D01CE0101960E944313BE016F5F7F4F99
:10401000CE0149960E94CD11BE01615E7F4FCE0157
:1040200049960E944C11BE016B5D7F4F0E944C115E
:10403000BC0188EF96E00E94B611CE0149960E941D
:10404000DA10CE0101960E94DA10CE014F960E943E
:10405000DA10CE0185960E94DA10E0919104F09179
:104060009204EE0FFF1FEC58FD4F208131813093F9
:104070009204209391042E30310549F481E090E0C0
:10408000909369018093680180E88093E1048091B6
:10409000930491E08927809393048901000F111FF5
:1040A000F801E85FFE4F80818093F104A90143513C
:1040B00051094230510550F02A30310539F00E9443
:1040C000F012F801EA5BFE4F918380838091C6066F
:1040D0009091C706009709F039C1809187049091AB
:1040E0008804019701F581E08093800410926B05AC
:1040F00010926A0544E650E060E070E088EE93E0DC
:104100000E9468028091DA04811170CB0E948F14A2
:1041100080919304811107C010927A0560E087E0D6
:1041200090E00E946A1780917E0490917F0401962E
:1041300009F015C18091C806882309F410C11092B6
:10414000F304809193048823F9F00E94E204009123
:104150007A0410917B0420917C0430917D04601BD3
:10416000710B820B930B673971058105910560F026
:104170000E94E20460937A0470937B0480937C0431
:1041800090937D040E948F148091AD069091AE06AD
:10419000009709F0E8C0809185049091860401970A
:1041A00091F511E01093800410926B0510926A054E
:1041B00044E650E060E070E088EE93E00E94680220
:1041C0008091DA04811112CB0E9430148091930403
:1041D000811119C010937A0561E087E090E00E9498
:1041E0006A176091060188E090E00E946A1760916A
:1041F000760489E090E00E946A17609174048AE076
:1042000090E00E946A178091780490917904019659
:1042100009F0B2C08091AF06882309F4ADC0809147
:1042200093041092F204882321F10E94E204009189
:104230007004109171042091720430917304601B1A
:10424000710B820B930B673971058105910508F499
:1042500049C00E94E20460937004709371048093DB
:104260007204909373040E9430148091930481111E
:1042700039C08091C6069091C70697FD06C080910F
:10428000870490918804019691F444E650E060E040
:1042900070E088EE93E00E94680281E0809345011F
:1042A00061E090E080E00E946A170E946E178091A2
:1042B000AD069091AE0697FD06C080918504909161
:1042C0008604019679F444E650E060E070E088EE00
:1042D00093E00E9468021092450160E090E080E067
:1042E0000E946A17E0919104F0919204E731F10580
:1042F00008F07ECAE258FE4D0C94BA30C021F1217C
:10430000EE2236236123A5235624F81BF81BF81B45
:10431000D423FD23FD23FD23F81BF81BF81BF81BFA
:10432000F81B6123A52356245624CE0185960E94AE
:10433000431360915C0170915D01CE014F960E9424
:10434000431360915E0170915F015BCE90937F0497
:1043500080937E04181619060CF4C5CEBECE81E0FB
:104360008093F30411CF9093790480937804181606
:1043700019060CF416CF0FCF81E08093F20475CFAD
:104380008091AA0481111EC00E949A082091040104
:104390003091050182179307E9F00E949A089093E3
:1043A000050180930401CE0101960E94E314BE0131
:1043B0006F5F7F4F88EF96E00E948F10CE010196CD
:1043C0000E94DA100E949A0880FD76C180EC8093EA
:1043D000E10474C168EF76E0CE0101960E94CD1130
:1043E000E6CF8091AA048111E2C080916804811116
:1043F00011C00E94E20467517C4F8F4F9F4F609322
:10440000640470936504809366049093670481E06C
:104410008093680480915C04811144C00E948008EC
:1044200068EE73E00E946530BC01CE0101960E94E7
:1044300043130E948A08BC01CE0149960E9443138F
:104440000E949208BC01CE0185960E944313BE01D2
:104450006B5D7F4FCE014F960E94CD11BE01675E0E
:104460007F4FCE014F960E944C11BE016F5F7F4F70
:104470000E944C11BC0186E594E00E94CD1181E0C0
:1044800080935C04CE014F960E94DA10CE0185968F
:104490000E94DA10CE0149960E94DA10CE010196F0
:1044A0000E94DA1000915A0110915B0180914E0434
:1044B000811105C000934D0481E080934E040E9459
:1044C000E204C0906404D0906504E0906604F0902B
:1044D00067046C197D098E099F09693E7340810547
:1044E000910530F480914D048017110609F44EC0F7
:1044F0000E94E204609364047093650480936604F0
:1045000090936704012B09F054C00E94800868EE64
:1045100073E00E946530BC01CE0101960E944313F6
:104520000E948A08BC01CE0149960E9443130E9452
:104530009208BC01CE0185960E944313BE016B5DBB
:104540007F4FCE014F960E94CD11BE01675E7F4F17
:10455000CE014F960E944C11BE016F5F7F4F0E94AB
:104560004C11BC0186E594E00E94B611CE014F9635
:104570000E94DA10CE0185960E94DA10CE0149968B
:104580000E94DA10CE0101960E94DA1066E574E00E
:10459000CE0101960E94CD11BE016F5F7F4F88EF63
:1045A00096E00E948F10CE0101960E94DA1080E4FE
:1045B0000ECF0E94800868EE73E00E946530BC0157
:1045C000CE0101960E9443130E949208BC01CE01C5
:1045D00049960E9443130E948A08ABCF60916601FE
:1045E00070916701CE0185960E944313609164012A
:1045F00070916501CE014F960E9443136091620154
:1046000070916301CE0101960E944313BE016F5F5A
:104610007F4FCE0149960E94CD11BE01615E7F4F52
:10462000CE0149960E944C11BE016B5D7F4F0E94E6
:104630004C11BC0188EF96E00E94B611CE0149965C
:104640000E94DA10CE0101960E94DA10CE014F9638
:104650000E94DA10CE0185960E94DA1080916801DE
:1046600090916901019741F580E8B1CE60916A01AE
:1046700070916B01CE0149960E948A1169E473E042
:10468000CE0101960E94D611BE01675E7F4FCE011A
:1046900001960E944C1169E473E00E943611BC013E
:1046A00088EF96E00E94B611CE0101960E94DA10C2
:1046B000CE0149960E94DA101092E1040E94A717D9
:1046C00097C88091AA04811124C081E020916C01D7
:1046D00030916D01232B09F480E00E94820BAB0125
:1046E000BC01CE0101960E946015BE016F5F7F4F35
:1046F00088EF96E00E948F10CE0101960E94DA109A
:1047000080916C0190916D01892BD1F480E48093AC
:10471000E10481E020916C0130916D01232B09F4BB
:1047200080E00E94820B1091E10420E030E0A901BA
:104730000E94262E87FF07C010681093E10458C816
:104740001092E104E6CF1F77F8CF60916E0170916F
:104750006F01CE0101960E944313BE016F5F7F4F30
:10476000CE0149960E94CD1167E473E0CE014996CF
:104770000E943611BC0188EF96E00E94B611CE016E
:1047800049960E94DA10CE0101960E94DA108091BB
:104790006E0190916F0197FD03C01092E10428C84B
:1047A00080E88093E10424C880915A0190915B01D4
:1047B000892BA1F46CE473E088EF96E00E948011ED
:1047C00083E090E090931F0180931E018CE090E0C5
:1047D00090932101809320010C94F81B63E573E012
:1047E00088EF96E00E9480118CE090E090931F018A
:1047F00080931E0183E090E0EBCF609160017091A7
:10480000610180915A0190915B01892BF1F5CE01F4
:1048100085960E94431360915E0170915F01CE0105
:104820004F960E94431360915C0170915D01CE012F
:1048300001960E944313BE016F5F7F4FCE014996E0
:104840000E94CD11BE01615E7F4FCE0149960E944C
:104850004C11BE016B5D7F4F0E944C11BC0188EF73
:1048600096E00E94B611CE0149960E94DA10CE0160
:1048700001960E94DA10CE014F960E94DA10CE0106
:1048800085960E94DA100C94F81BCE0185960E9442
:10489000431360915C0170915D01CE014F960E94BF
:1048A000431360915E0170915F01C1CF609172010D
:1048B00070917301CE014F960E9443136091700175
:1048C00070917101CE0101960E944313BE016F5F8A
:1048D0007F4FCE0149960E94CD11BE01615E7F4F90
:1048E000CE0149960E944C116AE573E00E94361190
:1048F000BC0188EF96E00E94B611CE0149960E9455
:10490000DA10CE0101960E94DA10CE014F960E9475
:10491000DA1043CF81E090E00C94611A1F920F925D
:104920000FB60F9211242F933F938F939F93AF93C2
:10493000BF9380917C0590917D05A0917E05B091FB
:104940007F0530917B0523E0230F2D3758F5019625
:10495000A11DB11D20937B0580937C0590937D055F
:10496000A0937E05B0937F0580918005909181058D
:10497000A0918205B09183050196A11DB11D809380
:10498000800590938105A0938205B0938305BF9124
:10499000AF919F918F913F912F910F900FBE0F90EC
:1049A0001F90189526E8230F0296A11DB11DD2CFA6
:1049B0001F920F920FB60F9211242F933F934F9394
:1049C0005F936F937F938F939F93AF93BF93EF9377
:1049D000FF9384E096E00E948A05FF91EF91BF91DA
:1049E000AF919F918F917F916F915F914F913F9187
:1049F0002F910F900FBE0F901F9018951F920F923E
:104A00000FB60F9211242F938F939F93EF93FF93E1
:104A1000E0911406F09115068081E0911A06F0915C
:104A20001B0682FD1BC0908180911D068F5F8F73D6
:104A300020911E06821741F0E0911D06F0E0EC5F28
:104A4000F94F958F80931D06FF91EF919F918F9164
:104A50002F910F900FBE0F901F9018958081F4CF6B
:104A60001F920F920FB60F9211242F933F938F93A3
:104A70009F93AF93BF93EF93FF938091F60590912F
:104A8000F705A091F805B091F9050097A105B105CA
:104A900031F130915505E0915605F091570520818F
:104AA00023272083181619061A061B061CF40197E3
:104AB000A109B1098093F6059093F705A093F80535
:104AC000B093F905FF91EF91BF91AF919F918F91B5
:104AD0003F912F910F900FBE0F901F90189520912E
:104AE00070002D7F2093700020915505E0915605B0
:104AF000F09157053081209523232083DBCF1F922F
:104B00000F920FB60F9211248F939F93AF93BF9381
:104B1000EF93FF938091FA059091FB05A091FC051E
:104B2000B091FD05892B8A2B8B2BA1F19091580513
:104B3000E0915905F0915A05808189278083809101
:104B4000FA059091FB05A091FC05B091FD051816A2
:104B500019061A061B069CF48091FA059091FB0534
:104B6000A091FC05B091FD050197A109B1098093C1
:104B7000FA059093FB05A093FC05B093FD05FF910A
:104B8000EF91BF91AF919F918F910F900FBE0F90BA
:104B90001F90189580916F008D7F80936F0080919A
:104BA0005805E0915905F0915A0590818095892327
:104BB0008083E5CF1F920F920FB60F9211248F932F
:104BC0009F93AF93BF93EF93FF938091FE059091D6
:104BD000FF05A0910006B0910106892B8A2B8B2B33
:104BE000A1F190915B05E0915C05F0915D058081FC
:104BF000892780838091FE059091FF05A091000692
:104C0000B0910106181619061A061B069CF480912D
:104C1000FE059091FF05A0910006B0910106019755
:104C2000A109B1098093FE059093FF05A0930006AA
:104C3000B0930106FF91EF91BF91AF919F918F913A
:104C40000F900FBE0F901F90189580916E008D7F72
:104C500080936E0080915B05E0915C05F0915D05AD
:104C60009081809589238083E5CF1F920F920FB6A4
:104C70000F9211242F933F934F935F936F937F93E2
:104C80008F939F93AF93BF93EF93FF938091B9005E
:104C9000887F803609F44AC0F0F5883209F4A7C04D
:104CA00018F5803109F49BC0B8F4882309F4F9C0E1
:104CB000883009F494C0FF91EF91BF91AF919F911B
:104CC0008F917F916F915F914F913F912F910F90B5
:104CD0000FBE0F901F901895883109F488C080325C
:104CE00051F78093CA0514C0803409F49DC040F484
:104CF0008033B9F38833F9F68093CA0585ECB0C0E8
:104D0000803509F485C0883509F496C0883499F651
:104D10000E943217D0CF883909F48CC038F5883713
:104D200029F050F4883611F0803729F683E080931B
:104D3000CC051092370557C0883809F47BC08039FC
:104D400019F0803809F0B7CF80913705803208F02C
:104D500071C0E091370581E08E0F80933705809117
:104D6000BB00F0E0E95EFA4F80833DC0803B39F044
:104D7000E0F4803A09F479C0883A09F09CCF84E0E5
:104D80008093CC051092160510921505E0915305FD
:104D9000F091540509958091150581110FC081E0AE
:104DA000809315051092F50409C0803C09F4A6CF44
:104DB000883C09F4A3CF883B09F07DCFE09116052C
:104DC00081E08E0F80931605F0E0EB50FB4F808161
:104DD0008093BB00909116058091150529C08091A4
:104DE000A7058093BB0085EC8093BC0064CF9091B5
:104DF000C9058091C805981758F5E091C90581E06B
:104E00008E0F8093C905F0E0E855FA4F8081E9CF15
:104E1000E091C90581E08E0F8093C9058091BB00A8
:104E2000F0E0E855FA4F80839091C9058091C8055C
:104E30009817C8F285E8D8CFE091C90581E08E0FB8
:104E40008093C9058091BB00F0E0E855FA4F80835C
:104E50008091CB0581115CCF81E08093A60584EA27
:104E60008093BC001092CC0526CF85EC8093BC00CB
:104E70001092CC0580913705803230F4E0913705EF
:104E8000F0E0E95EFA4F10826091370570E0E09142
:104E90005105F091520587E195E00995109237058B
:104EA0000ACF1092CA0534CFCF93DF93EC01862F3F
:104EB0006F87188A91E0998B9A8B1C8A1B8A1982BA
:104EC00018821A821D8A1E8A1F8A188E44E150E0B9
:104ED00060E070E04B835C836D837E834AEF50E03B
:104EE00060E070E04F83588769877A8748EE53E027
:104EF00060E070E04B875C876D877E8760E00E9492
:104F00002C028889811106C061E08F85DF91CF91E5
:104F10000C94FE01DF91CF910895E4E0F6E0138256
:104F2000128288EE93E0A0E0B0E084839583A683AC
:104F3000B78322E233E03183208325EC30E03587EC
:104F4000248724EC30E03787268720EC30E0318B53
:104F5000208B21EC30E0338B228B22EC30E0358B40
:104F6000248B26EC30E0378B268B118E128E138E1D
:104F7000148EE1EAF6E01382128284839583A6837D
:104F8000B78384E393E0918380836DE573E08CE0E5
:104F900097E00E94D61160E087E00E942C02E8E6CC
:104FA000F1E0E491AEEFB6E0EC93E4E5F1E0E491FA
:104FB000F0E0EE0FFF1FED5BFE4F8591949112968E
:104FC0009C938E9311971B961C921B971D961C9277
:104FD0001D971C961C921C971A961C921A9719964C
:104FE0001C92199718961C92189717961C9217974F
:104FF00016961C92169715961C92159714961C924D
:10500000149713961C9265E473E088EF96E00E9473
:10501000D6116EE08FED96E00E94542760E186EC99
:1050200096E00E9454276FE08DEA96E00C94542796
:10503000CF93DF93CDB7DEB7CE54D1090FB6F89436
:10504000DEBF0FBECDBF789484B5826084BD84B5C9
:10505000816084BD85B5826085BD85B5816085BD73
:1050600080916E00816080936E001092810080912B
:1050700081008260809381008091810081608093B3
:105080008100809180008160809380008091B100D8
:1050900084608093B1008091B00081608093B00003
:1050A00080917A00846080937A0080917A00826097
:1050B00080937A0080917A00816080937A00809159
:1050C0007A00806880937A001092C1001092850562
:1050D000109284051092D3051092F5050E9448099C
:1050E0008EEE94E090935405809353058FEE94E0F8
:1050F0009093520580935105E0911406F0911506A6
:1051000082E08083E0911006F09111061082E09118
:105110001206F091130680E1808310921C06E09144
:105120001806F091190686E08083E0911606F0914A
:105130001706808180618083E0911606F091170642
:10514000808188608083E0911606F0911706808147
:1051500080688083E0911606F091170680818F7D2C
:10516000808381E090E00E946C178C3009F4E9C1E3
:1051700088E190E090936B0180936A0190E080E079
:105180000E946C17882309F4DFC181E080934501F8
:1051900082E090E00E946C178F3F09F0D8C1109216
:1051A00063011092620183E090E00E946C178F3FD0
:1051B00009F0D3C1109265011092640184E090E07F
:1051C0000E946C178F3F09F0CEC1109267011092B8
:1051D000660186E090E00E946C178F3F09F0C9C11C
:1051E000109269011092680187E090E00E946C17AC
:1051F0008F3F09F0C4C110927A058BE090E00E94C5
:105200006C178F3F09F0C2C110926D0110926C01B2
:105210008CE090E00E946C178F3F31F08C50990B1E
:1052200090936F0180936E018DE090E00E946C1767
:105230008F3F29F090E090935B0180935A018EE0BC
:1052400090E00E946C178F3F29F090E090937101DD
:10525000809370018FE090E00E946C178F3F29F0DF
:1052600090E0909373018093720161E089E00E9465
:105270002C0261E086E00E942C0261E083E00E9443
:105280002C0280915E05833008F0F5C192E0909386
:105290000206E82FF0E0E357FF4FE491E0930306A6
:1052A0008F5F80935E05E13009F497C108F474C103
:1052B000E23009F4B9C180914301909144010E9408
:1052C000530C909344018093430161E08AE00E9473
:1052D0002C0262E088E00E942C0288E00E94D50146
:1052E00021E0892B09F020E0209360051FB7F89496
:1052F00080915F05811127C0E7E5F1E08491EBE63D
:10530000F1E09491E82FF0E0EE0FFF1FE55EFE4F15
:10531000A591B491EC91E92321F461E08AE00E9427
:10532000FE0161E08AE00E942C028CB580618CBD98
:105330008CB580648CBD61E08DE00E942C0261E040
:105340008BE00E942C0280915F058F5F80935F0548
:105350001FBF80916005882309F491C189E791E01E
:105360000E94E70062E08EE00E942C0262E080E191
:105370000E942C0262E08FE00E942C0261E082E039
:105380000E942C0204E110E020E030E00093E206ED
:105390001093E3062093E4063093E5064EE150E0D7
:1053A00060E070E04093E6065093E7066093E806FD
:1053B0007093E90680ED97E0A0E0B0E08093EA0604
:1053C0009093EB06A093EC06B093ED060093C9060C
:1053D0001093CA062093CB063093CC064093CD069B
:1053E0005093CE066093CF067093D0068093D1067B
:1053F0009093D206A093D306B093D4060093B00640
:105400001093B1062093B2063093B3064093B406CE
:105410005093B5066093B6067093B7068093B806AE
:105420009093B906A093BA06B093BB068EE090E0C5
:105430000E946C178F3F31F091E0811101C090E024
:10544000909379058FE00E94D501892B91F46091AA
:10545000790581E06827609379058EE090E00E94ED
:105460006A1744E650E060E070E088EE93E00E9446
:10547000680280917905811104C180E090E0A0E08C
:10548000B0E880933F0190934001A0934101B09315
:10549000420180E090E0A0E0B0E480933B01909373
:1054A0003C01A0933D01B0933E018CEE90E00E9440
:1054B000F90525E030E042E050E06CE077E0CE0115
:1054C00001967C010E94E71122E030E041E050E0CB
:1054D0006CE077E0CE01875B9F4F0E94E711BE0131
:1054E000675B7F4FCE018D5B9F4F0E94CD1164E6BD
:1054F00073E0CE018D5B9F4F0E943611B7010E9471
:105500004C110E942605CE018D5B9F4F0E94DA1040
:10551000CE01875B9F4F0E94DA10C7010E94DA100C
:1055200009EC10E043E2D42EDA94DD2009F4BAC08D
:10553000F801649184E096E00E94AC050F5F1F4F74
:10554000F3CF8CE090E016CE1092450121CE90E092
:10555000909363018093620126CE90E09093650161
:10556000809364012BCE90E0909367018093660155
:1055700030CE90E0909369018093680135CE91E040
:10558000811101C090E090937A0537CE90E090931E
:105590006D0180936C013CCE14BC15BC84B5826057
:1055A00084BD85B5816085BD8091020690E0FC01D7
:1055B000E35BFE4FE491F0E0EE0FFF1FEB5DFE4F6B
:1055C0002591349130935D0520935C05FC01EF59E2
:1055D000FE4FE491E0935B056ECE10928000109236
:1055E000810080918100886080938100809181009A
:1055F0008160809381008091020690E0FC01E35B72
:10560000FE4FE491F0E0EE0FFF1FEB5DFE4F2591A2
:10561000349130935A0520935905FC01EF59FE4F00
:10562000E491E093580547CE1092B0001092B1007B
:105630008091B00082608093B0008091B100816061
:105640008093B1008091020690E0FC01E35BFE4F85
:10565000E491F0E0EE0FFF1FEB5DFE4F25913491DA
:105660003093570520935605FC01EF59FE4FE49106
:10567000E093550520CE8FEF809303061CCE89E57D
:105680006ECE80E090E0A0E0B0E480933F01909384
:105690004001A0934101B093420180E090E0A0E07E
:1056A000B0E8FBCE0E941E058EEB90E00E9414062F
:1056B000809143019091440190936B0580936A051A
:1056C0000E94530C6FEF70E089E00E942E0468EE98
:1056D00073E080E090E00E94B00470E060E089E058
:1056E0000E942E046FEF70E086E00E942E0468EEA8
:1056F00073E080E090E00E94B00470E060E086E03B
:105700000E942E046FEF70E083E00E942E0468EE8A
:1057100073E080E090E00E94B00470E060E083E01D
:105720000E942E0465E473E0C7010E94D61166E66C
:1057300073E0CE0107960E94D6116DE673E0CE01AC
:105740000D960E94D61164E773E0CE0143960E9445
:10575000D6116BE773E0CE0149960E94D61162E83C
:1057600073E0CE014F960E94D61169E873E0CE0136
:1057700085960E94D61160E973E0CE018B960E9457
:10578000D61167E973E0CE01C1960E94D6116EE989
:1057900073E0CE01C7960E94D61164E473E0CE0197
:1057A000CD960E94D6116CE077E0CE01CD960E9496
:1057B000B6110E94E2042B013C01F8EE4F0EF3E01B
:1057C0005F1E611C711C912C1FEF94EFC92EDD240C
:1057D000D39426E0822E3BE3A32E3FE1B32E8FE04D
:1057E0000E94D501892B11F49924939480E10E94A1
:1057F000D501892B09F4912C0E94E20464197509E2
:105800008609970996010D2C000C440B550B01E0FD
:105810002617370748075907E0F40E94E2042B01D6
:105820003C01911001C01F5F1A3009F4DDC008F07F
:10583000E0C001E0B701189D600D711D112488EFD3
:1058400096E00E94B61188EF96E00E9426050E941D
:105850003A0EC5010197F1F70111C1CFC0900B07B6
:10586000C11004C00E9469018111C6C010920907CD
:1058700010920B0710920A0786EA90E00E94140625
:1058800010913A01812F0E94A20181E190E00E94D3
:10589000F40A0E94870962E070E0812F90E00E9484
:1058A000DC0C81EA96E00E947E0A855000E0883395
:1058B00020F082E580933A0101E010913A01812FB6
:1058C0000E94A20188E290E00E94F40A0E948709E7
:1058D00061E070E0812F90E00E94DC0C81EA96E0AC
:1058E0000E947E0A181619060CF4E8C0013009F06F
:1058F000E5C080E990E00E94140605E010E048EE63
:1059000053E060E070E088EE93E00E94680260ED92
:1059100077E080E090E00E94B0040150110979F72F
:105920008CE990E00E9414068E010D5B1F4F06501B
:105930001109C8010E94DA10E016F106C1F7809142
:105940007A0581110E946E170E94B50D00917705AE
:10595000109178050E94E2046B017C0181E0809344
:10596000760511278091770590917805081719071A
:1059700099F40E94B50D0E94E2046C197D098E090C
:105980009F09693B7B408105910560F38FEF90E0B3
:105990000E94140610927605E0907405F09075054B
:1059A0000091720510917305209170053091710579
:1059B000409177055091780560916E0570916F0563
:1059C00080916C0590916D050E94650600E010E0E5
:1059D0000E94021801151105D9F30E94760588234B
:1059E000B9F30E940000F4CF80EDC82E87E0D82ED6
:1059F00020CF1AE000E01ECF80EF0E943F01B12CC3
:105A000001E011E00E94EA00D82E0E94EA0021E0A5
:105A1000D2121FC08130E1F5113408F427CFC092B3
:105A20000907C11003C081E080930B078091010733
:105A3000882309F41BCFA1E0B7E0E2E6F5E08D9101
:105A4000819395E0EA36F907D1F781E0809361050B
:105A500017CFEB2DF0E0D81211C08091090718176D
:105A6000A8F4DF01A250B94F13968C91802381F4E2
:105A7000D12C193010F410930A07C12EE250F94FBF
:105A80008381902F9095892383830BC08113F0CF5E
:105A9000EB2DF0E0E250F94F8381802B8383DD24EE
:105AA000D3948D2D0E940F011F5F000F11F4B3944A
:105AB00001E087E08B1508F0A5CFAECF812F0E94C3
:105AC000A2018FE090E00E94F40A88E090E00E943A
:105AD000F40A0E948709812F0E94A20187E390E0C7
