:020000040000FA
:100000000C94AB000C94D3000C94D3000C94D3004C
:100010000C94D3000C94D3000C94D3000C9424249F
:100020000C94D3000C94D3000C94D3000C94732440
:100030000C94D3000C94D3000C94CE240C94D300D5
:100040000C94DA230C94D3000C94A8230C948223F0
:100050000C94D3000C94D3000C94D3000C94D300D4
:100060000C9429250C94D300496E636F72726563FA
:100070007420536F6E6720466F726D617421004665
:1000800061756C7479204453333233312100445309
:10009000333233315F543D0000000008000201009C
:1000A0000003040700000000000000000000000042
:1000B000250028002B00020100000000002400277A
:1000C000002A0053746F7020546573740054656D7A
:1000D000702E2073656E736F72206E6F7420666F62
:1000E000756E642E005374617274205465737400CD
:1000F0004669726D776172652076657273696F6E9D
:100100003A20005761726E696E6721205254432075
:10011000444F4E275420524553504F4E4421000027
:100120000000002300260029000404040404040441
:100130000402020202020203030303030301020496
:100140000810204080010204081020010204081059
:1001500020008126962B11241FBECFEFD8E0DEBFF2
:10016000CDBF26E0ACE0B4E001C01D92A63EB207D0
:10017000E1F714E0A0E0B1E0E8E8F1E602C00590A4
:100180000D92AC30B107D9F710E0CAEAD0E004C054
:100190002197FE010E94A32EC93AD107C9F70E94F8
:1001A0000C270C94B7300C9400008CBD9DBD0895B5
:1001B0008091CE06E091CF06F091D006F89491811F
:1001C000982B91832281382F309523232283A7E017
:1001D000B0E01197F1F7918193239183A3E2B0E00E
:1001E0001197F1F790817894EFECF0E03197F1F707
:1001F000982381E009F480E008959091CE06E09183
:10020000CF06F091D006292F209580FF14C0F894D6
:100210008281822382838181892B8183A3E2B0E062
:100220001197F1F78281982B9283789487ED90E073
:100230000197F1F70895F894828182238283818166
:10024000892B8183AFEFB0E01197F1F78281982B72
:10025000928378948FE090E0EBCF0F931F93CF932E
:10026000DF93082FC8E0D0E011E081E0902F9123C8
:1002700009F480E00E94FD00110F2197B1F7F89476
:10028000E091CF06F091D00691818091CE068095C5
:1002900098239183E091CF06F091D0069281892333
:1002A00082837894DF91CF911F910F91089580916F
:1002B000CE06E091CF06F091D006F8949181282FD8
:1002C00020959223918378943DE743E050E03150AC
:1002D00029F1DA011197F1F790819823C1F3F8948D
:1002E0009281922392839181982B91837894ABE7AA
:1002F000B7E01197F1F7F894918192239183A3E1EC
:10030000B1E01197F1F79081982381E009F080E046
:100310007894E3E6F6E03197F1F7089580E00895E8
:10032000089508950895AF92BF92CF92DF92EF9211
:10033000FF920F931F93CF93DF936C017B018B018F
:10034000040F151FEB015E01AE18BF08C017D107DF
:1003500059F06991D601ED91FC910190F081E02D69
:10036000C6010995892B79F7C501DF91CF911F91BE
:100370000F91FF90EF90DF90CF90BF90AF900895D6
:10038000FC01538D448D252F30E0842F90E0821B9B
:10039000930B541710F0CF96089501970895FC0120
:1003A000918D828D981761F0A28DAE0FBF2FB11D78
:1003B0005D968C91928D9F5F9F73928F90E00895D0
:1003C0008FEF9FEF0895FC01918D828D981731F08A
:1003D000828DE80FF11D858D90E008958FEF9FEFDE
:1003E0000895FC01918D228D892F90E0805C9F4FB4
:1003F000821B91098F739927089584ED95E00E94DF
:10040000F10121E0892B09F420E0822F089580E09A
:1004100090E0892B29F00E94FD0181110C940000CD
:100420000895FC01A48DA80FB92FB11DA35ABF4F89
:100430002C91848D90E001968F739927848FA689E3
:10044000B7892C93A089B1898C91837080648C9337
:10045000938D848D981306C00288F389E02D8081E6
:100460008F7D80830895EF92FF920F931F93CF9318
:10047000DF93EC0181E0888F9B8D8C8D98131AC0DF
:10048000E889F989808185FF15C09FB7F894EE89C6
:10049000FF896083E889F989808183708064808323
:1004A0009FBF81E090E0DF91CF911F910F91FF906E
:1004B000EF900895F62E0B8D10E00F5F1F4F0F7316
:1004C0001127E02E8C8D8E110CC00FB607FCFACFD1
:1004D000E889F989808185FFF5CFCE010E9411025C
:1004E000F1CFEB8DEC0FFD2FF11DE35AFF4FF082A2
:1004F0009FB7F8940B8FEA89FB8980818062CFCF08
:100500000F931F93CF93DF938C01D0E0C0E0F801ED
:10051000EC0FFD1F6491662341F084ED95E00E948D
:100520003302892B11F02196F2CFCE01DF91CF91CA
:100530001F910F910895CF93DF93EC01888D88234D
:10054000B9F0AA89BB89E889F9898C9185FD03C036
:10055000808186FD0DC00FB607FCF7CF8C9185FF1B
:10056000F2CF808185FFEDCFCE010E941102E9CF4D
:10057000DF91CF910895833081F028F4813099F094
:100580008230A9F008958730A9F08830C9F084300E
:10059000B1F4809180008F7D03C0809180008F77BF
:1005A00080938000089584B58F7784BD089584B5C5
:1005B0008F7DFBCF8091B0008F778093B00008953E
:1005C0008091B0008F7DF9CFCF93DF93282F30E05B
:1005D000F901E856FF4F8491F901E35CFE4FD49195
:1005E000F901E75DFE4FC491CC23A1F081110E9477
:1005F000BB02EC2FF0E0EE0FFF1FE15EFE4FA59176
:10060000B491EC91ED2381E090E009F480E0DF917A
:10061000CF91089580E090E0FACF1F93CF93DF93BE
:10062000282F30E0F901E856FF4F8491F901E35C8F
:10063000FE4FD491F901E75DFE4FC491CC23A9F0A0
:10064000162F81110E94BB02EC2FF0E0EE0FFF1F6E
:10065000E455FF4FA591B4918FB7F894EC91111127
:1006600008C0D095DE23DC938FBFDF91CF911F911F
:100670000895DE2BF8CFCF93DF9390E0FC01E35C8D
:10068000FE4F2491875D9E4FFC0184918823C9F021
:1006900090E0880F991FFC01E754FF4FA591B4919A
:1006A000FC01E455FF4FC591D49161110DC09FB776
:1006B000F8948C91209582238C9388812823288319
:1006C0009FBFDF91CF910895623051F49FB7F894A6
:1006D0003C91822F809583238C93E8812E2BEFCF42
:1006E0008FB7F894EC912E2B2C938FBFEACF4F92BB
:1006F0005F926F927F928F929F92AF92BF92CF92B2
:10070000DF92EF92FF920F931F93CF93DF9300D06E
:1007100000D01F92CDB7DEB72091D30527FD2CC1A5
:1007200049835A836B837C838C0161E08091D2057D
:100730000E943B038091D3058D834801B12CA12CED
:100740008D7F09F031C160E072E18AE790E0A50198
:1007500098010E94842E29013A017A01690191E0F1
:10076000C91AD108E108F108AFEFCA16D104E104B3
:10077000F10409F00CF4C7C060E472E48FE090E08B
:10078000A50198010E94842E69017A01B1E0CB1A7B
:10079000D108E108F1088D81823009F06AC082E059
:1007A0009FEFC916D104E104F10409F00CF45EC115
:1007B00060E970ED83E090E0A50198010E94842E2D
:1007C00069017A01A1E0CA1AD108E108F10883E0C1
:1007D000BFEFCB16D104E104F10409F00CF446C1DB
:1007E00068E478EE81E090E0A50198010E94842EF3
:1007F00069017A0181E0C81AD108E108F10884E0B2
:100800009FEFC916D104E104F10409F00CF42EC1E4
:1008100064E274EF80E090E0A50194010E94842ED0
:1008200069017A01B1E0CB1AD108E108F10885E04D
:100830009FEFC916D104E104F10409F008F416C1D0
:1008400062E17AE780E090E0A50194010E94842EA5
:1008500069017A01B1E0CB1AD108E108F1088FEF04
:10086000C816D104E104F10411F008F0F0C086E0EC
:10087000FDC08FEFC816D104E104F10409F00CF4B7
:1008800091C068E478EE81E090E0A50198010E94B3
:10089000842E69017A0191E0C91AD108E108F108B2
:1008A000AD8184E0A111C4CF83E0AFEFCA16D104BB
:1008B000E104F10461F15CF162E17AE780E090E04B
:1008C000A50194010E94842E69017A0181E0C81A71
:1008D000D108E108F10884E09FEFC916D104E104D2
:1008E000F104A9F0A0F0730162019AE0F594E79495
:1008F000D794C7949A95D1F7A1E0CA1AD108E10814
:10090000F10885E004C081E0AD81A111AFC095B5CB
:10091000987F892B85BD89819A81AB81BC812FEF1E
:100920003FEFA901892B8A2B8B2B79F0D801AA0FD5
:10093000BB1F29813A814B815C810E94492D28EEA1
:1009400033E040E050E00E94622E9D81913009F436
:100950005CC0923009F46BC091110EC0C7BC2093EB
:10096000CE053093CF054093D0055093D1058091AB
:100970006E00826080936E000F900F900F900F902A
:100980000F90DF91CF911F910F91FF90EF90DF902B
:10099000CF90BF90AF909F908F907F906F905F901F
:1009A0004F90089582E0B0CF60E072E18AE790E076
:1009B000A50198010E94842E69017A01B1E0CB1A49
:1009C000D108E108F10891E0C114D10481E0E80602
:1009D000F10484F068E478EE81E090E0A5019801EC
:1009E0000E94842E69017A0191E0C91AD108E108B8
:1009F000F10893E0AD81A13009F08DCF80918100A5
:100A0000887F892B8093810086CFD0928900C09205
:100A100088002093CA053093CB054093CC055093B2
:100A2000CD0580916F00826080936F00A5CFC0924A
:100A3000B3002093C6053093C7054093C805509373
:100A4000C9058091700082608093700095CF73011A
:100A500062018AE0F594E794D794C7948A95D1F718
:100A6000B1E0CB1AD108E108F10887E09091B1001C
:100A7000987F892B8093B1004ECF1F93CF93DF9344
:100A8000182FEB0161E00E943B03209739F460E0EE
:100A9000812FDF91CF911F910C940D03CF3FD10592
:100AA00011F461E0F5CFE12FF0E0E856FF4FE4915B
:100AB000E33031F140F4E130B1F0E230E1F0C03840
:100AC000D1057CF7E4CFE73029F1E83059F1E43083
:100AD000B1F780918000806280938000D0938B007A
:100AE000C0938A0004C084B5806884BDC7BDDF910F
:100AF000CF911F91089584B5806284BDC8BDF7CFA2
:100B000080918000806880938000D0938900C0939A
:100B10008800EDCF8091B00080688093B000C093D2
:100B2000B300E5CF8091B00080628093B000C093A5
:100B3000B400DDCF3FB7F894809127059091280548
:100B4000A0912905B0912A0526B5A89B05C02F3F85
:100B500019F00196A11DB11D3FBFBA2FA92F982FE3
:100B60008827BC01CD01620F711D811D911D42E0DE
:100B7000660F771F881F991F4A95D1F708958F92A6
:100B80009F92AF92BF92CF92DF92EF92FF924B0172
:100B90005C010E949A056B017C010E949A056C1908
:100BA0007D098E099F09683E734081059105A8F370
:100BB00021E0821A9108A108B10888EEC80E83E0EE
:100BC000D81EE11CF11C81149104A104B10429F781
:100BD000FF90EF90DF90CF90BF90AF909F908F905D
:100BE00008952FB7F89460912305709124058091A2
:100BF0002505909126052FBF0895609317057093E2
:100C000018058093190590931A05645D7E4F8F4FE8
:100C10009F4F60931305709314058093150590936F
:100C2000160582E090E090931205809311050E94D2
:100C3000F10560930D0570930E0580930F05909359
:100C4000100508952F923F924F925F926F927F927C
:100C50008F929F92AF92BF92CF92DF92EF92FF92CC
:100C60000F931F93CF93DF93382E962E842E222E30
:100C700084E6E816F1040CF459C092EBE91A97E007
:100C8000F90AE09221050093200520921F05309279
:100C90001D0590921C0580921B05AE2DB0E020E84A
:100CA00033E341EE51E00E94492D2B013C0122EB40
:100CB00037E0FF24E4E6F0E0C0E9D1E0C901825B5F
:100CC00097408E159F05B4F19EE4E91A98EFF90A52
:100CD000C70164E670E00E944E2E6C01C70160E916
:100CE00071E00E944E2E5C01C7EBD2E0E1E0F0E043
:100CF000112783E0E822FF24E017F1070CF042C03F
:100D0000E230F10591F5E114F10479F5C114D10453
:100D100019F4A114B10449F580E8480E8BE3581E7C
:100D200086E2681E711C31962196E6CF8EE1E80EB0
:100D3000F11CA7CFC90183709927892B99F4C901A8
:100D4000BF010E944E2E892B31F4C901BE010E94C1
:100D50004E2E892B39F490E8490E91E5591E91E009
:100D6000691E711C2F5F3F4FA9CFA881B0E020E81A
:100D700031E541E050E00E94492D460E571E681EA5
:100D8000791ED1CF292D30E0ACE3B0E00E948B2D4D
:100D90006B017C01C80CD11CE11CF11C232D30E03F
:100DA000A0E1BEE00E948B2DC60ED71EE81EF91EE4
:100DB000822D8150990BDC0120E831E541E050E0C3
:100DC0000E94A92E6C0D7D1D8E1D9F1D640D751D2D
:100DD000861D971DDF91CF911F910F91FF90EF908E
:100DE000DF90CF90BF90AF909F908F907F906F904B
:100DF0005F904F903F902F900C94FD05CF92DF9223
:100E0000EF92FF920F931F930E94F1058B019C01BB
:100E1000C0900D05D0900E05E0900F05F0901005E4
:100E200060911705709118058091190590911A0528
:100E30000C191D092E093F09083E134021053105F3
:100E4000E0F0DC01CB010196A11DB11D80931705D7
:100E500090931805A0931905B0931A05B701A60140
:100E600048515C4F6F4F7F4F40930D0550930E05D7
:100E700060930F0570931005C7CF1F910F91FF90DE
:100E8000EF90DF90CF9008954F925F926F927F9294
:100E90008F929F92AF92BF92CF92DF92EF92FF928A
:100EA0000F931F93CF93DF934B015C018091090552
:100EB00090910A05A0910B05B0910C058815990534
:100EC000AA05BB0509F4C6C08CE3C82ED12CE12CC1
:100ED000F12CC501A70196010E94622E60931B05AB
:100EE000CA01B901A70196010E94622E60931C05F8
:100EF000C501B40120E13EE040E050E00E94622ED6
:100F0000CA01B90128E130E040E050E00E94622EC1
:100F100060931D05C501B40120E831E541E050E0D2
:100F20000E94622E69017A01CA01B9016C5F7F4F8C
:100F30008F4F9F4F27E030E040E050E00E94622E4C
:100F40006F5F60931E05412C512C320140E004E696
:100F500010E0C0E9D1E0242F30E02E54384FF901E1
:100F6000E370FF273097F9F4C901B8010E944E2EB3
:100F7000892B31F4C901BE010E944E2E892B99F4B0
:100F80008EE691E0A0E0B0E0480E591E6A1E7B1E7E
:100F9000D301C201AA27BB27C816D906EA06FB0659
:100FA00038F04F5FD8CF8DE691E0A0E0B0E0ECCF15
:100FB00040932105C90164E670E00E944E2EEC01C9
:100FC000C90160E971E00E944E2E309721F420970C
:100FD000D9F40097C9F04DE651E060E070E0441AA2
:100FE000550A660A770AC418D508E608F708A7EB79
:100FF000B2E020E0213069F43097E9F5209711F450
:101000000097C9F54DE106C04EE651E060E070E0A2
:10101000E6CF4C9150E070E060E031E0320FC41652
:10102000D506E606F70640F0C41AD50AE60AF70A1E
:101030001196232F3C30F1F62F5F20932005C394A7
:10104000C0921F058092090590920A05A0920B0597
:10105000B0920C05DF91CF911F910F91FF90EF900F
:10106000DF90CF90BF90AF909F908F907F906F90C8
:101070005F904F9008954CE1CDCF0E94FE060E94F4
:1010800044078091210590E08E54984F08950E9466
:10109000FE060E9444078091200590E008950E947A
:1010A000FE060E94440780911F0590E008950E946B
:1010B000FE060E94440780911B0590E008950E945F
:1010C000FE060E94440780911C0590E008950E944E
:1010D000FE060E94440780911D0590E00895CF927E
:1010E000DF92EF92FF92CF93DF93EC010E94F10524
:1010F0006B017C018F850E94E4029C0181E0211537
:10110000310509F480E0898B8889811105C091E05F
:10111000232B09F090E0998B29898A89281721F0DF
:10112000CD8ADE8AEF8AF88E8D899E89AF89B88D47
:10113000B701A601481B590B6A0B7B0BDB01CA01E7
:10114000CB80DC80ED80FE80C816D906EA06FB065F
:1011500064F43A81231749F02A83222349F04B890A
:101160005C894F5F5F4F5C8B4B8B3A81311117C0AD
:10117000CF80D884E984FA84C816D906EA06FB062B
:1011800034F48B899C89998388831C8A1B8A2A8BD7
:10119000DF91CF91FF90EF90DF90CF900895CB84B7
:1011A000DC84ED84FE84C816D906EA06FB067CF7CB
:1011B0008B899C89919581959109E5CF2091E604D1
:1011C000260F3327331F21323105ECF420919C0583
:1011D000FC0190E080E0243069F082E00895A09165
:1011E000E6042191AC014A535B4FA40FB52FB11D0A
:1011F0002C930196861798F38091E604680F60930C
:10120000E60480E0089581E0089510929C0581E055
:1012100080939B051092760561E082E10E940D03A8
:1012200061E083E10E940D03E9EBF0E080818E7FB5
:10123000808380818D7F808388E48093B80085E4FB
:101240008093BC000895CF93DF9391E09093C50401
:101250008823B9F0C091B800D091BA008091BC0049
:101260008A7B8093BC0060E082E10E940D0360E015
:1012700083E10E940D030E940509D093BA00C09338
:10128000B800DF91CF910895CF92DF92EF92FF9255
:101290000F931F93CF93DF93D091C50581E0D13297
:1012A00008F09CC0C091C4050E949A056B017C01A6
:1012B00080919C0581116CC082E080939C0581E047
:1012C00080939B058FEF80939A0510929905D09398
:1012D0009805A4EAB5E0E8E7F5E080E0D8138DC012
:1012E0001092770580917705CC0FC82BC0937705B6
:1012F00080917605813009F084C0109276050E94B5
:101300009A056B017C01809177058093BB008091E9
:101310009E0590919F05A091A005B091A105892BF4
:101320008A2B8B2BA1F00E949A0500919E051091AB
:101330009F052091A0053091A1056C197D098E09AA
:101340009F09061717072807390708F442C080913C
:10135000BC0083FDD8CF85EC8093BC000E949A0529
:101360006B017C0180919C05823009F44CC0809116
:101370009A058F3F09F469C080919A05803209F47B
:1013800066C080919A05803309F463C084E026C06A
:1013900080919E0590919F05A091A005B091A10517
:1013A000892B8A2B8B2B09F483CF0E949A050091FD
:1013B0009E0510919F052091A0053091A1056C1903
:1013C0007D098E099F09061717072807390708F0B6
:1013D0006FCF80919D050E94230985E01092A3059F
:1013E0001092C5051092A205DF91CF911F910F9128
:1013F000FF90EF90DF90CF9008959D9191938F5F34
:101400006DCF85EEA9CF80919E0590919F05A0910B
:10141000A005B091A105892B8A2B8B2B09F4A2CFB3
:101420000E949A0500919E0510919F052091A005AC
:101430003091A1056C197D098E099F0906171707C0
:101440002807390708F08ECFC4CF80E0C7CF82E0ED
:10145000C5CF83E0C3CFCF92DF92EF92FF920F937D
:101460001F93CF93DF93D82FC62F613208F098C017
:101470000E949A056B017C0180919C0581116BC0D3
:1014800081E080939C0580939B059FEF90939A0544
:10149000109299059C0F9093980580937705809101
:1014A0007705DD0FD82BD0937705809176058130B5
:1014B00009F078C0109276050E949A056B017C01B4
:1014C000809177058093BB0080919E0590919F0548
:1014D000A091A005B091A105892B8A2B8B2BA1F09F
:1014E0000E949A0500919E0510919F052091A005EC
:1014F0003091A1056C197D098E099F090617170700
:101500002807390708F448C08091BC0083FDD8CF74
:1015100085EC8093BC000E949A056B017C01809150
:101520009C05813009F440C0809199058C1710F416
:10153000C0919905E8E7F5E0A6E5B5E080E08C13F9
:1015400055C08C2FDF91CF911F910F91FF90EF909D
:10155000DF90CF90089580919E0590919F05A09176
:10156000A005B091A105892B8A2B8B2B09F484CF80
:101570000E949A0500919E0510919F052091A0055B
:101580003091A1056C197D098E099F09061717076F
:101590002807390708F070CF80919D050E94230924
:1015A000C0E0CFCF85EEB5CF80919E0590919F058D
:1015B000A091A005B091A105892B8A2B8B2B09F452
:1015C000AECF0E949A0500919E0510919F05209133
:1015D000A0053091A1056C197D098E099F09061798
:1015E00017072807390708F09ACFD6CF91919D9316
:1015F0008F5FA5CF0895E091300580912F05E81702
:1016000030F4F0E0EA5AFA4F808190E008958FEFCD
:101610009FEF08959091300580912F052FEF3FEFB8
:10162000981748F4E92FF0E0EA5AFA4F208130E0A9
:101630009F5F90933005C901089580912F05909187
:101640003005891B990B0895CF92DF92EF92FF929C
:101650000F931F93CF93DF937C01CB018A012091DD
:10166000A205222389F0EB016B01C40ED51ECC1517
:10167000DD0569F06991D701ED91FC910190F08150
:10168000E02DC7010995F3CF642F0E94DE08C80141
:10169000DF91CF911F910F91FF90EF90DF90CF904E
:1016A0000895CF93DF931F92CDB7DEB76983209162
:1016B000A2052223F9F02091C505203258F021E03F
:1016C00030E0FC013383228390E080E00F90DF91D3
:1016D000CF9108958091A305E82FF0E0EC55FA4FE3
:1016E000998190838F5F8093A3058093C50581E0E6
:1016F00090E0ECCF61E0CE0101960E94DE08F7CFCA
:1017000090E080E00895CF92DF92EF92FF920F93E6
:101710001F93CF93DF939091C40491110BC08FEF6F
:101720009FEFDF91CF911F910F91FF90EF90DF908E
:10173000CF9008959091C304992389F3082FC09105
:10174000C204D0E08091BA0481110DC00E94F1055D
:101750006093B6047093B7048093B8049093B9046F
:1017600081E08093BA040E94F105C090B604D09045
:10177000B704E090B804F090B9046C197D098E09A3
:101780009F096D32714081059105B0F01091B5044B
:101790000E94F1056093B6047093B7048093B80477
:1017A0009093B90491E091279093B504992331F176
:1017B0001092B4041092B3042091B3043091B40495
:1017C000209530958091B204282326FF1CC081E02B
:1017D0008093B10427FF1AC081E08093B004809108
:1017E000B504882309F49BCF02C0D595C7950A9507
:1017F000E2F7C0FF94CF80E09CE393CFD093B40492
:10180000C093B304D9CF1092B104E4CF1092B004C6
:10181000E6CFEF92FF920F931F93CF93DF93E82EC3
:101820000E9457018CEC0E942D0184E40E942D013E
:101830000E9457018CEC0E942D018EEB0E942D011D
:1018400008E010E0D0E0C1E00E94D8008111DC2B5C
:10185000CC0F01501109C1F708E010E0C0E0FF24EF
:10186000F3940E94D8008111CF29FF0C0150110977
:10187000C1F77C2F6D2F6F3F760711F470E060E0A9
:10188000072E000C880B990B0E94162C20E030E0EC
:1018900040E85DE30E94752CE1100DC020E030E0CF
:1018A00040E251E40E94752CDF91CF911F910F917E
:1018B000FF90EF90089526E636E646EE5FE30E943D
:1018C000752C20E030E040E052E40E949B2DE6CFF2
:1018D0000F931F938091570190915801892B09F420
:1018E00049C0809183048823A9F00E94F1050091EA
:1018F0007F04109180042091810430918204601B48
:10190000710B820B930B693E73408105910590F139
:10191000109283040E946708209151013091520176
:101920008217930739F50E945F0820915301309187
:10193000540182179307F1F40E9457082091550132
:101940003091560182179307A9F40E94F105609324
:101950007F0470938004809381049093820481E0DB
:1019600080938304809134019091350190934705D1
:10197000809346051F910F910895CF93DF93EC015B
:101980002196FC0120812A33C9F42181243609F5EE
:10199000229630E020E06AE0899190ED980F9A302D
:1019A00078F4629FA001639F500D1124082E000C53
:1019B000990BC0979A01280F391FEECFCE01DFCFC8
:1019C00030937704209376042115310511F020938C
:1019D000330188818F3689F48A81082E000C990B97
:1019E0009C01205331093093770420937604C397E8
:1019F000059710F420933201249688818236F1F401
:101A0000229630E020E06AE0899190ED980F9A30BC
:101A100068F4629FA001639F500D1124082E000CF2
:101A2000990BC0979A01280F391FEECF3093770496
:101A300020937604309331012093300120913001BE
:101A400030913101032E000C440B550B60E67AEE09
:101A500080E090E00E94842E82E0220F331F441F1A
:101A6000551F8A95D1F720937204309373044093E5
:101A7000740450937504CE01DF91CF9108958EBD0B
:101A800000000DB407FEFDCF8EB50895CF9381E021
:101A90008093A20588E68093C4051092A305109256
:101AA000C50560E081E796E00E94510B0E94440961
:101AB00067E088E60E942B0A1092300580932F057C
:101AC00081E796E00E940A0B982F92959F70CAE0DA
:101AD0008F709C9F800D112490E09093540580930B
:101AE000530581E796E00E940A0B982F92959F700C
:101AF0008F709C9F800D112490E090934B058093F4
:101B00004A0581E796E00E940A0B982F9295937000
:101B10008F709C9F800D112490E0909349058093D5
:101B2000480581E796E00E940A0B81E796E00E9453
:101B30000A0B982F92959F708F709C9F800D112497
:101B400090E090934D0580934C0581E796E00E94CC
:101B50000A0B982F92959F708F709C9F800D112477
:101B600090E090934F0580934E0581E796E00E94A8
:101B70000A0B982F92959F708F709C9F800D112457
:101B800090E09093510580935005CF910895FC010A
:101B900001900020E9F73197AF01481B590BBC01B8
:101BA00084ED95E00C949301CF93DF930E94800223
:101BB000EC018FE093E00E94C70D8C0F9D1FDF9119
:101BC000CF910895CF93DF93FC01448155816081CB
:101BD000718184ED95E00E949301EC018FE093E028
:101BE0000E94C70D8C0F9D1FDF91CF910895BF926A
:101BF000CF92DF92EF92FF920F931F93CF93DF93D9
:101C0000CDB7DEB7A1970FB6F894DEBF0FBECDBF3C
:101C100081E08093A20588E68093C4051092A30515
:101C20001092C50561E181E796E00E94510B0E9488
:101C3000440962E088E60E942B0A109230058093E6
:101C40002F0581E796E00E940A0BB82E8EE890E0FF
:101C50000E948002CB2C0B2C000CDD08EE08FF0844
:101C6000F7FE59C06DE284ED95E00E943302222711
:101C70003327A9012C193D094E095F0919A28E01CC
:101C80000F5D1F4F9AE0C92ED12CE12CF12CCA0117
:101C9000B901A70196010E94622E605DF80162936E
:101CA0008F01211531054105510589F701151105F0
:101CB00019F0C8010E94C70D8FE093E00E94C70D84
:101CC0008BEF8B0D8833B8F08FE790E00E94D40D36
:101CD00005E010E048EE53E060E070E088EE93E04D
:101CE0000E94770360ED77E080E090E00E94BF05FE
:101CF0000150110979F7A1960FB6F894DEBF0FBE17
:101D0000CDBFDF91CF911F910F91FF90EF90DF90AA
:101D1000CF90BF900895A701960119A28E010F5D83
:101D20001F4F8AE0C82ED12CE12CF12CCA01B90139
:101D3000A70196010E94622E605DF80162938F01F7
:101D4000211531054105510589F7B0CFFC0180818E
:101D50009181009711F00C949E2B60E070E0CB0114
:101D600008954F925F926F927F928F929F92AF925F
:101D7000BF92CF92DF92EF92FF92CF93DF93CDB7D6
:101D8000DEB72D970FB6F894DEBF0FBECDBF0E9411
:101D90009A05C090AC04D090AD04E090AE04F090F1
:101DA000AF046C197D098E099F096E34734C81054F
:101DB000910508F499C10E949A056093AC04709350
:101DC000AD048093AE049093AF0488EC96E00E943B
:101DD000A60E69837A838B839C8360E08AE00E94ED
:101DE0000D038AE0C82ED12CE12CF12C69817A8177
:101DF0008B819C81A70196010E94842E49015A0182
:101E0000660F771F6D557D4FDB014D905C9085E02F
:101E100090E00E94830B3C01C501B401A70196012B
:101E20000E94842E660F771F6D557D4FFB018080C9
:101E3000918084E090E00E94830B5C0169817A814B
:101E40008B819C8124E630E040E050E00E94842EAB
:101E5000CA01B901A70196010E94842E660F771F5F
:101E60006D557D4FDB01ED90FC9083E090E00E948A
:101E7000830B46205720712C612C44E1440C551CE7
:101E8000661C771C4A95D1F78E219F21B0E0A0E017
:101E900073016201C82AD92AEA2AFB2A8A209B20D8
:101EA000B12CA12C5AE0880C991CAA1CBB1C5A9579
:101EB000D1F7C828D928EA28FB2869817A818B8143
:101EC0009C8128EE33E040E050E00E94842E2901FE
:101ED0003A018091B104882309F4E4C06894F6F8CB
:101EE0008091B004882309F4E0C06894F7F8B091B9
:101EF0003C05BD878F2D9927AA27BB278D839E83FD
:101F0000AF83B8874701AA24BB24BB27AF2D9E2DE2
:101F10008D2D89879A87AB87BC879D85992309F486
:101F2000C7C08C2D0E943F0D89850E943F0D882DD2
:101F30000E943F0D8D810E943F0D3AE0832E912C2F
:101F4000A12CB12CC301B201A50194010E94842EE1
:101F5000660F771F6D557D4FDB01CD90DC9082E0E1
:101F600090E00E94830B7C0169817A818B819C8146
:101F700020E137E240E050E00E94842ECA01B9011E
:101F8000A50194010E94842E660F771F6D557D4F29
:101F9000FB016080718081E090E00E94830BCE2085
:101FA000DF20F12CE12C64E1CC0CDD1CEE1CFF1CCD
:101FB0006A95D1F786219721B0E0A0E07AE0880FFA
:101FC000991FAA1FBB1F7A95D1F7C82AD92AEA2AD6
:101FD000FB2A69817A818B819C8120EA36E841E085
:101FE00050E00E94842ECA01B901A50194010E940B
:101FF000842E660F771F6D557D4FDB01AD90BC9031
:1020000090E080E00E94830B8A219B21B0E0A0E059
:102010008C299D29AE29BF292091B1046C017D0135
:10202000222309F450C06894F6F88091B004882304
:1020300009F44CC06894F7F84F2C55246624772493
:102040004701AA24BB24BB27AF2D9E2D8D2D89834C
:102050009A83AB83BC839D859923D9F18C2D0E94F3
:102060003F0D89810E943F0D882D0E943F0D842DD8
:102070000E943F0D61E08AE02D960FB6F894DEBF16
:102080000FBECDBFDF91CF91FF90EF90DF90CF904B
:10209000BF90AF909F908F907F906F905F904F9088
:1020A0000C940D03E894F6F81BCFE894F7F81FCFD3
:1020B0008D810E943F0D882D0E943F0D89850E94D1
:1020C0003F0D8C2D38CFE894F6F8AFCFE894F7F8B1
:1020D000B3CF842D0E943F0D882D0E943F0D898132
:1020E0000E943F0D8C2DC4CF2D960FB6F894DEBF05
:1020F0000FBECDBFDF91CF91FF90EF90DF90CF90DB
:10210000BF90AF909F908F907F906F905F904F9017
:1021100008950F931F93CF93DF938C01EB01FC0184
:10212000808191810097E1F0688179816115710565
:10213000A9F0428153812C813D814217530770F0F1
:102140000E94B0308C819D81F801958384831D822B
:102150001C82DF91CF911F910F9108950E94612FF2
:1021600088819981F801918380838A819B819383FF
:1021700082838C819D8195838483198218821B823E
:102180001A82E5CFCF93DF93EC0188819981009784
:1021900011F00E94612F198218821D821C821B82FD
:1021A0001A82DF91CF910895FC018081918100977F
:1021B00011F00C94612F08950F931F93CF93DF9329
:1021C000EC0188819981009759F02A813B8126177B
:1021D000370730F081E0DF91CF911F910F91089583
:1021E0008B016F5F7F4F0E94EA2F009759F0998310
:1021F00088831B830A832C813D81232B59F7FC01A3
:102200001082E8CF80E0E7CFEF92FF920F931F9309
:10221000CF93DF936115710541F480E0DF91CF9199
:102220001F910F91FF90EF90089541155105B1F066
:102230007B01EC010C811D81040F151FB8010E9468
:10224000DC10882351F3288139818C819D81B7016D
:10225000820F931F0E94B0301D830C8381E0DECF7C
:10226000CF93DF93EC01FB0101900020E9F7319758
:10227000AF01461B570B0E940411811103C0CE0110
:102280000E94C210CE01DF91CF910895CF93DF93CA
:10229000EC01FB0144815581608171810E94041130
:1022A000811103C0CE010E94C210CE01DF91CF91F7
:1022B0000895EF92FF920F931F93CF93DF93EC015A
:1022C0007B018A01BA010E94DC1081110BC0CE0192
:1022D0000E94C210CE01DF91CF911F910F91FF900C
:1022E000EF9008951D830C83B701888199810E9426
:1022F000B030F0CFFB0101900020E9F73197AF013A
:10230000461B570B0C9459110F931F93CF93DF93D8
:10231000CDB7DEB762970FB6F894DEBF0FBECDBF64
:102320008C01CB01F8011182108213821282158276
:1023300014824AE0BE016F5F7F4F0E94C52BBE0131
:102340006F5F7F4FC8010E947A1162960FB6F894B2
:10235000DEBF0FBECDBFDF91CF911F910F910895CA
:10236000CF93DF93EC01FB018617970749F060815B
:1023700071816115710541F0448155810E945911A7
:10238000CE01DF91CF9108950E94C210F9CFFC01D8
:102390001182108213821282158214820C94B01161
:1023A000FC01118210821382128215821482FB01B9
:1023B00001900020E9F73197AF01461B570B0C94B1
:1023C0005911AF92BF92CF92DF92EF92FF920F938B
:1023D0001F93CF93DF936C015B017A01890124176E
:1023E000350720F48F2D7901042F182F61E173E058
:1023F000C6010E94D011D5011496CD91DC91EC1646
:10240000FD06E0F40C171D0708F4E801D501ED9175
:10241000FC911197EC0FFD1F108110826D917C9142
:102420006E0D7F1DC60161157105A1F00E947A1124
:10243000F50180819181C80FD91F1883C601DF91F2
:10244000CF911F910F91FF90EF90DF90CF90BF90B1
:10245000AF9008950E94C210EBCF4F925F926F929F
:102460007F928F929F92AF92BF92CF92DF92EF9224
:10247000FF920F931F93CF93DF9300D000D000D033
:10248000CDB7DEB77C014B015A01809191048111D7
:102490003AC081E0809391049BE8692E94E0792E04
:1024A00025E8422E24E0522E10E000E00F5F1F4F7F
:1024B000680181E0C81AD1089801A601B401CE01D3
:1024C00001960E94E111CE0101960E94A60ED30151
:1024D0006D933D01CE0101960E94D4109801A60192
:1024E000B501CE0101960E94E111CE0101960E9434
:1024F000A60EF20161932F01CE0101960E94D41025
:102500000630110599F6909184048BE8C82E84E07A
:10251000D82EE5E8F4E08601A801D8018C919A3024
:1025200008F04DC08F5F8C930F5F1F4FDA018C91C5
:102530008A3019F4D80111971C923196B4E0013910
:102540001B0751F79F5F943109F43FC090938404B7
:1025500061E173E0C7010E94D011FE0131965F0175
:10256000D6018D916D014AE0B50190E00E94C52B26
:10257000F50101900020E9F73197AF014A195B0995
:10258000B501C7010E9404110C151D0549F7C701CB
:1025900026960FB6F894DEBF0FBECDBFDF91CF9168
:1025A0001F910F91FF90EF90DF90CF90BF90AF9071
:1025B0009F908F907F906F905F904F9008952081B3
:1025C000281709F4B1CF8F5FAECF10928404109218
:1025D0009104BECFCF92DF92EF92FF921F93CF93E1
:1025E000DF93CDB7DEB72C970FB6F894DEBF0FBEE2
:1025F000CDBF182F6AE573E0CE0107960E94D01177
:1026000022E030E050E040E0133071F024E030E0B0
:1026100042E050E01C3041F01033B9F42091CC0678
:102620003091CD0644E050E068EC76E0CE010196B2
:102630000E94E111BE016F5F7F4FCE0107960E949D
:102640008910CE0101960E94D410CE0107960E94F7
:10265000A60E6B01CE0107960E94D410C6012C96DF
:102660000FB6F894DEBF0FBECDBFDF91CF911F91A3
:10267000FF90EF90DF90CF9008950F931F93CF932B
:10268000DF93CDB7DEB762970FB6F894DEBF0FBE0B
:10269000CDBF8C0177FF03C07195619571096A30D8
:1026A0007105A4F5CE010D960E94841167E173E0D7
:1026B000CE0101960E94D011BE016F5F7F4FCE0107
:1026C00007960E94C711BE01635F7F4FCE01079638
:1026D0000E944611BC01C8010E94C711CE01079695
:1026E0000E94D410CE0101960E94D410CE010D9606
:1026F0000E94D410C80162960FB6F894DEBF0FBED8
:10270000CDBFDF91CF911F910F910895C8010E9415
:102710008411F0CF0F931F93CF93DF93CDB7DEB724
:1027200068970FB6F894DEBF0FBECDBF8B01833024
:1027300079F52091CC063091CD0642E050E068EC6E
:1027400076E0CE010D960E94E111B801CE0101960E
:102750000E943D13BE016F5F7F4FCE0107960E941E
:10276000C711BE01635F7F4FCE0107960E944611DD
:10277000BC0188EC96E00E94B011CE0107960E9441
:10278000D410CE0101960E94D410CE010D9644C003
:102790008C3009F04EC02091CC063091CD0644E03B
:1027A00050E068EC76E0CE0143960E94E111B8015A
:1027B000CE010D960E943D1322E030E050E040E053
:1027C00068EC76E0CE0101960E94E111BE016F5FD8
:1027D0007F4FCE0107960E94C711BE01635F7F4FF6
:1027E000CE0107960E944611BE016D5E7F4F0E948A
:1027F0004611BC0188EC96E00E94B011CE0107960C
:102800000E94D410CE0101960E94D410CE010D96E4
:102810000E94D410CE0143960E94D41068960FB641
:10282000F894DEBF0FBECDBFDF91CF911F910F9106
:102830000895803399F7CE010D960E943D1324E050
:1028400030E050E040E068EC76E0CE0101960E9476
:10285000E11180CF0E94F10560937B0470937C04AA
:1028600080937D0490937E0480917A04882309F4F8
:102870004FC02091780430917904C901880F991FC5
:1028800021313105A1F1FC01E95CFE4F408151810C
:102890004150510951834083DC01A95CBE4F6D91C9
:1028A0007C911197FC01ED53FD4F408151816417DC
:1028B00075073CF4FC01E558FD4F408151814D9373
:1028C0005C932031310509F5209157013091580171
:1028D00021303105B9F420E82093B204895C9E4F81
:1028E000FC01608171818091C2040C948A13409133
:1028F000590150915A014C50510950935A0140933B
:102900005901CACF1092B204E9CF2930310531F70D
:1029100008950E94F10560937B0470937C0480937A
:102920007D0490937E0480917A04882309F444C046
:102930002091780430917904C901880F991F2131C1
:10294000310561F1FC01E95CFE4F408151814F5F2F
:102950005F4F51834083DC01A95CBE4F6D917C9138
:102960001197FC01E558FD4F4081518146175707EB
:102970003CF4FC01ED53FD4F408151814D935C933C
:1029800020313105B1F41092B204895C9E4FFC01F4
:10299000608171818091C2040C948A134091590125
:1029A00050915A01445F5F4F50935A01409359012F
:1029B000D2CF2930310549F708950F931F93CF9354
:1029C000DF93CDB7DEB768970FB6F894DEBF0FBEC2
:1029D000CDBF8C018091590190915A01489709F01F
:1029E00048C00E945708BC01CE0143960E943D1387
:1029F0000E945F08BC01CE010D960E943D130E940B
:102A00006708BC01CE0101960E943D13BE016F5FB5
:102A10007F4FCE0107960E94C711BE01635F7F4FB3
:102A2000CE0107960E944611BE016D5E7F4F0E9447
:102A30004611BC01C8010E94C711CE0107960E9431
:102A4000D410CE0101960E94D410CE010D960E94A2
:102A5000D410CE0143960E94D410C80168960FB6D8
:102A6000F894DEBF0FBECDBFDF91CF911F910F91C4
:102A700008950E945708BC01CE0143960E943D1361
:102A80000E945F08BC01CE010D960E943D130E947A
:102A9000FE060E94440780911D056CE070E08823CB
:102AA00009F4B0CF682F70E08D3008F4ABCF6C50D4
:102AB0007109A8CF8F929F92AF92BF92CF92DF926F
:102AC000EF92FF920F931F93CF93DF93CDB7DEB7B3
:102AD0002C970FB6F894DEBF0FBECDBF8C016A01F4
:102AE0007B018091A404811111C00E94F105645BF7
:102AF0007B4F8F4F9F4F6093A0047093A1048093EE
:102B0000A2049093A30481E08093A404809198048C
:102B1000811109C062E173E082E994E00E94D01162
:102B200081E0809398040E94F1058090A004909029
:102B3000A104A090A204B090A304681979098A099D
:102B40009B09693E73408105910508F4D0C00E943D
:102B5000F1056093A0047093A1048093A204909364
:102B6000A30420E030E0A901C701B6010E943D2E78
:102B700020E030E040E05FE387FDD2C0C701B6014E
:102B80000E949B2D0E94072E7B0177FF04C0EE243C
:102B9000FF24E61AF70A5B0139E1A31A3CEFB30AF6
:102BA00080915B0190915C019B012D593F4F690120
:102BB0002A5531094901B701892B09F0B6C0CE0168
:102BC00007960E94841167E173E0CE0101960E948E
:102BD000D011BE01695F7F4FCE0101960E94461160
:102BE00067E173E00E943011BC0182E994E00E9429
:102BF000B011CE0101960E94D410CE0107960E941A
:102C0000D4103FECA31637E0B30618F5B701CE0198
:102C100007960E94841166E173E0CE0101960E943E
:102C2000D011BE01695F7F4FCE0101960E9446110F
:102C300067E173E00E943011BC0182E994E00E94D8
:102C4000B011CE0101960E94D410CE0107960E94C9
:102C5000D41087ECC816D10418F5B701CE01079639
:102C60000E94841165E173E0CE0101960E94D011AB
:102C7000BE01695F7F4FCE0101960E94461167E158
:102C800073E00E943011BC0182E994E00E94B0110F
:102C9000CE0101960E94D410CE0107960E94D41056
:102CA00023E18216910418F5B701CE0107960E9420
:102CB000841164E173E0CE0101960E94D011BE013F
:102CC000695F7F4FCE0101960E94461167E173E074
:102CD0000E943011BC0182E994E00E94B011CE0143
:102CE00001960E94D410CE0107960E94D41062E98A
:102CF00074E0C8010E94C711C8012C960FB6F89461
:102D0000DEBF0FBECDBFDF91CF911F910F91FF901E
:102D1000EF90DF90CF90BF90AF909F908F900895ED
:102D2000C701B6010E949A2D2DCFCE0107960E94B1
:102D3000841167E173E0CE0101960E94D011BE01BB
:102D4000695F7F4FCE0101960E94461167E173E0F3
:102D50000E943011BC0182E994E00E94B011CE01C2
:102D600001960E94D410CE0107960E94D4103FEC29
:102D7000A31637E0B30638F5C7016AE070E00E9499
:102D80004E2ECE0107960E94841166E173E0CE01BB
:102D900001960E94D011BE01695F7F4FCE0101965E
:102DA0000E94461166E173E00E943011BC0182E985
:102DB00094E00E94B011CE0101960E94D410CE0181
:102DC00007960E94D41087ECC816D10438F5C701C5
:102DD0006AE070E00E944E2ECE0107960E94841198
:102DE00065E173E0CE0101960E94D011BE01695FDA
:102DF0007F4FCE0101960E94461166E173E00E946A
:102E00003011BC0182E994E00E94B011CE0101961C
:102E10000E94D410CE0107960E94D41023E182169E
:102E2000910408F064CFC7016AE070E00E944E2E62
:102E3000CE0107960E94841164E173E0CE010196F1
:102E40000E94D011BE01695F7F4FCE0101960E94A2
:102E5000461166E173E03CCF85ED8093BC00809124
:102E60009E0590919F05A091A005B091A1050796A0
:102E7000A11DB11D23E0B695A795979587952A9535
:102E8000D1F72091BC0024FD03C010929C05089549
:102E900040919E0550919F056091A0057091A105FC
:102EA000452B462B472B69F30097A105B10541F04F
:102EB00025E32A95F1F700000197A109B109E1CFB7
:102EC00080919D050C9423090C943B2D0C94332D7B
:102ED00088E090E00E946617682F70E089E00E9409
:102EE0003D0589E090E00E946617682F70E086E05B
:102EF0000E943D058AE090E00E946617682F70E00E
:102F000083E00C943D058F929F92AF92BF92CF9237
:102F1000DF92EF92FF920F931F93CF93DF93CDB782
:102F2000DEB7EC970FB6F894DEBF0FBECDBF0E94A0
:102F3000F10520E137E240E050E00E94622E672B6D
:102F4000682B692B01F5809152058823E1F00E94DE
:102F5000460DE0905005F090510500914E051091FE
:102F60004F0520914C0530914D05409153055091EE
:102F7000540560914A0570914B05809148059091E8
:102F800049050E942206109271041092700410925A
:102F90006F0410926E0410926D0410926C040091F4
:102FA000460510914705F8018081882309F409C17D
:102FB0000E94F105C0901204D0901304E090140414
:102FC000F09015046C197D098E099F09C0900E04BC
:102FD000D0900F04E0901004F0901104C616D706AC
:102FE000E806F90608F0EDC00E94F1054B015C010E
:102FF0008092120490921304A0921404B0921504CB
:10300000680130E020E04AE0F801F1908F0180EDA6
:103010008F0D8A3070F4429FC001439F900D1124A0
:103020002F2DFF0C330B20533109280F391F6F014F
:10303000EBCF309377042093760460917204709103
:10304000730480917404909175042115310501F188
:10305000032E000C440B550B0E94842E20930E046B
:1030600030930F044093100450931104EFE9EF0DD7
:10307000E730A0F40E2E000CFF0BEF5BF74E0C9424
:10308000A32EDA1BDC1BCE1BD21BD41BD61BD81BDA
:103090002091330130E050E040E0DECF10920D048B
:1030A000F6018181833241F480910D048F5F80931A
:1030B0000D0486010E5F1F4FF80180818E32F1F4FE
:1030C000C0900E04D0900F04E0901004F090110412
:1030D000C701B60122E030E040E050E00E94842EBB
:1030E000C20ED31EE41EF51EC0920E04D0920F0431
:1030F000E0921004F09211040F5F1F4FF8018081DD
:1031000080538A3008F05AC380930C040F5F1F4F1E
:10311000F80180818C3211F40F5F1F4FE0910D0494
:10312000EE2309F44EC0C0900E04D0900F04E0903E
:103130001004F090110480910C048450990B4CE021
:10314000489F9001499F300D1124E20FF32FF11D8C
:10315000EE0FFF1FE358FE4FB701A601808191815A
:103160000E9477030E94F105681979098A099B0971
:10317000C616D706E806F90620F50E94F105609309
:103180001204709313048093140490931504809197
:10319000D305813009F417C3823009F41AC38111B1
:1031A00005C080916E008D7F80936E0060E08091FD
:1031B000D2050E940D0388E690E00E94D40D10E035
:1031C00000E010934705009346050E94F105009129
:1031D00068041091690420916A0430916B04601BAB
:1031E000710B820B930B663071058105910560F1BF
:1031F0008091D305813009F4F2C2823009F4F2C221
:10320000811105C080916E008695817099F480913E
:1032100036018111EAC270E060E089E00E943D055C
:1032200070E060E086E00E943D0570E060E083E0D1
:103230000E943D050E94F105609368047093690443
:1032400080936A0490936B04809178049091790440
:10325000892B21F0809167048111DBC180917A0470
:103260008111D7C180912C0481110DC00E94F105FC
:10327000609328047093290480932A0490932B046C
:1032800081E080932C048091200481110DC00E9464
:10329000F10560931C0470931D0480931E049093A9
:1032A0001F0481E0809320040E94F105009128040E
:1032B0001091290420912A0430912B04601B710B7A
:1032C000820B930B009100011091010120910201EA
:1032D00030910301061717072807390708F04DC07A
:1032E0000E94F105609328047093290480932A04B6
:1032F00090932B0480911A0490911B04009709F07D
:10330000E0C281E090E0909379048093780488E8AB
:1033100093E1A0E0B0E08093000190930101A093BD
:103320000201B093030180911A0490911B04823032
:10333000910581F4109279041092780440E65AEED7
:1033400060E070E04093000150930101609302013E
:10335000709303010196833091050CF0D2C29093D3
:103360001B0480931A0480916704882321F0109233
:10337000790410927804109267040E94F10500917C
:1033800028041091290420912A0430912B04601BF9
:10339000710B820B930B603D77408105910508F01E
:1033A00082C30E94F10500911C0410911D0420911C
:1033B0001E0430911F04601B710B820B930B65364A
:1033C00071058105910508F424C10E94F1056093FF
:1033D0001C0470931D0480931E0490931F0480911D
:1033E00078049091790420913D05222309F48EC23E
:1033F000892B89F5CE0149960E94DD1481E0209148
:103400005B0130915C01232B09F480E00E94090CE0
:10341000AB01BC01CE0101960E945A15AE01475E78
:103420005F4FBE016F5F7F4FCE014F960E942D12FE
:10343000BE01615E7F4F88EC96E00E948910CE014C
:103440004F960E94D410CE0101960E94D410CE0156
:1034500049960E94D4108091780490917904019744
:1034600009F062C00E943D0868EE73E00E944E2E93
:10347000BC01CE018B960E943D130E944708BC01FF
:10348000CE0185960E943D130E944F08BC01CE01DB
:1034900049960E943D13BE01675E7F4FCE014F9655
:1034A0000E94C711BE016B5D7F4FCE014F960E94F7
:1034B0004611BE01655D7F4F0E944611BC01CE01E1
:1034C000C1960E94C711CE0101960E94DD14AE0183
:1034D0004F5C5F4FBE016F5F7F4FCE01C7960E946A
:1034E0002D12BE01695C7F4F88EC96E00E94891026
:1034F000CE01C7960E94D410CE0101960E94D4102E
:10350000CE01C1960E94D410CE014F960E94D410D5
:10351000CE0149960E94D410CE0185960E94D41007
:10352000CE018B960E94D4108091780490917904FA
:10353000049709F06EC081E020915B0130915C013D
:10354000232B09F480E00E94090CAB01BC01CE01E1
:10355000C1960E945A150E943D0868EE73E00E94D1
:103560004E2EBC01CE0185960E943D130E94470855
:10357000BC01CE014F960E943D130E944F08BC0132
:10358000CE0101960E943D13BE016F5F7F4FCE01B9
:1035900049960E94C711BE01615E7F4FCE014996D8
:1035A0000E944611BE016B5D7F4F0E944611BC0117
:1035B000CE018B960E94C711AE014F5C5F4FBE01DA
:1035C000655D7F4FCE01C7960E942D12BE01695CDA
:1035D0007F4F88EC96E00E948910CE01C7960E942A
:1035E000D410CE018B960E94D410CE0149960E9431
:1035F000D410CE0101960E94D410CE014F960E94A5
:10360000D410CE0185960E94D410CE01C1960E949E
:10361000D4100E94B10E8FEA96E00E946F0886E9EE
:1036200096E00E946F088DE796E00E946F088091F7
:103630007A0481113BC21092C2048091AF0690912E
:10364000B006181619063CF0809170049091710430
:10365000019709F070C381E08093670410924705D9
:103660001092460544E650E060E070E088EE93E09A
:103670000E9477030E94F10560937B0470937C04A1
:1036800080937D0490937E048091780490917904D6
:1036900001968530910509F436C2909379048093A0
:1036A00078048091780490917904069721F410921F
:1036B000790410927804209178043091790489017A
:1036C000000F111FF801E85FFE4F80818093C20454
:1036D000D9011197FD01EE0FFF1FE55DFD4F6081E0
:1036E00071816115710509F417C3AB01415051098E
:1036F000FA01EE0FFF1FED5FFD4F0190F081E02D0D
:10370000AE17BF0709F008C36230710509F0FEC1AA
:1037100088E1E5E6F1E0DE01119601900D928A95CF
:10372000E1F780914F019091500183709927892B87
:1037300021F48DE190E09C838B8380914D019091E9
:103740004E010197880F991FE1E0F0E0EC0FFD1F9B
:103750008E0F9F1F20914B0130914C01FC01808105
:103760009181821793070CF0D1C18AE090E0909389
:10377000790480937804EC960FB6F894DEBF0FBE00
:10378000CDBFDF91CF911F910F91FF90EF90DF9010
:10379000CF90BF90AF909F908F90089581E08093DD
:1037A0000D047ECC83E0FBCF85E0F9CF86E0F7CF38
:1037B00088E0F5CF8AE0F3CF8CE0F1CF8091320141
:1037C00080930C04A5CC80916F008D7F80936F0057
:1037D000EDCC809170008D7F80937000E7CC80915C
:1037E0006F0012CD809170000FCD80915505811131
:1037F00021CD0091180410911904F801EE0FFF1F5C
:10380000E00FF11FDF01AA0FBB1FA152BE4F8D9128
:103810009C916091060170910701680F791F709368
:10382000070160930601DF01AA0FBB1FAF51BE4F16
:10383000CD90DC9080915D0490915E04C80ED91EFD
:10384000D0925E04C0925D04EE0FFF1FED51FE4F5B
:10385000E080F18080915B0490915C04E80EF91E99
:10386000F0925C04E0925B0489E00E943D05B601A1
:1038700086E00E943D05B70183E00E943D058091EE
:1038800016049091170401969093170480931604E0
:103890008F3F910551F40F5F1F4F10931904009350
:1038A0001804109217041092160480911804909135
:1038B000190406970CF4BECC109219041092180447
:1038C000B9CC019709F02FCD84E090E09093790472
:1038D0008093780488E893E1A0E0B0E08093000151
:1038E00090930101A0930201B093030180913D05E3
:1038F000811104C782E090E090931B0480931A0426
:1039000012CD10921B0410921A042DCD892B09F0B0
:1039100062C0CE01C1960E94DD140E943D0868EE8F
:1039200073E00E944E2EBC01CE0185960E943D138D
:103930000E944708BC01CE014F960E943D130E9491
:103940004F08BC01CE0101960E943D13BE016F5F7E
:103950007F4FCE0149960E94C711BE01615E7F4F25
:10396000CE0149960E944611BE016B5D7F4F0E94B9
:103970004611BC01CE018B960E94C711AE014F5C6F
:103980005F4FBE01655D7F4FCE01C7960E942D122D
:10399000BE01695C7F4F88EC96E00E948910CE01E1
:1039A000C7960E94D410CE018B960E94D410CE01EF
:1039B00049960E94D410CE0101960E94D410CE01E7
:1039C0004F960E94D410CE0185960E94D410CE014D
:1039D000C1960E94D4108091780490917904019747
:1039E00009F017CE0E943D0868EE73E00E944E2E4B
:1039F000BC01CE018B960E943D130E944708BC017A
:103A0000CE0185960E943D130E944F08BC01CE0155
:103A100049960E943D13BE01675E7F4FCE014F96CF
:103A20000E94C711BE016B5D7F4FCE014F960E9471
:103A30004611BE01655D7F4F0E944611BC01CE015B
:103A4000C1960E94C711CE0101960E94DD14AE01FD
:103A50004F5C5F4FBE016F5F7F4FCE01C7960E94E4
:103A60002D12BE01695C7F4F88EC96E00E948910A0
:103A7000CE01C7960E94D410CE0101960E94D410A8
:103A8000CE01C1960E94D410CE014F960E94D41050
:103A9000CE0149960E94D410CE0185960E94D41082
:103AA000CE018B96B4CD10929104B3CD0E94F10556
:103AB00000917B0410917C0420917D0430917E0460
:103AC000601B710B820B930B61367A4E8105910559
:103AD00008F4B3CD10927A04E0917804F09179045F
:103AE000EE0FFF1FED5AFD4F808191819093790475
:103AF00080937804880F991FFC01E85FFE4F808156
:103B00008093C2049ACD86E090E0C7CD10927A04EB
:103B10005093790440937804452BB9F40E943D08F2
:103B20007C010E9447088C010E944F084091470188
:103B30005091480160914501709146019C0180912E
:103B40004301909144010E94220680917804909153
:103B50007904019719F5E0904F01F0905001F0E3DE
:103B6000EF1AF8EFFF0A00914D0110914E0180907D
:103B70004B0190904C010E9457085C010E945F0825
:103B80006C010E9467089401A501B6010E942206FB
:103B9000609149018DE090E00E9464178091780463
:103BA000909179040297C1F46091510182E090E014
:103BB0000E9464176091530183E090E00E946417B3
:103BC0006091550184E090E00E9464176091570174
:103BD00086E090E00E9464178091780490917904C7
:103BE000039731F46091590181E090E00E946417DD
:103BF0008091780490917904049731F460915B018D
:103C00008BE090E00E946417809178049091790491
:103C1000059739F460915D01645F8CE090E00E944B
:103C200064170E943D0868EE73E00E944E2E082F34
:103C30000E944708F82E0E944F08E82E0E9457085D
:103C4000B82E0E945F08C82E0E946708D82E81E017
:103C50008093A20588E68093C4051092A305109274
:103C6000C50560E081E796E00E94510B1AE08B2DBC
:103C7000612F0E94422E8295807F682F690F81E715
:103C800096E00E94510B8C2D612F0E94422E82954E
:103C9000807F682F690F81E796E00E94510B8D2D80
:103CA000612F0E94422E8295807F682F690F81E7E5
:103CB00096E00E94510B61E081E796E00E94510B73
:103CC0008E2D612F0E94422E8295807F682F690F72
:103CD00081E796E00E94510B8F2D612F0E94422EAA
:103CE0008295807F682F690F81E796E00E94510BD3
:103CF000802F612F0E94422E8295807F682F690F4E
:103D000081E796E00E94510B60E081E796E00E9417
:103D1000510B0E9444092FCD2331310561F0295008
:103D200031092230310538F00E94EA12F801E95CCD
:103D3000FE4F918380838091AF069091B00697FDEE
:103D400007C08091700490917104019609F0F3C04E
:103D500044E650E060E070E088EE93E00E94770374
:103D600080917A0481114DC00091780410917904FA
:103D70000E94F10560937B0470937C0480937D0422
:103D800090937E04012BE9F50E945708BC01CE01F7
:103D900085960E943D130E945F08BC01CE014F969C
:103DA0000E943D130E946708BC01CE0101960E944B
:103DB0003D13BE016F5F7F4FCE0149960E94C71130
:103DC000BE01615E7F4FCE0149960E944611BE0141
:103DD0006B5D7F4F0E944611BC0188EC96E00E940B
:103DE000B011CE0149960E94D410CE0101960E94D6
:103DF000D410CE014F960E94D410CE0185960E9419
:103E0000D4108091780490917904019709F05AC0F8
:103E10000E944F0890934C0180934B010E944708E9
:103E200090934E0180934D010E943D0868EE73E02F
:103E30000E944E2EBC019093500180934F018091BF
:103E4000490190914A01892B09F099C1CE018596CB
:103E50000E943D1360914D0170914E01CE014F962D
:103E60000E943D1360914B0170914C01CE0101966F
:103E70000E943D13BE016F5F7F4FCE0149960E94A5
:103E8000C711BE01615E7F4FCE0149960E94461167
:103E9000BE016B5D7F4F0E944611BC0188EC96E02D
:103EA0000E94B011CE0149960E94D410CE01019615
:103EB0000E94D410CE014F960E94D410CE01859658
:103EC0000E94D410E0917804F0917904EE0FFF1F66
:103ED000ED5AFD4F2081318130937904209378048D
:103EE0002D30310549F481E090E0909358018093A2
:103EF000570180E88093B20480917A0491E0892789
:103F000080937A048901000F111FF801E85FFE4FCA
:103F100080818093C204A901425151094230510568
:103F200050F02930310539F00E94EA12F801E95CBD
:103F3000FE4F91838083809196069091970600971B
:103F400009F02EC180916E0490916F040197E1F405
:103F500081E080936704109247051092460544E67D
:103F600050E060E070E088EE93E00E9477030E94EA
:103F7000891480917A04811107C01092550560E080
:103F800087E090E00E946417809165049091660438
:103F9000019609F00EC180919806882309F409C1A1
:103FA0001092C40480917A048823F9F00E94F105EC
:103FB00000916104109162042091630430916404C3
:103FC000601B710B820B930B67397105810591059D
:103FD00060F00E94F1056093610470936204809325
:103FE0006304909364040E94891480917D069091EB
:103FF0007E06009709F0E1C080916C0490916D04F9
:10400000019771F511E01093670410924705109223
:10401000460544E650E060E070E088EE93E00E94E0
:1040200077030E942A1480917A04811119C0109399
:10403000550561E087E090E00E94641760910601F9
:1040400088E090E00E94641760915D0489E090E050
:104050000E94641760915B048AE090E00E946417FC
:1040600080915F0490916004019609F0AFC0809147
:104070007F06882309F4AAC080917A041092C304B1
:10408000882321F10E94F1050091570410915804F2
:104090002091590430915A04601B710B820B930BD1
:1040A000673971058105910508F449C00E94F10541
:1040B00060935704709358048093590490935A0462
:1040C0000E942A1480917A04811139C08091960649
:1040D0009091970697FD06C080916E0490916F04B1
:1040E000019691F444E650E060E070E088EE93E0E1
:1040F0000E94770381E08093360161E090E080E0E8
:104100000E9464170E94681780917D0690917E0638
:1041100097FD06C080916C0490916D04019679F42E
:1041200044E650E060E070E088EE93E00E947703A0
:104130001092360160E090E080E00E946417E09108
:104140007804F0917904E431F10508F014CBE555D9
:10415000FF4D0C94A32EEA201B21182260228B22F3
:10416000CF22BB1BBB1BBB1BFE22262326232623E1
:10417000BB1BBB1BBB1BBB1BBB1B8B22CF22CE01A4
:1041800085960E943D1360914B0170914C01CE01C8
:104190004F960E943D1360914D0170914E0166CE85
:1041A0009093660480936504181619060CF4D0CE1B
:1041B000C9CE81E08093C40418CF909360048093AB
:1041C0005F04181619060CF41DCF16CF81E08093FA
:1041D000C30478CF8091910481111EC00E945708BA
:1041E000209104013091050182179307E9F00E94A4
:1041F00057089093050180930401CE0101960E9417
:10420000DD14BE016F5F7F4F88EC96E00E9489103D
:10421000CE0101960E94D4100E94570880FD76C1FD
:1042200080EC8093B20474C168EC76E0CE01019614
:104230000E94C711E6CF809191048111E2C0809164
:104240004F04811111C00E94F10567517C4F8F4FBF
:104250009F4F60934B0470934C0480934D04909354
:104260004E0481E080934F0480914304811144C047
:104270000E943D0868EE73E00E944E2EBC01CE0104
:1042800001960E943D130E944708BC01CE01499649
:104290000E943D130E944F08BC01CE0185960E94EA
:1042A0003D13BE016B5D7F4FCE014F960E94C7113B
:1042B000BE01675E7F4FCE014F960E944611BE0140
:1042C0006F5F7F4F0E944611BC018DE394E00E9416
:1042D000C71181E080934304CE014F960E94D41011
:1042E000CE0185960E94D410CE0149960E94D4102A
:1042F000CE0101960E94D4100091490110914A010B
:1043000080913504811105C00093340481E08093CD
:1043100035040E94F105C0904B04D0904C04E0900D
:104320004D04F0904E046C197D098E099F09693E79
:1043300073408105910530F4809134048017110693
:1043400009F44EC00E94F10560934B0470934C0435
:1043500080934D0490934E04012B09F054C00E94A9
:104360003D0868EE73E00E944E2EBC01CE0101961E
:104370000E943D130E944708BC01CE0149960E944D
:104380003D130E944F08BC01CE0185960E943D134B
:10439000BE016B5D7F4FCE014F960E94C711BE01DB
:1043A000675E7F4FCE014F960E944611BE016F5F40
:1043B0007F4F0E944611BC018DE394E00E94B01132
:1043C000CE014F960E94D410CE0185960E94D41043
:1043D000CE0149960E94D410CE0101960E94D410BD
:1043E0006DE374E0CE0101960E94C711BE016F5FBC
:1043F0007F4F88EC96E00E948910CE0101960E94C2
:10440000D41080E40ECF0E943D0868EE73E00E9455
:104410004E2EBC01CE0101960E943D130E944F0812
:10442000BC01CE0149960E943D130E944708ABCFC4
:104430006091550170915601CE0185960E943D1301
:104440006091530170915401CE014F960E943D132B
:104450006091510170915201CE0101960E943D136D
:10446000BE016F5F7F4FCE0149960E94C711BE010A
:10447000615E7F4FCE0149960E944611BE016B5D81
:104480007F4F0E944611BC0188EC96E00E94B0115B
:10449000CE0149960E94D410CE0101960E94D410FC
:1044A000CE014F960E94D410CE0185960E94D41062
:1044B0008091570190915801019741F580E8B1CE64
:1044C0006091590170915A01CE0149960E94841160
:1044D00066E173E0CE0101960E94D011BE01675ED5
:1044E0007F4FCE0101960E94461166E173E00E9463
:1044F0003011BC0188EC96E00E94B011CE0101960B
:104500000E94D410CE0149960E94D4101092B20499
:104510000E94680C30C980919104811124C081E00F
:1045200020915B0130915C01232B09F480E00E9413
:10453000090CAB01BC01CE0101960E945A15BE01C7
:104540006F5F7F4F88EC96E00E948910CE01019644
:104550000E94D41080915B0190915C01892BD1F471
:1045600080E48093B20481E020915B0130915C0192
:10457000232B09F480E00E94090C1091B20420E082
:1045800030E0A9010E940F2C87FF07C0106810932C
:10459000B204F1C81092B204E6CF1F77F8CF609151
:1045A0005D0170915E01CE0101960E943D13BE0136
:1045B0006F5F7F4FCE0149960E94C71164E173E09F
:1045C000CE0149960E943011BC0188EC96E00E9411
:1045D000B011CE0149960E94D410CE0101960E94DE
:1045E000D41080915D0190915E0197FD03C01092FF
:1045F000B204C1C880E88093B204BDC8809149016B
:1046000090914A01892B99F469E173E088EC96E076
:104610000E947A1183E090E090931D0180931C0129
:104620008CE090E090931F0180931E01A4C860E28B
:1046300073E088EC96E00E947A118CE090E0909311
:104640001D0180931C0183E090E0ECCF60914F014D
:10465000709150018091490190914A01892BE9F5AF
:10466000CE0185960E943D1360914D0170914E01DF
:10467000CE014F960E943D1360914B0170914C0109
:10468000CE0101960E943D13BE016F5F7F4FCE01A8
:1046900049960E94C711BE01615E7F4FCE014996C7
:1046A0000E944611BE016B5D7F4F0E944611BC0106
:1046B00088EC96E00E94B011CE0149960E94D41079
:1046C000CE0101960E94D410CE014F960E94D410C4
:1046D000CE0185960E94D4104EC8CE0185960E94C8
:1046E0003D1360914B0170914C01CE014F960E9499
:1046F0003D1360914D0170914E01C2CF81E090E079
:104700000C94AA191F920F920FB60F9211242F9397
:104710003F934F935F936F937F938F939F93AF9349
:10472000BF93EF93FF9384ED95E00E941102FF91F8
:10473000EF91BF91AF919F918F917F916F915F9119
:104740004F913F912F910F900FBE0F901F90189592
:104750001F920F920FB60F9211242F938F939F9356
:10476000EF93FF93E091E405F091E5058081E091FE
:10477000EA05F091EB0582FD1BC090818091ED056B
:104780008F5F8F732091EE05821741F0E091ED0568
:10479000F0E0EC52FA4F958F8093ED05FF91EF9189
:1047A0009F918F912F910F900FBE0F901F90189592
:1047B0008081F4CF1F920F920FB60F9211242F9386
:1047C0003F938F939F93AF93BF93809123059091D5
:1047D0002405A0912505B09126053091220523E0FE
:1047E000230F2D3758F50196A11DB11D20932205E9
:1047F0008093230590932405A0932505B093260567
:104800008091270590912805A0912905B0912A054E
:104810000196A11DB11D8093270590932805A093B3
:104820002905B0932A05BF91AF919F918F913F9138
:104830002F910F900FBE0F901F90189526E8230F11
:104840000296A11DB11DD2CF1F920F920FB60F92EB
:1048500011242F933F938F939F93AF93BF93EF9325
:10486000FF938091C6059091C705A091C805B091AE
:10487000C9050097A105B10531F130913105E091ED
:104880003205F0913305208123272083181619065D
:104890001A061B061CF40197A109B1098093C605ED
:1048A0009093C705A093C805B093C905FF91EF91F8
:1048B000BF91AF919F918F913F912F910F900FBE1C
:1048C0000F901F901895209170002D7F20937000FD
:1048D00020913105E0913205F0913305308120952A
:1048E00023232083DBCF1F920F920FB60F92112448
:1048F0008F939F93AF93BF93EF93FF938091CA05DC
:104900009091CB05A091CC05B091CD05892B8A2B38
:104910008B2BA1F190913405E0913505F09136058E
:104920008081892780838091CA059091CB05A091D1
:10493000CC05B091CD05181619061A061B069CF475
:104940008091CA059091CB05A091CC05B091CD0581
:104950000197A109B1098093CA059093CB05A09353
:10496000CC05B093CD05FF91EF91BF91AF919F9191
:104970008F910F900FBE0F901F90189580916F0030
:104980008D7F80936F0080913405E0913505F09123
:1049900036059081809589238083E5CF1F920F9201
:1049A0000FB60F9211248F939F93AF93BF93EF9302
:1049B000FF938091CE059091CF05A091D005B09145
:1049C000D105892B8A2B8B2BA1F190913705E09192
:1049D0003805F09139058081892780838091CE0543
:1049E0009091CF05A091D005B091D1051816190668
:1049F0001A061B069CF48091CE059091CF05A091DC
:104A0000D005B091D1050197A109B1098093CE05D8
:104A10009093CF05A093D005B093D105FF91EF916E
:104A2000BF91AF919F918F910F900FBE0F901F90EC
:104A3000189580916E008D7F80936E008091370570
:104A4000E0913805F0913905908180958923808324
:104A5000E5CF1F920F920FB60F9211242F933F9321
:104A60004F935F936F937F938F939F93AF93BF9376
:104A7000EF93FF938091B900887F803609F44AC094
:104A8000F0F5883209F4A7C018F5803109F49BC00D
:104A9000B8F4882309F4F9C0883009F494C0FF9170
:104AA000EF91BF91AF919F918F917F916F915F91A6
:104AB0004F913F912F910F900FBE0F901F9018951F
:104AC000883109F488C0803251F780939A0514C068
:104AD000803409F49DC040F48033B9F38833F9F68B
:104AE00080939A0585ECB0C0803509F485C088357F
:104AF00009F496C0883499F60E942C17D0CF8839D3
:104B000009F48CC038F5883729F050F4883611F054
:104B1000803729F683E080939C051092080557C0E2
:104B2000883809F47BC0803919F0803809F0B7CF94
:104B300080910805803208F071C0E091080581E09D
:104B40008E0F809308058091BB00F0E0E851FB4F89
:104B500080833DC0803B39F0E0F4803A09F479C0AD
:104B6000883A09F09CCF84E080939C051092E7047A
:104B70001092E604E0912D05F0912E0509958091A3
:104B8000E60481110FC081E08093E6041092C60410
:104B900009C0803C09F4A6CF883C09F4A3CF883B28
:104BA00009F07DCFE091E70481E08E0F8093E70468
:104BB000F0E0EA53FB4F80818093BB009091E704C3
:104BC0008091E60429C0809177058093BB0085EC35
:104BD0008093BC0064CF90919905809198059817B7
:104BE00058F5E091990581E08E0F80939905F0E0EA
:104BF000E858FA4F8081E9CFE091990581E08E0F66
:104C0000809399058091BB00F0E0E858FA4F8083CB
:104C100090919905809198059817C8F285E8D8CFAA
:104C2000E091990581E08E0F809399058091BB00FA
:104C3000F0E0E858FA4F808380919B0581115CCFAA
:104C400081E08093760584EA8093BC0010929C05F5
:104C500026CF85EC8093BC0010929C0580910805BE
:104C6000803230F4E0910805F0E0E851FB4F10820B
:104C70006091080570E0E0912B05F0912C0588EE1D
:104C800094E00995109208050ACF10929A0534CF46
:104C9000CF93DF93EC01862F6F87188A91E0998B71
:104CA0009A8B1C8A1B8A198218821A821D8A1E8A74
:104CB0001F8A188E44E150E060E070E04B835C8313
:104CC0006D837E834AEF50E060E070E04F83588749
:104CD00069877A8748EE53E060E070E04B875C8735
:104CE0006D877E8760E00E943B038889811106C042
:104CF00061E08F85DF91CF910C940D03DF91CF910F
:104D00000895E4EDF5E01382128288EE93E0A0E0CE
:104D1000B0E084839583A683B7832FEE32E031839E
:104D2000208325EC30E03587248724EC30E037877A
:104D3000268720EC30E0318B208B21EC30E0338B68
:104D4000228B22EC30E0358B248B26EC30E0378B45
:104D5000268B118E128E138E148EE1E7F6E01382ED
:104D6000128284839583A683B78381E093E0918345
:104D7000808367E273E08CED96E00E94D01160E0E2
:104D800087E00E943B03E4E4F1E0E491AEECB6E09E
:104D9000EC93E0E3F1E0E491F0E0EE0FFF1FE15E61
:104DA000FE4F8591949112969C938E9311971B962A
:104DB0001C921B971D961C921D971C961C921C976B
:104DC0001A961C921A9719961C92199718961C926B
:104DD000189717961C92179716961C921697159669
:104DE0001C92159714961C92149713961C9262E1CC
:104DF00073E088EC96E00E94D0116EE08FEA96E0B6
:104E00000E94482660E186E996E00E9448266FE00D
:104E10008DE796E00C944826CF93DF93CDB7DEB7AD
:104E2000CE54D1090FB6F894DEBF0FBECDBF789433
:104E300084B5826084BD84B5816084BD85B582609F
:104E400085BD85B5816085BD80916E008160809350
:104E50006E001092810080918100826080938100B9
:104E600080918100816080938100809180008160C9
:104E7000809380008091B10084608093B100809124
:104E8000B00081608093B00080917A00846080934C
:104E90007A0080917A00826080937A0080917A0013
:104EA000816080937A0080917A00806880937A0094
:104EB0001092C1001092300510922F051092A30598
:104EC0001092C5050E94050980E991E090932E0596
:104ED00080932D0581E991E090932C0580932B051B
:104EE000E091E405F091E50582E08083E091E00542
:104EF000F091E1051082E091E205F091E30580E197
:104F000080831092EC05E091E805F091E90586E0D8
:104F10008083E091E605F091E705808180618083E0
:104F2000E091E605F091E705808188608083E0915B
:104F3000E605F091E705808180688083E091E605D1
:104F4000F091E70580818F7D808381E090E00E9471
:104F500066178C3009F4DFC288E190E090935A0123
:104F60008093590190E080E00E946617882309F43D
:104F7000D5C281E08093360182E090E00E946617FE
:104F80008F3F09F0CEC2109252011092510183E07E
:104F900090E00E9466178F3F09F0C9C21092540139
:104FA0001092530184E090E00E9466178F3F09F051
:104FB000C4C2109256011092550186E090E00E9402
:104FC00066178F3F09F0BFC2109258011092570127
:104FD00087E090E00E9466178F3F09F0BAC21092F6
:104FE00055058BE090E00E9466178F3F09F0B8C22C
:104FF00010925C0110925B018CE090E00E946617B9
:105000008F3F31F08C50990B90935E0180935D013E
:105010008DE090E00E9466178F3F29F090E090931A
:105020004A018093490161E089E00E943B0361E00D
:1050300086E00E943B0361E083E00E943B03809195
:105040003A05833008F001C392E09093D205E82F2F
:10505000F0E0EA54FF4FE491E093D3058F5F809333
:105060003A05E13009F4A3C208F480C2E23009F441
:10507000C5C280913401909135010E94BD0C90937E
:1050800035018093340161E08AE00E943B0362E0D5
:1050900088E00E943B0388E00E94E40221E0892B23
:1050A00009F020E020933C051FB7F89480913B0560
:1050B000811127C0E3E3F1E08491E7E4F1E094910A
:1050C000E82FF0E0EE0FFF1FE754FF4FA591B491DA
:1050D000EC91E92321F461E08AE00E940D0361E094
:1050E0008AE00E943B038CB580618CBD8CB58064E6
:1050F0008CBD61E08DE00E943B0361E08BE00E948B
:105100003B0380913B058F5F80933B051FBF8091E0
:105110003C05882309F49DC289E791E00E94D500EF
:1051200062E08EE00E943B0362E080E10E943B036C
:1051300062E08FE00E943B0361E082E00E943B035B
:1051400004E110E020E030E00093B2061093B306D3
:105150002093B4063093B5064EE150E060E070E075
:105160004093B6065093B7066093B8067093B9069D
:1051700080ED97E0A0E0B0E08093BA069093BB0684
:10518000A093BC06B093BD060093990610939A06AF
:1051900020939B0630939C0640939D0650939E0659
:1051A00060939F067093A0068093A1069093A20639
:1051B000A093A306B093A4060093800610938106E3
:1051C000209382063093830640938406509385068D
:1051D000609386067093870680938806909389066D
:1051E000A0938A06B0938B0680EF90E00E94800225
:1051F00025E030E042E050E06CED76E0CE01019633
:105200007C010E94E11122E030E041E050E06CEDD1
:1052100076E0CE01875B9F4F0E94E111BE01675B84
:105220007F4FCE018D5B9F4F0E94C7116EE273E0EE
:10523000CE018D5B9F4F0E943011B7010E94461135
:105240000E94E20DCE018D5B9F4F0E94D410CE01D3
:10525000875B9F4F0E94D410C7010E94D41080E347
:1052600093E00E94C70D8FE093E00E94C70D85EE8A
:1052700090E00E94D40D809134019091350190937B
:105280004705809346050E94BD0C6FEF70E089E0F2
:105290000E943D0568EE73E080E090E00E94BF054B
:1052A00070E060E089E00E943D056FEF70E086E00D
:1052B0000E943D0568EE73E080E090E00E94BF052B
:1052C00070E060E086E00E943D056FEF70E083E0F3
:1052D0000E943D0568EE73E080E090E00E94BF050B
:1052E00070E060E083E00E943D0562E173E0C70189
:1052F0000E94D01165E573E0CE0107960E94D0119F
:105300006CE573E0CE010D960E94D01163E673E068
:10531000CE0143960E94D0116AE673E0CE01499611
:105320000E94D01161E773E0CE014F960E94D01128
:1053300068E773E0CE0185960E94D0116FE773E0B5
:10534000CE018B960E94D01166E873E0CE01C19623
:105350000E94D0116DE873E0CE01C7960E94D01173
:1053600061E173E0CE01CD960E94D0116CED76E044
:10537000CE01CD960E94B0110E94F1052B013C0197
:1053800028EE420E23E0521E611C711C912C1FEF6F
:1053900094EFC92EDD24D39426E0822E3BE3A32E86
:1053A0003FE1B32E8FE00E94E402892B11F499248F
:1053B000939480E10E94E402892B09F4912C0E94CD
:1053C000F105641975098609970996010D2C000CE1
:1053D000440B550B01E02617370748075907E0F43F
:1053E0000E94F1052B013C01911001C01F5F1A3092
:1053F00009F431C108F034C101E0B701189D600D16
:10540000711D112488EC96E00E94B01188EC96E0A2
:105410000E94E20D0E94B10EC5010197F1F7011142
:10542000C1CFC090DB06C11004C00E94570181119A
:105430001AC11092D9061092DB061092DA068DEC92
:1054400090E00E94D40D0E94F70D83EC90E00E9442
:10545000D40D8E010D5B1F4F06501109C8010E942B
:10546000D410E016F106C1F70E94F70D80915505A2
:1054700081110E9468170E94460D009153051091FA
:1054800054050E94F1056B017C0181E08093520577
:10549000112780915305909154050817190799F425
:1054A0000E94460D0E94F1056C197D098E099F0925
:1054B000693B7B408105910560F383E091E00E94A8
:1054C000D40D10925205E0905005F09051050091D6
:1054D0004E0510914F0520914C0530914D0540919E
:1054E00053055091540560914A0570914B05809188
:1054F0004805909149050E94220600E010E00E94B4
:10550000831701151105D9F30E94FD018823B9F312
:105510000E940000F4CF8CE090E020CD1092360184
:105520002BCD90E0909352018093510130CD90E0CB
:10553000909354018093530135CD90E090935601A0
:10554000809355013ACD90E0909358018093570194
:105550003FCD91E0811101C090E09093550541CD80
:1055600090E090935C0180935B0146CD14BC15BC28
:1055700084B5826084BD85B5816085BD8091D2058A
:1055800090E0FC01E75DFE4FE491F0E0EE0FFF1FBD
:10559000E455FF4F25913491309339052093380518
:1055A000FC01E35CFE4FE491E093370562CD10927D
:1055B000800010928100809181008860809381003A
:1055C000809181008160809381008091D20590E07C
:1055D000FC01E75DFE4FE491F0E0EE0FFF1FE455A4
:1055E000FF4F259134913093360520933505FC010A
:1055F000E35CFE4FE491E09334053BCD1092B000A4
:105600001092B1008091B00082608093B0008091D0
:10561000B10081608093B1008091D20590E0FC01DF
:10562000E75DFE4FE491F0E0EE0FFF1FE455FF4F02
:10563000259134913093330520933205FC01E35CCE
:10564000FE4FE491E093310514CD8FEF8093D305A5
:1056500010CD89E562CD80EDC82E87E0D82ECCCE66
:105660001AE000E0CACE80EF0E942D01B12C01E0CB
:1056700011E00E94D800D82E0E94D80091E0D912E3
:1056800020C08130E9F5113408F4D3CEC092D90698
:10569000C11003C081E08093DB068091D10688238E
:1056A00009F4C7CEA1EDB6E0EEE3F5E086E495E0BF
:1056B0002D9121938E179F07D9F781E080933D05A7
:1056C000C2CEEB2DF0E0D81211C08091D906181788
:1056D000A8F4DF01A253B94F13968C91802381F473
:1056E000D12C193010F41093DA06C12EE253F94F81
:1056F0008381902F9095892383830BC08113F0CFF2
:10570000EB2DF0E0E253F94F8381802B8383DD247E
:10571000D3948D2D0E94FD001F5F000F11F4B394F0
:1057200001E027E02B1508F0A4CFADCF88EC96E080
:105730000E94D4108CED96E00C94D4101F93FC01C1
:1057400099278827BC01E89411911032E9F31930A8
:1057500010F01E30C8F31B3251F01D3249F468942A
:1057600006C00E94D02B610F711D811D911D1191EA
:1057700010531A30B0F33EF4909580957095619572
:105780007F4F8F4F9F4F1F910895BB274A3031F4B1
:10579000992322F4BDE2909581959F4F0C94E62BBE
:1057A000592F482F372F262F660F771F881F991FD5
:1057B000660F771F881F991F620F731F841F951F25
:1057C000660F771F881F991F0895BB27FB01552778
:1057D000AA27880F991FAA1FA41710F0A41B83954E
:1057E0005051B9F7A05DAA3308F0A95DA1930097C5
:1057F00079F7B111B1931192CB010C94FF2BDC011D
:10580000FC01672F71917723E1F7329704C07C91F7
:105810006D9370836291AE17BF07C8F308950E941D
:10582000512C08F481E00895E89409C097FB3EF4F8
:1058300090958095709561957F4F8F4F9F4F9923DD
:10584000A9F0F92F96E9BB279395F695879577955B
:105850006795B795F111F8CFFAF4BB0F11F460FF1B
:105860001BC06F5F7F4F8F4F9F4F16C0882311F073
:1058700096E911C0772321F09EE8872F762F05C087
:10588000662371F096E8862F70E060E02AF09A9522
:10589000660F771F881FDAF7880F9695879597F917
:1058A0000895990F0008550FAA0BE0E8FEEF1616B1
:1058B0001706E807F907C0F012161306E407F50704
:1058C00098F0621B730B840B950B39F40A2661F078
:1058D000232B242B252B21F408950A2609F4A1401B
:1058E000A6958FEF811D811D08950E94882C0C9430
:1058F000F92C0E94EB2C38F00E94F22C20F095231A
:1059000011F00C94E22C0C94E82C11240C942D2D05
:105910000E940A2D70F3959FC1F3950F50E0551F1B
:10592000629FF001729FBB27F00DB11D639FAA27F4
:10593000F00DB11DAA1F649F6627B00DA11D661F43
:10594000829F2227B00DA11D621F739FB00DA11D64
:10595000621F839FA00D611D221F749F3327A00D1E
:10596000611D231F849F600D211D822F762F6A2FBA
:1059700011249F5750409AF0F1F088234AF0EE0F1F
:10598000FF1FBB1F661F771F881F91505040A9F74C
:105990009E3F510580F00C94E22C0C942D2D5F3F1E
:1059A000E4F3983ED4F3869577956795B795F79588
:1059B000E7959F5FC1F7FE2B880F911D9695879500
:1059C00097F9089597F99F6780E870E060E008957F
:1059D0009FEF80EC089500240A9416161706180607
:1059E0000906089500240A941216130614060506E3
:1059F0000895092E0394000C11F4882352F0BB0F74
:105A000040F4BF2B11F460FF04C06F5F7F4F8F4FD6
:105A10009F4F089557FD9058440F551F59F05F3F11
:105A200071F04795880F97FB991F61F09F3F79F0C0
:105A300087950895121613061406551FF2CF469542
:105A4000F1DF08C0161617061806991FF1CF8695C4
:105A50007105610508940895E894BB2766277727A8
:105A6000CB0197F90895F999FECF92BD81BDF89ABF
:105A7000992780B50895262FF999FECF1FBA92BDB8
:105A800081BD20BD0FB6F894FA9AF99A0FBE01961F
:105A900008950E948B2DA59F900DB49F900DA49FFB
:105AA000800D911D112408952F923F924F925F9285
:105AB0006F927F928F929F92AF92BF92CF92DF921E
:105AC000EF92FF920F931F93CF93DF93CDB7DEB783
:105AD000CA1BDB0B0FB6F894DEBF0FBECDBF099417
