:020000040000FA
:100000000C94FE010C942F020C942F020C942F02DE
:100010000C942F020C942F020C942F020C942F029C
:100020000C942F020C942F020C942F020C942F028C
:100030000C942F020C94502D0C942F020C942F0230
:100040000C942F020C94A32D0C942F020C942F02CD
:100050000C942F020C94022E0C942F020C94462C1C
:100060000C942F020C94102C0C94E62B0C942F0261
:100070000C942F020C942F020C942F020C942F023C
:100080000C942F020C942F020C942F020C942F022C
:100090000C94B02B0C94862B0C942F020C94612E94
:1000A0000C942F020C942F020C942F020C942F020C
:1000B0000C942F020C942F020C942F020C94902C71
:1000C0000C942F020C942F020C942F020C942F02EC
:1000D0000C942F020C942F020C942F020C942F02DC
:1000E0000C942F020C9440050C94822A0C94350831
:1000F0000C9421080C9459050C9477020C94C503B8
:100100000C944C050C940F2A0C94230E0C947F0233
:100110000C945F050C94360E0C943F080C94170455
:100120000C94C7030C9418240C944F050C949A0853
:100130000C9490080C946A0E0C9463050C941C2487
:100140000C9414080C9459080C94C62A0C94BE2FD5
:100150000C941C080C94A4080C9471050C94AE0823
:100160000C94CA350C946D080C9475050C940F0F03
:100170000C94F4030C9496020C9486080C94670477
:100180000C9447080C942B080C946D050C942624B1
:100190000C9403040C94CF040C94140E0C947F055F
:1001A0000C94572A0C94130E0C94FE230C942504E3
:1001B0000C9424240C947A050C9463080C94F52A6E
:1001C0000C9467050C948C020C943D0E0C943A052B
:1001D0000C9465020C941D2B0C9444050C94530252
:1001E0000C946A020C947B050C9455050C944805FC
:1001F0000C9420240C9412290C941E240C94E128B5
:100200000C944F080C9484020C9422240C947202D7
:100210000C94C4030C947C085A4441005654470083
:10022000524D430047535600475354004753410033
:10023000474C4C0047474100340230022C02280250
:10024000240220021C021802496E636F72726563F9
:100250007420536F6E6720466F726D617421004683
:1002600061756C7479204453333233312100445327
:10027000333233315F543D0000000A0B02090C0D8C
:100280000E08070304010000000000000000000049
:10029000000000000000000000000000000000005E
:1002A000000000001211100000000000000000001B
:1002B000000000000000000000000000000000003E
:1002C0002200250028002B002E00310034000201FE
:1002D0000000050108010B010201000000210024BB
:1002E0000027002A002D0030003300010100000427
:1002F0000107010A0153746F702054657374005430
:10030000656D702E2073656E736F72206E6F742032
:10031000666F756E642E0053746172742054657339
:1003200074004669726D77617265207665727369D3
:100330006F6E3A20005761726E696E6721205254C9
:100340004320444F4E275420524553504F4E442192
:1003500000000020002300260029002C002F00327E
:10036000000001000003010601090105050505075C
:100370000508080808020202020A0A080804040420
:10038000040101010101010101030303030303034C
:1003900003040707070C0C0C0C0C0C0C0C020202DB
:1003A0000206060606060606060B0B0B0B0B0B0BCE
:1003B0000B0102102020080810204010204080026D
:1003C000010201080402010102040810204080809B
:1003D000402010080402018004020180402010081F
:1003E00004020108040201010204081020408001F7
:1003F0000204081020408000BE2FCA3511241FBE01
:10040000CFEFD1E2DEBFCDBF00E00CBF2AE0A6E512
:10041000B5E001C01D92A631B207E1F715E0A0E0FA
:10042000B2E0E6E0F6E700E00BBF02C007900D92F5
:10043000A635B107D9F711E0CDEFD1E000E006C055
:1004400021970109802FFE010E94B038CC3FD107CF
:1004500080E00807A9F70E94CE300C94F13A0C9482
:1004600000008CBD9DBD0895982F8091FA098230BF
:1004700009F465C0893009F490C0813021F5E0911C
:10048000FB09E93000F5F0E08827E65BFD4F8F4F70
:100490000C94B038530265026A02720277027F023E
:1004A00084028C0296021092F6099C3261F08091CF
:1004B000FD0982608093FD0990538AE0989F902DFA
:1004C00011249093F10981E008958091F1098053FE
:1004D000980FF7CF90538AE0989F902D1124909316
:1004E000F009F1CF8091F0098053980FF8CF905325
:1004F0008AE0989F902D11249093EF09E4CF80918A
:10050000EF098053980FF8CF9C32E9F68091F809F3
:1005100084608093F809D7CF9C32C1F390538AE06E
:10052000989F902D11249093F609CDCF9C3271F3B2
:100530008091F6098053980F9093F609E7CF809148
:10054000FB098111C0CF913311F0913421F483E084
:100550008093F70908C0903321F09E3411F096354E
:1005600031F41092F7098091F8098160D2CF92336B
:1005700011F0943411F484E0EBCF87E0933341F32E
:1005800086E0943329F385E0953311F3963319F01F
:10059000953409F098CF81E0DBCF8091FB09823060
:1005A00031F150F48823C1F0813009F08CCF809173
:1005B000F3098053980F18C0843031F100F1853071
:1005C00009F081CF8091F5098053980F9093F50938
:1005D0008091F80982609DCF9C3209F474CF9053CA
:1005E0008AE0989F902D11249093F3096CCF90533B
:1005F0008AE0989F902D11249093F40964CF809104
:10060000F4098053980FF8CF90538AE0989F902D6B
:1006100011249093F50957CF80919B09E0919C0993
:10062000F0919D09F8949181982B91832281382F24
:10063000309523232283A7E0B0E01197F1F7918151
:1006400093239183A3E2B0E01197F1F7908178941E
:10065000EFECF0E03197F1F7982381E009F480E0C6
:10066000089590919B09E0919C09F0919D09292F93
:10067000209580FF14C0F894828182238283818137
:10068000892B8183A3E2B0E01197F1F78281982B47
:100690009283789487ED90E00197F1F70895F894AC
:1006A0008281822382838181892B8183AFEFB0E0B5
:1006B0001197F1F78281982B928378948FE090E0E4
:1006C000EBCF0F931F93CF93DF93082FC8E0D0E0B9
:1006D00011E081E0902F912309F480E00E94310322
:1006E000110F2197B1F7F894E0919C09F0919D09C1
:1006F000918180919B09809598239183E0919C0939
:10070000F0919D099281892382837894DF91CF9122
:100710001F910F91089580919B09E0919C09F091A0
:100720009D09F8949181282F2095922391837894A4
:100730003DE743E050E0315029F1DA011197F1F73C
:1007400090819823C1F3F8949281922392839181AE
:10075000982B91837894ABE7B7E01197F1F7F89471
:10076000918192239183A3E1B1E01197F1F79081F8
:10077000982381E009F080E07894E3E6F6E0319791
:10078000F1F7089580E00895089508950895AF92CF
:10079000BF92CF92DF92EF92FF920F931F93CF936E
:1007A000DF936C017B018B01040F151FEB015E01D0
:1007B000AE18BF08C017D10759F06991D601ED9165
:1007C000FC910190F081E02DC6011995892B79F7F4
:1007D000C501DF91CF911F910F91FF90EF90DF90B6
:1007E000CF90BF90AF900895FC01538D448D252F7D
:1007F00030E0842F90E0821B930B541710F0CF96BB
:10080000089501970895FC01918D828D981761F0EC
:10081000A28DAE0FBF2FB11D5D968C91928D9F5F03
:100820009F73928F90E008958FEF9FEF0895FC01E2
:10083000918D828D981731F0828DE80FF11D858D95
:1008400090E008958FEF9FEF0895FC01918D228D28
:10085000892F90E0805C9F4F821B91098F739927AD
:10086000089582E397E00E94250421E0892B09F492
:1008700020E0822F08958FEC97E00E94250421E06C
:10088000892B09F420E0822F0895FC01A48DA80F84
:10089000B92FB11DA35ABF4F2C91848D90E00196C2
:1008A0008F739927848FA689B7892C93A089B189E2
:1008B0008C91837080648C93938D848D981306C083
:1008C0000288F389E02D80818F7D80830895EF92E7
:1008D000FF920F931F93CF93DF93EC0181E0888FFA
:1008E0009B8D8C8D98131AC0E889F989808185FFCA
:1008F00015C09FB7F894EE89FF896083E889F9896C
:1009000080818370806480839FBF81E090E0DF916D
:10091000CF911F910F91FF90EF900895F62E0B8DC0
:1009200010E00F5F1F4F0F731127E02E8C8D8E117B
:100930000CC00FB607FCFACFE889F989808185FFE2
:10094000F5CFCE010E944504F1CFEB8DEC0FFD2FCA
:10095000F11DE35AFF4FF0829FB7F8940B8FEA899D
:10096000FB8980818062CFCF0F931F93CF93DF935A
:100970008C01D0E0C0E0F801EC0FFD1F649166230C
:1009800041F08FEC97E00E946704892B11F02196CB
:10099000F2CFCE01DF91CF911F910F910895CF93A8
:1009A000DF93EC01888D8823B9F0AA89BB89E88997
:1009B000F9898C9185FD03C0808186FD0DC00FB63D
:1009C00007FCF7CF8C9185FFF2CF808185FFEDCFBB
:1009D000CE010E944504E9CFDF91CF91089580E0D8
:1009E00090E0892B29F00E943B0481110E940000B5
:1009F00080E090E0892B29F00E94310481110E944F
:100A0000000080E090E0892B49F080E090E0892BA5
:100A100029F00E94000081110E94000080E090E017
:100A2000892B49F080E090E0892B29F00E9400009A
:100A300081110C94000008958150823108F05AC051
:100A4000E82FF0E08827E85DFA4F8F4F0C94B0381C
:100A500048054C053A05400544057A054F055505FE
:100A600059055F05630567056D0571057A0575050F
:100A70007B057F05809180008F77809380000895AB
:100A8000809180008F7DF9CF80918000877FF5CFA6
:100A900084B58F7784BD089584B58F7DFBCF809119
:100AA000B0008F778093B00008958091B0008F7D63
:100AB000F9CF809190008F77809390000895809176
:100AC00090008F7DF9CF80919000877FF5CF809146
:100AD000A0008F778093A00008958091A0008F7D63
:100AE000F9CF8091A000877FF5CF809120018F778B
:100AF000809320010895809120018F7DF9CF80910E
:100B00002001877FF5CFCF93DF93282F30E0F901C5
:100B1000E858FD4F8491F901EF54FC4FD491F9014D
:100B2000E559FC4FC491CC23A1F081110E941C0512
:100B3000EC2FF0E0EE0FFF1FEF5AFC4FA591B491A0
:100B4000EC91ED2381E090E009F480E0DF91CF911A
:100B5000089580E090E0FACF1F93CF93DF93282F82
:100B600030E0F901E858FD4F8491F901EF54FC4F52
:100B7000D491F901E559FC4FC491CC23A9F0162F6B
:100B800081110E941C05EC2FF0E0EE0FFF1FE254D4
:100B9000FD4FA591B4918FB7F894EC91111108C055
:100BA000D095DE23DC938FBFDF91CF911F91089505
:100BB000DE2BF8CFCF93DF9390E0FC01EF54FC4F96
:100BC000249185599C4FFC0184918823C9F090E0C1
:100BD000880F991FFC01E552FD4FA591B491FC01CE
:100BE000E254FD4FC591D49161110DC09FB7F894A7
:100BF0008C91209582238C938881282328839FBF02
:100C0000DF91CF910895623051F49FB7F8943C91F1
:100C1000822F809583238C93E8812E2BEFCF8FB783
:100C2000F894EC912E2B2C938FBFEACF4F925F92CA
:100C30006F927F928F929F92AF92BF92CF92DF92EC
:100C4000EF92FF920F931F93CF93DF9300D01F92E9
:100C50001F92CDB7DEB72091310727FD2CC1498304
:100C60005A836B837C838C0161E0809130070E9402
:100C7000DA05809131078D834801B12CA12C8D7F3D
:100C800009F031C160E072E18AE790E0A5019801C6
:100C90000E94913829013A017A01690191E0C91A4B
:100CA000D108E108F108AFEFCA16D104E104F1045C
:100CB00009F00CF4C7C060E472E48FE090E0A50195
:100CC00098010E94913869017A01B1E0CB1AD108EC
:100CD000E108F1088D81823009F06AC082E09FEF5F
:100CE000C916D104E104F10409F00CF45EC160E915
:100CF00070ED83E090E0A50198010E9491386901B0
:100D00007A01A1E0CA1AD108E108F10883E0BFEF37
:100D1000CB16D104E104F10409F00CF446C168E4F7
:100D200078EE81E090E0A50198010E949138690178
:100D30007A0181E0C81AD108E108F10884E09FEF48
:100D4000C916D104E104F10409F00CF42EC164E2E7
:100D500074EF80E090E0A50194010E949138690150
:100D60007A01B1E0CB1AD108E108F10885E09FEFE4
:100D7000C916D104E104F10409F008F416C162E1D6
:100D80007AE780E090E0A50194010E949138690122
:100D90007A01B1E0CB1AD108E108F1088FEFC8164B
:100DA000D104E104F10411F008F0F0C086E0FDC0C8
:100DB0008FEFC816D104E104F10409F00CF491C0DE
:100DC00068E478EE81E090E0A50198010E949138F6
:100DD00069017A0191E0C91AD108E108F108AD81F1
:100DE00084E0A111C4CF83E0AFEFCA16D104E104BF
:100DF000F10461F15CF162E17AE780E090E0A50145
:100E000094010E94913869017A0181E0C81AD108E1
:100E1000E108F10884E09FEFC916D104E104F10470
:100E2000A9F0A0F0730162019AE0F594E794D794D9
:100E3000C7949A95D1F7A1E0CA1AD108E108F10840
:100E400085E004C081E0AD81A111AFC095B5987F68
:100E5000892B85BD89819A81AB81BC812FEF3FEFC2
:100E6000A901892B8A2B8B2B79F0D801AA0FBB1FE4
:100E700029813A814B815C810E94AF3728EE33E0B3
:100E800040E050E00E948D379D81913009F45CC0B4
:100E9000923009F46BC091110EC0C7BC20932C078F
:100EA00030932D0740932E0750932F0780916E00AB
:100EB000826080936E000F900F900F900F900F90B4
:100EC000DF91CF911F910F91FF90EF90DF90CF9026
:100ED000BF90AF909F908F907F906F905F904F905A
:100EE000089582E0B0CF60E072E18AE790E0A5016A
:100EF00098010E94913869017A01B1E0CB1AD108BA
:100F0000E108F10891E0C114D10481E0E806F104A0
:100F100084F068E478EE81E090E0A50198010E94F9
:100F2000913869017A0191E0C91AD108E108F10804
:100F300093E0AD81A13009F08DCF80918100887F51
:100F4000892B8093810086CFD0928900C09288003F
:100F5000209328073093290740932A0750932B07A3
:100F600080916F00826080936F00A5CFC092B30024
:100F70002093240730932507409326075093270793
:100F80008091700082608093700095CF7301620140
:100F90008AE0F594E794D794C7948A95D1F7B1E0A5
:100FA000CB1AD108E108F10887E09091B100987F51
:100FB000892B8093B1004ECF1F93CF93DF93182FCF
:100FC000EB0161E00E94DA05209739F460E0812F9F
:100FD000DF91CF911F910C94AC05CF3FD10511F457
:100FE00061E0F5CFE12FF0E0E858FD4FE491E150EA
:100FF000E23108F0B3C0F0E08827EE5FF74F8F4F83
:101000000C94B03814081C0821082B083508AE08C9
:101010003F0847084F08590863086D087C08860890
:10102000AE0890089A08A40884B5806884BDC7BD3E
:10103000DF91CF911F91089584B5806284BDC8BDB2
:10104000F7CF80918000806880938000D0938900E2
:10105000C0938800EDCF80918000806280938000F3
:10106000D0938B00C0938A00E3CF8091800088608A
:1010700080938000D0938D00C0938C00D9CF809155
:10108000B00080688093B000C093B300D1CF80914E
:10109000B00080628093B000C093B400C9CF80914B
:1010A0009000806880939000D0939900C09398003E
:1010B000BFCF80919000806280939000D0939B007E
:1010C000C0939A00B5CF8091900088608093900083
:1010D000D0939D00C0939C00ABCF8091A00080680E
:1010E0008093A0008091A0008F7B8093A000D0937C
:1010F000A900C093A8009CCF8091A000806280933B
:10110000A000D093AB00C093AA0092CF8091A00022
:1011100088608093A000D093AD00C093AC0088CFCE
:1011200080912001806880932001D0932901C09391
:1011300028017ECF80912001806280932001D0938E
:101140002B01C0932A0174CF809120018860809385
:101150002001D0932D01C0932C016ACFC038D10556
:101160000CF03ECF33CF3FB7F89480918506909135
:101170008606A0918706B091880626B5A89B05C073
:101180002F3F19F00196A11DB11D3FBFBA2FA92F06
:10119000982F8827BC01CD01620F711D811D911D03
:1011A00042E0660F771F881F991F4A95D1F708956F
:1011B0008F929F92AF92BF92CF92DF92EF92FF9267
:1011C0004B015C010E94B3086B017C010E94B308D3
:1011D0006C197D098E099F09683E73408105910550
:1011E000A8F321E0821A9108A108B10888EEC80E80
:1011F00083E0D81EE11CF11C81149104A104B10408
:1012000029F7FF90EF90DF90CF90BF90AF909F9025
:101210008F9008952FB7F89460918106709182069F
:1012200080918306909184062FBF08956093750680
:10123000709376068093770690937806645D7E4F70
:101240008F4F9F4F60937106709372068093730661
:101250009093740682E090E09093700680936F06FE
:101260000E940A0960936B0670936C0680936D066A
:1012700090936E0608952F923F924F925F926F92D5
:101280007F928F929F92AF92BF92CF92DF92EF9216
:10129000FF920F931F93CF93DF93382E962E842EB9
:1012A000222E84E6E816F1040CF459C092EBE91AF8
:1012B00097E0F90AE0927F0600937E0620927D0671
:1012C00030927B0690927A0680927906AE2DB0E03D
:1012D00020E833E341EE51E00E94AF372B013C019F
:1012E00022EB37E0FF24E4E6F0E0C0E9D1E0C901F9
:1012F000825B97408E159F05B4F19EE4E91A98EF42
:10130000F90AC70164E670E00E947D386C01C701EC
:1013100060E971E00E947D385C01CCEBD3E0E1E054
:10132000F0E0112783E0E822FF24E017F1070CF03A
:1013300042C0E230F10591F5E114F10479F5C114F0
:10134000D10419F4A114B10449F580E8480E8BE3E7
:10135000581E86E2681E711C31962196E6CF8EE1FA
:10136000E80EF11CA7CFC90183709927892B99F446
:10137000C901BF010E947D38892B31F4C901BE012A
:101380000E947D38892B39F490E8490E91E5591E69
:1013900091E0691E711C2F5F3F4FA9CFA881B0E07B
:1013A00020E831E541E050E00E94AF37460E571E7D
:1013B000681E791ED1CF292D30E0ACE3B0E00E9449
:1013C000BA376B017C01C80CD11CE11CF11C232D28
:1013D00030E0A0E1BEE00E94BA37C60ED71EE81E7C
:1013E000F91E822D8150990BDC0120E831E541E0A6
:1013F00050E00E94BF386C0D7D1D8E1D9F1D640D39
:10140000751D861D971DDF91CF911F910F91FF9044
:10141000EF90DF90CF90BF90AF909F908F907F9094
:101420006F905F904F903F902F900C941609CF9241
:10143000DF92EF92FF920F931F930E940A098B0194
:101440009C01C0906B06D0906C06E0906D06F09009
:101450006E06609175067091760680917706909180
:1014600078060C191D092E093F09083E1340210575
:101470003105E0F0DC01CB010196A11DB11D809387
:10148000750690937606A0937706B0937806B70119
:10149000A60148515C4F6F4F7F4F40936B065093AE
:1014A0006C0660936D0670936E06C7CF1F910F9107
:1014B000FF90EF90DF90CF9008954F925F926F92E0
:1014C0007F928F929F92AF92BF92CF92DF92EF92D4
:1014D000FF920F931F93CF93DF934B015C01809199
:1014E000670690916806A0916906B0916A06881512
:1014F0009905AA05BB0509F4C6C08CE3C82ED12CFA
:10150000E12CF12CC501A70196010E948D37609353
:101510007906CA01B901A70196010E948D3760932F
:101520007A06C501B40120E13EE040E050E00E94AF
:101530008D37CA01B90128E130E040E050E00E9457
:101540008D3760937B06C501B40120E831E541E0A9
:1015500050E00E948D3769017A01CA01B9016C5FC0
:101560007F4F8F4F9F4F27E030E040E050E00E94D8
:101570008D376F5F60937C06412C512C320140E027
:1015800004E610E0C0E9D1E0242F30E02E54384FBB
:10159000F901E370FF273097F9F4C901B8010E94FF
:1015A0007D38892B31F4C901BE010E947D38892B19
:1015B00099F48EE691E0A0E0B0E0480E591E6A1E54
:1015C0007B1ED301C201AA27BB27C816D906EA068B
:1015D000FB0638F04F5FD8CF8DE691E0A0E0B0E099
:1015E000ECCF40937F06C90164E670E00E947D382D
:1015F000EC01C90160E971E00E947D38309721F467
:101600002097D9F40097C9F04DE651E060E070E012
:10161000441A550A660A770AC418D508E608F70876
:10162000ACEBB3E020E0213069F43097E9F5209786
:1016300011F40097C9F54DE106C04EE651E060E0B7
:1016400070E0E6CF4C9150E070E060E031E0320FA6
:10165000C416D506E606F70640F0C41AD50AE60A0F
:10166000F70A1196232F3C30F1F62F5F20937E0668
:10167000C394C0927D068092670690926806A092FD
:101680006906B0926A06DF91CF911F910F91FF908A
:10169000EF90DF90CF90BF90AF909F908F907F9012
:1016A0006F905F904F9008954CE1CDCF0E94170A44
:1016B0000E945D0A80917F0690E08E54984F0895B5
:1016C0000E94170A0E945D0A80917E0690E00895AC
:1016D0000E94170A0E945D0A80917D0690E008959D
:1016E0000E94170A0E945D0A8091790690E0089591
:1016F0000E94170A0E945D0A80917A0690E0089580
:101700000E94170A0E945D0A80917B0690E008956E
:10171000CF92DF92EF92FF92CF93DF93EC010E9482
:101720000A096B017C018F850E9483059C0181E081
:101730002115310509F480E0898B8889811105C064
:1017400091E0232B09F090E0998B29898A89281749
:1017500021F0CD8ADE8AEF8AF88E8D899E89AF8945
:10176000B88DB701A601481B590B6A0B7B0BDB0137
:10177000CA01CB80DC80ED80FE80C816D906EA065F
:10178000FB0664F43A81231749F02A83222349F0A7
:101790004B895C894F5F5F4F5C8B4B8B3A8131117A
:1017A00017C0CF80D884E984FA84C816D906EA061F
:1017B000FB0634F48B899C89998388831C8A1B8A55
:1017C0002A8BDF91CF91FF90EF90DF90CF9008951B
:1017D000CB84DC84ED84FE84C816D906EA06FB06B9
:1017E0007CF78B899C89919581959109E5CF209112
:1017F0004406260F3327331F21323105ECF42091A4
:10180000FA06FC0190E080E0243069F082E008955F
:10181000A09144062191AC014C5D594FA40FB52F06
:10182000B11D2C930196861798F380914406680F9A
:101830006093440680E0089581E008951092FA06CE
:1018400081E08093F9061092D40661E084E10E9461
:10185000AC0561E085E10E94AC05E9EBF0E0808138
:101860008E7F808380818D7F808388E48093B80021
:1018700085E48093BC000895CF93DF9391E090932B
:1018800023068823B9F0C091B800D091BA008091A6
:10189000BC008A7B8093BC0060E084E10E94AC05C0
:1018A00060E085E10E94AC050E941E0CD093BA0056
:1018B000C093B800DF91CF910895CF92DF92EF925D
:1018C000FF920F931F93CF93DF93D091230781E073
:1018D000D13208F09CC0C09122070E94B3086B016E
:1018E0007C018091FA0681116CC082E08093FA0637
:1018F00081E08093F9068FEF8093F8061092F70647
:10190000D093F606A2E0B7E0E6EDF6E080E0D8136B
:101910008DC01092D5068091D506CC0FC82BC093F0
:10192000D5068091D406813009F084C01092D40687
:101930000E94B3086B017C018091D5068093BB00A7
:101940008091FC069091FD06A091FE06B091FF06E5
:10195000892B8A2B8B2BA1F00E94B3080091FC06E7
:101960001091FD062091FE063091FF066C197D094D
:101970008E099F09061717072807390708F442C080
:101980008091BC0083FDD8CF85EC8093BC000E9481
:10199000B3086B017C018091FA06823009F44CC0D7
:1019A0008091F8068F3F09F469C08091F806803273
:1019B00009F466C08091F806803309F463C084E0BE
:1019C00026C08091FC069091FD06A091FE06B09184
:1019D000FF06892B8A2B8B2B09F483CF0E94B30837
:1019E0000091FC061091FD062091FE063091FF0645
:1019F0006C197D098E099F090617170728073907F3
:101A000008F06FCF8091FB060E943C0C85E010929D
:101A100001071092230710920007DF91CF911F91C9
:101A20000F91FF90EF90DF90CF9008959D9191934B
:101A30008F5F6DCF85EEA9CF8091FC069091FD065A
:101A4000A091FE06B091FF06892B8A2B8B2B09F4FF
:101A5000A2CF0E94B3080091FC061091FD062091D0
:101A6000FE063091FF066C197D098E099F09061745
:101A700017072807390708F08ECFC4CF80E0C7CFFB
:101A800082E0C5CF83E0C3CFCF92DF92EF92FF9287
:101A90000F931F93CF93DF93D82FC62F613208F097
:101AA00098C00E94B3086B017C018091FA068111F5
:101AB0006BC081E08093FA068093F9069FEF9093C4
:101AC000F8061092F7069C0F9093F6068093D506C1
:101AD0008091D506DD0FD82BD093D5068091D40602
:101AE000813009F078C01092D4060E94B3086B01CF
:101AF0007C018091D5068093BB008091FC0690917B
:101B0000FD06A091FE06B091FF06892B8A2B8B2B38
:101B1000A1F00E94B3080091FC061091FD062091EF
:101B2000FE063091FF066C197D098E099F09061784
:101B300017072807390708F448C08091BC0083FDC7
:101B4000D8CF85EC8093BC000E94B3086B017C0168
:101B50008091FA06813009F440C08091F7068C1715
:101B600010F4C091F706E6EDF6E0A4EBB6E080E0F5
:101B70008C1355C08C2FDF91CF911F910F91FF9047
:101B8000EF90DF90CF9008958091FC069091FD0634
:101B9000A091FE06B091FF06892B8A2B8B2B09F4AE
:101BA00084CF0E94B3080091FC061091FD0620919D
:101BB000FE063091FF066C197D098E099F090617F4
:101BC00017072807390708F070CF8091FB060E949D
:101BD0003C0CC0E0CFCF85EEB5CF8091FC06909154
:101BE000FD06A091FE06B091FF06892B8A2B8B2B58
:101BF00009F4AECF0E94B3080091FC061091FD06D7
:101C00002091FE063091FF066C197D098E099F090F
:101C1000061717072807390708F09ACFD6CF9191F2
:101C20009D938F5FA5CF0895E0918E0680918D06DC
:101C3000E81730F4F0E0EC54F94F808190E008951B
:101C40008FEF9FEF089590918E0680918D062FEF74
:101C50003FEF981748F4E92FF0E0EC54F94F20815A
:101C600030E09F5F90938E06C901089580918D06A4
:101C700090918E06891B990B0895CF92DF92EF9277
:101C8000FF920F931F93CF93DF937C01CB018A01C7
:101C900020910007222389F0EB016B01C40ED51EB1
:101CA000CC15DD0569F06991D701ED91FC910190AA
:101CB000F081E02DC7011995F3CF642F0E94F70B37
:101CC000C801DF91CF911F910F91FF90EF90DF90AE
:101CD000CF900895CF93DF931F92CDB7DEB769837E
:101CE000209100072223F9F020912307203258F099
:101CF00021E030E0FC013383228390E080E00F900C
:101D0000DF91CF91089580910107E82FF0E0EE5F19
:101D1000F84F998190838F5F809301078093230709
:101D200081E090E0ECCF61E0CE0101960E94F70BDC
:101D3000F7CFDF92EF92FF920F931F93CF93DF9332
:101D4000182FF62ED42ED22F81E08093000788E63C
:101D500080932207109201071092230760E08CE61F
:101D600098E00E946A0ECAE08D2D6C2F0E94713897
:101D70008295807F682F690F8CE698E00E946A0E3A
:101D80008F2D6C2F0E9471388295807F682F690F8C
:101D90008CE698E00E946A0E812F6C2F0E947138A9
:101DA0008295807F682F690F8CE698E00E946A0E0A
:101DB00061E08CE698E00E946A0E8D2F6C2F0E94E5
:101DC00071388295807F682F690F8CE698E00E94B9
:101DD0006A0E802F6C2F0E9471388295807F682F49
:101DE000690F8CE698E00E946A0E8E2D6C2F0E947F
:101DF00071388295807F682F690F8CE698E00E9489
:101E00006A0E60E08CE698E00E946A0EDF91CF9146
:101E10001F910F91FF90EF90DF900C945D0C90E07C
:101E200080E00895CF92DF92EF92FF920F931F937D
:101E3000CF93DF939091220691110BC08FEF9FEF0C
:101E4000DF91CF911F910F91FF90EF90DF90CF9096
:101E5000089590912106992389F3082FC0912006B7
:101E6000D0E08091180681110DC00E940A0960938C
:101E7000140670931506809316069093170681E05A
:101E8000809318060E940A09C0901406D090150687
:101E9000E0901606F09017066C197D098E099F09CF
:101EA0006D32714081059105B0F0109113060E94CA
:101EB0000A09609314067093150680931606909392
:101EC000170691E0912790931306992331F1109210
:101ED00012061092110620911106309112062095DB
:101EE000309580911006282326FF1CC081E0809346
:101EF0000F0627FF1AC081E080930E06809113061B
:101F0000882309F49BCF02C0D595C7950A95E2F7BF
:101F1000C0FF94CF80E09CE393CFD0931206C09390
:101F20001106D9CF10920F06E4CF10920E06E6CF1D
:101F3000EF92FF920F931F93CF93DF93E82E0E94AF
:101F40008B038CEC0E94610384E40E9461030E9475
:101F50008B038CEC0E9461038EEB0E94610308E00E
:101F600010E0D0E0C1E00E940C038111DC2BCC0F0B
:101F700001501109C1F708E010E0C0E0FF24F3941C
:101F80000E940C038111CF29FF0C01501109C1F7E8
:101F90007C2F6D2F6F3F760711F470E060E0072E05
:101FA000000C880B990B0E944A3620E030E040E894
:101FB0005DE30E94A936E1100DC020E030E040E270
:101FC00051E40E94A936DF91CF911F910F91FF90AC
:101FD000EF90089526E636E646EE5FE30E94A936C6
:101FE00020E030E040E052E40E94CA37E6CF0F9391
:101FF0001F9380915C0290915D02892B09F449C086
:102000008091E1058823A9F00E940A090091DD056D
:102010001091DE052091DF053091E005601B710B0A
:10202000820B930B693E73408105910590F11092EC
:10203000E1050E94800B20915602309157028217D1
:10204000930739F50E94780B20915802309159027C
:1020500082179307F1F40E94700B20915A0230917D
:102060005B0282179307A9F40E940A096093DD05B9
:102070007093DE058093DF059093E00581E0809307
:10208000E1058091390290913A029093A5068093E0
:10209000A4061F910F910895CF93DF93EC01219631
:1020A000FC0120812A33C9F42181243609F52296C6
:1020B00030E020E06AE0899190ED980F9A3078F452
:1020C000629FA001639F500D1124082E000C990BF4
:1020D000C0979A01280F391FEECFCE01DFCF309382
:1020E000D5052093D4052115310511F02093380230
:1020F00088818F3689F48A81082E000C990B9C0107
:10210000205331093093D5052093D405C397059703
:1021100010F420933702249688818236F1F42296B7
:1021200030E020E06AE0899190ED980F9A3068F4F1
:10213000629FA001639F500D1124082E000C990B83
:10214000C0979A01280F391FEECF3093D505209301
:10215000D405309336022093350220913502309118
:102160003602032E000C440B550B60E67AEE80E03D
:1021700090E00E94913882E0220F331F441F551FC8
:102180008A95D1F72093D0053093D1054093D2059D
:102190005093D305CE01DF91CF910895CF92DF9276
:1021A000EF92FF920F931F93CF93DF93EC018B017C
:1021B0000E940A09CE80DF80E884F984AB01BC016B
:1021C0004C195D096E097F0988819981092E000CDF
:1021D000AA0BBB0B84179507A607B707A0F48A853F
:1021E000882389F01A868D811C821D82823060F1DD
:1021F00081E090E0DF91CF911F910F91FF90EF90E0
:10220000DF90CF9008958B859C8580179107C9F446
:1022100081E08C838D818F5F8D830E940A096E839C
:102220007F838887998781E08A872D818A819B8136
:10223000281719064CF01C821D821A868FEF9FEF1B
:10224000D9CF8C81811103C090E080E0D3CF0F3FC4
:102250001F4FD1F7DFCFFC0111821282108281E083
:1022600084838583168287E0838317821086118694
:1022700008958EBD00000DB407FEFDCF8EB5089504
:10228000CF9381E08093000788E680932207109225
:1022900001071092230760E08CE698E00E946A0E26
:1022A0000E945D0C67E088E60E94440D10928E0645
:1022B00080938D068CE698E00E94230E982F9295CD
:1022C0009F70CAE08F709C9F800D112490E09093C6
:1022D000B2068093B1068CE698E00E94230E982FF8
:1022E00092959F708F709C9F800D112490E0909329
:1022F000A9068093A8068CE698E00E94230E982FEA
:10230000929593708F709C9F800D112490E0909314
:10231000A7068093A6068CE698E00E94230E8CE622
:1023200098E00E94230E982F92959F708F709C9F2B
:10233000800D112490E09093AB068093AA068CE662
:1023400098E00E94230E982F92959F708F709C9F0B
:10235000800D112490E09093AD068093AC068CE63E
:1023600098E00E94230E982F92959F708F709C9FEB
:10237000800D112490E09093AF068093AE06CF912C
:102380000895FC0101900020E9F73197AF01481B47
:10239000590BBC018FEC97E00C94C703CF93DF93EC
:1023A0000E94B404EC0184E194E00E94C1118C0FFE
:1023B0009D1FDF91CF9108958F929F92AF92BF9210
:1023C0000F931F93CF93DF93CDB7DEB7A1970FB6CF
:1023D000F894DEBF0FBECDBF19A2423008F44AE028
:1023E0008E010F5D1F4F842E912CB12CA12CA501C5
:1023F00094010E948D37E62FB901CA01EA30F4F446
:10240000E05DD801EE938D01232B242B252B79F74A
:1024100090E080E0109719F0CD010E94C111A196C3
:102420000FB6F894DEBF0FBECDBFDF91CF911F91E5
:102430000F91BF90AF909F908F900895E95CE1CF8E
:10244000CF93DF930E94C111EC0184E194E00E94DC
:10245000C1118C0F9D1FDF91CF910895CF93DF9312
:10246000FC0144815581608171818FEC97E00E946D
:10247000C703EC0184E194E00E94C1118C0F9D1F01
:10248000DF91CF910895CF92DF92EF92FF92CF9399
:10249000DF9381E08093000788E680932207109203
:1024A00001071092230761E18CE698E00E946A0E12
:1024B0000E945D0C62E088E60E94440D10928E0638
:1024C00080938D068CE698E00E94230EC82F8EE63E
:1024D00092E00E94B404CC2E0C2E000CDD08EE0815
:1024E000FF084AE0C701B601F7FE0DC06DE28FECB0
:1024F00097E00E94670466277727CB016C197D0956
:102500008E099F094AE00E94DC1184E194E00E9458
:10251000C111C550C833B0F08FE592E00E94CE11D2
:10252000C5E0D0E048EE53E060E070E088EE93E074
:102530000E94160660ED77E080E090E00E94D808E7
:10254000219781F7DF91CF91FF90EF90DF90CF90AF
:102550000895FC0180819181009711F00C94D2358F
:1025600060E070E0CB0108954F925F926F927F928E
:102570008F929F92AF92BF92CF92DF92EF92FF9293
:10258000CF93DF93CDB7DEB72D970FB6F894DEBFAC
:102590000FBECDBF0E94B308C0900A06D0900B06B4
:1025A000E0900C06F0900D066C197D098E099F09CC
:1025B0006E34734C8105910508F499C10E94B308EB
:1025C00060930A0670930B0680930C0690930D0699
:1025D00085E999E00E94A91269837A838B839C83A1
:1025E00060E08AE00E94AC058AE0C82ED12CE12C84
:1025F000F12C69817A818B819C81A70196010E94CF
:10260000913849015A01660F771F68557C4FDB01ED
:102610004D905C9085E090E00E94120F3C01C50156
:10262000B401A70196010E949138660F771F685583
:102630007C4FFB018080918084E090E00E94120F2B
:102640005C0169817A818B819C8124E630E040E0E5
:1026500050E00E949138CA01B901A70196010E9479
:102660009138660F771F68557C4FDB01ED90FC9029
:1026700083E090E00E94120F46205720712C612CBD
:1026800044E1440C551C661C771C4A95D1F78E21F9
:102690009F21B0E0A0E073016201C82AD92AEA2A8A
:1026A000FB2A8A209B20B12CA12C5AE0880C991C73
:1026B000AA1CBB1C5A95D1F7C828D928EA28FB28A0
:1026C00069817A818B819C8128EE33E040E050E083
:1026D0000E94913829013A0180910F06882309F45C
:1026E000E4C06894F6F880910E06882309F4E0C0EF
:1026F0006894F7F8B0919A06BD878F2D9927AA277D
:10270000BB278D839E83AF83B8874701AA24BB2450
:10271000BB27AF2D9E2D8D2D89879A87AB87BC87D0
:102720009D85992309F4C7C08C2D0E943911898594
:102730000E943911882D0E9439118D810E94391112
:102740003AE0832E912CA12CB12CC301B201A5013A
:1027500094010E949138660F771F68557C4FDB010A
:10276000CD90DC9082E090E00E94120F7C016981A4
:102770007A818B819C8120E137E240E050E00E9429
:102780009138CA01B901A50194010E949138660FE0
:10279000771F68557C4FFB016080718081E090E07D
:1027A0000E94120FCE20DF20F12CE12C64E1CC0C32
:1027B000DD1CEE1CFF1C6A95D1F786219721B0E045
:1027C000A0E07AE0880F991FAA1FBB1F7A95D1F766
:1027D000C82AD92AEA2AFB2A69817A818B819C81BD
:1027E00020EA36E841E050E00E949138CA01B90180
:1027F000A50194010E949138660F771F68557C4FA0
:10280000DB01AD90BC9090E080E00E94120F8A2125
:102810009B21B0E0A0E08C299D29AE29BF29209101
:102820000F066C017D01222309F450C06894F6F86C
:1028300080910E06882309F44CC06894F7F84F2C59
:102840005524662477244701AA24BB24BB27AF2D37
:102850009E2D8D2D89839A83AB83BC839D8599237F
:10286000D9F18C2D0E94391189810E943911882D4E
:102870000E943911842D0E94391161E08AE02D9661
:102880000FB6F894DEBF0FBECDBFDF91CF91FF90A2
:10289000EF90DF90CF90BF90AF909F908F907F9000
:1028A0006F905F904F900C94AC05E894F6F81BCFB6
:1028B000E894F7F81FCF8D810E943911882D0E946E
:1028C000391189850E9439118C2D38CFE894F6F89A
:1028D000AFCFE894F7F8B3CF842D0E943911882D3B
:1028E0000E94391189810E9439118C2DC4CF2D96F7
:1028F0000FB6F894DEBF0FBECDBFDF91CF91FF9032
:10290000EF90DF90CF90BF90AF909F908F907F908F
:102910006F905F904F9008950F931F93CF93DF9325
:102920008C01EB01FC01808191810097E1F06881CD
:10293000798161157105A9F0428153812C813D8116
:102940004217530770F00E94EA3A8C819D81F8018A
:10295000958384831D821C82DF91CF911F910F91FB
:1029600008950E94773988819981F8019183808345
:102970008A819B81938382838C819D8195838483CB
:10298000198218821B821A82E5CFCF93DF93EC0164
:1029900088819981009711F00E94773919821882F5
:1029A0001D821C821B821A82DF91CF910895FC0147
:1029B00080819181009711F00C94773908950F93DD
:1029C0001F93CF93DF93EC0188819981009759F091
:1029D0002A813B812617370730F081E0DF91CF91C4
:1029E0001F910F9108958B016F5F7F4F0E94003AF6
:1029F000009759F0998388831B830A832C813D813A
:102A0000232B59F7FC011082E8CF80E0E7CFEF924B
:102A1000FF920F931F93CF93DF936115710541F4DC
:102A200080E0DF91CF911F910F91FF90EF9008957B
:102A300041155105B1F07B01EC010C811D81040FA2
:102A4000151FB8010E94DF14882351F328813981B2
:102A50008C819D81B701820F931F0E94EA3A1D83EA
:102A60000C8381E0DECFCF93DF93EC01FB0101907B
:102A70000020E9F73197AF01461B570B0E9407155D
:102A8000811103C0CE010E94C514CE01DF91CF9108
:102A90000895CF93DF93EC01FB0144815581608160
:102AA00071810E940715811103C0CE010E94C514D7
:102AB000CE01DF91CF910895EF92FF920F931F9374
:102AC000CF93DF93EC017B018A01BA010E94DF14EE
:102AD00081110BC0CE010E94C514CE01DF91CF91B0
:102AE0001F910F91FF90EF9008951D830C83B70104
:102AF000888199810E94EA3AF0CFFB010190002081
:102B0000E9F73197AF01461B570B0C945C150F93F7
:102B10001F93CF93DF93CDB7DEB762970FB6F894CC
:102B2000DEBF0FBECDBF8C01CB01F8011182108238
:102B300013821282158214824AE0BE016F5F7F4FBA
:102B40000E94F935BE016F5F7F4FC8010E947D155D
:102B500062960FB6F894DEBF0FBECDBFDF91CF9166
:102B60001F910F910895CF93DF93EC01FB0186171E
:102B7000970749F0608171816115710541F04481C9
:102B800055810E945C15CE01DF91CF9108950E947E
:102B9000C514F9CFFC0111821082138212821582B2
:102BA00014820C94B315FC011182108213821282DC
:102BB00015821482FB0101900020E9F73197AF01E3
:102BC000461B570B0C945C15AF92BF92CF92DF92CD
:102BD000EF92FF920F931F93CF93DF936C015B01F2
:102BE0007A0189012417350720F48F2D7901042FEC
:102BF000182F66E174E0C6010E94D315D501149622
:102C0000CD91DC91EC16FD06E0F40C171D0708F4DD
:102C1000E801D501ED91FC911197EC0FFD1F10819A
:102C200010826D917C916E0D7F1DC601611571053D
:102C3000A1F00E947D15F50180819181C80FD91FF7
:102C40001883C601DF91CF911F910F91FF90EF90F4
:102C5000DF90CF90BF90AF9008950E94C514EBCF46
:102C60004F925F926F927F928F929F92AF92BF929C
:102C7000CF92DF92EF92FF920F931F93CF93DF9348
:102C800000D000D0CDB7DEB77C014B015A01809156
:102C9000EF0581113AC081E08093EF0599EE692E2E
:102CA00095E0792E23EE422E25E0522E10E000E032
:102CB0000F5F1F4F680181E0C81AD1089801A60173
:102CC000B401CE0101960E94E415CE0101960E9446
:102CD000A912D3016D933D01CE0101960E94D71434
:102CE0009801A601B501CE0101960E94E415CE011E
:102CF00001960E94A912F20161932F01CE01019663
:102D00000E94D7140630110599F69091E20589EEDC
:102D1000C82E85E0D82EE3EEF5E08601A801D801A3
:102D20008C919A3008F04DC08F5F8C930F5F1F4FCE
:102D3000DA018C918A3019F4D80111971C923196DE
:102D4000B5E00F3E1B0751F79F5F943109F43FC078
:102D50009093E20566E174E0C7010E94D315FE017D
:102D600031965F01D6018D916D014AE0B50190E089
:102D70000E94F935F50101900020E9F73197AF0184
:102D80004A195B09B501C7010E9407150C151D05FD
:102D900049F7C70126960FB6F894DEBF0FBECDBF28
:102DA000DF91CF911F910F91FF90EF90DF90CF9027
:102DB000BF90AF909F908F907F906F905F904F905B
:102DC00008952081281709F4B1CF8F5FAECF1092FC
:102DD000E2051092EF05BECFCF92DF92EF92FF9205
:102DE0001F93CF93DF93CDB7DEB72C970FB6F89430
:102DF000DEBF0FBECDBF182F64EA74E0CE01079688
:102E00000E94D31522E030E050E040E0133071F032
:102E100024E030E042E050E01C3041F01033B9F4DF
:102E20002091990930919A0944E050E065E979E0F0
:102E3000CE0101960E94E415BE016F5F7F4FCE0167
:102E400007960E948C14CE0101960E94D714CE01E1
:102E500007960E94A9126B01CE0107960E94D71413
:102E6000C6012C960FB6F894DEBF0FBECDBFDF9122
:102E7000CF911F91FF90EF90DF90CF9008950F9327
:102E80001F93CF93DF93CDB7DEB762970FB6F89459
:102E9000DEBF0FBECDBF8C0177FF03C0719561957A
:102EA00071096A307105A4F5CE010D960E9487154F
:102EB0006CE174E0CE0101960E94D315BE016F5FF4
:102EC0007F4FCE0107960E94CA15BE01635F7F4FF8
:102ED000CE0107960E944915BC01C8010E94CA157F
:102EE000CE0107960E94D714CE0101960E94D714F6
:102EF000CE010D960E94D714C80162960FB6F894C1
:102F0000DEBF0FBECDBFDF91CF911F910F9108950E
:102F1000C8010E948715F0CF0F931F93CF93DF93C3
:102F2000CDB7DEB768970FB6F894DEBF0FBECDBF42
:102F30008B01833079F52091990930919A0942E00B
:102F400050E065E979E0CE010D960E94E415B801E4
:102F5000CE0101960E943F17BE016F5F7F4FCE01E9
:102F600007960E94CA15BE01635F7F4FCE01079688
:102F70000E944915BC0185E999E00E94B315CE0174
:102F800007960E94D714CE0101960E94D714CE0155
:102F90000D9644C08C3009F04EC0209199093091B3
:102FA0009A0944E050E065E979E0CE0143960E9439
:102FB000E415B801CE010D960E943F1722E030E0E3
:102FC00050E040E065E979E0CE0101960E94E41509
:102FD000BE016F5F7F4FCE0107960E94CA15BE01EA
:102FE000635F7F4FCE0107960E944915BE016D5E5B
:102FF0007F4F0E944915BC0185E999E00E94B315F5
:10300000CE0107960E94D714CE0101960E94D714D4
:10301000CE010D960E94D714CE0143960E94D7147C
:1030200068960FB6F894DEBF0FBECDBFDF91CF918B
:103030001F910F910895803399F7CE010D960E944C
:103040003F1724E030E050E040E065E979E0CE0150
:1030500001960E94E41580CF0E940A096093D90569
:103060007093DA058093DB059093DC058091D80599
:10307000882309F44FC02091D6053091D705C901A6
:10308000880F991F21313105A1F1FC01E45CFD4F4E
:10309000408151814150510951834083DC01A45C3E
:1030A000BD4F6D917C911197FC01E853FC4F40811D
:1030B0005181641775073CF4FC01E058FC4F4081D6
:1030C00051814D935C932031310509F520915C02CB
:1030D00030915D0221303105B9F420E820931006CB
:1030E000845C9D4FFC0160817181809120060C946D
:1030F0008C1740915E0250915F024C5051095093E1
:103100005F0240935E02CACF10921006E9CF2930C9
:10311000310531F708950E940A096093D90570932B
:10312000DA058093DB059093DC058091D805882330
:1031300009F444C02091D6053091D705C901880F04
:10314000991F2131310561F1FC01E45CFD4F4081A3
:1031500051814F5F5F4F51834083DC01A45CBD4FC1
:103160006D917C911197FC01E058FC4F4081518199
:10317000461757073CF4FC01E853FC4F408151814E
:103180004D935C9320313105B1F410921006845CAC
:103190009D4FFC0160817181809120060C948C17F9
:1031A00040915E0250915F02445F5F4F50935F0217
:1031B00040935E02D2CF2930310549F708950F932D
:1031C0001F93CF93DF93CDB7DEB768970FB6F89410
:1031D000DEBF0FBECDBF8C0180915E0290915F0279
:1031E000489709F048C00E94700BBC01CE0143967D
:1031F0000E943F170E94780BBC01CE010D960E94E1
:103200003F170E94800BBC01CE0101960E943F1720
:10321000BE016F5F7F4FCE0107960E94CA15BE01A7
:10322000635F7F4FCE0107960E944915BE016D5E18
:103230007F4F0E944915BC01C8010E94CA15CE01EA
:1032400007960E94D714CE0101960E94D714CE0192
:103250000D960E94D714CE0143960E94D714C80140
:1032600068960FB6F894DEBF0FBECDBFDF91CF9149
:103270001F910F9108950E94700BBC01CE014396DF
:103280000E943F170E94780BBC01CE010D960E9450
:103290003F170E94170A0E945D0A80917B066CE02E
:1032A00070E0882309F4B0CF682F70E08D3008F407
:1032B000ABCF6C507109A8CF8F929F92AF92BF9203
:1032C000CF92DF92EF92FF920F931F93CF93DF93F2
:1032D000CDB7DEB72C970FB6F894DEBF0FBECDBFCB
:1032E0008C016A017B0180910206811111C00E944C
:1032F0000A09645B7B4F8F4F9F4F6093FE0570936D
:10330000FF05809300069093010681E080930206FA
:103310008091F605811109C067E174E080EF95E0C6
:103320000E94D31581E08093F6050E940A098090DF
:10333000FE059090FF05A0900006B0900106681968
:1033400079098A099B09693E73408105910508F452
:10335000D0C00E940A096093FE057093FF05809318
:1033600000069093010620E030E0A901C701B601F4
:103370000E946C3820E030E040E05FE387FDD2C07F
:10338000C701B6010E94CA370E9436387B0177FF19
:1033900004C0EE24FF24E61AF70A5B0139E1A31A00
:1033A0003CEFB30A80916002909161029B012D591C
:1033B0003F4F69012A5531094901B701892B09F0AD
:1033C000B6C0CE0107960E9487156CE174E0CE016D
:1033D00001960E94D315BE01695F7F4FCE01019611
:1033E0000E9449156CE174E00E943315BC0180EF26
:1033F00095E00E94B315CE0101960E94D714CE012C
:1034000007960E94D7143FECA31637E0B30618F5D1
:10341000B701CE0107960E9487156BE174E0CE01DB
:1034200001960E94D315BE01695F7F4FCE010196C0
:103430000E9449156CE174E00E943315BC0180EFD5
:1034400095E00E94B315CE0101960E94D714CE01DB
:1034500007960E94D71487ECC816D10418F5B70157
:10346000CE0107960E9487156AE174E0CE010196AD
:103470000E94D315BE01695F7F4FCE0101960E9465
:1034800049156CE174E00E943315BC0180EF95E0B2
:103490000E94B315CE0101960E94D714CE01079663
:1034A0000E94D71423E18216910418F5B701CE01CA
:1034B00007960E94871569E174E0CE0101960E948B
:1034C000D315BE01695F7F4FCE0101960E94491559
:1034D0006CE174E00E943315BC0180EF95E00E941E
:1034E000B315CE0101960E94D714CE0107960E9413
:1034F000D71460EF75E0C8010E94CA15C8012C9668
:103500000FB6F894DEBF0FBECDBFDF91CF911F91F4
:103510000F91FF90EF90DF90CF90BF90AF909F9072
:103520008F900895C701B6010E94C9372DCFCE01F3
:1035300007960E9487156CE174E0CE0101960E9407
:10354000D315BE01695F7F4FCE0101960E944915D8
:103550006CE174E00E943315BC0180EF95E00E949D
:10356000B315CE0101960E94D714CE0107960E9492
:10357000D7143FECA31637E0B30638F5C7016AE06D
:1035800070E00E947D38CE0107960E9487156BE19E
:1035900074E0CE0101960E94D315BE01695F7F4F92
:1035A000CE0101960E9449156BE174E00E9433152B
:1035B000BC0180EF95E00E94B315CE0101960E94F8
:1035C000D714CE0107960E94D71487ECC816D104F1
:1035D00038F5C7016AE070E00E947D38CE01079699
:1035E0000E9487156AE174E0CE0101960E94D3150E
:1035F000BE01695F7F4FCE0101960E9449156BE1C4
:1036000074E00E943315BC0180EF95E00E94B31571
:10361000CE0101960E94D714CE0107960E94D714BE
:1036200023E18216910408F064CFC7016AE070E0DC
:103630000E947D38CE0107960E94871569E174E0EB
:10364000CE0101960E94D315BE01695F7F4FCE0166
:1036500001960E9449156BE174E03CCF85ED8093A3
:10366000BC008091FC069091FD06A091FE06B091F1
:10367000FF060796A11DB11D23E0B695A795979566
:1036800087952A95D1F72091BC0024FD03C01092A4
:10369000FA0608954091FC065091FD066091FE06E1
:1036A0007091FF06452B462B472B69F30097A10528
:1036B000B10541F025E32A95F1F700000197A10932
:1036C000B109E1CF8091FB060C943C0C0C946F3750
:1036D0000C94673788E090E00E94681B682F70E0C8
:1036E00089E00E94DC0789E090E00E94681B682F57
:1036F00070E086E00E94DC078AE090E00E94681B90
:10370000682F70E083E00C94DC072F923F924F9279
:103710005F926F927F928F929F92AF92BF92CF9261
:10372000DF92EF92FF920F931F93CF93DF93CDB76A
:10373000DEB7CA54D1090FB6F894DEBF0FBECDBFB5
:103740000E940A0920E137E240E050E00E948D37F4
:10375000672B682B692B01F58091B0068823E1F077
:103760000E944011E090AE06F090AF060091AC06CA
:103770001091AD062091AA063091AB064091B1069A
:103780005091B2066091A8067091A9068091A60694
:103790009091A7060E943B09AA24A3949AE0B92E0F
:1037A00001E023E0F22E32E0E32E82E397E00E9474
:1037B00025046C01892B09F4BBC182E397E00E94C8
:1037C0000304182F8091E3099091E409A091E50981
:1037D000B091E6090196A11DB11D8093E309909374
:1037E000E409A093E509B093E609143209F5809144
:1037F000FD0984FF0FC00E94B3086093EB0970932A
:10380000EC098093ED099093EE098091FD098F7E7C
:103810008093FD091092F9091092DA090093FE09CC
:103820001092FB098091FD098D7F8093FD09BDCF2A
:103830008091FE09823099F51A3229F4F092FE093E
:103840001092FB09B2CF80EE810F8F3570F480911A
:10385000F90981278093F9098091DA09863061F4AA
:10386000812F0E943402811107C01092F809109232
:10387000DA091092FE0999CF1C3259F48091FD09A2
:103880008D7F8093FD098091FA098F5F8093FA09FB
:10389000D7CF8091FB098F5F8093FB0986CF813062
:1038A00009F063C09091F90991279093F9091C32AE
:1038B00069F49091DA099923D1F21092F809809372
:1038C000FA091092FB09E092FE096FCF9090FB0974
:1038D00021E0291510F00C94782B8EEF882E890C9E
:1038E0008091DA09882309F43EC08150E82FF0E086
:1038F000EE0FFF1FE85CFD4F2591349150E040E052
:10390000C82CD12C61E0680F70E0F901EC0DFD1DB1
:10391000E4911E1711F40C94752B1E170CF4A7CF0D
:1039200077247394780E873009F4A1CFFB01E40F5C
:10393000F51FEE0FFF1FE85CFD4FA591B49190E0DD
:1039400080E0881558F4F901E80FF91F6490FD0133
:10395000E80FF91FE49101966E1699F34F5F5F4FE0
:10396000872D9D01D2CF80E0C1CF833009F0D0C038
:1039700010628FE9810F863038F517559091FB0959
:103980008091F909911122C00093FB0990E024E095
:10399000959587952A95E1F71817190609F405CF2B
:1039A0008091DF099091E009A091E109B091E209CD
:1039B0000196A11DB11D8093DF099093E009A093AA
:1039C000E109B093E20951CF1053D8CF8F7021E0B5
:1039D000811301C020E081130C947D2B8091FD099F
:1039E00081FF0DC02091DA098D7F8093FD099F5FD3
:1039F0009093FB09263019F48CE20E9434028091E6
:103A0000DB099091DC09A091DD09B091DE090196F6
:103A1000A11DB11D8093DB099093DC09A093DD0902
:103A2000B093DE099091DA0921E0973009F020E0A7
:103A30008091FD0920FB84F98093FD091092FE0915
:103A40002091090A211169C08091F80980FF0CC0FA
:103A50002091F7093091080A30FF04C03091070A1D
:103A6000321710F42093070A81FF0CC02091F3094C
:103A70002093030A2091F4092093040A2091F50968
:103A80002093050A82FF10C08091F1098093010AFA
:103A90008091F0098093000A8091EF098093FF09DB
:103AA0008091F6098093060A8091F8092091080A0E
:103AB000822B8093080A973009F077CE80910B0A09
:103AC000B89EC0011124FC01E85FF54F208122FF60
:103AD00016C08652964FFC0184A5811110C08091BA
:103AE000EB099091EC09A091ED09B091EE0980935A
:103AF000E7099093E809A093E909B093EA091092C5
:103B00000B0A8091090A811150CEA092090A4DCE6C
:103B100081114BCE1092DA0948CE88608093FD095E
:103B200010920A0A8091090A81508093090A8CCF69
:103B30008091090A882309F4E6C1CE0149960E94C2
:103B40002B118091090A8823C1F081508093090AC2
:103B500080910A0A2AE0289FC0011124FC01E1504B
:103B6000F64FDE01599601900D922A95E1F78150AA
:103B7000964F0E942B1110920A0A8AE0FE01799654
:103B8000A0EDB9E001900D928A95E1F70E940A0933
:103B90000091CC051091CD052091CE053091CF0537
:103BA000601B710B820B930B00913102109132025A
:103BB000209133023091340206171707280739077E
:103BC00070F480E497E7ABE1B0E08093310290932A
:103BD0003202A0933302B0933402109230028091EB
:103BE000300281119CC08091D209883108F097C0C1
:103BF0006091D1096C3308F092C04091D0094C33E8
:103C000008F08DC02091D409203208F088C00091BE
:103C1000D5090D3008F083C0E090D609F12CF701EA
:103C200074973B9708F07BC09091D9099B7F909344
:103C3000D90910E030E050E070E090E00E943B09CC
:103C40000E94B3080091E7091091E8092091E90961
:103C50003091EA09601B710B820B930B6032714A41
:103C60008740910598F08091750690917606A09115
:103C70007706B09178060196A11DB11D8093750657
:103C800090937606A0937706B0937806A09162028F
:103C9000B091630220E13EE00E94B83800917506C1
:103CA000109176062091770630917806DC01CB01E1
:103CB000800F911FA21FB31F809375069093760605
:103CC000A0937706B09378060E94560B4C010E9491
:103CD000600B082F0E94680BB82E0E94700BF82E04
:103CE0000E94780B182F0E94800B382FC40168EEB9
:103CF00073E00E947D38E82E2B2D4F2D612F832FEE
:103D00000E94990E81E0809330020E940A0960931C
:103D1000CC057093CD058093CE059093CF0510927E
:103D2000C0051092C1051092C2051092C3058FE71D
:103D300098E09093C7058093C60500917C0810E039
:103D40001093C9050093C8058091490990E09093AC
:103D5000CB058093CA05809178088530B1F58091B4
:103D60007C088A3108F404C180917F089091800812
:103D7000843F914008F0CDC01092C5051092C40553
:103D80008FEF9FEFDC018093C0059093C105A09356
:103D9000C205B093C3058BE090E09093BD0580937E
:103DA000BC056091C0057091C1058091C2059091DC
:103DB000C30540E10E94DC1184E194E00E94C1113E
:103DC00082E08093780810927C086091C005709121
:103DD000C10583EC99E00E94CE109093BB058093BF
:103DE000BA05019721F48EE194E00E94201280919F
:103DF000BA059091BB05019621F489E294E00E94F6
:103E000020126091C0057091C10586EB99E00E9477
:103E1000CE109093B9058093B805019721F487E3FC
:103E200094E00E9420128091B8059091B905019606
:103E300021F480E494E00E9420126091C00570910A
:103E4000C10589EA99E00E94CE109093B70580934E
:103E5000B605019721F48CE494E00E942012809131
:103E6000B6059091B705019621F487E594E00E948C
:103E700020120091A4061091A506F80180818823E4
:103E800009F4E8C10E940A0980905C0590905D05E4
:103E9000A0905E05B0905F05681979098A099B09B1
:103EA0008090580590905905A0905A05B0905B05F8
:103EB00086169706A806B90608F0CCC10E940A0922
:103EC0004B015C0180925C0590925D05A0925E05BD
:103ED000B0925F0578012AE0F80171908F0180EDC2
:103EE000870D8A3008F0ECC02C9DC0012D9D900DEF
:103EF0001124C72C770CDD08F0E3CF1AD108C80EC7
:103F0000D91E7801E9CF8091D9098B7F8093D90997
:103F10003DCE809181089091820885974B9740F51E
:103F2000E8E7F8E082E090E040E050E0BA01DC0130
:103F3000119620917C082A171B0609F00CF496C0F4
:103F400023853485275031092730310508F08DC08D
:103F500025853685235131092F30310508F478C085
:103F6000258536852A5031092930310508F478C075
:103F7000063011050CF424CF48E7242E48E0342EF7
:103F800053E0E52EF12C65EC862E6DE9962E6CE162
:103F9000A62E61E8B62EE016F1060CF080C0F10105
:103FA000658576856184728490E080E00E94483661
:103FB0002B966CAF7DAF8EAF9FAF2B97B30190E088
:103FC00080E00E9448362B013C012DEC3CEC4CE497
:103FD0005FE30E94A9369B01AC012B966CAD7DADD1
:103FE0008EAD9FAD2B970E944336F0E0E0E087FD59
:103FF00018C02DEC3CEC4CE45FE32B966CAD7DAD32
:104000008EAD9FAD2B970E94A9369B01AC01C301D9
:10401000B2010E944336E2E0F0E087FD02C0E1E039
:10402000F0E0A501940163E971E080E091E00E9475
:104030007D374F01FF0FAA08BB0886269726A826C2
:10404000B926FFEFEF1AFF0A22E0220E311CA3CFA0
:10405000440F551F661F771F41600296349667CF45
:10406000440F551F661F771FF8CFCD010197959517
:1040700087959093C5058093C4050C972CF41092F6
:10408000C5051092C40574CF4093C0055093C10577
:104090006093C2057093C30584E090E07ECE809269
:1040A000C0059092C105A092C205B092C30580E2FE
:1040B00090E09093C5058093C4058FEF9FEF6DCE80
:1040C000D092D505C092D4056091D0057091D105EC
:1040D0008091D2059091D305C114D10411F19601BC
:1040E000DD0C440B550B0E949138209358053093FA
:1040F000590540935A0550935B05EFE9E70DE7300A
:10410000B0F40E2E000CFF0B8827E657FF4D8F4FA3
:104110000C94B0382424262418241C241E24202483
:1041200022242091380230E050E040E0DCCF1092B1
:104130005705F7018181833241F4809157058F5FE4
:104140008093570587010E5F1F4FF80180818E32E3
:10415000F1F4C0905805D0905905E0905A05F090C0
:104160005B05C701B60122E030E040E050E00E946C
:104170009138C20ED31EE41EF51EC0925805D0928F
:104180005905E0925A05F0925B050F5F1F4FF80149
:10419000808180538A3008F05BC3809356050F5F9F
:1041A0001F4FF80180818C3211F40F5F1F4FE09197
:1041B0005705EE2309F44EC0C0905805D09059051C
:1041C000E0905A05F0905B05809156058450990B5C
:1041D0004CE0489F9001499F300D1124E20FF32FCE
:1041E000F11DEE0FFF1FEE57FD4FB701A6018081B5
:1041F00091810E9416060E940A09681979098A09A4
:104200009B09C616D706E806F90620F50E940A099A
:1042100060935C0570935D0580935E0590935F05E8
:1042200080913107813009F418C3823009F41BC32F
:10423000811105C080916E008D7F80936E0060E0DB
:10424000809130070E94AC0588E492E00E94CE1174
:1042500010E000E01093A5060093A4060E940A094E
:104260000091B2051091B3052091B4053091B505C8
:10427000601B710B820B930B6630710581059105F4
:1042800060F180913107813009F4F3C2823009F482
:10429000F3C2811105C080916E008695817099F4FA
:1042A00080913B028111EBC270E060E089E00E94E6
:1042B000DC0770E060E086E00E94DC0770E060E010
:1042C00083E00E94DC070E940A096093B2057093A4
:1042D000B3058093B4059093B5058091D605909170
:1042E000D705892B21F08091B1058111DFC1809123
:1042F000D8058111DBC18091760581110DC00E9426
:104300000A09609372057093730580937405909306
:10431000750581E08093760580916A0581110DC055
:104320000E940A096093660570936705809368058B
:104330009093690581E080936A050E940A090091C3
:104340007205109173052091740530917505601BFD
:10435000710B820B930B00910002109101022091CE
:10436000020230910302061717072807390708F0E1
:104370004DC00E940A096093720570937305809383
:10438000740590937505809164059091650500977B
:1043900009F0E2C281E090E09093D7058093D605C2
:1043A00088E893E1A0E0B0E08093000290930102DE
:1043B000A0930202B0930302809164059091650579
:1043C0008230910581F41092D7051092D60540E60F
:1043D0005AEE60E070E04093000250930102609357
:1043E0000202709303020196833091050CF0D4C24F
:1043F00090936505809364058091B105882321F031
:104400001092D7051092D6051092B1050E940A09A4
:104410000091720510917305209174053091750516
:10442000601B710B820B930B603D774081059105FA
:1044300008F088C30E940A0900916605109167057B
:104440002091680530916905601B710B820B930BFD
:10445000653671058105910508F428C10E940A0995
:10446000609366057093670580936805909369056E
:104470008091D6059091D70520919B06222309F4BF
:1044800090C2892B89F5CE0183960E94DF1881E0C6
:104490002091600230916102232B09F480E00E9498
:1044A000980FAB01BC01CE0101960E945C19AE01D0
:1044B0004D5D5F4FBE016F5F7F4FCE0189960E94B9
:1044C0003016BE01675D7F4F85E999E00E948C142C
:1044D000CE0189960E94D714CE0101960E94D7146E
:1044E000CE0183960E94D7148091D6059091D7056E
:1044F000019709F064C00E94560B68EE73E00E94B9
:104500007D38BC01CE01C5960E943F170E94600B0A
:10451000BC01CE018F960E943F170E94680BBC0120
:10452000CE0183960E943F17BE016D5D7F4FCE0185
:1045300089960E94CA15BE01615D7F4FCE018996A2
:104540000E944915BE016B5C7F4F0E944915BC015A
:10455000CE01CB960E94CA15CE0101960E94DF18AB
:10456000AE01455C5F4FBE016F5F7F4FCE018F5B39
:104570009F4F0E943016BE016F5B7F4F85E999E027
:104580000E948C14CE018F5B9F4F0E94D714CE01E6
:1045900001960E94D714CE01CB960E94D714CE016B
:1045A00089960E94D714CE0183960E94D714CE011B
:1045B0008F960E94D714CE01C5960E94D714809181
:1045C000D6059091D705049709F070C081E020913D
:1045D000600230916102232B09F480E00E94980F61
:1045E000AB01BC01CE01CB960E945C190E94560B18
:1045F00068EE73E00E947D38BC01CE018F960E9468
:104600003F170E94600BBC01CE0189960E943F17A4
:104610000E94680BBC01CE0101960E943F17BE01AB
:104620006F5F7F4FCE0183960E94CA15BE01675D02
:104630007F4FCE0183960E944915BE01615D7F4F79
:104640000E944915BC01CE01C5960E94CA15AE0153
:10465000455C5F4FBE016B5C7F4FCE018F5B9F4F10
:104660000E943016BE016F5B7F4F85E999E00E9482
:104670008C14CE018F5B9F4F0E94D714CE01C5963C
:104680000E94D714CE0183960E94D714CE010196C2
:104690000E94D714CE0189960E94D714CE018F961E
:1046A0000E94D714CE01CB960E94D7140E94B41258
:1046B0008CE799E00E94880B83E699E00E94880BC2
:1046C0008AE499E00E94880B8091D80581113DC24F
:1046D0001092200680917C0990917D091816190688
:1046E0003CF08091BA059091BB05019709F018C381
:1046F00081E08093B1051092A5061092A40644E6CD
:1047000050E060E070E088EE93E00E9416060E94A0
:104710000A096093D9057093DA058093DB059093BD
:10472000DC058091D6059091D705019686309105DC
:1047300009F438C29093D7058093D6052091D60509
:104740003091D7058901000F111FF801E85FFD4F77
:10475000808180932006D9011197FD01EE0FFF1F84
:10476000E05DFC4F608171816115710509F4C9C27A
:10477000AB0141505109FA01EE0FFF1FE85FFC4FFA
:104780000190F081E02DAE17BF0709F0BAC2623088
:10479000710509F00CC288E1EAE6F2E0DE0111964B
:1047A00001900D928A95E1F7809154029091550203
:1047B00083709927892B21F48DE190E09C838B8372
:1047C00080915202909153020197880F991FE1E066
:1047D000F0E0EC0FFD1F8E0F9F1F209150023091D3
:1047E0005102FC0180819181821793070CF0DFC197
:1047F0008AE090E09093D7058093D605C65BDF4FA3
:104800000FB6F894DEBF0FBECDBFDF91CF911F91E1
:104810000F91FF90EF90DF90CF90BF90AF909F905F
:104820008F907F906F905F904F903F902F90089562
:1048300081E0809357057DCC83E0FBCF85E0F9CF05
:1048400086E0F7CF88E0F5CF8AE0F3CF8CE0F1CFB8
:104850008091370280935605A4CC80916F008D7FA4
:1048600080936F00ECCC809170008D7F80937000FE
:10487000E6CC80916F0011CD809170000ECD8091BB
:10488000B306811120CD0091620510916305C80126
:10489000880F991F800F911FFC01EE0FFF1FEC5135
:1048A000FD4F208131816091060270910702620FF5
:1048B000731F7093070260930602FC01EE0FFF1F47
:1048C000EA51FD4FE080F1802091A7053091A805C5
:1048D000E20EF31EF092A805E092A705880F991F3B
:1048E000FC01E851FD4FC080D1808091A5059091D9
:1048F000A605C80ED91ED092A605C092A50589E0CE
:104900000E94DC07B70186E00E94DC07B60183E065
:104910000E94DC078091600590916105019690935B
:104920006105809360058F3F910551F40F5F1F4F24
:104930001093630500936205109261051092600563
:10494000809162059091630506970CF4BCCC10929F
:10495000630510926205B7CC019709F02DCD84E074
:1049600090E09093D7058093D60588E893E1A0E086
:10497000B0E08093000290930102A0930202B093F2
:10498000030280919B068111BDC682E090E0909366
:1049900065058093640510CD10926505109264053D
:1049A0002BCD892B09F064C0CE01CB960E94DF1875
:1049B0000E94560B68EE73E00E947D38BC01CE0168
:1049C0008F960E943F170E94600BBC01CE01899612
:1049D0000E943F170E94680BBC01CE0101960E9405
:1049E0003F17BE016F5F7F4FCE0183960E94CA15AD
:1049F000BE01675D7F4FCE0183960E944915BE01BF
:104A0000615D7F4F0E944915BC01CE01C5960E9491
:104A1000CA15AE01455C5F4FBE016B5C7F4FCE0196
:104A20008F5B9F4F0E943016BE016F5B7F4F85E901
:104A300099E00E948C14CE018F5B9F4F0E94D71487
:104A4000CE01C5960E94D714CE0183960E94D7143A
:104A5000CE0101960E94D714CE0189960E94D714E8
:104A6000CE018F960E94D714CE01CB960E94D71408
:104A70008091D6059091D705019709F017CE0E9435
:104A8000560B68EE73E00E947D38BC01CE01C596DE
:104A90000E943F170E94600BBC01CE018F960E94BE
:104AA0003F170E94680BBC01CE0183960E943F17FE
:104AB000BE016D5D7F4FCE0189960E94CA15BE0171
:104AC000615D7F4FCE0189960E944915BE016B5CE6
:104AD0007F4F0E944915BC01CE01CB960E94CA159A
:104AE000CE0101960E94DF18AE01455C5F4FBE010A
:104AF0006F5F7F4FCE018F5B9F4F0E943016BE01CC
:104B00006F5B7F4F85E999E00E948C14CE018F5B2B
:104B10009F4F0E94D714CE0101960E94D714CE0158
:104B2000CB960E94D714CE0189960E94D714CE014D
:104B300083960E94D714CE018F960E94D714CE017F
:104B4000C596B2CD1092EF05B1CD0E940A09009131
:104B5000D9051091DA052091DB053091DC05601B49
:104B6000710B820B930B61367A4E8105910508F427
:104B7000B1CD1092D805E091D605F091D705EE0F92
:104B8000FF1FE85AFC4F808191819093D705809355
:104B9000D605880F991FFC01E85FFD4F8081809347
:104BA000200698CD1092D7051092D605C7CD109249
:104BB000D8055093D7054093D605452BB9F40E94EC
:104BC000560B7C010E94600B8C010E94680B409187
:104BD0004C0250914D0260914A0270914B029C012F
:104BE00080914802909149020E943B098091D6052C
:104BF0009091D705019719F5E0905402F090550275
:104C0000F0E3EF1AF8EFFF0A0091520210915302FD
:104C100080905002909051020E94700B5C010E94A3
:104C2000780B6C010E94800B9401A501B6010E94D3
:104C30003B0960914E028DE090E00E94661B8091DE
:104C4000D6059091D7050297C1F46091560282E093
:104C500090E00E94661B6091580283E090E00E9401
:104C6000661B60915A0284E090E00E94661B60918E
:104C70005C0286E090E00E94661B8091D6059091D0
:104C8000D705039731F460915E0281E090E00E94C5
:104C9000661B8091D6059091D705049731F46091F9
:104CA00060028BE090E00E94661B8091D605909197
:104CB000D705059739F460916202645F8CE090E05B
:104CC0000E94661B0E94560B5C010E94600B082F1D
:104CD0000E94680BD82E0E94700BF82E0E94780B51
:104CE000182F0E94800B382FC50168EE73E00E94D8
:104CF0007D38E82E2D2D4F2D612F832F0E94990E88
:104D00007DCD2331310561F0295031092230310543
:104D100038F00E94EC16F801E45CFD4F918380832B
:104D200080917C0990917D0997FD07C08091BA051B
:104D30009091BB05019609F0F3C044E650E060E0B5
:104D400070E088EE93E00E9416068091D8058111EC
:104D50004DC00091D6051091D7050E940A096093B5
:104D6000D9057093DA058093DB059093DC05012B60
:104D7000E9F50E94700BBC01CE018F960E943F178F
:104D80000E94780BBC01CE0189960E943F170E94B9
:104D9000800BBC01CE0101960E943F17BE016F5FE0
:104DA0007F4FCE0183960E94CA15BE01675D7F4F7B
:104DB000CE0183960E944915BE01615D7F4F0E941E
:104DC0004915BC0185E999E00E94B315CE0183968F
:104DD0000E94D714CE0101960E94D714CE01899665
:104DE0000E94D714CE018F960E94D7148091D605C9
:104DF0009091D705019709F05AC00E94680B9093D3
:104E00005102809350020E94600B90935302809352
:104E100052020E94560B68EE73E00E947D38BC017E
:104E2000909355028093540280914E0290914F02CC
:104E3000892B09F09BC1CE018F960E943F1760918C
:104E4000520270915302CE0189960E943F176091E1
:104E5000500270915102CE0101960E943F17BE018F
:104E60006F5F7F4FCE0183960E94CA15BE01675DBA
:104E70007F4FCE0183960E944915BE01615D7F4F31
:104E80000E944915BC0185E999E00E94B315CE0145
:104E900083960E94D714CE0101960E94D714CE01AA
:104EA00089960E94D714CE018F960E94D714E09164
:104EB000D605F091D705EE0FFF1FE85AFC4F208171
:104EC00031813093D7052093D6052D30310549F433
:104ED00081E090E090935D0280935C0280E8809393
:104EE00010068091D80591E089278093D805890123
:104EF000000F111FF801E85FFD4F808180932006AD
:104F0000A901425151094230510550F02930310573
:104F100039F00E94EC16F801E45CFD4F9183808328
:104F20008091630990916409009709F030C18091E4
:104F3000B8059091B9050197E1F481E08093B1053E
:104F40001092A5061092A40644E650E060E070E0DE
:104F500088EE93E00E9416060E948B188091D80577
:104F6000811107C01092B30660E087E090E00E94D4
:104F7000661B8091AF059091B005019609F010C1B4
:104F800080916509882309F40BC110922206809153
:104F9000D8058823F9F00E940A090091AB05109109
:104FA000AC052091AD053091AE05601B710B820BF5
:104FB000930B673971058105910560F00E940A091C
:104FC0006093AB057093AC058093AD059093AE05EF
:104FD0000E948B1880914A0990914B09009709F023
:104FE000E3C08091B6059091B705019771F511E086
:104FF0001093B1051092A5061092A40644E650E065
:1050000060E070E088EE93E00E9416060E942C1883
:105010008091D805811119C01093B30661E087E033
:1050200090E00E94661B6091060288E090E00E947A
:10503000661B6091A70589E090E00E94661B609165
:10504000A5058AE090E00E94661B8091A9059091D9
:10505000AA05019609F0B1C080914C09882309F492
:10506000ACC08091D80510922106882321F10E94BE
:105070000A090091A1051091A2052091A305309184
:10508000A405601B710B820B930B673971058105B9
:10509000910508F449C00E940A096093A105709324
:1050A000A2058093A3059093A4050E942C188091DB
:1050B000D805811139C0809163099091640997FDE9
:1050C00006C08091B8059091B905019691F444E627
:1050D00050E060E070E088EE93E00E94160681E008
:1050E00080933B0261E090E080E00E94661B0E949A
:1050F0006A1B80914A0990914B0997FD06C08091E7
:10510000B6059091B705019679F444E650E060E069
:1051100070E088EE93E00E94160610923B0260E079
:1051200090E080E00E94661BE091D605F091D705E3
:10513000E431F10508F062CB8827EE55F74D8F4F2B
:105140000C94B038E12812290F2A572A822AC62A3D
:10515000FE23FE23FE23F52A1D2B1D2B1D2BFE23D4
:10516000FE23FE23FE23FE23822AC62ACE018F962B
:105170000E943F176091500270915102CE018996B2
:105180000E943F17609152027091530264CE909337
:10519000B0058093AF05181619060CF4CECEC7CE15
:1051A00081E08093220616CF9093AA058093A905EB
:1051B000181619060CF41BCF14CF81E0809321063A
:1051C00076CF8091EF0581111EC00E94700B209157
:1051D00004023091050282179307E9F00E94700BD8
:1051E0009093050280930402CE0101960E94DF187D
:1051F000BE016F5F7F4F85E999E00E948C14CE015C
:1052000001960E94D7140E94700B80FD76C180EC3D
:105210008093100674C165E979E0CE0101960E9481
:10522000CA15E6CF8091EF058111E2C08091990502
:10523000811111C00E940A0967517C4F8F4F9F4F07
:1052400060939505709396058093970590939805C4
:1052500081E08093990580918D05811144C00E9461
:10526000560B68EE73E00E947D38BC01CE010196BA
:105270000E943F170E94600BBC01CE0183960E94E2
:105280003F170E94680BBC01CE018F960E943F170A
:10529000BE01615D7F4FCE0189960E94CA15BE0195
:1052A0006D5D7F4FCE0189960E944915BE016F5FEB
:1052B0007F4F0E944915BC0187E895E00E94CA15FE
:1052C00081E080938D05CE0189960E94D714CE018E
:1052D0008F960E94D714CE0183960E94D714CE01D8
:1052E00001960E94D71400914E0210914F028091B6
:1052F0007F05811105C000937E0581E080937F05C5
:105300000E940A09C0909505D0909605E0909705F7
:10531000F09098056C197D098E099F09693E7340CC
:105320008105910530F480917E058017110609F4FE
:105330004EC00E940A09609395057093960580936C
:10534000970590939805012B09F054C00E94560BC5
:1053500068EE73E00E947D38BC01CE0101960E9488
:105360003F170E94600BBC01CE0183960E943F173D
:105370000E94680BBC01CE018F960E943F17BE01B0
:10538000615D7F4FCE0189960E94CA15BE016D5D99
:105390007F4FCE0189960E944915BE016F5F7F4FF6
:1053A0000E944915BC0187E895E00E94B315CE0123
:1053B00089960E94D714CE018F960E94D714CE01F1
:1053C00083960E94D714CE0101960E94D71467E8F5
:1053D00075E0CE0101960E94CA15BE016F5F7F4F36
:1053E00085E999E00E948C14CE0101960E94D714A1
:1053F00080E40ECF0E94560B68EE73E00E947D3869
:10540000BC01CE0101960E943F170E94680BBC01AF
:10541000CE0183960E943F170E94600BABCF609134
:105420005A0270915B02CE018F960E943F176091E5
:10543000580270915902CE0189960E943F176091DF
:10544000560270915702CE0101960E943F17BE018D
:105450006F5F7F4FCE0183960E94CA15BE01675DC4
:105460007F4FCE0183960E944915BE01615D7F4F3B
:105470000E944915BC0185E999E00E94B315CE014F
:1054800083960E94D714CE0101960E94D714CE01B4
:1054900089960E94D714CE018F960E94D7148091CE
:1054A0005C0290915D02019741F580E8B1CE609178
:1054B0005E0270915F02CE0183960E9487156BE1B8
:1054C00074E0CE0101960E94D315BE016D5D7F4F41
:1054D000CE0101960E9449156BE174E00E943315DC
:1054E000BC0185E999E00E94B315CE0101960E94A6
:1054F000D714CE0183960E94D714109210060E94F2
:10550000F70F7CC98091EF05811124C081E02091C3
:10551000600230916102232B09F480E00E94980F11
:10552000AB01BC01CE0101960E945C19BE016F5F08
:105530007F4F85E999E00E948C14CE0101960E946C
:10554000D7148091600290916102892BD1F480E49C
:105550008093100681E02091600230916102232B3C
:1055600009F480E00E94980F1091100620E030E0CE
:10557000A9010E94433687FF07C0106810931006E8
:105580003DC910921006E6CF1F77F8CF60916202F6
:1055900070916302CE0101960E943F17BE016F5FBA
:1055A0007F4FCE0183960E94CA1569E174E0CE0157
:1055B00083960E943315BC0185E999E00E94B315DA
:1055C000CE0183960E94D714CE0101960E94D71473
:1055D000809162029091630297FD03C010921006C1
:1055E0000DC980E88093100609C980914E02909100
:1055F0004F02892B99F465E674E085E999E00E94F1
:105600007D1583E090E090931D0280931C028CE056
:1056100090E090931F0280931E02F0C86CE674E045
:1056200085E999E00E947D158CE090E090931D0241
:1056300080931C0283E090E0ECCF60915402709163
:10564000550280914E0290914F02892BE9F5CE01CF
:105650008F960E943F176091520270915302CE01C3
:1056600089960E943F176091500270915102CE01BD
:1056700001960E943F17BE016F5F7F4FCE01839658
:105680000E94CA15BE01675D7F4FCE0183960E94BE
:105690004915BE01615D7F4F0E944915BC0185E936
:1056A00099E00E94B315CE0183960E94D714CE01D3
:1056B00001960E94D714CE0189960E94D714CE017C
:1056C0008F960E94D7149AC8CE018F960E943F17DA
:1056D0006091500270915102CE0189960E943F174D
:1056E0006091520270915302C2CF8F5F8093DA09AA
:1056F00093949092FB090C94D51B21110C94D01C0F
:105700000C94D51B81E090E00C94F3211F920F9232
:105710000FB60F9211240BB60F922F933F934F9316
:105720005F936F937F938F939F93AF93BF93EF9309
:10573000FF9382E397E00E944504FF91EF91BF91B0
:10574000AF919F918F917F916F915F914F913F9119
:105750002F910F900BBE0F900FBE0F901F901895BA
:105760001F920F920FB60F9211240BB60F922F9328
:105770008F939F93EF93FF93E0914207F09143073C
:105780008081E0914807F091490782FD1DC090811A
:1057900080914B078F5F8F7320914C07821741F0E8
:1057A000E0914B07F0E0EE5CF84F958F80934B074C
:1057B000FF91EF919F918F912F910F900BBE0F90C2
:1057C0000FBE0F901F9018958081F2CF1F920F92FD
:1057D0000FB60F9211240BB60F922F933F934F9356
:1057E0005F936F937F938F939F93AF93BF93EF9349
:1057F000FF938FEC97E00E944504FF91EF91BF91DA
:10580000AF919F918F917F916F915F914F913F9158
:105810002F910F900BBE0F900FBE0F901F901895F9
:105820001F920F920FB60F9211240BB60F922F9367
:105830008F939F93EF93FF93E091DF07F091E00741
:105840008081E091E507F091E60782FD1DC090811F
:105850008091E8078F5F8F732091E907821741F0ED
:10586000E091E807F0E0E153F84F958F8093E80767
:10587000FF91EF919F918F912F910F900BBE0F9001
:105880000FBE0F901F9018958081F2CF1F920F923C
:105890000FB60F9211242F933F938F939F93AF9343
:1058A000BF938091810690918206A0918306B0916A
:1058B00084063091800623E0230F2D3758F501969A
:1058C000A11DB11D209380068093810690938206CE
:1058D000A0938306B09384068091850690918606F6
:1058E000A0918706B09188060196A11DB11D8093F5
:1058F000850690938606A0938706B0938806BF918D
:10590000AF919F918F913F912F910F900FBE0F906C
:105910001F90189526E8230F0296A11DB11DD2CF26
:105920001F920F920FB60F9211240BB60F922F9366
:105930003F934F935F936F937F938F939F93AF9317
:10594000BF93EF93FF93809179080E948305209184
:105950007D0830917E082F5F3F4F30937E08209363
:105960007D0890917C08953618F096E09093780821
:1059700090917808943009F466C0B8F49230F1F050
:10598000933009F444C090917B08992309F46BC0CB
:1059900081117CC080917A08882309F463C08091CA
:1059A0007A0861E00E94AC055EC0953009F457C0EA
:1059B000963049F791E0909349094FC08111E3CFA8
:1059C00020917D0830917E082436310528F410920C
:1059D0007E0810927D08D7CF1092490910927C085A
:1059E000E0917C0891E09E0F90937C08F0E020917C
:1059F0007D0830917E08EE0FFF1FE858F74F308783
:105A0000278310927E0810927D0893E019C08130A0
:105A100009F0B9CFE0917C0891E09E0F90937C084B
:105A2000F0E020917D0830917E08EE0FFF1FE858CE
:105A3000F74F3087278310927E0810927D0894E0FC
:105A400090937808A0CF882359F220917D08309157
:105A50007E082536310508F496CF95E0F1CF811107
:105A600092CFB5CF2F9AFF91EF91BF91AF919F91B8
:105A70008F917F916F915F914F913F912F910F90F7
:105A80000BBE0F900FBE0F901F90189580917A0853
:105A9000882321F080917A0860E084CF2F98E3CFAB
:105AA0001F920F920FB60F9211240BB60F922F93E5
:105AB0003F938F939F93AF93BF93EF93FF93809107
:105AC000240790912507A0912607B09127070097FA
:105AD000A105B10541F130918F06E0919006F0915A
