:100000000C9400010C9428010C9428010C942801F4
:100010000C9428010C9428010C9428010C94931A38
:100020000C9428010C9428010C9428010C94EE1ACD
:100030000C9428010C9428010C94531B0C94280157
:100040000C94491A0C9428010C9491180C946B1878
:100050000C9428010C9428010C9428010C9428017C
:100060000C94BA1F0C942801EC01EE01E201E401AA
:10007000E601E801EA01DC09530A4E0B9C0BCE0BAA
:100080001E0C260E260E260E530C7B0C7B0C7B0CB6
:10009000260E260E260E260E260ECE0B1E0C496EA2
:1000A000636F727265637420536F6E6720466F7260
:1000B0006D617421005247423D6F666600524742AF
:1000C0003D6F6E00426C75653D00475245454E3DA3
:1000D000005245443D0053746F726520746F204593
:1000E0004550524F4D3A0076616C75653D006D6527
:1000F0006E75506F736974696F6E3D0076616C75D3
:10010000653D006D656E75506F736974696F6E3D06
:100110000000000000250028002B00020100000064
:100120000000240027002A004661756C7479204481
:10013000533332333121004453333233315F543D32
:100140000053746F7020546573740054656D702E85
:100150002073656E736F72206E6F7420666F756E9C
:10016000642E005374617274205465737400466980
:10017000726D776172652076657273696F6E3A2071
:10018000005761726E696E67212052544320444FBC
:100190004E275420524553504F4E4421006C656405
:1001A000206C6F636B3D0057616B652075702C2070
:1001B0004E656F21000000000800020100000304EA
:1001C00007000000000000000000000000230026DF
:1001D00000290004040404040404040202020202CC
:1001E00002030303030303010204081020408001FB
:1001F000020408102001020408102000CE2BC62B98
:1002000011241FBECFEFD8E0DEBFCDBF27E0A4E3AF
:10021000B4E001C01D92AE31B207E1F714E0A0E0F6
:10022000B1E0E4E6F3E602C005900D92A433B10715
:10023000D9F710E0CFEFD0E004C02197FE010E9473
:10024000772FCE3FD107C9F70E94FE260C94A53127
:100250000C9400008F929F92AF92BF92CF92DF9248
:10026000EF92FF920F931F93CF93DF93CDB7DEB73B
:10027000EC970FB6F894DEBF0FBECDBF0E94161AE2
:1002800020E137E240E050E00E94362F672B682BD8
:10029000692B29F48091C10481110C94D30C109224
:1002A000AA041092A9041092A8041092A704109214
:1002B000A6041092A5040091B5041091B604F801AB
:1002C0008081882309F432C10E94161AC0903A0432
:1002D000D0903B04E0903C04F0903D04DC01CB0165
:1002E0008C199D09AE09BF09C0903604D09037041F
:1002F000E0903804F0903904C816D906EA06FB06E7
:1003000008F014C10E94161A6B017C0160933A0434
:1003100070933B0480933C0490933D041092D4046A
:100320001092D304A8016AE08A01FA01B0804F5FFD
:100330005F4F80ED8B0D2091D3043091D4048A302F
:1003400080F4629FF001639FF00D11248B2DBB0C94
:10035000990BC0978E0F9F1F9093D4048093D30462
:10036000E3CF6091CF047091D0048091D10490913B
:10037000D2042115310529F0032E000C440B550B36
:1003800005C020915C0130E040E050E00E94582F11
:100390002093360430933704409338045093390443
:1003A0008B2DBB0C990BAA0BBB0BFC01E156F10981
:1003B000E730F10520F4EC5CFF4F0C94772F10929E
:1003C00035040FC081E00BC083E009C085E007C0A1
:1003D00086E005C088E003C08AE001C08CE080931D
:1003E0003504F8018181833219F00F5F1F4F07C078
:1003F000809135048F5F809335040E5F1F4FF801A5
:1004000080818E3201F58090360490903704A09060
:100410003804B0903904C501B40122E030E040E076
:1004200050E00E94582FD501C401820F931FA41FD2
:10043000B51F8093360490933704A0933804B0938B
:1004400039040F5F1F4FF801808180538A3028F4F0
:10045000809334040F5F1F4F04C080915B01809331
:10046000340480913404F80190819C3211F40F5FC0
:100470001F4F20913504222309F458C08090360480
:1004800090903704A0903804B090390490E004971D
:100490003CE0389FF001399FF00D1124E20FF11D6F
:1004A000EE0FFF1FE558FE4FB501A4018081918139
:1004B0000E948F210E94161ADC01CB018C199D0924
:1004C000AE09BF0988169906AA06BB0678F50E94F0
:1004D000161A60933A0470933B0480933C04909303
:1004E0003D0480910906813051F0823071F0811114
:1004F00011C080916E008D7F80936E000BC0809143
:100500006F008D7F80936F0005C0809170008D7F9C
:100510008093700060E0809108060E94EC188EE9DC
:1005200090E00E949B2390E080E002C0902F812FFA
:100530009093B5048093B6040E94161A0091A1040A
:100540001091A2042091A3043091A404DC01CB01FA
:10055000801B910BA20BB30B0697A105B10508F404
:100560009DC080910906813039F0823041F08111BF
:100570000CC080916E0005C080916F0002C0809118
:1005800070008695817009F07FC0809130018111E3
:1005900010C060E070E089E00E94581960E070E0EF
:1005A00086E00E94581960E070E083E00E945819CC
:1005B0006BC08091C404811167C000914004109108
:1005C0004104C801880F991F800F911FFC01EE0F95
:1005D000FF1FE352FE4F60910401709105012081DD
:1005E0003181620F731F7093050160930401FC0158
:1005F000EE0FFF1FE152FE4FC0909604D09097047B
:1006000020813181C20ED31ED0929704C0929604ED
:10061000880F991FFC01EF51FE4FE0909404F09079
:10062000950480819181E80EF91EF0929504E09284
:10063000940489E00E945819B60186E00E94581976
:10064000B70183E00E94581980913E0490913F04C5
:10065000019690933F0480933E048F3F910551F49F
:10066000C8010196909341048093400410923F0486
:1006700010923E048091400490914104069724F02A
:1006800010924104109240040E94161A6093A10433
:100690007093A2048093A3049093A4048091D50442
:1006A0009091D604892B21F08091A0048111D3C2AE
:1006B0008091D7048111CFC28091540481110DC063
:1006C0000E94161A60935004709351048093520450
:1006D0009093530481E080935404809148048111E5
:1006E0000DC00E94161A60934404709345048093D1
:1006F00046049093470481E0809348040E94161AB0
:1007000000915004109151042091520430915304EF
:10071000DC01CB01801B910BA20BB30B00910001FC
:10072000109101012091020130910301081719076E
:100730002A073B0708F06FC00E94161A6093500406
:100740007093510480935204909353048091420417
:1007500090914304009799F481E090E09093D6043F
:100760008093D50488E893E1A0E0B0E08093000195
:1007700090930101A0930201B09303011EC0019761
:10078000E1F484E090E09093D6048093D50488E867
:1007900093E1A0E0B0E08093000190930101A09369
:1007A0000201B09303018091B404811106C082E07C
:1007B00090E090934304809342048091420490918E
:1007C00043048230910581F41092D6041092D5042E
:1007D00040E65AEE60E070E0409300015093010162
:1007E00060930201709303010196833091052CF40C
:1007F000909343048093420404C0109243041092E7
:1008000042048091A004882321F01092D604109213
:10081000D5041092A0040E94161A00915004109161
:1008200051042091520430915304DC01CB01801B10
:10083000910BA20BB30B803D9740A105B10508F0C9
:1008400008C20E94161A0091440410914504209198
:10085000460430914704DC01CB01801B910BA20BB5
:10086000B30B85369105A105B10508F4F4C10E94CA
:10087000161A609344047093450480934604909341
:1008800047042091B4048091D5049091D60422238A
:1008900009F410C1892B89F5CE0149960E940626DC
:1008A00081E02091550130915601232B09F480E01D
:1008B0000E94BC13AB01BC01CE0101960E94DB116A
:1008C000AE01475E5F4FBE016F5F7F4FCE014F9617
:1008D0000E941C14BE01615E7F4F8EEF96E00E9465
:1008E000D90ECE014F960E94A70FCE0101960E940D
:1008F000A70FCE0149960E94A70F8091D504909131
:10090000D604019709F062C00E94D21E68EE73E01F
:100910000E94222FBC01CE018B960E94B8250E9416
:10092000DC1EBC01CE0185960E94B8250E94E41E03
:10093000BC01CE0149960E94B825BE01675E7F4F7B
:10094000CE014F960E944D18BE016B5D7F4FCE01C8
:100950004F960E94C60EBE01655D7F4F0E94C60E77
:10096000BC01CE01C1960E944D18CE0101960E9495
:100970000626AE014F5C5F4FBE016F5F7F4FCE0119
:10098000C7960E941C14BE01695C7F4F8EEF96E0F3
:100990000E94D90ECE01C7960E94A70FCE010196E4
:1009A0000E94A70FCE01C1960E94A70FCE014F96BD
:1009B0000E94A70FCE0149960E94A70FCE018596EF
:1009C0000E94A70FCE018B960E94A70F8091D5049D
:1009D0009091D604049709F03EC181E02091550121
:1009E00030915601232B09F480E00E94BC13AB0127
:1009F000BC01CE01C1960E94DB110E94D21E68EE9E
:100A000073E00E94222FBC01CE0185960E94B8257A
:100A10000E94DC1EBC01CE014F960E94B8250E94A8
:100A2000E41EBC01CE0101960E94B825BE016F5F95
:100A30007F4FCE0149960E944D18BE01615E7F4FE7
:100A4000CE0149960E94C60EBE016B5D7F4F0E948B
:100A5000C60EBC01CE018B960E944D18AE014F5CB4
:100A60005F4FBE01655D7F4FCE01C7960E941C148B
:100A7000BE01695C7F4F8EEF96E00E94D90ECE01D9
:100A8000C7960E94A70FCE018B960E94A70FCE019A
:100A900049960E94A70FCE0101960E94A70FCE0192
:100AA0004F960E94A70FCE0185960E94A70FCE01F8
:100AB000C196CCC0892B09F062C0CE01C1960E94BC
:100AC00006260E94D21E68EE73E00E94222FBC010F
:100AD000CE0185960E94B8250E94DC1EBC01CE0185
:100AE0004F960E94B8250E94E41EBC01CE010196DB
:100AF0000E94B825BE016F5F7F4FCE0149960E94CC
:100B00004D18BE01615E7F4FCE0149960E94C60E10
:100B1000BE016B5D7F4F0E94C60EBC01CE018B965D
:100B20000E944D18AE014F5C5F4FBE01655D7F4F67
:100B3000CE01C7960E941C14BE01695C7F4F8EEFE8
:100B400096E00E94D90ECE01C7960E94A70FCE0153
:100B50008B960E94A70FCE0149960E94A70FCE0147
:100B600001960E94A70FCE014F960E94A70FCE01BB
:100B700085960E94A70FCE01C1960E94A70F809173
:100B8000D5049091D604019709F065C00E94D21E49
:100B900068EE73E00E94222FBC01CE018B960E946A
:100BA000B8250E94DC1EBC01CE0185960E94B825A6
:100BB0000E94E41EBC01CE0149960E94B825BE01E8
:100BC000675E7F4FCE014F960E944D18BE016B5D50
:100BD0007F4FCE014F960E94C60EBE01655D7F4FCE
:100BE0000E94C60EBC01CE01C1960E944D18CE01D6
:100BF00001960E940626AE014F5C5F4FBE016F5FFB
:100C00007F4FCE01C7960E941C14BE01695C7F4FC6
:100C10008EEF96E00E94D90ECE01C7960E94A70FD4
:100C2000CE0101960E94A70FCE01C1960E94A70F88
:100C3000CE014F960E94A70FCE0149960E94A70FA2
:100C4000CE0185960E94A70FCE018B960E94A70F1A
:100C500002C01092DE040E944C1085EE96E00E94C5
:100C6000041F8CEC96E00E94041F83EB96E00E9428
:100C7000041F8091D704811103C0109232052DC04A
:100C80000E94161A0091D8041091D9042091DA0418
:100C90003091DB04DC01CB01801B910BA20BB30B69
:100CA00081369A4EA105B105C0F01092D704E091AB
:100CB000D504F091D604EE0FFF1FEF5AFD4F80814F
:100CC00091819093D6048093D504880F991FFC01DD
:100CD000EA5FFE4F8081809332058091E506909116
:100CE000E606181619063CF08091A9049091AA0412
:100CF000019709F0D7C081E08093A0041092B60458
:100D00001092B50444E650E060E070E088EE93E0B5
:100D10000E948F210E94161A6093D8047093D90400
:100D20008093DA049093DB048091D5049091D604EB
:100D30009C012F5F3F4F2530310529F03093D604B9
:100D40002093D50405C002969093D6048093D504D1
:100D50008091D5049091D604069721F41092D60480
:100D60001092D50483E091E00E947A238091D5040B
:100D70009091D6040E94A9238CEF90E00E947A23E0
:100D8000E091D504F091D604EE0FFF1FEF5CFE4F0B
:100D9000808191810E94A9238091D5049091D604ED
:100DA000FC01EE0FFF1FEA5FFE4F2081209332050A
:100DB0000197FC01EE0FFF1FE75DFD4F4081518160
:100DC0004115510509F444C09A0121503109F90136
:100DD000EE0FFF1FEF5FFD4F60817181681779078C
:100DE000B9F54230510509F0FCC588E1E3E6F1E0D0
:100DF000DE01119601900D928A95E1F780914901EB
:100E000090914A0183709927892B21F48DE190E01C
:100E10009C838B834091450150914601E0914701AD
:100E2000F09148013197EE0FFF1F81E090E08C0FA9
:100E30009D1FE80FF91F80819181841795070CF0A1
:100E4000D0C58AE090E09093D6048093D504FEC686
:100E500081E293E00E9468238091D5049091D604AA
:100E60000E94A9238BE293E00E94682380914301B2
:100E7000909144010E94A9230091D5041091D604B9
:100E80000331110579F0C8010997029758F0809154
:100E900032050E949B16000F111FF801EF5CFE4FF8
:100EA000918380838091E5069091E60697FD07C0C7
:100EB0008091A9049091AA04019609F02DC144E6FD
:100EC00050E060E070E088EE93E00E948F21809116
:100ED000D70481114DC00E94161A6093D8047093F4
:100EE000D9048093DA049093DB048091D504909127
:100EF000D604892BE9F50E94EC1EBC01CE01859633
:100F00000E94B8250E94F41EBC01CE014F960E949B
:100F1000B8250E94FC1EBC01CE0101960E94B82596
:100F2000BE016F5F7F4FCE0149960E944D18BE01F2
:100F3000615E7F4FCE0149960E94C60EBE016B5D79
:100F40007F4F0E94C60EBC018EEF96E00E94900F6C
:100F5000CE0149960E94A70FCE0101960E94A70FCD
:100F6000CE014F960E94A70FCE0185960E94A70F33
:100F70008091D5049091D604019709F07AC086E358
:100F800093E00E9468238FE393E00E9468230E940D
:100F9000E41E90934601809345010E94DC1E9093CD
:100FA0004801809347010E94D21E68EE73E00E94C0
:100FB000222FBC0190934A01809349018091430103
:100FC00090914401892B89F4CE0185960E94B82521
:100FD0006091470170914801CE014F960E94B8255B
:100FE000609145017091460110C0CE0185960E9426
:100FF000B8256091450170914601CE014F960E943F
:10100000B8256091470170914801CE0101960E9478
:10101000B825BE016F5F7F4FCE0149960E944D18E3
:10102000BE01615E7F4FCE0149960E94C60EBE0191
:101030006B5D7F4F0E94C60EBC018EEF96E00E9452
:10104000900FCE0149960E94A70FCE0101960E94F3
:10105000A70FCE014F960E94A70FCE0185960E9442
:10106000A70F82E493E00E9468238EEF96E00E942F
:10107000E226E091D504F091D604EE0FFF1FEF5A5F
:10108000FD4F208131813093D6042093D5042D303B
:10109000310549F481E090E0909352018093510131
:1010A00080E8809331059091D70481E0892780936F
:1010B000D7048901000F111FF801EA5FFE4F8081FC
:1010C00080933205A901425151094230510550F037
:1010D0002930310539F00E949B16F801EF5CFE4F74
:1010E000918380838EEE90E00E947A238091D504D4
:1010F0009091D6040E94A92387EE90E00E947A2363
:10110000E091D504F091D604EE0FFF1FEF5CFE4F87
:10111000808191810E94A9238091CC069091CD0677
:10112000009739F48091A7049091A804019721F5C4
:1011300007C090939F0480939E041816190694F795
:1011400081E08093A0041092B6041092B50444E6A6
:1011500050E060E070E088EE93E00E948F210E94F2
:10116000A5158091D704811107C01092C40460E0D6
:1011700087E090E00E94E82080919E0490919F0477
:10118000019661F58091CE06882341F110923405D5
:101190008091D704882329F10E94161A00919A049D
:1011A00010919B0420919C0430919D04DC01CB01A3
:1011B000801B910BA20BB30B87399105A105B105DB
:1011C00080F00E94161A60939A0470939B04809397
:1011D0009C0490939D040E94A51503C081E0809318
:1011E00034058091B3069091B406009741F4809144
:1011F000A5049091A604019709F058C007C09093E8
:10120000990480939804181619068CF711E010932E
:10121000A0041092B6041092B50444E650E060E0D9
:1012200070E088EE93E00E948F210E943515809136
:10123000D70481113BC01093C40461E087E090E0C3
:101240000E94E8206091040188E090E00E94E8207C
:101250006091960489E090E00E94E82060919404F7
:101260008AE090E00E94E82086ED90E00E949B23B7
:1012700081ED90E00E947A23809104019091050114
:101280000E94A9238AEC90E00E947A238091960420
:10129000909197040E94A92384EC90E00E947A2305
:1012A00080919404909195040E94A92380919804C0
:1012B00090919904019661F58091B506882341F1DA
:1012C000109233058091D704882329F10E94161AC1
:1012D0000091900410919104209192043091930414
:1012E000DC01CB01801B910BA20BB30B873991055D
:1012F000A105B10580F00E94161A609390047093C6
:10130000910480939204909393040E94351503C036
:1013100081E0809333058091D704811141C0809191
:10132000CC069091CD0697FD06C08091A7049091C0
:10133000A8040196B1F444E650E060E070E088EE65
:1013400093E00E948F2181E08093300161E080E092
:1013500090E00E94E8208DEB90E00E949B230E9489
:10136000EC208091B3069091B40697FD06C0809161
:10137000A5049091A604019699F444E650E060E03B
:1013800070E088EE93E00E948F211092300160E0BF
:1013900080E090E00E94E82085EB90E00E949B2393
:1013A000E091D504F091D604E431F10508F04EC483
:1013B000E55CFF4F0C94772F8091DE04811135C0DE
:1013C0000E94161A00915C0410915D0420915E0445
:1013D00030915F04DC01CB01801B910BA20BB30B9E
:1013E000893E9340A105B10578F00E94161A6093DA
:1013F0005C0470935D0480935E0490935F04CE015F
:1014000001960E94062606C06EEF76E0CE01019698
:101410000E944D18BE016F5F7F4F8EEF96E00E94D5
:10142000D90ECE0101960E94A70F8091650481110B
:101430000DC00E94161A6093610470936204809339
:1014400063049093640481E0809365040E94161AFB
:10145000009161041091620420916304309164044E
:10146000DC01CB01801B910BA20BB30B893E934097
:10147000A105B10508F40BC10E94161A609361041E
:101480007093620480936304909364049091600469
:1014900081E0892780936004882311F080ECF5C0F7
:1014A00010923105F4C08091DE048111EDC080916D
:1014B0008804811113C00E94161ADC01CB018751E8
:1014C0009C4FAF4FBF4F8093840490938504A093AB
:1014D0008604B093870481E08093880480917C0423
:1014E000811144C00E94D21E68EE73E00E94222F38
:1014F000BC01CE0101960E94B8250E94DC1EBC01F1
:10150000CE0149960E94B8250E94E41EBC01CE017E
:1015100085960E94B825BE016B5D7F4FCE014F9628
:101520000E944D18BE01675E7F4FCE014F960E940C
:10153000C60EBE016F5F7F4F0E94C60EBC0186E7DC
:1015400094E00E944D1881E080937C04CE014F9678
:101550000E94A70FCE0185960E94A70FCE01499643
:101560000E94A70FCE0101960E94A70F80916E04E2
:10157000811107C08091430180936D0481E08093C5
:101580006E040E94161A0091840410918504209123
:10159000860430918704DC01CB01801B910BA20BE8
:1015A000B30B893E9340A105B10558F480916D04B9
:1015B00090E020914301309144018217930709F490
:1015C00052C00E94161A609384047093850480931D
:1015D0008604909387048091430190914401892B64
:1015E00009F01FC30E94D21E68EE73E00E94222FF2
:1015F000BC01CE0101960E94B8250E94DC1EBC01F0
:10160000CE0149960E94B8250E94E41EBC01CE017D
:1016100085960E94B825BE016B5D7F4FCE014F9627
:101620000E944D18BE01675E7F4FCE014F960E940B
:10163000C60EBE016F5F7F4F0E94C60EBC0186E7DB
:1016400094E00E94900FCE014F960E94A70FCE010A
:1016500085960E94A70FCE0149960E94A70FCE0142
:1016600001960E94A70F66E774E0CE0101960E94E2
:101670004D18BE016F5F7F4F8EEF96E00E94D90E2E
:10168000CE0101960E94A70F80E4809331050E944D
:10169000D4141092DD041092DC04D8C260914F0182
:1016A00070915001CE0185960E94B82560914D0140
:1016B00070914E01CE014F960E94B82560914B016A
:1016C00070914C01CE0101960E94B825BE016F5F5A
:1016D0007F4FCE0149960E944D18BE01615E7F4F3B
:1016E000CE0149960E94C60EBE016B5D7F4F0E94DF
:1016F000C60EBC018EEF96E00E94900FCE01499677
:101700000E94A70FCE0101960E94A70FCE014F960F
:101710000E94A70FCE0185960E94A70F1092DD04AC
:101720001092DC048091510190915201019789F54A
:1017300080E8809331052FC060915301709154016E
:101740004AE0CE0149960E9421186DE673E0CE0171
:1017500001960E945618BE01675E7F4FCE0101962A
:101760000E94C60E6DE673E00E94AD0EBC018EEFC6
:1017700096E00E94900FCE0101960E94A70FCE0125
:1017800049960E94A70F83E390E09093DD04809335
:10179000DC04109231050E94D41458C28091DE04FA
:1017A000811133C081E02091550130915601232BE6
:1017B00009F480E00E94BC13AB01BC01CE0101968C
:1017C0000E94DB11BE016F5F7F4F8EEF96E00E949B
:1017D000D90ECE0101960E94A70F809155019091DC
:1017E0005601892B51F481E390E09093DD048093BE
:1017F000DC0480E48093310508C083E290E090939C
:10180000DD048093DC041092310581E020915501C4
:1018100030915601232B09F480E00E94BC1320E094
:1018200030E0A9010E94E32C9091310587FF02C0AE
:10183000906801C09F779093310508C2609157016D
:1018400070915801CE0101960E94B825BE016F5FCC
:101850007F4FCE0149960E944D186BE673E0CE0192
:1018600049960E94AD0EBC018EEF96E00E94900F4B
:10187000CE0149960E94A70FCE0101960E94A70FA4
:101880008FE090E09093DD048093DC048091570119
:101890009091580197FD03C010923105D7C180E89F
:1018A00080933105D3C18091430190914401892BEC
:1018B00079F467E473E08EEF96E00E94330F83E0E3
:1018C00090E090931B0180931A018CE090E00EC091
:1018D0006EE473E08EEF96E00E94330F8CE090E0B0
:1018E00090931B0180931A0183E090E090931D0177
:1018F00080931C01ABC180914301909144016091A0
:10190000490170914A01892B89F4CE0185960E9484
:10191000B8256091470170914801CE014F960E9411
:10192000B825609145017091460110C0CE018596A1
:101930000E94B8256091450170914601CE014F96F5
:101940000E94B8256091470170914801CE0101962F
:101950000E94B825BE016F5F7F4FCE0149960E945D
:101960004D18BE01615E7F4FCE0149960E94C60EA2
:10197000BE016B5D7F4F0E94C60EBC018EEF96E0EC
:101980000E94900FCE0149960E94A70FCE010196AA
:101990000E94A70FCE014F960E94A70FCE018596F9
:1019A0000E94A70F53C10E942825E090BF04F09029
:1019B000C0040091BD041091BE042091BB0430917D
:1019C000BC044091C2045091C3046091B904709169
:1019D000BA048091B7049091B8040E94B81B0C948B
:1019E0004F011092D7043093D6042093D504232BB3
:1019F000B9F40E94D21E7C010E94DC1E8C010E9460
:101A0000E41E9C01409141015091420160913F01CF
:101A10007091400180913D0190913E010E94B81B60
:101A20008091D5049091D6040197B9F585E193E0B2
:101A30000E94682380914501909146010E94A9234C
:101A40008AE193E00E9468238091470190914801C8
:101A50000E94A923E0904901F0904A0190E3E91A1D
:101A600098EFF90A009147011091480180904501D3
:101A7000909046010E94EC1E5C010E94F41E6C01D5
:101A80000E94FC1E9401A501B6010E94B81B609142
:101A900043018DE090E00E94E8208091D504909170
:101AA000D6040297C1F460914B0182E090E00E945D
:101AB000E82060914D0183E090E00E94E820609171
:101AC0004F0184E090E00E94E8206091510186E09F
:101AD00090E00E94E8208091D5049091D60403976D
:101AE00031F46091530181E090E00E94E820809100
:101AF000D5049091D604049731F4609155018BE0A0
:101B000090E00E94E8208091D5049091D60405973A
:101B100039F460915701645F8CE090E00E94E82006
:101B20000E94D21E68EE73E00E94222F082F0E94AE
:101B3000DC1EF82E0E94E41EE82E0E94EC1EB82E39
:101B40000E94F41EC82E0E94FC1ED82E81E08093B5
:101B50008F0588E68093B105109290051092B2052A
:101B600060E087EA96E00E94AC1D1AE08B2D612FA1
:101B70000E94162F692FE0E18E9F600D112487EAE5
:101B800096E00E94AC1D8C2D612F0E94162F692FAC
:101B9000F0E18F9F600D112487EA96E00E94AC1D52
:101BA0008D2D612F0E94162F692F20E1829F600DDD
:101BB000112487EA96E00E94AC1D61E087EA96E076
:101BC0000E94AC1D8E2D612F0E94162F692FE0E11F
:101BD0008E9F600D112487EA96E00E94AC1D8F2D28
:101BE000612F0E94162F692FF0E18F9F600D112445
:101BF00087EA96E00E94AC1D802F612F0E94162F6D
:101C0000692F20E1829F600D112487EA96E00E94EF
:101C1000AC1D60E087EA96E00E94AC1D0E9474242F
:101C200015C00E94D21E68EE73E00E94222FBC01F4
:101C3000CE0101960E94B8250E94E41EBC01CE018F
:101C400049960E94B8250E94DC1EE0CCEC960FB6A7
:101C5000F894DEBF0FBECDBFDF91CF911F910F91E2
:101C6000FF90EF90DF90CF90BF90AF909F908F90BC
:101C700008950E949031CF93DF93EC018881998180
:101C8000009711F00E942E30198218821D821C824A
:101C90001B821A82DF91CF9108950F931F93CF93E8
:101CA000DF93EC0188819981009729F02A813B819B
:101CB0002617370788F48B016F5F7F4F0E94C6306D
:101CC000009761F0998388831B830A832C813D816F
:101CD000232B11F4FC01108281E001C080E0DF9130
:101CE000CF911F910F910895FC0180819181009700
:101CF00011F00C94672C60E070E0CB010895EF9236
:101D0000FF920F931F93CF93DF93FC0124813581C2
:101D10006115710511F480E019C041155105A9F054
:101D20007B01EC018A01020F131FB8010E944D0EC6
:101D3000882389F3288139818C819D81B701820FA5
:101D4000931F0E949E311D830C8381E0DF91CF9110
:101D50001F910F91FF90EF900895CF93DF93EC01C7
:101D60006115710561F0FB0101900020E9F73197E1
:101D7000AF01461B570B0E947F0E811103C0CE019D
:101D80000E943B0ECE01DF91CF910895CF93DF9358
:101D9000EC01FB0144815581608171810E947F0EBD
:101DA000811103C0CE010E943B0ECE01DF91CF9185
:101DB00008950F931F93CF93DF938C01EB01FC01E8
:101DC000808191810097B1F06881798161157105F9
:101DD00079F0428153812C813D814217530740F0B5
:101DE0000E949E318C819D81F8019583848313C06C
:101DF0000E942E3088819981F801918380838A81A5
:101E00009B81938382838C819D81958384831982B6
:101E100018821B821A821D821C82DF91CF911F9132
:101E20000F910895EF92FF920F931F93CF93DF933B
:101E3000EC017B018A01BA010E944D0E811104C0A0
:101E4000CE010E943B0E07C01D830C83B701888121
:101E500099810E949E31CE01DF91CF911F910F9108
:101E6000FF90EF900895CF93DF93EC01611571051A
:101E700059F0FB0101900020E9F73197AF01461BB3
:101E8000570B0E94120F02C00E943B0ECE01DF9141
:101E9000CF910895BF92CF92DF92EF92FF920F936E
:101EA0001F93CF93DF937C016B018A01E901241713
:101EB000350720F4812F8901C42FD82F61E473E006
:101EC000C7010E945618D60114968D919C911597C2
:101ED00008171907D0F48C179D0708F4EC01D601F8
:101EE000ED91FC911197EC0FFD1FB08010824D9188
:101EF0005C91BA01600F711FC7010E94330FD601B8
:101F0000ED91FC91EC0FFD1FB082C701DF91CF91E5
:101F10001F910F91FF90EF90DF90CF90BF900895A9
:101F2000CF93DF93EC01FB018617970761F0608187
:101F300071816115710529F0448155810E94120F4C
:101F400002C00E943B0ECE01DF91CF910895FC01AB
:101F5000808191810C942E300F931F93CF93DF9348
:101F6000CDB7DEB768970FB6F894DEBF0FBECDBF12
:101F70008B01833091F4209102073091030742E0F6
:101F800050E06EEF76E0CE010D960E944A0FB80148
:101F9000CE0101960E94B82555C08C3009F042C090
:101FA000209102073091030744E050E06EEF76E0A5
:101FB000CE0143960E944A0FB801CE010D960E94B1
:101FC000B82522E030E040E050E06EEF76E0CE0150
:101FD00001960E944A0FBE016F5F7F4FCE010796A8
:101FE0000E944D18BE01635F7F4FCE0107960E948D
:101FF000C60EBE016D5E7F4F0E94C60EBC018EEF05
:1020000096E00E94900FCE0107960E94A70FCE0186
:1020100001960E94A70FCE010D960E94A70FCE0138
:1020200043962DC0803369F5CE010D960E94B825E8
:1020300024E030E040E050E06EEF76E0CE01019623
:102040000E944A0FBE016F5F7F4FCE0107960E942C
:102050004D18BE01635F7F4FCE0107960E94C60EEA
:10206000BC018EEF96E00E94900FCE0107960E9471
:10207000A70FCE0101960E94A70FCE010D960E94D8
:10208000A70F68960FB6F894DEBF0FBECDBFDF91E5
:10209000CF911F910F9108952F923F924F925F928F
:1020A0006F927F928F929F92AF92BF92CF92DF9268
:1020B000EF92FF920F931F93CF93DF9300D000D046
:1020C000CDB7DEB70E94B71900910B0510910C0532
:1020D00020910D0530910E05DC01CB01801B910B89
:1020E000A20BB30B8E34934CA105B10508F44CC17F
:1020F0000E94B71960930B0570930C0580930D0532
:1021000090930E058EEF96E00E94740E6B017C0199
:1021100060E08AE00E94EC188AE0482E512C612C85
:10212000712CC701B601A30192010E94582FCB0167
:10213000880F991FFC01EF52FD4FC080D18085E0D0
:1021400090E029833A834B835C830E9407211C0122
:1021500029813A814B815C81CA01B901A3019201B5
:102160000E94582F660F771FFB01EF52FD4FA08092
:10217000B18084E090E029833A834B835C830E94A2
:1021800007217C0129813A814B815C81CA01B90117
:10219000A30192010E94582F29013A01660F771F6F
:1021A000FB01EF52FD4F0081118183E090E00E941E
:1021B000072145018E209F20A12CB12CAAE0880C7C
:1021C000991CAA1CBB1CAA95D1F780239123AC01B2
:1021D00060E070E0D501C401842B952BA62BB72BB2
:1021E000C220D320A60160E070E014E1440F551F27
:1021F000661F771F1A95D1F76C017D01C42AD52A75
:10220000E62AF72A80913005882319F06894F6F8B9
:1022100002C0E894F6F880912F05882319F068949D
:10222000F7F802C0E894F7F88F2D0E94F7268E2D5C
:102230000E94F7268D2D0E94F7268C2D0E94F726EE
:102240008AE0882E912CA12CB12CC301B201A501EA
:1022500094010E94582FCB01880F991FFC01EF5267
:10226000FD4F0081118182E090E029833A834B8306
:102270005C830E9407216C0129813A814B815C813A
:10228000CA01B901A50194010E94582F660F771F5A
:10229000FB01EF52FD4F6080718081E090E0298367
:1022A0003A834B835C830E940721C022D122E12C18
:1022B000F12CF4E1CC0CDD1CEE1CFF1CFA95D1F7DF
:1022C00086219721A0E0B0E01AE0880F991FAA1F8D
:1022D000BB1F1A95D1F7C82AD92AEA2AFB2A2981D5
:1022E0003A814B815C81CA01B901A50194010E9428
:1022F000582F660F771FFB01EF52FD4F00811181B0
:1023000080E090E00E94072180239123A0E0B0E0CC
:10231000C82AD92AEA2AFB2A80913005882319F095
:102320006894F6F802C0E894F6F880912F058823A7
:1023300019F06894F7F802C0E894F7F88F2D0E941E
:10234000F7268E2D0E94F7268D2D0E94F7268C2DC4
:102350000E94F72661E08AE00F900F900F900F9097
:10236000DF91CF911F910F91FF90EF90DF90CF9071
:10237000BF90AF909F908F907F906F905F904F90A5
:102380003F902F900C94EC180F900F900F900F909F
:10239000DF91CF911F910F91FF90EF90DF90CF9041
:1023A000BF90AF909F908F907F906F905F904F9075
:1023B0003F902F9008958F929F92AF92BF92CF92AD
:1023C000DF92EF92FF920F931F93CF93DF93CDB7DE
:1023D000DEB72C970FB6F894DEBF0FBECDBF8C01D1
:1023E0006A017B0180910305811113C00E94161AB6
:1023F000DC01CB01845B9B4FAF4FBF4F8093FF0449
:1024000090930005A0930105B093020581E08093AD
:1024100003058091F704811109C069E673E081EF3B
:1024200094E00E94561881E08093F7040E94161AE7
:102430008090FF0490900005A0900105B0900205E7
:10244000DC01CB0188199909AA09BB09893E93408F
:10245000A105B10508F477C10E94161A6093FF0424
:1024600070930005809301059093020520E030E011
:10247000A901C701B6010E94112F20E030E040E021
:102480005FE387FD05C0C701B6010E946F2E04C03F
:10249000C701B6010E946E2E0E94DB2E809155016D
:1024A000909156019B0129513C4F490124583340DA
:1024B00059012A55310969017B01892B09F095C021
:1024C00077FF03C0F194E194F1084AE0B701CE012F
:1024D00007960E9421186EE673E0CE0101960E94D5
:1024E0005618BE01695F7F4FCE0101960E94C60E4D
:1024F0006EE673E00E94AD0EBC0181EF94E00E9495
:10250000900FCE0101960E94A70FCE0107960E9460
:10251000A70F3FEC831637E0930620F54AE0B7019A
:10252000CE0107960E9421186DE673E0CE01019658
:102530000E945618BE01695F7F4FCE0101960E942E
:10254000C60E6EE673E00E94AD0EBC0181EF94E012
:102550000E94900FCE0101960E94A70FCE01079610
:102560000E94A70F87ECA816B10420F54AE0B70136
:10257000CE0107960E9421186CE673E0CE01019609
:102580000E945618BE01695F7F4FCE0101960E94DE
:10259000C60E6EE673E00E94AD0EBC0181EF94E0C2
:1025A0000E94900FCE0101960E94A70FCE010796C0
:1025B0000E94A70F23E1C216D10408F0C4C04AE06C
:1025C000B701CE0107960E9421186BE673E0CE0199
:1025D00001960E945618BE01695F7F4FCE01019699
:1025E0000E94C60E6EE673E09FC077FF03C0F194B1
:1025F000E194F1084AE0B701CE0107960E94211844
:102600006EE673E0CE0101960E945618BE01695F26
:102610007F4FCE0101960E94C60E6EE673E00E94C7
:10262000AD0EBC0181EF94E00E94900FCE010196A7
:102630000E94A70FCE0107960E94A70F3FEC8316BA
:1026400037E0930640F5C7016AE070E00E94222F50
:102650004AE0CE0107960E9421186DE673E0CE0194
:1026600001960E945618BE01695F7F4FCE01019608
:102670000E94C60E6DE673E00E94AD0EBC0181EFB4
:1026800094E00E94900FCE0101960E94A70FCE0108
:1026900007960E94A70F87ECA816B10440F5C70162
:1026A0006AE070E00E94222F4AE0CE0107960E9465
:1026B00021186CE673E0CE0101960E945618BE0107
:1026C000695F7F4FCE0101960E94C60E6DE673E0F2
:1026D0000E94AD0EBC0181EF94E00E94900FCE01EC
:1026E00001960E94A70FCE0107960E94A70F23E133
:1026F000C216D10440F5C7016AE070E00E94222FA3
:102700004AE0CE0107960E9421186BE673E0CE01E5
:1027100001960E945618BE01695F7F4FCE01019657
:102720000E94C60E6DE673E00E94AD0EBC0181EF03
:1027300094E00E94900FCE0101960E94A70FCE0157
:1027400007960E94A70F61EF74E0C8010E944D1820
:10275000C8012C960FB6F894DEBF0FBECDBFDF9137
:10276000CF911F910F91FF90EF90DF90CF90BF908E
:10277000AF909F908F900895EF92FF920F931F93C9
:10278000CF93DF93E82E0E94AB268CEC0E9481262B
:1027900084E40E9481260E94AB268CEC0E94812654
:1027A0008EEB0E94812608E010E0D1E0C0E00E949C
:1027B000D1248111CD2BDD0F01501109C1F708E0A3
:1027C00010E0FF24F394D0E00E94D1248111DF298E
:1027D000FF0C01501109C1F76C2F70E07D2B6F3F8A
:1027E0008FEF780711F460E070E0072E000C880B83
:1027F000990B0E94EA2C20E030E040E85DE30E9463
:10280000492DEE2061F026E636E646EE5FE30E94B3
:10281000492D20E030E040E052E40E946F2E20E09D
:1028200030E040E251E40E94492DDF91CF911F91A9
:102830000F91FF90EF9008954F925F926F927F9269
:102840008F929F92AF92BF92CF92DF92EF92FF92C0
:102850000F931F93CF93DF9300D000D000D0CDB75C
:10286000DEB77C014B015A018091DE04882341F0E0
:102870008091E4040BEE14E0A5EEB4E0F8014CC046
:1028800081E08093DE041092DD041092DC048BEE74
:10289000682E84E0782E95EE492E94E0592E00E0C3
:1028A00010E00F5F1F4F680181E0C81AD10898013E
:1028B000A601B401CE0101960E944A0FCE010196F5
:1028C0000E94740EF30161933F01CE0101960E94B4
:1028D000A70F9801A601B501CE0101960E944A0FEB
:1028E000CE0101960E94740EF20161932F01CE0178
:1028F00001960E94A70F0630110599F6B9CF2C91C9
:1029000092130DC090819A3009F41082319611967D
:1029100094E0E13FF90731F090818A3080F79F5FC2
:102920009083F0CF8F5F843119F08093E40404C06A
:102930001092E4041092DE0461E473E0C7010E9487
:102940005618FE0131966F01F80181918F014AE01E
:10295000B60190E00E94992CF60101900020E9F761
:102960003197AF014C195D09B601C7010E947F0E76
:10297000F4E0013F1F0741F7C70126960FB6F89410
:10298000DEBF0FBECDBFDF91CF911F910F91FF90A2
:10299000EF90DF90CF90BF90AF909F908F907F90FF
:1029A0006F905F904F9008950F931F938091510106
:1029B00090915201892B09F455C08091E30488233A
:1029C000A9F00E94161A0091DF041091E0042091F2
:1029D000E1043091E204DC01CB01801B910BA20BDE
:1029E000B30B893E9340A105B105C8F58091E3047E
:1029F000811138C00E94FC1E20914B0130914C0186
:102A00008217930779F50E94F41E20914D013091B1
:102A10004E018217930731F50E94EC1E20914F0161
:102A20003091500182179307E9F40E94161A6093BF
:102A3000DF047093E0048093E1049093E20481E06A
:102A40008093E30487EA91E00E949B2380912E010A
:102A500090912F019093B6048093B50403C0109217
:102A6000E304C4CF1F910F9108950E94161A60933A
:102A7000D8047093D9048093DA049093DB04809196
:102A8000D704882309F460C02091D5043091D6047E
:102A9000C901880F991F2131310551F0FC01EF5C0C
:102AA000FE4F4081518141505109518340830AC0FA
:102AB00040915301509154014C505109509354018D
:102AC00040935301DC01AF5CBE4F6D917C91119737
:102AD000FC01E658FD4F40815181641775073CF4B5
:102AE000FC01E755FD4F408151814D935C932031AE
:102AF000310571F42091510130915201213031059D
:102B000021F420E82093310506C01092310503C05E
:102B10002930310549F0FC01EF5CFE4F6081718185
:102B2000809132050E94AC0F86E294E00E946823F7
:102B3000E091D504F091D604EE0FFF1FEF5CFE4F3D
:102B4000808191810C94A92308950E94161A6093A4
:102B5000D8047093D9048093DA049093DB048091B5
:102B6000D704882309F455C02091D5043091D604A8
:102B7000C901880F991F2131310551F0FC01EF5C2B
:102B8000FE4F408151814F5F5F4F518340830AC0A8
:102B90004091530150915401445F5F4F5093540151
:102BA00040935301DC01AF5CBE4F6D917C91119756
:102BB000FC01E755FD4F40815181461757073CF412
:102BC000FC01E658FD4F408151814D935C932031CB
:102BD000310519F41092310503C02930310549F04F
:102BE000FC01EF5CFE4F60817181809132050E9493
:102BF000AC0F86E294E00E946823E091D504F09146
:102C0000D604EE0FFF1FEF5CFE4F808191810C9484
:102C1000A9230895CF93DF93EC01019628812A33ED
:102C2000D9F78981843639F51092D4041092D304EF
:102C300023964AE0FE018881219690ED980F20911D
:102C4000D3043091D4049A3080F4429FB001439F62
:102C5000700D1124082E000C990BC097860F971F3A
:102C60009093D4048093D304E5CF1216130614F482
:102C700020935C01EF01219688818F3689F48A8147
:102C8000082E000C990B9C01205331093093D40479
:102C90002093D304C397059710F420935B012496E7
:102CA0008881823629F51092D4041092D304FE0153
:102CB00032964AE0819190ED980F2091D3043091A3
:102CC000D4049A3080F4429FB001439F700D1124C8
:102CD000082E000C990BC097860F971F9093D40471
:102CE0008093D304E7CF30935A0120935901EF0129
:102CF0002091590130915A01032E000C440B550BC1
:102D000060E67AEE80E090E00E94582FDA01C90177
:102D100022E0880F991FAA1FBB1F2A95D1F7809325
:102D2000CF049093D004A093D104B093D204CE01E9
:102D3000DF91CF910895CF92DF92EF92FF921F9390
:102D4000CF93DF93CDB7DEB72C970FB6F894DEBFE5
:102D50000FBECDBF182F65E773E0CE0101960E942C
:102D60005618133029F422E030E040E050E00FC064
:102D70001C3029F424E030E042E050E008C0103379
:102D8000B9F4209102073091030744E050E06EEF60
:102D900076E0CE0107960E944A0FBE01695F7F4F21
:102DA000CE0101960E94D90ECE0107960E94A70F70
:102DB000CE0101960E94740E6B017C01CE0101963A
:102DC0000E94A70FC6012C960FB6F894DEBF0FBE67
:102DD000CDBFDF91CF911F91FF90EF90DF90CF900B
:102DE00008950895CF92DF92EF92FF920F931F9371
:102DF000CF93DF936C017A018B01C0E0D0E0CE1558
:102E0000DF0589F0D8016D918D01D601ED91FC911E
:102E10000190F081E02DC6010995892B11F47E0106
:102E200002C02196ECCFC701DF91CF911F910F9186
:102E3000FF90EF90DF90CF900895FC01538D448D6B
:102E4000252F30E0842F90E0821B930B541710F055
:102E5000CF96089501970895FC01918D828D981762
:102E600061F0828DDF01A80FB11D5D968C91928D6E
:102E70009F5F9F73928F90E008958FEF9FEF08956B
:102E8000FC01918D828D981731F0828DE80FF11D34
:102E9000858D90E008958FEF9FEF0895FC01918D4F
:102EA000228D892F90E0805C9F4F821B91098F7348
:102EB000992708958AE096E00E944E1721E0892B19
:102EC00009F420E0822F0895FC01848DDF01A80F12
:102ED000B11DA35ABF4F2C91848D90E001968F7342
:102EE0009927848FA689B7892C93A089B1898C9161
:102EF00080648C93938D848D981306C00288F38927
:102F0000E02D80818F7D80830895EF92FF920F9353
:102F10001F93CF93DF93EC0181E0888F9B8D8C8D85
:102F2000981305C0E889F989808185FD24C0F62EB3
:102F30000B8D10E00F5F1F4F0F731127E02E8C8D4C
:102F4000E8120CC00FB607FCFACFE889F989808136
:102F500085FFF5CFCE010E946417F1CF8B8DFE0166
:102F6000E80FF11DE35AFF4FF0820B8FEA89FB89CE
:102F70008081806207C0EE89FF896083E889F989D2
:102F800080818064808381E090E0DF91CF911F9108
:102F90000F91FF90EF900895CF93DF93EC01888D10
:102FA0008823C9F0EA89FB89808185FD05C0A8894D
:102FB000B9898C9186FD0FC00FB607FCF5CF8081D3
:102FC00085FFF2CFA889B9898C9185FFEDCFCE011D
:102FD0000E946417E7CFDF91CF91089580E090E0E1
:102FE000892B29F00E945A1781110C940000089532
:102FF000833081F028F4813099F08230A1F0089577
:103000008730A9F08830B9F08430D1F48091800005
:103010008F7D03C0809180008F778093800008951A
:1030200084B58F7702C084B58F7D84BD089580916B
:10303000B0008F7703C08091B0008F7D8093B00087
:1030400008950F931F93CF93DF93CDB7DEB76297A9
:103050000FB6F894DEBF0FBECDBF8C01CB01F801D7
:1030600011821082138212821582148250E0BE01F6
:103070006F5F7F4F0E948E2CBE016F5F7F4FC80134
:103080000E94330F62960FB6F894DEBF0FBECDBF1D
:10309000DF91CF911F910F910895FC011182108251
:1030A00013821282158214820C94900FFC011182FB
:1030B000108213821282158214826115710551F0FB
:1030C000FB0101900020E9F73197AF01461B570B38
:1030D0000C94120F08951F920F920FB60F921124A5
:1030E0002F933F934F935F936F937F938F939F9310
:1030F000AF93BF93EF93FF938AE096E00E9464172B
:10310000FF91EF91BF91AF919F918F917F916F91BF
:103110005F914F913F912F910F900FBE0F901F9095
:1031200018951F920F920FB60F9211242F938F9321
:103130009F93EF93FF93E0911A06F0911B06808115
:10314000E0912006F091210682FD12C090818091CD
:1031500023068F5F8F7320912406821751F0E09130
:103160002306F0E0E65FF94F958F8093230601C0B8
:103170008081FF91EF919F918F912F910F900FBEC2
:103180000F901F901895CF93DF93282F30E0F9010F
:10319000EB54FE4F8491F901E951FE4FD491F901AE
:1031A000ED52FE4FC491CC2391F081110E94F8178B
:1031B000EC2FF0E0EE0FFF1FE753FE4FA591B49107
:1031C000EC91ED2381E090E021F480E002C080E00A
:1031D00090E0DF91CF9108951F93CF93DF93282F35
:1031E00030E0F901EB54FE4F8491F901E951FE4FB3
:1031F000D491F901ED52FE4FC491CC23C9F0162FA2
:1032000081110E94F817EC2FF0E0EE0FFF1FEF5E28
:10321000FE4FA591B4918FB7F894111105C09C9100
:10322000ED2FE095E92302C0EC91ED2BEC938FBFDD
:10323000DF91CF911F910895CF93DF9390E0FC0130
:10324000E951FE4F2491FC01ED52FE4F84918823F9
:1032500061F190E0880F991FFC01E25EFE4FC5917D
:10326000D491FC01EF5EFE4FA591B491611109C0AC
:103270009FB7F8948881209582238883EC912E2330
:103280000BC0623061F49FB7F8943881822F80952B
:1032900083238883EC912E2B2C939FBF06C08FB77E
:1032A000F894E8812E2B28838FBFDF91CF9108956A
:1032B0001F93CF93DF93182FEB0161E00E941C193D
:1032C000209711F460E004C0CF3FD10539F461E0EC
:1032D000812FDF91CF911F910C94EC18E12FF0E03A
:1032E000EB54FE4FE491E330F9F048F4E130B9F0EB
:1032F000E230A1F584B5806284BDC8BD34C0E7303A
:10330000E9F0E83019F1E43049F5809180008062FD
:1033100080938000D0938B00C0938A0024C084B532
:10332000806884BDC7BD1FC0809180008068809385
:103330008000D0938900C093880015C08091B000B0
:1033400080688093B000C093B3000DC08091B0003E
:1033500080628093B000C093B40005C0C038D1052E
:103360000CF0B5CFAFCFDF91CF911F9108953FB74C
:10337000F89480912B0590912C05A0912D05B0918A
:103380002E0526B5A89B05C02F3F19F00196A11D5B
:10339000B11D3FBFBA2FA92F982F8827820F911DEB
:1033A000A11DB11DBC01CD0142E0660F771F881F32
:1033B000991F4A95D1F708958F929F92AF92BF922D
:1033C000CF92DF92EF92FF926B017C010E94B719BE
:1033D0004B015C01C114D104E104F104F1F00E943D
:1033E000B719DC01CB0188199909AA09BB09883EE4
:1033F0009340A105B10570F321E0C21AD108E1089C
:10340000F10888EE880E83E0981EA11CB11CC1143F
:10341000D104E104F10419F7DDCFFF90EF90DF90C4
:10342000CF90BF90AF909F908F9008952FB7F89452
:1034300060912705709128058091290590912A05B2
:103440002FBF089560932205709323058093240570
:1034500090932505DC01CB01845D9E4FAF4FBF4F9C
:1034600080931E0590931F05A0932005B09321051E
:1034700082E090E090931D0580931C050E94161A2F
:10348000609318057093190580931A0590931B0596
:1034900008951F920F920FB60F9211242F933F930E
:1034A0008F939F93AF93BF938091270590912805A9
:1034B000A0912905B0912A053091260523E0230F1C
:1034C0002D3720F40196A11DB11D05C026E8230F5C
:1034D0000296A11DB11D2093260580932705909388
:1034E0002805A0932905B0932A0580912B0590917A
:1034F0002C05A0912D05B0912E050196A11DB11DA1
:1035000080932B0590932C05A0932D05B0932E0549
:10351000BF91AF919F918F913F912F910F900FBECF
:103520000F901F9018951F920F920FB60F921124B3
:103530002F933F934F935F936F937F938F939F93BB
:10354000EF93FF934091FC055091FD056091FE05BE
:103550007091FF05411551056105710599F0809144
:10356000AB04E091AC04F091AD0490818927808395
:103570001416150616061706D4F4415051096109B0
:10358000710915C0809170008D7F809370009091BB
:10359000AB04E091AC04F091AD048081282F30E0C1
:1035A000892F90E080959095822393238083409388
:1035B000FC055093FD056093FE057093FF05FF9198
:1035C000EF919F918F917F916F915F914F913F917B
:1035D0002F910F900FBE0F901F9018951F920F9272
:1035E0000FB60F9211242F933F938F939F93AF9316
:1035F000BF93EF93FF938091000690910106A091F5
:103600000206B0910306892B8A2B8B2B51F18091F6
:10361000AE04E091AF04F091B004908189278083DB
:103620008091000690910106A0910206B0910306D8
:10363000181619061A061B064CF580910006909183
:103640000106A0910206B09103060197A109B109F4
:103650008093000690930106A0930206B0930306A0
:1036600015C080916F008D7F80936F009091AE04A4
:10367000E091AF04F091B0048081282F30E0892FD1
:1036800090E080959095822393238083FF91EF9122
:10369000BF91AF919F918F913F912F910F900FBE4E
:1036A0000F901F9018951F920F920FB60F92112432
:1036B0002F933F938F939F93AF93BF93EF93FF937A
:1036C0008091040690910506A0910606B091070628
:1036D000892B8A2B8B2B51F18091B104E091B2049C
:1036E000F091B304908189278083809104069091A2
:1036F0000506A0910606B0910706181619061A06C7
:103700001B064CF58091040690910506A0910606D3
:10371000B09107060197A109B1098093040690931F
:103720000506A0930606B093070615C080916E00AB
:103730008D7F80936E009091B104E091B204F0917E
:10374000B3048081282F30E0892F90E080959095F8
:10375000822393238083FF91EF91BF91AF919F913B
:103760008F913F912F910F900FBE0F901F90189542
:103770003F924F925F926F927F928F929F92AF9201
:10378000BF92CF92DF92EF92FF920F931F93CF934E
:10379000DF93382E962E842EF90184E6E816F10484
:1037A0002CF082EBE81A87E0F80A03C08EE1E80EFD
:1037B000F11CE092150500931405E0931305309277
:1037C00011059092100580920F05AE2DB0E020E813
:1037D00033E341EE51E00E941D2E2B013C0122EB10
:1037E00037E0FF2484E6C82ED12CC0E9D1E0C9011E
:1037F000825B97408E159F05DCF4C9018370992781
:10380000892B99F4C901B6010E94222F892B31F42A
:10381000C901BE010E94222F892B39F480E8480E8D
:1038200081E5581E81E0681E711C2F5F3F4FDFCF7E
:103830008EE4E81A88EFF80AC70164E670E00E9497
:10384000222F6C01C70160E971E00E94222F5C0108
:10385000C1E0D0E0112783E0E822FF24C017D107A0
:103860002CF5C230D10589F4E114F10471F4C114CE
:10387000D10419F4A114B10441F480E8480E8BE39B
:10388000581E86E2681E711C0FC0DE01AC51BD4F90
:10389000AC91B0E020E831E541E050E00E941D2EFF
:1038A000460E571E681E791E2196D8CF292D30E06E
:1038B000ACE3B0E00E945F2E6B017C01C80CD11C10
:1038C000E11CF11C232D30E0A0E1BEE00E945F2E40
:1038D000C60ED71EE81EF91EDF01BB27119720E890
:1038E00031E541E050E00E947D2FDC01CB018C0DE1
:1038F0009D1DAE1DBF1DBC01CD01640D751D861D36
:10390000971DDF91CF911F910F91FF90EF90DF9066
:10391000CF90BF90AF909F908F907F906F905F906F
:103920004F903F900C94221ACF92DF92EF92FF9229
:103930000F931F930E94161AC0901805D090190576
:10394000E0901A05F0901B058B019C010C191D09D4
:103950002E093F098091220590912305A09124050D
:10396000B0912505083E134021053105D0F00196A0
:10397000A11DB11D8093220590932305A0932405DA
:10398000B0932505B701A60148515C4F6F4F7F4F9B
:10399000409318055093190560931A0570931B0501
:1039A000C9CF40911E0550911F056091200570916F
:1039B000210584179507A607B70788F1E09116053A
:1039C000F0911705309759F1099561157105810539
:1039D000910519F00E94221A22C08091220590912F
:1039E0002305A0912405B0912505845D9E4FAF4F1E
:1039F000BF4F80931E0590931F05A0932005B093A1
:103A0000210581E090E020911C0530911D05232BBC
:103A100011F480E090E090931D0580931C05609167
:103A200022057091230580912405909125051F9111
:103A30000F91FF90EF90DF90CF90089585ED8093E8
:103A4000BC008091BC0084FDFCCF1092D905089584
:103A500040916605262F30E0240F311D21323105BB
:103A6000DCF42091D9052430C9F4FC0180E090E019
:103A7000861758F4309166052191DC01AC5BBA4F92
:103A8000A30FB11D2C930196F3CF80916605680FAB
:103A90006093660580E0089581E0089582E00895CE
:103AA0000895E091DB058091DA05E81730F4F0E045
:103AB000E452FA4F808190E008958FEF9FEF0895D0
:103AC0009091DB058091DA05981750F4E92FF0E02A
:103AD000E452FA4F208130E09F5F9093DB0502C0F3
:103AE0002FEF3FEFC90108958091DA0590E0209112
:103AF000DB05821B91090895CF92DF92EF92FF922E
:103B00000F931F93CF93DF937C01262F972F8A016A
:103B100080918F05882391F0C62FD72F6E01C40E98
:103B2000D51ECC15DD0571F06991D701ED91FC91A1
:103B30000190F081E02DC7010995F3CF642F822F0A
:103B40000E94281DC801DF91CF911F910F91FF9016
:103B5000EF90DF90CF900895CF93DF931F92CDB772
:103B6000DEB7698320918F052223D1F02091B20521
:103B7000203240F021E030E0FC013383228380E0FA
:103B800090E015C080919005E82FF0E0EF56FA4FD5
:103B9000998190838F5F809390058093B20505C0D3
:103BA00061E0CE0101960E94281D81E090E00F9017
:103BB000DF91CF910895089580E090E008954F92AD
:103BC0005F926F927F928F929F92AF92BF92CF92AD
:103BD000DF92EF92FF920F931F93CF93DF934B01EE
:103BE0005C0180918B0590918C05A0918D05B09121
:103BF0008E0588169906AA06BB0609F4C2C08CE396
:103C0000C82ED12CE12CF12CC501B401A7019601DD
:103C10000E94362F60930F05CA01B901A7019601D2
:103C20000E94362F60931005CA01B90128E130E0E7
:103C300040E050E00E94362F69017A01609311053F
:103C4000CA01B9016C5F7F4F8F4F9F4F27E030E073
:103C500040E050E00E94362F6F5F60931205412CC8
:103C6000512C320140E004E610E0C0E9D1E0242FFD
:103C700030E02E54384FF901E370FF27309789F474
:103C8000C901B8010E94222F892B31F4C901BE015C
:103C90000E94222F892B29F48EE691E0A0E0B0E06B
:103CA00004C08DE691E0A0E0B0E0480E591E6A1E07
:103CB0007B1ED301C201AA27BB27C816D906EA0674
:103CC000FB0610F04F5FD3CF40931505309799F462
:103CD000C90164E670E00E94222F892B39F4C901E2
:103CE00060E971E00E94222F892B29F48EE691E091
:103CF000A0E0B0E004C08DE691E0A0E0B0E0481A9A
:103D0000590A6A0A7B0AC418D508E608F708C901E7
:103D100064E670E00E94222FEC01C90160E971E0C5
:103D20000E94222FA5EEB2E020E0213039F4309736
:103D300049F4209729F4009729F402C04C9103C05C
:103D40004DE101C04CE150E060E070E0C416D506E2
:103D5000E606F70640F0C41AD50AE60AF70A2F5F0E
:103D600011962C3011F72F5F20931405C394C09245
:103D7000130580928B0590928C05A0928D05B092D0
:103D80008E05DF91CF911F910F91FF90EF90DF9003
:103D9000CF90BF90AF909F908F907F906F905F90EB
:103DA0004F9008950E94941C0E94DF1D809115057C
:103DB00090E08E54984F08950E94941C0E94DF1D3D
:103DC0008091140590E008950E94941C0E94DF1DCC
:103DD0008091130590E008950E94941C0E94DF1DBD
:103DE00080910F0590E008950E94941C0E94DF1DB1
:103DF0008091100590E008950E94941C0E94DF1DA0
:103E00008091110590E00895CF92DF92EF92FF929A
:103E1000CF93DF93EC010E94161A6B017C018F8512
:103E20000E94C31821E0892B09F420E0298B88899E
:103E3000811103C081E08227898B29898A8928170B
:103E400021F0CD8ADE8AEF8AF88E8D899E89AF892E
:103E5000B88DB701A601481B590B6A0B7B0BDB0120
:103E6000CA01CB80DC80ED80FE80C416D506E60654
:103E7000F70664F43A81231749F02A83222331F0AC
:103E80004B895C894F5F5F4F5C8B4B8B3A81311163
:103E90000CC0CF80D884E984FA84C816D906EA0613
:103EA000FB06ACF48B899C890EC0CB84DC84ED844A
:103EB000FE84C816D906EA06FB064CF48B899C8959
:103EC000919581959109998388831C8A1B8A2A8BF5
:103ED000DF91CF91FF90EF90DF90CF9008950F93F7
:103EE0001F93CF93DF931F92CDB7DEB78C01862F40
:103EF000F8016787408B91E04927418B428B148AF8
:103F0000138A118210821282158A168A178A108EDD
:103F100044E150E060E070E043835483658376833E
:103F20004AEF50E060E070E0478350876187728716
:103F300048EE53E060E070E04387548765877687FA
:103F400060E029830E941C19F80180892981811170
:103F50000BC0222349F061E087850F90DF91CF915C
:103F60001F910F910C94EC180F90DF91CF911F913E
:103F70000F9108951F920F920FB60F9211242F9355
:103F80003F934F935F936F937F938F939F93AF93E1
:103F9000BF93EF93FF938091B900887F803609F437
:103FA0009CC068F5883209F45BC090F4803109F454
:103FB00054C038F4882309F4F6C0883009F44DC0A1
:103FC000F6C0883109F44CC0803209F45DC0EFC0FE
:103FD000803409F468C048F4803309F455C088334C
:103FE00009F0E5C08093D705D8C0803509F44FC0EB
:103FF000883509F45DC0883409F0D9C0D6C0883945
:1040000009F4C7C0A8F4883709F467C038F48836C3
:1040100009F463C0803709F460C0C9C0883809F466
:10402000B8C0803909F45FC0803809F0C0C05BC0F7
:10403000803B09F486C038F4803A09F466C0883AB7
:1040400009F47FC0B4C0803C09F4A7C0883C09F4DF
:10405000A4C0883B09F48AC0AAC08091D40510C0CE
:104060009091D6058091D505981770F5E091D60509
:1040700081E08E0F8093D605F0E0ED54FA4F8081F9
:104080008093BB0085EC86C08093D7058EC0E091FD
:10409000D60581E08E0F8093D6058091BB00F0E0BD
:1040A000ED54FA4F80839091D6058091D5056EC06E
:1040B000E091D60581E08E0F8093D6058091BB00FC
:1040C000F0E0ED54FA4F80838091D80581116DC0E6
:1040D00081E08093D30584EA61C083E08093D905B1
:1040E00010928A05CFCF80918A05803208F051C0A6
:1040F000E0918A0581E08E0F80938A058091BB0054
:10410000F0E0E659FA4F8083BDCF85EC8093BC0088
:104110001092D90580918A05803230F4E0918A05A9
:10412000F0E0E659FA4F108260918A0570E0E09164
:104130006805F09169058AE695E0099510928A056F
:1041400036C084E08093D905109267051092660509
:10415000E0916405F09165050995809166058111EE
:1041600005C081E08093660510924405E0916705E3
:1041700081E08E0F80936705F0E0EC5BFA4F808161
:104180008093BB009091670580916605981708F4AD
:1041900079CF85E88093BC000AC085EC8093BC0091
:1041A0001092D90504C01092D7050E941E1DFF91E0
:1041B000EF91BF91AF919F918F917F916F915F919F
:1041C0004F913F912F910F900FBE0F901F90189518
:1041D0000C940F2E0C94072E88E090E00E94EA20A9
:1041E000682F70E089E00E94581989E090E00E94F1
:1041F000EA20682F70E086E00E9458198AE090E07B
:104200000E94EA20682F70E083E00C945819CF9246
:10421000DF92EF92FF921F93CF93DF93909134053B
:10422000911103C08FEF9FEF72C0909133059923D6
:10423000C9F3182FC0913205D0E080913C0581115F
:104240000DC00E94161A609338057093390580934B
:104250003A0590933B0581E080933C050E94161A35
:10426000C0903805D0903905E0903A05F0903B05B4
:10427000DC01CB018C199D09AE09BF098D3291403B
:10428000A105B105D8F00E94161A60933805709305
:10429000390580933A0590933B058091370591E06D
:1042A000982790933705992329F01092360510929C
:1042B000350504C0D0933605C093350520913505EA
:1042C00030913605209530954091310550E02423FA
:1042D000352326FF04C081E08093300502C0109290
:1042E000300527FF04C081E080932F0502C01092A3
:1042F0002F0580913705882309F494CF02C0D59506
:10430000C7951A95E2F7C0FF8DCF80E09CE3DF915F
:10431000CF911F91FF90EF90DF90CF9008953F9243
:104320004F925F926F927F928F929F92AF92BF92C5
:10433000CF92DF92EF92FF920F931F93CF93DF9371
:1043400000D000D0CDB7DEB72091090627FDAAC165
:1043500049835A836B837C838C0161E080910806DA
:104360000E941C1930900906832D8D7F4801A12CD5
:10437000B12C09F0B7C060E072E18AE790E0A501D6
:1043800094010E94582F29013A0169017A0121E024
:10439000C21AD108E108F1088FEFC816D104E10470
:1043A000F10409F008F44CC060E472E48FE090E09E
:1043B000A50194010E94582F69017A0191E0C91A60
:1043C000D108E108F108A2E03A1220C0BFEFCB16F5
:1043D000D104E104F10409F008F462C160E970ED70
:1043E00083E090E0A50194010E94582F69017A01B1
:1043F000E1E0CE1AD108E108F108FFEFCF16D104B1
:10440000E104F10409F0C0F583E065C02FEFC216A6
:10441000D104E104F104B1F0A8F068E478EE81E0A1
:1044200090E0A50194010E94582F69017A0181E072
:10443000C81AD108E108F108332009F4D9C027C10E
:1044400081E001C082E0332091F045C0D301C20178
:104450002AE0B595A795979587952A95D1F76C0190
:104460007D01E1E0CE1AD108E108F10885E095B5BB
:10447000987F892B85BD66C068E478EE81E090E086
:10448000A50194010E94582F69017A01B1E0CB1A6D
:10449000D108E108F108EFEFCE16D104E104F104F0
:1044A00009F008F4A3C064E274EF80E090E0A50195
:1044B00094010E94582F69017A0191E0C91AD1082C
:1044C000E108F108AFEFCA16D104E104F10411F0DC
:1044D00008F0B0C085E09091B100987F892B80935F
:1044E000B10030C060E072E18AE790E0A50194017C
:1044F0000E94582F69017A01F1E0CF1AD108E10832
:10450000F108C114D10421E0E206F10488F068E466
:1045100078EE81E090E0A50194010E94582F690196
:104520007A0181E0C81AD108E108F10893E001C0DE
:1045300091E0A1E03A1206C080918100887F892B2A
:104540008093810089819A81AB81BC81892B8A2BE0
:104550008B2B81F0D801AA0FBB1F29813A814B8197
:104560005C810E941D2E28EE33E040E050E00E9466
:10457000362F03C02FEF3FEFA90191E03916A1F0CC
:10458000A2E03A1619F131108DC0C7BC2093040681
:1045900030930506409306065093070680916E00FF
:1045A000826080936E007EC0D0928900C0928800A5
:1045B00020930006309301064093020650930306B1
:1045C00080916F00826080936F006CC0C092B300D6
:1045D0002093FC053093FD054093FE055093FF05A5
:1045E000809170008260809370005CC084E073CF23
:1045F0008FEFC816D104E104F104D1F0C8F062E1F4
:104600007AE780E090E0A50194010E94582F6901AB
:104610007A01F1E0CF1AD108E108F1082FEFC216B4
:10462000D104E104F10411F008F010CF84E01FCFB1
:1046300083E01DCF62E17AE780E090E0A50194017C
:104640000E94582F69017A0191E0C91AD108E10846
:10465000F108AFEFCA16D104E104F104B1F0A8F0FB
:10466000D301C2014AE0B595A795979587954A95DC
:10467000D1F76C017D01E1E0CE1AD108E108F10823
:10468000332009F4F3CE87E026CF86E0DCCEBFEFFF
:10469000CB16D104E104F10409F060F684E0D3CE36
:1046A00082E019CF0F900F900F900F90DF91CF9174
:1046B0001F910F91FF90EF90DF90CF90BF90AF9040
:1046C0009F908F907F906F905F904F903F90089554
:1046D000009769F0FC0101900020E9F73197AF01E4
:1046E000481B590BBC018AE096E00C94F21680E05E
:1046F00090E008950F931F93CF93DF938C01C0E058
:10470000D0E0F801EC0FFD1F6491662371F0E09199
:104710000A06F0910B060190F081E02D8AE096E008
:104720000995892B11F02196ECCFCE01DF91CF9125
:104730001F910F910895CF93DF930E947A23EC018C
:104740008FE393E00E9468238C0F9D1FDF91CF9130
:1047500008958F929F92AF92BF92CF92DF92EF9285
:10476000FF920F931F93CF93DF93CDB7DEB7A1973F
:104770000FB6F894DEBF0FBECDBF6C01990FEE08E7
:10478000FF08F7FE31C0E0910A06F0910B06019098
:10479000F081E02D6DE28AE096E009958C012227F8
:1047A0003327A9012C193D094E095F0919A2CE0131
:1047B00081967C019AE0892E912CA12CB12CCA0102
:1047C000B901A50194010E94362F605DF701629343
:1047D0007F01211531054105510589F7CF010E945F
:1047E0006823080F191F1EC0A701960119A28E0188
:1047F0000F5D1F4F8AE0C82ED12CE12CF12CCA018D
:10480000B901A70196010E94362F605DF8016293FD
:104810008F01211531054105510589F7CF010E940E
:1048200068238C018FE393E00E946823800F911F1F
:10483000A1960FB6F894DEBF0FBECDBFDF91CF912A
:104840001F910F91FF90EF90DF90CF90BF90AF90AE
:104850009F908F9008959091D9059111FCCF81324E
:1048600008F080E291E09093D9059093D8052FEF5E
:104870002093D7051092D605280F2093D505909345
:10488000D4059091D405906D9093D4059091D30563
:10489000913061F41092D3059091D4059093BB00B0
:1048A0009091BC0093FDF8CF95EC01C095EE9093EC
:1048B000BC009091D9059130E1F39091D6059817FD
:1048C00010F48091D605A3EBB5E02CED35E0F901AD
:1048D0009E2F921B981718F49D919193F9CF1092E7
:1048E000DB058093DA0508952091B2059091B1051A
:1048F000213208F04AC08091D9058111FCCF32E005
:104900003093D90531E03093D8053FEF3093D70588
:104910001092D6052093D505A1E9B5E043EB55E00B
:10492000FA013E2F341B321718F43D913193F9CF21
:104930001092D4052091D405990F922B9093D40511
:104940009091D305913061F41092D3059091D405E4
:104950009093BB009091BC0093FDF8CF95EC01C003
:1049600095EE9093BC009091D9059230E1F390912F
:10497000D7059F3F79F08091D705803241F0809133
:10498000D705803331F084E005C081E003C082E0C8
:1049900001C083E0109290051092B20510928F052D
:1049A000089580910407E0910507F0910607F894B7
:1049B0009181982B91832281982F9095292322838E
:1049C000A7E0B0E01197F1F7218192239183A3E250
:1049D000B0E01197F1F790817894EFECF0E0319727
:1049E000F1F7982381E009F480E00895909104079D
:1049F000E0910507F0910607392F309580FF13C02D
:104A0000F8942281832F822382838181892B818361
:104A1000A3E2B0E01197F1F78281982B928378940A
:104A200087ED90E012C0F8942281832F8223828345
:104A30008181892B8183AFEFB0E01197F1F78281FB
:104A4000982B928378948FE090E00197F1F7089586
:104A500081E080938F0588E68093B10510929005E0
:104A60001092B20560E087EA96E00E94AC1D0E94B9
:104A7000742487E090E00E942B2487EA96E00E944D
:104A8000601D982F92959F708F702AE0929F800DE5
:104A9000112490E09093C3048093C20487EA96E0C7
:104AA0000E94601D982F92959F708F702AE0929FB0
:104AB000800D112490E09093BA048093B90487EAA2
:104AC00096E00E94601D982F969596959695967003
:104AD000292F220F220F920F8F70890F90E0909351
:104AE000B8048093B70487EA96E00E94601D982F6F
:104AF00092959F708F702AE0929F800D112490E014
:104B0000909319078093180787EA96E00E94601D2A
:104B1000982F92959F708F702AE0929F800D11249C
:104B200090E09093BC048093BB0487EA96E00E94D7
:104B3000601D982F92959F708F702AE0929F800D34
:104B4000112490E09093BE048093BD0487EA96E020
:104B50000E94601D982F92959F708F702AE0929FFF
:104B6000800D112490E09093C0048093BF040895B9
:104B70000F931F93CF93DF93CDB7DEB762970FB636
:104B8000F894DEBF0FBECDBF8C0177FF03C07195D7
:104B9000619571094AE06A3071054CF5CE010D96B8
:104BA0000E9421186EE673E0CE0101960E9456180D
:104BB000BE016F5F7F4FCE0107960E944D18BE0168
:104BC000635F7F4FCE0107960E94C60EBC01C801ED
:104BD0000E944D18CE0107960E94A70FCE010196A4
:104BE0000E94A70FCE010D960E94A70F03C0C80117
:104BF0000E942118C80162960FB6F894DEBF0FBE5E
:104C0000CDBFDF91CF911F910F9108950F931F9307
:104C1000CF93DF93CDB7DEB768970FB6F894DEBFBA
:104C20000FBECDBF8C0180915301909154014897E4
:104C300091F40E94EC1EBC01CE0143960E94B8255F
:104C40000E94F41EBC01CE010D960E94B8250E9460
:104C5000FC1EBC011FC00E94EC1EBC01CE0143968D
:104C60000E94B8250E94F41EBC01CE010D960E9440
:104C7000B8250E94941C0E94DF1D80911105882395
:104C800039F0682F70E08D3028F06C50710902C047
:104C90006CE070E0CE0101960E94B825BE016F5F06
:104CA0007F4FCE0107960E944D18BE01635F7F4F74
:104CB000CE0107960E94C60EBE016D5E7F4F0E9418
:104CC000C60EBC01C8010E944D18CE0107960E9475
:104CD000A70FCE0101960E94A70FCE010D960E944C
:104CE000A70FCE0143960E94A70FC80168960FB682
:104CF000F894DEBF0FBECDBFDF91CF911F910F9112
:104D000008950F931F93CF93DF93082FC8E0D0E04F
:104D100011E081E0912F902309F480E00E94F624B5
:104D2000110F2197B1F7F894E0910507F09106076C
:104D3000918180910407809598239183E0910507E4
:104D4000F09106079281892382837894DF91CF9135
:104D50001F910F91089590910407E0910507F0913C
:104D60000607F8948181292F2095822381837894E6
:104D70008DE743E050E0815021F1DA011197F1F71E
:104D800030813923C1F3F894828182238283818127
:104D9000892B81837894ABE7B7E01197F1F7F8940A
:104DA000818128232183A3E1B1E01197F1F780816C
:104DB000982381E009F080E07894E3E6F6E031970B
:104DC000F1F70895CF93DF93FC0144815581608111
:104DD00071818AE096E00E94F216EC018FE393E085
:104DE0000E9468238C0F9D1FDF91CF9108958EBD87
:104DF00000000DB407FEFDCF8EB50895CF93DF936D
:104E0000CDB7DEB7CF54D1090FB6F894DEBF0FBED1
:104E1000CDBF789484B5826084BD84B5816084BD43
:104E200085B5826085BD85B5816085BD80916E0048
:104E3000816080936E001092810080918100826079
:104E400080938100809181008160809381008091B6
:104E500080008160809380008091B10084608093A5
:104E6000B1008091B00081608093B00080917A00A1
:104E7000846080937A0080917A00826080937A00C7
:104E800080917A00816080937A0080917A008068B6
:104E900080937A001092C1001092DB051092DA051F
:104EA000109290051092B2051092D90581E080937E
:104EB000D8051092D30561E082E10E94EC1861E010
:104EC00083E10E94EC188091B9008E7F8093B90035
:104ED0008091B9008D7F8093B90088E48093B800F9
:104EE00085E48093BC00E0911A06F0911B0682E0F5
:104EF0008083E0911606F09117061082E091180663
:104F0000F091190680E1808310922206E0911E063E
:104F1000F0911F0686E08083E0911C06F0911D064B
:104F2000808180618083E0911C06F0911D06808164
:104F300088608083E0911C06F0911D068081806866
:104F40008083E0911C06F0911D0680818F7D808317
:104F500081E090E00E94EA208C3019F088E190E036
:104F600002C08CE090E0909354018093530180E064
:104F700090E00E94EA20882321F081E080933001B4
:104F800002C01092300182E090E00E94EA208F3F40
:104F900029F410924C0110924B0105C090E09093BF
:104FA0004C0180934B0183E090E00E94EA208F3F08
:104FB00029F410924E0110924D0105C090E090939B
:104FC0004E0180934D0184E090E00E94EA208F3FE3
:104FD00029F41092500110924F0105C090E0909377
:104FE000500180934F0186E090E00E94EA208F3FBD
:104FF00029F4109252011092510105C090E0909353
:1050000052018093510187E090E00E94EA208F3F97
:1050100019F41092C40406C091E0811101C090E01F
:105020009093C4048BE090E00E94EA208F3F29F423
:10503000109256011092550105C090E090935601D0
:10504000809355018CE090E00E94EA208F3F31F080
:1050500090E00C9790935801809357018DE090E079
:105060000E94EA208F3F29F090E0909344018093C2
:1050700043018DE991E00E947A238091C40490E07D
:105080000E94A92361E089E00E941C1961E086E08A
:105090000E941C1961E083E00E941C198091C504E4
:1050A000833008F083C092E090930806E82FF0E088
:1050B000E55EFE4FE491E09309068F5F8093C5049F
:1050C000E13031F1E23009F44AC0E11172C014BCA0
:1050D00015BC84B5826084BD85B5816085BD809135
:1050E000080690E0FC01ED52FE4FE491F0E0EE0F77
:1050F000FF1FEF5EFE4F259134913093B304209350
:10510000B204FC01E951FE4FE491E093B10451C0B7
:1051100010928000109281008091810088608093BD
:1051200081008091810081608093810080910806D8
:1051300090E0FC01ED52FE4FE491F0E0EE0FFF1F16
:10514000EF5EFE4F259134913093B0042093AF046D
:10515000FC01E951FE4FE491E093AE042AC01092A5
:10516000B0001092B1008091B00082608093B000D6
:105170008091B10081608093B1008091080690E039
:10518000FC01ED52FE4FE491F0E0EE0FFF1FEF5EE9
:10519000FE4F259134913093AD042093AC04FC0173
:1051A000E951FE4FE491E093AB0403C08FEF80938D
:1051B000090680912E0190912F010E940A1690936A
:1051C0002F0180932E0161E08AE00E941C191FB715
:1051D000F8948091C604811127C0EDEDF1E084912F
:1051E000E1EFF1E09491E82FF0E0EE0FFF1FE25EB7
:1051F000FE4FA591B491EC91E92321F461E08AE09E
:105200000E94EC1861E08AE00E941C198CB5806154
:105210008CBD8CB580648CBD61E08DE00E941C1952
:1052200061E08BE00E941C198091C6048F5F80931F
:10523000C6041FBF8CB5837F88608CBD8CB58C7F06
:1052400081608CBD8DB581608DBD62E08EE00E9475
:105250001C1962E080E10E941C1962E08FE00E944C
:105260001C1961E082E00E941C1904E110E020E0BA
:1052700030E00093E8061093E9062093EA063093A5
:10528000EB064EE150E060E070E04093EC06509396
:10529000ED066093EE067093EF0680ED97E0A0E0D8
:1052A000B0E08093F0069093F106A093F206B093DD
:1052B000F3060093CF061093D0062093D1063093C7
:1052C000D2064093D3065093D4066093D5067093CC
:1052D000D6068093D7069093D806A093D906B093AC
:1052E000DA060093B6061093B7062093B8063093FB
:1052F000B9064093BA065093BB066093BC06709300
:10530000BD068093BE069093BF06A093C006B093DF
:10531000C1068EE691E00E947A2325E030E042E06B
:1053200050E062E177E0CE0101967C010E944A0FD5
:1053300022E030E041E050E062E177E0CE01875BBF
:105340009F4F0E944A0FBE01675B7F4FCE018D5B6E
:105350009F4F0E944D1865E573E0CE018D5B9F4F16
:105360000E94AD0EB7010E94C60E0E94E226CE0139
:105370008D5B9F4F0E94A70FCE01875B9F4F0E94BE
:10538000A70FC7010E94A70F87E593E00E9468233B
:105390008FE393E00E94682383E691E00E949B23C1
:1053A00080912E0190912F019093B6048093B504C3
:1053B0000E940A166FEF70E089E00E94581968EEAB
:1053C00073E080E090E00E94DC1960E070E089E02A
:1053D0000E9458196FEF70E086E00E94581968EE3D
:1053E00073E080E090E00E94DC1960E070E086E00D
:1053F0000E9458196FEF70E083E00E94581968EE20
:1054000073E080E090E00E94DC1960E070E083E0EF
:105410000E94581969E673E0C7010E94561860E7B8
:1054200073E0CE0107960E94561867E773E0CE013D
:105430000D960E9456186EE773E0CE0143960E94C7
:10544000561865E873E0CE0149960E9456186CE83C
:1054500073E0CE014F960E94561863E973E0CE01C7
:1054600085960E9456186AE973E0CE018B960E94D9
:10547000561861EA73E0CE01C1960E94561868EA98
:1054800073E0CE01C7960E94561861E473E0CE0126
:10549000CD960E94561862E177E0CE01CD960E942B
:1054A000900F0E94161A2B013C0128EE420E23E0B9
:1054B000521E611C711C912C1FEF94EFC92EDD242C
:1054C000D39426E0822E3BE3A32E3FE1B32E8FE060
:1054D0000E94C318892B11F49924939480E10E94AF
:1054E000C318892B09F4912C0E94161ADC01CB01F8
:1054F00084199509A609B70996010D2C000C440BD7
:10550000550B281739074A075B0718F50E94161A2A
:105510002B013C01911001C01F5F1A3011F038F4CB
:1055200004C080EDC82E87E0D82E01E002C01AE04A
:1055300000E0B701819E600D711D11248EEF96E091
:105540000E94900F8EEF96E00E94E2260E944C107F
:1055500001C001E0C5010197F1F70111B8CF8091B9
:105560001107811104C00E94AB2681110BC010925B
:105570000F0710921107109210078BE491E00E9420
:105580009B2367C080EF0E94812601E0D12CC12CB3
:1055900011E00E94D12460968FAF60970E94D124C1
:1055A00060969FAD6097913019F48130C1F435C099
:1055B0002D2D30E098131DC080910F07181738F477
:1055C000F901EC5FF84F8381802349F402C018177A
:1055D00031F090E0193060F41093100709C0ED2D00
:1055E000F0E0EC5FF84F8381802B838391E009C06A
:1055F000C12EF901EC5FF84F2381802F8095822323
:105600008383892F0E94F6241F5F000F11F4D39427
:1056100001E087E08D1508F0BCCF113408F4A7CF66
:10562000C0920F07C11003C081E0809311078091E1
:105630000707882309F49BCFA7E0B7E0E7ECF4E085
:105640008D91819394E0EF3CF907D1F781E080934D
:10565000B40481E080938F0588E68093B1051092B1
:1056600090051092B20561E187EA96E00E94AC1DB8
:105670000E94742482E090E00E942B2487EA96E046
:105680000E94601D182F87E391E00E947A23812FEA
:10569000012E000C990B0E94A9231550183340F4D9
:1056A00081E491E00E949B238E010D5B1F4F18C087
:1056B00088E291E00E949B2305E010E048EE53E071
:1056C00060E070E088EE93E00E948F2160ED77E06B
:1056D00080E090E00E94DC190150110979F7E0CFD9
:1056E00006501109C8010E94A70F0E151F05C1F72A
:1056F0008091C40481110E94EC200E942825009111
:10570000C2041091C3040E94161A6B017C0181E04F
:105710008093C10411278091C2049091C30408179B
:105720001907A9F40E9428250E94161ADC01CB0152
:105730008C199D09AE09BF09893B9B40A105B105A4
:1057400050F381E891E00E949B231092C104E09005
:10575000BF04F090C0040091BD041091BE042091DC
:10576000BB043091BC044091C2045091C3046091C9
:10577000B9047091BA048091B7049091B8040E9462
:10578000B81B0E942A010E94EE17FBCF8EEF96E015
:105790000E94A70F82E197E00C94A70F10920D06CC
:1057A00010920C0688EE93E0A0E0B0E080930E0625
:1057B00090930F06A0931006B093110625EF32E0E8
:1057C00030930B0620930A0625EC30E03093170641
:1057D0002093160624EC30E0309319062093180627
:1057E00020EC30E030931B0620931A0621EC30E0C9
:1057F00030931D0620931C0622EC30E030931F06E8
:1058000020931E0626EC30E03093210620932006DC
:105810001092230610922406109225061092260656
:105820001092AA061092A9068093AB069093AC063C
:10583000A093AD06B093AE0687E093E09093A806E0
:105840008093A7066DE274E082E197E00E9456180B
:1058500060E087E00E941C19EEEEF1E0E491E09335
:105860000407EAEDF1E0E491F0E0EE0FFF1FE753EB
:10587000FE4F8591949190930607809305071092AF
:105880000F071092110710921007EFE0F7E0129245
:1058900087E0E730F807D9F769E673E08EEF96E026
:1058A0000E94561821E040E06EE085EE96E00E94EE
:1058B0006F1F21E040E060E18CEC96E00E946F1FDA
:1058C00021E040E06FE083EB96E00C946F1F1F93A4
:1058D000FC0199278827BC01E89411911032E9F363
:1058E000193010F01E30C8F31B3251F01D3249F44C
:1058F000689406C00E94A42C610F711D811D911D2A
:10590000119110531A30B0F33EF490958095709534
:1059100061957F4F8F4F9F4F1F91089545325105DD
:1059200020F4423010F00C94992CFB011082CB0132
:105930000895BB274A3031F4992322F4BDE29095B3
:1059400081959F4F0C94BA2C592F482F372F262F13
:10595000660F771F881F991F660F771F881F991F73
:10596000620F731F841F951F660F771F881F991F73
:105970000895BB27FB015527AA27880F991FAA1F47
:10598000A41710F0A41B83955051B9F7A05DAA335A
:1059900008F0A95DA193009779F7B111B193119225
:1059A000CB010C94D32CDC01FC01672F7191772380
:1059B000E1F7329704C07C916D9370836291AE17CA
:1059C000BF07C8F308950E94252D08F481E00895CB
:1059D000E89409C097FB3EF4909580957095619589
:1059E0007F4F8F4F9F4F9923A9F0F92F96E9BB273F
:1059F0009395F695879577956795B795F111F8CFBB
:105A0000FAF4BB0F11F460FF1BC06F5F7F4F8F4F25
:105A10009F4F16C0882311F096E911C0772321F01B
:105A20009EE8872F762F05C0662371F096E8862FB3
:105A300070E060E02AF09A95660F771F881FDAF70A
:105A4000880F9695879597F90895990F0008550F37
:105A5000AA0BE0E8FEEF16161706E807F907C0F0F4
:105A600012161306E407F50798F0621B730B840BFC
:105A7000950B39F40A2661F0232B242B252B21F4D6
:105A800008950A2609F4A140A6958FEF811D811D76
:105A900008950E945C2D0C94CD2D0E94BF2D38F0EE
:105AA0000E94C62D20F0952311F00C94B62D0C9475
:105AB000BC2D11240C94012E0E94DE2D70F3959FB5
:105AC000C1F3950F50E0551F629FF001729FBB27F5
:105AD000F00DB11D639FAA27F00DB11DAA1F649F91
