:10000000EDC100001CC200001AC2000018C20000AE
:1000100016C2000014C2000012C2000010C200008C
:100020000EC200000CC200000AC2000008C200009C
:1000300006C200000C94CF1A02C2000000C20000E9
:10004000FEC100000C942E1BFAC10000F8C1000094
:10005000F6C100000C94971BF2C100000C94C91962
:10006000EEC100000C94B7170C948E17E8C1000085
:10007000E6C10000E4C10000E2C10000E0C10000F0
:10008000DEC10000DCC10000DAC10000D8C1000000
:100090000C9465170C943C17D2C100000C941E2CD4
:1000A000CEC10000CCC10000CAC10000C8C1000020
:1000B000C6C10000C4C10000C2C100000C94131AE4
:1000C000BEC10000BCC10000BAC10000B8C1000040
:1000D000B6C10000B4C10000B2C10000B0C1000050
:1000E000AEC10000340736072A072C072E07300759
:1000F0003207180F470F2F107510A010EE10B51211
:10010000B512B5121E11441144114411B512B512A5
:10011000B512B512B512A010EE10CD15D015BF1541
:10012000C315C9150716D415D815DE15E215E61541
:10013000EC15F015F4150716FA15FE1502169A18A7
:100140009F18A418AE18B8183119C218CA18D218B6
:10015000DC18E618F018FF180919311913191D19C0
:100160002719D628E628ED28F328FA280029072998
:100170000B2916295A44410056544700524D43005A
:10018000475356004753540047534100474C4C00D7
:100190004747410090018C018801840180017C0166
:1001A000780174015570646174696E672074696DBB
:1001B000652E2E2E00496E636F7272656374205334
:1001C0006F6E6720466F726D617421005247423D29
:1001D0006F6666005247423D6F6E00426C75653D2A
:1001E00000475245454E3D005245443D0053746F13
:1001F000726520746F20454550524F4D3A0076612C
:100200006C75653D006D656E75506F736974696FCF
:100210006E3D0076616C75653D006D656E75506F65
:10022000736974696F6E3D0000002200250028008C
:100230002B002E00310034000201000005010801EE
:100240000B0102010000002100240027002A002DDC
:10025000003000330001010000040107010A0153CE
:10026000746F7020546573740054656D702E207324
:10027000656E736F72206E6F7420666F756E642E7C
:100280000053746172742054657374004669726D12
:10029000776172652076657273696F6E3A200057D8
:1002A00061726E696E67212052544320444F4E277D
:1002B0005420524553504F4E4421006C6564206CCD
:1002C0006F636B3D0000000A0B02090C0D0E08075E
:1002D0000304010000000000000000000000000016
:1002E000000000000000000000000000000000000E
:1002F00000121110000000000000000000000000CB
:10030000000000000000000000000057616B652045
:1003100075702C204E656F21004661756C747920D4
:1003200044533332333121004453333233315F5439
:100330003D00000020002300260029002C002F0093
:100340003200000100000301060109010505050551
:10035000070508080808020202020A0A080804043D
:10036000040401010101010101010303030303036B
:100370000303040707070C0C0C0C0C0C0C0C0202FA
:10038000020206060606060606060B0B0B0B0B0BF7
:100390000B0B010210202008081020401020408084
:1003A0000201020108040201010204081020408039
:1003B00080402010080402018004020180402010C7
:1003C0000804020108040201010204081020408010
:1003D00001020408102040806234BA3511241FBE87
:1003E000CFEFD1E2DEBFCDBF00E00CBF2AE0A6E830
:1003F000B5E001C01D92A634B207E1F715E0A0E018
:10040000B2E0ECECF5E700E00BBF02C007900D9204
:10041000A638B107D9F711E0CDEED1E000E006C073
:1004200021970109802FFE010E948838CC3ED10718
:1004300080E00807A9F70E94672F0C94D53AE0CD19
:100440002F923F924F925F926F927F928F929F92E4
:10045000AF92BF92CF92DF92EF92FF920F931F93D2
:10046000CF93DF93CDB7DEB7CA54D1090FB6F89456
:10047000DEBF0FBECDBF0E94971920E137E240E0FA
:1004800050E00E947837672B682B692B29F4809104
:10049000160681110C949411DD24D39401E093E0AD
:1004A000C92E42E0F42E5AE0E52EE091FD06F091CF
:1004B000FE060084F185E02D8DEF96E01995892BDD
:1004C00009F4CCC1E091FD06F091FE060284F385AB
:1004D000E02D8DEF96E01995182F8091AF0990913E
:1004E000B009A091B109B091B2090196A11DB11D49
:1004F0008093AF099093B009A093B109B093B2096A
:10050000143209F58091C90984FF0FC00E943A197D
:100510006093B7097093B8098093B9099093BA09A9
:100520008091C9098F7E8093C9091092C5091092E4
:10053000A6090093CA091092C7098091C9098D7F45
:100540008093C909B2CF2091CA09223071F51A32BD
:1005500019F4C092CA0920C080EE810F8F3508F0CF
:100560000EC18091C50981278093C5098091A60994
:10057000863031F4812F0E94BC28882309F4FFC003
:100580001C3269F48091C9098D7F8093C9098091DB
:10059000C6098F5F8093C6091092C70986CF8091E4
:1005A000C7098F5F8093C70980CF213009F06DC0E4
:1005B0008091C50981278093C5091C32B9F48091C7
:1005C000A609882311F40C94AF1284EC99E02B96C1
:1005D0002FAF2B970E944E2F2B962FAD2B9720934A
:1005E000C6091092C709F092CA095FCFA090C70947
:1005F00021E02A1510F00C94B2118EEF982E9A0C6F
:10060000B090A609BB2021F0BA9487E08B1508F4BE
:10061000B12CEB2DF0E0EE0FFF1FEC56FE4F859155
:100620009491692D70E0FC01E60FF71FE4911E1311
:1006300005C0B394B092A6090C94B2111E1714F41D
:100640000C94AF12B394A8E0BA1611F40C94AF1244
:10065000EB2DF0E0EE0FFF1FEC56FE4F459154914D
:100660009C01DA01A81BB90BE22FE81BE91510F079
:10067000CA01D9CFF9018490FD01E20FF31FE49183
:100680002F5F3F4F8E1681F3F3CF233009F07DC0EB
:1006900010628FE9810F863010F4175501C0105396
:1006A0004091C7092091C509812F90E041110DC0EB
:1006B0000093C70930E064E0359527956A95E1F726
:1006C0002817390709F4F1CE47C02F7030E02817FA
:1006D000390709F041C08091C90981FF0DC08D7FA4
:1006E0008093C9094F5F4093C7098091A60986305E
:1006F00019F48CE20E94BC288091A7099091A80966
:10070000A091A909B091AA090196A11DB11D8093DC
:10071000A7099093A809A093A909B093AA0991E009
:100720008091A609823009F090E08091C90990FB80
:1007300084F98093C9091092CA092091D50922230E
:1007400049F188608093C9091092D6098091D50932
:1007500081508093D5091EC08091AB099091AC095E
:10076000A091AD09B091AE090196A11DB11D809374
:10077000AB099093AC09A093AD09B093AE0984EC9A
:1007800099E00E944E2F0C94AF1221118ECE109240
:10079000A6098BCE8091C40980FF0CC03091D4098A
:1007A0002091C30930FF04C03091D309321710F4EF
:1007B0002093D30981FF0CC02091BF092093CF095A
:1007C0002091C0092093D0092091C1092093D1091B
:1007D00082FF10C08091BD098093CD098091BC0932
:1007E0008093CC098091BB098093CB098091C20989
:1007F0008093D2092091D4098091C409822B8093DF
:10080000D409992309F451CE8091D709E89EC001FB
:100810001124FC01EC52F64F208122FF16C0FC018E
:10082000EA55F64F84A5811110C08091B7099091C7
:10083000B809A091B909B091BA098093B30990930E
:10084000B409A093B509B093B6091092D709809165
:10085000D50981112ACED092D50923CE8091D50910
:10086000882351F1CE0149960E94512F8091D509DC
:100870008823C1F081508093D5098091D6092AE060
:10088000289FC0011124FC01E553F64FDE01599663
:1008900001900D922A95E1F78553964F0E94512FB2
:1008A0001092D6098AE0FE017996ACE9B9E0019090
:1008B0000D928A95E1F705C08091A5098B7F809301
:1008C000A5090E9497190091FC051091FD05209142
:1008D000FE053091FF05DC01CB01801B910BA20BC3
:1008E000B30B00913102109132022091330230910A
:1008F0003402081719072A073B0770F480E497E7CA
:10090000ABE1B0E08093310290933202A0933302C6
:10091000B093340210923002809130028111A1C054
:1009200080919E09883108F09CC080919D098C338C
:1009300008F097C080919C098C3308F092C0809198
:10094000A009803208F08DC08091A1098D3008F097
:1009500088C08091A20990E044970B9708F081C06D
:100960008091A5098B7F8093A50984EA91E00E947C
:10097000BA2680919E090E94B71380919D090E941A
:10098000B71380919C090E94B713E090A209F12C43
:100990000091A10910E02091A00930E040919C094C
:1009A00050E060919D0970E080919E0990E00E9466
:1009B000001C0E943A190091B3091091B4092091CA
:1009C000B5093091B609DC01CB01801B910BA20B5C
:1009D000B30B8032914AA740B10530F061E070E07E
:1009E00080E090E00E94631DA0915E02B0915F02E2
:1009F00020E13EE00E9490380E94631D0E94801D0D
:100A00007C010E94891D082F0E94901D2B968FAF9C
:100A10002B970E94532B2A968FAF2A970E945A2B0E
:100A2000182F0E94612B382FC70168EE73E00E94D7
:100A30005938E82E2B962FAD2B972A964FAD2A9733
:100A4000612F832F0E94321381E0809330020E9435
:100A500097196093FC057093FD058093FE059093B4
:100A6000FF051092F0051092F1051092F205109218
:100A7000F3058AE498E09093F7058093F60580915A
:100A80004708282E312C3092F9052092F8058091E4
:100A9000140990E09093FB058093FA058091430838
:100AA000853009F0FAC0809147088A3108F46BC09C
:100AB00080914A0890914B08843F914090F41092A5
:100AC000F5051092F4058FEF9FEFDC018093F005A0
:100AD0009093F105A093F205B093F3058BE090E0BD
:100AE0003EC080914C0890914D0885974B9708F037
:100AF0004AC0E0E5F8E082E090E040E050E0BA0172
:100B00008C010F5F1F4F2091470830E00217130739
:100B100074F49F0122503109D9012D913C91275045
:100B200031092730310510F40C94B711C801019731
:100B3000959587959093F5058093F4050C972CF483
:100B40001092F5051092F4051EC04093F0055093E5
:100B5000F1056093F2057093F30584E090E09093C3
:100B6000ED058093EC056091F0057091F1058091A1
:100B7000F2059091F30540E10E94A02786EA94E0F7
:100B80000E94872685C0B6E02B1631040CF480C085
:100B900000E518E0E3E0F0E02996FFAFEEAF29971B
:100BA00025ECC22E2DE9D22E2CE1E22E21E8F22EE8
:100BB00029968EAD9FAD2997821593050CF057C0ED
:100BC000D8016D917C91F8013497A080B18080E0CC
:100BD00090E00E943E362B013C01B50180E090E0A0
:100BE0000E943E364B015C012DEC3CEC4CE45FE393
:100BF0000E949F369B01AC01C301B2010E943A36AC
:100C000087FD17C02DEC3CEC4CE45FE3C301B2015F
:100C10000E949F369B01AC01C501B4010E943A3687
:100C2000E82F880FFF0BEE27FF0FEE1FFF273196EF
:100C300002C0E0E0F0E0A701960163E971E080E026
:100C400091E00E9469376F01FF0FEE08FF08C6268A
:100C5000D726E826F9262996EEADFFAD29973196DD
:100C60002996FFAFEEAF29970E5F1F4FA1CFC0921D
:100C7000F005D092F105E092F205F092F30580E2E2
:100C800090E09093F5058093F4058FEF9FEF67CF89
:100C900082E080934308109247086091F0057091BC
:100CA000F1058EE899E00E94EC2E9093EB0580937D
:100CB000EA05019721F482E294E00E94DE1380911C
:100CC000EA059091EB05019621F48DE294E00E94F3
:100CD000DE136091F0057091F10581E899E00E94C2
:100CE000EC2E9093E9058093E805019721F48BE3BE
:100CF00094E00E94DE138091E8059091E905019649
:100D000021F484E494E00E94DE136091F005709178
:100D1000F10584E799E00E94EC2E9093E70580931B
:100D2000E605019721F480E594E00E94DE138091AE
:100D3000E6059091E705019621F48BE594E00E9489
:100D4000DE1300910A0610910B06D8018C918823BE
:100D500009F435C10E949719C0908C05D0908D057B
:100D6000E0908E05F0908F05DC01CB018C199D0978
:100D7000AE09BF09C0908805D0908905E0908A052A
:100D8000F0908B05C816D906EA06FB0608F017C1D5
:100D90000E9497196B017C0160938C0570938D05FF
:100DA00080938E0590938F05109242061092410613
:100DB000A8016AE08A01FA01B0804F5F5F4F80EDC1
:100DC0008B0D20914106309142068A3080F4629F5B
:100DD000F001639FF00D11248B2DBB0C990BC09774
:100DE0008E0F9F1F9093420680934106E3CF609140
:100DF0003D0670913E0680913F0690914006211578
:100E0000310529F0032E000C440B550B05C0209131
:100E1000630230E040E050E00E946C382093880587
:100E20003093890540938A0550938B058B2DBB0C1D
:100E3000990BAA0BBB0BFC01E156F109E730F10558
:100E400030F48827EE58FF4F8F4F0C94883810925B
:100E500087050FC081E00BC083E009C085E007C0B3
:100E600086E005C088E003C08AE001C08CE0809382
:100E70008705D80111968C91833219F00F5F1F4FAF
:100E800007C0809187058F5F809387050E5F1F4F96
:100E9000F80180818E3201F5809088059090890557
:100EA000A0908A05B0908B05C501B40122E030E026
:100EB00040E050E00E946C38D501C401820F931FBE
:100EC000A41FB51F8093880590938905A0938A0578
:100ED000B0938B050F5F1F4FD8018C9180538A30E0
:100EE00028F4809386050F5F1F4F04C08091620233
:100EF0008093860580918605F80190819C3211F4DB
:100F00000F5F1F4F20918705222309F458C080905E
:100F1000880590908905A0908A05B0908B0590E097
:100F200004973CE0389FF001399FF00D1124E20F47
:100F3000F11DEE0FFF1FEE57FD4FB501A40180819B
:100F400091810E94AE240E949719DC01CB018C197B
:100F50009D09AE09BF0988169906AA06BB0678F551
:100F60000E94971960938C0570938D0580938E0570
:100F700090938F058091FC06813051F0823071F0A2
:100F8000811111C080916E008D7F80936E000BC027
:100F900080916F008D7F80936F0005C080917000FD
:100FA0008D7F8093700060E08091FB060E9408189E
:100FB00085EB91E00E94BA2690E080E002C0902F7D
:100FC000812F90930A0680930B060E949719009137
:100FD000E2051091E3052091E4053091E505DC017F
:100FE000CB01801B910BA20BB30B0697A105B1059A
:100FF00008F49DC08091FC06813039F0823041F0C8
:1010000081110CC080916E0005C080916F0002C0FC
:10101000809170008695817009F07FC080913702C1
:10102000811110C060E070E089E00E94731860E0F8
:1010300070E086E00E94731860E070E083E00E9438
:1010400073186BC080911906811167C000919205D9
:1010500010919305C801880F991F800F911FFC0103
:10106000EE0FFF1FEC51FD4F6091060270910702D9
:1010700020813181620F731F709307026093060213
:10108000FC01EE0FFF1FEA51FD4FC090D705D09035
:10109000D80520813181C20ED31ED092D805C092CE
:1010A000D705880F991FFC01E851FD4FE090D50549
:1010B000F090D60580819181E80EF91EF092D60558
:1010C000E092D50589E00E947318B60186E00E947F
:1010D0007318B70183E00E94731880919005909176
:1010E0009105019690939105809390058F3F91050E
:1010F00051F4C80101969093930580939205109244
:101100009105109290058091920590919305069714
:1011100024F010929305109292050E949719609303
:10112000E2057093E3058093E4059093E5058091D3
:10113000430690914406892B21F08091E1058111AD
:10114000DBC2809145068111D7C28091A60581112D
:101150000DC00E9497196093A2057093A305809318
:10116000A4059093A50581E08093A60580919A053A
:1011700081110DC00E949719609396057093970591
:10118000809398059093990581E080939A050E9439
:1011900097190091A2051091A3052091A405309103
:1011A000A505DC01CB01801B910BA20BB30B0091B9
:1011B00000021091010220910202309103020817EF
:1011C00019072A073B0708F06FC00E949719609320
:1011D000A2057093A3058093A4059093A505809123
:1011E000940590919505009799F481E090E0909393
:1011F00044068093430688E893E1A0E0B0E0809342
:10120000000290930102A0930202B09303021EC059
:101210000197E1F484E090E09093440680934306C4
:1012200088E893E1A0E0B0E080930002909301028F
:10123000A0930202B093030280910906811106C0B7
:1012400082E090E0909395058093940580919405B9
:10125000909195058230910581F410924406109288
:10126000430640E65AEE60E070E04093000250937F
:10127000010260930202709303020196833091058C
:101280002CF4909395058093940504C010929505D5
:10129000109294058091E105882321F01092440674
:1012A000109243061092E1050E9497190091A20541
:1012B0001091A3052091A4053091A505DC01CB0177
:1012C000801B910BA20BB30B803D9740A105B1058C
:1012D00008F010C20E949719009196051091970589
:1012E0002091980530919905DC01CB01801B910B71
:1012F000A20BB30B85369105A105B10508F4FCC11D
:101300000E949719609396057093970580939805AE
:101310009093990520910906809143069091440687
:10132000222309F414C1892B89F5CE0183960E94EA
:101330003F2481E020915C0230915D02232B09F46F
:1013400080E00E94A01FAB01BC01CE0101960E946B
:10135000D71DAE014D5D5F4FBE016F5F7F4FCE0168
:1013600089960E940020BE01675D7F4F80E699E06C
:101370000E945C16CE0189960E94F016CE0101965D
:101380000E94F016CE0183960E94F01680914306CB
:1013900090914406019709F064C00E94801D68EE98
:1013A00073E00E945938BC01CE01C5960E94852287
:1013B0000E94891DBC01CE018F960E9485220E9449
:1013C000901DBC01CE0183960E948522BE016D5DF9
:1013D0007F4FCE0189960E942017BE01615D7F4F2D
:1013E000CE0189960E945214BE016B5C7F4F0E9411
:1013F0005214BC01CE01CB960E942017CE0101965B
:101400000E943F24AE01455C5F4FBE016F5F7F4F7E
:10141000CE018F5B9F4F0E940020BE016F5B7F4F0C
:1014200080E699E00E945C16CE018F5B9F4F0E9480
:10143000F016CE0101960E94F016CE01CB960E94C6
:10144000F016CE0189960E94F016CE0183960E9476
:10145000F016CE018F960E94F016CE01C5960E941E
:10146000F0168091430690914406049709F044C118
:1014700081E020915C0230915D02232B09F480E031
:101480000E94A01FAB01BC01CE01CB960E94D71DCC
:101490000E94801D68EE73E00E945938BC01CE01A5
:1014A0008F960E9485220E94891DBC01CE018996DB
:1014B0000E9485220E94901DBC01CE0101960E94CF
:1014C0008522BE016F5F7F4FCE0183960E94201759
:1014D000BE01675D7F4FCE0183960E945214BE010C
:1014E000615D7F4F0E945214BC01CE01C5960E94DF
:1014F0002017AE01455C5F4FBE016B5C7F4FCE0194
:101500008F5B9F4F0E940020BE016F5B7F4F80E684
:1015100099E00E945C16CE018F5B9F4F0E94F016EF
:10152000CE01C5960E94F016CE0183960E94F01659
:10153000CE0101960E94F016CE0189960E94F01607
:10154000CE018F960E94F016CE01CB96D0C0892B8B
:1015500009F064C0CE01CB960E943F240E94801DFA
:1015600068EE73E00E945938BC01CE018F960E944C
:1015700085220E94891DBC01CE0189960E94852288
:101580000E94901DBC01CE0101960E948522BE01E1
:101590006F5F7F4FCE0183960E942017BE01675D6B
:1015A0007F4FCE0183960E945214BE01615D7F4F32
:1015B0000E945214BC01CE01C5960E942017AE01B4
:1015C000455C5F4FBE016B5C7F4FCE018F5B9F4FD1
:1015D0000E940020BE016F5B7F4F80E699E00E9471
:1015E0005C16CE018F5B9F4F0E94F016CE01C59610
:1015F0000E94F016CE0183960E94F016CE0101964D
:101600000E94F016CE0189960E94F016CE018F96A8
:101610000E94F016CE01CB960E94F01680914306F0
:1016200090914406019709F067C00E94801D68EE02
:1016300073E00E945938BC01CE01C5960E948522F4
:101640000E94891DBC01CE018F960E9485220E94B6
:10165000901DBC01CE0183960E948522BE016D5D66
:101660007F4FCE0189960E942017BE01615D7F4F9A
:10167000CE0189960E945214BE016B5C7F4F0E947E
:101680005214BC01CE01CB960E942017CE010196C8
:101690000E943F24AE01455C5F4FBE016F5F7F4FEC
:1016A000CE018F5B9F4F0E940020BE016F5B7F4F7A
:1016B00080E699E00E945C16CE018F5B9F4F0E94EE
:1016C000F016CE0101960E94F016CE01CB960E9434
:1016D000F016CE0189960E94F016CE0183960E94E4
:1016E000F016CE018F960E94F016CE01C5960E948C
:1016F000F01602C010924C060E946B2D87E499E010
:101700000E94682B8EE299E00E94682B85E199E0A7
:101710000E94682B80914506811103C01092DF0959
:101720002DC00E94971900914606109147062091FE
:10173000480630914906DC01CB01801B910BA20BBE
:10174000B30B81369A4EA105B105C0F01092450643
:10175000E0914306F0914406EE0FFF1FE85AFC4F5C
:10176000808191819093440680934306880F991F4E
:10177000FC01E85FFD4F80818093DF09809147097C
:1017800090914809181619063CF08091EA0590914D
:10179000EB05019709F0CAC081E08093E105109242
:1017A0000B0610920A0644E650E060E070E088EE16
:1017B00093E00E94AE240E949719609346067093AE
:1017C000470680934806909349068091430690917E
:1017D000440601968630910529F090934406809343
:1017E000430604C010924406109243068AE192E038
:1017F0000E94992680914306909144060E94E0271A
:1018000083E192E00E949926E0914306F09144061C
:10181000EE0FFF1FE85CFD4F808191810E94E02761
:101820008091430690914406FC01EE0FFF1FE85F94
:10183000FD4F20812093DF090197FC01EE0FFF1F70
:10184000E05DFC4F408151814115510509F444C0D0
:101850009A0121503109F901EE0FFF1FE85FFC4F9B
:101860006081718168177907B9F54230510509F037
:101870009CC588E1EAE6F2E0DE01119601900D9246
:101880008A95E1F7809150029091510283709927D7
:10189000892B21F48DE190E09C838B8340914C0255
:1018A00050914D02E0914E02F0914F023197EE0FB0
:1018B000FF1F81E090E08C0F9D1FE80FF91F8081D2
:1018C0009181841795070CF070C58AE090E09093A1
:1018D00044068093430649C685E794E00E94872624
:1018E00080914306909144060E94E0278FE794E0A0
:1018F0000E94872680914A0290914B020E94E02725
:1019000000914306109144060331110579F0C80196
:101910000997029758F08091DF090E94A621000FD5
:10192000111FF801E85CFD4F918380838091470986
:101930009091480997FD07C08091EA059091EB05C9
:10194000019609F023C144E650E060E070E088EEC3
:1019500093E00E94AE248091450681114BC00E9405
:1019600097196093460670934706809348069093B4
:1019700049068091430690914406892BD9F50E942F
:10198000532BBC01CE018F960E9485220E945A2BB8
:10199000BC01CE0189960E9485220E94612BBC0168
:1019A000CE0101960E948522BE016F5F7F4FCE015E
:1019B00083960E942017BE01675D7F4FCE018396FC
:1019C00071D7BE01615D7F4F6DD7BC0180E699E0A4
:1019D0000E94DB16CE0183960E94F016CE0101967E
:1019E0000E94F016CE0189960E94F016CE018F96C5
:1019F0000E94F0168091430690914406019709F0E9
:101A000072C08AE894E0DAD60E94901D90934D024D
:101A100080934C020E94891D90934F0280934E0246
:101A20000E94801D68EE73E00E945938BC019093BB
:101A300051028093500280914A0290914B02892B6F
:101A400089F4CE018F960E94852260914E0270919A
:101A50004F02CE0189960E94852260914C027091BE
:101A60004D0210C0CE018F960E94852260914C02DB
:101A700070914D02CE0189960E94852260914E029E
:101A800070914F02CE0101960E948522BE016F5FC8
:101A90007F4FCE0183960E942017BE01675D7F4F66
:101AA000CE018396FFD6BE01615D7F4FFBD6BC01A0
:101AB00080E699E00E94DB16CE0183960E94F01624
:101AC000CE0101960E94F016CE0189960E94F01672
:101AD000CE018F960E94F01683E994E00E9487263B
:101AE00080E699E057D6E0914306F0914406EE0F68
:101AF000FF1FE85AFC4F2081318130934406209328
:101B000043062D30310549F481E090E0909359026D
:101B10008093580280E88093DE099091450681E029
:101B20008927809345068901000F111FF801E85F9E
:101B3000FD4F80818093DF09A90142515109423054
:101B4000510550F02930310539F00E94A621F801E5
:101B5000E85CFD4F9183808385E092E00E949926A6
:101B600080914306909144060E94E0278EEF91E019
:101B70000E949926E0914306F0914406EE0FFF1F64
:101B8000E85CFD4F808191810E94E02780912E09C1
:101B900090912F09009739F48091E8059091E9051B
:101BA000019721F507C09093E0058093DF05181693
:101BB000190694F781E08093E10510920B061092CC
:101BC0000A0644E650E060E070E088EE93E00E9490
:101BD000AE240E94DD2380914506811107C010923A
:101BE000190660E087E090E00E944F2D8091DF05AC
:101BF0009091E005019661F580913009882341F1CB
:101C00001092E10980914506882329F10E949719D5
:101C10000091DB051091DC052091DD053091DE059A
:101C2000DC01CB01801B910BA20BB30B8739910513
:101C3000A105B10580F00E9497196093DB057093B0
:101C4000DC058093DD059093DE050E94DD2303C053
:101C500081E08093E1098091150990911609009720
:101C600041F48091E6059091E705019709F058C08D
:101C700007C09093DA058093D905181619068CF7DA
:101C800011E01093E10510920B0610920A0644E64B
:101C900050E060E070E088EE93E00E94AE240E9485
:101CA00070238091450681113BC01093190661E0B5
:101CB00087E090E00E944F2D6091060288E090E05E
:101CC0000E944F2D6091D70589E090E00E944F2D32
:101CD0006091D5058AE090E00E944F2D8DEE91E055
:101CE0000E94BA2688EE91E00E9499268091060211
:101CF000909107020E94E02781EE91E00E949926D0
:101D00008091D7059091D8050E94E0278BED91E056
:101D10000E9499268091D5059091D6050E94E027D2
:101D20008091D9059091DA05019661F580911709A6
:101D3000882341F11092E00980914506882329F11A
:101D40000E9497190091D1051091D2052091D305D9
:101D50003091D405DC01CB01801B910BA20BB30B9E
:101D600087399105A105B10580F00E94971960930C
:101D7000D1057093D2058093D3059093D4050E942A
:101D8000702303C081E08093E009809145068111B2
:101D900041C080912E0990912F0997FD06C0809136
:101DA000E8059091E9050196B1F444E650E060E061
:101DB00070E088EE93E00E94AE2481E080933702C9
:101DC00061E080E090E00E944F2D84ED91E00E9460
:101DD000BA260E94532D809115099091160997FDFE
:101DE00006C08091E6059091E705019699F444E6D6
:101DF00050E060E070E088EE93E00E94AE24109224
:101E0000370260E080E090E00E944F2D8CEC91E082
:101E10000E94BA26E0914306F0914406E431F105B0
:101E200008F0A3C38827E758FF4F8F4F0C948838DA
:101E300080914C06811122C00E94532B20910402F4
:101E4000309105028217930759F00E94532B90930B
:101E5000050280930402CE0101960E943F2405C032
:101E600060E679E0CE010196EBD7BE016F5F7F4F50
:101E700080E699E021D7CE010196B2D70E94532B7C
:101E800080FD02C080ECE2C01092DE09E1C08091CA
:101E90004C068111DAC08091C905811113C00E94DE
:101EA0009719DC01CB0187519C4FAF4FBF4F8093F7
:101EB000C5059093C605A093C705B093C80581E0FA
:101EC0008093C9058091BD0581113CC00E94801D91
:101ED00068EE73E00E945938BC01CE0101960E9461
:101EE00085220E94891DBC01CE0183960E94852215
:101EF0000E94901DBC01CE018F960E948522BE01DA
:101F0000615D7F4FCE0189969BD7BE016D5D7F4F8E
:101F1000CE018996C7D4BE016F5F7F4FC3D4BC0189
:101F200087EB95E08DD781E08093BD05CE01899642
:101F300057D7CE018F9654D7CE01839651D7CE0175
:101F400001964ED78091AF05811107C080914A025A
:101F50008093AE0581E08093AF050E9497190091B0
:101F6000C5051091C6052091C7053091C805DC0153
:101F7000CB01801B910BA20BB30B893E9340A105B3
:101F8000B10558F48091AE0590E020914A0230915D
:101F90004B028217930709F44AC00E949719609375
:101FA000C5057093C6058093C7059093C8058091B9
:101FB0004A0290914B02892B09F0BCC20E94801DFD
:101FC00068EE73E00E945938BC01CE0101960E9470
:101FD00085220E94891DBC01CE0183960E94852224
:101FE0000E94901DBC01CE018F960E948522BE01E9
:101FF000615D7F4FCE01899623D7BE016D5D7F4F16
:10200000CE0189964FD4BE016F5F7F4F4BD4BC0188
:1020100087EB95E0D0D6CE018996E2D6CE018F9699
:10202000DFD6CE018396DCD6CE010196D9D667EBFA
:1020300075E0CE01019604D7BE016F5F7F4F80E649
:1020400099E03AD6CE010196CBD680E48093DE09A2
:102050000E94B72010924B0610924A0686C26091E9
:10206000560270915702CE018F960E948522609190
:10207000540270915502CE0189960E94852260918A
:10208000520270915302CE0101960E948522BE0138
:102090006F5F7F4FCE018396D3D6BE01675D7F4FC2
:1020A000CE018396FFD3BE01615D7F4FFBD3BC01A0
:1020B00080E699E080D6CE01839692D6CE01019635
:1020C0008FD6CE0189968CD6CE018F9689D6109266
:1020D0004B0610924A06809158029091590201973E
:1020E00051F580E88093DE0928C060915A02709112
:1020F0005B024AE0CE01839678D66FEB74E0CE01A6
:102100000196A6D6BE016D5D7F4FCE010196CAD362
:102110006FEB74E0B0D3BC0180E699E04CD6CE0101
:1021200001965ED6CE0183965BD683E390E09093D2
:102130004B0680934A061092DE090E94B72015C212
:1021400080914C06811131C081E020915C02309178
:102150005D02232B09F480E00E94A01FAB01BC01AB
:10216000CE0101960E94D71DBE016F5F7F4F80E6B2
:1021700099E0A2D5CE01019633D680915C02909170
:102180005D02892B51F481E390E090934B0680939C
:102190004A0680E48093DE0908C083E290E09093D1
:1021A0004B0680934A061092DE0981E020915C0282
:1021B00030915D02232B09F480E00E94A01F20E0F3
:1021C00030E0A9010E943A369091DE0987FF02C0F3
:1021D000906801C09F779093DE09C7C160915E024D
:1021E00070915F02CE0101960E948522BE016F5F51
:1021F0007F4FCE01839624D66DEB74E0CE0183969B
:102200003AD3BC0180E699E0D6D5CE018396E8D5D5
:10221000CE010196E5D58FE090E090934B06809338
:102220004A0680915E0290915F0297FD03C0109272
:10223000DE099BC180E88093DE0997C180914A0244
:1022400090914B02892B71F468E974E080E699E083
:102250009DD583E090E090931D0280931C028CE05A
:1022600090E00DC06FE974E080E699E08FD58CE0D6
:1022700090E090931D0280931C0283E090E0909385
:102280001F0280931E0271C180914A0290914B02FD
:102290006091500270915102892B89F4CE018F9682
:1022A0000E94852260914E0270914F02CE01899664
:1022B0000E94852260914C0270914D0210C0CE01A7
:1022C0008F960E94852260914C0270914D02CE0142
:1022D00089960E94852260914E0270914F02CE0134
:1022E00001960E948522BE016F5F7F4FCE018396CB
:1022F000A7D5BE01675D7F4FCE018396D3D2BE01C5
:10230000615D7F4FCFD2BC0180E699E054D5CE010C
:10231000839666D5CE01019663D5CE01899660D5A8
:10232000CE018F965DD521C10E94FC21E09014065C
:10233000F0901506009112061091130620911006D8
:1023400030911106409117065091180660910E06C3
:1023500070910F0680910C0690910D060E94001C52
:102360000C944C02A394A092C7090C9455022081AE
:102370003181235131092F30310548F4440F551F65
:10238000661F771F4160029634960C948005208169
:1023900031812A5031092930310510F00C94C305E0
:1023A000440F551F661F771FEECF109245063093DE
:1023B000440620934306232BB9F40E94801D7C0120
:1023C0000E94891D8C010E94901D9C014091480231
:1023D00050914902609146027091470280914402F7
:1023E000909145020E94001C809143069091440602
:1023F0000197B9F589E694E00E94872680914C0206
:1024000090914D020E94E0278EE694E00E9487267C
:1024100080914E0290914F020E94E027E09050027E
:10242000F090510290E3E91A98EFF90A00914E02F8
:1024300010914F0280904C0290904D020E94532BBD
:102440005C010E945A2B6C010E94612B9401A50132
:10245000B6010E94001C60914A028DE090E00E944B
:102460004F2D80914306909144060297C1F46091EC
:10247000520282E090E00E944F2D6091540283E06E
:1024800090E00E944F2D6091560284E090E00E94FF
:102490004F2D6091580286E090E00E944F2D809170
:1024A000430690914406039731F460915A0281E00B
:1024B00090E00E944F2D809143069091440604972E
:1024C00031F460915C028BE090E00E944F2D80918E
:1024D000430690914406059739F460915E02645F6B
:1024E0008CE090E00E944F2D0E94801D7C010E9494
:1024F000891D082F0E94901D2B968FAF2B970E944D
:10250000532B2A968FAF2A970E945A2B182F0E947E
:10251000612B382FC70168EE73E00E945938E82E0E
:102520002B962FAD2B972A964FAD2A97612F832F8D
:1025300099D01BC00E94801D68EE73E00E9459383C
:10254000BC01CE0101960E9485220E94901DBC0113
:10255000CE0183960E9485220E94891D43CD109250
:10256000A6091092CA090C945502C65BDF4F0FB63C
:10257000F894DEBF0FBECDBFDF91CF911F910F91B9
:10258000FF90EF90DF90CF90BF90AF909F908F9093
:102590007F906F905F904F903F902F9008950E9492
:1025A000C13A0F931F93CF93DF93082FC8E0D0E079
:1025B00011E081E0912F902309F480E00E94B92975
:1025C000110F2197B1F7F894E0916709F09168092C
:1025D000918180916609809598239183E0916709A4
:1025E000F09168099281892382837894DF91CF9159
:1025F0001F910F91089590916609E0916709F091FC
:102600006809F8948181292F209582238183789409
:102610008DE743E050E0815021F1DA011197F1F7A5
:1026200030813923C1F3F8948281822382838181AE
:10263000892B81837894ABE7B7E01197F1F7F89491
:10264000818128232183A3E1B1E01197F1F78081F3
:10265000982381E009F080E07894E3E6F6E0319792
:10266000F1F70895DF92EF92FF920F931F93CF93AC
:10267000DF931F921F92CDB7DEB7F82E162F81E0A1
:1026800080937B0688E680939D0610927C061092CC
:102690009E0660E087E398E02A8349830E94782AB7
:1026A0008AE0D82E4981842F6D2D0E944D38692FE4
:1026B00030E1839F600D112487E398E00E94782A1F
:1026C000812F6D2D0E944D38692F30E1839F600D61
:1026D000112487E398E00E94782A8F2D6D2D0E94A7
:1026E0004D38692F30E1839F600D112487E398E016
:1026F0000E94782A61E087E398E00E94782A2A8184
:10270000822F6D2D0E944D38692F20E1829F600D30
:10271000112487E398E00E94782A802F6D2D0E9473
:102720004D38692F30E1839F600D112487E398E0D5
:102730000E94782A8E2D6D2D0E944D38692F20E140
:10274000829F600D112487E398E00E94782A60E060
:1027500087E398E00E94782A0F900F90DF91CF9145
:102760001F910F91FF90EF90DF900C945F28CF9313
:10277000DF93682F70E080E090E04AE00E94A0279D
:10278000EC0186EA94E00E9487268C0F9D1FDF9162
:10279000CF910895CF93DF93FC01448155816081EF
:1027A00071818AE997E090D0EC0186EA94E00E947A
:1027B00087268C0F9D1FDF91CF910895CF93DF93D4
:1027C0000E948726EC0186EA94E00E9487268C0FFF
:1027D0009D1FDF91CF910895FC0180819181009729
:1027E00011F00C94C23560E070E0CB010895BF9207
:1027F000CF92DF92EF92FF920F931F93CF93DF93CD
:102800007C016B018A01E9012417350720F4812F2F
:102810008901C42FD82F68EA74E0C70119D3D60103
:1028200014968D919C91159708171907C8F48C1769
:102830009D0708F4EC01D601ED91FC911197EC0F86
:10284000FD1FB08010824D915C91BA01600F711F25
:10285000C7019CD2D601ED91FC91EC0FFD1FB08217
:10286000C701DF91CF911F910F91FF90EF90DF9003
:10287000CF90BF900895CF93DF93EC016115710560
:1028800059F0FB0101900020E9F73197AF01461B99
:10289000570BE5D1811102C0CE0147D2CE01DF91A5
:1028A000CF910895CF93DF93EC01FB0144815581D3
:1028B00060817181D4D1811102C0CE0136D2CE01A6
:1028C000DF91CF9108950895CF92DF92EF92FF921A
:1028D0000F931F93CF93DF936C017A018B01C0E0BC
:1028E000D0E0CE15DF0589F0D8016D918D01D601BC
:1028F000ED91FC910190F081E02DC6011995892B95
:1029000011F47E0102C02196ECCFC701DF91CF9177
:102910001F910F91FF90EF90DF90CF900895FC01F1
:10292000A089B1898C91A689B78982FD0FC09C913D
:10293000818D8F5F8F73228D821749F0218DDF018A
:10294000A20FB11D5D969C93818F08958C9108957F
:10295000FC01538D448D252F30E0842F90E0821BA5
:10296000930B541710F0CF96089501970895FC012A
:10297000918D828D981761F0828DDF01A80FB11DB6
:102980005D968C91928D9F5F9F73928F90E00895DA
:102990008FEF9FEF0895FC01918D828D981731F094
:1029A000828DE80FF11D858D90E008958FEF9FEFE8
:1029B0000895FC01918D228D892F90E0805C9F4FBE
:1029C000821B91098F73992708958DEF96E0F1DFAF
:1029D00021E0892B09F420E0822F08958AE997E00D
:1029E000E8DF21E0892B09F420E0822F0895FC0123
:1029F000848DDF01A80FB11DA35ABF4F2C91848D88
:102A000090E001968F739927848FA689B7892C93BC
:102A1000A089B1898C9180648C93938D848D981357
:102A200006C00288F389E02D80818F7D8083089520
:102A3000EF92FF920F931F93CF93DF93EC0181E00E
:102A4000888F9B8D8C8D981305C0E889F9898081CA
:102A500085FD23C0F62E0B8D10E00F5F1F4F0F7307
:102A60001127E02E8C8DE8120BC00FB607FCFACFB1
:102A7000E889F989808185FFF5CFCE01B8DFF2CFF3
:102A80008B8DFE01E80FF11DE35AFF4FF0820B8F93
:102A9000EA89FB898081806207C0EE89FF896083B3
:102AA000E889F98980818064808381E090E0DF910A
:102AB000CF911F910F91FF90EF900895CF93DF93E7
:102AC000EC01888D8823C1F0EA89FB89808185FD2E
:102AD00005C0A889B9898C9186FD0EC00FB607FC88
:102AE000F5CF808185FFF2CFA889B9898C9185FFC8
:102AF000EDCFCE017CDFE8CFDF91CF91089580E06C
:102B000090E0892B19F06ADF811120C080E090E00D
:102B1000892B19F05ADF81111CC080E090E0892BCD
:102B200041F080E090E0892B21F00E9400008111AB
:102B300013C080E090E0892BA1F080E090E0892B29
:102B400081F00E94000081110AC008950E940000D7
:102B5000DDCF0E940000E1CF0E940000EACF0C947C
:102B60000000089590E0FC013197E231F10508F092
:102B70004EC08827E357FF4F8F4F0C9488388091C1
:102B800080008F7703C0809180008F7D80938000CC
:102B9000089580918000877FF9CF84B58F7702C038
:102BA00084B58F7D84BD08958091B0008F7703C078
:102BB0008091B0008F7D8093B00008958091900047
:102BC0008F7707C0809190008F7D03C08091900027
:102BD000877F8093900008958091A0008F7707C031
:102BE0008091A0008F7D03C08091A000877F80939B
:102BF000A0000895809120018F7707C08091200167
:102C00008F7D03C080912001877F809320010895EC
:102C10000F931F93CF93DF93EC01888199810097E5
:102C200029F02A813B812617370788F48B016F5FD3
:102C30007F4F0E94DD39009761F0998388831B8361
:102C40000A832C813D81232B11F4FC01108281E049
:102C500001C080E0DF91CF911F910F910895EF9215
:102C6000FF920F931F93CF93DF93FC012481358153
:102C70006115710511F480E018C041155105A1F0EE
:102C80007B01EC018A01020F131FB801C1DF882309
:102C900091F3288139818C819D81B701820F931F27
:102CA0000E94CE3A1D830C8381E0DF91CF911F916A
:102CB0000F91FF90EF9008950F931F93CF93DF93A1
:102CC0008C01EB01FC01808191810097B1F068815A
:102CD00079816115710579F0428153812C813D81A3
:102CE0004217530740F00E94CE3A8C819D81F80133
:102CF0009583848313C00E94453988819981F801A6
:102D0000918380838A819B81938382838C819D813F
:102D100095838483198218821B821A821D821C82E9
:102D2000DF91CF911F910F910895CF93DF93EC0125
:102D300088819981009711F00E9445391982188283
:102D40001D821C821B821A82DF91CF910895EF921F
:102D5000FF920F931F93CF93DF93EC017B018A01C6
:102D6000BA0156DF811103C0CE01DFDF07C01D832A
:102D70000C83B701888199810E94CE3ACE01DF9100
:102D8000CF911F910F91FF90EF900895CF93DF9314
:102D9000EC016115710551F0FB0101900020E9F78C
:102DA0003197AF01461B570BD2DF01C0BEDFCE010A
:102DB000DF91CF910895CF93DF93EC01FB0186174C
:102DC000970751F0608171816115710521F044818F
:102DD0005581BDDF01C0A9DFCE01DF91CF910895FC
:102DE000FC01808191810C9445390F931F93CF93FF
:102DF000DF93CDB7DEB762970FB6F894DEBF0FBE94
:102E0000CDBF8C01CB01F801118210821382128296
:102E10001582148250E0BE016F5F7F4F0E94E8353B
:102E2000BE016F5F7F4FC801B1DF62960FB6F894A5
:102E3000DEBF0FBECDBFDF91CF911F910F910895DF
:102E4000FC01118210821382128215821482B3CF88
:102E5000FC01118210821382128215821482611584
:102E6000710549F0FB0101900020E9F73197AF01AE
:102E7000461B570B6CCF08951F920F920FB60F92FF
:102E800011240BB60F922F933F934F935F936F9341
:102E90007F938F939F93AF93BF93EF93FF938DEFA8
:102EA00096E0A5DDFF91EF91BF91AF919F918F913A
:102EB0007F916F915F914F913F912F910F900BBE3A
:102EC0000F900FBE0F901F9018951F920F920FB684
:102ED0000F9211240BB60F922F933F934F935F9352
:102EE0006F937F938F939F93AF93BF93EF93FF93D2
:102EF0008DEF96E014DDFF91EF91BF91AF919F911F
:102F00008F917F916F915F914F913F912F910F9092
:102F10000BBE0F900FBE0F901F9018951F920F922F
:102F20000FB60F9211240BB60F922F933F934F932E
:102F30005F936F937F938F939F93AF93BF93EF9321
:102F4000FF938AE997E053DDFF91EF91BF91AF9135
:102F50009F918F917F916F915F914F913F912F91B1
:102F60000F900BBE0F900FBE0F901F9018951F92E1
:102F70000F920FB60F9211240BB60F922F933F931F
:102F80004F935F936F937F938F939F93AF93BF9371
:102F9000EF93FF938AE997E0C2DCFF91EF91BF9135
:102FA000AF919F918F917F916F915F914F913F91E1
:102FB0002F910F900BBE0F900FBE0F901F90189582
:102FC000CF93DF93282F30E0F901EB53FD4F84912D
:102FD000F901EE56FC4FD491F901E45BFC4FC4912A
:102FE000CC2389F08111BEDDEC2FF0E0EE0FFF1F46
:102FF000EE5CFC4FA591B491EC91ED2381E090E063
:1030000021F480E002C080E090E0DF91CF9108954C
:103010001F93CF93DF93282F30E0F901EB53FD4F3F
:103020008491F901EE56FC4FD491F901E45BFC4F19
:10303000C491CC23C1F0162F811194DDEC2FF0E068
:10304000EE0FFF1FE85DFD4FA591B4918FB7F89487
:10305000111105C09C91ED2FE095E92302C0EC9180
:10306000ED2BEC938FBFDF91CF911F910895CF93FC
:10307000DF9390E0FC01EE56FC4F2491FC01E45BF1
:10308000FC4F8491882361F190E0880F991FFC0127
:10309000EB5BFD4FC591D491FC01E85DFD4FA5911F
:1030A000B491611109C09FB7F8948881209582235B
:1030B0008883EC912E230BC0623061F49FB7F894A3
:1030C0003881822F809583238883EC912E2B2C933B
:1030D0009FBF06C08FB7F894E8812E2B28838FBF3F
:1030E000DF91CF9108951F93CF93DF93182FEB01BA
:1030F00061E0BDDF209711F460E004C0CF3FD1054F
:1031000031F461E0812FDF91CF911F9181CFE12FC9
:10311000F0E0EB53FD4FE4914E2F50E0FA01319770
:10312000E231F10508F09DC08827E156FF4F8F4F2F
:103130000C94883884B5806884BDC7BD97C084B5B9
:10314000806284BDC8BD92C08091800080688093F9
:103150008000D0938900C093880088C0809180004F
:10316000806280938000D0938B00C0938A007EC0E1
:1031700080918000886080938000D0938D00C09300
:103180008C0074C08091B00080688093B000C093C0
:10319000B3006CC08091B00080628093B000C09397
:1031A000B40064C080919000806880939000D093B8
:1031B0009900C09398005AC08091900080628093DB
:1031C0009000D0939B00C0939A0050C080919000D3
:1031D000886080939000D0939D00C0939C0046C06F
:1031E0008091A00080688093A0008091A0008F7BD8
:1031F0008093A000D093A900C093A80037C080910D
:10320000A00080628093A000D093AB00C093AA007E
:103210002DC08091A00088608093A000D093AD0065
:10322000C093AC0023C0809120018068809320016E
:10323000D0932901C093280119C080912001806298
:1032400080932001D0932B01C0932A010FC080915D
:103250002001886080932001D0932D01C0932C0120
:1032600005C0C038D1050CF04CCF46CFDF91CF91CF
:103270001F9108953FB7F8948091390690913A06CE
:10328000A0913B06B0913C0626B5A89B05C02F3FF8
:1032900019F00196A11DB11D3FBFBA2FA92F982F7C
:1032A0008827820F911DA11DB11DBC01CD0142E0F7
:1032B000660F771F881F991F4A95D1F708958F923F
:1032C0009F92AF92BF92CF92DF92EF92FF926B01EB
:1032D0007C01D0DF4B015C01C114D104E104F10495
:1032E000E9F0C8DFDC01CB0188199909AA09BB09FB
:1032F000883E9340A105B10578F321E0C21AD108B8
:10330000E108F10888EE880E83E0981EA11CB11C2C
:10331000C114D104E104F10421F7DECFFF90EF9056
:10332000DF90CF90BF90AF909F908F9008952FB770
:10333000F894609135067091360680913706909129
:1033400038062FBF0895609330067093310680933E
:10335000320690933306DC01CB01845D9E4FAF4F64
:10336000BF4F80932C0690932D06A0932E06B0930A
:103370002F0682E090E090932B0680932A06D7DFF9
:10338000609326067093270680932806909329065B
:1033900008951F920F920FB60F9211242F933F930F
:1033A0008F939F93AF93BF9380913506909136068C
:1033B000A0913706B09138063091340623E0230FF0
:1033C0002D3720F40196A11DB11D05C026E8230F5D
:1033D0000296A11DB11D209334068093350690936B
:1033E0003606A0933706B09338068091390690913F
:1033F0003A06A0913B06B0913C060196A11DB11D75
:103400008093390690933A06A0933B06B0933C060E
:10341000BF91AF919F918F913F912F910F900FBED0
:103420000F901F9018951F920F920FB60F921124B4
:103430000BB60F922F933F934F935F936F937F93AE
:103440008F939F93AF93BF93EF93FF938091440823
:10345000B7DD20914808309149082F5F3F4F3093E6
:1034600049082093480890914708953618F096E04F
:1034700090934308909143089430C9F128F4923016
:1034800069F09330D1F05EC0953009F451C09630A8
:1034900009F058C091E09093140951C0811152C0B5
:1034A00020914808309149082436310508F442C07B
:1034B00010921409109247081CC0813009F042C0D4
:1034C000E091470891E09E0F90934708F0E020912B
:1034D000480830914908EE0FFF1FED5BF74F30872A
:1034E0002783109249081092480894E029C081115E
:1034F00017C0E091470891E09E0F90934708F0E0D5
:103500002091480830914908EE0FFF1FED5BF74FFF
:1035100030872783109249081092480893E010C022
:1035200020914808309149082536310558F007C0E8
:10353000811108C0109249081092480803C095E014
:1035400090934308909146089923B1F081110AC0E5
:1035500080914508882321F08091450861E009C0E9
:103560002F9A0AC080914508882329F08091450848
:1035700060E04EDD01C02F98FF91EF91BF91AF91B8
:103580009F918F917F916F915F914F913F912F917B
:103590000F900BBE0F900FBE0F901F9018951F92AB
:1035A0000F920FB60F9211240BB60F922F933F93E9
:1035B0004F935F936F937F938F939F93EF93FF93BB
:1035C0004091EF065091F0066091F1067091F2067D
:1035D000411551056105710599F080910006E09152
:1035E0000106F09102069081892780831416150642
:1035F00016061706D4F4415051096109710915C026
:10360000809170008D7F8093700090910006E09112
:103610000106F09102068081282F30E0892F90E08A
:10362000809590958223932380834093EF06509357
:10363000F0066093F1067093F206FF91EF919F916F
:103640008F917F916F915F914F913F912F910F904B
:103650000BBE0F900FBE0F901F9018951F920F92E8
:103660000FB60F9211240BB60F922F933F938F93A7
:103670009F93AF93BF93EF93FF938091F306909145
:10368000F406A091F506B091F606892B8A2B8B2BB8
:1036900051F180910306E0910406F09105069081B6
:1036A000892780838091F3069091F406A091F50616
:1036B000B091F606181619061A061B064CF58091ED
:1036C000F3069091F406A091F506B091F6060197E5
:1036D000A109B1098093F3069093F406A093F5062F
:1036E000B093F60615C080916F008D7F80936F00B8
:1036F00090910306E0910406F09105068081282F41
:1037000030E0892F90E080959095822393238083E9
:10371000FF91EF91BF91AF919F918F913F912F9129
:103720000F900BBE0F900FBE0F901F9018951F9219
:103730000F920FB60F9211240BB60F922F933F9357
:103740008F939F93AF93BF93EF93FF938091F7066F
:103750009091F806A091F906B091FA06892B8A2B70
:103760008B2B51F180910606E0910706F091080637
:103770009081892780838091F7069091F806A09127
:10378000F906B091FA06181619061A061B064CF52A
:103790008091F7069091F806A091F906B091FA068B
:1037A0000197A109B1098093F7069093F806A093B9
:1037B000F906B093FA0615C080916E008D7F809354
:1037C0006E0090910606E0910706F0910806808150
:1037D000282F30E0892F90E08095909582239323C5
:1037E0008083FF91EF91BF91AF919F918F913F9116
:1037F0002F910F900BBE0F900FBE0F901F9018953A
:103800003F924F925F926F927F928F929F92AF9270
:10381000BF92CF92DF92EF92FF920F931F93CF93BD
:10382000DF93382E962E842EF90184E6E816F104F3
:103830002CF082EBE81A87E0F80A03C08EE1E80E6C
:10384000F11CE092EE060093ED06E093EC06309258
:10385000EA069092E9068092E806AE2DB0E020E8F4
:1038600033E341EE51E00E949A372B013C0122EBF9
:1038700037E0FF2484E6C82ED12CC0E9D1E0C9018D
:10388000825B97408E159F05DCF4C90183709927F0
:10389000892B99F4C901B6010E945938892B31F45A
:1038A000C901BE010E945938892B39F480E8480EBD
:1038B00081E5581E81E0681E711C2F5F3F4FDFCFEE
:1038C0008EE4E81A88EFF80AC70164E670E00E9407
:1038D00059386C01C70160E971E00E9459385C01F8
:1038E000C1E0D0E0112783E0E822FF24C017D10710
:1038F0002CF5C230D10589F4E114F10471F4C1143E
:10390000D10419F4A114B10441F480E8480E8BE30A
:10391000581E86E2681E711C0FC0DE01A852BC4F03
:10392000AC91B0E020E831E541E050E00E949A37E8
:10393000460E571E681E791E2196D8CF292D30E0DD
:10394000ACE3B0E00E94A4376B017C01C80CD11C31
:10395000E11CF11C232D30E0A0E1BEE00E94A43761
:10396000C60ED71EE81EF91EDF01BB27119720E8FF
:1039700031E541E050E00E949638DC01CB018C0D2E
:103980009D1DAE1DBF1DBC01CD01640D751D861DA5
:10399000971DDF91CF911F910F91FF90EF90DF90D6
:1039A000CF90BF90AF909F908F907F906F905F90DF
:1039B0004F903F90C8CCCF92DF92EF92FF920F933F
:1039C0001F93B5DCC0902606D0902706E09028060D
:1039D000F09029068B019C010C191D092E093F0945
:1039E0008091300690913106A0913206B091330655
:1039F000083E134021053105D0F00196A11DB11DEF
:103A00008093300690933106A0933206B09333062C
:103A1000B701A60148515C4F6F4F7F4F4093260678
:103A2000509327066093280670932906CACF4091C9
:103A30002C0650912D0660912E0670912F0684174A
:103A40009507A607B70780F1E0912406F0912506B7
:103A5000309751F11995611571058105910511F0A6
:103A600072DC22C08091300690913106A09132061E
:103A7000B0913306845D9E4FAF4FBF4F80932C06AD
:103A800090932D06A0932E06B0932F0681E090E030
:103A900020912A0630912B06232B11F480E090E030
:103AA00090932B0680932A06609130067091310620
:103AB00080913206909133061F910F91FF90EF9005
:103AC000DF90CF9008950F931F93009130061091CF
:103AD00031062091320630913306DC01CB01800F94
:103AE000911FA21FB31F8093300690933106A093BD
:103AF0003206B09333065FDF1F910F910C94C626F8
:103B00005ADF0E94322B8091EE0690E08E54984F3F
:103B1000089551DF0E94322B8091ED0690E00895C8
:103B20004ADF0E94322B8091EC0690E00895CF93FB
:103B3000DF9381E080937B0688E680939D06109258
:103B40007C0610929E0661E187E398E00E94782A45
:103B50000E945F2882E090E00E94162887E398E0A8
:103B60000E942D2AC82F88E293E00E9499268C2F6C
:103B70000C2E000C990B0E94E027C550C833A0F012
:103B800089E193E00E94BA26C5E0D0E048EE53E018
:103B900060E070E088EE93E0E1D660ED77E080E0F1
:103BA00090E08DDB219791F7DF91CF9108958F926F
:103BB0009F92AF92BF92CF92DF92EF92FF920F93BC
:103BC0001F93CF93DF93CDB7DEB72C970FB6F89442
:103BD000DEBF0FBECDBF8C016A017B0180917306F1
:103BE000811112C0A4DBDC01CB01845B9B4FAF4F82
:103BF000BF4F80936F0690937006A0937106B093A9
:103C0000720681E08093730680916706811108C077
:103C10006BEB74E081E696E01BD981E08093670648
:103C200086DB80906F0690907006A0907106B09031
:103C30007206DC01CB0188199909AA09BB09893EE2
:103C40009340A105B10508F462C171DB60936F0672
:103C500070937006809371069093720620E030E0B6
:103C6000A901C701B6010E94493820E030E040E0D8
:103C70005FE387FD05C0C701B6010E94B43704C0E9
:103C8000C701B6010E94B3370E94183880915C02C8
:103C900090915D029B0129513C4F490124583340CA
:103CA00059012A55310969017B01892B09F084C02A
:103CB00077FF03C0F194E194F1084AE0B701CE0127
:103CC000079693D860EC74E0CE010196C1D8BE018E
:103CD000695F7F4FCE0101960E94521460EC74E040
:103CE0000E943B14BC0181E696E065D8CE010196A6
:103CF00077D8CE01079674D83FEC831637E0930649
:103D0000F8F44AE0B701CE0107966FD86FEB74E084
:103D1000CE0101969DD8BE01695F7F4FCE0101960D
:103D20000E94521460EC74E00E943B14BC0181E6D6
:103D300096E041D8CE01019653D8CE01079650D8CF
:103D400087ECA816B104F8F44AE0B701CE01079653
:103D50004CD86EEB74E0CE0101967AD8BE01695F53
:103D60007F4FCE0101960E94521460EC74E00E94D5
:103D70003B14BC0181E696E01ED8CE01019630D8F6
:103D8000CE0107962DD823E1C216D10408F0BFC09A
:103D90004AE0B701CE01079628D86DEB74E0CE015A
:103DA000019656D8BE01695F7F4FCE0101960E94F1
:103DB000521460EC74E09CC077FF03C0F194E1946E
:103DC000F1084AE0B701CE0107960FD860EC74E025
:103DD000CE0101963DD8BE01695F7F4FCE010196AD
:103DE0000E94521460EC74E00E943B14BC0181E616
:103DF00096E00E94DB16CE0101960E94F016CE01DD
:103E000007960E94F0163FEC831637E0930638F5CC
:103E1000C7016AE070E00E9459384AE0CE01079677
:103E20000E94F5166FEB74E0CE01019611D8BE0129
:103E3000695F7F4FCE0101960E9452146FEB74E0D0
:103E40000E943B14BC0181E696E00E94DB16CE0185
:103E500001960E94F016CE0107960E94F01687EC9C
:103E6000A816B10440F5C7016AE070E00E94593815
:103E70004AE0CE0107960E94F5166EEB74E0CE0183
:103E800001960E942817BE01695F7F4FCE010196FF
:103E90000E9452146FEB74E00E943B14BC0181E657
:103EA00096E00E94DB16CE0101960E94F016CE012C
:103EB00007960E94F01623E1C216D10440F5C7010F
:103EC0006AE070E00E9459384AE0CE0107960E94ED
:103ED000F5166DEB74E0CE0101960E942817BE0125
:103EE000695F7F4FCE0101960E9452146FEB74E020
:103EF0000E943B14BC0181E696E00E94DB16CE01D5
:103F000001960E94F016CE0107960E94F01661E617
:103F100076E0C8010E942017C8012C960FB6F894CD
:103F2000DEBF0FBECDBFDF91CF911F910F91FF90EC
:103F3000EF90DF90CF90BF90AF909F908F900895BB
:103F4000EF92FF920F931F93CF93DF93E82E0E947F
:103F5000FB128CEC0E94D11284E40E94D1120E94C8
:103F6000FB128CEC0E94D1128EEB0E94D11208E061
:103F700010E0D1E0C0E00E9494298111CD2BDD0F2B
:103F800001501109C1F708E010E0FF24F394D0E0DC
:103F90000E9494298111DF29FF0C01501109C1F7FA
:103FA0006C2F70E07D2B6F3F8FEF780711F460E08E
:103FB00070E0072E000C880B990B0E94403620E021
:103FC00030E040E85DE30E949F36EE2061F026E697
:103FD00036E646EE5FE30E949F3620E030E040E0A8
:103FE00052E40E94B43720E030E040E251E40E9405
:103FF0009F36DF91CF911F910F91FF90EF90089521
:104000004F925F926F927F928F929F92AF92BF92E8
:10401000CF92DF92EF92FF920F931F93CF93DF9394
:1040200000D000D0CDB7DEB77C014B015A018091A2
:104030004C06882341F0809154060BE516E0A5E577
:10404000B6E0F8014CC081E080934C0610924B061C
:1040500010924A068BE5682E86E0782E95E5492E6B
:1040600096E0592E00E010E00F5F1F4F680181E0DD
:10407000C81AD1089801A601B401CE0101960E9488
:10408000F713CE0101960E94EC13F30161933F01F7
:10409000CE0101960E94F0169801A601B501CE014D
:1040A00001960E94F713CE0101960E94EC13F201D3
:1040B00061932F01CE0101960E94F0160630110582
:1040C00099F6B9CF2C9192130DC090819A3009F4D2
:1040D00010823196119696E0E136F90731F0908121
:1040E0008A3080F79F5F9083F0CF8F5F843119F023
:1040F0008093540604C01092540610924C0668EA4D
:1041000074E0C7010E942817FE0131966F01F80183
:1041100081918F014AE0B60190E00E94F235F601EC
:1041200001900020E9F73197AF014C195D09B60104
:10413000C7010E942F16F6E001361F0741F7C7019D
:1041400026960FB6F894DEBF0FBECDBFDF91CF919C
:104150001F910F91FF90EF90DF90CF90BF90AF90A5
:104160009F908F907F906F905F904F9008950F93E6
:104170001F938091580290915902892B09F452C0E3
:10418000809153068823A1F0D2D800914F06109158
:1041900050062091510630915206DC01CB01801B64
:1041A000910BA20BB30B893E9340A105B105B8F565
:1041B00080915306811136C00E94612B20915202DA
:1041C000309153028217930769F50E945A2B209170
:1041D0005402309155028217930721F50E94532B08
:1041E000209156023091570282179307D9F49FD835
:1041F00060934F0670935006809351069093520639
:1042000081E0809353068BE093E0B4D58091350232
:104210009091360290930B0680930A0603C0109289
:104220005306C6CF1F910F910895CF93DF93EC01F2
:10423000019628812A33D9F78981843639F510927D
:1042400042061092410623964AE0FE01888121969B
:1042500090ED980F20914106309142069A3080F4FB
:10426000429FB001439F700D1124082E000C990B42
:10427000C097860F971F9093420680934106E5CF23
:104280001216130614F420936302EF01219688811D
:104290008F3689F48A81082E000C990B9C012053DB
:1042A00031093093420620934106C397059710F4D5
:1042B0002093620224968881823629F51092420664
:1042C00010924106FE0132964AE0819190ED980FDE
:1042D00020914106309142069A3080F4429FB0010D
:1042E000439F700D1124082E000C990BC097860F68
:1042F000971F9093420680934106E7CF3093610267
:1043000020936002EF012091600230916102032E40
:10431000000C440B550B60E67AEE80E090E00E94C2
:104320006C38DA01C90122E0880F991FAA1FBB1F50
:104330002A95D1F780933D0690933E06A0933F06C1
:10434000B0934006CE01DF91CF910895CF92DF92D6
:10435000EF92FF921F93CF93DF93CDB7DEB72C97E9
:104360000FB6F894DEBF0FBECDBF182F67EC74E018
:10437000CE0101960E942817133029F422E030E084
:1043800040E050E00FC01C3029F424E030E042E06F
:1043900050E008C01033B9F42091640930916509E8
:1043A00044E050E060E679E0CE0107960E94F71302
:1043B000BE01695F7F4FCE0101960E945C16CE015F
:1043C00007960E94F016CE0101960E94EC136B0135
:1043D0007C01CE0101960E94F016C6012C960FB604
:1043E000F894DEBF0FBECDBFDF91CF911F91FF903C
:1043F000EF90DF90CF90089581E080937B0688E670
:1044000080939D0610927C0610929E0660E087E3E2
:1044100098E00E94782A53D687E090E007D687E399
:1044200098E00E942D2A982F92959F708F702AE015
:10443000929F800D112490E09093180680931706A8
:1044400087E398E00E942D2A982F92959F708F7095
:104450002AE0929F800D112490E090930F068093A4
:104460000E0687E398E0F9D7982F9695969596953E
:104470009670292F220F220F920F8F70890F90E0D4
:1044800090930D0680930C0687E398E0E6D7982F6B
:1044900092959F708F702AE0929F800D112490E07A
:1044A00090934E0680934D0687E398E0D6D7982FD9
:1044B00092959F708F702AE0929F800D112490E05A
:1044C000909311068093100687E398E0C6D7982F43
:1044D00092959F708F702AE0929F800D112490E03A
:1044E000909313068093120687E398E0B6D7982F2F
:1044F00092959F708F702AE0929F800D112490E01A
:10450000909315068093140608950F931F93CF93ED
:10451000DF93CDB7DEB762970FB6F894DEBF0FBE5C
:10452000CDBF8C0177FF03C07195619571094AE099
:104530006A3071054CF5CE010D960E94F51660ECBF
:1045400074E0CE0101960E942817BE016F5F7F4F75
:10455000CE0107960E942017BE01635F7F4FCE01F8
:1045600007960E945214BC01C8010E942017CE0178
:1045700007960E94F016CE0101960E94F016CE0119
:104580000D960E94F01603C0C8010E94F516C801DE
:1045900062960FB6F894DEBF0FBECDBFDF91CF910C
:1045A0001F910F9108950F931F93CF93DF93CDB772
:1045B000DEB768970FB6F894DEBF0FBECDBF8B0194
:1045C000833089F4209164093091650942E050E01C
:1045D00060E679E0CE010D960E94F713B801CE0196
:1045E000019693DF53C08C3009F041C020916409DB
:1045F0003091650944E050E060E679E0CE014396F1
:104600000E94F713B801CE010D967FDF22E030E063
:1046100040E050E060E679E0CE0101960E94F71399
:10462000BE016F5F7F4FCE0107960E942017BE012B
:10463000635F7F4FCE0107960E945214BE016D5EEC
:104640007F4F0E945214BC0180E699E00E94DB1665
:10465000CE0107960E94F016CE0101960E94F01638
:10466000CE010D960E94F016CE0143962CC08033E9
:1046700061F5CE010D9649DF24E030E040E050E0E6
:1046800060E679E0CE0101960E94F713BE016F5FEC
:104690007F4FCE0107960E942017BE01635F7F4FB8
:1046A000CE0107960E945214BC0180E699E00E9458
:1046B000DB16CE0107960E94F016CE0101960E94ED
:1046C000F016CE010D960E94F01668960FB6F8947B
:1046D000DEBF0FBECDBFDF91CF911F910F91089527
:1046E0000E94971960934606709347068093480688
:1046F0009093490680914506882309F45DC0209176
:10470000430630914406C901880F991F21313105B4
:1047100051F0FC01E85CFD4F40815181415051094D
:10472000518340830AC040915A0250915B024C5021
:10473000510950935B0240935A02DC01A85CBD4FC3
:104740006D917C911197FC01EF57FC4F4081518195
:10475000641775073CF4FC01EF54FC4F4081518114
:104760004D935C932031310571F4209158023091C2
:1047700059022130310521F420E82093DE0906C0DA
:104780001092DE0903C02930310541F0FC01E85CDC
:10479000FD4F608171818091DF0905DF88E795E039
:1047A000B6D2E0914306F0914406EE0FFF1FE85C9D
:1047B000FD4F8081918104C408950E9497196093F0
:1047C0004606709347068093480690934906809169
:1047D0004506882309F452C02091430630914406CF
:1047E000C901880F991F2131310551F0FC01E85CA6
:1047F000FD4F408151814F5F5F4F518340830AC01D
:1048000040915A0250915B02445F5F4F50935B02AC
:1048100040935A02DC01A85CBD4F6D917C911197C9
:10482000FC01EF54FC4F40815181461757073CF47F
:10483000FC01EF57FC4F408151814D935C93203137
:10484000310519F41092DE0903C02930310541F019
:10485000FC01E85CFD4F608171818091DF09A3DE7E
:1048600088E795E054D2E0914306F0914406EE0FBC
:10487000FF1FE85CFD4F80819181A2C308950F93D3
:104880001F93CF93DF93CDB7DEB768970FB6F89439
:10489000DEBF0FBECDBF8C0180915A0290915B02AA
:1048A000489769F400D7BC01CE0143962EDE02D7AB
:1048B000BC01CE010D9629DE04D7BC0119C0F3D688
:1048C000BC01CE01439621DEF5D6BC01CE010D968A
:1048D0001CDE71D8C7D68091EA06882339F0682F8C
:1048E00070E08D3028F06C50710902C06CE070E00F
:1048F000CE0101960ADEBE016F5F7F4FCE010796A3
:104900000E942017BE01635F7F4FCE0107960E9471
:104910005214BE016D5E7F4F0E945214BC01C8014B
:104920000E942017CE0107960E94F016CE01019634
:104930000E94F016CE010D960E94F016CE0143960D
:104940000E94F016C80168960FB6F894DEBF0FBE3D
:10495000CDBFDF91CF911F910F9108953F924F925C
:104960005F926F927F928F929F92AF92BF92CF92FF
:10497000DF92EF92FF920F931F93CF93DF9300D0BC
:104980001F92CDB7DEB72091FC0627FDAAC149834F
:104990005A836B837C838C0161E08091FB060E94CB
:1049A00037183090FC06832D8D7F4801A12CB12C47
:1049B00009F0B7C060E072E18AE790E0A5019401D8
:1049C0000E946C3829013A0169017A0121E0C21A7A
:1049D000D108E108F1088FEFC816D104E104F10411
:1049E00009F008F44CC060E472E48FE090E0A501A7
:1049F00094010E946C3869017A0191E0C91AD108CA
:104A0000E108F108A2E03A1220C0BFEFCB16D104B2
:104A1000E104F10409F008F462C160E970ED83E09B
:104A200090E0A50194010E946C3869017A01E1E0EF
:104A3000CE1AD108E108F108FFEFCF16D104E10446
:104A4000F10409F0C0F583E065C02FEFC216D10470
:104A5000E104F104B1F0A8F068E478EE81E090E0C0
:104A6000A50194010E946C3869017A0181E0C81A9D
:104A7000D108E108F108332009F4D9C027C181E049
:104A800001C082E0332091F045C0D301C2012AE089
:104A9000B595A795979587952A95D1F76C017D01D6
:104AA000E1E0CE1AD108E108F10885E095B5987FDC
:104AB000892B85BD66C068E478EE81E090E0A501B1
:104AC00094010E946C3869017A01B1E0CB1AD108D7
:104AD000E108F108EFEFCE16D104E104F10409F08A
:104AE00008F4A3C064E274EF80E090E0A5019401B3
:104AF0000E946C3869017A0191E0C91AD108E10875
:104B0000F108AFEFCA16D104E104F10411F008F086
:104B1000B0C085E09091B100987F892B8093B1005F
:104B200030C060E072E18AE790E0A50194010E9444
:104B30006C3869017A01F1E0CF1AD108E108F10877
:104B4000C114D10421E0E206F10488F068E478EEB3
:104B500081E090E0A50194010E946C3869017A011E
:104B600081E0C81AD108E108F10893E001C091E0A2
:104B7000A1E03A1206C080918100887F892B809342
:104B8000810089819A81AB81BC81892B8A2B8B2BF7
:104B900081F0D801AA0FBB1F29813A814B815C812A
:104BA0000E949A3728EE33E040E050E00E947837C8
:104BB00003C02FEF3FEFA90191E03916A1F0A2E069
:104BC0003A1619F131108DC0C7BC2093F706309307
:104BD000F8064093F9065093FA0680916E008260C1
:104BE00080936E007EC0D0928900C092880020938E
:104BF000F3063093F4064093F5065093F606809141
:104C00006F00826080936F006CC0C092B3002093ED
:104C1000EF063093F0064093F1065093F206809130
:104C200070008260809370005CC084E073CF8FEF6F
:104C3000C816D104E104F104D1F0C8F062E17AE7CA
:104C400080E090E0A50194010E946C3869017A012E
:104C5000F1E0CF1AD108E108F1082FEFC216D10414
:104C6000E104F10411F008F010CF84E01FCF83E0DD
:104C70001DCF62E17AE780E090E0A50194010E94F7
:104C80006C3869017A0191E0C91AD108E108F1088C
:104C9000AFEFCA16D104E104F104B1F0A8F0D301DA
:104CA000C2014AE0B595A795979587954A95D1F7A2
:104CB0006C017D01E1E0CE1AD108E108F108332052
:104CC00009F4F3CE87E026CF86E0DCCEBFEFCB162B
:104CD000D104E104F10409F060F684E0D3CE82E06F
:104CE00019CF0F900F900F900F90DF91CF911F91E0
:104CF0000F91FF90EF90DF90CF90BF90AF909F907B
:104D00008F907F906F905F904F903F9008950097A5
:104D100069F0FC0101900020E9F73197AF01481BD1
:104D2000590BBC018AE997E00C94641480E090E090
:104D300008950F931F93CF93DF938C01C0E0D0E0D1
:104D4000F801EC0FFD1F6491662371F0E0919A0762
:104D5000F0919B070190F081E02D8AE997E0199589
:104D6000892B11F02196ECCFCE01DF91CF911F91CD
:104D70000F910895CF93DF93DCDFEC0186EA94E096
:104D8000C6DF8C0F9D1FDF91CF9108954F925F92E8
:104D90006F927F928F929F92CF92DF92EF92FF92CB
:104DA0000F931F93CF93DF932CE3C22ED12CE12CD2
:104DB000F12CA70196010E9478376093E806CA019A
:104DC000B901A70196010E9478376093E906CA01EC
:104DD000B90128E130E040E050E00E947837290135
:104DE0003A016093EA06CA01B9016C5F7F4F8F4FA9
:104DF0009F4F27E030E040E050E00E9478376F5F3F
:104E00006093EB06C12CD12C760120E004E610E083
:104E100030E9832E99249394E22FF0E0EE54F84F7A
:104E2000EF01C370DD27209789F4CF01B8010E94FC
:104E30005938892B31F4CF01B4010E945938892B9C
:104E400029F48EE691E0A0E0B0E004C08DE691E0A8
:104E5000A0E0B0E0C80ED91EEA1EFB1ED701C601B5
:104E6000AA27BB27481659066A067B0610F02F5F53
:104E7000D3CF2093EE06209799F4CF0164E670E03B
:104E80000E945938892B39F4CF0160E971E00E9402
:104E90005938892B29F48EE691E0A0E0B0E004C0F7
:104EA0008DE691E0A0E0B0E0C81AD90AEA0AFB0A50
:104EB000930182010C191D092E093F09CF0164E6F7
:104EC00070E00E9459387C01CF0160E971E00E94D6
:104ED0005938E9EDF3E0A0E0A13041F4209751F416
:104EE000E114F10429F4009729F402C0408103C0C1
:104EF0004DE101C04CE150E060E070E0041715079F
:104F00002607370740F0041B150B260B370BAF5F46
:104F10003196AC3009F7AF5FA093ED060F5F0093B9
:104F2000EC06DF91CF911F910F91FF90EF90DF90F2
:104F3000CF909F908F907F906F905F904F9008954B
:104F40008F929F92AF92BF920F931F93CF93DF9355
:104F5000CDB7DEB7A1970FB6F894DEBF0FBECDBFB9
:104F600019A2423008F44AE08E010F5D1F4F842ED3
:104F7000912CA12CB12CA50194010E947837E62F29
:104F8000B901CA0101501109EA3014F4E05D01C011
:104F9000E95CD801EC93232B242B252B61F7C80166
:104FA000B6DEA1960FB6F894DEBF0FBECDBFDF917F
:104FB000CF911F910F91BF90AF909F908F900895C8
:104FC000CF92DF92EF92FF92CF93DF936C01990F14
:104FD000EE08FF08F7FE19C0E0919A07F0919B07D1
:104FE0000190F081E02D6DE28AE997E01995EC01DE
:104FF00066277727CB016C197D098E099F094AE046
:105000009FDF7C01EC0EFD1E05C04AE0C701B60122
:1050100097DF7C0186EA94E07ADE8E0D9F1DDF919A
:10502000CF91FF90EF90DF90CF9008959091C506BB
:105030009111FCCF813208F080E291E09093C50697
:105040009093C4062FEF2093C3061092C206280F38
:105050002093C1069093C0069091C006906D9093E6
:10506000C0069091BF06913061F41092BF069091F6
:10507000C0069093BB009091BC0093FDF8CF95ECD7
:1050800001C095EE9093BC009091C5069130E1F37C
:105090009091C206981710F48091C206AFE9B6E06D
:1050A00028EC36E0F9019E2F921B981718F49D9179
:1050B0009193F9CF1092C7068093C6060895209168
:1050C0009E0690919D06213208F04AC08091C50647
:1050D0008111FCCF32E03093C50631E03093C40635
:1050E0003FEF3093C3061092C2062093C106ADE78E
:1050F000B6E04FE956E0FA013E2F341B321718F4A0
:105100003D913193F9CF1092C0062091C006990FBE
:10511000922B9093C0069091BF06913061F410924B
:10512000BF069091C0069093BB009091BC0093FD88
:10513000F8CF95EC01C095EE9093BC009091C50618
:105140009230E1F39091C3069F3F79F08091C306BE
:10515000803241F08091C306803331F084E005C095
:1051600081E003C082E001C083E010927C061092CF
:105170009E0610927B060895982F8091C609823072
:1051800009F460C0893009F48BC0813009F0CAC0CD
:105190004091C70950E04930510508F0C3C0FA01F9
:1051A0008827EF54FF4F8F4F0C9488381092C20914
:1051B0009C3209F4B7C08091C90982608093C90903
:1051C000990F9056892F880F880F03C08091BD09D1
:1051D0008053980F9093BD09A5C0990F9056892FC1
:1051E000880F880F03C08091BC098053980F90935B
:1051F000BC0998C0990F9056892F880F880F03C05B
:105200008091BB098053980F9093BB098BC09C324F
:1052100009F088C013C09C3289F0990F9056892FED
:10522000880F880F980F9093C2097CC09C3231F090
:105230008091C2098053980F9093C2098091C4094C
:1052400084606EC08091C70981116CC0913311F0E8
:10525000913411F483E021C0903321F09E3411F099
:10526000963519F41092C30958C0923311F0943452
:1052700011F484E012C0933311F487E00EC094332C
:1052800011F486E00AC0953311F485E006C0963328
:1052900019F0953409F046C081E08093C3093DC000
:1052A0008091C709823019F140F48823A9F0813038
:1052B000C9F58091BF09805316C0843029F1E8F008
:1052C000853081F58091C1098053980F9093C10971
:1052D0008091C409826024C09C3221F1990F9056BC
:1052E000892F880F880F980F9093BF091BC0990FC3
:1052F0009056892F880F880F03C08091C009805372
:10530000980F9093C0090EC0990F9056892F880F5F
:10531000880F980F9093C10905C08091C4098160DE
:105320008093C40981E0089580916609E09167093E
:10533000F0916809F8949181982B91832281982F9C
:10534000909529232283A7E0B0E01197F1F72181FE
:1053500092239183A3E2B0E01197F1F790817894C2
:10536000EFECF0E03197F1F7982381E009F480E069
:10537000089590916609E0916709F0916809392FC5
:10538000309580FF13C0F8942281832F822382837B
:105390008181892B8183A3E2B0E01197F1F78281AB
:1053A000982B9283789487ED90E012C0F894228134
:1053B000832F822382838181892B8183AFEFB0E0A9
:1053C0001197F1F78281982B928378948FE090E087
:1053D0000197F1F7089585ED8093BC008091BC00A2
:1053E00084FDFCCF1092C50608954091190A262F1E
:1053F00030E0240F311D21323105DCF42091C50647
:105400002430C9F4FC0180E090E0861758F4309114
:10541000190A2191DC01A950B64FA30FB11D2C939D
:105420000196F3CF8091190A680F6093190A80E002
:10543000089581E0089582E008950895E091C706F7
:105440008091C606E81730F4F0E0E853F94F808108
:1054500090E008958FEF9FEF08959091C706809197
:10546000C606981750F4E92FF0E0E853F94F208171
:1054700030E09F5F9093C70602C02FEF3FEFC90156
:1054800008958091C60690E02091C706821B91097D
:105490000895CF92DF92EF92FF920F931F93CF93D5
:1054A000DF937C01262F972F8A0180917B0688232A
:1054B00091F0C62FD72F6E01C40ED51ECC15DD0579
:1054C00069F06991D701ED91FC910190F081E02D97
:1054D000C7011995F3CF642F822F87DFC801DF91B1
:1054E000CF911F910F91FF90EF90DF90CF90089593
:1054F000CF93DF931F92CDB7DEB7698320917B06F0
:105500002223D1F020919E06203240F021E030E0AD
:10551000FC013383228380E090E014C080917C06FC
:10552000E82FF0E0E358F94F998190838F5F8093E3
:105530007C0680939E0604C061E0CE01019655DF93
:1055400081E090E00F90DF91CF910895089580E081
:1055500090E00895CF92DF92EF92FF921F93CF9346
:10556000DF939091E109911103C08FEF9FEF72C01B
:105570009091E0099923C9F3182FC091DF09D0E079
:105580008091EF0981110DC00E9497196093EB097A
:105590007093EC098093ED099093EE0981E080937C
:1055A000EF090E949719C090EB09D090EC09E090A8
:1055B000ED09F090EE09DC01CB018C199D09AE09D3
:1055C000BF098D329140A105B105D8F00E9497190D
:1055D0006093EB097093EC098093ED099093EE09C9
:1055E0008091EA0991E098279093EA09992329F09C
:1055F0001092E9091092E80904C0D093E909C09318
:10560000E8092091E8093091E90920953095409109
:10561000DE0950E02423352326FF04C081E0809377
:10562000E70902C01092E70927FF04C081E08093D8
:10563000E60902C01092E6098091EA09882309F47C
:1056400094CF02C0D595C7951A95E2F7C0FF8DCFCC
:1056500080E09CE3DF91CF911F91FF90EF90DF906E
:10566000CF900895CF92DF92EF92FF92C0903E0AC2
:10567000D0903F0AE090400AF090410A6C157D05F9
:105680008E059F0559F06B017C0180DBC0923E0ABC
:10569000D0923F0AE092400AF092410AFF90EF90C8
:1056A000DF90CF9008950E94DB1CDCDF8091E8063C
:1056B00090E008950E94DB1CD5DF8091E90690E020
:1056C00008950E94DB1CCEDF8091EA0690E00895E9
:1056D000CF92DF92EF92FF92CF93DF93EC010E9483
:1056E00097196B017C018F850E94E01721E0892BBF
:1056F00009F420E0298B8889811103C081E0822789
:10570000898B29898A89281721F0CD8ADE8AEF8A38
:10571000F88E8D899E89AF89B88DB701A601481B87
:10572000590B6A0B7B0BDB01CA01CB80DC80ED805F
:10573000FE80C416D506E606F70664F43A81231700
:1057400049F02A83222331F04B895C894F5F5F4FF8
:105750005C8B4B8B3A8131110CC0CF80D884E984AB
:10576000FA84C816D906EA06FB06ACF48B899C8934
:105770000EC0CB84DC84ED84FE84C816D906EA060C
:10578000FB064CF48B899C899195819591099983AD
:1057900088831C8A1B8A2A8BDF91CF91FF90EF9020
:1057A000DF90CF9008950F931F93CF93DF931F92B5
:1057B000CDB7DEB78C01862FF8016787408B91E06B
:1057C0004927418B428B148A138A118210821282DC
:1057D000158A168A178A108E44E150E060E070E066
:1057E00043835483658376834AEF50E060E070E042
:1057F000478350876187728748EE53E060E070E02E
:10580000438754876587768760E029830E9437182D
:10581000F8018089298181110BC0222349F061E0C0
:1058200087850F90DF91CF911F910F910C940818ED
:105830000F90DF91CF911F910F9108951F920F92BA
:105840000FB60F9211240BB60F922F933F934F93E5
:105850005F936F937F938F939F93AF93BF93EF93D8
:10586000FF938091B900887F803609F49CC068F569
:10587000883209F45BC090F4803109F454C038F4E4
:10588000882309F4F6C0883009F44DC0F5C088318A
:1058900009F44CC0803209F45DC0EEC0803409F4D4
:1058A00068C048F4803309F455C0883309F0E4C077
:1058B0008093C306D8C0803509F44FC0883509F4F9
:1058C0005DC0883409F0D8C0D6C0883909F4C7C093
:1058D000A8F4883709F467C038F4883609F463C03F
:1058E000803709F460C0C8C0883809F4B8C080396E
:1058F00009F45FC0803809F0BFC05BC0803B09F489
:1059000086C038F4803A09F466C0883A09F47FC04A
:10591000B3C0803C09F4A7C0883C09F4A4C0883B0C
:1059200009F48AC0A9C08091C00610C09091C20637
:105930008091C106981770F5E091C20681E08E0F44
:105940008093C206F0E0E156F94F80818093BB005E
:1059500085EC86C08093C3068EC0E091C20681E0CC
:105960008E0F8093C2068091BB00F0E0E156F94FA4
:1059700080839091C2068091C1066EC0E091C206FC
:1059800081E08E0F8093C2068091BB00F0E0E1566B
:10599000F94F80838091C40681116DC081E08093AE
:1059A000BF0684EA61C083E08093C50610923D0A79
:1059B000CFCF80913D0A803208F051C0E0913D0A7E
:1059C00081E08E0F80933D0A8091BB00F0E0E35EA2
:1059D000F54F8083BDCF85EC8093BC001092C50647
:1059E00080913D0A803230F4E0913D0AF0E0E35EC0
:1059F000F54F108260913D0A70E0E0911B0AF09132
:105A00001C0A8DE19AE0199510923D0A35C084E098
:105A10008093C50610921A0A1092190AE091170A8B
:105A2000F091180A19958091190A811105C081E039
:105A30008093190A1092F709E0911A0A81E08E0FFB
:105A400080931A0AF0E0E950F64F80818093BB0002
:105A500090911A0A8091190A981708F479CF85E86D
:105A60008093BC0009C085EC8093BC001092C506F1
:105A700003C01092C306AFDCFF91EF91BF91AF91CD
:105A80009F918F917F916F915F914F913F912F9156
:105A90000F900BBE0F900FBE0F901F9018950C9497
:105AA0005B370C94533788E090E0FBDF682F70E0A1
:105AB00089E00E94731889E090E0F3DF682F70E0BE
:105AC00086E00E9473188AE090E0EBDF682F70E0B8
:105AD00083E00C9473182F923F924F925F926F92D3
