:020000040000FA
:100000000C94F6000C941E010C941E010C941E011D
:100010000C941E010C941E010C941E010C94A72537
:100020000C941E010C941E010C941E010C94F625D8
:100030000C941E010C941E010C9451260C941E016C
:100040000C945D250C941E010C942B250C94052515
:100050000C941E010C941E010C941E010C941E01A4
:100060000C94AC260C941E01496E636F727265632A
:100070007420536F6E6720466F726D617421005259
:1000800047423D6F6666005247423D6F6E00426CCC
:1000900075653D00475245454E3D005245443D0083
:1000A00053746F726520746F20454550524F4D3A1E
:1000B0000076616C75653D006D656E75506F736996
:1000C00074696F6E3D0076616C75653D006D656E9F
:1000D00075506F736974696F6E3D0057616B652071
:1000E00075702C204E656F21004661756C74792007
:1000F00044533332333121004453333233315F546C
:100100003D00000000080002010000030407000099
:1001100000000000000000000000250028002B0067
:1001200002010000000000240027002A0053746F21
:100130007020546573740054656D702E2073656E65
:10014000736F72206E6F7420666F756E642E00532D
:10015000746172742054657374004E4353333134A8
:1001600020666F7220485720322E7820485635314D
:100170003232206F72204856353232320046697270
:100180006D776172652076657273696F6E3A2000D3
:100190005761726E696E67212052544320444F4E5E
:1001A000275420524553504F4E4421006C65642023
:1001B0006C6F636B3D0000000000230026002900E7
:1001C00004040404040404040202020202020303FD
:1001D0000303030301020408102040800102040805
:1001E000102001020408102004287F2D11241FBEB6
:1001F000CFEFD8E0DEBFCDBF26E0A4E2B4E001C07F
:100200001D92AF3FB207E1F714E0A0E0B1E0EAE5EC
:10021000F5E602C005900D92A432B107D9F710E0BF
:10022000C5EFD0E004C02197FE010E948C30C43F8E
:10023000D107C9F70E948F280C94A0320C940000BB
:100240008CBD9DBD08958091E706E091E806F09190
:10025000E906F8949181982B91832281382F30956B
:1002600023232283A7E0B0E01197F1F79181932334
:100270009183A3E2B0E01197F1F790817894EFECCD
:10028000F0E03197F1F7982381E009F480E00895D8
:100290009091E706E091E806F091E906292F209574
:1002A00080FF14C0F8948281822382838181892B0C
:1002B0008183A3E2B0E01197F1F78281982B9283BA
:1002C000789487ED90E00197F1F70895F894828192
:1002D000822382838181892B8183AFEFB0E01197E4
:1002E000F1F78281982B928378948FE090E0EBCFA6
:1002F0000F931F93CF93DF93082FC8E0D0E011E056
:1003000081E0902F912309F480E00E944801110FB1
:100310002197B1F7F894E091E806F091E906918110
:100320008091E706809598239183E091E806F0910B
:10033000E9069281892382837894DF91CF911F917E
:100340000F9108958091E706E091E806F091E906A3
:10035000F8949181282F20959223918378943DE7FA
:1003600043E050E0315029F1DA011197F1F7908123
:100370009823C1F3F8949281922392839181982BD0
:1003800091837894ABE7B7E01197F1F7F8949181F6
:1003900092239183A3E1B1E01197F1F79081982323
:1003A00081E009F080E07894E3E6F6E03197F1F738
:1003B000089580E00895089508950895AF92BF923A
:1003C000CF92DF92EF92FF920F931F93CF93DF9321
:1003D0006C017B018B01040F151FEB015E01AE1850
:1003E000BF08C017D10759F06991D601ED91FC9172
:1003F0000190F081E02DC6010995892B79F7C5019F
:10040000DF91CF911F910F91FF90EF90DF90CF90F0
:10041000BF90AF900895FC01538D448D252F30E09F
:10042000842F90E0821B930B541710F0CF96089501
:1004300001970895FC01918D828D981761F0A28D2E
:10044000AE0FBF2FB11D5D968C91928D9F5F9F73F4
:10045000928F90E008958FEF9FEF0895FC01918DAA
:10046000828D981731F0828DE80FF11D858D90E017
:1004700008958FEF9FEF0895FC01918D228D892FB4
:1004800090E0805C9F4F821B91098F73992708959C
:100490008DEE95E00E943C0221E0892B09F420E0DA
:1004A000822F089580E090E0892B29F00E94480275
:1004B00081110C9400000895FC01A48DA80FB92FA0
:1004C000B11DA35ABF4F2C91848D90E001968F737C
:1004D0009927848FA689B7892C93A089B1898C919B
:1004E000837080648C93938D848D981306C00288EA
:1004F000F389E02D80818F7D80830895EF92FF92B4
:100500000F931F93CF93DF93EC0181E0888F9B8D36
:100510008C8D98131AC0E889F989808185FF15C0F0
:100520009FB7F894EE89FF896083E889F989808113
:100530008370806480839FBF81E090E0DF91CF91E2
:100540001F910F91FF90EF900895F62E0B8D10E004
:100550000F5F1F4F0F731127E02E8C8D8E110CC073
:100560000FB607FCFACFE889F989808185FFF5CFBE
:10057000CE010E945C02F1CFEB8DEC0FFD2FF11D3F
:10058000E35AFF4FF0829FB7F8940B8FEA89FB89FB
:1005900080818062CFCF0F931F93CF93DF938C0125
:1005A000D0E0C0E0F801EC0FFD1F6491662341F03C
:1005B0008DEE95E00E947E02892B11F02196F2CFFC
:1005C000CE01DF91CF911F910F910895CF93DF93CB
:1005D000EC01888D8823B9F0AA89BB89E889F9895B
:1005E0008C9185FD03C0808186FD0DC00FB607FC90
:1005F000F7CF8C9185FFF2CF808185FFEDCFCE01C3
:100600000E945C02E9CFDF91CF910895833081F0A1
:1006100028F4813099F08230A9F008958730A9F04C
:100620008830C9F08430B1F4809180008F7D03C0A0
:10063000809180008F7780938000089584B58F77B4
:1006400084BD089584B58F7DFBCF8091B0008F77F6
:100650008093B00008958091B0008F7DF9CFCF9343
:10066000DF93282F30E0F901EE5FFE4F8491F9010E
:10067000EC52FE4FD491F901E054FE4FC491CC23CB
:10068000A1F081110E940603EC2FF0E0EE0FFF1F96
:10069000EA54FE4FA591B491EC91ED2381E090E0F6
:1006A00009F480E0DF91CF91089580E090E0FACFE7
:1006B0001F93CF93DF93282F30E0F901EE5FFE4FB9
:1006C0008491F901EC52FE4FD491F901E054FE4FB0
:1006D000C491CC23A9F0162F81110E940603EC2FA0
:1006E000F0E0EE0FFF1FEA5EFE4FA591B4918FB7C9
:1006F000F894EC91111108C0D095DE23DC938FBFE4
:10070000DF91CF911F910895DE2BF8CFCF93DF9328
:1007100090E0FC01EC52FE4F249180549E4FFC016E
:1007200084918823C9F090E0880F991FFC01ED5D4A
:10073000FE4FA591B491FC01EA5EFE4FC591D491A4
:1007400061110DC09FB7F8948C91209582238C93F2
:100750008881282328839FBFDF91CF91089562303D
:1007600051F49FB7F8943C91822F809583238C930A
:10077000E8812E2BEFCF8FB7F894EC912E2B2C9392
:100780008FBFEACF4F925F926F927F928F929F922C
:10079000AF92BF92CF92DF92EF92FF920F931F938F
:1007A000CF93DF9300D000D01F92CDB7DEB720915A
:1007B000EC0527FD2CC149835A836B837C838C0114
:1007C00061E08091EB050E9486038091EC058D83AA
:1007D0004801B12CA12C8D7F09F031C160E072E19C
:1007E0008AE790E0A50198010E946D3029013A0145
:1007F0007A01690191E0C91AD108E108F108AFEF67
:10080000CA16D104E104F10409F00CF4C7C060E495
:1008100072E48FE090E0A50198010E946D306901BB
:100820007A01B1E0CB1AD108E108F1088D8182305C
:1008300009F06AC082E09FEFC916D104E104F10417
:1008400009F00CF45EC160E970ED83E090E0A50171
:1008500098010E946D3069017A01A1E0CA1AD1089D
:10086000E108F10883E0BFEFCB16D104E104F10405
:1008700009F00CF446C168E478EE81E090E0A5014F
:1008800098010E946D3069017A0181E0C81AD1088F
:10089000E108F10884E09FEFC916D104E104F104F6
:1008A00009F00CF42EC164E274EF80E090E0A50141
:1008B00094010E946D3069017A01B1E0CB1AD10830
:1008C000E108F10885E09FEFC916D104E104F104C5
:1008D00009F008F416C162E17AE780E090E0A50132
:1008E00094010E946D3069017A01B1E0CB1AD10800
:1008F000E108F1088FEFC816D104E104F10411F00A
:1009000008F0F0C086E0FDC08FEFC816D104E10406
:10091000F10409F00CF491C068E478EE81E090E015
:10092000A50198010E946D3069017A0191E0C91A10
:10093000D108E108F108AD8184E0A111C4CF83E0C2
:10094000AFEFCA16D104E104F10461F15CF162E198
:100950007AE780E090E0A50194010E946D30690182
:100960007A0181E0C81AD108E108F10884E09FEF1C
:10097000C916D104E104F104A9F0A0F073016201E9
:100980009AE0F594E794D794C7949A95D1F7A1E0AB
:10099000CA1AD108E108F10885E004C081E0AD8100
:1009A000A111AFC095B5987F892B85BD89819A81AA
:1009B000AB81BC812FEF3FEFA901892B8A2B8B2BB9
:1009C00079F0D801AA0FBB1F29813A814B815C8144
:1009D0000E94322F28EE33E040E050E00E944B307E
:1009E0009D81913009F45CC0923009F46BC0911183
:1009F0000EC0C7BC2093E7053093E8054093E90596
:100A00005093EA0580916E00826080936E000F9093
:100A10000F900F900F900F90DF91CF911F910F913A
:100A2000FF90EF90DF90CF90BF90AF909F908F900E
:100A30007F906F905F904F90089582E0B0CF60E01C
:100A400072E18AE790E0A50198010E946D3069018A
:100A50007A01B1E0CB1AD108E108F10891E0C114A4
:100A6000D10481E0E806F10484F068E478EE81E0E6
:100A700090E0A50198010E946D3069017A0191E032
:100A8000C91AD108E108F10893E0AD81A13009F05D
:100A90008DCF80918100887F892B8093810086CFC4
:100AA000D0928900C09288002093E3053093E4053A
:100AB0004093E5055093E60580916F008260809336
:100AC0006F00A5CFC092B3002093DF053093E005FF
:100AD0004093E1055093E20580917000826080931D
:100AE000700095CF730162018AE0F594E794D79482
:100AF000C7948A95D1F7B1E0CB1AD108E108F10883
:100B000087E09091B100987F892B8093B1004ECF00
:100B10001F93CF93DF93182FEB0161E00E948603B0
:100B2000209739F460E0812FDF91CF911F910C94D1
:100B30005803CF3FD10511F461E0F5CFE12FF0E08C
:100B4000EE5FFE4FE491E33031F140F4E130B1F07B
:100B5000E230E1F0C038D1057CF7E4CFE73029F18D
:100B6000E83059F1E430B1F78091800080628093E1
:100B70008000D0938B00C0938A0004C084B5806845
:100B800084BDC7BDDF91CF911F91089584B5806268
:100B900084BDC8BDF7CF80918000806880938000BD
:100BA000D0938900C0938800EDCF8091B000806819
:100BB0008093B000C093B300E5CF8091B000806215
:100BC0008093B000C093B400DDCF3FB7F89480911C
:100BD0003F0590914005A0914105B091420526B591
:100BE000A89B05C02F3F19F00196A11DB11D3FBF65
:100BF000BA2FA92F982F8827BC01CD01620F711D34
:100C0000811D911D42E0660F771F881F991F4A952D
:100C1000D1F708958F929F92AF92BF92CF92DF92B9
:100C2000EF92FF924B015C010E94E5056B017C0194
:100C30000E94E5056C197D098E099F09683E734085
:100C400081059105A8F321E0821A9108A108B10855
:100C500088EEC80E83E0D81EE11CF11C81149104BB
:100C6000A104B10429F7FF90EF90DF90CF90BF90DF
:100C7000AF909F908F9008952FB7F89460913B05A7
:100C800070913C0580913D0590913E052FBF0895E0
:100C900060932F0570933005809331059093320552
:100CA000645D7E4F8F4F9F4F60932B0570932C0593
:100CB00080932D0590932E0582E090E090932A0575
:100CC000809329050E943C066093250570932605B4
:100CD000809327059093280508952F923F924F9275
:100CE0005F926F927F928F929F92AF92BF92CF92BC
:100CF000DF92EF92FF920F931F93CF93DF93382EE3
:100D0000962E842E222E84E6E816F1040CF459C0A7
:100D100092EBE91A97E0F90AE09239050093380559
:100D20002092370530923505909234058092330534
:100D3000AE2DB0E020E833E341EE51E00E94322FC7
:100D40002B013C0122EB37E0FF24E4E6F0E0C0E9B0
:100D5000D1E0C901825B97408E159F05B4F19EE4F6
:100D6000E91A98EFF90AC70164E670E00E9437308B
:100D70006C01C70160E971E00E9437305C01CFEB84
:100D8000D2E0E1E0F0E0112783E0E822FF24E01761
:100D9000F1070CF042C0E230F10591F5E114F104E5
:100DA00079F5C114D10419F4A114B10449F580E80E
:100DB000480E8BE3581E86E2681E711C3196219600
:100DC000E6CF8EE1E80EF11CA7CFC9018370992709
:100DD000892B99F4C901BF010E943730892B31F466
:100DE000C901BE010E943730892B39F490E8490EC1
:100DF00091E5591E91E0691E711C2F5F3F4FA9CFED
:100E0000A881B0E020E831E541E050E00E94322FB7
:100E1000460E571E681E791ED1CF292D30E0ACE357
:100E2000B0E00E94742F6B017C01C80CD11CE11C46
:100E3000F11C232D30E0A0E1BEE00E94742FC60E0D
:100E4000D71EE81EF91E822D8150990BDC0120E887
:100E500031E541E050E00E9492306C0D7D1D8E1D09
:100E60009F1D640D751D861D971DDF91CF911F91EC
:100E70000F91FF90EF90DF90CF90BF90AF909F9039
:100E80008F907F906F905F904F903F902F900C9439
:100E90004806CF92DF92EF92FF920F931F930E942A
:100EA0003C068B019C01C0902505D0902605E09062
:100EB0002705F090280560912F05709130058091ED
:100EC0003105909132050C191D092E093F09083E84
:100ED000134021053105E0F0DC01CB010196A11D95
:100EE000B11D80932F0590933005A0933105B093E9
:100EF0003205B701A60148515C4F6F4F7F4F4093B9
:100F00002505509326056093270570932805C7CFC4
:100F10001F910F91FF90EF90DF90CF9008954F9227
:100F20005F926F927F928F929F92AF92BF92CF9279
:100F3000DF92EF92FF920F931F93CF93DF934B01BA
:100F40005C018091210590912205A0912305B0912B
:100F5000240588159905AA05BB0509F4C6C08CE3CC
:100F6000C82ED12CE12CF12CC501A70196010E94BD
:100F70004B3060933305CA01B901A70196010E9465
:100F80004B3060933405C501B40120E13EE040E000
:100F900050E00E944B30CA01B90128E130E040E046
:100FA00050E00E944B3060933505C501B40120E844
:100FB00031E541E050E00E944B3069017A01CA01FD
:100FC000B9016C5F7F4F8F4F9F4F27E030E040E0CB
:100FD00050E00E944B306F5F60933605412C512CDE
:100FE000320140E004E610E0C0E9D1E0242F30E017
:100FF0002E54384FF901E370FF273097F9F4C901F7
:10100000B8010E943730892B31F4C901BE010E941A
:101010003730892B99F48EE691E0A0E0B0E0480EDD
:10102000591E6A1E7B1ED301C201AA27BB27C81600
:10103000D906EA06FB0638F04F5FD8CF8DE691E07F
:10104000A0E0B0E0ECCF40933905C90164E670E060
:101050000E943730EC01C90160E971E00E9437302D
:10106000309721F42097D9F40097C9F04DE651E06C
:1010700060E070E0441A550A660A770AC418D50879
:10108000E608F708AFEBB2E020E0213069F43097D2
:10109000E9F5209711F40097C9F54DE106C04EE639
:1010A00051E060E070E0E6CF4C9150E070E060E02D
:1010B00031E0320FC416D506E606F70640F0C41A32
:1010C000D50AE60AF70A1196232F3C30F1F62F5F76
:1010D00020933805C394C0923705809221059092E1
:1010E0002205A0922305B0922405DF91CF911F9194
:1010F0000F91FF90EF90DF90CF90BF90AF909F90B7
:101100008F907F906F905F904F9008954CE1CDCF7E
:101110000E9449070E948F078091390590E08E5404
:10112000984F08950E9449070E948F0780913805C3
:1011300090E008950E9449070E948F07809137052B
:1011400090E008950E9449070E948F07809133051F
:1011500090E008950E9449070E948F07809134050E
:1011600090E008950E9449070E948F0780913505FD
:1011700090E00895CF92DF92EF92FF92CF93DF93AA
:10118000EC010E943C066B017C018F850E942F03BD
:101190009C0181E02115310509F480E0898B888963
:1011A000811105C091E0232B09F090E0998B2989EA
:1011B0008A89281721F0CD8ADE8AEF8AF88E8D89F8
:1011C0009E89AF89B88DB701A601481B590B6A0BE0
:1011D0007B0BDB01CA01CB80DC80ED80FE80C81672
:1011E000D906EA06FB0664F43A81231749F02A83FC
:1011F000222349F04B895C894F5F5F4F5C8B4B8B9F
:101200003A81311117C0CF80D884E984FA84C81696
:10121000D906EA06FB0634F48B899C899983888376
:101220001C8A1B8A2A8BDF91CF91FF90EF90DF9071
:10123000CF900895CB84DC84ED84FE84C816D90653
:10124000EA06FB067CF78B899C899195819591092B
:10125000E5CF2091FE04260F3327331F21323105BD
:10126000ECF42091B505FC0190E080E0243069F0B9
:1012700082E00895A091FE042191AC0142525B4F9F
:10128000A40FB52FB11D2C930196861798F380916A
:10129000FE04680F6093FE0480E0089581E00895E5
:1012A0001092B50581E08093B40510928F0561E03E
:1012B00082E10E94580361E083E10E945803E9EB58
:1012C000F0E080818E7F808380818D7F808388E4C1
:1012D0008093B80085E48093BC000895CF93DF939A
:1012E00091E09093DD048823B9F0C091B800D091CB
:1012F000BA008091BC008A7B8093BC0060E082E1F0
:101300000E94580360E083E10E9458030E94500944
:10131000D093BA00C093B800DF91CF910895CF92D7
:10132000DF92EF92FF920F931F93CF93DF93D091B1
:10133000DE0581E0D13208F09CC0C091DD050E943D
:10134000E5056B017C018091B50581116CC082E0DF
:101350008093B50581E08093B4058FEF8093B3054A
:101360001092B205D093B105ADEBB5E0E1E9F5E03F
:1013700080E0D8138DC01092900580919005CC0F1D
:10138000C82BC093900580918F05813009F084C0EF
:1013900010928F050E94E5056B017C0180919005FC
:1013A0008093BB008091B7059091B805A091B905D5
:1013B000B091BA05892B8A2B8B2BA1F00E94E505F1
:1013C0000091B7051091B8052091B9053091BA0583
:1013D0006C197D098E099F09061717072807390719
:1013E00008F442C08091BC0083FDD8CF85EC809387
:1013F000BC000E94E5056B017C018091B50582303F
:1014000009F44CC08091B3058F3F09F469C0809105
:10141000B305803209F466C08091B305803309F4C6
:1014200063C084E026C08091B7059091B805A09173
:10143000B905B091BA05892B8A2B8B2B09F483CF80
:101440000E94E5050091B7051091B8052091B905F6
:101450003091BA056C197D098E099F090617170787
:101460002807390708F06FCF8091B6050E946E09F2
:1014700085E01092BC051092DE051092BB05DF914D
:10148000CF911F910F91FF90EF90DF90CF90089533
:101490009D9191938F5F6DCF85EEA9CF8091B70518
:1014A0009091B805A091B905B091BA05892B8A2B06
:1014B0008B2B09F4A2CF0E94E5050091B70510918E
:1014C000B8052091B9053091BA056C197D098E09CE
:1014D0009F09061717072807390708F08ECFC4CFD2
:1014E00080E0C7CF82E0C5CF83E0C3CFCF92DF9249
:1014F000EF92FF920F931F93CF93DF93D82FC62FB6
:10150000613208F098C00E94E5056B017C01809172
:10151000B50581116BC081E08093B5058093B4055A
:101520009FEF9093B3051092B2059C0F9093B10575
:101530008093900580919005DD0FD82BD093900576
:1015400080918F05813009F078C010928F050E943C
:10155000E5056B017C01809190058093BB00809133
:10156000B7059091B805A091B905B091BA05892B3E
:101570008A2B8B2BA1F00E94E5050091B7051091F5
:10158000B8052091B9053091BA056C197D098E090D
:101590009F09061717072807390708F448C08091E4
:1015A000BC0083FDD8CF85EC8093BC000E94E5058C
:1015B0006B017C018091B505813009F440C08091B8
:1015C000B2058C1710F4C091B205E1E9F5E0AFE681
:1015D000B5E080E08C1355C08C2FDF91CF911F9127
:1015E0000F91FF90EF90DF90CF9008958091B70515
:1015F0009091B805A091B905B091BA05892B8A2BB5
:101600008B2B09F484CF0E94E5050091B70510915A
:10161000B8052091B9053091BA056C197D098E097C
:101620009F09061717072807390708F070CF809120
:10163000B6050E946E09C0E0CFCF85EEB5CF809190
:10164000B7059091B805A091B905B091BA05892B5D
:101650008A2B8B2B09F4AECF0E94E5050091B705CC
:101660001091B8052091B9053091BA056C197D0922
:101670008E099F09061717072807390708F09ACF20
:10168000D6CF91919D938F5FA5CF0895E0914805A6
:1016900080914705E81730F4F0E0E159FA4F808176
:1016A00090E008958FEF9FEF089590914805809105
:1016B00047052FEF3FEF981748F4E92FF0E0E15985
:1016C000FA4F208130E09F5F90934805C90108954B
:1016D0008091470590914805891B990B0895CF92F9
:1016E000DF92EF92FF920F931F93CF93DF937C01D2
:1016F000CB018A012091BB05222389F0EB016B010C
:10170000C40ED51ECC15DD0569F06991D701ED91A8
:10171000FC910190F081E02DC7010995F3CF642F72
:101720000E942909C801DF91CF911F910F91FF906D
:10173000EF90DF90CF900895CF93DF931F92CDB7B6
:10174000DEB769832091BB052223F9F02091DE05E5
:10175000203258F021E030E0FC013383228390E016
:1017600080E00F90DF91CF9108958091BC05E82F24
:10177000F0E0E354FA4F998190838F5F8093BC052A
:101780008093DE0581E090E0ECCF61E0CE01019630
:101790000E942909F7CF90E080E00895CF92DF9270
:1017A000EF92FF920F931F93CF93DF939091DC04FE
:1017B00091110BC08FEF9FEFDF91CF911F910F9190
:1017C000FF90EF90DF90CF9008959091DB049923E4
:1017D00089F3082FC091DA04D0E08091D2048111FE
:1017E0000DC00E943C066093CE047093CF0480939A
:1017F000D0049093D10481E08093D2040E943C06EF
:10180000C090CE04D090CF04E090D004F090D104EA
:101810006C197D098E099F096D3271408105910512
:10182000B0F01091CD040E943C066093CE047093FA
:10183000CF048093D0049093D10491E091279093AA
:10184000CD04992331F11092CC041092CB04209155
:10185000CB043091CC04209530958091CA04282384
:1018600026FF1CC081E08093C90427FF1AC081E0D5
:101870008093C8048091CD04882309F49BCF02C0D3
:10188000D595C7950A95E2F7C0FF94CF80E09CE319
:1018900093CFD093CC04C093CB04D9CF1092C9047A
:1018A000E4CF1092C804E6CFEF92FF920F931F93FC
:1018B000CF93DF93E82E0E94A2018CEC0E94780166
:1018C00084E40E9478010E94A2018CEC0E947801BD
:1018D0008EEB0E94780108E010E0D0E0C1E00E94A9
:1018E00023018111DC2BCC0F01501109C1F708E055
:1018F00010E0C0E0FF24F3940E9423018111CF295E
:10190000FF0C01501109C1F77C2F6D2F6F3F760737
:1019100011F470E060E0072E000C880B990B0E9418
:10192000FF2D20E030E040E85DE30E945E2EE110F4
:101930000DC020E030E040E251E40E945E2EDF91D5
:10194000CF911F910F91FF90EF90089526E636E614
:1019500046EE5FE30E945E2E20E030E040E052E47D
:101960000E94842FE6CFCF93DF93EC012196FC01F8
:1019700020812A33C9F42181243609F5229630E0EA
:1019800020E06AE0899190ED980F9A3078F4629F98
:10199000A001639F500D1124082E000C990BC097D5
:1019A0009A01280F391FEECFCE01DFCF30938F047D
:1019B00020938E042115310511F020933301888185
:1019C0008F3689F48A81082E000C990B9C012053D4
:1019D000310930938F0420938E04C397059710F438
:1019E00020933201249688818236F1F4229630E0E9
:1019F00020E06AE0899190ED980F9A3068F4629F38
:101A0000A001639F500D1124082E000C990BC09764
:101A10009A01280F391FEECF30938F0420938E0444
:101A20003093310120933001209130013091310108
:101A3000032E000C440B550B60E67AEE80E090E03C
:101A40000E946D3082E0220F331F441F551F8A957C
:101A5000D1F720938A0430938B0440938C045093E5
:101A60008D04CE01DF91CF9108958EBD00000DB49D
:101A700007FEFDCF8EB50895CF9381E08093BB051F
:101A800088E68093DD051092BC051092DE0560E0CB
:101A90008AE896E00E949C0B0E948F0967E088E626
:101AA0000E94760A10924805809347058AE896E0DE
:101AB0000E94550B982F92959F70CAE08F709C9F43
:101AC000800D112490E090936C0580936B058AE85B
:101AD00096E00E94550B982F92959F708F709C9F57
:101AE000800D112490E090936305809362058AE84D
:101AF00096E00E94550B982F929593708F709C9F43
:101B0000800D112490E090936105809360058AE830
:101B100096E00E94550B8AE896E00E94550B982F9C
:101B200092959F708F709C9F800D112490E09093F0
:101B30006505809364058AE896E00E94550B982F0E
:101B400092959F708F709C9F800D112490E09093D0
:101B50006705809366058AE896E00E94550B982FEA
:101B600092959F708F709C9F800D112490E09093B0
:101B7000690580936805CF910895FC0101900020CC
:101B8000E9F73197AF01481B590BBC018DEE95E089
:101B90000C94DE01CF93DF930E94CB02EC0187E12E
:101BA00093E00E94BD0D8C0F9D1FDF91CF91089592
:101BB0000F931F9380915F0190916001892B09F42D
:101BC0004DC080919B048823A9F00E943C0600919F
:101BD0009704109198042091990430919A04601B05
:101BE000710B820B930B693E734081059105B0F137
:101BF00010929B040E94B2082091590130915A0121
:101C00008217930759F50E94AA0820915B01309131
:101C10005C018217930711F50E94A20820915D01D3
:101C200030915E0182179307C9F40E943C066093CD
:101C30009704709398048093990490939A0481E098
:101C400080939B048BED90E00E94CA0D80913C0133
:101C500090913D0190935F0580935E051F910F91D8
:101C600008958F929F92AF92BF92CF92DF92EF92A0
:101C7000FF920F931F93CF93DF93CDB7DEB7A1975A
:101C80000FB6F894DEBF0FBECDBF6C01990FEE0802
:101C9000FF08F7FE47C06DE28DEE95E00E947E02E0
:101CA0008C0122273327A9012C193D094E095F0910
:101CB00019A2CE0181967C019AE0892E912CA12C4B
:101CC000B12CCA01B901A50194010E944B30605D9D
:101CD000F70162937F01211531054105510589F70F
:101CE00090E080E0309719F0CF010E94BD0D080F01
:101CF000191F87E193E00E94BD0D800F911FA196EF
:101D00000FB6F894DEBF0FBECDBFDF91CF911F910C
:101D10000F91FF90EF90DF90CF90BF90AF909F908A
:101D20008F900895A701960119A28E010F5D1F4F94
:101D30008AE0C82ED12CE12CF12CCA01B901A701EF
:101D400096010E944B30605DF80162938F0121156E
:101D500031054105510589F7309729F0CF010E94DF
:101D6000BD0D8C01C6CF10E000E0C3CFCF93DF9351
:101D700081E08093BB0588E68093DD051092BC0569
:101D80001092DE0561E18AE896E00E949C0B0E94B9
:101D90008F0962E088E60E94760A109248058093D7
:101DA00047058AE896E00E94550BC82F88EF90E01F
:101DB0000E94CB028C2F0C2E000C990B0E94310E2E
:101DC000C550C833B0F089EE90E00E94CA0DC5E05E
:101DD000D0E048EE53E060E070E088EE93E00E94CF
:101DE000C20360ED77E080E090E00E940A06219750
:101DF00081F7DF91CF910895CF93DF93FC01448168
:101E00005581608171818DEE95E00E94DE01EC01CB
:101E100087E193E00E94BD0D8C0F9D1FDF91CF9154
:101E20000895FC0180819181009711F00C94872D19
:101E300060E070E0CB0108952F923F924F925F9245
:101E40006F927F928F929F92AF92BF92CF92DF92CA
:101E5000EF92FF92CF93DF93CDB7DEB764970FB6C3
:101E6000F894DEBF0FBECDBF0E94E505C090C4044C
:101E7000D090C504E090C604F090C7046C197D09A9
:101E80008E099F096E34734C8105910508F4F0C1E9
:101E90000E94E5056093C4047093C5048093C60452
:101EA0009093C70481EE96E00E94110F69837A83B4
:101EB0008B839C8360E08AE00E9458032AE0222EF4
:101EC000312C412C512C69817A818B819C81A2011A
:101ED00091010E946D3049015A01660F771F6555C7
:101EE0007D4FDB01ED90FC9085E090E00E94CE0BF1
:101EF0006C01C501B401A20191010E946D30660F11
:101F0000771F65557D4FFB01A080B18084E090E094
:101F10000E94CE0B3C0169817A818B819C8124E6F1
:101F200030E040E050E00E946D30CA01B901A201EA
:101F300091010E946D30660F771F65557D4FDB0163
:101F40008D909C9083E090E00E94CE0BCE20DF200D
:101F5000F12CE12C64E1CC0CDD1CEE1CFF1C6A951D
:101F6000D1F788219921B0E0A0E0C82AD92AEA2A2D
:101F7000FB2AA620B720C501B0E0A0E07AE0880FD8
:101F8000991FAA1FBB1F7A95D1F7C82AD92AEA2A16
:101F9000FB2A69817A818B819C8128EE33E040E0C5
:101FA00050E00E946D30298B3A8B4B8B5C8B2091DB
:101FB00034013091350140913601509137012D8324
:101FC0003E834F8358878091C904882309F406C152
:101FD000DA01C9018C299D29AE29BF294090380119
:101FE0005090390160903A0170903B012091C804F3
:101FF000222309F400C16C017D01C428D528E628FC
:10200000F728309054058F2D9927AA27BB27898759
:102010009A87AB87BC874701AA24BB2455274F2D3D
:102020003E2D2D2D2D873E874F87588B332009F469
:10203000EFC08C2D0E94350D8D850E94350D882DA9
:102040000E94350D89850E94350D3AE0832E912C32
:10205000A12CB12C69897A898B899C89A50194016D
:102060000E946D30660F771F65557D4FDB010D9027
:10207000BC91A02DBA87A98782E090E00E94CE0B88
:102080006C0169817A818B819C8120E137E240E09B
:1020900050E00E946D30CA01B901A50194010E946F
:1020A0006D30660F771F65557D4FFB01E080F18035
:1020B00081E090E00E94CE0B29853A85C222D3228E
:1020C000A60170E060E0E4E1440F551F661F771F32
:1020D000EA95D1F78E219F21B0E0A0E06C017D014F
:1020E000FAE0CC0CDD1CEE1CFF1CFA95D1F7C42ADB
:1020F000D52AE62AF72A69817A818B819C8120EA98
:1021000036E841E050E00E946D30CA01B901A501F6
:1021100094010E946D30660F771F65557D4FDB017E
:10212000AD90BC9090E080E00E94CE0B8A219B2174
:10213000B0E0A0E08C299D29AE29BF292091C904D7
:10214000222309F470C02D813E814F815885822B56
:10215000932BA42BB52B2091C804222309F470C023
:102160006C017D01C428D528E628F7284F2C55247A
:10217000662477244701AA24BB24BB27AF2D9E2DBC
:102180008D2D89839A83AB83BC83332009F465C08A
:102190008C2D0E94350D89810E94350D882D0E945D
:1021A000350D842D0E94350D61E08AE064960FB6EE
:1021B000F894DEBF0FBECDBFDF91CF91FF90EF90BF
:1021C000DF90CF90BF90AF909F908F907F906F9057
:1021D0005F904F903F902F900C9458038D819E817B
:1021E000AF81B88580959095A095B0958C219D2163
:1021F000AE21BF21F3CEB301A20140955095609569
:1022000070956A017B01C822D922EA22FB22F9CE0D
:1022100089850E94350D882D0E94350D8D850E947F
:10222000350D8C2D10CF4D815E816F817885409565
:1022300050956095709584239523A623B7238BCF63
:10224000B301A20140955095609570956A017B019C
:10225000C822D922EA22FB2289CF842D0E94350D83
:10226000882D0E94350D89810E94350D8C2D9ACFC5
:1022700064960FB6F894DEBF0FBECDBFDF91CF914D
:10228000FF90EF90DF90CF90BF90AF909F908F9096
:102290007F906F905F904F903F902F9008950F9395
:1022A0001F93CF93DF938C01EB01FC01808191811F
:1022B0000097E1F06881798161157105A9F042818B
:1022C00053812C813D814217530770F00E9499324F
:1022D0008C819D81F801958384831D821C82DF910E
:1022E000CF911F910F9108950E944A318881998161
:1022F000F801918380838A819B81938382838C817F
:102300009D8195838483198218821B821A82E5CF6E
:10231000CF93DF93EC0188819981009711F00E949F
:102320004A31198218821D821C821B821A82DF9117
:10233000CF910895FC0180819181009711F00C9458
:102340004A3108950F931F93CF93DF93EC01888157
:102350009981009759F02A813B812617370730F081
:1023600081E0DF91CF911F910F9108958B016F5FF5
:102370007F4F0E94D331009759F0998388831B8344
:102380000A832C813D81232B59F7FC011082E8CF71
:1023900080E0E7CFEF92FF920F931F93CF93DF93ED
:1023A0006115710541F480E0DF91CF911F910F918C
:1023B000FF90EF90089541155105B1F07B01EC01BC
:1023C0000C811D81040F151FB8010E94A2118823E2
:1023D00051F3288139818C819D81B701820F931F30
:1023E0000E9499321D830C8381E0DECFCF93DF936F
:1023F000EC01FB0101900020E9F73197AF01461B8A
:10240000570B0E94CA11811103C0CE010E9488118E
:10241000CE01DF91CF910895CF93DF93EC01FB01C3
:1024200044815581608171810E94CA11811103C06C
:10243000CE010E948811CE01DF91CF910895EF92D5
:10244000FF920F931F93CF93DF93EC017B018A01DF
:10245000BA010E94A21181110BC0CE010E94881105
:10246000CE01DF91CF911F910F91FF90EF900895D2
:102470001D830C83B701888199810E949932F0CF26
:10248000FB0101900020E9F73197AF01461B570B84
:102490000C941F120F931F93CF93DF93CDB7DEB72A
:1024A00062970FB6F894DEBF0FBECDBF8C01CB0193
:1024B000F8011182108213821282158214824AE07E
:1024C000BE016F5F7F4F0E94AE2DBE016F5F7F4FD9
:1024D000C8010E94401262960FB6F894DEBF0FBE8C
:1024E000CDBFDF91CF911F910F910895CF93DF93CF
:1024F000EC01FB018617970749F060817181611536
:10250000710541F0448155810E941F12CE01DF9177
:10251000CF9108950E948811F9CFFC011182108299
:1025200013821282158214820C947612FC0111829D
:1025300010821382128215821482FB010190002006
:10254000E9F73197AF01461B570B0C941F12AF925E
:10255000BF92CF92DF92EF92FF920F931F93CF9390
:10256000DF936C015B017A0189012417350720F4A0
:102570008F2D7901042F182F69E173E0C6010E94A5
:102580009612D5011496CD91DC91EC16FD06E0F47F
:102590000C171D0708F4E801D501ED91FC91119786
:1025A000EC0FFD1F108110826D917C916E0D7F1DCF
:1025B000C60161157105A1F00E944012F5018081EC
:1025C0009181C80FD91F1883C601DF91CF911F9148
:1025D0000F91FF90EF90DF90CF90BF90AF90089554
:1025E0000E948811EBCF4F925F926F927F928F92F1
:1025F0009F92AF92BF92CF92DF92EF92FF920F9392
:102600001F93CF93DF9300D000D000D0CDB7DEB7BB
:102610007C014B015A018091A90481113AC081E0EB
:102620008093A90493EA692E94E0792E2DE9422E35
:1026300024E0522E10E000E00F5F1F4F680181E0A0
:10264000C81AD1089801A601B401CE0101960E94D2
:10265000A712CE0101960E94110FD3016D933D0187
:10266000CE0101960E949A119801A601B501CE01F2
:1026700001960E94A712CE0101960E94110FF2014D
:1026800061932F01CE0101960E949A110630110527
:1026900099F690919C0483EAC82E84E0D82EEDE947
:1026A000F4E08601A801D8018C919A3008F04DC061
:1026B0008F5F8C930F5F1F4FDA018C918A3019F472
:1026C000D80111971C923196B4E0093A1B0751F7D3
:1026D0009F5F943109F43FC090939C0469E173E0DB
:1026E000C7010E949612FE0131965F01D6018D91BD
:1026F0006D014AE0B50190E00E94AE2DF501019018
:102700000020E9F73197AF014A195B09B501C7010C
:102710000E94CA110C151D0549F7C70126960FB670
:10272000F894DEBF0FBECDBFDF91CF911F910F9107
:10273000FF90EF90DF90CF90BF90AF909F908F90E1
:102740007F906F905F904F9008952081281709F433
:10275000B1CF8F5FAECF10929C041092A904BECF70
:10276000CF92DF92EF92FF921F93CF93DF93CDB77B
:10277000DEB72C970FB6F894DEBF0FBECDBF182F73
:1027800063E773E0CE0107960E94961222E030E0E4
:1027900050E040E0133071F024E030E042E050E0DF
:1027A0001C3041F01033B9F42091E5063091E60673
:1027B00044E050E061EE76E0CE0101960E94A7125F
:1027C000BE016F5F7F4FCE0107960E944F11CE0171
:1027D00001960E949A11CE0107960E94110F6B017B
:1027E000CE0107960E949A11C6012C960FB6F89456
:1027F000DEBF0FBECDBFDF91CF911F91FF90EF9055
:10280000DF90CF9008950F931F93CF93DF93CDB7B1
:10281000DEB762970FB6F894DEBF0FBECDBF8C0156
:1028200077FF03C07195619571096A307105A4F550
:10283000CE010D960E944A1266E273E0CE01019627
:102840000E949612BE016F5F7F4FCE0107960E94D5
:102850008D12BE01635F7F4FCE0107960E940C125E
:10286000BC01C8010E948D12CE0107960E949A11E8
:10287000CE0101960E949A11CE010D960E949A11E6
:10288000C80162960FB6F894DEBF0FBECDBFDF91D0
:10289000CF911F910F910895C8010E944A12F0CF65
:1028A0000F931F93CF93DF93CDB7DEB768970FB623
:1028B000F894DEBF0FBECDBF8B01833079F5209138
:1028C000E5063091E60642E050E061EE76E0CE01AA
:1028D0000D960E94A712B801CE0101960E94031422
:1028E000BE016F5F7F4FCE0107960E948D12BE0121
:1028F000635F7F4FCE0107960E940C12BC0181EEF0
:1029000096E00E947612CE0107960E949A11CE019F
:1029100001960E949A11CE010D9644C08C3009F0A8
:102920004EC02091E5063091E60644E050E061EEAD
:1029300076E0CE0143960E94A712B801CE010D9613
:102940000E94031422E030E050E040E061EE76E0C7
:10295000CE0101960E94A712BE016F5F7F4FCE018C
:1029600007960E948D12BE01635F7F4FCE010796CE
:102970000E940C12BE016D5E7F4F0E940C12BC01C2
:1029800081EE96E00E947612CE0107960E949A117F
:10299000CE0101960E949A11CE010D960E949A11C5
:1029A000CE0143960E949A1168960FB6F894DEBF46
:1029B0000FBECDBFDF91CF911F910F91089580334E
:1029C00099F7CE010D960E94031424E030E050E008
:1029D00040E061EE76E0CE0101960E94A71280CF22
:1029E0000E943C0660939304709394048093950432
:1029F0009093960480919204882309F460C02091FA
:102A0000900430919104C901880F991F213131053B
:102A1000A9F1FC01E15CFE4F408151814150510917
:102A200051834083DC01A15CBE4F6D917C91119775
:102A3000FC01E553FD4F40815181641775073CF45B
:102A4000FC01ED57FD4F408151814D935C93203146
:102A5000310511F520915F01309160012130310580
:102A6000C1F420E82093CA04815C9E4FFC01608180
:102A700071818091DA040E94501411C0409161016B
:102A8000509162014C505109509362014093610191
:102A9000C9CF1092CA04E8CF2930310529F78AE15D
:102AA00093E00E94BD0DE0919004F0919104EE0F2F
:102AB000FF1FE15CFE4F808191810C94310E0895DF
:102AC0000E943C0660939304709394048093950451
:102AD0009093960480919204882309F455C0209124
:102AE000900430919104C901880F991F213131055B
:102AF00069F1FC01E15CFE4F408151814F5F5F4F06
:102B000051834083DC01A15CBE4F6D917C91119794
:102B1000FC01ED57FD4F40815181461757073CF4AA
:102B2000FC01E553FD4F408151814D935C93203171
:102B30003105B9F41092CA04815C9E4FFC0160819A
:102B400071818091DA040E9450140EC0409161019D
:102B500050916201445F5F4F509362014093610165
:102B6000D1CF2930310541F78AE193E00E94BD0DB4
:102B7000E0919004F0919104EE0FFF1FE15CFE4F95
:102B8000808191810C94310E08950F931F93CF9300
:102B9000DF93CDB7DEB768970FB6F894DEBF0FBEF0
:102BA000CDBF8C018091610190916201489709F03D
:102BB00048C00E94A208BC01CE0143960E940314A3
:102BC0000E94AA08BC01CE010D960E9403140E9427
:102BD000B208BC01CE0101960E940314BE016F5FD2
:102BE0007F4FCE0107960E948D12BE01635F7F4F1B
:102BF000CE0107960E940C12BE016D5E7F4F0E94AF
:102C00000C12BC01C8010E948D12CE0107960E94D1
:102C10009A11CE0101960E949A11CE010D960E9442
:102C20009A11CE0143960E949A11C80168960FB678
:102C3000F894DEBF0FBECDBFDF91CF911F910F91F2
:102C400008950E94A208BC01CE0143960E9403147D
:102C50000E94AA08BC01CE010D960E9403140E9496
:102C600049070E948F07809135056CE070E088234A
:102C700009F4B0CF682F70E08D3008F4ABCF6C5002
:102C80007109A8CF8F929F92AF92BF92CF92DF929D
:102C9000EF92FF920F931F93CF93DF93CDB7DEB7E1
:102CA0002C970FB6F894DEBF0FBECDBF8C016A0122
:102CB0007B018091BC04811111C00E943C06645BC1
:102CC0007B4F8F4F9F4F6093B8047093B9048093EC
:102CD000BA049093BB0481E08093BC048091B0045B
:102CE000811109C061E273E08AEA94E00E949612C1
:102CF00081E08093B0040E943C068090B8049090DC
:102D0000B904A090BA04B090BB04681979098A0983
:102D10009B09693E73408105910508F4D0C00E946B
:102D20003C066093B8047093B9048093BA049093FE
:102D3000BB0420E030E0A901C701B6010E942630A3
:102D400020E030E040E05FE387FDD2C0C701B6017C
:102D50000E94842F0E94F02F7B0177FF04C0EE2495
:102D6000FF24E61AF70A5B0139E1A31A3CEFB30A24
:102D700080916301909164019B012D593F4F69013E
:102D80002A5531094901B701892B09F0B6C0CE0196
:102D900007960E944A1266E273E0CE0101960E94F5
:102DA0009612BE01695F7F4FCE0101960E940C1200
:102DB00066E273E00E94F611BC018AEA94E00E9488
:102DC0007612CE0101960E949A11CE0107960E94BA
:102DD0009A113FECA31637E0B30618F5B701CE0100
:102DE00007960E944A1265E273E0CE0101960E94A6
:102DF0009612BE01695F7F4FCE0101960E940C12B0
:102E000066E273E00E94F611BC018AEA94E00E9437
:102E10007612CE0101960E949A11CE0107960E9469
:102E20009A1187ECC816D10418F5B701CE010796A0
:102E30000E944A1264E273E0CE0101960E9496124B
:102E4000BE01695F7F4FCE0101960E940C1266E2BF
:102E500073E00E94F611BC018AEA94E00E947612A7
:102E6000CE0101960E949A11CE0107960E949A11F6
:102E700023E18216910418F5B701CE0107960E944E
:102E80004A1263E273E0CE0101960E949612BE01DF
:102E9000695F7F4FCE0101960E940C1266E273E0DB
:102EA0000E94F611BC018AEA94E00E947612CE01DB
:102EB00001960E949A11CE0107960E949A116AEA21
:102EC00074E0C8010E948D12C8012C960FB6F894C8
:102ED000DEBF0FBECDBFDF91CF911F910F91FF904D
:102EE000EF90DF90CF90BF90AF909F908F9008951C
:102EF000C701B6010E94832F2DCFCE0107960E94F5
:102F00004A1266E273E0CE0101960E949612BE015B
:102F1000695F7F4FCE0101960E940C1266E273E05A
:102F20000E94F611BC018AEA94E00E947612CE015A
:102F300001960E949A11CE0107960E949A113FECC9
:102F4000A31637E0B30638F5C7016AE070E00E94C7
:102F50003730CE0107960E944A1265E273E0CE0137
:102F600001960E949612BE01695F7F4FCE010196C5
:102F70000E940C1265E273E00E94F611BC018AEA1D
:102F800094E00E947612CE0101960E949A11CE0121
:102F900007960E949A1187ECC816D10438F5C7012C
:102FA0006AE070E00E943730CE0107960E944A1214
:102FB00064E273E0CE0101960E949612BE01695F41
:102FC0007F4FCE0101960E940C1265E273E00E94D1
:102FD000F611BC018AEA94E00E947612CE010196B5
:102FE0000E949A11CE0107960E949A1123E182163F
:102FF000910408F064CFC7016AE070E00E943730A6
:10300000CE0107960E944A1263E273E0CE01019658
:103010000E949612BE01695F7F4FCE0101960E9409
:103020000C1265E273E03CCF85ED8093BC0080918B
:10303000B7059091B805A091B905B091BA0507966A
:10304000A11DB11D23E0B695A795979587952A9563
:10305000D1F72091BC0024FD03C01092B50508955E
:103060004091B7055091B8056091B9057091BA05C6
:10307000452B462B472B69F30097A105B10541F07D
:1030800025E32A95F1F700000197A109B109E1CFE5
:103090008091B6050C946E090C94242F0C941C2F6F
:1030A00088E090E00E944E18682F70E089E00E944E
:1030B000880589E090E00E944E18682F70E086E055
:1030C0000E9488058AE090E00E944E18682F70E008
:1030D00083E00C9488058F929F92AF92BF92CF921B
:1030E000DF92EF92FF920F931F93CF93DF93CDB7B1
:1030F000DEB7EC970FB6F894DEBF0FBECDBF0E94CF
:103100003C0620E137E240E050E00E944B30672B64
:10311000682B692B01F580916A058823E1F00E94F4
:103120003C0DE0906805F0906905009166051091EE
:103130006705209164053091650540916B055091BC
:103140006C056091620570916305809160059091B6
:1031500061050E946D0610928904109288041092F5
:1031600087041092860410928504109284040091C2
:103170005E0510915F05F8018081882309F409C17B
:103180000E943C06C0902A04D0902B04E0902C04AE
:10319000F0902D046C197D098E099F09C0902604BA
:1031A000D0902704E0902804F0902904C616D70692
:1031B000E806F90608F0EDC00E943C064B015C01F0
:1031C00080922A0490922B04A0922C04B0922D0499
:1031D000680130E020E04AE0F801F1908F0180EDD5
:1031E0008F0D8A3070F4429FC001439F900D1124CF
:1031F0002F2DFF0C330B20533109280F391F6F017E
:10320000EBCF30938F0420938E0460918A047091E9
:103210008B0480918C0490918D042115310501F16E
:10322000032E000C440B550B0E946D302093260496
:10323000309327044093280450932904EFE9EF0DBD
:10324000E730A0F40E2E000CFF0BE75DF64E0C9459
:103250008C30D91CDB1CCD1CD11CD31CD51CD71C1D
:103260002091330130E050E040E0DECF10922504A1
:10327000F6018181833241F4809125048F5F809330
:10328000250486010E5F1F4FF80180818E32F1F414
:10329000C0902604D0902704E0902804F0902904E0
:1032A000C701B60122E030E040E050E00E946D30FE
:1032B000C20ED31EE41EF51EC0922604D09227042F
:1032C000E0922804F09229040F5F1F4FF8018081DB
:1032D00080538A3008F071C3809324040F5F1F4F1E
:1032E000F80180818C3211F40F5F1F4FE0912504AB
:1032F000EE2309F44EC0C0902604D0902704E0903D
:103300002804F0902904809124048450990B4CE007
:10331000489F9001499F300D1124E20FF32FF11DBA
:10332000EE0FFF1FEB57FE4FB701A6018081918181
:103330000E94C2030E943C06681979098A099B0908
:10334000C616D706E806F90620F50E943C066093EB
:103350002A0470932B0480932C0490932D04809165
:10336000EC05813009F42EC3823009F431C3811198
:1033700005C080916E008D7F80936E0060E080912B
:10338000EB050E94580388E690E00E94CA0D10E009
:1033900000E010935F0500935E050E943C060091DB
:1033A0008004109181042091820430918304601B79
:1033B000710B820B930B663071058105910560F1ED
:1033C0008091EC05813009F409C3823009F409C306
:1033D000811105C080916E008695817099F480916D
:1033E0003E01811101C370E060E089E00E94880520
:1033F00070E060E086E00E94880570E060E083E0B5
:103400000E9488050E943C066093800470938104AA
:10341000809382049093830480919004909191040E
:10342000892B21F080917F048111DBC1809192046E
:103430008111D7C18091440481110DC00E943C06C6
:10344000609340047093410480934204909343043A
:1034500081E0809344048091380481110DC00E9462
:103460003C06609334047093350480933604909343
:10347000370481E0809338040E943C0600914004A8
:10348000109141042091420430914304601B710B60
:10349000820B930B00910001109101012091020118
:1034A00030910301061717072807390708F04DC0A8
:1034B0000E943C0660934004709341048093420450
:1034C000909343048091320490913304009709F063
:1034D000F7C281E090E0909391048093900488E893
:1034E00093E1A0E0B0E08093000190930101A093EC
:1034F0000201B09303018091320490913304823031
:10350000910581F4109291041092900440E65AEED5
:1035100060E070E04093000150930101609302016C
:10352000709303010196833091050CF0E9C29093EA
:1035300033048093320480917F04882321F0109219
:1035400091041092900410927F040E943C06009116
:103550004004109141042091420430914304601BC7
:10356000710B820B930B603D77408105910508F04C
:1035700099C30E943C0600913404109135042091B7
:10358000360430913704601B710B820B930B653648
:1035900071058105910508F424C10E943C066093E1
:1035A00034047093350480933604909337048091EB
:1035B00090049091910420915505222309F4A5C20D
:1035C000892B89F5CE0149960E94C51581E020918D
:1035D000630130916401232B09F480E00E94540CB4
:1035E000AB01BC01CE0101960E944216AE01475EBE
:1035F0005F4FBE016F5F7F4FCE014F960E94F31267
:10360000BE01615E7F4F81EE96E00E944F11CE01B8
:103610004F960E949A11CE0101960E949A11CE01F6
:1036200049960E949A11809190049091910401977B
:1036300009F062C00E94880868EE73E00E9437308B
:10364000BC01CE018B960E9403140E949208BC011B
:10365000CE0185960E9403140E949A08BC01CE01F7
:1036600049960E940314BE01675E7F4FCE014F96BC
:103670000E948D12BE016B5D7F4FCE014F960E945E
:103680000C12BE01655D7F4F0E940C12BC01CE0181
:10369000C1960E948D12CE0101960E94C515AE0101
:1036A0004F5C5F4FBE016F5F7F4FCE01C7960E9498
:1036B000F312BE01695C7F4F81EE96E00E944F11CC
:1036C000CE01C7960E949A11CE0101960E949A11CE
:1036D000CE01C1960E949A11CE014F960E949A1176
:1036E000CE0149960E949A11CE0185960E949A11A8
:1036F000CE018B960E949A11809190049091910432
:10370000049709F06EC081E020916301309164015B
:10371000232B09F480E00E94540CAB01BC01CE01C4
:10372000C1960E9442160E94880868EE73E00E94CB
:103730003730BC01CE0185960E9403140E94920886
:10374000BC01CE014F960E9403140E949A08BC014E
:10375000CE0101960E940314BE016F5F7F4FCE0120
:1037600049960E948D12BE01615E7F4FCE0149963F
:103770000E940C12BE016B5D7F4F0E940C12BC01B7
:10378000CE018B960E948D12AE014F5C5F4FBE0141
:10379000655D7F4FCE01C7960E94F312BE01695C42
:1037A0007F4F81EE96E00E944F11CE01C7960E9496
:1037B0009A11CE018B960E949A11CE0149960E94D1
:1037C0009A11CE0101960E949A11CE014F960E9445
:1037D0009A11CE0185960E949A11CE01C1960E943F
:1037E0009A110E941C0F88EC96E00E94BA088FEA9A
:1037F00096E00E94BA0886E996E00E94BA08809195
:103800009204811152C21092DA048091C8069091FC
:10381000C906181619063CF0809188049091890415
:10382000019709F0B6C381E080937F0410925F0591
:1038300010925E0544E650E060E070E088EE93E0B0
:103840000E94C2030E943C06609393047093940408
:1038500080939504909396048091900490919104A4
:1038600001968530910509F44DC29093910480939F
:1038700090048091900490919104069721F4109205
:103880009104109290048DEC90E00E94CB02809104
:103890009004909191040E94310E86EC90E00E9479
:1038A000CB02E0919004F0919104EE0FFF1FE15CD8
:1038B000FE4F808191810E94310E80919004909101
:1038C0009104FC01EE0FFF1FE85FFE4F2081209363
:1038D000DA040197FC01EE0FFF1FED5CFD4F408104
:1038E00051814115510509F42AC39A01215031092A
:1038F000F901EE0FFF1FE55FFD4F608171818617B3
:10390000970709F01CC34230510509F0FEC188E158
:10391000EDE6F1E0DE01119601900D928A95E1F756
:10392000809157019091580183709927892B21F438
:103930008DE190E09C838B8380915501909156019D
:103940000197880F991F41E050E04C0F5D1F840FD5
:10395000951F4091530150915401FC018081918148
:10396000841795070CF0D1C18AE090E09093910400
:1039700080939004EC960FB6F894DEBF0FBECDBFD7
:10398000DF91CF911F910F91FF90EF90DF90CF903B
:10399000BF90AF909F908F90089581E08093250411
:1039A00067CC83E0FBCF85E0F9CF86E0F7CF88E0F6
:1039B000F5CF8AE0F3CF8CE0F1CF80913201809394
:1039C00024048ECC80916F008D7F80936F00D6CCC5
:1039D000809170008D7F80937000D0CC80916F00BB
:1039E000FBCC80917000F8CC80916E0581110ACDDE
:1039F0000091300410913104F801EE0FFF1FE00F29
:103A0000F11FDF01AA0FBB1FA951BE4F8D919C91E1
:103A10006091060170910701680F791F709307018B
:103A200060930601DF01AA0FBB1FA751BE4FCD90C7
:103A3000DC908091750490917604C80ED91ED092C6
:103A40007604C0927504EE0FFF1FE551FE4FE08033
:103A5000F1808091730490917404E80EF91EF09245
:103A60007404E092730489E00E948805B60186E040
:103A70000E948805B70183E00E94880580912E048A
:103A800090912F04019690932F0480932E048F3FE2
:103A9000910551F40F5F1F4F1093310400933004D0
:103AA00010922F0410922E048091300490913104D2
:103AB00006970CF4A7CC1092310410923004A2CCDB
:103AC000019709F018CD84E090E0909391048093E1
:103AD000900488E893E1A0E0B0E080930001909327
:103AE0000101A0930201B09303018091550581115A
:103AF00088C782E090E09093330480933204FBCC3B
:103B0000109233041092320416CD892B09F062C052
:103B1000CE01C1960E94C5150E94880868EE73E028
:103B20000E943730BC01CE0185960E9403140E948A
:103B30009208BC01CE014F960E9403140E949A087D
:103B4000BC01CE0101960E940314BE016F5F7F4F3E
:103B5000CE0149960E948D12BE01615E7F4FCE015B
:103B600049960E940C12BE016B5D7F4F0E940C12A1
:103B7000BC01CE018B960E948D12AE014F5C5F4F4F
:103B8000BE01655D7F4FCE01C7960E94F312BE0154
:103B9000695C7F4F81EE96E00E944F11CE01C7967F
:103BA0000E949A11CE018B960E949A11CE014996DD
:103BB0000E949A11CE0101960E949A11CE014F9651
:103BC0000E949A11CE0185960E949A11CE01C1964B
:103BD0000E949A118091900490919104019709F0AC
:103BE00000CE0E94880868EE73E00E943730BC0166
:103BF000CE018B960E9403140E949208BC01CE0154
:103C000085960E9403140E949A08BC01CE01499631
:103C10000E940314BE01675E7F4FCE014F960E9443
:103C20008D12BE016B5D7F4FCE014F960E940C122C
:103C3000BE01655D7F4F0E940C12BC01CE01C19692
:103C40000E948D12CE0101960E94C515AE014F5CF7
:103C50005F4FBE016F5F7F4FCE01C7960E94F31288
:103C6000BE01695C7F4F81EE96E00E944F11CE014C
:103C7000C7960E949A11CE0101960E949A11CE0118
:103C8000C1960E949A11CE014F960E949A11CE01C0
:103C900049960E949A11CE0185960E949A11CE01F2
:103CA0008B969DCD1092A9049CCD0E943C0600915C
:103CB0009304109194042091950430919604601B14
:103CC000710B820B930B61367A4E8105910508F4D6
:103CD0009CCD10929204E0919004F0919104EE0F2B
:103CE000FF1FE55AFD4F808191819093910480934D
:103CF0009004880F991FFC01E85FFE4F808180933C
:103D0000DA0483CD86E090E0B0CD10929204309337
:103D1000910420939004232BB9F40E9488087C011D
:103D20000E9492088C010E949A0840914F01509184
:103D3000500160914D0170914E019C0180914B01A9
:103D400090914C010E946D06809190049091910495
:103D50000197B9F588E293E00E94BD0D809153016F
:103D6000909154010E94310E8DE293E00E94BD0DAE
:103D700080915501909156010E94310EE0905701BB
:103D8000F0905801F0E3EF1AF8EFFF0A00915501A7
:103D90001091560180905301909054010E94A20806
:103DA0005C010E94AA086C010E94B2089401A5015E
:103DB000B6010E946D06609151018DE090E00E9475
:103DC0004C1880919004909191040297C1F46091F5
:103DD000590182E090E00E944C1860915B0183E001
:103DE00090E00E944C1860915D0184E090E00E9498
:103DF0004C1860915F0186E090E00E944C18809121
:103E0000900490919104039731F46091610181E0F5
:103E100090E00E944C188091900490919104049736
:103E200031F4609163018BE090E00E944C18809126
:103E3000900490919104059739F460916501645F55
:103E40008CE090E00E944C180E94880868EE73E0B5
:103E50000E943730082F0E949208F82E0E949A087C
:103E6000E82E0E94A208B82E0E94AA08C82E0E941E
:103E7000B208D82E81E08093BB0588E68093DD05EB
:103E80001092BC051092DE0560E08AE896E00E9480
:103E90009C0B1AE08B2D612F0E942B308295807F26
:103EA000682F690F8AE896E00E949C0B8C2D612F89
:103EB0000E942B308295807F682F690F8AE896E0F8
:103EC0000E949C0B8D2D612F0E942B308295807F4C
:103ED000682F690F8AE896E00E949C0B61E08AE8EF
:103EE00096E00E949C0B8E2D612F0E942B308295B4
:103EF000807F682F690F8AE896E00E949C0B8F2DC7
:103F0000612F0E942B308295807F682F690F8AE88D
:103F100096E00E949C0B802F612F0E942B3082958F
:103F2000807F682F690F8AE896E00E949C0B60E012
:103F30008AE896E00E949C0B0E948F091BCD84E3C7
:103F400093E00E94BD0D80919004909191040E9495
:103F5000310E8EE393E00E94BD0D8091510190914E
:103F600052010E94310E009190041091910403318E
:103F7000110579F0C8010997029758F08091DA0489
:103F80000E94B013000F111FF801E15CFE4F9183F6
:103F900080838091C8069091C90697FD07C08091E3
:103FA000880490918904019609F01CC144E650E010
:103FB00060E070E088EE93E00E94C203809192047A
:103FC00081114DC000919004109191040E943C0613
:103FD0006093930470939404809395049093960453
:103FE000012BE9F50E94A208BC01CE0185960E9432
:103FF00003140E94AA08BC01CE014F960E9403142C
:104000000E94B208BC01CE0101960E940314BE01B9
:104010006F5F7F4FCE0149960E948D12BE01615E97
:104020007F4FCE0149960E940C12BE016B5D7F4FFF
:104030000E940C12BC0181EE96E00E947612CE0125
:1040400049960E949A11CE0101960E949A11CE01C2
:104050004F960E949A11CE0185960E949A118091E6
:10406000900490919104019709F06AC089E493E06B
:104070000E94BD0D87E193E00E94BD0D0E949A0849
:1040800090935401809353010E949208909356019B
:10409000809355010E94880868EE73E00E943730D3
:1040A000BC019093580180935701809151019091E8
:1040B0005201892B09F0E5C1CE0185960E940314B7
:1040C0006091550170915601CE014F960E940314E4
:1040D0006091530170915401CE0101960E94031426
:1040E000BE016F5F7F4FCE0149960E948D12BE01C7
:1040F000615E7F4FCE0149960E940C12BE016B5D3E
:104100007F4F0E940C12BC0181EE96E00E94761255
:10411000CE0149960E949A11CE0101960E949A11F1
:10412000CE014F960E949A11CE0185960E949A1157
:1041300082E593E00E94BD0D81EE96E00E94FC0EA8
:10414000E0919004F0919104EE0FFF1FE55AFD4FAE
:10415000E080F180F0929104E09290044DE0E4164A
:10416000F10449F481E090E09093600180935F0155
:1041700080E88093CA048091920491E0892780931B
:1041800092048701000F111FF801E85FFE4F808144
:104190008093DA049701225131092230310558F019
:1041A00059E0E516F10439F00E94B013F801E15C22
:1041B000FE4F9183808388EB90E00E94CB02C70181
:1041C0000E94310E81EB90E00E94CB02E0919004BE
:1041D000F0919104EE0FFF1FE15CFE4F8081918111
:1041E0000E94310E8091AF069091B006009709F0C1
:1041F00059C180918604909187040197E1F481E090
:1042000080937F0410925F0510925E0544E650E0B3
:1042100060E070E088EE93E00E94C2030E946015A7
:1042200080919204811107C010926E0560E087E0D2
:1042300090E00E944C1880917D0490917E0401963C
:1042400009F039C18091B106882309F434C1109274
:10425000DC04809192048823F9F00E943C060091CE
:10426000790410917A0420917B0430917C04601BC6
:10427000710B820B930B673971058105910560F015
:104280000E943C066093790470937A0480937B04C7
:1042900090937C040E9460158091960690919706F9
:1042A000009709F00CC180918404909185040197D6
:1042B00009F050C011E010937F0410925F05109236
:1042C0005E0544E650E060E070E088EE93E00E9416
:1042D000C2030E94F0148091920481113BC010939C
:1042E0006E0561E087E090E00E944C186091060145
:1042F00088E090E00E944C186091750489E090E09D
:104300000E944C18609173048AE090E00E944C185F
:1043100080EA90E00E94CA0D8BE990E00E94CB02F7
:1043200080910601909107010E94310E84E990E08E
:104330000E94CB0280917504909176040E94310E08
:104340008EE890E00E94CB028091730490917404F7
:104350000E94310E8091770490917804019609F0C3
:10436000B7C080919806882309F4B2C08091920466
:104370001092DB04882321F10E943C0600916F0417
:10438000109170042091710430917204601B710BC4
:10439000820B930B673971058105910508F451C0B3
:1043A0000E943C0660936F047093700480937104C4
:1043B000909372040E94F01480919204811141C084
:1043C0008091AF069091B00697FD06C0809186045B
:1043D000909187040196B1F444E650E060E070E00B
:1043E00088EE93E00E94C20381E080933E0161E089
:1043F00090E080E00E944C1887E890E00E94CA0D8F
:104400000E945018809196069091970697FD06C0DD
:104410008091840490918504019699F444E650E0DB
:1044200060E070E088EE93E00E94C20310923E01CB
:1044300060E090E080E00E944C188FE790E00E94DE
:10444000CA0DE0919004F0919104E431F10508F077
:1044500091CAE35DFD4D0C948C306C229D229A2311
:10446000E2230D245124BA1CBA1CBA1C8024A824AF
:10447000A824A824BA1CBA1CBA1CBA1CBA1C0D2445
:104480005124CE0185960E940314609153017091CE
:104490005401CE014F960E94031460915501709112
:1044A00056011ACE90937E0480937D041816190647
:1044B0000CF4A5CE9ECE81E08093DC04EDCE9093EB
:1044C000780480937704181619060CF4F3CEEBCE1B
:1044D00081E08093DB0470CF8091A90481111EC01C
:1044E0000E94A208209104013091050182179307D0
:1044F000E9F00E94A2089093050180930401CE0187
:1045000001960E94C515BE016F5F7F4F81EE96E058
:104510000E944F11CE0101960E949A110E94A2089A
:1045200080FD76C180EC8093CA0474C161EE76E0B0
:10453000CE0101960E948D12E6CF8091A9048111CF
:10454000E2C080916704811111C00E943C0667514E
:104550007C4F8F4F9F4F60936304709364048093EC
:1045600065049093660481E08093670480915B0406
:10457000811144C00E94880868EE73E00E943730C1
:10458000BC01CE0101960E9403140E949208BC0156
:10459000CE0149960E9403140E949A08BC01CE01E4
:1045A00085960E940314BE016B5D7F4FCE014F962E
:1045B0000E948D12BE01675E7F4FCE014F960E9412
:1045C0000C12BE016F5F7F4F0E940C12BC0185E58B
:1045D00094E00E948D1281E080935B04CE014F969F
:1045E0000E949A11CE0185960E949A11CE01499699
:1045F0000E949A11CE0101960E949A1100915101D8
:104600001091520180914D04811105C000934C041A
:1046100081E080934D040E943C06C0906304D090DA
:104620006404E0906504F09066046C197D098E09BD
:104630009F09693E73408105910530F480914C04D7
:104640008017110609F44EC00E943C066093630473
:10465000709364048093650490936604012B09F0C1
:1046600054C00E94880868EE73E00E943730BC0195
:10467000CE0101960E9403140E949208BC01CE0153
:1046800049960E9403140E949A08BC01CE018596A7
:104690000E940314BE016B5D7F4FCE014F960E94B6
:1046A0008D12BE01675E7F4FCE014F960E940C12A5
:1046B000BE016F5F7F4F0E940C12BC0185E594E044
:1046C0000E947612CE014F960E949A11CE018596D5
:1046D0000E949A11CE0149960E949A11CE0101962C
:1046E0000E949A1165E574E0CE0101960E948D1238
:1046F000BE016F5F7F4F81EE96E00E944F11CE01A9
:1047000001960E949A1180E40ECF0E94880868EEFC
:1047100073E00E943730BC01CE0101960E94031461
:104720000E949A08BC01CE0149960E9403140E947F
:104730009208ABCF60915D0170915E01CE018596CC
:104740000E94031460915B0170915C01CE014F9651
:104750000E9403146091590170915A01CE01019693
:104760000E940314BE016F5F7F4FCE0149960E94E5
:104770008D12BE01615E7F4FCE0149960E940C12E0
:10478000BE016B5D7F4F0E940C12BC0181EE96E072
:104790000E947612CE0149960E949A11CE0101968E
:1047A0000E949A11CE014F960E949A11CE018596D1
:1047B0000E949A1180915F0190916001019741F5EB
:1047C00080E8B1CE6091610170916201CE0149969D
:1047D0000E944A1265E273E0CE0101960E94961291
:1047E000BE01675E7F4FCE0101960E940C1265E20A
:1047F00073E00E94F611BC0181EE96E00E947612F1
:10480000CE0101960E949A11CE0149960E949A11FA
:104810001092CA040E94D80DADC88091A9048111DC
:1048200024C081E02091630130916401232B09F4BD
:1048300080E00E94540CAB01BC01CE0101960E94A5
:104840004216BE016F5F7F4F81EE96E00E944F11CE
:10485000CE0101960E949A118091630190916401AA
:10486000892BD1F480E48093CA0481E02091630114
:1048700030916401232B09F480E00E94540C1091C4
:10488000CA0420E030E0A9010E94F82D87FF07C08C
:1048900010681093CA046EC81092CA04E6CF1F773E
:1048A000F8CF6091650170916601CE0101960E947A
:1048B0000314BE016F5F7F4FCE0149960E948D1297
:1048C00063E273E0CE0149960E94F611BC0181EECD
:1048D00096E00E947612CE0149960E949A11CE016E
:1048E00001960E949A11809165019091660197FD51
:1048F00003C01092CA043EC880E88093CA043AC834
:104900008091510190915201892B99F467E573E0F0
:1049100081EE96E00E94401283E090E090931D01AA
:1049200080931C018CE090E090931F0180931E0106
:1049300021C86EE573E081EE96E00E9440128CE0A3
:1049400090E090931D0180931C0183E090E0ECCFF8
:1049500060915701709158018091510190915201DD
:10496000892BF1F5CE0185960E94031460915501C3
:1049700070915601CE014F960E940314609153012D
:1049800070915401CE0101960E940314BE016F5F25
:104990007F4FCE0149960E948D12BE01615E7F4F0E
:1049A000CE0149960E940C12BE016B5D7F4F0E94A2
:1049B0000C12BC0181EE96E00E947612CE0149965F
:1049C0000E949A11CE0101960E949A11CE014F9633
:1049D0000E949A11CE0185960E949A110C94BA1CDD
:1049E000CE0185960E940314609153017091540189
:1049F000CE014F960E9403146091550170915601AB
:104A0000C1CF81E090E00C94921A1F920F920FB6E2
:104A10000F9211242F933F934F935F936F937F9344
:104A20008F939F93AF93BF93EF93FF938DEE95E09A
:104A30000E945C02FF91EF91BF91AF919F918F9186
:104A40007F916F915F914F913F912F910F900FBE8A
:104A50000F901F9018951F920F920FB60F9211246E
:104A60002F938F939F93EF93FF93E091FD05F09128
:104A7000FE058081E0910306F091040682FD1BC0D3
:104A80009081809106068F5F8F73209107068217B1
:104A900041F0E0910606F0E0E351FA4F958F8093E4
:104AA0000606FF91EF919F918F912F910F900FBE6E
:104AB0000F901F9018958081F4CF1F920F920FB620
:104AC0000F9211242F933F938F939F93AF93BF9394
:104AD00080913B0590913C05A0913D05B0913E052C
:104AE00030913A0523E0230F2D3758F50196A11D8B
:104AF000B11D20933A0580933B0590933C05A0930C
:104B00003D05B0933E0580913F0590914005A091F1
:104B10004105B09142050196A11DB11D80933F054D
:104B200090934005A0934105B0934205BF91AF918A
:104B30009F918F913F912F910F900FBE0F901F90DB
:104B4000189526E8230F0296A11DB11DD2CF1F9202
:104B50000F920FB60F9211242F933F938F939F9331
:104B6000AF93BF93EF93FF938091DF059091E005A2
:104B7000A091E105B091E2050097A105B10531F1E1
:104B800030914905E0914A05F0914B05208123279A
:104B90002083181619061A061B061CF40197A10992
:104BA000B1098093DF059093E005A093E105B093F0
:104BB000E205FF91EF91BF91AF919F918F913F914E
:104BC0002F910F900FBE0F901F901895209170009D
:104BD0002D7F2093700020914905E0914A05F091C6
:104BE0004B053081209523232083DBCF1F920F922A
:104BF0000FB60F9211248F939F93AF93BF93EF93B0
:104C0000FF938091E3059091E405A091E505B091B3
:104C1000E605892B8A2B8B2BA1F190914C05E09115
:104C20004D05F0914E058081892780838091E305B1
:104C30009091E405A091E505B091E60518161906D6
:104C40001A061B069CF48091E3059091E405A0915F
:104C5000E505B091E6050197A109B1098093E30547
:104C60009093E405A093E505B093E605FF91EF91DD
:104C7000BF91AF919F918F910F900FBE0F901F909A
:104C8000189580916F008D7F80936F0080914C0507
:104C9000E0914D05F0914E059081809589238083A8
:104CA000E5CF1F920F920FB60F9211248F939F930F
:104CB000AF93BF93EF93FF938091E7059091E80541
:104CC000A091E905B091EA05892B8A2B8B2BA1F1E4
:104CD00090914F05E0915005F09151058081892711
:104CE00080838091E7059091E805A091E905B09156
:104CF000EA05181619061A061B069CF48091E705AA
:104D00009091E805A091E905B091EA050197A10904
:104D1000B1098093E7059093E805A093E905B09366
:104D2000EA05FF91EF91BF91AF919F918F910F9005
:104D30000FBE0F901F90189580916E008D7F80930D
:104D40006E0080914F05E0915005F09151059081E2
:104D5000809589238083E5CF1F920F920FB60F9223
:104D600011242F933F934F935F936F937F938F9370
:104D70009F93AF93BF93EF93FF938091B900887F88
:104D8000803609F44AC0F0F5883209F4A7C018F556
:104D9000803109F49BC0B8F4882309F4F9C0883045
:104DA00009F494C0FF91EF91BF91AF919F918F91C2
:104DB0007F916F915F914F913F912F910F900FBE17
:104DC0000F901F901895883109F488C0803251F7F0
:104DD0008093B30514C0803409F49DC040F480333F
:104DE000B9F38833F9F68093B30585ECB0C080350C
:104DF00009F485C0883509F496C0883499F60E9474
:104E00001418D0CF883909F48CC038F5883729F0C8
:104E100050F4883611F0803729F683E08093B50589
:104E20001092200557C0883809F47BC0803919F0EA
:104E3000803809F0B7CF80912005803208F071C02A
:104E4000E091200581E08E0F809320058091BB00CA
:104E5000F0E0E050FB4F80833DC0803B39F0E0F450
:104E6000803A09F479C0883A09F09CCF84E08093B5
:104E7000B5051092FF041092FE04E0914505F091F3
:104E8000460509958091FE0481110FC081E0809351
:104E9000FE041092DE0409C0803C09F4A6CF883CD1
:104EA00009F4A3CF883B09F07DCFE091FF0481E0B6
:104EB0008E0F8093FF04F0E0E252FB4F80818093DD
:104EC000BB009091FF048091FE0429C08091900561
:104ED0008093BB0085EC8093BC0064CF9091B205B9
:104EE0008091B105981758F5E091B20581E08E0FD9
:104EF0008093B205F0E0EF56FA4F8081E9CFE09160
:104F0000B20581E08E0F8093B2058091BB00F0E086
:104F1000EF56FA4F80839091B2058091B1059817B2
:104F2000C8F285E8D8CFE091B20581E08E0F80937A
:104F3000B2058091BB00F0E0EF56FA4F808380917C
:104F4000B40581115CCF81E080938F0584EA809362
:104F5000BC001092B50526CF85EC8093BC00109262
:104F6000B50580912005803230F4E0912005F0E015
:104F7000E050FB4F10826091200570E0E091430506
:104F8000F091440580E095E00995109220050ACF44
:104F90001092B30534CFCF93DF93EC01862F6F8748
:104FA000188A91E0998B9A8B1C8A1B8A1982188225
:104FB0001A821D8A1E8A1F8A188E44E150E060E022
:104FC00070E04B835C836D837E834AEF50E060E04A
:104FD00070E04F83588769877A8748EE53E060E036
:104FE00070E04B875C876D877E8760E00E94860358
:104FF0008889811106C061E08F85DF91CF910C9483
:105000005803DF91CF910895EDEEF5E013821282FF
:1050100088EE93E0A0E0B0E084839583A683B78315
:1050200027EF32E03183208325EC30E03587248779
:1050300024EC30E03787268720EC30E0318B208B62
:1050400021EC30E0338B228B22EC30E0358B248B4B
:1050500026EC30E0378B268B118E128E138E148E39
:10506000EAE8F6E01382128284839583A683B783ED
:1050700089E093E09183808365E673E085EF96E0B5
:105080000E94961260E087E00E948603EBEDF1E05B
:10509000E491A7EEB6E0EC93E7ECF1E0E491F0E008
:1050A000EE0FFF1FEA54FE4F8591949112969C9348
:1050B0008E9311971B961C921B971D961C921D9701
:1050C0001C961C921C971A961C921A9719961C9261
:1050D000199718961C92189717961C921797169660
:1050E0001C92169715961C92159714961C9214975D
:1050F00013961C9261E273E081EE96E00E94961294
:105100006EE088EC96E00E94CB2760E18FEA96E0A3
:105110000E94CB276FE086E996E00C94CB27CF93D3
:10512000DF93CDB7DEB7CE54D1090FB6F894DEBF0A
:105130000FBECDBF789484B5826084BD84B5816094
:1051400084BD85B5826085BD85B5816085BD809152
:105150006E00816080936E001092810080918100CA
:1051600082608093810080918100816080938100C2
:10517000809180008160809380008091B100846084
:105180008093B1008091B00081608093B0008091E5
:105190007A00846080937A0080917A0082608093A4
:1051A0007A0080917A00816080937A0080917A0001
:1051B000806880937A001092C10010924805109286
:1051C00047051092BC051092DE050E9450098BED38
:1051D00091E090934605809345058CED91E0909386
:1051E000440580934305E091FD05F091FE0582E0C2
:1051F0008083E091F905F091FA051082E091FB05BA
:10520000F091FC0580E1808310920506E091010693
:10521000F091020686E08083E091FF05F0910006A0
:10522000808180618083E091FF05F091000680819C
:1052300088608083E091FF05F0910006808180689E
:105240008083E091FF05F091000680818F7D80834F
:1052500081E090E00E944E188C3009F4DCC188E1B6
:1052600090E0909362018093610190E080E00E9461
:105270004E18882309F4D2C181E080933E0182E078
:1052800090E00E944E188F3F09F0CBC110925A0156
:105290001092590183E090E00E944E188F3F09F070
:1052A000C6C110925C0110925B0184E090E00E9404
:1052B0004E188F3F09F0C1C110925E0110925D013E
:1052C00086E090E00E944E188F3F09F0BCC110921A
:1052D000600110925F0187E090E00E944E188F3FBE
:1052E00009F0B7C110926E058BE090E00E944E1855
:1052F0008F3F09F0B5C110926401109263018CE0F8
:1053000090E00E944E188F3F31F08C50990B909393
:105310006601809365018DE090E00E944E188F3FFA
:1053200029F090E090935201809351018CEA91E032
:105330000E94CB0280916E0590E00E94310E61E0E8
:1053400089E00E94860361E086E00E94860361E0B6
:1053500083E00E94860380915205833008F0F5C1F6
:1053600092E09093EB05E82FF0E0E05EFE4FE491D1
:10537000E093EC058F5F80935205E13009F497C10B
:1053800008F474C1E23009F4B9C180913C019091F4
:105390003D010E94B30C90933D0180933C0161E07C
:1053A0008AE00E94860362E088E00E94860388E02B
:1053B0000E942F0321E0892B09F020E0209354055F
:1053C0001FB7F89480915305811127C0EAECF1E0F2
:1053D0008491EEEDF1E09491E82FF0E0EE0FFF1FE5
:1053E000ED5DFE4FA591B491EC91E92321F461E0CC
:1053F0008AE00E94580361E08AE00E9486038CB52F
:1054000080618CBD8CB580648CBD61E08DE00E94B4
:10541000860361E08BE00E948603809153058F5FD5
:10542000809353051FBF80915405882309F491C1CF
:1054300089E791E00E94200162E08EE00E948603ED
:1054400062E080E10E94860362E08FE00E948603B2
:1054500061E082E00E94860304E110E020E030E099
:105460000093CB061093CC062093CD063093CE0646
:105470004EE150E060E070E04093CF065093D006DC
:105480006093D1067093D20680ED97E0A0E0B0E083
:105490008093D3069093D406A093D506B093D606F6
:1054A0000093B2061093B3062093B4063093B5066A
:1054B0004093B6065093B7066093B8067093B9064A
:1054C0008093BA069093BB06A093BC06B093BD062A
:1054D0000093990610939A0620939B0630939C069E
:1054E00040939D0650939E0660939F067093A0067E
:1054F0008093A1069093A206A093A306B093A4065E
:105500008EE090E00E944E188F3F31F091E08111C3
:1055100001C090E090936D058FE00E942F03892BCE
:1055200091F460916D0581E0682760936D058EE0D0
:1055300090E00E944C1844E650E060E070E088EE95
:1055400093E00E94C20380916D05811104C180E047
:1055500090E0A0E0B0E88093380190933901A093E7
:105560003A01B0933B0180E090E0A0E0B0E480938A
:10557000340190933501A0933601B09337018DE744
:1055800091E00E94CB0225E030E042E050E065EF80
:1055900076E0CE0101967C010E94A71222E030E065
:1055A00041E050E065EF76E0CE01875B9F4F0E94BF
:1055B000A712BE01675B7F4FCE018D5B9F4F0E949C
:1055C0008D126CE673E0CE018D5B9F4F0E94F61149
:1055D000B7010E940C120E94FC0ECE018D5B9F4F02
:1055E0000E949A11CE01875B9F4F0E949A11C701BA
:1055F0000E949A110AE511E043E2D42EDA94DD20EC
:1056000009F4BAC0F80164918DEE95E00E947E0223
:105610000F5F1F4FF3CF8CE090E023CE10923E013E
:105620002ECE90E090935A018093590133CE90E0B2
:1056300090935C0180935B0138CE90E090935E0183
:1056400080935D013DCE90E09093600180935F0177
:1056500042CE91E0811101C090E090936E0544CE5E
:1056600090E0909364018093630149CE14BC15BC13
:1056700084B5826084BD85B5816085BD8091EB0570
:1056800090E0FC01E054FE4FE491F0E0EE0FFF1FCC
:10569000EA5EFE4F259134913093510520935005D9
:1056A000FC01EC52FE4FE491E0934F056ECE109258
:1056B0008000109281008091810088608093810039
:1056C000809181008160809381008091EB0590E062
:1056D000FC01E054FE4FE491F0E0EE0FFF1FEA5EA4
:1056E000FE4F2591349130934E0520934D05FC01DA
:1056F000EC52FE4FE491E0934C0547CE1092B0007F
:105700001092B1008091B00082608093B0008091CF
:10571000B10081608093B1008091EB0590E0FC01C5
:10572000E054FE4FE491F0E0EE0FFF1FEA5EFE4F03
:105730002591349130934B0520934A05FC01EC529E
:10574000FE4FE491E093490520CE8FEF8093EC0566
:105750001CCE89E56ECE80E090E0A0E0B0E48093BE
:10576000380190933901A0933A01B0933B0180E056
:1057700090E0A0E0B0E8FBCE87E193E00E94BD0D91
:105780008FE491E00E94CA0D80913C0190913D010F
:1057900090935F0580935E050E94B30C6FEF70E0FD
:1057A00089E00E94880568EE73E080E090E00E9446
:1057B0000A0670E060E089E00E9488056FEF70E003
:1057C00086E00E94880568EE73E080E090E00E9429
:1057D0000A0670E060E086E00E9488056FEF70E0E6
:1057E00083E00E94880568EE73E080E090E00E940C
:1057F0000A0670E060E083E00E94880561E273E0E1
:10580000C7010E9496126EE673E0CE0107960E94D1
:10581000961265E773E0CE010D960E9496126CE732
:1058200073E0CE0143960E94961263E873E0CE01C6
:1058300049960E9496126AE873E0CE014F960E9444
:10584000961261E973E0CE0185960E94961268E98E
:1058500073E0CE018B960E9496126FE973E0CE0141
:10586000C1960E94961266EA73E0CE01C7960E9426
:10587000961269E173E0CE01CD960E94961265EF13
:1058800076E0CE01CD960E9476120E943C062B0156
:105890003C01F8EE4F0EF3E05F1E611C711C912C71
:1058A0001FEF94EFC92EDD24D39426E0822E3BE334
:1058B000A32E3FE1B32E8FE00E942F03892B11F41A
:1058C0009924939480E10E942F03892B09F4912C51
:1058D0000E943C06641975098609970996010D2CEA
:1058E000000C440B550B01E02617370748075907F2
:1058F000E0F40E943C062B013C01911001C01F5FA7
:105900001A3009F491C008F094C001E0B701189D65
:10591000600D711D112481EE96E00E94761281EED9
:1059200096E00E94FC0E0E941C0FC5010197F1F742
:105930000111C1CFC090F406C11004C00E94A201A1
:1059400081117AC01092F2061092F4061092F306BA
:1059500087E391E00E94CA0D0E94B60E8DE291E0AD
:105960000E94CA0D8E010D5B1F4F06501109C80120
:105970000E949A11E016F106C1F70E94B60E8091BE
:105980006E0581110E9450180E943C0D00916B051C
:1059900010916C050E943C066B017C0181E08093B4
:1059A0006A05112780916B0590916C0508171907FE
:1059B00099F40E943C0D0E943C066C197D098E09E9
:1059C0009F09693B7B408105910560F380E991E087
:1059D0000E94CA0D10926A05E0906805F090690572
:1059E0000091660510916705209164053091650569
:1059F00040916B0550916C05609162057091630553
:105A000080916005909161050E946D0600E010E0B4
:105A10000E946B1801151105D9F30E9448028823D2
:105A2000B9F30E940000F4CF80EDC82E87E0D82E95
:105A30006CCF1AE000E06ACF80EF0E947801B12CB1
:105A400001E011E00E942301D82E0E94230121E0F1
:105A5000D21220C08130E9F5113408F473CFC0921E
:105A6000F206C11003C081E08093F4068091EA063B
:105A7000882309F467CFAAEEB6E0E6E5F5E08EE507
:105A800095E02D9121938E179F07D9F781E08093A0
:105A9000550562CFEB2DF0E0D81211C08091F206CF
:105AA0001817A8F4DF01A951B94F13968C918023E0
:105AB00081F4D12C193010F41093F306C12EE95162
:105AC000F94F8381902F9095892383830BC0811395
:105AD000F0CFEB2DF0E0E951F94F8381802B8383E8
