:100000000C9406010C942E010C942E010C942E01DC
:100010000C942E010C942E010C942E010C94C91CEE
:100020000C942E010C942E010C942E010C94241D82
:100030000C942E010C942E010C94891D0C942E010D
:100040000C947F1C0C942E010C94011B0C94DB1A55
:100050000C942E010C942E010C942E010C942E0164
:100060000C94CC160C942E01F201F401E801EA0183
:10007000EC01EE01F001CE09450A400B8E0BC00BDE
:10008000100C180E180E180E450C6D0C6D0C6D0C26
:10009000180E180E180E180E180EC00B100C496E04
:1000A000636F727265637420536F6E6720466F7260
:1000B0006D617421005247423D6F666600524742AF
:1000C0003D6F6E00426C75653D00475245454E3DA3
:1000D000005245443D0053746F726520746F204593
:1000E0004550524F4D3A0076616C75653D006D6527
:1000F0006E75506F736974696F6E3D0076616C75D3
:10010000653D006D656E75506F736974696F6E3D06
:100110000000000000250028002B00020100000064
:100120000000240027002A0053746F702054657368
:10013000740054656D702E2073656E736F72206E3F
:100140006F7420666F756E642E0053746172742034
:1001500054657374004669726D77617265207665C7
:100160007273696F6E3A20005761726E696E672113
:100170002052544320444F4E275420524553504F51
:100180004E4421006C6564206C6F636B3D00000081
:1001900000002300260029000404040404040404CD
:1001A0000202020202020303030303030102040822
:1001B00010204080010204081020010204081020D1
:1001C0000000000800020100000304070000000016
:1001D0000000000057616B652075702C204E656F24
:1001E0002100426C75653D00475245454E3D005229
:1001F00045443D005265616465642066726F6D2000
:10020000454550524F4D0000912B2C2C11241FBE00
:10021000CFEFD8E0DEBFCDBF27E0A8E3B4E001C058
:100220001D92AE32B207E1F714E0A0E0B1E0EEEFCC
:10023000F2E602C005900D92A833B107D9F711E09C
:10024000C5E0D1E004C02197FE010E94442FC430D4
:10025000D107C9F70E9415270C9472310C94000045
:100260008F929F92AF92BF92CF92DF92EF92FF92C6
:100270000F931F93CF93DF93CDB7DEB7EC970FB6F5
:10028000F894DEBF0FBECDBF0E944C1C20E137E2C8
:1002900040E050E00E94032F672B682B692B29F464
:1002A0008091C70481110C94C50C1092AE04109279
:1002B000AD041092AC041092AB041092AA041092F8
:1002C000A9040091BB041091BC04F801808188232B
:1002D00009F432C10E944C1CC0903E04D0903F04EF
:1002E000E0904004F0904104DC01CB018C199D09A1
:1002F000AE09BF09C0903A04D0903B04E0903C04A2
:10030000F0903D04C816D906EA06FB0608F014C1B1
:100310000E944C1C6B017C0160933E0470933F046F
:1003200080934004909341041092F1061092F006DD
:10033000A8016AE08A01FA01B0804F5F5F4F80ED4B
:100340008B0D2091F0063091F1068A3080F4629F87
:10035000F001639FF00D11248B2DBB0C990BC097FE
:100360008E0F9F1F9093F1068093F006E3CF60916C
:10037000EC067091ED068091EE069091EF06211546
:10038000310529F0032E000C440B550B05C02091BC
:100390005C0130E040E050E00E94252F20933A04B9
:1003A00030933B0440933C0450933D048B2DBB0C95
:1003B000990BAA0BBB0BFC01E156F109E730F105E3
:1003C00020F4EC5CFF4F0C94442F109239040FC0C2
:1003D00081E00BC083E009C085E007C086E005C06E
:1003E00088E003C08AE001C08CE080933904F80102
:1003F0008181833219F00F5F1F4F07C0809139044C
:100400008F5F809339040E5F1F4FF80180818E3219
:1004100001F580903A0490903B04A0903C04B09089
:100420003D04C501B40122E030E040E050E00E940C
:10043000252FD501C401820F931FA41FB51F8093E0
:100440003A0490933B04A0933C04B0933D040F5FA7
:100450001F4FF801808180538A3028F4809338043C
:100460000F5F1F4F04C080915B018093380480911F
:100470003804F80190819C3211F40F5F1F4F2091D6
:100480003904222309F458C080903A0490903B0428
:10049000A0903C04B0903D0490E004973CE0389F6D
:1004A000F001399FF00D1124E20FF11DEE0FFF1F37
:1004B000E558FE4FB501A401808191810E94D10FC2
:1004C0000E944C1CDC01CB018C199D09AE09BF09AF
:1004D00088169906AA06BB0678F50E944C1C609304
:1004E0003E0470933F0480934004909341048091B4
:1004F0002D05813051F0823071F0811111C0809151
:100500006E008D7F80936E000BC080916F008D7F99
:1005100080936F0005C0809170008D7F8093700084
:1005200060E080912C050E945C1B8EE990E00E94A7
:100530001E1290E080E002C0902F812F9093BB04A8
:100540008093BC040E944C1C0091A5041091A60449
:100550002091A7043091A804DC01CB01801B910BF2
:10056000A20BB30B0697A105B10508F489C08091D1
:100570003001811110C060E070E089E00E94C81B6A
:1005800060E070E086E00E94C81B60E070E083E0FD
:100590000E94C81B6BC08091CA04811167C0009182
:1005A000440410914504C801880F991F800F911FC2
:1005B000FC01EE0FFF1FE352FE4F609104017091AA
:1005C000050120813181620F731F709305016093D3
:1005D0000401FC01EE0FFF1FE152FE4FC0909A0490
:1005E000D0909B0420813181C20ED31ED0929B04F7
:1005F000C0929A04880F991FFC01EF51FE4FE090C2
:100600009804F090990480819181E80EF91EF0928F
:100610009904E092980489E00E94C81BB60186E024
:100620000E94C81BB70183E00E94C81B809142044E
:1006300090914304019690934304809342048F3F2A
:10064000910551F4C80101969093450480934404A8
:100650001092430410924204809144049091450406
:10066000069724F010924504109244040E944C1CFA
:100670006093A5047093A6048093A7049093A804A4
:100680008091F2069091F306892B21F08091A404C9
:100690008111D3C28091F4068111CFC28091580498
:1006A00081110DC00E944C1C60935404709355043A
:1006B000809356049093570481E08093580480916E
:1006C0004C0481110DC00E944C1C6093480470932F
:1006D000490480934A0490934B0481E080934C0436
:1006E0000E944C1C00915404109155042091560412
:1006F00030915704DC01CB01801B910BA20BB30B93
:10070000009100011091010120910201309103013B
:10071000081719072A073B0708F06FC00E944C1CF6
:100720006093540470935504809356049093570437
:100730008091460490914704009799F481E090E0FD
:100740009093F3068093F20688E893E1A0E0B0E08E
:100750008093000190930101A0930201B0930301E3
:100760001EC00197E1F484E090E09093F30680933B
:10077000F20688E893E1A0E0B0E080930001909356
:100780000101A0930201B09303018091BA04811189
:1007900006C082E090E090934704809346048091E5
:1007A0004604909147048230910581F41092F3063B
:1007B0001092F20640E65AEE60E070E040930001CD
:1007C00050930101609302017093030101968330FD
:1007D00091052CF4909347048093460404C0109232
:1007E0004704109246048091A404882321F01092BB
:1007F000F3061092F2061092A4040E944C1C009181
:100800005404109155042091560430915704DC0192
:10081000CB01801B910BA20BB30B803D9740A10530
:10082000B10508F008C20E944C1C009148041091C8
:10083000490420914A0430914B04DC01CB01801B18
:10084000910BA20BB30B85369105A105B10508F4F8
:10085000F4C10E944C1C6093480470934904809337
:100860004A0490934B042091BA048091F20690912F
:10087000F306222309F410C1892B89F5CE0149968C
:100880000E949A2681E02091550130915601232B38
:1008900009F480E00E946721AB01BC01CE01019602
:1008A0000E94861FAE01475E5F4FBE016F5F7F4FA4
:1008B000CE014F960E94C721BE01615E7F4F82E24A
:1008C00096E00E94D20ECE014F960E94A00FCE015C
:1008D00001960E94A00FCE0149960E94A00F809120
:1008E000F2069091F306019709F062C00E94541F2E
:1008F00068EE73E00E94EF2EBC01CE018B960E9441
:10090000AC250E945E1FBC01CE0185960E94AC25DD
:100910000E94661FBC01CE0149960E94AC25BE0113
:10092000675E7F4FCE014F960E94BD1ABE016B5D80
:100930007F4FCE014F960E94BF0EBE01655D7F4F77
:100940000E94BF0EBC01CE01C1960E94BD1ACE010D
:1009500001960E949A26AE014F5C5F4FBE016F5F09
:100960007F4FCE01C7960E94C721BE01695C7F4FB1
:1009700082E296E00E94D20ECE01C7960E94A00F9E
:10098000CE0101960E94A00FCE01C1960E94A00F39
:10099000CE014F960E94A00FCE0149960E94A00F53
:1009A000CE0185960E94A00FCE018B960E94A00FCB
:1009B0008091F2069091F306049709F03EC181E020
:1009C0002091550130915601232B09F480E00E94BB
:1009D0006721AB01BC01CE01C1960E94861F0E9417
:1009E000541F68EE73E00E94EF2EBC01CE01859685
:1009F0000E94AC250E945E1FBC01CE014F960E9452
:100A0000AC250E94661FBC01CE0101960E94AC2558
:100A1000BE016F5F7F4FCE0149960E94BD1ABE0195
:100A2000615E7F4FCE0149960E94BF0EBE016B5D95
:100A30007F4F0E94BF0EBC01CE018B960E94BD1A53
:100A4000AE014F5C5F4FBE01655D7F4FCE01C79623
:100A50000E94C721BE01695C7F4F82E296E00E943E
:100A6000D20ECE01C7960E94A00FCE018B960E9497
:100A7000A00FCE0149960E94A00FCE0101960E94C0
:100A8000A00FCE014F960E94A00FCE0185960E9426
:100A9000A00FCE01C196CCC0892B09F062C0CE0157
:100AA000C1960E949A260E94541F68EE73E00E942D
:100AB000EF2EBC01CE0185960E94AC250E945E1FE0
:100AC000BC01CE014F960E94AC250E94661FBC015E
:100AD000CE0101960E94AC25BE016F5F7F4FCE0113
:100AE00049960E94BD1ABE01615E7F4FCE014996B4
:100AF0000E94BF0EBE016B5D7F4F0E94BF0EBC0106
:100B0000CE018B960E94BD1AAE014F5C5F4FBE01B5
:100B1000655D7F4FCE01C7960E94C721BE01695C0B
:100B20007F4F82E296E00E94D20ECE01C7960E94CD
:100B3000A00FCE018B960E94A00FCE0149960E9475
:100B4000A00FCE0101960E94A00FCE014F960E94E9
:100B5000A00FCE0185960E94A00FCE01C1960E94E3
:100B6000A00F8091F2069091F306019709F065C0FD
:100B70000E94541F68EE73E00E94EF2EBC01CE016C
:100B80008B960E94AC250E945E1FBC01CE0185960B
:100B90000E94AC250E94661FBC01CE0149960E94AE
:100BA000AC25BE01675E7F4FCE014F960E94BD1AF5
:100BB000BE016B5D7F4FCE014F960E94BF0EBE01FE
:100BC000655D7F4F0E94BF0EBC01CE01C1960E94A1
:100BD000BD1ACE0101960E949A26AE014F5C5F4F6E
:100BE000BE016F5F7F4FCE01C7960E94C721BE0135
:100BF000695C7F4F82E296E00E94D20ECE01C796DA
:100C00000E94A00FCE0101960E94A00FCE01C196B6
:100C10000E94A00FCE014F960E94A00FCE014996D0
:100C20000E94A00FCE0185960E94A00FCE018B9648
:100C30000E94A00F02C01092FB060E94FE1789E0DE
:100C400096E00E94161680EF95E00E94161687ED3A
:100C500095E00E9416168091F406811103C010924F
:100C600049062DC00E944C1C0091F5061091F60615
:100C70002091F7063091F806DC01CB01801B910B27
:100C8000A20BB30B81369A4EA105B105C0F01092AC
:100C9000F406E091F206F091F306EE0FFF1FEF5A13
:100CA000FD4F808191819093F3068093F206880F27
:100CB000991FFC01EA5FFE4F808180934906809175
:100CC000090690910A06181619063CF08091AD04A9
:100CD0009091AE04019709F0D7C081E08093A404FD
:100CE0001092BC041092BB0444E650E060E070E057
:100CF00088EE93E00E94D10F0E944C1C6093F50691
:100D00007093F6068093F7069093F8068091F206AA
:100D10009091F3069C012F5F3F4F2530310529F05C
:100D20003093F3062093F20605C002969093F306E3
:100D30008093F2068091F2069091F306069721F4D3
:100D40001092F3061092F20683E091E00E94FD11EA
:100D50008091F2069091F3060E942C128CEF90E0A5
:100D60000E94FD11E091F206F091F306EE0FFF1FD5
:100D7000EF5CFE4F808191810E942C128091F206DF
:100D80009091F306FC01EE0FFF1FEA5FFE4F2081FA
:100D9000209349060197FC01EE0FFF1FE75DFD4F11
:100DA000408151814115510509F444C09A012150F7
:100DB0003109F901EE0FFF1FEF5FFD4F6081718177
:100DC00068177907B9F54230510509F0FCC588E18B
:100DD000E3E6F1E0DE01119601900D928A95E1F7CC
:100DE0008091490190914A0183709927892B21F4C0
:100DF0008DE190E09C838B834091450150914601A9
:100E0000E0914701F09148013197EE0FFF1F81E01B
:100E100090E08C0F9D1FE80FF91F8081918184174E
:100E200095070CF0D0C58AE090E09093F30680938C
:100E3000F206FEC684E293E00E94AA118091F206B7
:100E40009091F3060E942C128EE293E00E94AA1168
:100E500080914301909144010E942C120091F2066E
:100E60001091F3060331110579F0C8010997029733
:100E700058F0809149060E948324000F111FF80149
:100E8000EF5CFE4F918380838091090690910A0662
:100E900097FD07C08091AD049091AE04019609F0D2
:100EA0002DC144E650E060E070E088EE93E00E94DF
:100EB000D10F8091F40681114DC00E944C1C6093AB
:100EC000F5067093F6068093F7069093F8068091E6
:100ED000F2069091F306892BE9F50E946E1FBC0182
:100EE000CE0185960E94AC250E94761FBC01CE01E2
:100EF0004F960E94AC250E947E1FBC01CE01019638
:100F00000E94AC25BE016F5F7F4FCE0149960E94C3
:100F1000BD1ABE01615E7F4FCE0149960E94BF0E91
:100F2000BE016B5D7F4F0E94BF0EBC0182E296E066
:100F30000E94890FCE0149960E94A00FCE01019612
:100F40000E94A00FCE014F960E94A00FCE01859661
:100F50000E94A00F8091F2069091F306019709F08C
:100F60007AC089E393E00E94AA1182E493E00E9490
:100F7000AA110E94661F90934601809345010E942A
:100F80005E1F90934801809347010E94541F68EEB2
:100F900073E00E94EF2EBC0190934A0180934901B7
:100FA0008091430190914401892B89F4CE0185966B
:100FB0000E94AC256091470170914801CE014F9687
:100FC0000E94AC25609145017091460110C0CE0190
:100FD00085960E94AC256091450170914601CE0135
:100FE0004F960E94AC256091470170914801CE0157
:100FF00001960E94AC25BE016F5F7F4FCE014996DE
:101000000E94BD1ABE01615E7F4FCE0149960E94CB
:10101000BF0EBE016B5D7F4F0E94BF0EBC0182E21E
:1010200096E00E94890FCE0149960E94A00FCE0142
:1010300001960E94A00FCE014F960E94A00FCE01F4
:1010400085960E94A00F85E493E00E94AA1182E297
:1010500096E00E943013E091F206F091F306EE0F55
:10106000FF1FEF5AFD4F208131813093F30620930B
:10107000F2062D30310549F481E090E09093520161
:101080008093510180E8809348069091F40681E0B6
:1010900089278093F4068901000F111FF801EA5F88
:1010A000FE4F808180934906A90142515109423087
:1010B000510550F02930310539F00E948324F801A0
:1010C000EF5CFE4F918380838EEE90E00E94FD11D5
:1010D0008091F2069091F3060E942C1287EE90E028
:1010E0000E94FD11E091F206F091F306EE0FFF1F52
:1010F000EF5CFE4F808191810E942C128091F0055F
:101100009091F105009739F48091AB049091AC0473
:10111000019721F507C09093A3048093A2041816A9
:10112000190694F781E08093A4041092BC041092F5
:10113000BB0444E650E060E070E088EE93E00E947B
:10114000D10F0E948D238091F406811107C0109267
:10115000CA0460E087E090E00E94FA178091A20440
:101160009091A304019661F58091F205882341F1E5
:1011700010924B068091F406882329F10E944C1CA2
:1011800000919E0410919F042091A0043091A1042D
:10119000DC01CB01801B910BA20BB30B87399105AE
:1011A000A105B10580F00E944C1C60939E047093D1
:1011B0009F048093A0049093A1040E948D2303C0F8
:1011C00081E080934B068091D7059091D8050097D8
:1011D00041F48091A9049091AA04019709F058C0A4
:1011E00007C090939D0480939C04181619068CF7F1
:1011F00011E01093A4041092BC041092BB0444E6C6
:1012000050E060E070E088EE93E00E94D10F0E9411
:101210001D238091F40681113BC01093CA0461E044
:1012200087E090E00E94FA176091040188E090E066
:101230000E94FA1760919A0489E090E00E94FA17E0
:10124000609198048AE090E00E94FA1786ED90E0A1
:101250000E941E1281ED90E00E94FD118091040118
:10126000909105010E942C128AEC90E00E94FD11E1
:1012700080919A0490919B040E942C1284EC90E03F
:101280000E94FD1180919804909199040E942C1263
:1012900080919C0490919D04019661F58091D905FF
:1012A000882341F110924A068091F406882329F19F
:1012B0000E944C1C00919404109195042091960476
:1012C00030919704DC01CB01801B910BA20BB30B77
:1012D00087399105A105B10580F00E944C1C6093EF
:1012E00094047093950480939604909397040E94BD
:1012F0001D2303C081E080934A068091F40681118A
:1013000041C08091F0059091F10597FD06C0809154
:10131000AB049091AC040196B1F444E650E060E077
:1013200070E088EE93E00E94D10F81E0809330015D
:1013300061E080E090E00E94FA178DEB90E00E945F
:101340001E120E947F228091D7059091D80597FDAB
:1013500006C08091A9049091AA04019699F444E6EC
:1013600050E060E070E088EE93E00E94D10F1092B0
:10137000300160E080E090E00E94FA1785EB90E099
:101380000E941E12E091F206F091F306E431F1059D
:1013900008F04EC4E55CFF4F0C94442F8091FB068F
:1013A000811135C00E944C1C0091600410916104B1
:1013B0002091620430916304DC01CB01801B910B0E
:1013C000A20BB30B893E9340A105B10578F00E94B2
:1013D0004C1C60936004709361048093620490934A
:1013E0006304CE0101960E949A2606C062E276E06E
:1013F000CE0101960E94BD1ABE016F5F7F4F82E24F
:1014000096E00E94D20ECE0101960E94A00F80911C
:10141000690481110DC00E944C1C60936504709397
:101420006604809367049093680481E08093690464
:101430000E944C1C00916504109166042091670481
:1014400030916804DC01CB01801B910BA20BB30B24
:10145000893E9340A105B10508F40BC10E944C1CC4
:1014600060936504709366048093670490936804A6
:101470009091640481E0892780936404882311F0AB
:1014800080ECF5C010924806F4C08091FB068111F3
:10149000EDC080918C04811113C00E944C1CDC01B2
:1014A000CB0187519C4FAF4FBF4F809388049093DF
:1014B0008904A0938A04B0938B0481E080938C0408
:1014C00080918004811144C00E94541F68EE73E033
:1014D0000E94EF2EBC01CE0101960E94AC250E9415
:1014E0005E1FBC01CE0149960E94AC250E94661F7A
:1014F000BC01CE0185960E94AC25BE016B5D7F4F7D
:10150000CE014F960E94BD1ABE01675E7F4FCE018D
:101510004F960E94BF0EBE016F5F7F4F0E94BF0EAD
:10152000BC018AE794E00E94BD1A81E080938004A8
:10153000CE014F960E94A00FCE0185960E94A00F6B
:10154000CE0149960E94A00FCE0101960E94A00FE5
:1015500080917204811107C08091430180937104CE
:1015600081E0809372040E944C1C009188041091C9
:10157000890420918A0430918B04DC01CB01801B0B
:10158000910BA20BB30B893E9340A105B10558F412
:101590008091710490E020914301309144018217C1
:1015A000930709F452C00E944C1C60938804709306
:1015B000890480938A0490938B04809143019091D5
:1015C0004401892B09F01FC30E94541F68EE73E089
:1015D0000E94EF2EBC01CE0101960E94AC250E9414
:1015E0005E1FBC01CE0149960E94AC250E94661F79
:1015F000BC01CE0185960E94AC25BE016B5D7F4F7C
:10160000CE014F960E94BD1ABE01675E7F4FCE018C
:101610004F960E94BF0EBE016F5F7F4F0E94BF0EAC
:10162000BC018AE794E00E94890FCE014F960E9488
:10163000A00FCE0185960E94A00FCE0149960E9470
:10164000A00FCE0101960E94A00F6AE774E0CE01C0
:1016500001960E94BD1ABE016F5F7F4F82E296E045
:101660000E94D20ECE0101960E94A00F80E48093CA
:1016700048060E94BC221092FA061092F906D8C2BF
:1016800060914F0170915001CE0185960E94AC256A
:1016900060914D0170914E01CE014F960E94AC2594
:1016A00060914B0170914C01CE0101960E94AC25D6
:1016B000BE016F5F7F4FCE0149960E94BD1ABE01E9
:1016C000615E7F4FCE0149960E94BF0EBE016B5DE9
:1016D0007F4F0E94BF0EBC0182E296E00E94890FFC
:1016E000CE0149960E94A00FCE0101960E94A00F44
:1016F000CE014F960E94A00FCE0185960E94A00FAA
:101700001092FA061092F9068091510190915201BF
:10171000019789F580E8809348062FC060915301B6
:10172000709154014AE0CE0149960E94A50F60E7EE
:1017300073E0CE0101960E94C61ABE01675E7F4F1C
:10174000CE0101960E94BF0E60E773E00E94A60ED4
:10175000BC0182E296E00E94890FCE0101960E94B0
:10176000A00FCE0149960E94A00F83E390E09093D2
:10177000FA068093F906109248060E94BC2258C2CD
:101780008091FB06811133C081E020915501309199
:101790005601232B09F480E00E946721AB01BC01B4
:1017A000CE0101960E94861FBE016F5F7F4F82E2CD
:1017B00096E00E94D20ECE0101960E94A00F809169
:1017C000550190915601892B51F481E390E090935B
:1017D000FA068093F90680E48093480608C083E205
:1017E00090E09093FA068093F9061092480681E003
:1017F0002091550130915601232B09F480E00E947D
:10180000672120E030E0A9010E94B02C90914806A9
:1018100087FF02C0906801C09F779093480608C276
:101820006091570170915801CE0101960E94AC253C
:10183000BE016F5F7F4FCE0149960E94BD1A6EE6D2
:1018400073E0CE0149960E94A60EBC0182E296E0AA
:101850000E94890FCE0149960E94A00FCE010196E9
:101860000E94A00F8FE090E09093FA068093F90613
:10187000809157019091580197FD03C0109248063E
:10188000D7C180E880934806D3C1809143019091ED
:101890004401892B79F46AE473E082E296E00E94C5
:1018A0002C0F83E090E090931B0180931A018CE051
:1018B00090E00EC061E573E082E296E00E942C0F9A
:1018C0008CE090E090931B0180931A0183E090E0FC
:1018D00090931D0180931C01ABC1809143019091B5
:1018E00044016091490170914A01892B89F4CE012C
:1018F00085960E94AC256091470170914801CE0108
:101900004F960E94AC25609145017091460110C030
:10191000CE0185960E94AC256091450170914601EB
:10192000CE014F960E94AC2560914701709148010D
:10193000CE0101960E94AC25BE016F5F7F4FCE01A4
:1019400049960E94BD1ABE01615E7F4FCE01499645
:101950000E94BF0EBE016B5D7F4F0E94BF0EBC0197
:1019600082E296E00E94890FCE0149960E94A00F64
:10197000CE0101960E94A00FCE014F960E94A00FAB
:10198000CE0185960E94A00F53C10E94D924E090F9
:10199000C504F090C6040091C3041091C4042091C2
:1019A000C1043091C2044091C8045091C9046091AF
:1019B000BF047091C0048091BD049091BE040E9448
:1019C000EE1D0C9455011092F4063093F30620930B
:1019D000F206232BB9F40E94541F7C010E945E1F63
:1019E0008C010E94661F9C0140914101509142016F
:1019F00060913F017091400180913D0190913E01C5
:101A00000E94EE1D8091F2069091F3060197B9F5C0
:101A100088E193E00E94AA118091450190914601CE
:101A20000E942C128DE193E00E94AA11809147013F
:101A3000909148010E942C12E0904901F0904A01D7
:101A400090E3E91A98EFF90A0091470110914801D3
:101A500080904501909046010E946E1F5C010E949B
:101A6000761F6C010E947E1F9401A501B6010E94A1
:101A7000EE1D609143018DE090E00E94FA17809185
:101A8000F2069091F3060297C1F460914B0182E057
:101A900090E00E94FA1760914D0183E090E00E946F
:101AA000FA1760914F0184E090E00E94FA1760916C
:101AB000510186E090E00E94FA178091F206909121
:101AC000F306039731F46091530181E090E00E94A6
:101AD000FA178091F2069091F306049731F4609121
:101AE00055018BE090E00E94FA178091F2069091E8
:101AF000F306059739F460915701645F8CE090E03C
:101B00000E94FA170E94541F68EE73E00E94EF2EA5
:101B1000082F0E945E1FF82E0E94661FE82E0E946A
:101B20006E1FB82E0E94761FC82E0E947E1FD82ED0
:101B300081E08093FC0488E680931E051092FD04EA
:101B400010921F0560E08BEC95E00E9468141AE08B
:101B50008B2D612F0E94E32E692FE0E18E9F600D97
:101B600011248BEC95E00E9468148C2D612F0E944B
:101B7000E32E692FF0E18F9F600D11248BEC95E02F
:101B80000E9468148D2D612F0E94E32E692F20E1A1
:101B9000829F600D11248BEC95E00E94681461E037
:101BA0008BEC95E00E9468148E2D612F0E94E32E2D
:101BB000692FE0E18E9F600D11248BEC95E00E946F
:101BC00068148F2D612F0E94E32E692FF0E18F9F03
:101BD000600D11248BEC95E00E946814802F612F1A
:101BE0000E94E32E692F20E1829F600D11248BEC6F
:101BF00095E00E94681460E08BEC95E00E94681408
:101C00000E947D1315C00E94541F68EE73E00E946D
:101C1000EF2EBC01CE0101960E94AC250E94661FEA
:101C2000BC01CE0149960E94AC250E945E1FE0CC0B
:101C3000EC960FB6F894DEBF0FBECDBFDF91CF910B
:101C40001F910F91FF90EF90DF90CF90BF90AF90DA
:101C50009F908F9008958EBD00000DB407FEFDCFBC
:101C60008EB508950E945D31CF93DF93EC0188819A
:101C70009981009711F00E94FB2F198218821D8212
:101C80001C821B821A82DF91CF9108950F931F93BC
:101C9000CF93DF93EC0188819981009729F02A8105
:101CA0003B812617370788F48B016F5F7F4F0E94B7
:101CB0009330009761F0998388831B830A832C817A
:101CC0003D81232B11F4FC01108281E001C080E0F2
:101CD000DF91CF911F910F910895FC018081918137
:101CE000009711F00C94342C60E070E0CB01089563
:101CF000EF92FF920F931F93CF93DF93FC01248108
:101D000035816115710511F480E019C04115510547
:101D1000A9F07B01EC018A01020F131FB8010E9498
:101D2000460E882389F3288139818C819D81B701F2
:101D3000820F931F0E946B311D830C8381E0DF9122
:101D4000CF911F910F91FF90EF900895CF93DF9364
:101D5000EC016115710561F0FB0101900020E9F7CC
:101D60003197AF01461B570B0E94780E811103C0BB
:101D7000CE010E94340ECE01DF91CF910895CF9312
:101D8000DF93EC01FB0144815581608171810E94E8
:101D9000780E811103C0CE010E94340ECE01DF9176
:101DA000CF9108950F931F93CF93DF938C01EB0195
:101DB000FC01808191810097B1F068817981611582
:101DC000710579F0428153812C813D81421753077F
:101DD00040F00E946B318C819D81F8019583848352
:101DE00013C00E94FB2F88819981F8019183808321
:101DF0008A819B81938382838C819D819583848357
:101E0000198218821B821A821D821C82DF91CF9157
:101E10001F910F910895EF92FF920F931F93CF930D
:101E2000DF93EC017B018A01BA010E94460E811109
:101E300004C0CE010E94340E07C01D830C83B7017D
:101E4000888199810E946B31CE01DF91CF911F91E2
:101E50000F91FF90EF900895CF93DF93EC01611500
:101E6000710559F0FB0101900020E9F73197AF01AE
:101E7000461B570B0E940B0F02C00E94340ECE016E
:101E8000DF91CF910895BF92CF92DF92EF92FF92B0
:101E90000F931F93CF93DF937C016B018A01E901BC
:101EA0002417350720F4812F8901C42FD82F64E42B
:101EB00073E0C7010E94C61AD60114968D919C91B9
:101EC000159708171907D0F48C179D0708F4EC0133
:101ED000D601ED91FC911197EC0FFD1FB08010829F
:101EE0004D915C91BA01600F711FC7010E942C0FC8
:101EF000D601ED91FC91EC0FFD1FB082C701DF917F
:101F0000CF911F910F91FF90EF90DF90CF90BF90F6
:101F10000895CF93DF93EC01FB018617970761F0DB
:101F2000608171816115710529F0448155810E949C
:101F30000B0F02C00E94340ECE01DF91CF910895A5
:101F4000FC01808191810C94FB2F0F931F93CF9301
:101F5000DF93CDB7DEB762970FB6F894DEBF0FBE42
:101F6000CDBF8C01CB01F801118210821382128245
:101F70001582148250E0BE016F5F7F4F0E945B2C80
:101F8000BE016F5F7F4FC8010E942C0F62960FB693
:101F9000F894DEBF0FBECDBFDF91CF911F910F919F
:101FA00008953F924F925F926F927F928F929F928D
:101FB000AF92BF92CF92DF92EF92FF920F931F9357
:101FC000CF93DF9300D000D0CDB7DEB720912D05A1
:101FD00027FDAAC149835A836B837C838C0161E00E
:101FE00080912C050E948C1B30902D05832D8D7FB8
:101FF0004801A12CB12C09F0B7C060E072E18AE77A
:1020000090E0A50194010E94252F29013A01690160
:102010007A0121E0C21AD108E108F1088FEFC81651
:10202000D104E104F10409F008F44CC060E472E466
:102030008FE090E0A50194010E94252F69017A01AB
:1020400091E0C91AD108E108F108A2E03A1220C0D3
:10205000BFEFCB16D104E104F10409F008F462C12A
:1020600060E970ED83E090E0A50194010E94252FC6
:1020700069017A01E1E0CE1AD108E108F108FFEF29
:10208000CF16D104E104F10409F0C0F583E065C086
:102090002FEFC216D104E104F104B1F0A8F068E416
:1020A00078EE81E090E0A50194010E94252F69015E
:1020B0007A0181E0C81AD108E108F108332009F457
:1020C000D9C027C181E001C082E0332091F045C032
:1020D000D301C2012AE0B595A795979587952A95D2
:1020E000D1F76C017D01E1E0CE1AD108E108F108D9
:1020F00085E095B5987F892B85BD66C068E478EE4C
:1021000081E090E0A50194010E94252F69017A01E8
:10211000B1E0CB1AD108E108F108EFEFCE16D104F7
:10212000E104F10409F008F4A3C064E274EF80E074
:1021300090E0A50194010E94252F69017A0191E0A8
:10214000C91AD108E108F108AFEFCA16D104E104B9
:10215000F10411F008F0B0C085E09091B100987FD3
:10216000892B8093B10030C060E072E18AE790E093
:10217000A50194010E94252F69017A01F1E0CF1A8F
:10218000D108E108F108C114D10421E0E206F1040C
:1021900088F068E478EE81E090E0A50194010E9467
:1021A000252F69017A0181E0C81AD108E108F108F8
:1021B00093E001C091E0A1E03A1206C08091810055
:1021C000887F892B8093810089819A81AB81BC8132
:1021D000892B8A2B8B2B81F0D801AA0FBB1F298159
:1021E0003A814B815C810E94EA2D28EE33E040E089
:1021F00050E00E94032F03C02FEF3FEFA90191E0B1
:102200003916A1F0A2E03A1619F131108DC0C7BC01
:10221000209328053093290540932A0550932B05D8
:1022200080916E00826080936E007EC0D0928900A3
:10223000C0928800209324053093250540932605FD
:102240005093270580916F00826080936F006CC06F
:10225000C092B300209320053093210540932205BE
:1022600050932305809170008260809370005CC061
:1022700084E073CF8FEFC816D104E104F104D1F0EC
:10228000C8F062E17AE780E090E0A50194010E9445
:10229000252F69017A01F1E0CF1AD108E108F10890
:1022A0002FEFC216D104E104F10411F008F010CFB1
:1022B00084E01FCF83E01DCF62E17AE780E090E009
:1022C000A50194010E94252F69017A0191E0C91AA4
:1022D000D108E108F108AFEFCA16D104E104F10416
:1022E000B1F0A8F0D301C2014AE0B595A795979542
:1022F00087954A95D1F76C017D01E1E0CE1AD108AE
:10230000E108F108332009F4F3CE87E026CF86E018
:10231000DCCEBFEFCB16D104E104F10409F060F686
:1023200084E0D3CE82E019CF0F900F900F900F90E2
:10233000DF91CF911F910F91FF90EF90DF90CF90A1
:10234000BF90AF909F908F907F906F905F904F90D5
:102350003F900895009769F0FC0101900020E9F793
:102360003197AF01481B590BBC018EE295E00C94EC
:102370008E1980E090E008958F929F92AF92BF9265
:102380000F931F93CF93DF93CDB7DEB7A1970FB60F
:10239000F894DEBF0FBECDBF19A2423008F44AE068
:1023A0008E010F5D1F4F842E912CA12CB12CA50105
:1023B00094010E94032FE62FB901CA0101501109AF
:1023C000EA3014F4E05D01C0E95CD801EC93232B02
:1023D000242B252B61F7C8010E94AA11A1960FB6E4
:1023E000F894DEBF0FBECDBFDF91CF911F910F914B
:1023F000BF90AF909F908F9008950F931F93CF93AE
:10240000DF938C01C0E0D0E0F801EC0FFD1F649178
:10241000662371F0E0912E05F0912F050190F08177
:10242000E02D8EE295E00995892B11F02196ECCFF5
:10243000CE01DF91CF911F910F910895CF93DF933C
:102440000E94FD11EC0182E493E00E94AA118C0F1E
:102450009D1FDF91CF910895CF92DF92EF92FF926F
:10246000CF93DF936C01990FEE08FF08F7FE1AC0B7
:10247000E0912E05F0912F050190F081E02D6DE2A5
:102480008EE295E00995EC0166277727CB016C1960
:102490007D098E099F094AE00E94BC117C01EC0E67
:1024A000FD1E06C04AE0C701B6010E94BC117C01B6
:1024B00082E493E00E94AA118E0D9F1DDF91CF91BF
:1024C000FF90EF90DF90CF900895CF93DF93682F28
:1024D00070E080E090E04AE00E94BC11EC0182E4F0
:1024E00093E00E94AA118C0F9D1FDF91CF91089558
:1024F00080912806E0912906F0912A06F8949181AE
:10250000982B91832281982F909529232283A7E0ED
:10251000B0E01197F1F7218192239183A3E2B0E01B
:102520001197F1F790817894EFECF0E03197F1F7A3
:10253000982381E009F480E0089590912806E091C5
:102540002906F0912A06392F309580FF13C0F894A0
:102550002281832F822382838181892B8183A3E23D
:10256000B0E01197F1F78281982B9283789487EDF0
:1025700090E012C0F8942281832F8223828381818C
:10258000892B8183AFEFB0E01197F1F78281982B0F
:10259000928378948FE090E00197F1F708950F937C
:1025A0001F93CF93DF93082FC8E0D0E011E081E0C4
:1025B000912F902309F480E00E949D12110F219722
:1025C000B1F7F894E0912906F0912A069181809163
:1025D0002806809598239183E0912906F0912A0698
:1025E0009281892382837894DF91CF911F910F91FB
:1025F000089590912806E0912906F0912A06F89412
:102600008181292F20958223818378948DE743E06F
:1026100050E0815021F1DA011197F1F7308139232F
:10262000C1F3F8948281822382838181892B818303
:102630007894ABE7B7E01197F1F7F89481812823FC
:102640002183A3E1B1E01197F1F78081982381E024
:1026500009F080E07894E3E6F6E03197F1F7089529
:10266000CF93DF93FC0144815581608171818EE2BB
:1026700095E00E948E19EC0182E493E00E94AA1179
:102680008C0F9D1FDF91CF9108958F929F92AF92F3
:10269000BF92CF92DF92EF92FF920E94271C4B01D4
:1026A0005C0188EEC82E83E0D82EE12CF12C0E942C
:1026B000271CDC01CB0188199909AA09BB09883EAE
:1026C0009340A105B10558F021E0C21AD108E108F4
:1026D000F10888EE880E83E0981EA11CB11CC1147D
:1026E000D104E104F10419F7FF90EF90DF90CF904F
:1026F000BF90AF909F908F90089520911F0590916B
:102700001E05213208F04AC08091FB048111FCCFE4
:1027100032E03093FB0431E03093FA043FEF309322
:10272000F9041092F8042093F704AEEFB4E047EDFB
:1027300054E0FA013E2F341B321718F43D913193C7
:10274000F9CF1092D6042091D604990F922B909332
:10275000D6049091D504913061F41092D5049091F3
:10276000D6049093BB009091BC0093FDF8CF95ECFC
:1027700001C095EE9093BC009091FB049230E1F380
:102780009091F9049F3F79F08091F904803241F0F3
:102790008091F904803331F084E005C081E003C00A
:1027A00082E001C083E01092FD0410921F05109298
:1027B000FC04089585ED8093BC008091BC0084FDED
:1027C000FCCF1092FB0408954091A306262F30E021
:1027D000240F311D21323105DCF42091FB0424301B
:1027E000C9F4FC0180E090E0861758F43091A3060C
:1027F0002191DC01AF57B94FA30FB11D2C93019666
:10280000F3CF8091A306680F6093A30680E008953C
:1028100081E0089582E008950895E091B0048091E8
:10282000AF04E81730F4F0E0E45BF94F808190E00A
:1028300008958FEF9FEF08959091B0048091AF04B9
:10284000981750F4E92FF0E0E45BF94F208130E075
:102850009F5F9093B00402C02FEF3FEFC90108952E
:102860008091AF0490E02091B004821B91090895FB
:10287000CF92DF92EF92FF920F931F93CF93DF934C
:102880007C01262F972F8A018091FC04882391F0E8
:10289000C62FD72F6E01C40ED51ECC15DD0571F0E5
:1028A0006991D701ED91FC910190F081E02DC70174
:1028B0000995F3CF642F822F0E94E413C801DF91A2
:1028C000CF911F910F91FF90EF90DF90CF900895DF
:1028D000CF93DF931F92CDB7DEB769832091FC04BD
:1028E0002223D1F020911F05203240F021E030E07A
:1028F000FC013383228380E090E015C08091FD04C9
:10290000E82FF0E0E250FB4F998190838F5F809336
:10291000FD0480931F0505C061E0CE0101960E9471
:10292000E41381E090E00F90DF91CF910895089536
:1029300080E090E00895CF92DF92EF92FF921F9394
:10294000CF93DF9390914B06911103C08FEF9FEFD0
:1029500072C090914A069923C9F3182FC091490675
:10296000D0E08091790681110DC00E944C1C6093CB
:10297000750670937606809377069093780681E0CB
:10298000809379060E944C1CC0907506D090760604
:10299000E0907706F0907806DC01CB018C199D0958
:1029A000AE09BF098D329140A105B105D8F00E9452
:1029B0004C1C60937506709376068093770690930F
:1029C00078068091740691E0982790937406992375
:1029D00029F0109273061092720604C0D093730609
:1029E000C09372062091720630917306209530953F
:1029F0004091480650E02423352326FF04C081E09F
:102A00008093710602C01092710627FF04C081E016
:102A10008093700602C0109270068091740688231D
:102A200009F494CF02C0D595C7951A95E2F7C0FF77
:102A30008DCF80E09CE3DF91CF911F91FF90EF90CD
:102A4000DF90CF9008954F925F926F927F928F9216
:102A50009F92AF92BF92CF92DF92EF92FF920F932D
:102A60001F93CF93DF934B015C018091C806909137
:102A7000C906A091CA06B091CB0688169906AA0687
:102A8000BB0609F4C2C08CE3C82ED12CE12CF12C7A
:102A9000C501B401A70196010E94032F6093CC06E3
:102AA000CA01B901A70196010E94032F6093CD06C8
:102AB000CA01B90128E130E040E050E00E94032F54
:102AC00069017A016093CE06CA01B9016C5F7F4F3C
:102AD0008F4F9F4F27E030E040E050E00E94032FEF
:102AE0006F5F6093CF06412C512C320140E004E629
:102AF00010E0C0E9D1E0242F30E02E54384FF90126
:102B0000E370FF27309789F4C901B8010E94EF2EC6
:102B1000892B31F4C901BE010E94EF2E892B29F4C3
:102B20008EE691E0A0E0B0E004C08DE691E0A0E088
:102B3000B0E0480E591E6A1E7B1ED301C201AA27AF
:102B4000BB27C816D906EA06FB0610F04F5FD3CFA5
:102B50004093D206309799F4C90164E670E00E9470
:102B6000EF2E892B39F4C90160E971E00E94EF2E44
:102B7000892B29F48EE691E0A0E0B0E004C08DE658
:102B800091E0A0E0B0E0481A590A6A0A7B0AC4182A
:102B9000D508E608F708C90164E670E00E94EF2E48
:102BA000EC01C90160E971E00E94EF2EA1EEB2E0F4
:102BB00020E0213039F4309749F4209729F4009728
:102BC00029F402C04C9103C04DE101C04CE150E03A
:102BD00060E070E0C416D506E606F70640F0C41AB9
:102BE000D50AE60AF70A2F5F11962C3011F72F5FEE
:102BF0002093D106C394C092D0068092C8069092CA
:102C0000C906A092CA06B092CB06DF91CF911F9160
:102C10000F91FF90EF90DF90CF90BF90AF909F907B
:102C20008F907F906F905F904F900895CF92DF923A
:102C3000EF92FF92CF93DF93EC010E944C1C6B014B
:102C40007C018F850E94331B21E0892B09F420E051
:102C5000298B8889811103C081E08227898B29898A
:102C60008A89281721F0CD8ADE8AEF8AF88E8D892D
:102C70009E89AF89B88DB701A601481B590B6A0B15
:102C80007B0BDB01CA01CB80DC80ED80FE80C416AB
:102C9000D506E606F70664F43A81231749F02A833D
:102CA000222331F04B895C894F5F5F4F5C8B4B8BEC
:102CB0003A8131110CC0CF80D884E984FA84C816D7
:102CC000D906EA06FB06ACF48B899C890EC0CB843E
:102CD000DC84ED84FE84C816D906EA06FB064CF4B3
:102CE0008B899C89919581959109998388831C8A08
:102CF0001B8A2A8BDF91CF91FF90EF90DF90CF90CE
:102D000008950F931F93CF93DF931F92CDB7DEB734
:102D10008C01862FF8016787408B91E04927418B12
:102D2000428B148A138A118210821282158A168AA3
:102D3000178A108E44E150E060E070E043835483D2
:102D4000658376834AEF50E060E070E04783508708
:102D50006187728748EE53E060E070E043875487F4
:102D60006587768760E029830E948C1BF801808943
:102D7000298181110BC0222349F061E087850F90E2
:102D8000DF91CF911F910F910C945C1B0F90DF91FD
:102D9000CF911F910F9108951F920F920FB60F922E
:102DA00011242F933F934F935F936F937F938F9350
:102DB0009F93AF93BF93EF93FF938091B900887F68
:102DC000803609F49CC068F5883209F45BC090F441
:102DD000803109F454C038F4882309F4F6C08830EF
:102DE00009F44DC0F6C0883109F44CC0803209F4B2
:102DF0005DC0EFC0803409F468C048F4803309F442
:102E000055C0883309F0E5C08093F904D8C08035F7
:102E100009F44FC0883509F45DC0883409F0D9C081
:102E2000D6C0883909F4C7C0A8F4883709F467C048
:102E300038F4883609F463C0803709F460C0C9C02B
:102E4000883809F4B8C0803909F45FC0803809F0C7
:102E5000C0C05BC0803B09F486C038F4803A09F4F6
:102E600066C0883A09F47FC0B4C0803C09F4A7C0AA
:102E7000883C09F4A4C0883B09F48AC0AAC08091A8
:102E8000D60410C09091F8048091F704981770F55B
:102E9000E091F80481E08E0F8093F804F0E0E952AD
:102EA000FB4F80818093BB0085EC86C08093F90442
:102EB0008EC0E091F80481E08E0F8093F804809139
:102EC000BB00F0E0E952FB4F80839091F8048091C1
:102ED000F7046EC0E091F80481E08E0F8093F8044F
:102EE0008091BB00F0E0E952FB4F80838091FA04AF
:102EF00081116DC081E08093D50484EA61C083E0D4
:102F00008093FB041092C706CFCF8091C706803212
:102F100008F051C0E091C70681E08E0F8093C7068C
:102F20008091BB00F0E0E955F94F8083BDCF85EC7F
:102F30008093BC001092FB048091C706803230F46D
:102F4000E091C706F0E0E955F94F10826091C7069D
:102F500070E0E091A506F091A60687EA96E0099553
:102F60001092C70636C084E08093FB041092A4063A
:102F70001092A306E091A106F091A2060995809116
:102F8000A306811105C081E08093A30610928106FB
:102F9000E091A40681E08E0F8093A406F0E0EF5745
:102FA000F94F80818093BB009091A4068091A30685
:102FB000981708F479CF85E88093BC000AC085ECA7
:102FC0008093BC001092FB0404C01092F9040E948C
:102FD000DA13FF91EF91BF91AF919F918F917F9104
:102FE0006F915F914F913F912F910F900FBE0F9076
:102FF0001F9018950C94DC2D0C94D42D2F923F9299
:103000004F925F926F927F928F929F92AF92BF92F8
:10301000CF92DF92EF92FF920F931F93CF93DF93A4
:1030200000D000D0CDB7DEB70E94271C00916C06FF
:1030300010916D0620916E0630916F06DC01CB0178
:10304000801B910BA20BB30B8A319144A105B105F2
:1030500008F44CC10E94271C60936C0670936D06A7
:1030600080936E0690936F0682E296E00E946D0E4A
:103070006B017C0160E08AE00E945C1B8AE0482EC4
:10308000512C612C712CC701B601A30192010E9441
:10309000252FCB01880F991FFC01E353FD4FC08002
:1030A000D18085E090E029833A834B835C830E9442
:1030B0009B141C0129813A814B815C81CA01B901B1
:1030C000A30192010E94252F660F771FFB01E35396
:1030D000FD4FA080B18084E090E029833A834B8348
:1030E0005C830E949B147C0129813A814B815C8125
:1030F000CA01B901A30192010E94252F29013A01B9
:10310000660F771FFB01E353FD4F0081118183E0C0
:1031100090E00E949B1445018E209F20A12CB12C91
:10312000AAE0880C991CAA1CBB1CAA95D1F7802385
:103130009123AC0160E070E0D501C401842B952B94
:10314000A62BB72BC220D320A60160E070E014E1CB
:10315000440F551F661F771F1A95D1F76C017D012B
:10316000C42AD52AE62AF72A80917106882319F005
:103170006894F6F802C0E894F6F880917006882307
:1031800019F06894F7F802C0E894F7F88F2D0E94C0
:103190002B0E8E2D0E942B0E8D2D0E942B0E8C2D12
:1031A0000E942B0E8AE0882E912CA12CB12CC301F9
:1031B000B201A50194010E94252FCB01880F991F10
:1031C000FC01E353FD4F0081118182E090E02983EF
:1031D0003A834B835C830E949B146C0129813A8162
:1031E0004B815C81CA01B901A50194010E94252F80
:1031F000660F771FFB01E353FD4F6080718081E014
:1032000090E029833A834B835C830E949B14C02205
:10321000D122E12CF12CF4E1CC0CDD1CEE1CFF1CC6
:10322000FA95D1F786219721A0E0B0E01AE0880F47
:10323000991FAA1FBB1F1A95D1F7C82AD92AEA2AB3
:10324000FB2A29813A814B815C81CA01B901A50120
:1032500094010E94252F660F771FFB01E353FD4F5A
:103260000081118180E090E00E949B1480239123D3
:10327000A0E0B0E0C82AD92AEA2AFB2A8091710688
:10328000882319F06894F6F802C0E894F6F8809163
:103290007006882319F06894F7F802C0E894F7F8EC
:1032A0008F2D0E942B0E8E2D0E942B0E8D2D0E9495
:1032B0002B0E8C2D0E942B0E61E08AE00F900F9058
:1032C0000F900F90DF91CF911F910F91FF90EF9092
:1032D000DF90CF90BF90AF909F908F907F906F9036
:1032E0005F904F903F902F900C945C1B0F900F902D
:1032F0000F900F90DF91CF911F910F91FF90EF9062
:10330000DF90CF90BF90AF909F908F907F906F9005
:103310005F904F903F902F9008950895CF92DF9245
:10332000EF92FF920F931F93CF93DF936C017A017B
:103330008B01C0E0D0E0CE15DF0589F0D8016D919A
:103340008D01D601ED91FC910190F081E02DC60137
:103350000995892B11F47E0102C02196ECCFC7019B
:10336000DF91CF911F910F91FF90EF90DF90CF9061
:103370000895FC01538D448D252F30E0842F90E07B
:10338000821B930B541710F0CF9608950197089560
:10339000FC01918D828D981761F0828DDF01A80F5D
:1033A000B11D5D968C91928D9F5F9F73928F90E07F
:1033B00008958FEF9FEF0895FC01918D828D9817EE
:1033C00031F0828DE80FF11D858D90E008958FEF2B
:1033D0009FEF0895FC01918D228D892F90E0805CF4
:1033E0009F4F821B91098F73992708958EE295E074
:1033F0000E94EA1921E0892B09F420E0822F089528
:10340000FC01848DDF01A80FB11DA35ABF4F2C9181
:10341000848D90E001968F739927848FA689B78950
:103420002C93A089B1898C9180648C93938D848D29
:10343000981306C00288F389E02D80818F7D8083F8
:103440000895EF92FF920F931F93CF93DF93EC01B8
:1034500081E0888F9B8D8C8D981305C0E889F98950
:10346000808185FD24C0F62E0B8D10E00F5F1F4F6D
:103470000F731127E02E8C8DE8120CC00FB607FCDD
:10348000FACFE889F989808185FFF5CFCE010E94C6
:10349000001AF1CF8B8DFE01E80FF11DE35AFF4FAB
:1034A000F0820B8FEA89FB898081806207C0EE89F8
:1034B000FF896083E889F98980818064808381E065
:1034C00090E0DF91CF911F910F91FF90EF900895C1
:1034D000CF93DF93EC01888D8823C9F0EA89FB89BB
:1034E000808185FD05C0A889B9898C9186FD0FC0B2
:1034F0000FB607FCF5CF808185FFF2CFA889B98987
:103500008C9185FFEDCFCE010E94001AE7CFDF91AD
:10351000CF91089580E090E0892B29F00E94F61960
:1035200081110C9400000895833081F028F48130DB
:1035300099F08230A1F008958730A9F08830B9F071
:103540008430D1F4809180008F7D03C08091800011
:103550008F7780938000089584B58F7702C084B5FB
:103560008F7D84BD08958091B0008F7703C08091D6
:10357000B0008F7D8093B0000895FC01118210820D
:1035800013821282158214820C94890FFC0111821D
:10359000108213821282158214826115710551F016
:1035A000FB0101900020E9F73197AF01461B570B53
:1035B0000C940B0F08951F920F920FB60F921124C7
:1035C0002F933F934F935F936F937F938F939F932B
:1035D000AF93BF93EF93FF938EE295E00E94001AA2
:1035E000FF91EF91BF91AF919F918F917F916F91DB
:1035F0005F914F913F912F910F900FBE0F901F90B1
:1036000018951F920F920FB60F9211242F938F933C
:103610009F93EF93FF93E0913E05F0913F058081EA
:10362000E0914405F091450582FD12C090818091A2
:1036300047058F5F8F7320914805821751F0E09105
:103640004705F0E0E25DFA4F958F8093470501C092
:103650008081FF91EF919F918F912F910F900FBEDD
:103660000F901F901895CF93DF93282F30E0F9012A
:10367000E054FE4F8491F901E455FE4FD491F901D5
:10368000E856FE4FC491CC2391F081110E94941A08
:10369000EC2FF0E0EE0FFF1FE257FE4FA591B49123
:1036A000EC91ED2381E090E021F480E002C080E025
:1036B00090E0DF91CF9108951F93CF93DF93282F50
:1036C00030E0F901E054FE4F8491F901E455FE4FDA
:1036D000D491F901E856FE4FC491CC23C9F0162FBE
:1036E00081110E94941AEC2FF0E0EE0FFF1FEF5EA5
:1036F000FE4FA591B4918FB7F894111105C09C911C
:10370000ED2FE095E92302C0EC91ED2BEC938FBFF8
:10371000DF91CF911F910895CF93DF9390E0FC014B
:10372000E455FE4F2491FC01E856FE4F8491882316
:1037300061F190E0880F991FFC01E25EFE4FC59198
:10374000D491FC01EF5EFE4FA591B491611109C0C7
:103750009FB7F8948881209582238883EC912E234B
:103760000BC0623061F49FB7F8943881822F809546
:1037700083238883EC912E2B2C939FBF06C08FB799
:10378000F894E8812E2B28838FBFDF91CF91089585
:103790001F93CF93DF93182FEB0161E00E948C1BE6
:1037A000209711F460E004C0CF3FD10539F461E007
:1037B000812FDF91CF911F910C945C1BE12FF0E0E2
:1037C000E054FE4FE491E330F9F048F4E130B9F011
:1037D000E230A1F584B5806284BDC8BD34C0E73055
:1037E000E9F0E83019F1E43049F580918000806219
:1037F00080938000D0938B00C0938A0024C084B54E
:10380000806884BDC7BD1FC08091800080688093A0
:103810008000D0938900C093880015C08091B000CB
:1038200080688093B000C093B3000DC08091B00059
:1038300080628093B000C093B40005C0C038D10549
:103840000CF0B5CFAFCFDF91CF911F9108953FB767
:10385000F8948091E8069091E906A091EA06B0916B
:10386000EB0626B5A89B05C02F3F19F00196A11DB8
:10387000B11D3FBFBA2FA92F982F8827820F911D06
:10388000A11DB11DBC01CD0142E0660F771F881F4D
:10389000991F4A95D1F708952FB7F8946091E406DF
:1038A0007091E5068091E6069091E7062FBF089596
:1038B0006093DF067093E0068093E1069093E20642
:1038C000DC01CB01845D9E4FAF4FBF4F8093DB0681
:1038D0009093DC06A093DD06B093DE0682E090E0D4
:1038E0009093DA068093D9060E944C1C6093D5060B
:1038F0007093D6068093D7069093D80608951F92AA
:103900000F920FB60F9211242F933F938F939F9393
:10391000AF93BF938091E4069091E506A091E606EF
:10392000B091E7063091E30623E0230F2D3720F412
:103930000196A11DB11D05C026E8230F0296A11D09
:10394000B11D2093E3068093E4069093E506A093CF
:10395000E606B093E7068091E8069091E906A0910B
:10396000EA06B091EB060196A11DB11D8093E80611
:103970009093E906A093EA06B093EB06BF91AF914E
:103980009F918F913F912F910F900FBE0F901F909D
:1039900018951F920F920FB60F9211242F933F93F9
:1039A0004F935F936F937F938F939F93EF93FF93C7
:1039B00040912005509121056091220570912305C9
:1039C000411551056105710599F08091B104E091AF
:1039D000B204F091B30490818927808314161506F0
:1039E00016061706D4F4415051096109710915C032
:1039F000809170008D7F809370009091B104E09170
:103A0000B204F091B3048081282F30E0892F90E038
:103A10008095909582239323808340932005509333
:103A200021056093220570932305FF91EF919F91EB
:103A30008F917F916F915F914F913F912F910F9057
:103A40000FBE0F901F9018951F920F920FB60F92F6
:103A500011242F933F938F939F93AF93BF93EF9333
:103A6000FF938091240590912505A0912605B091A2
:103A70002705892B8A2B8B2B51F18091B404E0917F
:103A8000B504F091B6049081892780838091240544
:103A900090912505A0912605B091270518161906C5
:103AA0001A061B064CF58091240590912505A091DE
:103AB0002605B09127050197A109B1098093240536
:103AC00090932505A0932605B093270515C08091F6
:103AD0006F008D7F80936F009091B404E091B504E6
:103AE000F091B6048081282F30E0892F90E08095F6
:103AF0009095822393238083FF91EF91BF91AF91A3
:103B00009F918F913F912F910F900FBE0F901F901B
:103B100018951F920F920FB60F9211242F933F9377
:103B20008F939F93AF93BF93EF93FF93809128055B
:103B300090912905A0912A05B0912B05892B8A2BFC
:103B40008B2B51F18091B704E091B804F091B90446
:103B50009081892780838091280590912905A091E3
:103B60002A05B0912B05181619061A061B064CF5E6
:103B70008091280590912905A0912A05B0912B05E7
:103B80000197A109B1098093280590932905A09375
:103B90002A05B0932B0515C080916E008D7F809310
:103BA0006E009091B704E091B804F091B90480815F
:103BB000282F30E0892F90E08095909582239323E1
:103BC0008083FF91EF91BF91AF919F918F913F9132
:103BD0002F910F900FBE0F901F9018953F924F920C
:103BE0005F926F927F928F929F92AF92BF92CF928D
:103BF000DF92EF92FF920F931F93CF93DF93382EB4
:103C0000962E842EF90184E6E816F1042CF082EB5E
:103C1000E81A87E0F80A03C08EE1E80EF11CE09292
:103C2000D2060093D106E093D0063092CE06909251
:103C3000CD068092CC06AE2DB0E020E833E341EE15
:103C400051E00E94EA2D2B013C0122EB37E0FF24DA
:103C500084E6C82ED12CC0E9D1E0C901825B97402F
:103C60008E159F05DCF4C90183709927892B99F47F
:103C7000C901B6010E94EF2E892B31F4C901BE01A2
:103C80000E94EF2E892B39F480E8480E81E5581EFA
:103C900081E0681E711C2F5F3F4FDFCF8EE4E81A72
:103CA00088EFF80AC70164E670E00E94EF2E6C010D
:103CB000C70160E971E00E94EF2E5C01C1E0D0E035
:103CC000112783E0E822FF24C017D1072CF5C2306A
:103CD000D10589F4E114F10471F4C114D10419F48B
:103CE000A114B10441F480E8480E8BE3581E86E22B
:103CF000681E711C0FC0DE01A052BD4FAC91B0E038
:103D000020E831E541E050E00E94EA2D460E571EC2
:103D1000681E791E2196D8CF292D30E0ACE3B0E0A3
:103D20000E942C2E6B017C01C80CD11CE11CF11CE3
:103D3000232D30E0A0E1BEE00E942C2EC60ED71E3F
:103D4000E81EF91EDF01BB27119720E831E541E0AD
:103D500050E00E944A2FDC01CB018C0D9D1DAE1D51
:103D6000BF1DBC01CD01640D751D861D971DDF9122
:103D7000CF911F910F91FF90EF90DF90CF90BF9068
:103D8000AF909F908F907F906F905F904F903F90FB
:103D90000C94581CCF92DF92EF92FF920F931F93D7
:103DA0000E944C1CC090D506D090D606E090D70655
:103DB000F090D8068B019C010C191D092E093F09B2
:103DC0008091DF069091E006A091E106B091E206B5
:103DD000083E134021053105D0F00196A11DB11D0B
:103DE0008093DF069093E006A093E106B093E2068D
:103DF000B701A60148515C4F6F4F7F4F4093D506E6
:103E00005093D6066093D7067093D806C9CF4091D9
:103E1000DB065091DC066091DD067091DE068417AA
:103E20009507A607B70788F1E091D306F091D4066D
:103E3000309759F10995611571058105910519F0C2
:103E40000E94581C22C08091DF069091E006A0914C
:103E5000E106B091E206845D9E4FAF4FBF4F809365
:103E6000DB069093DC06A093DD06B093DE0681E0CE
:103E700090E02091D9063091DA06232B11F480E0EE
:103E800090E09093DA068093D9066091DF067091F6
:103E9000E0068091E1069091E2061F910F91FF905C
:103EA000EF90DF90CF9008950E94CA1E0E942315C4
:103EB0008091D20690E08E54984F08950E94CA1EB9
:103EC0000E9423158091D10690E008950E94CA1E99
:103ED0000E9423158091D00690E008950E94CA1E8A
:103EE0000E9423158091CC0690E008950E94CA1E7E
:103EF0000E9423158091CD0690E008950E94CA1E6D
:103F00000E9423158091CE0690E008958F929F9293
:103F1000AF92BF92CF92DF92EF92FF920F931F93D7
:103F2000CF93DF93CDB7DEB72C970FB6F894DEBFF3
:103F30000FBECDBF8C016A017B01809120078111EA
:103F400013C00E944C1CDC01CB01845B9B4FAF4F24
:103F5000BF4F80931C0790931D07A0931E07B0933B
:103F60001F0781E08093200780911407811109C009
:103F70006CE673E08EE097E00E94C61A81E08093C1
:103F800014070E944C1C80901C0790901D07A09065
:103F90001E07B0901F07DC01CB0188199909AA09F7
:103FA000BB09893E9340A105B10508F477C10E9481
:103FB0004C1C60931C0770931D0780931E07909301
:103FC0001F0720E030E0A901C701B6010E94DE2EE4
:103FD00020E030E040E05FE387FD05C0C701B601A7
:103FE0000E943C2E04C0C701B6010E943B2E0E94D5
:103FF000A82E80915501909156019B0129513C4F6B
:1040000049012458334059012A55310969017B017E
:10401000892B09F095C077FF03C0F194E194F10872
:104020004AE0B701CE0107960E94A50F61E773E051
:10403000CE0101960E94C61ABE01695F7F4FCE0174
:1040400001960E94BF0E61E773E00E94A60EBC01BC
:104050008EE097E00E94890FCE0101960E94A00F8A
:10406000CE0107960E94A00F3FEC831637E093061F
:1040700020F54AE0B701CE0107960E94A50F60E740
:1040800073E0CE0101960E94C61ABE01695F7F4FA0
:10409000CE0101960E94BF0E61E773E00E94A60E5A
:1040A000BC018EE097E00E94890FCE0101960E942C
:1040B000A00FCE0107960E94A00F87ECA816B104AE
:1040C00020F54AE0B701CE0107960E94A50F6FE6E2
:1040D00073E0CE0101960E94C61ABE01695F7F4F50
:1040E000CE0101960E94BF0E61E773E00E94A60E0A
:1040F000BC018EE097E00E94890FCE0101960E94DC
:10410000A00FCE0107960E94A00F23E1C216D10492
:1041100008F0C4C04AE0B701CE0107960E94A50F7F
:104120006EE673E0CE0101960E94C61ABE01695F79
:104130007F4FCE0101960E94BF0E61E773E09FC0E2
:1041400077FF03C0F194E194F1084AE0B701CE0192
:1041500007960E94A50F61E773E0CE0101960E94C9
:10416000C61ABE01695F7F4FCE0101960E94BF0E45
:1041700061E773E00E94A60EBC018EE097E00E940A
:10418000890FCE0101960E94A00FCE0107960E94D2
:10419000A00F3FEC831637E0930640F5C7016AE0B5
:1041A00070E00E94EF2E4AE0CE0107960E94A50F14
:1041B00060E773E0CE0101960E94C61ABE01695FF6
:1041C0007F4FCE0101960E94BF0E60E773E00E9410
:1041D000A60EBC018EE097E00E94890FCE010196E9
:1041E0000E94A00FCE0107960E94A00F87ECA81690
:1041F000B10440F5C7016AE070E00E94EF2E4AE08A
:10420000CE0107960E94A50F6FE673E0CE010196DE
:104210000E94C61ABE01695F7F4FCE0101960E94BF
:10422000BF0E60E773E00E94A60EBC018EE097E02F
:104230000E94890FCE0101960E94A00FCE01079621
:104240000E94A00F23E1C216D10440F5C7016AE025
:1042500070E00E94EF2E4AE0CE0107960E94A50F63
:104260006EE673E0CE0101960E94C61ABE01695F38
:104270007F4FCE0101960E94BF0E60E773E00E945F
:10428000A60EBC018EE097E00E94890FCE01019638
:104290000E94A00FCE0107960E94A00F6EE077E06B
:1042A000C8010E94BD1AC8012C960FB6F894DEBF53
:1042B0000FBECDBFDF91CF911F910F91FF90EF9077
:1042C000DF90CF90BF90AF909F908F900895EF9226
:1042D000FF920F931F93CF93DF93E82E0E94F91262
:1042E0008CEC0E94CF1284E40E94CF120E94F9123B
:1042F0008CEC0E94CF128EEB0E94CF1208E010E0EF
:10430000D1E0C0E00E9478128111CD2BDD0F015069
:104310001109C1F708E010E0FF24F394D0E00E94F7
:1043200078128111DF29FF0C01501109C1F76C2FA0
:1043300070E07D2B6F3F8FEF780711F460E070E045
:10434000072E000C880B990B0E94B72C20E030E060
:1043500040E85DE30E94162DEE2061F026E636E689
:1043600046EE5FE30E94162D20E030E040E052E48C
:104370000E943C2E20E030E040E251E40E94162DE5
:10438000DF91CF911F910F91FF90EF9008954F9281
:104390005F926F927F928F929F92AF92BF92CF92D5
:1043A000DF92EF92FF920F931F93CF93DF9300D092
:1043B00000D000D0CDB7DEB77C014B015A0180910F
:1043C000FB06882341F08091010708E017E0A2E096
:1043D000B7E0F8014CC081E08093FB061092FA062A
:1043E0001092F90688E0682E87E0782E92E0492E38
:1043F00097E0592E00E010E00F5F1F4F680181E049
:10440000C81AD1089801A601B401CE0101960E94F4
:10441000430FCE0101960E946D0EF30161933F019F
:10442000CE0101960E94A00F9801A601B501CE0110
:1044300001960E94430FCE0101960E946D0EF2017B
:1044400061932F01CE0101960E94A00F0630110545
:1044500099F6B9CF2C9192130DC090819A3009F43E
:1044600010823196119697E0EE30F90731F0908185
:104470008A3080F79F5F9083F0CF8F5F843119F08F
:104480008093010704C0109201071092FB0664E4B8
:1044900073E0C7010E94C61AFE0131966F01F80150
:1044A00081918F014AE0B60190E00E94662CF601EE
:1044B00001900020E9F73197AF014C195D09B60171
:1044C000C7010E94780EF7E00E301F0741F7C701C1
:1044D00026960FB6F894DEBF0FBECDBFDF91CF9109
:1044E0001F910F91FF90EF90DF90CF90BF90AF9012
:1044F0009F908F907F906F905F904F90089588E08D
:1045000090E00E94FC17682F70E089E00E94C81BB1
:1045100089E090E00E94FC17682F70E086E00E941E
:10452000C81B8AE090E00E94FC17682F70E083E0CF
:104530000E94C81B84EF91E00E941E128FEE91E052
:104540000E94FD1188E090E00E94FC170E94651215
:1045500088EE91E00E94FD1189E090E00E94FC1736
:104560000E94651282EE91E00E94FD118AE090E0C7
:104570000E94FC170C9465120F931F9380915101B8
:1045800090915201892B09F455C08091000788232E
:10459000A9F00E944C1C0091FC061091FD06209190
:1045A000FE063091FF06DC01CB01801B910BA20BB4
:1045B000B30B893E9340A105B105C8F58091000772
:1045C000811138C00E947E1F20914B0130914C0117
:1045D0008217930779F50E94761F20914D01309143
:1045E0004E018217930731F50E946E1F20914F01F3
:1045F0003091500182179307E9F40E944C1C60939C
:10460000FC067093FD068093FE069093FF0681E002
:104610008093000784ED91E00E941E1280912E018C
:1046200090912F019093BC048093BB0403C010921F
:104630000007C4CF1F910F9108950E944C1C6093F6
:10464000F5067093F6068093F7069093F80680912E
:10465000F406882309F460C02091F2063091F30635
:10466000C901880F991F2131310551F0FC01EF5C20
:10467000FE4F4081518141505109518340830AC00E
:1046800040915301509154014C50510950935401A1
:1046900040935301DC01AF5CBE4F6D917C9111974B
:1046A000FC01E658FD4F40815181641775073CF4C9
:1046B000FC01E351FD4F408151814D935C932031CA
:1046C000310571F4209151013091520121303105B1
:1046D00021F420E82093480606C01092480603C043
:1046E0002930310549F0FC01EF5CFE4F608171819A
:1046F000809149060E94FA2580E394E00E94AA1165
:10470000E091F206F091F306EE0FFF1FEF5CFE4F13
:10471000808191810C942C1208950E944C1C60930E
:10472000F5067093F6068093F7069093F80680914D
:10473000F406882309F455C02091F2063091F3065F
:10474000C901880F991F2131310551F0FC01EF5C3F
:10475000FE4F408151814F5F5F4F518340830AC0BC
:104760004091530150915401445F5F4F5093540165
:1047700040935301DC01AF5CBE4F6D917C9111976A
:10478000FC01E351FD4F40815181461757073CF42E
:10479000FC01E658FD4F408151814D935C932031DF
:1047A000310519F41092480603C02930310549F04B
:1047B000FC01EF5CFE4F60817181809149060E948F
:1047C000FA2580E394E00E94AA11E091F206F091AC
:1047D000F306EE0FFF1FEF5CFE4F808191810C947A
:1047E0002C120895CF93DF93EC01019628812A3390
:1047F000D9F78981843639F51092F1061092F006C6
:1048000023964AE0FE018881219690ED980F209131
:10481000F0063091F1069A3080F4429FB001439F38
:10482000700D1124082E000C990BC097860F971F4E
:104830009093F1068093F006E5CF1216130614F458
:1048400020935C01EF01219688818F3689F48A815B
:10485000082E000C990B9C01205331093093F1066E
:104860002093F006C397059710F420935B012496DC
:104870008881823629F51092F1061092F006FE0129
:1048800032964AE0819190ED980F2091F006309198
:10489000F1069A3080F4429FB001439F700D1124BD
:1048A000082E000C990BC097860F971F9093F10666
:1048B0008093F006E7CF30935A0120935901EF011E
:1048C0002091590130915A01032E000C440B550BD5
:1048D00060E67AEE80E090E00E94252FDA01C901BF
:1048E00022E0880F991FAA1FBB1F2A95D1F780933A
:1048F000EC069093ED06A093EE06B093EF06CE0182
:10490000DF91CF910895CF92DF92EF92FF921F93A4
:10491000CF93DF93CDB7DEB72C970FB6F894DEBFF9
:104920000FBECDBF182F68E773E0CE0101960E943D
:10493000C61A133029F422E030E040E050E00FC006
:104940001C3029F424E030E042E050E008C010338D
:10495000B9F4209126063091270644E050E062E247
:1049600076E0CE0107960E94430FBE01695F7F4F3C
:10497000CE0101960E94D20ECE0107960E94A00F92
:10498000CE0101960E946D0E6B017C01CE01019655
:104990000E94A00FC6012C960FB6F894DEBF0FBE82
:1049A000CDBFDF91CF911F91FF90EF90DF90CF901F
:1049B000089581E08093FC0488E680931E051092A0
:1049C000FD0410921F0560E08BEC95E00E946814D6
:1049D0000E947D138091FB048111FCCF81E08093C4
:1049E000FB048093FA049FEF9093F9041092F8046B
:1049F00096E09093F7048093D6048091D604806D5E
:104A00008093D6048091D504813061F41092D5044E
:104A10008091D6048093BB008091BC0083FDF8CFC9
:104A200085EC01C085EE8093BC008091FB04813051
:104A3000E1F38091F804873018F48091F80401C004
:104A400087E0A7EDB4E02CE436E0F9019E2F921B3D
:104A5000981718F49D919193F9CF1092B004809318
:104A6000AF048BEC95E00E941C14982F92959F70D8
:104A70008F702AE0929F800D112490E09093C904DA
:104A80008093C8048BEC95E00E941C14982F92959B
:104A90009F708F702AE0929F800D112490E0909378
:104AA000C0048093BF048BEC95E00E941C14982FE7
:104AB0009695969596959670292F220F220F920F14
:104AC0008F70890F90E09093BE048093BD048BECAF
:104AD00095E00E941C14982F92959F708F702AE089
:104AE000929F800D112490E09093290780932807CE
:104AF0008BEC95E00E941C14982F92959F708F70FC
:104B00002AE0929F800D112490E09093C20480933C
:104B1000C1048BEC95E00E941C14982F92959F7015
:104B20008F702AE0929F800D112490E09093C4042E
:104B30008093C3048BEC95E00E941C14982F9295EF
:104B40009F708F702AE0929F800D112490E09093C7
:104B5000C6048093C50408950F931F93CF93DF93EA
:104B6000CDB7DEB762970FB6F894DEBF0FBECDBFEC
:104B70008C0177FF03C07195619571094AE06A3035
:104B800071054CF5CE010D960E94A50F61E773E00B
:104B9000CE0101960E94C61ABE016F5F7F4FCE0103
:104BA00007960E94BD1ABE01635F7F4FCE01079634
:104BB0000E94BF0EBC01C8010E94BD1ACE0107961B
:104BC0000E94A00FCE0101960E94A00FCE010D966B
:104BD0000E94A00F03C0C8010E94A50FC8016296E1
:104BE0000FB6F894DEBF0FBECDBFDF91CF911F91FE
:104BF0000F9108950F931F93CF93DF93CDB7DEB737
:104C000068970FB6F894DEBF0FBECDBF8B0183301F
:104C100091F4209126063091270642E050E062E2AE
:104C200076E0CE010D960E94430FB801CE010196A9
:104C30000E94AC2555C08C3009F042C02091260658
:104C40003091270644E050E062E276E0CE014396E0
:104C50000E94430FB801CE010D960E94AC2522E0C0
:104C600030E040E050E062E276E0CE0101960E9442
:104C7000430FBE016F5F7F4FCE0107960E94BD1AA2
:104C8000BE01635F7F4FCE0107960E94BF0EBE013B
:104C90006D5E7F4F0E94BF0EBC0182E296E00E94D3
:104CA000890FCE0107960E94A00FCE0101960E94A7
:104CB000A00FCE010D960E94A00FCE0143962DC0ED
:104CC000803369F5CE010D960E94AC2524E030E0DA
:104CD00040E050E062E276E0CE0101960E94430F90
:104CE000BE016F5F7F4FCE0107960E94BD1ABE01C5
:104CF000635F7F4FCE0107960E94BF0EBC0182E228
:104D000096E00E94890FCE0107960E94A00FCE0167
:104D100001960E94A00FCE010D960E94A00F6896EA
:104D20000FB6F894DEBF0FBECDBFDF91CF911F91BC
:104D30000F9108950F931F93CF93DF93CDB7DEB7F5
:104D400068970FB6F894DEBF0FBECDBF8C0180917F
:104D5000530190915401489791F40E946E1FBC0139
:104D6000CE0143960E94AC250E94761FBC01CE0165
:104D70000D960E94AC250E947E1FBC011FC00E94A0
:104D80006E1FBC01CE0143960E94AC250E94761F87
:104D9000BC01CE010D960E94AC250E94CA1E0E9445
:104DA00023158091CE06882339F0682F70E08D306E
:104DB00028F06C50710902C06CE070E0CE010196E1
:104DC0000E94AC25BE016F5F7F4FCE0107960E9407
:104DD000BD1ABE01635F7F4FCE0107960E94BF0ED2
:104DE000BE016D5E7F4F0E94BF0EBC01C8010E94D4
:104DF000BD1ACE0107960E94A00FCE0101960E9417
:104E0000A00FCE010D960E94A00FCE0143960E94E6
:104E1000A00FC80168960FB6F894DEBF0FBECDBFD5
:104E2000DF91CF911F910F910895CF93DF93CDB76D
:104E3000DEB7CF54D1090FB6F894DEBF0FBECDBF99
:104E4000789484B5826084BD84B5816084BD85B565
:104E5000826085BD85B5816085BD80916E00816071
:104E600080936E0010928100809181008260809317
:104E70008100809181008160809381008091800019
:104E80008160809380008091B10084608093B10044
:104E90008091B00081608093B00080917A0084603E
:104EA00080937A0080917A00826080937A0080916A
:104EB0007A00816080937A0080917A008068809384
:104EC0007A001092C1001092B0041092AF041092B8
:104ED000FD0410921F051092FB0481E08093FA04F8
:104EE0001092D50461E082E10E945C1B61E083E1E5
:104EF0000E945C1B8091B9008E7F8093B9008091E5
:104F0000B9008D7F8093B90088E48093B80085E470
:104F10008093BC00E0913E05F0913F0582E08083E4
:104F2000E0913A05F0913B051082E0913C05F0914B
:104F30003D0580E1808310924605E0914205F091A5
:104F4000430586E08083E0914005F0914105808132
:104F500080618083E0914005F09141058081886007
:104F60008083E0914005F0914105808180688083D5
:104F7000E0914005F091410580818F7D808381E043
:104F800090E00E94FC178C3019F088E190E002C09C
:104F90008CE090E0909354018093530180E090E086
:104FA0000E94FC17882321F081E08093300102C029
:104FB0001092300182E090E00E94FC178F3F29F4AC
:104FC00010924C0110924B0105C090E090934C015F
:104FD00080934B0183E090E00E94FC178F3F29F4FF
:104FE00010924E0110924D0105C090E090934E0139
:104FF00080934D0184E090E00E94FC178F3F29F4DC
:105000001092500110924F0105C090E09093500112
:1050100080934F0186E090E00E94FC178F3F29F4B7
:10502000109252011092510105C090E090935201EC
:105030008093510187E090E00E94FC178F3F19F4A4
:105040001092CA0406C091E0811101C090E09093D3
:10505000CA048BE090E00E94FC178F3F29F4109265
:1050600056011092550105C090E09093560180932F
:1050700055018CE090E00E94FC178F3F31F090E0EA
:105080000C9790935801809357018DE090E00E9417
:10509000FC178F3F29F090E09093440180934301E7
:1050A00084E891E00E94FD118091CA0490E00E9482
:1050B0002C1261E089E00E948C1B61E086E00E9476
:1050C0008C1B61E083E00E948C1B8091CB048330B9
:1050D00008F083C092E090932C05E82FF0E0E55EA5
:1050E000FE4FE491E0932D058F5F8093CB04E13078
:1050F00031F1E23009F44AC0E11172C014BC15BCB0
:1051000084B5826084BD85B5816085BD80912C05A4
:1051100090E0FC01E856FE4FE491F0E0EE0FFF1F37
:10512000EF5EFE4F259134913093B9042093B8047B
:10513000FC01E455FE4FE491E093B70451C0109296
:1051400080001092810080918100886080938100AE
:105150008091810081608093810080912C0590E096
:10516000FC01E856FE4FE491F0E0EE0FFF1FEF5E0A
:10517000FE4F259134913093B6042093B504FC0181
:10518000E455FE4FE491E093B4042AC01092B000BD
:105190001092B1008091B00082608093B000809145
:1051A000B10081608093B10080912C0590E0FC01FA
:1051B000E856FE4FE491F0E0EE0FFF1FEF5EFE4F6A
:1051C000259134913093B3042093B204FC01E4554B
:1051D000FE4FE491E093B10403C08FEF80932D055F
:1051E00080912E0190912F010E94F22390932F0124
:1051F00080932E0161E08AE00E948C1B1FB7F89417
:105200008091CC04811127C0E2EAF1E08491E6EBC1
:10521000F1E09491E82FF0E0EE0FFF1FE25EFE4F09
:10522000A591B491EC91E92321F461E08AE00E9418
:105230005C1B61E08AE00E948C1B8CB580618CBD98
:105240008CB580648CBD61E08DE00E948C1B61E0B8
:105250008BE00E948C1B8091CC048F5F8093CC04E8
:105260001FBF8CB5837F88608CBD8CB58C7F8160BF
:105270008CBD8DB581608DBD62E08EE00E948C1B7F
:1052800062E080E10E948C1B62E08FE00E948C1B38
:1052900061E082E00E948C1B04E110E020E030E03D
:1052A00000930C0610930D0620930E0630930F0604
:1052B0004EE150E060E070E040931006509311061C
:1052C000609312067093130680ED97E0A0E0B0E0C3
:1052D0008093140690931506A0931606B0931706B4
:1052E0000093F3051093F4052093F5053093F6052C
:1052F0004093F7055093F8056093F9057093FA050C
:105300008093FB059093FC05A093FD05B093FE05EB
:105310000093DA051093DB052093DC053093DD055F
:105320004093DE055093DF056093E0057093E1053F
:105330008093E2059093E305A093E405B093E5051F
:1053400085E591E00E94FD1125E030E042E050E06B
:1053500062E476E0CE0101967C010E94430F22E0D8
:1053600030E041E050E062E476E0CE01875B9F4FA1
:105370000E94430FBE01675B7F4FCE018D5B9F4F45
:105380000E94BD1A68E573E0CE018D5B9F4F0E94BD
:10539000A60EB7010E94BF0E0E943013CE018D5B96
:1053A0009F4F0E94A00FCE01875B9F4F0E94A00FCE
:1053B000C7010E94A00F8AE593E00E94AA1182E42F
:1053C00093E00E94AA118AE491E00E941E1280914B
:1053D0002E0190912F019093BC048093BB040E94F6
:1053E000F2236FEF70E089E00E94C81B0E94451312
:1053F00060E070E089E00E94C81B6FEF70E086E01B
:105400000E94C81B0E94451360E070E086E00E9485
:10541000C81B6FEF70E083E00E94C81B0E94451319
:1054200060E070E083E00E94C81B6CE673E0C70197
:105430000E94C61A63E773E0CE0107960E94C61A5F
:105440006AE773E0CE010D960E94C61A61E873E028
:10545000CE0143960E94C61A68E873E0CE014996D1
:105460000E94C61A6FE873E0CE014F960E94C61ADA
:1054700066E973E0CE0185960E94C61A6DE973E075
:10548000CE018B960E94C61A64EA73E0CE01C196E3
:105490000E94C61A6BEA73E0CE01C7960E94C61A34
:1054A00064E473E0CE01CD960E94C61A62E476E011
:1054B000CE01CD960E94890F0E944C1C2B013C010D
:1054C00028EE420E23E0521E611C711C912C1FEF2E
:1054D00094EFC92EDD24D39426E0822E3BE3A32E45
:1054E0003FE1B32E8FE00E94331B892B11F49924E6
:1054F000939480E10E94331B892B09F4912C0E9424
:105500004C1CDC01CB0184199509A609B709960149
:105510000D2C000C440B550B281739074A075B0765
:1055200018F50E944C1C2B013C01911001C01F5F1B
:105530001A3011F038F404C080EDC82E87E0D82E60
:1055400001E002C01AE000E0B701819E600D711D0C
:10555000112482E296E00E94890F82E296E00E9486
:1055600030130E94FE1701C001E0C5010197F1F759
:105570000111B8CF80913506811104C00E94F91243
:1055800081110BC01092330610923506109234062A
:1055900082E391E00E941E1267C080EF0E94CF124A
:1055A00001E0D12CC12C11E00E94781260968FAFDF
:1055B00060970E94781260969FAD6097913019F4C1
:1055C0008130C1F435C02D2D30E098131DC080917D
:1055D0003306181738F4F901E85DF94F8381802309
:1055E00049F402C0181731F090E0193060F41093BC
:1055F000340609C0ED2DF0E0E85DF94F8381802B82
:10560000838391E009C0C12EF901E85DF94F238140
:10561000802F809582238383892F0E949D121F5F94
:10562000000F11F4D39401E087E08D1508F0BCCF92
:10563000113408F4A7CFC0923306C11003C081E033
:105640008093350680912B06882309F49BCFABE22B
:10565000B6E0EDECF4E08D91819394E0E53DF9073F
:10566000D1F781E08093BA0488E291E00E941E1293
:105670008E010D5B1F4F06501109C8010E94A00F3B
:105680000E151F05C1F78091CA0481110E947F2267
:105690000E94D9240091C8041091C9040E944C1C96
:1056A0006B017C0181E08093C70411278091C804BD
:1056B0009091C90408171907A9F40E94D9240E94DF
:1056C0004C1CDC01CB018C199D09AE09BF09893B3B
:1056D0009B40A105B10550F388E691E00E941E129F
:1056E0001092C704E090C504F090C6040091C30472
:1056F0001091C4042091C1043091C2044091C804A7
:105700005091C9046091BF047091C0048091BD04A0
:105710009091BE040E94EE1D0E9430010E948A1AE0
:10572000FBCF109231051092300588EE93E0A0E097
:10573000B0E08093320590933305A0933405B09385
:1057400035052DEA32E030932F0520932E0525EC08
:1057500030E030933B0520933A0524EC30E0309361
:105760003D0520933C0520EC30E030933F0520932D
:105770003E0521EC30E0309341052093400522ECBA
:1057800030E0309343052093420526EC30E030931F
:105790004505209344051092470510924805109244
:1057A000490510924A051092CE051092CD058093BE
:1057B000CF059093D005A093D105B093D2058FEB80
:1057C00092E09093CC058093CB0569E274E082E48B
:1057D00096E00E94C61A10923D0660E087E00E94A3
:1057E0008C1BE3EBF1E0E491E0932806EFE9F1E0B4
:1057F000E491F0E0EE0FFF1FE257FE4F8591949188
:1058000090932A068093290610923306109235064B
:1058100010923406E3E3F6E0129286E0EB32F807EA
:10582000D9F76CE673E082E296E00E94C61A21E0A6
:1058300040E06EE089E096E00E94811621E040E0C1
:1058400060E180EF95E00E94811621E040E06FE08A
:1058500087ED95E00C94811682E296E00E94A00FFD
:1058600082E496E00C94A00F1F93FC0199278827EF
:10587000BC01E89411911032E9F3193010F01E3098
:10588000C8F31B3251F01D3249F4689406C00E94DF
:10589000712C610F711D811D911D119110531A30D2
:1058A000B0F33EF490958095709561957F4F8F4F42
:1058B0009F4F1F9108954532510520F4423010F05A
:1058C0000C94662CFB011082CB010895BB274A3053
:1058D00031F4992322F4BDE2909581959F4F0C9469
:1058E000872C592F482F372F262F660F771F881F99
:1058F000991F660F771F881F991F620F731F841FE0
:10590000951F660F771F881F991F0895BB27FB01FE
:105910005527AA27880F991FAA1FA41710F0A41BA8
:1059200083955051B9F7A05DAA3308F0A95DA19302
:10593000009779F7B111B1931192CB010C94A02C7F
:10594000DC01FC01672F71917723E1F7329704C0E6
:105950007C916D9370836291AE17BF07C8F3089571
:105960000E94F22C08F481E00895E89409C097FBA6
:105970003EF490958095709561957F4F8F4F9F4F26
:105980009923A9F0F92F96E9BB279395F69587956A
:1059900077956795B795F111F8CFFAF4BB0F11F42D
:1059A00060FF1BC06F5F7F4F8F4F9F4F16C08823D4
:1059B00011F096E911C0772321F09EE8872F762F0A
:1059C00005C0662371F096E8862F70E060E02AF04B
:1059D0009A95660F771F881FDAF7880F9695879537
:1059E00097F90895990F0008550FAA0BE0E8FEEF0C
:1059F00016161706E807F907C0F012161306E40793
:105A0000F50798F0621B730B840B950B39F40A268B
:105A100061F0232B242B252B21F408950A2609F469
:105A2000A140A6958FEF811D811D08950E94292D0B
:105A30000C949A2D0E948C2D38F00E94932D20F00A
:105A4000952311F00C94832D0C94892D11240C9422
:105A5000CE2D0E94AB2D70F3959FC1F3950F50E0B2
:105A6000551F629FF001729FBB27F00DB11D639F10
:105A7000AA27F00DB11DAA1F649F6627B00DA11DB6
:105A8000661F829F2227B00DA11D621F739FB00D5C
:105A9000A11D621F839FA00D611D221F749F3327CC
:105AA000A00D611D231F849F600D211D822F762F65
:105AB0006A2F11249F5750409AF0F1F088234AF042
:105AC000EE0FFF1FBB1F661F771F881F91505040AE
:105AD000A9F79E3F510580F00C94832D0C94CE2D98
