:100000000C9400010C9428010C9428010C942801F4
:100010000C9428010C9428010C9428010C9496113E
:100020000C9428010C9428010C9428010C94F111D3
:100030000C9428010C9428010C9456120C9428015D
:100040000C944C110C9428010C94940F0C946E0F8A
:100050000C9428010C9428010C9428010C9428017C
:100060000C94FC150C942801EC01EE01E201E40172
:10007000E601E801EA01DC090E0A090B570B890BBE
:10008000D90BE10DE10DE10D0E0C360C360C360CE2
:10009000E10DE10DE10DE10DE10D890BD90B496E8B
:1000A000636F727265637420536F6E6720466F7260
:1000B0006D617421005247423D6F666600524742AF
:1000C0003D6F6E00426C75653D00475245454E3DA3
:1000D000005245443D0053746F726520746F204593
:1000E0004550524F4D3A0076616C75653D006D6527
:1000F0006E75506F736974696F6E3D0076616C75D3
:10010000653D006D656E75506F736974696F6E3D06
:1001100000000000080002010000030407000000C6
:10012000000000000000000000250028002B000255
:10013000010000000000240027002A0053746F70A3
:1001400020546573740054656D702E2073656E7352
:100150006F72206E6F7420666F756E642E0053741C
:100160006172742054657374004669726D776172B0
:10017000652076657273696F6E3A20005761726E02
:10018000696E67212052544320444F4E2754205219
:100190004553504F4E4421006C6564206C6F636B77
:1001A0003D0057616B652075702C204E656F2100F6
:1001B00000000000230026002900040404040404B5
:1001C0000404020202020202030303030303010206
:1001D00004081020408001020408102001020408D5
:1001E00010204661756C74792044533332333121C9
:1001F000004453333233315F543D0000872B202CB1
:1002000011241FBECFEFD8E0DEBFCDBF27E0AAE3A9
:10021000B4E001C01D92A331B207E1F714E0A0E001
:10022000B1E0E6EEF2E602C005900D92AA33B10706
:10023000D9F710E0CFEFD0E004C02197FE010E9473
:10024000382FCE3FD107C9F70E94FB260C946631A8
:100250000C9400008F929F92AF92BF92CF92DF9248
:10026000EF92FF920F931F93CF93DF93CDB7DEB73B
:10027000EC970FB6F894DEBF0FBECDBF0E941911E8
:1002800020E137E240E050E00E94F72E672B682B18
:10029000692B29F48091210581110C948E0C109208
:1002A0009F0410929E0410929D0410929C04109240
:1002B0009B0410929A040091150510911605F801FF
:1002C0008081882309F432C10E941911C090400432
:1002D000D0904104E0904204F0904304DC01CB0153
:1002E0008C199D09AE09BF09C0903C04D0903D0413
:1002F000E0903E04F0903F04C816D906EA06FB06DB
:1003000008F014C10E9419116B017C016093400434
:1003100070934104809342049093430410923405F7
:1003200010923305A8016AE08A01FA01B0804F5F9C
:100330005F4F80ED8B0D20913305309134058A306D
:1003400080F4629FF001639FF00D11248B2DBB0C94
:10035000990BC0978E0F9F1F9093340580933305A0
:10036000E3CF60912F057091300580913105909118
:1003700032052115310529F0032E000C440B550BD5
:1003800005C020915E0130E040E050E00E94192F4E
:1003900020933C0430933D0440933E0450933F042B
:1003A0008B2DBB0C990BAA0BBB0BFC01E156F10981
:1003B000E730F10520F4EC5CFF4F0C94382F1092DD
:1003C0003B040FC081E00BC083E009C085E007C09B
:1003D00086E005C088E003C08AE001C08CE080931D
:1003E0003B04F8018181833219F00F5F1F4F07C072
:1003F00080913B048F5F80933B040E5F1F4FF80199
:1004000080818E3201F580903C0490903D04A09054
:100410003E04B0903F04C501B40122E030E040E06A
:1004200050E00E94192FD501C401820F931FA41F11
:10043000B51F80933C0490933D04A0933E04B09379
:100440003F040F5F1F4FF801808180538A3028F4EA
:1004500080933A040F5F1F4F04C080915D01809329
:100460003A0480913A04F80190819C3211F40F5FB4
:100470001F4F20913B04222309F458C080903C0474
:1004800090903D04A0903E04B0903F0490E004970B
:100490003CE0389FF001399FF00D1124E20FF11D6F
:1004A000EE0FFF1FE358FE4FB501A401808191813B
:1004B0000E94411E0E941911DC01CB018C199D097B
:1004C000AE09BF0988169906AA06BB0678F50E94F0
:1004D00019116093400470934104809342049093F7
:1004E00043048091CD05813051F0823071F081114B
:1004F00011C080916E008D7F80936E000BC0809143
:100500006F008D7F80936F0005C0809170008D7F9C
:100510008093700060E08091CC050E94EF0F8EE91F
:1005200090E00E944D2090E080E002C0902F812F4B
:1005300090931505809316050E9419110091960459
:10054000109197042091980430919904DC01CB011B
:10055000801B910BA20BB30B0697A105B10508F404
:100560009DC08091CD05813039F0823041F08111FC
:100570000CC080916E0005C080916F0002C0809118
:1005800070008695817009F07FC0809132018111E1
:1005900010C060E070E089E00E945B1060E070E0F5
:1005A00086E00E945B1060E070E083E00E945B10D8
:1005B0006BC080912405811167C0009146041091A1
:1005C0004704C801880F991F800F911FFC01EE0F8F
:1005D000FF1FE152FE4F60910601709107012081DB
:1005E0003181620F731F7093070160930601FC0154
:1005F000EE0FFF1FEF51FE4FC0908B04D0908C0484
:1006000020813181C20ED31ED0928C04C0928B0403
:10061000880F991FFC01ED51FE4FE0908904F09086
:100620008A0480819181E80EF91EF0928A04E0929A
:10063000890489E00E945B10B60186E00E945B108D
:10064000B70183E00E945B108091440490914504BF
:10065000019690934504809344048F3F910551F493
:10066000C801019690934704809346041092450474
:10067000109244048091460490914704069724F018
:1006800010924704109246040E9419116093960438
:100690007093970480939804909399048091350502
:1006A00090913605892B21F0809195048111D3C258
:1006B000809137058111CFC280915A0481110DC0FC
:1006C0000E94191160935604709357048093580444
:1006D0009093590481E080935A0480914E048111D3
:1006E0000DC00E94191160934A0470934B048093CB
:1006F0004C0490934D0481E080934E040E941911A4
:1007000000915604109157042091580430915904D7
:10071000DC01CB01801B910BA20BB30B00910001FC
:10072000109101012091020130910301081719076E
:100730002A073B0708F06FC00E9419116093560406
:1007400070935704809358049093590480914804FF
:1007500090914904009799F481E090E090933605D8
:100760008093350588E893E1A0E0B0E08093000134
:1007700090930101A0930201B09303011EC0019761
:10078000E1F484E090E0909336058093350588E8A5
:1007900093E1A0E0B0E08093000190930101A09369
:1007A0000201B093030180911405811106C082E01B
:1007B00090E090934904809348048091480490917C
:1007C00049048230910581F4109236051092350566
:1007D00040E65AEE60E070E0409300015093010162
:1007E00060930201709303010196833091052CF40C
:1007F000909349048093480404C0109249041092D5
:10080000480480919504882321F0109236051092B7
:100810003505109295040E9419110091560410910B
:1008200057042091580430915904DC01CB01801BFE
:10083000910BA20BB30B803D9740A105B10508F0C9
:1008400008C20E94191100914A0410914B04209192
:100850004C0430914D04DC01CB01801B910BA20BA9
:10086000B30B85369105A105B10508F4F4C10E94CA
:10087000191160934A0470934B0480934C04909335
:100880004D04209114058091350590913605222361
:1008900009F410C1892B89F5CE0149960E94C61D25
:1008A00081E02091570130915801232B09F480E019
:1008B0000E941319AB01BC01CE0101960E941325C1
:1008C000AE01475E5F4FBE016F5F7F4FCE014F9617
:1008D0000E947319BE01615E7F4F82EC96E00E9418
:1008E0004018CE014F960E940E19CE0101960E942B
:1008F0000E19CE0149960E940E19809135059091EE
:100900003605019709F062C00E94141568EE73E085
:100910000E94E32EBC01CE018B960E94031C0E9414
:100920001E15BC01CE0185960E94031C0E9426154F
:10093000BC01CE0149960E94031CBE01675E7F4F39
:10094000CE014F960E94500FBE016B5D7F4FCE01CE
:100950004F960E942D18BE01655D7F4F0E942D1895
:10096000BC01CE01C1960E94500FCE0101960E949B
:10097000C61DAE014F5C5F4FBE016F5F7F4FCE0162
:10098000C7960E947319BE01695C7F4F82EC96E0A6
:100990000E944018CE01C7960E940E19CE01019602
:1009A0000E940E19CE01C1960E940E19CE014F96DB
:1009B0000E940E19CE0149960E940E19CE0185960D
:1009C0000E940E19CE018B960E940E19809135055A
:1009D00090913605049709F03EC181E020915701BE
:1009E00030915801232B09F480E00E941319AB01C8
:1009F000BC01CE01C1960E9413250E94141568EE19
:100A000073E00E94E32EBC01CE0185960E94031C78
:100A10000E941E15BC01CE014F960E94031C0E942D
:100A20002615BC01CE0101960E94031CBE016F5F1A
:100A30007F4FCE0149960E94500FBE01615E7F4FED
:100A4000CE0149960E942D18BE016B5D7F4F0E941A
:100A50002D18BC01CE018B960E94500FAE014F5C49
:100A60005F4FBE01655D7F4FCE01C7960E9473192F
:100A7000BE01695C7F4F82EC96E00E944018CE0177
:100A8000C7960E940E19CE018B960E940E19CE01B8
:100A900049960E940E19CE0101960E940E19CE01B0
:100AA0004F960E940E19CE0185960E940E19CE0116
:100AB000C196CCC0892B09F062C0CE01C1960E94BC
:100AC000C61D0E94141568EE73E00E94E32EBC015F
:100AD000CE0185960E94031C0E941E15BC01CE010A
:100AE0004F960E94031C0E942615BC01CE01019660
:100AF0000E94031CBE016F5F7F4FCE0149960E948A
:100B0000500FBE01615E7F4FCE0149960E942D18A5
:100B1000BE016B5D7F4F0E942D18BC01CE018B96EC
:100B20000E94500FAE014F5C5F4FBE01655D7F4F6D
:100B3000CE01C7960E947319BE01695C7F4F82EC9B
:100B400096E00E944018CE01C7960E940E19CE0171
:100B50008B960E940E19CE0149960E940E19CE0165
:100B600001960E940E19CE014F960E940E19CE01D9
:100B700085960E940E19CE01C1960E940E19809191
:100B8000350590913605019709F065C00E9414154E
:100B900068EE73E00E94E32EBC01CE018B960E94AA
:100BA000031C0E941E15BC01CE0185960E94031CE9
:100BB0000E942615BC01CE0149960E94031CBE016D
:100BC000675E7F4FCE014F960E94500FBE016B5D56
:100BD0007F4FCE014F960E942D18BE01655D7F4F5D
:100BE0000E942D18BC01CE01C1960E94500FCE016B
:100BF00001960E94C61DAE014F5C5F4FBE016F5F44
:100C00007F4FCE01C7960E947319BE01695C7F4F6A
:100C100082EC96E00E944018CE01C7960E940E1901
:100C2000CE0101960E940E19CE01C1960E940E19A6
:100C3000CE014F960E940E19CE0149960E940E19C0
:100C4000CE0185960E940E19CE018B960E940E1938
:100C500002C010923E050E94422389EA96E00E945B
:100C6000461580E996E00E94461587E796E00E94C7
:100C7000461580913705811103C01092DD062DC005
:100C80000E941911009138051091390520913A05FB
:100C900030913B05DC01CB01801B910BA20BB30B08
:100CA00081369A4EA105B105C0F010923705E0914A
:100CB0003505F0913605EE0FFF1FED5AFD4F80818F
:100CC00091819093360580933505880F991FFC011B
:100CD000E85FFE4F80818093DD068091A9069091A8
:100CE000AA06181619063CF080919E0490919F0464
:100CF000019709F0D7C081E0809395041092160502
:100D00001092150544E650E060E070E088EE93E054
:100D10000E94411E0E941911609338057093390595
:100D200080933A0590933B05809135059091360567
:100D30009C012F5F3F4F2530310529F03093360558
:100D40002093350505C002969093360580933505AE
:100D50008091350590913605069721F4109236055D
:100D60001092350583E091E00E942C20809135059A
:100D7000909136050E945B208CEF90E00E942C2021
:100D8000E0913505F0913605EE0FFF1FED5CFE4F4B
:100D9000808191810E945B2080913505909136057C
:100DA000FC01EE0FFF1FE85FFE4F20812093DD0660
:100DB0000197FC01EE0FFF1FE55DFD4F4081518162
:100DC0004115510509F444C09A0121503109F90136
:100DD000EE0FFF1FED5FFD4F60817181681779078E
:100DE000B9F54230510509F0B7C588E1E5E6F1E013
:100DF000DE01119601900D928A95E1F780914B01E9
:100E000090914C0183709927892B21F48DE190E01A
:100E10009C838B834091470150914801E0914901A7
:100E2000F0914A013197EE0FFF1F81E090E08C0FA7
:100E30009D1FE80FF91F80819181841795070CF0A1
:100E40008BC58AE090E09093360580933505B9C64E
:100E500087E293E00E941A20809135059091360533
:100E60000E945B2081E393E00E941A20809145015B
:100E7000909146010E945B20009135051091360546
:100E80000331110579F0C8010997029758F0809154
:100E9000DD060E941D1B000F111FF801ED5CFE4FC7
:100EA000918380838091A9069091AA0697FD07C03F
:100EB00080919E0490919F04019609F02DC144E613
:100EC00050E060E070E088EE93E00E94411E809167
:100ED000370581114DC00E94191160933805709338
:100EE000390580933A0590933B05809135059091A3
:100EF0003605892BE9F50E942E15BC01CE01859699
:100F00000E94031C0E943615BC01CE014F960E9420
:100F1000031C0E943E15BC01CE0101960E94031CD9
:100F2000BE016F5F7F4FCE0149960E94500FBE01F8
:100F3000615E7F4FCE0149960E942D18BE016B5D08
:100F40007F4F0E942D18BC0182EC96E00E94F7189A
:100F5000CE0149960E940E19CE0101960E940E19EB
:100F6000CE014F960E940E19CE0185960E940E1951
:100F70008091350590913605019709F07AC08CE390
:100F800093E00E941A2085E493E00E941A200E94B8
:100F9000261590934801809347010E941E15909357
:100FA0004A01809349010E94141568EE73E00E9483
:100FB000E32EBC0190934C0180934B01809145013D
:100FC00090914601892B89F4CE0185960E94031CDD
:100FD0006091490170914A01CE014F960E94031C15
:100FE000609147017091480110C0CE0185960E9422
:100FF000031C6091470170914801CE014F960E94F9
:10100000031C6091490170914A01CE0101960E9432
:10101000031CBE016F5F7F4FCE0149960E94500FA7
:10102000BE01615E7F4FCE0149960E942D18BE0120
:101030006B5D7F4F0E942D18BC0182EC96E00E94F0
:10104000F718CE0149960E940E19CE0101960E9412
:101050000E19CE014F960E940E19CE0185960E9460
:101060000E1988E493E00E941A2082EC96E00E9418
:10107000C617E0913505F0913605EE0FFF1FED5ACA
:10108000FD4F2081318130933605209335052D3079
:10109000310549F481E090E090935401809353012D
:1010A00080E88093DC069091370581E08927809362
:1010B00037058901000F111FF801E85FFE4F80819D
:1010C0008093DD06A901425151094230510550F08B
:1010D0002930310539F00E941D1BF801ED5CFE4FEF
:1010E000918380838EEE90E00E942C2080913505C4
:1010F000909136050E945B2087EE90E00E942C20A4
:10110000E0913505F0913605EE0FFF1FED5CFE4FC7
:10111000808191810E945B20809190069091910640
:10112000009739F480919C0490919D04019721F5DA
:1011300007C090939404809393041816190694F7AB
:1011400081E080939504109216051092150544E6EF
:1011500050E060E070E088EE93E00E94411E0E9443
:10116000611D80913705811107C01092240560E050
:1011700087E090E00E94232380919304909194044F
:10118000019661F580919206882341F11092DF0665
:1011900080913705882329F10E94191100918F044D
:1011A000109190042091910430919204DC01CB01C4
:1011B000801B910BA20BB30B87399105A105B105DB
:1011C00080F00E94191160938F04709390048093B3
:1011D0009104909392040E94611D03C081E080936A
:1011E000DF068091770690917806009741F4809110
:1011F0009A0490919B04019709F058C007C09093FE
:101200008E0480938D04181619068CF711E0109344
:101210009504109216051092150544E650E060E022
:1012200070E088EE93E00E94411E0E94F11C8091C4
:10123000370581113BC01093240561E087E090E001
:101240000E9423236091060188E090E00E942323FE
:1012500060918B0489E090E00E94232360918904CF
:101260008AE090E00E94232386ED90E00E944D20CA
:1012700081ED90E00E942C20809106019091070161
:101280000E945B208AEC90E00E942C2080918B04CD
:1012900090918C040E945B2084EC90E00E942C20B2
:1012A0008091890490918A040E945B2080918D0432
:1012B00090918E04019661F580917906882341F121
:1012C0001092DE0680913705882329F10E941911BA
:1012D0000091850410918604209187043091880440
:1012E000DC01CB01801B910BA20BB30B873991055D
:1012F000A105B10580F00E941911609385047093D7
:10130000860480938704909388040E94F11C03C094
:1013100081E08093DE0680913705811141C0809184
:1013200090069091910697FD06C080919C04909143
:101330009D040196B1F444E650E060E070E088EE70
:1013400093E00E94411E81E08093320161E080E0E1
:1013500090E00E9423238DEB90E00E944D200E949C
:101360002723809177069091780697FD06C080919B
:101370009A0490919B04019699F444E650E060E051
:1013800070E088EE93E00E94411E1092320160E00E
:1013900080E090E00E94232385EB90E00E944D20A6
:1013A000E0913505F0913605E431F10508F009C406
:1013B000E55CFF4F0C94382F80913E05811125C0CC
:1013C0000E942E1520910401309105018217930788
:1013D00059F00E942E159093050180930401CE01CF
:1013E00001960E94C61D06C062EC76E0CE01019611
:1013F0000E94500FBE016F5F7F4F82EC96E00E940B
:101400004018CE0101960E940E190E942E1580FDF3
:1014100002C080ECF5C01092DC06F4C080913E055D
:101420008111EDC080917D04811113C00E941911BA
:10143000DC01CB0187519C4FAF4FBF4F80937904A4
:1014400090937A04A0937B04B0937C0481E0809312
:101450007D0480917104811144C00E94141568EECE
:1014600073E00E94E32EBC01CE0101960E94031C92
:101470000E941E15BC01CE0149960E94031C0E94C9
:101480002615BC01CE0185960E94031CBE016B5D32
:101490007F4FCE014F960E94500FBE01675E7F4F77
:1014A000CE014F960E942D18BE016F5F7F4F0E94A4
:1014B0002D18BC018BE694E00E94500F81E08093D0
:1014C0007104CE014F960E940E19CE0185960E949E
:1014D0000E19CE0149960E940E19CE0101960E9466
:1014E0000E1980916304811107C08091450180939A
:1014F000620481E0809363040E94191100917904D1
:1015000010917A0420917B0430917C04DC01CB01A2
:10151000801B910BA20BB30B893E9340A105B10533
:1015200058F48091620490E0209145013091460189
:101530008217930709F452C00E941911609379042D
:1015400070937A0480937B0490937C04809145018E
:1015500090914601892B09F01FC30E94141568EE73
:1015600073E00E94E32EBC01CE0101960E94031C91
:101570000E941E15BC01CE0149960E94031C0E94C8
:101580002615BC01CE0185960E94031CBE016B5D31
:101590007F4FCE014F960E94500FBE01675E7F4F76
:1015A000CE014F960E942D18BE016F5F7F4F0E94A3
:1015B0002D18BC018BE694E00E94F718CE014F96DF
:1015C0000E940E19CE0185960E940E19CE014996F1
:1015D0000E940E19CE0101960E940E196BE674E06E
:1015E000CE0101960E94500FBE016F5F7F4F82ECCB
:1015F00096E00E944018CE0101960E940E1980E4E8
:101600008093DC060E942B1A10923D0510923C0537
:10161000D8C26091510170915201CE0185960E940D
:10162000031C60914F0170915001CE014F960E94B2
:10163000031C60914D0170914E01CE0101960E94F4
:10164000031CBE016F5F7F4FCE0149960E94500F71
:10165000BE01615E7F4FCE0149960E942D18BE01EA
:101660006B5D7F4F0E942D18BC0182EC96E00E94BA
:10167000F718CE0149960E940E19CE0101960E94DC
:101680000E19CE014F960E940E19CE0185960E942A
:101690000E1910923D0510923C05809153019091D6
:1016A0005401019789F580E88093DC062FC0609192
:1016B0005501709156014AE0CE0149960E94240FCF
:1016C00063E773E0CE0101960E94590FBE01675E89
:1016D0007F4FCE0101960E942D1863E773E00E94B0
:1016E0001418BC0182EC96E00E94F718CE01019616
:1016F0000E940E19CE0149960E940E1983E390E0D4
:1017000090933D0580933C051092DC060E942B1AB5
:1017100058C280913E05811133C081E0209157016C
:1017200030915801232B09F480E00E941319AB017A
:10173000BC01CE0101960E941325BE016F5F7F4F51
:1017400082EC96E00E944018CE0101960E940E198C
:101750008091570190915801892B51F481E390E0D9
:1017600090933D0580933C0580E48093DC0608C09F
:1017700083E290E090933D0580933C051092DC0657
:1017800081E02091570130915801232B09F480E02A
:101790000E94131920E030E0A9010E94A42C90912E
:1017A000DC0687FF02C0906801C09F779093DC063B
:1017B00008C26091590170915A01CE0101960E94B0
:1017C000031CBE016F5F7F4FCE0149960E94500FF0
:1017D00061E773E0CE0149960E941418BC0182ECC7
:1017E00096E00E94F718CE0149960E940E19CE018C
:1017F00001960E940E198FE090E090933D05809332
:101800003C058091590190915A0197FD03C01092B7
:10181000DC06D7C180E88093DC06D3C18091450106
:1018200090914601892B79F46DE473E082EC96E0A7
:101830000E949A1883E090E090931D0180931C0110
:101840008CE090E00EC064E573E082EC96E00E94CC
:101850009A188CE090E090931D0180931C0183E026
:1018600090E090931F0180931E01ABC180914501D0
:101870009091460160914B0170914C01892B89F444
:10188000CE0185960E94031C6091490170914A0126
:10189000CE014F960E94031C609147017091480150
:1018A00010C0CE0185960E94031C60914701709183
:1018B0004801CE014F960E94031C6091490170912E
:1018C0004A01CE0101960E94031CBE016F5F7F4F4B
:1018D000CE0149960E94500FBE01615E7F4FCE013E
:1018E00049960E942D18BE016B5D7F4F0E942D18F6
:1018F000BC0182EC96E00E94F718CE0149960E9446
:101900000E19CE0101960E940E19CE014F960E942B
:101910000E19CE0185960E940E1953C10E94731BA9
:10192000E0901F05F090200500911D0510911E0507
:1019300020911B0530911C054091220550912305F3
:101940006091190570911A058091170590911805FD
:101950000E94BB120C944F0110923705309336054C
:1019600020933505232BB9F40E9414157C010E94A5
:101970001E158C010E9426159C0140914301509137
:101980004401609141017091420180913F01909129
:1019900040010E94BB128091350590913605019758
:1019A000B9F58BE193E00E941A2080914701909154
:1019B00048010E945B2080E293E00E941A208091FF
:1019C000490190914A010E945B20E0904B01F09008
:1019D0004C0190E3E91A98EFF90A0091490110913E
:1019E0004A0180904701909048010E942E155C01A9
:1019F0000E9436156C010E943E159401A501B601A6
:101A00000E94BB12609145018DE090E00E9423236B
:101A100080913505909136050297C1F460914D0192
:101A200082E090E00E94232360914F0183E090E0E8
:101A30000E9423236091510184E090E00E942323BF
:101A40006091530186E090E00E9423238091350548
:101A500090913605039731F46091550181E090E053
:101A60000E9423238091350590913605049731F427
:101A7000609157018BE090E00E942323809135050F
:101A800090913605059739F460915901645F8CE0B7
:101A900090E00E9423230E94141568EE73E00E94D8
:101AA000E32E082F0E941E15F82E0E942615E82E00
:101AB0000E942E15B82E0E943615C82E0E943E1583
:101AC000D82E81E08093530588E6809375051092A7
:101AD00054051092760560E08BE696E00E945E2247
:101AE0001AE08B2D612F0E94D72E692FE0E18E9F87
:101AF000600D11248BE696E00E945E228C2D612FF2
:101B00000E94D72E692FF0E18F9F600D11248BE684
:101B100096E00E945E228D2D612F0E94D72E692FA4
:101B200020E1829F600D11248BE696E00E945E22E8
:101B300061E08BE696E00E945E228E2D612F0E946E
:101B4000D72E692FE0E18E9F600D11248BE696E081
:101B50000E945E228F2D612F0E94D72E692FF0E107
:101B60008F9F600D11248BE696E00E945E22802FED
:101B7000612F0E94D72E692F20E1829F600D1124D2
:101B80008BE696E00E945E2260E08BE696E00E9483
:101B90005E220E94262115C00E94141568EE73E093
:101BA0000E94E32EBC01CE0101960E94031C0E94FC
:101BB0002615BC01CE0149960E94031C0E941E15E9
:101BC000E0CCEC960FB6F894DEBF0FBECDBFDF9130
:101BD000CF911F910F91FF90EF90DF90CF90BF902A
:101BE000AF909F908F9008950895CF92DF92EF92DB
:101BF000FF920F931F93CF93DF936C017A018B01B8
:101C0000C0E0D0E0CE15DF0589F0D8016D918D01DF
:101C1000D601ED91FC910190F081E02DC60109956E
:101C2000892B11F47E0102C02196ECCFC701DF9110
:101C3000CF911F910F91FF90EF90DF90CF9008957B
:101C4000FC01538D448D252F30E0842F90E0821BC2
:101C5000930B541710F0CF96089501970895FC0147
:101C6000918D828D981761F0828DDF01A80FB11DD3
:101C70005D968C91928D9F5F9F73928F90E00895F7
:101C80008FEF9FEF0895FC01918D828D981731F0B1
:101C9000828DE80FF11D858D90E008958FEF9FEF05
:101CA0000895FC01918D228D892F90E0805C9F4FDB
:101CB000821B91098F73992708958EEC95E00E94FD
:101CC000510E21E0892B09F420E0822F0895FC01B8
:101CD000848DDF01A80FB11DA35ABF4F2C91848DB5
:101CE00090E001968F739927848FA689B7892C93EA
:101CF000A089B1898C9180648C93938D848D981385
:101D000006C00288F389E02D80818F7D808308954D
:101D1000EF92FF920F931F93CF93DF93EC0181E03B
:101D2000888F9B8D8C8D981305C0E889F9898081F7
:101D300085FD24C0F62E0B8D10E00F5F1F4F0F7333
:101D40001127E02E8C8DE8120CC00FB607FCFACFDD
:101D5000E889F989808185FFF5CFCE010E94670E61
:101D6000F1CF8B8DFE01E80FF11DE35AFF4FF0829A
:101D70000B8FEA89FB898081806207C0EE89FF8929
:101D80006083E889F98980818064808381E090E0C4
:101D9000DF91CF911F910F91FF90EF900895CF9316
:101DA000DF93EC01888D8823C9F0EA89FB89808163
:101DB00085FD05C0A889B9898C9186FD0FC00FB635
:101DC00007FCF5CF808185FFF2CFA889B9898C9176
:101DD00085FFEDCFCE010E94670EE7CFDF91CF9157
:101DE000089580E090E0892B29F00E945D0E81111A
:101DF0000C9400000895833081F028F4813099F02C
:101E00008230A1F008958730A9F08830B9F084308D
:101E1000D1F4809180008F7D03C0809180008F7706
:101E200080938000089584B58F7702C084B58F7D3C
:101E300084BD08958091B0008F7703C08091B00079
:101E40008F7D8093B00008950F931F93CF93DF93FE
:101E5000CDB7DEB762970FB6F894DEBF0FBECDBF29
:101E60008C01CB01F801118210821382128215823B
:101E7000148250E0BE016F5F7F4F0E944F2CBE0165
:101E80006F5F7F4FC8010E949A1862960FB6F89450
:101E9000DEBF0FBECDBFDF91CF911F910F9108958F
:101EA000FC011182108213821282158214820C941A
:101EB000F718FC011182108213821282158214829B
:101EC0006115710551F0FB0101900020E9F7319790
:101ED000AF01461B570B0C94791808951F920F926F
:101EE0000FB60F9211242F933F934F935F936F93ED
:101EF0007F938F939F93AF93BF93EF93FF938EEC5A
:101F000095E00E94670EFF91EF91BF91AF919F9175
:101F10008F917F916F915F914F913F912F910F9092
:101F20000FBE0F901F9018951F920F920FB60F9231
:101F300011242F938F939F93EF93FF93E091DE05EE
:101F4000F091DF058081E091E405F091E50582FDE7
:101F500012C090818091E7058F5F8F732091E80513
:101F6000821751F0E091E705F0E0E253FA4F958FC8
:101F70008093E70501C08081FF91EF919F918F9140
:101F80002F910F900FBE0F901F901895CF93DF9356
:101F9000282F30E0F901EF5EFE4F8491F901E25302
:101FA000FE4FD491F901E654FE4FC491CC2391F039
:101FB00081110E94FB0EEC2FF0E0EE0FFF1FE055A9
:101FC000FE4FA591B491EC91ED2381E090E021F4D6
:101FD00080E002C080E090E0DF91CF9108951F93F0
:101FE000CF93DF93282F30E0F901EF5EFE4F84910D
:101FF000F901E253FE4FD491F901E654FE4FC4912A
:10200000CC23C9F0162F81110E94FB0EEC2FF0E0BB
:10201000EE0FFF1FEB5DFE4FA591B4918FB7F894C3
:10202000111105C09C91ED2FE095E92302C0EC91C0
:10203000ED2BEC938FBFDF91CF911F910895CF933C
:10204000DF9390E0FC01E253FE4F2491FC01E65443
:10205000FE4F8491882361F190E0880F991FFC0165
:10206000EE5CFE4FC591D491FC01EB5DFE4FA59156
:10207000B491611109C09FB7F8948881209582239B
:102080008883EC912E230BC0623061F49FB7F894E3
:102090003881822F809583238883EC912E2B2C937B
:1020A0009FBF06C08FB7F894E8812E2B28838FBF7F
:1020B000DF91CF9108951F93CF93DF93182FEB01FA
:1020C00061E00E941F10209711F460E004C0CF3F30
:1020D000D10539F461E0812FDF91CF911F910C94EC
:1020E000EF0FE12FF0E0EF5EFE4FE491E330F9F007
:1020F00048F4E130B9F0E230A1F584B5806284BDE6
:10210000C8BD34C0E730E9F0E83019F1E43049F5F2
:1021100080918000806280938000D0938B00C09378
:102120008A0024C084B5806884BDC7BD1FC080916B
:102130008000806880938000D0938900C0938800DD
:1021400015C08091B00080688093B000C093B30048
:102150000DC08091B00080628093B000C093B40045
:1021600005C0C038D1050CF0B5CFAFCFDF91CF910E
:102170001F9108953FB7F894809107059091080545
:10218000A0910905B0910A0526B5A89B05C02F3F6F
:1021900019F00196A11DB11D3FBFBA2FA92F982F8D
:1021A0008827820F911DA11DB11DBC01CD0142E008
:1021B000660F771F881F991F4A95D1F708958F9250
:1021C0009F92AF92BF92CF92DF92EF92FF926B01FC
:1021D0007C010E94BA104B015C01C114D104E104DE
:1021E000F104F1F00E94BA10DC01CB0188199909C1
:1021F000AA09BB09883E9340A105B10570F321E00F
:10220000C21AD108E108F10888EE880E83E0981E12
:10221000A11CB11CC114D104E104F10419F7DDCFF4
:10222000FF90EF90DF90CF90BF90AF909F908F90F6
:1022300008952FB7F894609103057091040580917B
:102240000505909106052FBF08956093FE047093D5
:10225000FF048093000590930105DC01CB01845DB0
:102260009E4FAF4FBF4F8093FA049093FB04A0930F
:10227000FC04B093FD0482E090E09093F904809315
:10228000F8040E9419116093F4047093F50480938C
:10229000F6049093F70408951F920F920FB60F92D1
:1022A00011242F933F938F939F93AF93BF9380916C
:1022B000030590910405A0910505B09106053091A4
:1022C000020523E0230F2D3720F40196A11DB11D37
:1022D00005C026E8230F0296A11DB11D209302051B
:1022E0008093030590930405A0930505B09306051C
:1022F0008091070590910805A0910905B0910A0504
:102300000196A11DB11D8093070590930805A09328
:102310000905B0930A05BF91AF919F918F913F91AD
:102320002F910F900FBE0F901F9018951F920F9234
:102330000FB60F9211242F933F934F935F936F9398
:102340007F938F939F93EF93FF934091C00550919C
:10235000C1056091C2057091C30541155105610524
:10236000710599F080910B05E0910C05F0910D0538
:102370009081892780831416150616061706D4F453
:10238000415051096109710915C0809170008D7F1C
:102390008093700090910B05E0910C05F0910D0574
:1023A0008081282F30E0892F90E0809590958223BE
:1023B000932380834093C0055093C1056093C20569
:1023C0007093C305FF91EF919F918F917F916F91D2
:1023D0005F914F913F912F910F900FBE0F901F90E3
:1023E00018951F920F920FB60F9211242F933F93BF
:1023F0008F939F93AF93BF93EF93FF938091C40507
:102400009091C505A091C605B091C705892B8A2B6F
:102410008B2B51F180910E05E0910F05F091100585
:102420009081892780838091C4059091C505A091F2
:10243000C605B091C705181619061A061B064CF5F5
:102440008091C4059091C505A091C605B091C705BE
:102450000197A109B1098093C4059093C505A09384
:10246000C605B093C70515C080916F008D7F80931E
:102470006F0090910E05E0910F05F091100580819D
:10248000282F30E0892F90E0809590958223932328
:102490008083FF91EF91BF91AF919F918F913F9179
:1024A0002F910F900FBE0F901F9018951F920F92B3
:1024B0000FB60F9211242F933F938F939F93AF9357
:1024C000BF93EF93FF938091C8059091C905A091A8
:1024D000CA05B091CB05892B8A2B8B2B51F18091AA
:1024E0001105E0911205F0911305908189278083F1
:1024F0008091C8059091C905A091CA05B091CB05FE
:10250000181619061A061B064CF58091C8059091FD
:10251000C905A091CA05B091CB050197A109B109E0
:102520008093C8059093C905A093CA05B093CB05C5
:1025300015C080916E008D7F80936E009091110583
:10254000E0911205F09113058081282F30E0892F4A
:1025500090E080959095822393238083FF91EF9163
:10256000BF91AF919F918F913F912F910F900FBE8F
:102570000F901F9018953F924F925F926F927F92AB
:102580008F929F92AF92BF92CF92DF92EF92FF9283
:102590000F931F93CF93DF93382E962E842EF9013D
:1025A00084E6E816F1042CF082EBE81A87E0F80ADA
:1025B00003C08EE1E80EF11CE092C7040093C6044C
:1025C000E093C5043092C3049092C2048092C10487
:1025D000AE2DB0E020E833E341EE51E00E94DE2D65
:1025E0002B013C0122EB37E0FF2484E6C82ED12CDE
:1025F000C0E9D1E0C901825B97408E159F05DCF4EC
:10260000C90183709927892B99F4C901B6010E94E9
:10261000E32E892B31F4C901BE010E94E32E892BE0
:1026200039F480E8480E81E5581E81E0681E711C6F
:102630002F5F3F4FDFCF8EE4E81A88EFF80AC7011B
:1026400064E670E00E94E32E6C01C70160E971E06E
:102650000E94E32E5C01C1E0D0E0112783E0E82274
:10266000FF24C017D1072CF5C230D10589F4E1143D
:10267000F10471F4C114D10419F4A114B10441F4AA
:1026800080E8480E8BE3581E86E2681E711C0FC05E
:10269000DE01A658BD4FAC91B0E020E831E541E045
:1026A00050E00E94DE2D460E571E681E791E2196B0
:1026B000D8CF292D30E0ACE3B0E00E94202E6B0192
:1026C0007C01C80CD11CE11CF11C232D30E0A0E1E1
:1026D000BEE00E94202EC60ED71EE81EF91EDF01A6
:1026E000BB27119720E831E541E050E00E943E2FE2
:1026F000DC01CB018C0D9D1DAE1DBF1DBC01CD01AC
:10270000640D751D861D971DDF91CF911F910F914F
:10271000FF90EF90DF90CF90BF90AF909F908F9001
:102720007F906F905F904F903F900C942511CF92C7
:10273000DF92EF92FF920F931F930E941911C090A6
:10274000F404D090F504E090F604F090F7048B01C7
:102750009C010C191D092E093F098091FE049091DE
:10276000FF04A0910005B0910105083E134021052A
:102770003105D0F00196A11DB11D8093FE04909308
:10278000FF04A0930005B0930105B701A6014851CD
:102790005C4F6F4F7F4F4093F4045093F504609368
:1027A000F6047093F704C9CF4091FA045091FB04EA
:1027B0006091FC047091FD0484179507A607B70784
:1027C00088F1E091F204F091F304309759F1099502
:1027D000611571058105910519F00E94251122C02E
:1027E0008091FE049091FF04A0910005B091010535
:1027F000845D9E4FAF4FBF4F8093FA049093FB04CC
:10280000A093FC04B093FD0481E090E02091F804D3
:102810003091F904232B11F480E090E09093F904B7
:102820008093F8046091FE047091FF04809100058C
:10283000909101051F910F91FF90EF90DF90CF9045
:1028400008954F925F926F927F928F929F92AF9274
:10285000BF92CF92DF92EF92FF920F931F93CF938D
:10286000DF934B015C018091EE049091EF04A09105
:10287000F004B091F10488169906AA06BB0609F483
:10288000C2C08CE3C82ED12CE12CF12CC501B401BF
:10289000A70196010E94F72E6093C104CA01B901F5
:1028A000A70196010E94F72E6093C204CA01B901E4
:1028B00028E130E040E050E00E94F72E69017A0103
:1028C0006093C304CA01B9016C5F7F4F8F4F9F4F64
:1028D00027E030E040E050E00E94F72E6F5F609309
:1028E000C404412C512C320140E004E610E0C0E960
:1028F000D1E0242F30E02E54384FF901E370FF2748
:10290000309789F4C901B8010E94E32E892B31F474
:10291000C901BE010E94E32E892B29F48EE691E0C5
:10292000A0E0B0E004C08DE691E0A0E0B0E0480E89
:10293000591E6A1E7B1ED301C201AA27BB27C816D7
:10294000D906EA06FB0610F04F5FD3CF4093C704C9
:10295000309799F4C90164E670E00E94E32E892B58
:1029600039F4C90160E971E00E94E32E892B29F452
:102970008EE691E0A0E0B0E004C08DE691E0A0E03A
:10298000B0E0481A590A6A0A7B0AC418D508E60852
:10299000F708C90164E670E00E94E32EEC01C9016A
:1029A00060E971E00E94E32EABE7B2E020E0213065
:1029B00039F4309749F4209729F4009729F402C09C
:1029C0004C9103C04DE101C04CE150E060E070E08B
:1029D000C416D506E606F70640F0C41AD50AE60A7C
:1029E000F70A2F5F11962C3011F72F5F2093C60442
:1029F000C394C092C5048092EE049092EF04A0921A
:102A0000F004B092F104DF91CF911F910F91FF90EC
:102A1000EF90DF90CF90BF90AF909F908F907F907E
:102A20006F905F904F9008950E9497130E94211419
:102A30008091C70490E08E54984F08950E94971398
:102A40000E9421148091C60490E008950E9497137B
:102A50000E9421148091C50490E008950E9497136C
:102A60000E9421148091C10490E008950E94971360
:102A70000E9421148091C20490E008950E9497134F
:102A80000E9421148091C30490E00895CF92DF92B8
:102A9000EF92FF92CF93DF93EC010E9419116B012B
:102AA0007C018F850E94C60F21E0892B09F420E06C
:102AB000298B8889811103C081E08227898B29892C
:102AC0008A89281721F0CD8ADE8AEF8AF88E8D89CF
:102AD0009E89AF89B88DB701A601481B590B6A0BB7
:102AE0007B0BDB01CA01CB80DC80ED80FE80C4164D
:102AF000D506E606F70664F43A81231749F02A83DF
:102B0000222331F04B895C894F5F5F4F5C8B4B8B8D
:102B10003A8131110CC0CF80D884E984FA84C81678
:102B2000D906EA06FB06ACF48B899C890EC0CB84DF
:102B3000DC84ED84FE84C816D906EA06FB064CF454
:102B40008B899C89919581959109998388831C8AA9
:102B50001B8A2A8BDF91CF91FF90EF90DF90CF906F
:102B600008950F931F93CF93DF931F92CDB7DEB7D6
:102B70008C01862FF8016787408B91E04927418BB4
:102B8000428B148A138A118210821282158A168A45
:102B9000178A108E44E150E060E070E04383548374
:102BA000658376834AEF50E060E070E047835087AA
:102BB0006187728748EE53E060E070E04387548796
:102BC0006587768760E029830E941F10F80180895D
:102BD000298181110BC0222349F061E087850F9084
:102BE000DF91CF911F910F910C94EF0F0F90DF9118
:102BF000CF911F910F9108951F920F920FB60F92D0
:102C000011242F933F934F935F936F937F938F93F1
:102C10009F93AF93BF93EF93FF938091B900887F09
:102C2000803609F49CC068F5883209F45BC090F4E2
:102C3000803109F454C038F4882309F4F6C0883090
:102C400009F44DC0F6C0883109F44CC0803209F453
:102C50005DC0EFC0803409F468C048F4803309F4E3
:102C600055C0883309F0E5C080939B05D8C08035F6
:102C700009F44FC0883509F45DC0883409F0D9C023
:102C8000D6C0883909F4C7C0A8F4883709F467C0EA
:102C900038F4883609F463C0803709F460C0C9C0CD
:102CA000883809F4B8C0803909F45FC0803809F069
:102CB000C0C05BC0803B09F486C038F4803A09F498
:102CC00066C0883A09F47FC0B4C0803C09F4A7C04C
:102CD000883C09F4A4C0883B09F48AC0AAC080914A
:102CE000980510C090919A0580919905981770F5F4
:102CF000E0919A0581E08E0F80939A05F0E0E95803
:102D0000FA4F80818093BB0085EC86C080939B0541
:102D10008EC0E0919A0581E08E0F80939A05809194
:102D2000BB00F0E0E958FA4F808390919A058091BA
:102D300099056EC0E0919A0581E08E0F80939A0507
:102D40008091BB00F0E0E958FA4F808380919C05A8
:102D500081116DC081E08093970584EA61C083E0B2
:102D600080939D051092ED04CFCF8091ED048032C9
:102D700008F051C0E091ED0481E08E0F8093ED04E6
:102D80008091BB00F0E0E353FB4F8083BDCF85EC27
:102D90008093BC0010929D058091ED04803230F448
:102DA000E091ED04F0E0E353FB4F10826091ED04FD
:102DB00070E0E091CB04F091CC048DEC94E00995A7
:102DC0001092ED0436C084E080939D051092CA04F1
:102DD0001092C004E091C804F091C9040995809153
:102DE000C004811105C081E08093C0041092A0044A
:102DF000E091CA0481E08E0F8093CA04F0E0E056AF
:102E0000FB4F80818093BB009091CA048091C004E5
:102E1000981708F479CF85E88093BC000AC085EC48
:102E20008093BC0010929D0504C010929B050E94E7
:102E30001923FF91EF91BF91AF919F918F917F9156
:102E40006F915F914F913F912F910F900FBE0F9017
:102E50001F9018950E945131CF93DF93EC01888128
:102E60009981009711F00E94EF2F198218821D821C
:102E70001C821B821A82DF91CF9108950F931F93BA
:102E8000CF93DF93EC0188819981009729F02A8103
:102E90003B812617370788F48B016F5F7F4F0E94B5
:102EA0008730009761F0998388831B830A832C8184
:102EB0003D81232B11F4FC01108281E001C080E0F0
:102EC000DF91CF911F910F9108950F931F93CF938F
:102ED000DF93082FC8E0D0E011E081E0912F90232C
:102EE00009F480E00E94A821110F2197B1F7F8940E
:102EF000E091C906F091CA0691818091C80680953B
:102F000098239183E091C906F091CA0692818923A2
:102F100082837894DF91CF911F910F9108959091C2
:102F2000C806E091C906F091CA06F8948181292F5C
:102F300020958223818378948DE743E050E081508F
:102F400021F1DA011197F1F730813923C1F3F894B7
:102F50008281822382838181892B81837894ABE76C
:102F6000B7E01197F1F7F894818128232183A3E139
:102F7000B1E01197F1F78081982381E009F080E0BA
:102F80007894E3E6F6E03197F1F70895CF93DF9375
:102F9000FC0144815581608171818EEC95E00E9435
:102FA000F50DEC0185E493E00E941A208C0F9D1F23
:102FB000DF91CF910895FC0180819181009711F0FC
:102FC0000C94282C60E070E0CB010895EF92FF9202
:102FD0000F931F93CF93DF93FC01248135816115FB
:102FE000710511F480E019C041155105A9F07B016C
:102FF000EC018A01020F131FB8010E943E178823BB
:1030000089F3288139818C819D81B701820F931FBB
:103010000E945F311D830C8381E0DF91CF911F916E
:103020000F91FF90EF900895CF93DF93EC0161151E
:10303000710561F0FB0101900020E9F73197AF01C4
:10304000461B570B0E94E617811103C0CE010E9458
:103050002C17CE01DF91CF910895CF93DF93EC0130
:10306000FB0144815581608171810E94E6178111C5
:1030700003C0CE010E942C17CE01DF91CF9108959D
:103080000F931F93CF93DF938C01EB01FC018081A1
:1030900091810097B1F0688179816115710579F0AE
:1030A000428153812C813D814217530740F00E9499
:1030B0005F318C819D81F8019583848313C00E94C8
:1030C000EF2F88819981F801918380838A819B8188
:1030D000938382838C819D81958384831982188256
:1030E0001B821A821D821C82DF91CF911F910F914A
:1030F0000895EF92FF920F931F93CF93DF93EC010C
:103100007B018A01BA010E943E17811104C0CE01E1
:103110000E942C1707C01D830C83B70188819981F9
:103120000E945F31CE01DF91CF911F910F91FF90EF
:10313000EF900895CF93DF93EC016115710559F07D
:10314000FB0101900020E9F73197AF01461B570BB7
:103150000E94791802C00E942C17CE01DF91CF91F6
:103160000895BF92CF92DF92EF92FF920F931F9339
:10317000CF93DF937C016B018A01E90124173507A6
:1031800020F4812F8901C42FD82F67E473E0C70191
:103190000E94590FD60114968D919C91159708178E
:1031A0001907D0F48C179D0708F4EC01D601ED91B6
:1031B000FC911197EC0FFD1FB08010824D915C9136
:1031C000BA01600F711FC7010E949A18D601ED91D4
:1031D000FC91EC0FFD1FB082C701DF91CF911F91D1
:1031E0000F91FF90EF90DF90CF90BF900895CF9315
:1031F000DF93EC01FB018617970761F06081718115
:103200006115710529F0448155810E94791802C029
:103210000E942C17CE01DF91CF910895FC0180818F
:1032200091810C94EF2FEF92FF920F931F93CF9306
:10323000DF93E82E0E948F178CEC0E94651784E4C0
:103240000E9465170E948F178CEC0E9465178EEB09
:103250000E94651708E010E0D1E0C0E00E948321E1
:103260008111CD2BDD0F01501109C1F708E010E0ED
:10327000FF24F394D0E00E9483218111DF29FF0C09
:1032800001501109C1F76C2F70E07D2B6F3F8FEF5C
:10329000780711F460E070E0072E000C880B990BA2
:1032A0000E94AB2C20E030E040E85DE30E940A2D54
:1032B000EE2061F026E636E646EE5FE30E940A2D38
:1032C00020E030E040E052E40E94302E20E030E088
:1032D00040E251E40E940A2DDF91CF911F910F919E
:1032E000FF90EF9008954F925F926F927F928F922E
:1032F0009F92AF92BF92CF92DF92EF92FF920F9385
:103300001F93CF93DF9300D000D000D0CDB7DEB7AE
:103310007C014B015A0180913E05882341F0809148
:1033200046050DE415E0A7E4B5E0F8014CC081E0E6
:1033300080933E0510923D0510923C058DE4682E69
:1033400085E0782E97E4492E95E0592E00E010E0B4
:103350000F5F1F4F680181E0C81AD1089801A601CC
:10336000B401CE0101960E94B118CE0101960E94CF
:10337000DB17F30161933F01CE0101960E940E1904
:103380009801A601B501CE0101960E94B118CE01A7
:1033900001960E94DB17F20161932F01CE01019685
:1033A0000E940E190630110599F6B9CF2C9192138F
:1033B0000DC090819A3009F410823196119695E0F3
:1033C000E335F90731F090818A3080F79F5F908371
:1033D000F0CF8F5F843119F08093460504C01092BE
:1033E000460510923E0567E473E0C7010E94590F3D
:1033F000FE0131966F01F80181918F014AE0B6011B
:1034000090E00E945A2CF60101900020E9F73197D4
:10341000AF014C195D09B601C7010E94E617F5E03E
:1034200003351F0741F7C70126960FB6F894DEBF94
:103430000FBECDBFDF91CF911F910F91FF90EF9005
:10344000DF90CF90BF90AF909F908F907F906F90C4
:103450005F904F9008950F931F9380915301909127
:103460005401892B09F455C0809145058823A9F0A2
:103470000E941911009141051091420520914305C8
:1034800030914405DC01CB01801B910BA20BB30BE7
:10349000893E9340A105B105C8F58091450581118C
:1034A00038C00E943E1520914D0130914E01821787
:1034B000930779F50E94361520914F013091500104
:1034C0008217930731F50E942E15209151013091FA
:1034D000520182179307E9F40E9419116093410584
:1034E00070934205809343059093440581E0809357
:1034F000450582EA91E00E944D2080913001909133
:103500003101909316058093150503C0109245056F
:10351000C4CF1F910F910895CF93DF93EC010196D3
:1035200028812A33D9F78981843639F510923405F8
:103530001092330523964AE0FE018881219690ED92
:10354000980F20913305309134059A3080F4429FD2
:10355000B001439F700D1124082E000C990BC097E9
:10356000860F971F9093340580933305E5CF12168D
:10357000130614F420935E01EF01219688818F36A3
:1035800089F48A81082E000C990B9C012053310983
:103590003093340520933305C397059710F4209397
:1035A0005D0124968881823629F5109234051092A7
:1035B0003305FE0132964AE0819190ED980F2091FB
:1035C0003305309134059A3080F4429FB001439F17
:1035D000700D1124082E000C990BC097860F971FB1
:1035E0009093340580933305E7CF30935C012093AB
:1035F0005B01EF0120915B0130915C01032E000C17
:10360000440B550B60E67AEE80E090E00E94192FA3
:10361000DA01C90122E0880F991FAA1FBB1F2A9552
:10362000D1F780932F0590933005A0933105B09387
:103630003205CE01DF91CF910895CF92DF92EF92C4
:10364000FF921F93CF93DF93CDB7DEB72C970FB6C2
:10365000F894DEBF0FBECDBF182F6BE773E0CE012D
:1036600001960E94590F133029F422E030E040E027
:1036700050E00FC01C3029F424E030E042E050E07C
:1036800008C01033B9F42091C6063091C70644E053
:1036900050E062EC76E0CE0107960E94B118BE01C0
:1036A000695F7F4FCE0101960E944018CE010796B8
:1036B0000E940E19CE0101960E94DB176B017C015E
:1036C000CE0101960E940E19C6012C960FB6F894F1
:1036D000DEBF0FBECDBFDF91CF911F91FF90EF9066
:1036E000DF90CF90089581E08093530588E6809322
:1036F0007505109254051092760560E08BE696E011
:103700000E945E220E94262187E090E00E94DD2038
:103710008BE696E00E941222982F92959F708F70F0
:103720002AE0929F800D112490E0909323058093CE
:1037300022058BE696E00E941222982F92959F70A8
:103740008F702AE0929F800D112490E090931A05CB
:10375000809319058BE696E00E941222982F969589
:10376000969596959670292F220F220F920F8F70A3
:10377000890F90E090931805809317058BE696E0EB
:103780000E941222982F92959F708F702AE0929F2C
:10379000800D112490E09093400580933F058BE6C7
:1037A00096E00E941222982F92959F708F702AE0C7
:1037B000929F800D112490E090931C0580931B052F
:1037C0008BE696E00E941222982F92959F708F7040
:1037D0002AE0929F800D112490E090931E05809323
:1037E0001D058BE696E00E941222982F92959F70FD
:1037F0008F702AE0929F800D112490E09093200515
:1038000080931F0508950F931F93CF93DF93CDB738
:10381000DEB762970FB6F894DEBF0FBECDBF8C0146
:1038200077FF03C07195619571094AE06A307105AF
:103830004CF5CE010D960E94240F64E773E0CE0193
:1038400001960E94590FBE016F5F7F4FCE01079610
:103850000E94500FBE01635F7F4FCE0107960E940A
:103860002D18BC01C8010E94500FCE0107960E947E
:103870000E19CE0101960E940E19CE010D960E94DE
:103880000E1903C0C8010E94240FC80162960FB62A
:10389000F894DEBF0FBECDBFDF91CF911F910F9186
:1038A00008950F931F93CF93DF93CDB7DEB768973B
:1038B0000FB6F894DEBF0FBECDBF8B01833091F4FD
:1038C0002091C6063091C70642E050E062EC76E0F7
:1038D000CE010D960E94B118B801CE0101960E944A
:1038E000031C55C08C3009F042C02091C6063091AF
:1038F000C70644E050E062EC76E0CE0143960E94B9
:10390000B118B801CE010D960E94031C22E030E0F0
:1039100040E050E062EC76E0CE0101960E94B118E2
:10392000BE016F5F7F4FCE0107960E94500FBE0110
:10393000635F7F4FCE0107960E942D18BE016D5E1A
:103940007F4F0E942D18BC0182EC96E00E94F71870
:10395000CE0107960E940E19CE0101960E940E1903
:10396000CE010D960E940E19CE0143962DC08033D4
:1039700069F5CE010D960E94031C24E030E040E082
:1039800050E062EC76E0CE0101960E94B118BE01D3
:103990006F5F7F4FCE0107960E94500FBE01635F9D
:1039A0007F4FCE0107960E942D18BC0182EC96E055
:1039B0000E94F718CE0107960E940E19CE010196BB
:1039C0000E940E19CE010D960E940E1968960FB630
:1039D000F894DEBF0FBECDBFDF91CF911F910F9145
:1039E00008950E94191160933805709339058093EA
:1039F0003A0590933B0580913705882309F460C010
:103A00002091350530913605C901880F991F213164
:103A1000310551F0FC01ED5CFE4F40815181415078
:103A20005109518340830AC040915501509156017C
:103A30004C5051095093560140935501DC01AD5C47
:103A4000BE4F6D917C911197FC01E857FD4F40816D
:103A50005181641775073CF4FC01E854FD4F408127
:103A600051814D935C932031310571F420915301C4
:103A7000309154012130310521F420E82093DC06F7
:103A800006C01092DC0603C02930310549F0FC0164
:103A9000ED5CFE4F608171818091DD060E94511CBA
:103AA0008CE294E00E941A20E0913505F0913605F1
:103AB000EE0FFF1FED5CFE4F808191810C945B2027
:103AC00008950E9419116093380570933905809309
:103AD0003A0590933B0580913705882309F455C03A
:103AE0002091350530913605C901880F991F213184
:103AF000310551F0FC01ED5CFE4F408151814F5F7B
:103B00005F4F518340830AC0409155015091560147
:103B1000445F5F4F5093560140935501DC01AD5C0B
:103B2000BE4F6D917C911197FC01E854FD4F40818F
:103B30005181461757073CF4FC01E857FD4F40817F
:103B400051814D935C932031310519F41092DC06BC
:103B500003C02930310549F0FC01ED5CFE4F608166
:103B600071818091DD060E94511C8CE294E00E94DC
:103B70001A20E0913505F0913605EE0FFF1FED5C40
:103B8000FE4F808191810C945B2008950F931F93C9
:103B9000CF93DF93CDB7DEB768970FB6F894DEBF4B
:103BA0000FBECDBF8C018091550190915601489771
:103BB00091F40E942E15BC01CE0143960E94031C75
:103BC0000E943615BC01CE010D960E94031C0E9476
:103BD0003E15BC011FC00E942E15BC01CE014396AC
:103BE0000E94031C0E943615BC01CE010D960E9456
:103BF000031C0E9497130E9421148091C304882300
:103C000039F0682F70E08D3028F06C50710902C0D7
:103C10006CE070E0CE0101960E94031CBE016F5F54
:103C20007F4FCE0107960E94500FBE01635F7F4F0A
:103C3000CE0107960E942D18BE016D5E7F4F0E9437
:103C40002D18BC01C8010E94500FCE0107960E949A
:103C50000E19CE0101960E940E19CE010D960E94FA
:103C60000E19CE0143960E940E19C80168960FB630
:103C7000F894DEBF0FBECDBFDF91CF911F910F91A2
:103C800008953F924F925F926F927F928F929F9290
:103C9000AF92BF92CF92DF92EF92FF920F931F935A
:103CA000CF93DF9300D000D0CDB7DEB72091CD0504
:103CB00027FDAAC149835A836B837C838C0161E011
:103CC0008091CC050E941F103090CD05832D8D7FF3
:103CD0004801A12CB12C09F0B7C060E072E18AE77D
:103CE00090E0A50194010E94192F29013A01690170
:103CF0007A0121E0C21AD108E108F1088FEFC81655
:103D0000D104E104F10409F008F44CC060E472E469
:103D10008FE090E0A50194010E94192F69017A01BA
:103D200091E0C91AD108E108F108A2E03A1220C0D6
:103D3000BFEFCB16D104E104F10409F008F462C12D
:103D400060E970ED83E090E0A50194010E94192FD5
:103D500069017A01E1E0CE1AD108E108F108FFEF2C
:103D6000CF16D104E104F10409F0C0F583E065C089
:103D70002FEFC216D104E104F104B1F0A8F068E419
:103D800078EE81E090E0A50194010E94192F69016D
:103D90007A0181E0C81AD108E108F108332009F45A
:103DA000D9C027C181E001C082E0332091F045C035
:103DB000D301C2012AE0B595A795979587952A95D5
:103DC000D1F76C017D01E1E0CE1AD108E108F108DC
:103DD00085E095B5987F892B85BD66C068E478EE4F
:103DE00081E090E0A50194010E94192F69017A01F8
:103DF000B1E0CB1AD108E108F108EFEFCE16D104FB
:103E0000E104F10409F008F4A3C064E274EF80E077
:103E100090E0A50194010E94192F69017A0191E0B7
:103E2000C91AD108E108F108AFEFCA16D104E104BC
:103E3000F10411F008F0B0C085E09091B100987FD6
:103E4000892B8093B10030C060E072E18AE790E096
:103E5000A50194010E94192F69017A01F1E0CF1A9E
:103E6000D108E108F108C114D10421E0E206F1040F
:103E700088F068E478EE81E090E0A50194010E946A
:103E8000192F69017A0181E0C81AD108E108F10807
:103E900093E001C091E0A1E03A1206C08091810058
:103EA000887F892B8093810089819A81AB81BC8135
:103EB000892B8A2B8B2B81F0D801AA0FBB1F29815C
:103EC0003A814B815C810E94DE2D28EE33E040E098
:103ED00050E00E94F72E03C02FEF3FEFA90191E0C1
:103EE0003916A1F0A2E03A1619F131108DC0C7BC05
:103EF0002093C8053093C9054093CA055093CB055C
:103F000080916E00826080936E007EC0D0928900A6
:103F1000C09288002093C4053093C5054093C60520
:103F20005093C70580916F00826080936F006CC0D2
:103F3000C092B3002093C0053093C1054093C205E1
:103F40005093C305809170008260809370005CC0C4
:103F500084E073CF8FEFC816D104E104F104D1F0EF
:103F6000C8F062E17AE780E090E0A50194010E9448
:103F7000192F69017A01F1E0CF1AD108E108F1089F
:103F80002FEFC216D104E104F10411F008F010CFB4
:103F900084E01FCF83E01DCF62E17AE780E090E00C
:103FA000A50194010E94192F69017A0191E0C91AB3
:103FB000D108E108F108AFEFCA16D104E104F10419
:103FC000B1F0A8F0D301C2014AE0B595A795979545
:103FD00087954A95D1F76C017D01E1E0CE1AD108B1
:103FE000E108F108332009F4F3CE87E026CF86E01C
:103FF000DCCEBFEFCB16D104E104F10409F060F68A
:1040000084E0D3CE82E019CF0F900F900F900F90E5
:10401000DF91CF911F910F91FF90EF90DF90CF90A4
:10402000BF90AF909F908F907F906F905F904F90D8
:104030003F900895009769F0FC0101900020E9F796
:104040003197AF01481B590BBC018EEC95E00C94E5
:10405000F50D80E090E008950F931F93CF93DF93C9
:104060008C01C0E0D0E0F801EC0FFD1F64916623E5
:1040700071F0E091CE05F091CF050190F081E02D37
:104080008EEC95E00995892B11F02196ECCFCE01AD
:10409000DF91CF911F910F910895CF93DF930E94ED
:1040A0002C20EC0185E493E00E941A208C0F9D1FC8
:1040B000DF91CF9108958F929F92AF92BF92CF924E
:1040C000DF92EF92FF920F931F93CF93DF93CDB7C1
:1040D000DEB7A1970FB6F894DEBF0FBECDBF6C015F
:1040E000990FEE08FF08F7FE31C0E091CE05F09180
:1040F000CF050190F081E02D6DE28EEC95E0099501
:104100008C0122273327A9012C193D094E095F098B
:1041100019A2CE0181967C019AE0892E912CA12CC6
:10412000B12CCA01B901A50194010E94F72E605D6E
:10413000F70162937F01211531054105510589F78A
:10414000CF010E941A20080F191F1EC0A701960157
:1041500019A28E010F5D1F4F8AE0C82ED12CE12CD1
:10416000F12CCA01B901A70196010E94F72E605DEA
:10417000F80162938F01211531054105510589F739
:10418000CF010E941A208C0185E493E00E941A203E
:10419000800F911FA1960FB6F894DEBF0FBECDBF62
:1041A000DF91CF911F910F91FF90EF90DF90CF9013
:1041B000BF90AF909F908F90089590919D05911121
:1041C000FCCF813208F080E291E090939D059093BE
:1041D0009C052FEF20939B0510929A05280F2093A2
:1041E00099059093980590919805906D90939805F6
:1041F00090919705913061F41092970590919805F0
:104200009093BB009091BC0093FDF8CF95EC01C05A
:1042100095EE9093BC0090919D059130E1F39091C3
:104220009A05981710F480919A05A7E7B5E020EA5F
:1042300035E0F9019E2F921B981718F49D919193E8
:10424000F9CF10929F0580939E05089520917605E1
:1042500090917505213208F04AC080919D05811129
:10426000FCCF32E030939D0531E030939C053FEF69
:1042700030939B0510929A0520939905A5E5B5E02A
:1042800047E755E0FA013E2F341B321718F43D91F1
:104290003193F9CF1092980520919805990F922BA0
:1042A0009093980590919705913061F4109297053D
:1042B000909198059093BB009091BC0093FDF8CF2E
:1042C00095EC01C095EE9093BC0090919D059230C5
:1042D000E1F390919B059F3F79F080919B0580329F
:1042E00041F080919B05803331F084E005C081E08E
:1042F00003C082E001C083E010925405109276055D
:104300001092530508958091C806E091C906F09176
:10431000CA06F8949181982B91832281982F9095C9
:1043200029232283A7E0B0E01197F1F7218192239E
:104330009183A3E2B0E01197F1F790817894EFECCC
:10434000F0E03197F1F7982381E009F480E00895D7
:104350009091C806E091C906F091CA06392F3095B0
:1043600080FF13C0F8942281832F8223828381816E
:10437000892B8183A3E2B0E01197F1F78281982B1A
:104380009283789487ED90E012C0F8942281832F75
:10439000822382838181892B8183AFEFB0E01197E3
:1043A000F1F78281982B928378948FE090E00197C7
:1043B000F1F708954091C004262F30E0240F311DFD
:1043C00021323105DCF420919D052430C9F4FC0133
:1043D00080E090E0861758F43091C0042191DC0110
:1043E000A056BB4FA30FB11D2C930196F3CF809124
:1043F000C004680F6093C00480E0089581E00895D0
:1044000082E008950895E0919F0580919E05E81748
:1044100030F4F0E0E056FA4F808190E008958FEF9D
:104420009FEF089590919F0580919E05981750F4F5
:10443000E92FF0E0E056FA4F208130E09F5F909343
:104440009F0502C02FEF3FEFC901089580919E059F
:1044500090E020919F05821B91090895CF92DF92F1
:10446000EF92FF920F931F93CF93DF937C01262F40
:10447000972F8A0180915305882391F0C62FD72F5B
:104480006E01C40ED51ECC15DD0571F06991D70102
:10449000ED91FC910190F081E02DC7010995F3CFDA
:1044A000642F822F0E94DA21C801DF91CF911F91E2
:1044B0000F91FF90EF90DF90CF900895CF93DF930F
:1044C0001F92CDB7DEB76983209153052223D1F027
:1044D00020917605203240F021E030E0FC0133836A
:1044E000228380E090E015C080915405E82FF0E031
:1044F000EB5AFA4F998190838F5F80935405809394
:10450000760505C061E0CE0101960E94DA2181E0C6
:1045100090E00F90DF91CF910895089580E090E0B2
:104520000895CF92DF92EF92FF921F93CF93DF9384
:104530009091DF06911103C08FEF9FEF72C09091B1
:10454000DE069923C9F3182FC091DD06D0E08091D3
:10455000070781110DC00E94191160930307709322
:104560000407809305079093060781E0809307076F
:104570000E941911C0900307D0900407E09005072E
:10458000F0900607DC01CB018C199D09AE09BF092B
:104590008D329140A105B105D8F00E9419116093A8
:1045A0000307709304078093050790930607809193
:1045B000020791E0982790930207992329F010921F
:1045C00001071092000704C0D0930107C0930007B1
:1045D0002091000730910107209530954091DC062D
:1045E00050E02423352326FF04C081E08093FF069A
:1045F00002C01092FF0627FF04C081E08093FE06F0
:1046000002C01092FE0680910207882309F494CF1D
:1046100002C0D595C7951A95E2F7C0FF8DCF80E00F
:104620009CE3DF91CF911F91FF90EF90DF90CF90AF
:10463000089585ED8093BC008091BC0084FDFCCF83
:1046400010929D0508950C94D02D0C94C82D88E0EF
:1046500090E00E942523682F70E089E00E945B10A3
:1046600089E090E00E942523682F70E086E00E9498
:104670005B108AE090E00E942523682F70E083E0C1
:104680000C945B102F923F924F925F926F927F92A9
:104690008F929F92AF92BF92CF92DF92EF92FF9252
:1046A0000F931F93CF93DF9300D000D0CDB7DEB729
:1046B0000E94BA100091FA061091FB062091FC06A8
:1046C0003091FD06DC01CB01801B910BA20BB30BDB
:1046D0008E34934CA105B10508F44CC10E94BA1068
:1046E0006093FA067093FB068093FC069093FD0698
:1046F00082EC96E00E94DB176B017C0160E08AE0AF
:104700000E94EF0F8AE0482E512C612C712CC701BA
:10471000B601A30192010E94192FCB01880F991FA6
:10472000FC01EC5FFC4FC080D18085E090E02983E4
:104730003A834B835C830E9491221C0129813A8138
:104740004B815C81CA01B901A30192010E94192F1A
:10475000660F771FFB01EC5FFC4FA080B18084E007
:1047600090E029833A834B835C830E9491227C01F1
:1047700029813A814B815C81CA01B901A30192016F
:104780000E94192F29013A01660F771FFB01EC5F88
:10479000FC4F0081118183E090E00E94912245014D
:1047A0008E209F20A12CB12CAAE0880C991CAA1C59
:1047B000BB1CAA95D1F780239123AC0160E070E087
:1047C000D501C401842B952BA62BB72BC220D32057
:1047D000A60160E070E014E1440F551F661F771FCB
:1047E0001A95D1F76C017D01C42AD52AE62AF72A49
:1047F0008091FF06882319F06894F6F802C0E894C7
:10480000F6F88091FE06882319F06894F7F802C044
:10481000E894F7F88F2D0E94F4268E2D0E94F4263E
:104820008D2D0E94F4268C2D0E94F4268AE0882E7D
:10483000912CA12CB12CC301B201A50194010E94BD
:10484000192FCB01880F991FFC01EC5FFC4F0081F1
:10485000118182E090E029833A834B835C830E943C
:1048600091226C0129813A814B815C81CA01B90195
:10487000A50194010E94192F660F771FFB01EC5FC1
:10488000FC4F6080718081E090E029833A834B8304
:104890005C830E949122C022D122E12CF12CF4E110
:1048A000CC0CDD1CEE1CFF1CFA95D1F7862197215C
:1048B000A0E0B0E01AE0880F991FAA1FBB1F1A954D
:1048C000D1F7C82AD92AEA2AFB2A29813A814B81C1
:1048D0005C81CA01B901A50194010E94192F660FDC
:1048E000771FFB01EC5FFC4F0081118180E090E0BD
:1048F0000E94912280239123A0E0B0E0C82AD92A07
:10490000EA2AFB2A8091FF06882319F06894F6F8BA
:1049100002C0E894F6F88091FE06882319F06894A6
:10492000F7F802C0E894F7F88F2D0E94F4268E2D38
:104930000E94F4268D2D0E94F4268C2D0E94F426D0
:1049400061E08AE00F900F900F900F90DF91CF9170
:104950001F910F91FF90EF90DF90CF90BF90AF909D
:104960009F908F907F906F905F904F903F902F908F
:104970000C94EF0F0F900F900F900F90DF91CF914D
:104980001F910F91FF90EF90DF90CF90BF90AF906D
:104990009F908F907F906F905F904F903F902F905F
:1049A0000895CF93DF9381E08093530588E6809349
:1049B0007505109254051092760561E18BE696E03C
:1049C0000E945E220E94262182E090E00E94DD206B
:1049D0008BE696E00E941222C82F81EF91E00E94A0
:1049E0002C208C2F0C2E000C990B0E945B20C550A4
:1049F000C833B0F082EE91E00E944D20C5E0D0E0D7
:104A000048EE53E060E070E088EE93E00E94411EC3
:104A100060ED77E080E090E00E94DF10219781F761
:104A2000DF91CF9108958F929F92AF92BF92CF92D4
:104A3000DF92EF92FF920F931F93CF93DF93CDB747
:104A4000DEB72C970FB6F894DEBF0FBECDBF8C013A
:104A50006A017B018091F206811113C00E94191135
:104A6000DC01CB01845B9B4FAF4FBF4F8093EE06C1
:104A70009093EF06A093F006B093F10681E0809347
:104A8000F2068091E606811109C06FE673E080EEC0
:104A900096E00E94590F81E08093E6060E9419116A
:104AA0008090EE069090EF06A090F006B090F10690
:104AB000DC01CB0188199909AA09BB09893E9340F9
:104AC000A105B10508F477C10E9419116093EE06A3
:104AD0007093EF068093F0069093F10620E030E0AB
:104AE000A901C701B6010E94D22E20E030E040E0CB
:104AF0005FE387FD05C0C701B6010E94302E04C0E8
:104B0000C701B6010E942F2E0E949C2E8091570152
:104B1000909158019B0129513C4F49012458334041
:104B200059012A55310969017B01892B09F095C08A
:104B300077FF03C0F194E194F1084AE0B701CE0198
:104B400007960E94240F64E773E0CE0101960E944D
:104B5000590FBE01695F7F4FCE0101960E942D184B
:104B600064E773E00E941418BC0180EE96E00E9496
:104B7000F718CE0101960E940E19CE0107960E94E9
:104B80000E193FEC831637E0930620F54AE0B70193
:104B9000CE0107960E94240F63E773E0CE010196D1
:104BA0000E94590FBE01695F7F4FCE0101960E949E
:104BB0002D1864E773E00E941418BC0180EE96E0A3
:104BC0000E94F718CE0101960E940E19CE01079699
:104BD0000E940E1987ECA816B10420F54AE0B7012F
:104BE000CE0107960E94240F62E773E0CE01019682
:104BF0000E94590FBE01695F7F4FCE0101960E944E
:104C00002D1864E773E00E941418BC0180EE96E052
:104C10000E94F718CE0101960E940E19CE01079648
:104C20000E940E1923E1C216D10408F0C4C04AE064
:104C3000B701CE0107960E94240F61E773E0CE0111
:104C400001960E94590FBE01695F7F4FCE01019608
:104C50000E942D1864E773E09FC077FF03C0F194B2
:104C6000E194F1084AE0B701CE0107960E94240FB3
:104C700064E773E0CE0101960E94590FBE01695F9F
:104C80007F4FCE0101960E942D1864E773E00E94C9
:104C90001418BC0180EE96E00E94F718CE01019630
:104CA0000E940E19CE0107960E940E193FEC831642
:104CB00037E0930640F5C7016AE070E00E94E32EFA
:104CC0004AE0CE0107960E94240F63E773E0CE010D
:104CD00001960E94590FBE01695F7F4FCE01019678
:104CE0000E942D1863E773E00E941418BC0180EE47
:104CF00096E00E94F718CE0101960E940E19CE018F
:104D000007960E940E1987ECA816B10440F5C7015A
:104D10006AE070E00E94E32E4AE0CE0107960E940E
:104D2000240F62E773E0CE0101960E94590FBE0185
:104D3000695F7F4FCE0101960E942D1863E773E0F3
:104D40000E941418BC0180EE96E00E94F718CE0174
:104D500001960E940E19CE0107960E940E1923E1BA
:104D6000C216D10440F5C7016AE070E00E94E32E4C
:104D70004AE0CE0107960E94240F61E773E0CE015E
:104D800001960E94590FBE01695F7F4FCE010196C7
:104D90000E942D1863E773E00E941418BC0180EE96
:104DA00096E00E94F718CE0101960E940E19CE01DE
:104DB00007960E940E1960EE76E0C8010E94500F1F
:104DC000C8012C960FB6F894DEBF0FBECDBFDF91A1
:104DD000CF911F910F91FF90EF90DF90CF90BF90F8
:104DE000AF909F908F9008958EBD00000DB407FE88
:104DF000FDCF8EB50895CF93DF93CDB7DEB7CF54F7
:104E0000D1090FB6F894DEBF0FBECDBF789484B53C
:104E1000826084BD84B5816084BD85B5826085BDB6
:104E200085B5816085BD80916E00816080936E0044
:104E30001092810080918100826080938100809136
:104E400081008160809381008091800081608093E7
:104E500080008091B10084608093B1008091B000A7
:104E600081608093B00080917A00846080937A00A2
:104E700080917A00826080937A0080917A008160CC
:104E800080937A0080917A00806880937A001092F3
:104E9000C10010929F0510929E0510925405109229
:104EA000760510929D0581E080939C0510929705F0
:104EB00061E082E10E94EF0F61E083E10E94EF0F69
:104EC0008091B9008E7F8093B9008091B9008D7F69
:104ED0008093B90088E48093B80085E48093BC0097
:104EE000E091DE05F091DF0582E08083E091DA0554
:104EF000F091DB051082E091DC05F091DD0580E1A9
:104F000080831092E605E091E205F091E30586E0EA
:104F10008083E091E005F091E105808180618083EC
:104F2000E091E005F091E105808188608083E09167
:104F3000E005F091E105808180688083E091E005E3
:104F4000F091E10580818F7D808381E090E00E9477
:104F500025238C3019F088E190E002C08CE090E0CD
:104F6000909356018093550180E090E00E942523A4
:104F7000882321F081E08093320102C01092320137
:104F800082E090E00E9425238F3F29F410924E0189
:104F900010924D0105C090E090934E0180934D0119
:104FA00083E090E00E9425238F3F29F41092500166
:104FB00010924F0105C090E09093500180934F01F3
:104FC00084E090E00E9425238F3F29F41092520143
:104FD0001092510105C090E09093520180935101CD
:104FE00086E090E00E9425238F3F29F4109254011F
:104FF0001092530105C090E09093540180935301A7
:1050000087E090E00E9425238F3F19F41092240539
:1050100006C091E0811101C090E0909324058BE0DF
:1050200090E00E9425238F3F29F41092580110929E
:10503000570105C090E090935801809357018CE090
:1050400090E00E9425238F3F31F090E00C979093E1
:105050005A01809359018DE090E00E9425238F3FF3
:1050600029F090E0909346018093450188E991E012
:105070000E942C208091240590E00E945B2061E03A
:1050800089E00E941F1061E086E00E941F1061E02D
:1050900083E00E941F1080912505833008F083C0B3
:1050A00092E09093CC05E82FF0E0E15DFE4FE491B3
:1050B000E093CD058F5F80932505E13031F1E2303B
:1050C00009F44AC0E11172C014BC15BC84B58260F9
:1050D00084BD85B5816085BD8091CC0590E0FC01E3
:1050E000E654FE4FE491F0E0EE0FFF1FEB5DFE4F44
:1050F000259134913093130520931205FC01E2535E
:10510000FE4FE491E093110551C01092800010927F
:10511000810080918100886080938100809181006E
:105120008160809381008091CC0590E0FC01E65481
:10513000FE4FE491F0E0EE0FFF1FEB5DFE4F259177
:1051400034913093100520930F05FC01E253FE4F7C
:10515000E491E0930E052AC01092B0001092B100C5
:105160008091B00082608093B0008091B100816036
:105170008093B1008091CC0590E0FC01E654FE4F95
:10518000E491F0E0EE0FFF1FEB5DFE4F25913491AF
:1051900030930D0520930C05FC01E253FE4FE49182
:1051A000E0930B0503C08FEF8093CD058091300114
:1051B000909131010E948C1A9093310180933001BB
:1051C00061E08AE00E941F101FB7F89480912605C5
:1051D000811127C0E4ECF1E08491E8EDF1E09491D5
:1051E000E82FF0E0EE0FFF1FEE5CFE4FA591B491AB
:1051F000EC91E92321F461E08AE00E94EF0F61E085
:105200008AE00E941F108CB580618CBD8CB58064D3
:105210008CBD61E08DE00E941F1061E08BE00E9478
:105220001F10809126058F5F809326051FBF8CB5C8
:10523000837F88608CBD8CB58C7F81608CBD8DB583
:1052400081608DBD62E08EE00E941F1062E080E10F
:105250000E941F1062E08FE00E941F1061E082E058
:105260000E941F1004E110E020E030E00093AC0643
:105270001093AD062093AE063093AF064EE150E09A
:1052800060E070E04093B0065093B1066093B206C0
:105290007093B30680ED97E0A0E0B0E08093B40691
:1052A0009093B506A093B606B093B7060093930605
:1052B0001093940620939506309396064093970694
:1052C000509398066093990670939A0680939B0674
:1052D00090939C06A0939D06B0939E0600937A0639
:1052E00010937B0620937C0630937D0640937E06C8
:1052F00050937F06609380067093810680938206A8
:1053000090938306A0938406B093850689E691E086
:105310000E942C2025E030E042E050E066ED76E08F
:10532000CE0101967C010E94B11822E030E041E0FC
:1053300050E066ED76E0CE01875B9F4F0E94B1188A
:10534000BE01675B7F4FCE018D5B9F4F0E94500F68
:105350006BE573E0CE018D5B9F4F0E941418B7017F
:105360000E942D180E94C617CE018D5B9F4F0E9490
:105370000E19CE01875B9F4F0E940E19C7010E9434
:105380000E198DE593E00E941A2085E493E00E94B7
:105390001A208EE591E00E944D208091300190917D
:1053A000310190931605809315050E948C1A6FEFBA
:1053B00070E089E00E945B1068EE73E080E090E0AE
:1053C0000E94DF1060E070E089E00E945B106FEFE8
:1053D00070E086E00E945B1068EE73E080E090E091
:1053E0000E94DF1060E070E086E00E945B106FEFCB
:1053F00070E083E00E945B1068EE73E080E090E074
:105400000E94DF1060E070E083E00E945B106FE6B6
:1054100073E0C7010E94590F66E773E0CE0107965B
:105420000E94590F6DE773E0CE010D960E94590F4F
:1054300064E873E0CE0143960E94590F6BE873E075
:10544000CE0149960E94590F62E973E0CE014F9652
:105450000E94590F69E973E0CE0185960E94590FA9
:1054600060EA73E0CE018B960E94590F67EA73E001
:10547000CE01C1960E94590F6EEA73E0CE01C79625
:105480000E94590F67E473E0CE01CD960E94590F38
:1054900066ED76E0CE01CD960E94F7180E941911B4
:1054A0002B013C0128EE420E23E0521E611C711CB0
:1054B000912C1FEF94EFC92EDD24D39426E0822E89
:1054C0003BE3A32E3FE1B32E8FE00E94C60F892B52
:1054D00011F49924939480E10E94C60F892B09F45A
:1054E000912C0E941911DC01CB0184199509A609A0
:1054F000B70996010D2C000C440B550B28173907E2
:105500004A075B0718F50E9419112B013C01911005
:1055100001C01F5F1A3011F038F404C080EDC82EAE
:1055200087E0D82E01E002C01AE000E0B701819EBA
:10553000600D711D112482EC96E00E94F71882EC38
:1055400096E00E94C6170E94422301C001E0C501F7
:105550000197F1F70111B8CF8091D506811104C0F0
:105560000E948F1781110BC01092D3061092D5069E
:105570001092D40686E491E00E944D2067C080EF2F
:105580000E94651701E0D12CC12C11E00E948321FB
:1055900060968FAF60970E94832160969FAD609761
:1055A000913019F48130C1F435C02D2D30E09813BD
:1055B0001DC08091D306181738F4F901E853F94F4C
:1055C0008381802349F402C0181731F090E019302C
:1055D00060F41093D40609C0ED2DF0E0E853F94FC4
:1055E0008381802B838391E009C0C12EF901E853A8
:1055F000F94F2381802F809582238383892F0E94F6
:10560000A8211F5F000F11F4D39401E087E08D15EE
:1056100008F0BCCF113408F4A7CFC092D306C11054
:1056200003C081E08093D5068091CB06882309F4DE
:105630009BCFABECB6E0E7E2F5E08D91819395E08E
:10564000EF32F907D1F781E0809314050E94D1244D
:105650008CE391E00E944D208E010D5B1F4F0650A0
:105660001109C8010E940E190E151F05C1F70E94ED
:10567000D1248091240581110E9427230E94731B4D
:1056800000912205109123050E9419116B017C01E4
:1056900081E08093210511278091220590912305B7
:1056A00008171907A9F40E94731B0E941911DC0145
:1056B000CB018C199D09AE09BF09893B9B40A1050F
:1056C000B10550F38CE791E00E944D201092210526
:1056D000E0901F05F090200500911D0510911E051A
:1056E00020911B0530911C05409122055091230506
:1056F0006091190570911A05809117059091180510
:105700000E94BB120E942A010E94F10EFBCF109250
:10571000D1051092D00588EE93E0A0E0B0E0809330
:10572000D2059093D305A093D405B093D50524EE6C
:1057300032E03093CF052093CE0525EC30E0309356
:10574000DB052093DA0524EC30E03093DD0520936F
:10575000DC0520EC30E03093DF052093DE0521EC02
:1057600030E03093E1052093E00522EC30E0309307
:10577000E3052093E20526EC30E03093E505209325
:10578000E4051092E7051092E8051092E9051092E1
:10579000EA0510926E0610926D0680936F06909344
:1057A0007006A0937106B093720686EF92E0909314
:1057B0006C0680936B0663E374E086ED96E00E94CE
:1057C000590F60E087E00E941F10E5EDF1E0E491E1
:1057D000E093C806E1ECF1E0E491F0E0EE0FFF1F8A
:1057E000E055FE4F859194919093CA068093C90627
:1057F0001092D3061092D5061092D406E3EDF6E08F
:10580000129286E0EB3CF807D9F76FE673E082EC82
:1058100096E00E94590F21E040E06EE089EA96E0B0
:105820000E94B11521E040E060E180E996E00E942D
:10583000B11521E040E06FE087E796E00C94B115E8
:1058400082EC96E00E940E1986ED96E00C940E19FB
:105850001F93FC0199278827BC01E894119110320D
:10586000E9F3193010F01E30C8F31B3251F01D322D
:1058700049F4689406C00E94652C610F711D811D5A
:10588000911D119110531A30B0F33EF4909580950C
:10589000709561957F4F8F4F9F4F1F9108954532AF
:1058A000510520F4423010F00C945A2CFB01108268
:1058B000CB010895BB274A3031F4992322F4BDE28D
:1058C000909581959F4F0C947B2C592F482F372F03
:1058D000262F660F771F881F991F660F771F881F57
:1058E000991F620F731F841F951F660F771F881FF4
:1058F000991F0895BB27FB015527AA27880F991FD9
:10590000AA1FA41710F0A41B83955051B9F7A05DEE
:10591000AA3308F0A95DA193009779F7B111B1936B
:105920001192CB010C94942CDC01FC01672F719136
:105930007723E1F7329704C07C916D937083629175
:10594000AE17BF07C8F308950E94E62C08F481E063
:105950000895E89409C097FB3EF490958095709562
:1059600061957F4F8F4F9F4F9923A9F0F92F96E9AB
:10597000BB279395F695879577956795B795F11120
:10598000F8CFFAF4BB0F11F460FF1BC06F5F7F4FBD
:105990008F4F9F4F16C0882311F096E911C07723CF
:1059A00021F09EE8872F762F05C0662371F096E8D8
:1059B000862F70E060E02AF09A95660F771F881FA7
:1059C000DAF7880F9695879597F90895990F00084B
:1059D000550FAA0BE0E8FEEF16161706E807F907C1
:1059E000C0F012161306E407F50798F0621B730B5C
:1059F000840B950B39F40A2661F0232B242B252BDD
:105A000021F408950A2609F4A140A6958FEF811D7F
:105A1000811D08950E941D2D0C948E2D0E94802DB5
:105A200038F00E94872D20F0952311F00C94772DEB
:105A30000C947D2D11240C94C22D0E949F2D70F387
:105A4000959FC1F3950F50E0551F629FF001729F23
:105A5000BB27F00DB11D639FAA27F00DB11DAA1F32
:105A6000649F6627B00DA11D661F829F2227B00D7F
:105A7000A11D621F739FB00DA11D621F839FA00D0A
:105A8000611D221F749F3327A00D611D231F849F5A
:105A9000600D211D822F762F6A2F11249F575040B1
:105AA0009AF0F1F088234AF0EE0FFF1FBB1F661F2C
:105AB000771F881F91505040A9F79E3F510580F0F5
:105AC0000C94772D0C94C22D5F3FE4F3983ED4F3F1
:105AD000869577956795B795F795E7959F5FC1F799
