:10000000ECC100001BC2000019C2000017C20000B2
:1000100015C2000013C2000011C200000FC2000090
:100020000DC200000BC2000009C2000007C20000A0
:1000300005C200000C948A1801C20000FFC1000034
:10004000FDC100000C94E918F9C10000F7C10000DF
:10005000F5C100000C945219F1C100000C948417F2
:10006000EDC100000C9439160C941016E7C1000085
:10007000E5C10000E3C10000E1C10000DFC10000F4
:10008000DDC10000DBC10000D9C10000D7C1000004
:100090000C94E7150C94BE15D1C100000C942D1ED4
:1000A000CDC10000CBC10000C9C10000C7C1000024
:1000B000C5C10000C3C10000C1C100000C94CE172F
:1000C000BDC10000BBC10000B9C10000B7C1000044
:1000D000B5C10000B3C10000B1C10000AFC1000054
:1000E000ADC10000AE06B006A406A606A806AA0684
:1000F000AC06290E580E400F860FB10FFF0F541299
:10010000541254122F1055105510551054125412E9
:10011000541254125412B10FFF0FD813DB13CA1329
:10012000CE13D4131214DF13E313E913ED13F113F9
:10013000F713FB13FF131214051409140D14902365
:10014000A023A723AD23B423BA23C123C523D023DF
:100150005A44410056544700524D430047535600FD
:100160004753540047534100474C4C004747410018
:100170006C016801640160015C0158015401500187
:100180005570646174696E672074696D652E2E2EDA
:1001900000496E636F727265637420536F6E6720DF
:1001A000466F726D617421005247423D6F66660072
:1001B0005247423D6F6E004D6F6E74683A00446165
:1001C000793A00446F776E206C6F6E672E2E2E2E5C
:1001D00000446F776E2073686F7274005570206CE6
:1001E0006F6E672E2E2E2E0055702073686F7274FE
:1001F000004D6F6465206C6F6E672E2E2E2E004DA5
:100200006F64652073686F72740000000A0B020946
:100210000C0D0E08070304010000000000000000A0
:1002200000000000000000000000000000000000CE
:10023000000000000000121110000000000000008B
:1002400000000000000000000000000000000000AE
:1002500002010000002100240027002A002D0030A8
:1002600000330001010000040107010A0153746F0B
:100270007020546573740054656D702E2073656E24
:10028000736F72206E6F7420666F756E642E0053EC
:10029000746172742054657374004669726D77617D
:1002A00072652076657273696F6E3A2000466175DB
:1002B0006C74792044533332333121004453333248
:1002C00033315F543D005761726E696E6721205271
:1002D000544320444F4E275420524553504F4E44D0
:1002E0002100426C75653D00475245454E3D005228
:1002F00045443D005265616465642066726F6D20FF
:10030000454550524F4D0000002200250028002B8B
:10031000002E003100340002010000050108010B2D
:1003200001000020002300260029002C002F0032AD
:10033000000001000003010601090105050505078C
:100340000508080808020202020A0A080804040450
:10035000040101010101010101030303030303037C
:1003600003040707070C0C0C0C0C0C0C0C0202020B
:100370000206060606060606060B0B0B0B0B0B0BFE
:100380000B0102102020080810204010204080029D
:1003900001020108040201010204081020408080CB
:1003A000402010080402018004020180402010084F
:1003B0000402010804020101020408102040800127
:1003C0000204081020408057616B652075702C2056
:1003D0004E656F2100001636003611241FBECFEF88
:1003E000D1E2DEBFCDBF00E00CBF29E0A0E0B5E068
:1003F00001C01D92A13EB207E1F715E0A0E0B2E016
:10040000EEE7FAE700E00BBF02C007900D92A030C4
:10041000B107D9F711E0CCEED1E000E006C021979A
:100420000109802FFE010E94F93ACB3ED10780E0FE
:100430000807A9F70E9487300C942E3DE1CD2F923A
:100440003F924F925F926F927F928F929F92AF9264
:10045000BF92CF92DF92EF92FF920F931F93CF93B1
:10046000DF93CDB7DEB7CA54D1090FB6F894DEBF1B
:100470000FBECDBF0E94521720E137E240E050E0AE
:100480000E948239672B682B692B29F48091B00573
:1004900081110C94A510DD24D39401E053E0C52E06
:1004A000F2E0FF2EAAE0EA2EE0919D06F0919E0672
:1004B0000084F185E02D8DE996E01995892B09F4EA
:1004C000CCC1E0919D06F0919E060284F385E02D5B
:1004D0008DE996E01995182F809170099091710916
:1004E000A0917209B09173090196A11DB11D80936D
:1004F000700990937109A0937209B0937309143233
:1005000009F580918A0984FF0FC00E94F516609357
:1005100078097093790980937A0990937B09809187
:100520008A098F7E80938A09109286091092670942
:1005300000938B091092880980918A098D7F80939E
:100540008A09B2CF20918B09223071F51A3219F441
:10055000C0928B0920C080EE810F8F3508F00EC14C
:10056000809186098127809386098091670986306A
:1005700031F4812F0E947623882309F4FFC01C32B6
:1005800069F480918A098D7F80938A098091870917
:100590008F5F809387091092880986CF80918809A0
:1005A0008F5F8093880980CF213009F06DC08091E2
:1005B00086098127809386091C32B9F480916709E6
:1005C000882311F40C944E1285E899E02B962FAFF6
:1005D0002B970E946E302B962FAD2B972093870977
:1005E00010928809F0928B095FCFA090880921E0D2
:1005F0002A1510F00C94C3104EEF942E9A0CB09064
:100600006709BB2021F0BA9487E08B1508F4B12C60
:10061000EB2DF0E0EE0FFF1FE059FE4F8591949116
:10062000692D70E0FC01E60FF71FE4911E1305C071
:10063000B394B09267090C94C3101E1714F40C9471
:100640004E12B394A8E0BA1611F40C944E12EB2D8E
:10065000F0E0EE0FFF1FE059FE4F459154919C01D1
:10066000DA01A81BB90BE22FE81BE91510F0CA014B
:10067000D9CFF9018490FD01E20FF31FE4912F5FC0
:100680003F4F8E1681F3F3CF233009F07DC0106207
:100690008FE9810F863010F4175501C01053409137
:1006A000880920918609812F90E041110DC00093A7
:1006B000880930E0B4E035952795BA95E1F7281719
:1006C000390709F4F1CE47C02F7030E028173907F9
:1006D00009F041C080918A0981FF0DC08D7F809310
:1006E0008A094F5F4093880980916709863019F421
:1006F0008CE20E9476238091680990916909A0910B
:100700006A09B0916B090196A11DB11D809368091A
:1007100090936909A0936A09B0936B0991E0809165
:100720006709823009F090E080918A0990FB84F992
:1007300080938A0910928B0920919609222349F10E
:10074000886080938A091092970980919609815058
:10075000809396091EC080916C0990916D09A091BB
:100760006E09B0916F090196A11DB11D80936C09AE
:1007700090936D09A0936E09B0936F0985E899E095
:100780000E946E300C944E1221118ECE1092670989
:100790008BCE8091850980FF0CC030919509209106
:1007A000840930FF04C030919409321710F420936B
:1007B000940981FF0CC02091800920939009209119
:1007C000810920939109209182092093920982FF47
:1007D00010C080917E0980938E0980917D0980935D
:1007E0008D0980917C0980938C0980918309809385
:1007F00093092091950980918509822B8093950911
:10080000992309F451CE80919809E89EC0011124E2
:10081000FC01EB56F64F208122FF16C0FC01E9597E
:10082000F64F84A5811110C08091780990917909C3
:10083000A0917A09B0917B0980937409909375090E
:10084000A0937609B0937709109298098091960940
:1008500081112ACED092960923CE809196098823C1
:1008600051F1CE0149960E947130809196098823FA
:10087000C1F0815080939609809197092AE0289FC2
:10088000C0011124FC01E457F64FDE015996019096
:100890000D922A95E1F78457964F0E94713010927D
:1008A00097098AE0FE017996ADE5B9E001900D92D5
:1008B0008A95E1F705C0809166098B7F8093660970
:1008C0000E945217009176051091770520917805C6
:1008D00030917905DC01CB01801B910BA20BB30B8E
:1008E0000091310210913202209133023091340292
:1008F000081719072A073B0770F480E497E7ABE174
:10090000B0E08093310290933202A0933302B0930F
:100910003402109230028091300281111CC080910B
:100920005F098831C0F480915E098C33A0F4809116
:100930005D098C3380F480916109803260F480918C
:1009400062098D3040F48091630990E044970B97E1
:1009500010F40C94C81010926A0510926B05109256
:100960006C0510926D058AEE97E090937105809367
:1009700070058091E707282E312C30927305209264
:1009800072058091B40890E090937505809374058A
:100990008091E307853009F0FAC08091E7078A313A
:1009A00008F46BC08091EA079091EB07843F914077
:1009B00090F410926F0510926E058FEF9FEFDC019F
:1009C00080936A0590936B05A0936C05B0936D05B9
:1009D0008BE090E03EC08091EC079091ED07859709
:1009E0004B9708F04AC0E0EFF7E082E090E040E08B
:1009F00050E0BA018C010F5F1F4F2091E70730E0F4
:100A00000217130774F49F0122503109D9012D9167
:100A10003C91275031092730310510F40C945611C0
:100A2000C80101979595879590936F0580936E0502
:100A30000C972CF410926F0510926E051EC0409317
:100A40006A0550936B0560936C0570936D0584E0A7
:100A500090E0909367058093660560916A057091B8
:100A60006B0580916C0590916D0540E10E94F12825
:100A700084E294E00E94872785C0B6E02B163104FB
:100A80000CF480C000EF17E0E3E0F0E02996FFAF40
:100A9000EEAF299765ECC62E6DE9D62E6CE1E62EF9
:100AA00061E8F62E29968EAD9FAD299782159305A4
:100AB0000CF057C0D8016D917C91F8013497A0805B
:100AC000B18080E090E00E9448382B013C01B501E4
:100AD00080E090E00E9448384B015C012DEC3CEC3A
:100AE0004CE45FE30E94A9389B01AC01C301B20151
:100AF0000E94443887FD17C02DEC3CEC4CE45FE3CA
:100B0000C301B2010E94A9389B01AC01C501B40127
:100B10000E944438E82F880FFF0BEE27FF0FEE1FCF
:100B2000FF27319602C0E0E0F0E0A701960163E9FB
:100B300071E080E091E00E9473396F01FF0FEE08D1
:100B4000FF08C626D726E826F9262996EEADFFAD82
:100B5000299731962996FFAFEEAF29970E5F1F4F69
:100B6000A1CFC0926A05D0926B05E0926C05F0921D
:100B70006D0580E290E090936F0580936E058FEF96
:100B80009FEF67CF82E08093E3071092E7076091C1
:100B90006A0570916B058FE499E00E940C30909388
:100BA000650580936405019721F48FEF91E00E9421
:100BB000BA278091640590916505019621F481EF33
:100BC00091E00E94BA2760916A0570916B0582E4FA
:100BD00099E00E940C309093630580936205019721
:100BE00021F488EE91E00E94BA27809162059091ED
:100BF0006305019621F48CED91E00E94BA27609183
:100C00006A0570916B0585E399E00E940C30909322
:100C1000610580936005019721F481ED91E00E94C8
:100C2000BA278091600590916105019621F483ECCB
:100C300091E00E94BA270091A4051091A505D80162
:100C40008C91882309F435C10E945217C090060583
:100C5000D0900705E0900805F0900905DC01CB0174
:100C60008C199D09AE09BF09C0900205D0900305FB
:100C7000E0900405F0900505C816D906EA06FB06C3
:100C800008F017C10E9452176B017C0160930605A2
:100C90007093070580930805909309051092A409A5
:100CA0001092A309A8016AE08A01FA01B0804F5F9F
:100CB0005F4F80ED8B0D2091A3093091A4098A30FC
:100CC00080F4629FF001639FF00D11248B2DBB0C0B
:100CD000990BC0978E0F9F1F9093A4098093A3092F
:100CE000E3CF60919F097091A0098091A109909133
:100CF000A2092115310529F0032E000C440B550BD8
:100D000005C02091630230E040E050E00E94DD3AEF
:100D10002093020530930305409304055093050585
:100D20008B2DBB0C990BAA0BBB0BFC01E156F109F7
:100D3000E730F10530F48827EE58FF4F8F4F0C94C1
:100D4000F93A109201050FC081E00BC083E009C0A1
:100D500085E007C086E005C088E003C08AE001C0E6
:100D60008CE080930105D80111968C91833219F0A3
:100D70000F5F1F4F07C0809101058F5F80930105B2
:100D80000E5F1F4FF80180818E3201F580900205C1
:100D900090900305A0900405B0900505C501B4012D
:100DA00022E030E040E050E00E94DD3AD501C4018D
:100DB000820F931FA41FB51F809302059093030514
:100DC000A0930405B09305050F5F1F4FD8018C91C8
:100DD00080538A3028F4809300050F5F1F4F04C0B2
:100DE000809162028093000580910005F801908156
:100DF0009C3211F40F5F1F4F20910105222309F44B
:100E000058C08090020590900305A0900405B09012
:100E1000050590E004973CE0389FF001399FF00D04
:100E20001124E20FF11DEE0FFF1FEE57FD4FB5012C
:100E3000A401808191810E94AE250E945217DC019D
:100E4000CB018C199D09AE09BF0988169906AA061F
:100E5000BB0678F50E94521760930605709307054C
:100E6000809308059093090580919C06813051F08C
:100E7000823071F0811111C080916E008D7F80935E
:100E80006E000BC080916F008D7F80936F0005C056
:100E9000809170008D7F8093700060E080919B0650
:100EA0000E948A1681E991E00E94BA2790E080E0D2
:100EB00002C0902F812F9093A4058093A5050E94D6
:100EC000521700915C0510915D0520915E053091EF
:100ED0005F05DC01CB01801B910BA20BB30B899743
:100EE000A105B10508F4A9C080919C06813039F0B4
:100EF000823041F081110CC080916E0005C080915C
:100F00006F0002C0809170008695817009F08BC0DF
:100F100080913702811103C00E94B71F84C0809165
:100F2000B305811180C000910C0510910D05C80119
:100F3000880F991F800F911FFC01EE0FFF1FEC51CE
:100F4000FD4F208131816AE0629FA001639F500DB7
:100F500011242091060230910702420F531F509333
:100F6000070240930602FC01EE0FFF1FEA51FD4FFE
:100F700020813181629FF001639FF00D1124209147
:100F80005105309152052E0F3F1F3093520520938B
:100F90005105880F991FFC01E851FD4F8081918117
:100FA000689F6001699FD00C112480914F0590913A
:100FB0005005C80ED91ED0925005C0924F05D12CB5
:100FC000E12CF12CE42AD22AA12CB12CB701A601E4
:100FD000C5010E94C627FFEFAF1ABF0A28E0A2167C
:100FE000B104A1F70E94312880910A0590910B0568
:100FF000019690930B0580930A05499751F40F5F72
:101000001F4F10930D0500930C0510920B051092C5
:101010000A0580910C0590910D05069724F0109219
:101020000D0510920C050E94521760935C05709399
:101030005D0580935E0590935F058091A509909171
:10104000A609892B21F080915B058111DBC280917B
:10105000A7098111D7C28091200581110DC00E947E
:10106000521760931C0570931D0580931E05909385
:101070001F0581E0809320058091140581110DC02A
:101080000E9452176093100570931105809312050A
:101090009093130581E0809314050E9452170091EC
:1010A0001C0510911D0520911E0530911F05DC01C6
:1010B000CB01801B910BA20BB30B0091000210918E
:1010C00001022091020230910302081719072A0732
:1010D0003B0708F06FC00E94521760931C05709385
:1010E0001D0580931E0590931F0580910E0590911C
:1010F0000F05009799F481E090E09093A609809302
:10110000A50988E893E1A0E0B0E080930002909305
:101110000102A0930202B09303021EC00197E1F402
:1011200084E090E09093A6098093A50988E893E174
:10113000A0E0B0E08093000290930102A09302022D
:10114000B09303028091A305811106C082E090E074
:1011500090930F0580930E0580910E0590910F05D9
:101160008230910581F41092A6091092A50940E6FB
:101170005AEE60E070E040930002509301026093E9
:101180000202709303020196833091052CF4909330
:101190000F0580930E0504C010920F0510920E05E6
:1011A00080915B05882321F01092A6091092A50971
:1011B00010925B050E94521700911C0510911D05AD
:1011C00020911E0530911F05DC01CB01801B910B86
:1011D000A20BB30B803D9740A105B10508F010C2EA
:1011E0000E945217009110051091110520911205CF
:1011F00030911305DC01CB01801B910BA20BB30BCB
:1012000085369105A105B10508F4FCC10E9452176D
:101210006093100570931105809312059093130548
:101220002091A3058091A5099091A609222309F494
:1012300014C1892B89F5CE0183960E94962F81E0F7
:1012400020915C0230915D02232B09F480E00E9422
:10125000AF2BAB01BC01CE0101960E94CE29AE019D
:101260004D5D5F4FBE016F5F7F4FCE0189960E943B
:10127000072CBE01675D7F4F85E199E00E94F51460
:10128000CE0189960E942E15CE0101960E942E1540
:10129000CE0183960E942E158091A5099091A609F2
:1012A000019709F064C00E94551D68EE73E00E942A
:1012B000CA3ABC01CE01C5960E94482F0E945D1D0E
:1012C000BC01CE018F960E94482F0E94631DBC0175
:1012D000CE0183960E94482FBE016D5D7F4FCE01E7
:1012E00089960E945E15BE01615D7F4FCE01899691
:1012F0000E94BA14BE016B5C7F4F0E94BA14BC01FD
:10130000CE01CB960E945E15CE0101960E94962FCB
:10131000AE01455C5F4FBE016F5F7F4FCE018F5BBB
:101320009F4F0E94072CBE016F5B7F4F85E199E0C4
:101330000E94F514CE018F5B9F4F0E942E15CE01A7
:1013400001960E942E15CE01CB960E942E15CE013D
:1013500089960E942E15CE0183960E942E15CE01ED
:101360008F960E942E15CE01C5960E942E15809153
:10137000A5099091A609049709F044C181E0209144
:101380005C0230915D02232B09F480E00E94AF2BB8
:10139000AB01BC01CE01CB960E94CE290E94551D07
:1013A00068EE73E00E94CA3ABC01CE018F960E949B
:1013B000482F0E945D1DBC01CE0189960E94482FD6
:1013C0000E94631DBC01CE0101960E94482FBE0100
:1013D0006F5F7F4FCE0183960E945E15BE01675DF1
:1013E0007F4FCE0183960E94BA14BE01615D7F4F8C
:1013F0000E94BA14BC01CE01C5960E945E15AE01D2
:10140000455C5F4FBE016B5C7F4FCE018F5B9F4F92
:101410000E94072CBE016F5B7F4F85E199E00E941F
:10142000F514CE018F5B9F4F0E942E15CE01C596FD
:101430000E942E15CE0183960E942E15CE01019694
:101440000E942E15CE0189960E942E15CE018F96F0
:101450000E942E15CE01CB96D0C0892B09F064C016
:10146000CE01CB960E94962F0E94551D68EE73E028
:101470000E94CA3ABC01CE018F960E94482F0E945A
:101480005D1DBC01CE0189960E94482F0E94631DFC
:10149000BC01CE0101960E94482FBE016F5F7F4FB5
:1014A000CE0183960E945E15BE01675D7F4FCE011F
:1014B00083960E94BA14BE01615D7F4F0E94BA14E8
:1014C000BC01CE01C5960E945E15AE01455C5F4F22
:1014D000BE016B5C7F4FCE018F5B9F4F0E94072C3C
:1014E000BE016F5B7F4F85E199E00E94F514CE014C
:1014F0008F5B9F4F0E942E15CE01C5960E942E1520
:10150000CE0183960E942E15CE0101960E942E15C3
:10151000CE0189960E942E15CE018F960E942E151F
:10152000CE01CB960E942E158091A5099091A60917
:10153000019709F067C00E94551D68EE73E00E9494
:10154000CA3ABC01CE01C5960E94482F0E945D1D7B
:10155000BC01CE018F960E94482F0E94631DBC01E2
:10156000CE0183960E94482FBE016D5D7F4FCE0154
:1015700089960E945E15BE01615D7F4FCE018996FE
:101580000E94BA14BE016B5C7F4F0E94BA14BC016A
:10159000CE01CB960E945E15CE0101960E94962F39
:1015A000AE01455C5F4FBE016F5F7F4FCE018F5B29
:1015B0009F4F0E94072CBE016F5B7F4F85E199E032
:1015C0000E94F514CE018F5B9F4F0E942E15CE0115
:1015D00001960E942E15CE01CB960E942E15CE01AB
:1015E00089960E942E15CE0183960E942E15CE015B
:1015F0008F960E942E15CE01C5960E942E1502C010
:101600001092AE090E94C91F8CEF98E00E947B1DCA
:1016100083EE98E00E947B1D8AEC98E00E947B1D7F
:101620008091A709811103C01092BF052DC00E94AF
:1016300052170091A8091091A9092091AA09309187
:10164000AB09DC01CB01801B910BA20BB30B8136E4
:101650009A4EA105B105C0F01092A709E091A50925
:10166000F091A609EE0FFF1FE85AFC4F808191818F
:101670009093A6098093A509880F991FFC01E85F44
:10168000FD4F80818093BF058091FC089091FD08FB
:10169000181619063CF08091640590916505019734
:1016A00009F098C081E080935B051092A505109227
:1016B000A40544E650E060E070E088EE93E00E940C
:1016C000AE250E9452176093A8097093A9098093D0
:1016D000AA099093AB098091A5099091A60901965A
:1016E0008630910529F09093A6098093A50904C03E
:1016F0001092A6091092A5092091A5093091A6097A
:101700008901000F111FF801E85FFD4F8081809370
:10171000BF05D9011197FD01EE0FFF1FE05DFC4FE2
:10172000608171816115710509F445C0AB014150BB
:101730005109FA01EE0FFF1FE85FFC4F0190F081A5
:10174000E02DEA17FB07B9F56230710509F0CCC549
:1017500088E1EAE6F2E0DE01119601900D928A95A9
:10176000E1F7809150029091510283709927892B63
:1017700021F48DE190E09C838B8320914C02309189
:101780004D02E0914E02F0914F023197EE0FFF1F94
:1017900081E090E08C0F9D1FE80FF91F80819181FF
:1017A000821793070CF0A0C58AE090E09093A609F9
:1017B0008093A50979C62331310561F0295031099B
:1017C0002230310538F00E94622EF801E85CFD4FAE
:1017D000918380838091FC089091FD0897FD07C05C
:1017E0008091640590916505019609F003C144E676
:1017F00050E060E070E088EE93E00E94AE258091BA
:10180000A70981114DC00E9452176093A8097093D7
:10181000A9098093AA099093AB098091A509909199
:10182000A609892BE9F50E94691DBC01CE018F969E
:101830000E94482F0E946F1DBC01CE0189960E9414
:10184000482F0E94751DBC01CE0101960E94482FB1
:10185000BE016F5F7F4FCE0183960E945E15BE0171
:10186000675D7F4FCE0183960E94BA14BE01615D11
:101870007F4F0E94BA14BC0185E199E00E94E014F8
:10188000CE0183960E942E15CE0101960E942E1540
:10189000CE0189960E942E15CE018F960E942E159C
:1018A0008091A5099091A609019709F06AC00E944C
:1018B000631D90934D0280934C020E945D1D909396
:1018C0004F0280934E020E94551D68EE73E00E9405
:1018D000CA3ABC01909351028093500280914A020F
:1018E00090914B02892B89F4CE018F960E94482F4C
:1018F00060914E0270914F02CE0189960E94482F4E
:1019000060914C0270914D0210C0CE018F960E94E2
:10191000482F60914C0270914D02CE0189960E9431
:10192000482F60914E0270914F02CE0101960E94A5
:10193000482FBE016F5F7F4FCE0183960E945E15D8
:10194000BE01675D7F4FCE0183960E94BA14BE012F
:10195000615D7F4F0E94BA14BC0185E199E00E944D
:10196000E014CE0183960E942E15CE0101960E94AE
:101970002E15CE0189960E942E15CE018F960E94BB
:101980002E15E091A509F091A609EE0FFF1FE85A68
:10199000FC4F208131813093A6092093A5092D3079
:1019A000310549F481E090E0909359028093580208
:1019B00080E88093BE059091A70981E089278093F4
:1019C000A7098901000F111FF801E85FFD4F808111
:1019D0008093BF05A901425151094230510550F091
:1019E0002930310539F00E94622EF801E85CFD4F84
:1019F000918380838091E3089091E408009739F403
:101A00008091620590916305019721F507C090933D
:101A10005A05809359051816190694F781E08093AA
:101A20005B051092A5051092A40544E650E060E025
:101A300070E088EE93E00E94AE250E947D2D80919B
:101A4000A709811107C01092B30560E087E090E01C
:101A50000E945E1F8091590590915A05019661F58B
:101A60008091E508882341F11092C1058091A70972
:101A7000882329F10E9452170091550510915605AF
:101A80002091570530915805DC01CB01801B910B4B
:101A9000A20BB30B87399105A105B10580F00E9417
:101AA0005217609355057093560580935705909390
:101AB00058050E947D2D03C081E08093C10580916F
:101AC000CA089091CB08009739F4809160059091F5
:101AD00061050197B1F507C09093540580935305B4
:101AE0001816190694F711E010935B051092A505DE
:101AF0001092A40544E650E060E070E088EE93E0C8
:101B00000E94AE250E941E2D8091A709811119C047
:101B10001093B30561E087E090E00E945E1F609142
:101B2000060288E090E00E945E1F6091510589E006
:101B300090E00E945E1F60914F058AE090E00E9455
:101B40005E1F8091530590915405019661F5809137
:101B5000CC08882341F11092C0058091A709882301
:101B600029F10E94521700914B0510914C052091CC
:101B70004D0530914E05DC01CB01801B910BA20B72
:101B8000B30B87399105A105B10580F00E9452176A
:101B900060934B0570934C0580934D0590934E05D3
:101BA0000E941E2D03C081E08093C0058091A7098B
:101BB000811141C08091E3089091E40897FD06C02F
:101BC00080916205909163050196B1F444E650E07E
:101BD00060E070E088EE93E00E94AE2581E08093A3
:101BE000370261E080E090E00E945E1F80EB91E0B0
:101BF0000E94BA270E94621F8091CA089091CB0868
:101C000097FD06C08091600590916105019699F459
:101C100044E650E060E070E088EE93E00E94AE257C
:101C20001092370260E080E090E00E945E1F88EA38
:101C300091E00E94BA27E091A509F091A609E4314C
:101C4000F10508F031C48827E758FF4F8F4F0C94F7
:101C5000F93A8091AE09811122C00E94691D20913C
:101C60000402309105028217930759F00E94691D02
:101C70009093050280930402CE0101960E94962F54
:101C800005C065E179E0CE01019618D7BE016F5F0E
:101C90007F4F85E199E0A9D6CE010196DFD60E945B
:101CA000691D80FD02C080ECE2C01092BE05E1C05B
:101CB0008091AE098111DAC080914305811113C072
:101CC0000E945217DC01CB0187519C4FAF4FBF4F91
:101CD00080933F0590934005A0934105B093420542
:101CE00081E0809343058091370581113CC00E94BB
:101CF000551D68EE73E00E94CA3ABC01CE01019600
:101D00000E94482F0E945D1DBC01CE0183960E9457
:101D1000482F0E94631DBC01CE018F960E94482F60
:101D2000BE01615D7F4FCE018996C8D6BE016D5D53
:101D30007F4FCE0189961ED6BE016F5F7F4F1AD6A8
:101D4000BC0181E395E0BAD681E080933705CE01EE
:101D5000899684D6CE018F9681D6CE0183967ED683
:101D6000CE0101967BD680912905811107C0809113
:101D70004A028093280581E0809329050E9452172A
:101D800000913F0510914005209141053091420599
:101D9000DC01CB01801B910BA20BB30B893E93405E
:101DA000A105B10558F48091280590E020914A02E0
:101DB00030914B028217930709F44AC00E945217D0
:101DC00060933F05709340058093410590934205D1
:101DD00080914A0290914B02892B09F04AC30E94DC
:101DE000551D68EE73E00E94CA3ABC01CE0101960F
:101DF0000E94482F0E945D1DBC01CE0183960E9467
:101E0000482F0E94631DBC01CE018F960E94482F6F
:101E1000BE01615D7F4FCE01899650D6BE016D5DDA
:101E20007F4FCE018996A6D5BE016F5F7F4FA2D5A9
:101E3000BC0181E395E0C4D5CE0189960FD6CE01D1
:101E40008F960CD6CE01839609D6CE01019606D682
:101E500061E375E0CE01019631D6BE016F5F7F4F21
:101E600085E199E0C2D5CE010196F8D580E4809352
:101E7000BE050E94BE2C1092AD091092AC0914C38D
:101E80006091560270915702CE018F960E94482FA2
:101E90006091540270915502CE0189960E94482F9C
:101EA0006091520270915302CE0101960E94482F18
:101EB000BE016F5F7F4FCE01839600D6BE01675D86
:101EC0007F4FCE01839656D5BE01615D7F4F52D5BF
:101ED000BC0185E199E074D5CE018396BFD5CE01D2
:101EE0000196BCD5CE018996B9D5CE018F96B6D5CF
:101EF0001092AD091092AC0980915802909159024C
:101F0000019751F580E88093BE0528C060915A0280
:101F100070915B024AE0CE018396A5D56FE374E031
:101F2000CE010196D3D5BE016D5D7F4FCE010196E6
:101F300021D56FE374E007D5BC0185E199E040D578
:101F4000CE0101968BD5CE01839688D583E390E0B0
:101F50009093AD098093AC091092BE050E94BE2CEF
:101F6000A3C28091AE09811131C081E020915C0251
:101F700030915D02232B09F480E00E94AF2BAB016E
:101F8000BC01CE0101960E94CE29BE016F5F7F4F3A
:101F900085E199E02AD5CE01019660D580915C0259
:101FA00090915D02892B51F481E390E09093AD090B
:101FB0008093AC0980E48093BE0508C083E290E082
:101FC0009093AD098093AC091092BE0581E02091F9
:101FD0005C0230915D02232B09F480E00E94AF2B5C
:101FE00020E030E0A9010E9444389091BE0587FFAF
:101FF00002C0906801C09F779093BE0555C2609162
:102000005E0270915F02CE0101960E94482FBE01D0
:102010006F5F7F4FCE01839651D56DE374E0CE01A3
:10202000839691D4BC0185E199E0CAD4CE01839610
:1020300015D5CE01019612D58FE090E09093AD09B1
:102040008093AC0980915E0290915F0297FD03C07E
:102050001092BE0529C280E88093BE0525C28091FA
:102060004A0290914B02892B71F466E174E085E19C
:1020700099E091D483E090E090931D0280931C023C
:102080008CE090E00DC06DE174E085E199E083D4CF
:102090008CE090E090931D0280931C0283E090E01E
:1020A00090931F0280931E02FFC180914A0290917B
:1020B0004B026091500270915102892B89F4CE013C
:1020C0008F960E94482F60914E0270914F02CE0170
:1020D00089960E94482F60914C0270914D0210C069
:1020E000CE018F960E94482F60914C0270914D0254
:1020F000CE0189960E94482F60914E0270914F0246
:10210000CE0101960E94482FBE016F5F7F4FCE0126
:102110008396D4D4BE01675D7F4FCE0183962AD4C7
:10212000BE01615D7F4F26D4BC0185E199E048D4B2
:10213000CE01839693D4CE01019690D4CE01899698
:102140008DD4CE018F968AD4AFC10E94B82EE09074
:10215000AE05F090AF050091AC051091AD05209152
:10216000AA053091AB054091B1055091B20560913F
:10217000A8057091A9058091A6059091A7050E94D8
:10218000BB190C944B02A394A09288090C9454029E
:10219000809166098B7F8093660980E891E00E94B8
:1021A000BA2780915F090E949D2580915E090E9457
:1021B0009D2580915D090E949D25809161090E9465
:1021C0009D25809162090E949D25809163090E944E
:1021D0009D25E0906309F12C0091620910E02091A7
:1021E000610930E040915D0950E060915E0970E066
:1021F00080915F0990E00E94BB19A0915E02B091AE
:102200005F0240917A0550917B0560917C05709149
:102210007D056A017B01FFEFCF1ADF0AEF0AFF0A93
:1022200020E13EE00E94013BDC01CB018C0D9D1DB5
:10223000AE1DBF1D80937A0590937B05A0937C050E
:10224000B0937D050E94551D7C010E945D1D082FE5
:102250000E94631D2B968FAF2B970E94691D2A96B3
:102260008FAF2A970E946F1D182F0E94751D382F5F
:10227000C70168EE73E00E94CA3AE82E2B962FAD94
:102280002B972A964FAD2A97612F832F0E941925ED
:1022900081E08093300206D66093760570937705CF
:1022A00080937805909379050C94AB04208131815B
:1022B000235131092F30310548F4440F551F661F53
:1022C000771F4160029634960C94FA042081318184
:1022D0002A5031092930310510F00C943D05440F86
:1022E000551F661F771FEECF1092A7095093A609BE
:1022F0004093A509452BB9F40E94551D7C010E940D
:102300005D1D8C010E94631D9C014091480250910B
:102310004902609146027091470280914402909177
:1023200045020E94BB198091A5099091A6090197C9
:10233000B1F58EEB91E00E94992780914C0290912B
:102340004D020E949A2287EB91E00E94992780918A
:102350004E0290914F020E949A22E0905002F0901B
:10236000510290E3E91A98EFF90A00914E02109198
:102370004F0280904C0290904D020E94691D5C01BA
:102380000E946F1D6C010E94751D9401A501B6018C
:10239000F2D760914A028DE090E00E945E1F80912A
:1023A000A5099091A6090297C1F46091520282E0BA
:1023B00090E00E945E1F6091540283E090E00E94D2
:1023C0005E1F6091560284E090E00E945E1F609163
:1023D000580286E090E00E945E1F8091A5099091CE
:1023E000A609039731F460915A0281E090E00E94BF
:1023F0005E1F8091A5099091A609049731F4609120
:102400005C028BE090E00E945E1F8091A509909194
:10241000A609059739F460915E02645F8CE090E054
:102420000E945E1F0E94551D7C010E945D1D082FA9
:102430000E94631D2B968FAF2B970E94691D2A96D1
:102440008FAF2A970E946F1D182F0E94751D382F7D
:10245000C70168EE73E00E94CA3AE82E2B962FADB2
:102460002B972A964FAD2A97612F832F0E9419250B
:102470001BC00E94551D68EE73E00E94CA3ABC0161
:10248000CE0101960E94482F0E94631DBC01CE011F
:1024900083960E94482F0E945D1DB5CC109267095B
:1024A00010928B090C945402C65BDF4F0FB6F89460
:1024B000DEBF0FBECDBFDF91CF911F910F91FF9077
:1024C000EF90DF90CF90BF90AF909F908F907F90D4
:1024D0006F905F904F903F902F9008950895CF9206
:1024E000DF92EF92FF920F931F93CF93DF936C01D4
:1024F0007A018B01C0E0D0E0CE15DF0589F0D8016C
:102500006D918D01D601ED91FC910190F081E02D4E
:10251000C6011995892B11F47E0102C02196ECCFDA
:10252000C701DF91CF911F910F91FF90EF90DF9046
:10253000CF900895FC01A089B1898C91A689B789B3
:1025400082FD0FC09C91818D8F5F8F73228D8217CA
:1025500049F0218DDF01A20FB11D5D969C93818F03
:1025600008958C910895FC01538D448D252F30E002
:10257000842F90E0821B930B541710F0CF96089590
:1025800001970895FC01918D828D981761F0828DDD
:10259000DF01A80FB11D5D968C91928D9F5F9F7397
:1025A000928F90E008958FEF9FEF0895FC01918D39
:1025B000828D981731F0828DE80FF11D858D90E0A6
:1025C00008958FEF9FEF0895FC01918D228D892F43
:1025D00090E0805C9F4F821B91098F73992708952B
:1025E0008DE996E0F1DF21E0892B09F420E0822FCC
:1025F00008958AE397E0E8DF21E0892B09F420E0E1
:10260000822F0895FC01848DDF01A80FB11DA35A0C
:10261000BF4F2C91848D90E001968F739927848F02
:10262000A689B7892C93A089B1898C9180648C93F9
:10263000938D848D981306C00288F389E02D8081E4
:102640008F7D80830895EF92FF920F931F93CF9316
:10265000DF93EC0181E0888F9B8D8C8D981305C0F2
:10266000E889F989808185FD23C0F62E0B8D10E065
:102670000F5F1F4F0F731127E02E8C8DE8120BC0D8
:102680000FB607FCFACFE889F989808185FFF5CF7D
:10269000CE01B8DFF2CF8B8DFE01E80FF11DE35ABA
:1026A000FF4FF0820B8FEA89FB898081806207C02F
:1026B000EE89FF896083E889F9898081806480835D
:1026C00081E090E0DF91CF911F910F91FF90EF900B
:1026D0000895CF93DF93EC01888D8823C1F0EA89B8
:1026E000FB89808185FD05C0A889B9898C9186FD0B
:1026F0000EC00FB607FCF5CF808185FFF2CFA88909
:10270000B9898C9185FFEDCFCE017CDFE8CFDF91D9
:10271000CF91089580E090E0892B19F06ADF811154
:1027200020C080E090E0892B19F05ADF81111CC095
:1027300080E090E0892B41F080E090E0892B21F04F
:102740000E940000811113C080E090E0892BA1F06D
:1027500080E090E0892B81F00E94000081110AC086
:1027600008950E940000DDCF0E940000E1CF0E948A
:102770000000EACF0C940000089590E0FC0131972E
:10278000E231F10508F04EC08827E357FF4F8F4F25
:102790000C94F93A809180008F7703C0809180007B
:1027A0008F7D80938000089580918000877FF9CF8E
:1027B00084B58F7702C084B58F7D84BD08958091E4
:1027C000B0008F7703C08091B0008F7D8093B00000
:1027D0000895809190008F7707C0809190008F7D41
:1027E00003C080919000877F80939000089580912E
:1027F000A0008F7707C08091A0008F7D03C08091DB
:10280000A000877F8093A0000895809120018F779A
:1028100007C0809120018F7D03C080912001877FB8
:10282000809320010895CF93DF93EC0188819981F3
:10283000009711F00E94A23B198218821D821C820F
:102840001B821A82DF91CF9108950F931F93CF932C
:10285000DF93EC0188819981009729F02A813B81DF
:102860002617370788F48B016F5F7F4F0E943A3C31
:10287000009761F0998388831B830A832C813D81B3
:10288000232B11F4FC01108281E001C080E0DF9174
:10289000CF911F910F910895EF92FF920F931F9385
:1028A000CF93DF93EC017B018A01BA01CEDF811166
:1028B00003C0CE01B8DF07C01D830C83B701888138
:1028C00099810E94273DCE01DF91CF911F910F91F9
:1028D000FF90EF900895FC0180819181009711F0A5
:1028E0000C94CC3760E070E0CB010895EF92FF923A
:1028F0000F931F93CF93DF93FC01248135816115E2
:10290000710511F480E018C041155105A1F07B015B
:10291000EC018A01020F131FB80197DF882391F39E
:10292000288139818C819D81B701820F931F0E947C
:10293000273D1D830C8381E0DF91CF911F910F9183
:10294000FF90EF900895CF93DF93EC01611571052F
:1029500059F0FB0101900020E9F73197AF01461BC8
:10296000570BC4DF811102C0CE015DDFCE01DF91C4
:10297000CF910895CF93DF93EC01FB014481558102
:1029800060817181B3DF811102C0CE014CDFCE01C5
:10299000DF91CF910895CF93DF93EC01611571051D
:1029A00051F0FB0101900020E9F73197AF01461B80
:1029B000570B72DF01C037DFCE01DF91CF91089551
:1029C000CF93DF93EC01FB018617970751F06081ED
:1029D00071816115710521F0448155815DDF01C070
:1029E00022DFCE01DF91CF9108950F931F93CF93F4
:1029F000DF938C01EB01FC01808191810097B1F0A4
:102A0000688179816115710579F0428153812C814A
:102A10003D814217530740F00E94273D8C819D81E4
:102A2000F8019583848313C00E94A23B8881998119
:102A3000F801918380838A819B81938382838C8137
:102A40009D8195838483198218821B821A821D823C
:102A50001C82DF91CF911F910F910895FC0180811D
:102A600091810C94A23B0F931F93CF93DF93CDB72B
:102A7000DEB762970FB6F894DEBF0FBECDBF8C01F4
:102A8000CB01F80111821082138212821582148206
:102A900050E0BE016F5F7F4F0E94F237BE016F5F53
:102AA0007F4FC80178DF62960FB6F894DEBF0FBE85
:102AB000CDBFDF91CF911F910F910895FC0111823D
:102AC000108213821282158214827ACFFC01118245
:102AD000108213821282158214826115710549F0E9
:102AE000FB0101900020E9F73197AF01461B570B1E
:102AF000D3CE0895BF92CF92DF92EF92FF920F93C1
:102B00001F93CF93DF937C016B018A01E9012417A6
:102B1000350720F4812F8901C42FD82F66E274E095
:102B2000C701D4DFD60114968D919C911597081793
:102B30001907C8F48C179D0708F4EC01D601ED9134
:102B4000FC911197EC0FFD1FB08010824D915C91AC
:102B5000BA01600F711FC7011EDFD601ED91FC9114
:102B6000EC0FFD1FB082C701DF91CF911F910F9134
:102B7000FF90EF90DF90CF90BF9008951F920F923B
:102B80000FB60F9211240BB60F922F933F934F93D2
:102B90005F936F937F938F939F93AF93BF93EF93C5
:102BA000FF938DE996E02EDDFF91EF91BF91AF91FC
:102BB0009F918F917F916F915F914F913F912F9155
:102BC0000F900BBE0F900FBE0F901F9018951F9285
:102BD0000F920FB60F9211240BB60F922F933F93C3
:102BE0004F935F936F937F938F939F93AF93BF9315
:102BF000EF93FF938DE996E09DDCFF91EF91BF91FC
:102C0000AF919F918F917F916F915F914F913F9184
:102C10002F910F900BBE0F900FBE0F901F90189525
:102C20001F920F920FB60F9211240BB60F922F9393
:102C30003F934F935F936F937F938F939F93AF9344
:102C4000BF93EF93FF938AE397E0DCDCFF91EF9172
:102C5000BF91AF919F918F917F916F915F914F91B4
:102C60003F912F910F900BBE0F900FBE0F901F90B2
:102C700018951F920F920FB60F9211240BB60F9258
:102C80002F933F934F935F936F937F938F939F9374
:102C9000AF93BF93EF93FF938AE397E04BDCFF91F1
:102CA000EF91BF91AF919F918F917F916F915F91C4
:102CB0004F913F912F910F900BBE0F900FBE0F9031
:102CC0001F901895CF93DF93282F30E0F901E65F2E
:102CD000FD4F8491F901EF57FC4FD491F901E55C68
:102CE000FC4FC491CC2389F0811147DDEC2FF0E03B
:102CF000EE0FFF1FEF5DFC4FA591B491EC91ED231A
:102D000081E090E021F480E002C080E090E0DF917B
:102D1000CF9108951F93CF93DF93282F30E0F901CF
:102D2000E65FFD4F8491F901EF57FC4FD491F90113
:102D3000E55CFC4FC491CC23C1F0162F81111DDD41
:102D4000EC2FF0E0EE0FFF1FE95FFC4FA591B4916F
:102D50008FB7F894111105C09C91ED2FE095E923F0
:102D600002C0EC91ED2BEC938FBFDF91CF911F91BF
:102D70000895CF93DF9390E0FC01EF57FC4F24912F
:102D8000FC01E55CFC4F8491882361F190E0880FA1
:102D9000991FFC01ED5AFD4FC591D491FC01E95FEB
:102DA000FC4FA591B491611109C09FB7F894888137
:102DB000209582238883EC912E230BC0623061F42E
:102DC0009FB7F8943881822F809583238883EC9174
:102DD0002E2B2C939FBF06C08FB7F894E8812E2B23
:102DE00028838FBFDF91CF9108953FB7F8948091EA
:102DF000960590919705A0919805B091990526B5F3
:102E0000A89B05C02F3F19F00196A11DB11D3FBF22
:102E1000BA2FA92F982F8827820F911DA11DB11DB0
:102E2000BC01CD0142E0660F771F881F991F4A95AC
:102E3000D1F708958F929F92AF92BF92CF92DF9277
:102E4000EF92FF926B017C01D0DF4B015C01C1145A
:102E5000D104E104F104E9F0C8DFDC01CB018819F9
:102E60009909AA09BB09883E9340A105B10578F3E9
:102E700021E0C21AD108E108F10888EE880E83E04B
:102E8000981EA11CB11CC114D104E104F10421F766
:102E9000DECFFF90EF90DF90CF90BF90AF909F90EC
:102EA0008F9008952FB7F8946091920570919305D3
:102EB00080919405909195052FBF089560937A05B0
:102EC00070937B0580937C0590937D05DC01CB019D
:102ED000845D9E4FAF4FBF4F80938D0590938E05BD
:102EE000A0938F05B093900582E090E090938C05BD
:102EF00080938B05D7DF6093870570938805809357
:102F0000890590938A0508951F920F920FB60F922C
:102F100011242F933F938F939F93AF93BF938091EF
:102F2000920590919305A0919405B09195053091EB
:102F3000910523E0230F2D3720F40196A11DB11D2B
:102F400005C026E8230F0296A11DB11D209391050F
:102F50008093920590939305A0939405B093950563
:102F60008091960590919705A0919805B09199054B
:102F70000196A11DB11D8093960590939705A0938E
:102F80009805B0939905BF91AF919F918F913F9113
:102F90002F910F900FBE0F901F9018951F920F92B8
:102FA0000FB60F9211240BB60F922F933F934F93AE
:102FB0005F936F937F938F939F93AF93BF93EF93A1
:102FC000FF938091E4077EDE2091E8073091E907C6
:102FD0002F5F3F4F3093E9072093E8079091E70771
:102FE000953618F096E09093E3079091E3079430BC
:102FF000C9F128F4923069F09330D1F05EC0953079
:1030000009F451C0963009F058C091E09093B4088B
:1030100051C0811152C02091E8073091E907243650
:10302000310508F442C01092B4081092E7071CC0A2
:10303000813009F042C0E091E70791E09E0F909344
:10304000E707F0E02091E8073091E907EE0FFF1F56
:10305000ED51F84F308727831092E9071092E80767
:1030600094E029C0811117C0E091E70791E09E0F1D
:103070009093E707F0E02091E8073091E907EE0F21
:10308000FF1FED51F84F308727831092E907109208
:10309000E80793E010C02091E8073091E907253652
:1030A000310558F007C0811108C01092E90710924D
:1030B000E80703C095E09093E3079091E607992312
:1030C000B1F081110AC08091E507882321F0809139
:1030D000E50761E009C02F9A0AC08091E5078823BF
:1030E00029F08091E50760E015DE01C02F98FF917F
:1030F000EF91BF91AF919F918F917F916F915F9170
:103100004F913F912F910F900BBE0F900FBE0F90DC
:103110001F9018951F920F920FB60F9211240BB6A5
:103120000F922F933F934F935F936F937F938F9360
:103130009F93EF93FF9340918F065091900660917B
:10314000910670919206411551056105710599F03E
:1031500080919A05E0919B05F0919C0590818927CB
:1031600080831416150616061706D4F4415051092B
:103170006109710915C0809170008D7F8093700086
:1031800090919A05E0919B05F0919C058081282FF4
:1031900030E0892F90E0809590958223932380835F
:1031A00040938F0650939006609391067093920619
:1031B000FF91EF919F918F917F916F915F914F91CF
:1031C0003F912F910F900BBE0F900FBE0F901F904D
:1031D00018951F920F920FB60F9211240BB60F92F3
:1031E0002F933F938F939F93AF93BF93EF93FF934F
:1031F0008091930690919406A0919506B0919606C1
:10320000892B8A2B8B2B51F180919D05E0919E0596
:10321000F0919F05908189278083809193069091FA
:103220009406A0919506B0919606181619061A06EE
:103230001B064CF58091930690919406A0919506FB
:10324000B09196060197A109B109809393069093D6
:103250009406A0939506B093960615C080916F00D2
:103260008D7F80936F0090919D05E0919E05F09178
:103270009F058081282F30E0892F90E080959095E0
:10328000822393238083FF91EF91BF91AF919F9110
:103290008F913F912F910F900BBE0F900FBE0F900B
:1032A0001F9018951F920F920FB60F9211240BB614
:1032B0000F922F933F938F939F93AF93BF93EF936F
:1032C000FF938091970690919806A0919906B091EE
:1032D0009A06892B8A2B8B2B51F18091A005E091C6
:1032E000A105F091A205908189278083809197069E
:1032F00090919806A0919906B0919A061816190611
:103300001A061B064CF58091970690919806A0919D
:103310009906B0919A060197A109B1098093970681
:1033200090939806A0939906B0939A0615C0809141
:103330006E008D7F80936E009091A005E091A105B5
:10334000F091A2058081282F30E0892F90E08095B0
:103350009095822393238083FF91EF91BF91AF914A
:103360009F918F913F912F910F900BBE0F900FBEA9
:103370000F901F9018953F924F925F926F927F929D
:103380008F929F92AF92BF92CF92DF92EF92FF9275
:103390000F931F93CF93DF93382E962E842EF9012F
:1033A00084E6E816F1042CF082EBE81A87E0F80ACC
:1033B00003C08EE1E80EF11CE092840500938305C2
:1033C000E09382053092800590927F0580927E0581
:1033D000AE2DB0E020E833E341EE51E00E94A43985
:1033E0002B013C0122EB37E0FF2484E6C82ED12CD0
:1033F000C0E9D1E0C901825B97408E159F05DCF4DE
:10340000C90183709927892B99F4C901B6010E94DB
:10341000CA3A892B31F4C901BE010E94CA3A892BEC
:1034200039F480E8480E81E5581E81E0681E711C61
:103430002F5F3F4FDFCF8EE4E81A88EFF80AC7010D
:1034400064E670E00E94CA3A6C01C70160E971E06D
:103450000E94CA3A5C01C1E0D0E0112783E0E82273
:10346000FF24C017D1072CF5C230D10589F4E1142F
:10347000F10471F4C114D10419F4A114B10441F49C
:1034800080E8480E8BE3581E86E2681E711C0FC050
:10349000DE01A158BC4FAC91B0E020E831E541E03D
:1034A00050E00E94A439460E571E681E791E2196D0
:1034B000D8CF292D30E0ACE3B0E00E94AE396B01EB
:1034C0007C01C80CD11CE11CF11C232D30E0A0E1D3
:1034D000BEE00E94AE39C60ED71EE81EF91EDF01FF
:1034E000BB27119720E831E541E050E00E94073BFF
:1034F000DC01CB018C0D9D1DAE1DBF1DBC01CD019E
:10350000640D751D861D971DDF91CF911F910F9141
:10351000FF90EF90DF90CF90BF90AF909F908F90F3
:103520007F906F905F904F903F90C8CCCF92DF928A
:10353000EF92FF920F931F93B5DCC0908705D09058
:103540008805E0908905F0908A058B019C010C1993
:103550001D092E093F0980917A0590917B05A09164
:103560007C05B0917D05083E134021053105D0F062
:103570000196A11DB11D80937A0590937B05A093C0
:103580007C05B0937D05B701A60148515C4F6F4F94
:103590007F4F40938705509388056093890570930A
:1035A0008A05CACF40918D0550918E0560918F0597
:1035B0007091900584179507A607B70780F1E091F1
:1035C0008505F0918605309751F1199561157105C2
:1035D0008105910511F072DC22C080917A059091ED
:1035E0007B05A0917C05B0917D05845D9E4FAF4F1A
:1035F000BF4F80938D0590938E05A0938F05B09358
:10360000900581E090E020918B0530918C05232B73
:1036100011F480E090E090938C0580938B0560918D
:103620007A0570917B0580917C0590917D051F91B5
:103630000F91FF90EF90DF90CF90089585ED8093EC
:10364000BC008091BC0084FDFCCF10926C060895F4
:103650004091F905262F30E0240F311D213231052C
:10366000DCF420916C062430C9F4FC0180E090E089
:10367000861758F43091F9052191DC01A952BA4F0F
:10368000A30FB11D2C930196F3CF8091F905680F1C
:103690006093F90580E0089581E0089582E008953F
:1036A0000895E0916E0680916D06E81730F4F0E021
:1036B000E159F94F808190E008958FEF9FEF0895D1
:1036C00090916E0680916D06981750F4E92FF0E006
:1036D000E159F94F208130E09F5F90936E0602C060
:1036E0002FEF3FEFC901089580916D0690E0209182
:1036F0006E06821B91090895CF92DF92EF92FF929E
:103700000F931F93CF93DF937C01262F972F8A016E
:1037100080912206882391F0C62FD72F6E01C40E08
:10372000D51ECC15DD0569F06991D701ED91FC91AD
:103730000190F081E02DC7011995F3CF642F822FFE
:1037400087DFC801DF91CF911F910F91FF90EF901C
:10375000DF90CF900895CF93DF931F92CDB7DEB760
:103760006983209122062223D1F020914506203240
:1037700040F021E030E0FC013383228380E090E0E0
:1037800014C080912306E82FF0E0EC5DF94F998199
:1037900090838F5F809323068093450604C061E089
:1037A000CE01019655DF81E090E00F90DF91CF913F
:1037B0000895089580E090E00895CF92DF92EF920F
:1037C000FF921F93CF93DF939091C105911103C096
:1037D0008FEF9FEF6FC09091C0059923C9F3182F09
:1037E000C091BF05D0E08091CF0581110CC05ADB9C
:1037F0006093CB057093CC058093CD059093CE0557
:1038000081E08093CF054EDBC090CB05D090CC05F6
:10381000E090CD05F090CE05DC01CB018C199D091F
:10382000AE09BF098D329140A105B105D0F03ADB58
:103830006093CB057093CC058093CD059093CE0516
:103840008091CA0591E098279093CA05992329F0A1
:103850001092C9051092C80504C0D093C905C09341
:10386000C8052091C8053091C90520953095409133
:10387000BE0550E02423352326FF04C081E0809359
:10388000C70502C01092C70527FF04C081E08093DE
:10389000C60502C01092C6058091CA05882309F4A6
:1038A00097CF02C0D595C7951A95E2F7C0FF90CF84
:1038B00080E09CE3DF91CF911F91FF90EF90DF902C
:1038C000CF9008954F925F926F927F928F929F92C6
:1038D000AF92BF92CF92DF92EF92FF920F931F931E
:1038E000CF93DF934B015C0180911E0690911F06E0
:1038F000A0912006B091210688169906AA06BB065B
:1039000009F4C2C08CE3C82ED12CE12CF12CC501E6
:10391000B401A70196010E94823960937E05CA0115
:10392000B901A70196010E94823960937F05CA01FF
:10393000B90128E130E040E050E00E94823969019D
:103940007A0160938005CA01B9016C5F7F4F8F4F88
:103950009F4F27E030E040E050E00E9482396F5FE7
:1039600060938105412C512C320140E004E610E0C7
:10397000C0E9D1E0242F30E02E54384FF901E37034
:10398000FF27309789F4C901B8010E94CA3A892BF0
:1039900031F4C901BE010E94CA3A892B29F48EE68E
:1039A00091E0A0E0B0E004C08DE691E0A0E0B0E0DE
:1039B000480E591E6A1E7B1ED301C201AA27BB27CF
:1039C000C816D906EA06FB0610F04F5FD3CF409326
:1039D0008405309799F4C90164E670E00E94CA3A00
:1039E000892B39F4C90160E971E00E94CA3A892B38
:1039F00029F48EE691E0A0E0B0E004C08DE691E00D
:103A0000A0E0B0E0481A590A6A0A7B0AC418D5082F
:103A1000E608F708C90164E670E00E94CA3AEC01C2
:103A2000C90160E971E00E94CA3AA0E8B3E020E071
:103A3000213039F4309749F4209729F4009729F47C
:103A400002C04C9103C04DE101C04CE150E060E088
:103A500070E0C416D506E606F70640F0C41AD50A8B
:103A6000E60AF70A2F5F11962C3011F72F5F20938B
:103A70008305C394C092820580921E0690921F0611
:103A8000A0922006B0922106DF91CF911F910F9155
:103A9000FF90EF90DF90CF90BF90AF909F908F906E
:103AA0007F906F905F904F90089540DD0BDF809185
:103AB000840590E08E54984F089538DD03DF80919F
:103AC000830590E0089532DDFDDE8091820590E06F
:103AD00008952CDDF7DE80917E0590E0089526DDC7
:103AE000F1DE80917F0590E0089520DDEBDE80918E
:103AF000800590E00895CF92DF92EF92FF92CF93EE
:103B0000DF93EC01CFD96B017C018F85DBD821E0FD
:103B1000892B09F420E0298B8889811103C081E079
:103B20008227898B29898A89281721F0CD8ADE8A04
:103B3000EF8AF88E8D899E89AF89B88DB701A6016D
:103B4000481B590B6A0B7B0BDB01CA01CB80DC8065
:103B5000ED80FE80C416D506E606F70664F43A81C9
:103B6000231749F02A83222331F04B895C894F5F68
:103B70005F4F5C8B4B8B3A8131110CC0CF80D88466
:103B8000E984FA84C816D906EA06FB06ACF48B89E8
:103B90009C890EC0CB84DC84ED84FE84C816D906D3
:103BA000EA06FB064CF48B899C89919581959109D5
:103BB000998388831C8A1B8A2A8BDF91CF91FF907F
:103BC000EF90DF90CF9008950F931F93CF93DF93E3
:103BD0001F92CDB7DEB78C01862FF8016787408B27
:103BE00091E04927418B428B148A138A11821082FB
:103BF0001282158A168A178A108E44E150E060E01E
:103C000070E043835483658376834AEF50E060E03D
:103C100070E0478350876187728748EE53E060E029
:103C200070E0438754876587768760E02983A1D851
:103C3000F8018089298181110AC0222341F061E0C5
:103C400087850F90DF91CF911F910F9163C80F90DF
:103C5000DF91CF911F910F9108951F920F920FB690
:103C60000F9211240BB60F922F933F934F935F93B4
:103C70006F937F938F939F93AF93BF93EF93FF9334
:103C80008091B900887F803609F49CC068F588323D
:103C900009F45BC090F4803109F454C038F48823EF
:103CA00009F4F6C0883009F44DC0F5C0883109F434
:103CB0004CC0803209F45DC0EEC0803409F468C0A5
:103CC00048F4803309F455C0883309F0E4C0809388
:103CD0006A06D8C0803509F44FC0883509F45DC044
:103CE000883409F0D8C0D6C0883909F4C7C0A8F410
:103CF000883709F467C038F4883609F463C0803720
:103D000009F460C0C8C0883809F4B8C0803909F423
:103D10005FC0803809F0BFC05BC0803B09F486C03B
:103D200038F4803A09F466C0883A09F47FC0B3C019
:103D3000803C09F4A7C0883C09F4A4C0883B09F47E
:103D40008AC0A9C08091670610C0909169068091D1
:103D50006806981770F5E091690681E08E0F8093F0
:103D60006906F0E0EA5BF94F80818093BB0085EC47
:103D700086C080936A068EC0E091690681E08E0F4E
:103D8000809369068091BB00F0E0EA5BF94F808385
:103D900090916906809168066EC0E091690681E0A5
:103DA0008E0F809369068091BB00F0E0EA5BF94FCB
:103DB000808380916B0681116DC081E080936606DF
:103DC00084EA61C083E080936C0610921D06CFCF19
:103DD00080911D06803208F051C0E0911D0681E0FF
:103DE0008E0F80931D068091BB00F0E0E350FA4FE8
:103DF0008083BDCF85EC8093BC0010926C068091CF
:103E00001D06803230F4E0911D06F0E0E350FA4FD9
:103E1000108260911D0670E0E091FB05F091FC05B9
:103E20008DEF95E0199510921D0635C084E08093C2
:103E30006C061092FA051092F905E091F705F091E1
:103E4000F80519958091F905811105C081E08093ED
:103E5000F9051092D705E091FA0581E08E0F809365
:103E6000FA05F0E0E952FA4F80818093BB0090910F
:103E7000FA058091F905981708F479CF85E88093C1
:103E8000BC0009C085EC8093BC0010926C0603C096
:103E900010926A06D3DBFF91EF91BF91AF919F9192
:103EA0008F917F916F915F914F913F912F910F90E3
:103EB0000BBE0F900FBE0F901F9018950C94653994
:103EC0000C945D398F929F92AF92BF92CF92DF9206
:103ED000EF92FF920F931F93CF93DF9388E090E0D0
:103EE000EFDF982EA82EB12C89E090E0E9DFC82EF4
:103EF000082F10E08AE090E0E3DFC82FD0E0D12C5B
:103F0000E12CF12CFE2CED2CDC2CCC24E928C82A49
:103F1000812C912CB701A601C4010E94C6278FEF06
:103F2000881A980A88E088169104A1F70E9431281F
:103F300084EF92E00E94BA278FEE92E0FAD7C50193
:103F4000F9D288EE92E0F5D7C801F4D282EE92E081
:103F5000F0D7CE01DF91CF911F910F91FF90EF909D
:103F6000DF90CF90BF90AF909F908F90E3C2CF93A0
:103F7000DF93C0E0D0E040E050E0BA01CE010E9403
:103F8000C6272196C830D105B1F7DF91CF910C94A7
:103F900031282F923F924F925F926F927F928F9231
:103FA0009F92AF92BF92CF92DF92EF92FF920F93C8
:103FB0001F93CF93DF93CDB7DEB764970FB6F89416
:103FC000DEBF0FBECDBF0E94F5160091C205109155
:103FD000C3052091C4053091C505DC01CB01801BD0
:103FE000910BA20BB30B8E34934CA105B10508F4D1
:103FF00088C20E94F5166093C2057093C305809332
:10400000C4059093C50585E199E00E946B142AE0F0
:10401000422E512C612C712CA30192010E94DD3A99
:10402000CB01880F991FFC01EC54FC4FC080D1805C
:1040300085E090E0298B3A8B4B8B5C8BBEDB1C01BF
:1040400029893A894B895C89CA01B901A301920186
:104050000E94DD3A660F771FFB01EC54FC4FA080F5
:10406000B18084E090E0298B3A8B4B8B5C8BA5DB95
:104070007C0129893A894B895C89CA01B901A3016C
:1040800092010E94DD3A2D873E874F87588B660F3D
:10409000771FFB01EC54FC4F0081118183E090E01D
:1040A0008CDB45018E209F20A12CB12CAAE0880C2E
:1040B000991CAA1CBB1CAA95D1F780239123AC01A3
:1040C00060E070E0D501C401842B952BA62BB72BA3
:1040D000C220D320E12CF12C14E1CC0CDD1CEE1C11
:1040E000FF1C1A95D1F78C299D29AE29BF29209153
:1040F000C705222311F0B06401C0BF7B2091C60523
:104100002C013D01222319F0689477F802C0E8944D
:1041100077F8212C312C19821A821B821C82812C67
:10412000912C5401C12CD12C7601C394B1016F5D47
:104130007F4F072E000C880B990B0E944A386D8325
:104140007E838F83988720E030E040E85EE30E9422
:10415000A9380E94223A69877A878B879C8720E05A
:1041600030E040E850E40E94A9382D813E814F8123
:1041700058850E94BD399B01AC0160E070E080E48D
:1041800090E40E94BD3920E030E040E851E40E9414
:10419000A93829853A854B855C850E94BE390E94E5
:1041A000353A93018201022C04C036952795179564
:1041B00007950A94D2F761327105DCF461507109F8
:1041C000D701C60104C0880F991FAA1FBB1F6A959B
:1041D000D2F700FF05C0882A992AAA2ABB2A2FC035
:1041E00080959095A095B09588229922AA22BB220D
:1041F00026C061527109D701C60104C0880F991FFA
:10420000AA1FBB1F6A95D2F700FF09C029813A8116
:104210004B815C81282B392B4A2B5B2B0CC0809562
:104220009095A095B09529813A814B815C81282396
:1042300039234A235B2329833A834B835C833FEFF3
:10424000231A330A40E22416310409F06FCF9AE0B2
:10425000C92ED12CE12CF12C6D857E858F85988916
:10426000A70196010E94DD3A660F771FFB01EC540F
:10427000FC4F0081118182E090E0298B3A8B4B8BBF
:104280005C8B9BDA3C0129893A894B895C89CA019C
:10429000B901A70196010E94DD3A660F771FFB0165
:1042A000EC54FC4F2080318081E090E0298B3A8BE8
:1042B0004B8B5C8B82DA062117212801612C712C33
:1042C000A4E1440C551C661C771CAA95D1F74D82BD
:1042D0005E826F827886822193212C01612C712C61
:1042E000BAE0440C551C661C771CBA95D1F78D8139
:1042F0009E81AF81B885482A592A6A2A7B2A298952
:104300003A894B895C89CA01B901A70196010E94CB
:10431000DD3A660F771FFB01EC54FC4F00811181E1
:1043200080E090E04ADA80239123A0E0B0E0482AC0
:10433000592A6A2A7B2A8091C705882319F0689434
:1043400076F802C0E89476F88091C605882341F09B
:10435000A3019201506829873A874B875C8707C081
:10436000D301C201BF7789879A87AB87BC87212C8D
:10437000312C412C512C3201439481010F5F1F4F8E
:10438000B801012E000C880B990B0E944A386D83EE
:104390007E838F83988720E030E040E85EE30E94D0
:1043A000A9380E94223A6B017C0120E030E040E80D
:1043B00050E40E94A9382D813E814F8158850E948A
:1043C000BD399B01AC0160E070E080E490E40E94A4
:1043D000BD3920E030E040E851E40E94A938A7014F
:1043E00096010E94BE390E94353AC984DA84EB8472
:1043F000FC8404C0F694E794D794C7942A94D2F727
:1044000061327105DCF461507109D301C20104C04D
:10441000880F991FAA1FBB1F6A95D2F7C0FE05C05F
:10442000882A992AAA2ABB2A2FC080959095A09500
:10443000B09588229922AA22BB2226C06152710916
:10444000D301C20104C0880F991FAA1FBB1F6A9520
:10445000D2F7C0FE09C029813A814B815C81282BAB
:10446000392B4A2B5B2B0CC080959095A095B0956D
:1044700029813A814B815C81282339234A235B239C
:1044800029833A834B835C8318010032110509F0BC
:1044900074CF8C810E9480308B810E9480308A8111
:1044A0000E94803089810E9480308B2D0E94803054
:1044B0008A2D0E948030892D0E948030882D0E9494
:1044C000803061E08AE00E948A1660E08AE06496AB
:1044D0000FB6F894DEBF0FBECDBFDF91CF911F9115
:1044E0000F91FF90EF90DF90CF90BF90AF909F9093
:1044F0008F907F906F905F904F903F902F900C9493
:104500008A1664960FB6F894DEBF0FBECDBFDF915A
:10451000CF911F910F91FF90EF90DF90CF90BF90C0
:10452000AF909F908F907F906F905F904F903F9053
:104530002F900895CF92DF92EF92FF92CF93DF9367
:104540006C01990FEE08FF08F7FE19C0E0913A07D9
:10455000F0913B070190F081E02D6DE28AE397E056
:104560001995EC0166277727CB016C197D098E0917
:104570009F094AE036D67C01EC0EFD1E05C04AE0DC
:10458000C701B6012ED67C0184E294E0C0D48E0D22
:104590009F1DDF91CF91FF90EF90DF90CF90089516
:1045A00090916C069111FCCF813208F080E291E08D
:1045B00090936C0690936B062FEF20936A061092EF
:1045C0006906280F20936806909367069091670606
:1045D000906D9093670690916606913061F4109209
:1045E0006606909167069093BB009091BC0093FD86
:1045F000F8CF95EC01C095EE9093BC0090916C06BD
:104600009130E1F390916906981710F48091690652
:10461000A6E4B6E02FE636E0F9019E2F921B98172C
:1046200018F49D919193F9CF10926E0680936D06C8
:1046300008952091450690914406213208F04AC021
:1046400080916C068111FCCF32E030936C0631E032
:1046500030936B063FEF30936A0610926906209301
:104660006806A4E2B6E046E456E0FA013E2F341BA9
:10467000321718F43D913193F9CF109267062091CB
:104680006706990F922B909367069091660691307A
:1046900061F410926606909167069093BB0090912A
:1046A000BC0093FDF8CF95EC01C095EE9093BC0053
:1046B00090916C069230E1F390916A069F3F79F0F9
:1046C00080916A06803241F080916A06803331F031
:1046D00084E005C081E003C082E001C083E0109265
:1046E000230610924506109222060895982F809175
:1046F0008709823009F460C0893009F48BC08130A9
:1047000009F0CAC04091880950E04930510508F0CD
:10471000C3C0FA018827E156FF4F8F4F0C94F93A36
:10472000109283099C3209F4B7C080918A09826093
:1047300080938A09990F9056892F880F880F03C09C
:1047400080917E098053980F90937E09A5C0990FA0
:104750009056892F880F880F03C080917D09805360
:10476000980F90937D0998C0990F9056892F880FC4
:10477000880F03C080917C098053980F90937C0927
:104780008BC09C3209F088C013C09C3289F0990F0D
:104790009056892F880F880F980F909383097CC0BB
:1047A0009C3231F0809183098053980F9093830954
:1047B0008091850984606EC08091880981116CC0E8
:1047C000913311F0913411F483E021C0903321F042
:1047D0009E3411F0963519F41092840958C0923322
:1047E00011F0943411F484E012C0933311F487E093
:1047F0000EC0943311F486E00AC0953311F485E0BD
:1048000006C0963319F0953409F046C081E08093D4
:1048100084093DC080918809823019F140F48823D1
:10482000A9F08130C9F580918009805316C0843089
:1048300029F1E8F0853081F5809182098053980F45
:104840009093820980918509826024C09C3221F175
:10485000990F9056892F880F880F980F9093800991
:104860001BC0990F9056892F880F880F03C0809125
:1048700081098053980F909381090EC0990F90562B
:10488000892F880F880F980F9093820905C0809117
:10489000850981608093850981E0089580911B09D5
:1048A000E0911C09F0911D09F8949181982B918356
:1048B0002281982F909529232283A7E0B0E01197B9
:1048C000F1F7218192239183A3E2B0E01197F1F7F0
:1048D00090817894EFECF0E03197F1F7982381E044
:1048E00009F480E0089590911B09E0911C09F09172
:1048F0001D09392F309580FF13C0F8942281832F32
:10490000822382838181892B8183A3E2B0E0119786
:10491000F1F78281982B9283789487ED90E012C012
:10492000F8942281832F822382838181892B818342
:10493000AFEFB0E01197F1F78281982B92837894D2
:104940008FE090E00197F1F708950F931F93CF93B5
:10495000DF93082FC8E0D0E011E081E0912F902391
:1049600009F480E0C0DF110F2197B9F7F894E091C6
:104970001C09F0911D09918180911B098095982354
:104980009183E0911C09F0911D0992818923828312
:104990007894DF91CF911F910F91089590911B0909
:1049A000E0911C09F0911D09F8948181292F20952F
:1049B0008223818378948DE743E050E0815021F198
:1049C000DA011197F1F730813923C1F3F89482812C
:1049D000822382838181892B81837894ABE7B7E03E
:1049E0001197F1F7F894818128232183A3E1B1E0A5
:1049F0001197F1F78081982381E009F080E07894A5
:104A0000E3E6F6E03197F1F70895CF93DF93FC01E9
:104A100044815581608171818AE397E00E946F1221
:104A2000EC0184E294E073D28C0F9D1FDF91CF9153
:104A30000895DF92EF92FF920F931F93CF93DF932E
:104A40001F921F92CDB7DEB7F82E162F81E080930C
:104A5000220688E6809344061092230610924506AB
:104A600060E087ED97E02A8349830E94AB1B8AE0D0
:104A7000D82E4981842F6D2D0E94AA3A692F30E1EA
:104A8000839F600D112487ED97E00E94AB1B812F5F
:104A90006D2D0E94AA3A692F30E1839F600D112489
:104AA00087ED97E00E94AB1B8F2D6D2D0E94AA3AD7
:104AB000692F30E1839F600D112487ED97E00E94FC
:104AC000AB1B61E087ED97E00E94AB1B2A81822F30
:104AD0006D2D0E94AA3A692F20E1829F600D11245A
:104AE00087ED97E00E94AB1B802F6D2D0E94AA3AA4
:104AF000692F30E1839F600D112487ED97E00E94BC
:104B0000AB1B8E2D6D2D0E94AA3A692F20E1829F4A
:104B1000600D112487ED97E00E94AB1B60E087EDEC
:104B200097E00E94AB1B0F900F90DF91CF911F91E8
:104B30000F91FF90EF90DF907CCDCF93DF93682FA4
:104B400070E080E090E04AE04CD3EC0184E294E035
:104B5000DED18C0F9D1FDF91CF9108953F924F9230
:104B60005F926F927F928F929F92AF92BF92CF92FD
:104B7000DF92EF92FF920F931F93CF93DF9300D0BA
:104B80001F92CDB7DEB720919C0627FDAAC14983AD
:104B90005A836B837C838C0161E080919B060E9429
:104BA000B91630909C06832D8D7F4801A12CB12C25
:104BB00009F0B7C060E072E18AE790E0A5019401D6
:104BC0000E94DD3A29013A0169017A0121E0C21A05
:104BD000D108E108F1088FEFC816D104E104F1040F
:104BE00009F008F44CC060E472E48FE090E0A501A5
:104BF00094010E94DD3A69017A0191E0C91AD10855
:104C0000E108F108A2E03A1220C0BFEFCB16D104B0
:104C1000E104F10409F008F462C160E970ED83E099
:104C200090E0A50194010E94DD3A69017A01E1E07A
:104C3000CE1AD108E108F108FFEFCF16D104E10444
:104C4000F10409F0C0F583E065C02FEFC216D1046E
:104C5000E104F104B1F0A8F068E478EE81E090E0BE
:104C6000A50194010E94DD3A69017A0181E0C81A28
:104C7000D108E108F108332009F4D9C027C181E047
:104C800001C082E0332091F045C0D301C2012AE087
:104C9000B595A795979587952A95D1F76C017D01D4
:104CA000E1E0CE1AD108E108F10885E095B5987FDA
:104CB000892B85BD66C068E478EE81E090E0A501AF
:104CC00094010E94DD3A69017A01B1E0CB1AD10862
:104CD000E108F108EFEFCE16D104E104F10409F088
:104CE00008F4A3C064E274EF80E090E0A5019401B1
:104CF0000E94DD3A69017A0191E0C91AD108E10800
:104D0000F108AFEFCA16D104E104F10411F008F084
:104D1000B0C085E09091B100987F892B8093B1005D
:104D200030C060E072E18AE790E0A50194010E9442
:104D3000DD3A69017A01F1E0CF1AD108E108F10802
:104D4000C114D10421E0E206F10488F068E478EEB1
:104D500081E090E0A50194010E94DD3A69017A01A9
:104D600081E0C81AD108E108F10893E001C091E0A0
:104D7000A1E03A1206C080918100887F892B809340
:104D8000810089819A81AB81BC81892B8A2B8B2BF5
:104D900081F0D801AA0FBB1F29813A814B815C8128
:104DA0000E94A43928EE33E040E050E00E948239AE
:104DB00003C02FEF3FEFA90191E03916A1F0A2E067
:104DC0003A1619F131108DC0C7BC20939706309365
:104DD00098064093990650939A0680916E008260DF
:104DE00080936E007EC0D0928900C092880020938C
:104DF00093063093940640939506509396068091BF
:104E00006F00826080936F006CC0C092B3002093EB
:104E10008F063093900640939106509392068091AE
:104E200070008260809370005CC084E073CF8FEF6D
:104E3000C816D104E104F104D1F0C8F062E17AE7C8
:104E400080E090E0A50194010E94DD3A69017A01B9
:104E5000F1E0CF1AD108E108F1082FEFC216D10412
:104E6000E104F10411F008F010CF84E01FCF83E0DB
:104E70001DCF62E17AE780E090E0A50194010E94F5
:104E8000DD3A69017A0191E0C91AD108E108F10817
:104E9000AFEFCA16D104E104F104B1F0A8F0D301D8
:104EA000C2014AE0B595A795979587954A95D1F7A0
:104EB0006C017D01E1E0CE1AD108E108F108332050
:104EC00009F4F3CE87E026CF86E0DCCEBFEFCB1629
:104ED000D104E104F10409F060F684E0D3CE82E06D
:104EE00019CF0F900F900F900F90DF91CF911F91DE
:104EF0000F91FF90EF90DF90CF90BF90AF909F9079
:104F00008F907F906F905F904F903F9008950097A3
:104F100069F0FC0101900020E9F73197AF01481BCF
:104F2000590BBC018AE397E00C946F1280E090E08B
:104F300008950F931F93CF93DF938C01C0E0D0E0CF
:104F4000F801EC0FFD1F6491662371F0E0913A07C0
:104F5000F0913B070190F081E02D8AE397E01995ED
:104F6000892B11F02196ECCFCE01DF91CF911F91CB
:104F70000F910895CF93DF93DCDFEC0184E294E09E
:104F8000C6DF8C0F9D1FDF91CF9108958F929F9266
:104F9000AF92BF92CF92DF92EF92FF922091B7082B
:104FA0003091B8088217930708F052C04B01AA2429
:104FB000BB24E82DC52ED62EE72EFF24FC2D342F42
:104FC0002091BC08222361F0829E40011124E92D2A
:104FD000C29E60011124FD2D429FD00111243B2F60
:104FE000F090C208E090BF08A091BD08B091BE0843
:104FF000FE1008C0AC01440F551F840F951F8A0F87
:105000009B1F14C0880F991F880F991F8A0F9B1F21
:10501000472F552766277727DC01AF0DB11D2223C7
:1050200021F0429FA0011124452F4C932091BF08ED
:10503000DC01A20FB11DEC932091C008DC01A20F8E
:10504000B11DFC932091C108FC01E20FF11D3083DA
:10505000FF90EF90DF90CF90BF90AF909F908F9098
:1050600008950F931F93CF93DF93CDB7DEB72997A2
:105070000FB6F894DEBF0FBECDBF8091BD089091F2
:10508000BE08892B09F4A2C00E94F5160091C3083E
:105090001091C4082091C5083091C608DC01CB01ED
:1050A000801B910BA20BB30B8C329140A105B10573
:1050B00058F3F8948091B9089091BA089A8389833B
:1050C000E091BD08F091BE08DF01119680818987CB
:1050D0009091B508E091C708F091C8088091C9087F
:1050E000992309F42EC09081982B98879081809500
:1050F00089238F838F818C8388E08B8358856F8190
:1051000049853B812C8189819A81508347FD252FD8
:105110003A952083262F39F0441F00C00000608399
:10512000000000C0F2CF38E04D916083000001978D
:1051300061F7F093C808E093C70849873B832C8345
:1051400038C09081982B98879081809589238F8390
:105150008F818E8388E08D8358856F8149853D815D
:105160002E8189819A81508347FD252F00C000C080
:10517000208300C000C000C000C000C060830000E9
:10518000262F3A9541F0441F000000C000C000C027
:1051900000C000C0E8CF38E04D9100C0608300C07F
:1051A000019709F7F093C808E093C70849873D8342
:1051B0002E839A83898378940E94F5166093C3089E
:1051C0007093C4088093C5089093C60829960FB6BB
:1051D000F894DEBF0FBECDBFDF91CF911F910F912D
:1051E00008958F929F92AF92BF920F931F93CF9388
:1051F000DF93CDB7DEB7A1970FB6F894DEBF0FBE31
:10520000CDBF19A2423008F44AE08E010F5D1F4F56
:10521000842E912CA12CB12CA50194010E948239DD
:10522000E62FB901CA0101501109EA3014F4E05D1A
:1052300001C0E95CD801EC93232B242B252B61F7CB
:10524000C80165DEA1960FB6F894DEBF0FBECDBFD4
:10525000DF91CF911F910F91BF90AF909F908F9052
:1052600008950F931F93CF93DF93CDB7DEB7689761
:105270000FB6F894DEBF0FBECDBF8B01833089F42B
:105280002091190930911A0942E050E065E179E076
:10529000CE010D960E947A15B801CE010196F8D57F
:1052A00053C08C3009F041C02091190930911A097E
:1052B00044E050E065E179E0CE0143960E947A1522
:1052C000B801CE010D96E4D522E030E040E050E098
:1052D00065E179E0CE0101960E947A15BE016F5F0B
:1052E0007F4FCE0107960E945E15BE01635F7F4F20
:1052F000CE0107960E94BA14BE016D5E7F4F0E94D8
:10530000BA14BC0185E199E00E94E014CE01079631
:105310000E942E15CE0101960E942E15CE010D96EB
:105320000E942E15CE0143962CC0803361F5CE012C
:105330000D96AED524E030E040E050E065E179E044
:10534000CE0101960E947A15BE016F5F7F4FCE019C
:1053500007960E945E15BE01635F7F4FCE010796E0
:105360000E94BA14BC0185E199E00E94E014CE01CC
:1053700007960E942E15CE0101960E942E15CE0191
:105380000D960E942E1568960FB6F894DEBF0FBEDC
:10539000CDBFDF91CF911F910F9108958F929F9272
:1053A000AF92BF92CF92DF92EF92FF920F931F9333
:1053B000CF93DF93CDB7DEB72C970FB6F894DEBF4F
:1053C0000FBECDBF8C016A017B018091D309811191
:1053D00013C00E945217DC01CB01845B9B4FAF4F7F
:1053E000BF4F8093CF099093D009A093D109B09378
:1053F000D20981E08093D3098091C709811109C046
:105400006BE374E081EC99E00E94661581E0809383
:10541000C7090E9452178090CF099090D009A090A0
:10542000D109B090D209DC01CB0188199909AA09E8
:10543000BB09893E9340A105B10508F477C10E94DC
:1054400052176093CF097093D0098093D10990933C
:10545000D20920E030E0A901C701B6010E94A63AB6
:1054600020E030E040E05FE387FD05C0C701B60102
:105470000E94BE3904C0C701B6010E94BD390E9416
:10548000353A80915C0290915D029B0129513C4F1D
:1054900049012458334059012A55310969017B01DA
:1054A000892B09F095C077FF03C0F194E194F108CE
:1054B0004AE0B701CE0107960E94331560E474E01C
:1054C000CE0101960E946615BE01695F7F4FCE0135
:1054D00001960E94BA1460E474E00E94A314BC0117
:1054E00081EC99E00E94E014CE0101960E942E15F5
:1054F000CE0107960E942E153FEC831637E09306E7
:1055000020F54AE0B701CE0107960E9433156FE3FC
:1055100074E0CE0101960E946615BE01695F7F4F5F
:10552000CE0101960E94BA1460E474E00E94A314B4
:10553000BC0181EC99E00E94E014CE0101960E942A
:105540002E15CE0107960E942E1587ECA816B104E1
:1055500020F54AE0B701CE0107960E9433156EE3AD
:1055600074E0CE0101960E946615BE01695F7F4F0F
:10557000CE0101960E94BA1460E474E00E94A31464
:10558000BC0181EC99E00E94E014CE0101960E94DA
:105590002E15CE0107960E942E1523E1C216D104C6
:1055A00008F0C4C04AE0B701CE0107960E94331547
:1055B0006DE374E0CE0101960E946615BE01695F3D
:1055C0007F4FCE0101960E94BA1460E474E09FC040
:1055D00077FF03C0F194E194F1084AE0B701CE01EE
:1055E00007960E94331560E474E0CE0101960E9494
:1055F0006615BE01695F7F4FCE0101960E94BA1405
:1056000060E474E00E94A314BC0181EC99E00E9464
:10561000E014CE0101960E942E15CE0107960E943D
:105620002E153FEC831637E0930640F5C7016AE07C
:1056300070E00E94CA3A4AE0CE0107960E943315F4
:105640006FE374E0CE0101960E946615BE01695FAA
:105650007F4FCE0101960E94BA146FE374E00E945E
:10566000A314BC0181EC99E00E94E014CE010196E4
:105670000E942E15CE0107960E942E1587ECA816C3
:10568000B10440F5C7016AE070E00E94CA3A4AE0FE
:10569000CE0107960E9433156EE374E0CE010196A9
:1056A0000E946615BE01695F7F4FCE0101960E9480
:1056B000BA146FE374E00E94A314BC0181EC99E07A
:1056C0000E94E014CE0101960E942E15CE0107968D
:1056D0000E942E1523E1C216D10440F5C7016AE0ED
:1056E00070E00E94CA3A4AE0CE0107960E94331544
:1056F0006DE374E0CE0101960E946615BE01695FFC
:105700007F4FCE0101960E94BA146FE374E00E94AD
:10571000A314BC0181EC99E00E94E014CE01019633
:105720000E942E15CE0107960E942E1561EC79E09D
:10573000C8010E945E15C8012C960FB6F894DEBF12
:105740000FBECDBFDF91CF911F910F91FF90EF90D2
:10575000DF90CF90BF90AF909F908F900895EF9281
:10576000FF920F931F93CF93DF93E82E17D98CEC02
:10577000ECD884E4EAD812D98CECE7D88EEBE5D8E3
:1057800008E010E0D1E0C0E089D88111CD2BDD0F19
:1057900001501109C9F708E010E0FF24F394D0E0AC
:1057A0007DD88111DF29FF0C01501109C9F76C2F39
:1057B00070E07D2B6F3F8FEF780711F460E070E0B1
:1057C000072E000C880B990B0E944A3820E030E02D
:1057D00040E85DE30E94A938EE2061F026E636E657
:1057E00046EE5FE30E94A93820E030E040E052E45A
:1057F0000E94BE3920E030E040E251E40E94A93826
:10580000DF91CF911F910F91FF90EF9008954F92EC
:105810005F926F927F928F929F92AF92BF92CF9240
:10582000DF92EF92FF920F931F93CF93DF9300D0FD
:1058300000D0CDB7DEB77C014B015A018091AE0993
:10584000882341F08091B4090BEB19E0A5EBB9E096
:10585000F8014CC081E08093AE091092AD0910921E
:10586000AC098BEB682E89E0782E95EB492E99E0F8
:10587000592E00E010E00F5F1F4F680181E0C81A49
:10588000D1089801A601B401CE0101960E947A15B3
:10589000CE0101960E946B14F30161933F01CE018A
:1058A00001960E942E159801A601B501CE01019620
:1058B0000E947A15CE0101960E946B14F201619349
:1058C0002F01CE0101960E942E150630110599F682
:1058D000B9CF2C9192130DC090819A3009F41082A7
:1058E0003196119699E0E13CF90731F090818A30C8
:1058F00080F79F5F9083F0CF8F5F843119F08093A2
:10590000B40904C01092B4091092AE0966E274E0C2
:10591000C7010E946615FE0131966F01F801819161
:105920008F014AE0B60190E00E94FC37F601019039
:105930000020E9F73197AF014C195D09B601C701A5
:105940000E947614F9E0013C1F0741F7C701269633
:105950000FB6F894DEBF0FBECDBFDF91CF911F9180
:105960000F91FF90EF90DF90CF90BF90AF909F90FE
:105970008F907F906F905F904F9008950F931F933B
:105980008091580290915902892B09F454C080915A
:10599000B3098823A9F00E9452170091AF09109112
:1059A000B0092091B1093091B209DC01CB01801B13
:1059B000910BA20BB30B893E9340A105B105C0F535
:1059C0008091B309811137C00E94751D2091520248
:1059D000309153028217930771F50E946F1D209139
:1059E0005402309155028217930729F50E94691DD0
:1059F000209156023091570282179307E1F40E94DA
:105A000052176093AF097093B0098093B1099093D6
:105A1000B20981E08093B30987EC93E0ABDA80911F
:105A20003502909136029093A5058093A40503C09A
:105A30001092B309C5CF1F910F9108950E9452177C
:105A40006093A8097093A9098093AA099093AB0960
:105A50008091A709882309F44FC02091A5093091AE
:105A6000A609C901880F991F2131310551F0FC01A8
:105A7000E85CFD4F40815181415051095183408381
:105A80000AC040915A0250915B024C505109509308
:105A90005B0240935A02DC01A85CBD4F6D917C9182
:105AA0001197FC01E457FC4F408151816417750741
:105AB0003CF4FC01E251FC4F408151814D935C93D9
:105AC0002031310571F42091580230915902213072
:105AD000310521F420E82093BE0506C01092BE05D2
