:020000040000FA
:100000000C944C020C947D020C947D020C947D02A5
:100010000C947D020C947D020C947D020C947D0264
:100020000C947D020C947D020C947D020C947D0254
:100030000C947D020C94FA2D0C947D020C947D029C
:100040000C947D020C944D2E0C947D020C947D0238
:100050000C947D020C94AC2E0C947D020C94F02C2C
:100060000C947D020C94BA2C0C94902C0C947D0270
:100070000C947D020C947D020C947D020C947D0204
:100080000C947D020C947D020C947D020C947D02F4
:100090000C945A2C0C94302C0C947D020C940B2F45
:1000A0000C947D020C947D020C947D020C947D02D4
:1000B0000C947D020C947D020C947D020C943A2DDC
:1000C0000C947D020C947D020C947D020C947D02B4
:1000D0000C947D020C947D020C947D020C947D02A4
:1000E0000C947D020C94010E0C9430060C940B06BB
:1000F0000C941E060C9426060C94B3040C94FF0575
:100100000C94A6240C9439060C9486040C94683044
:100110000C94D6040C9498290C943E060C94260555
:100120000C9434060C94E4040C94FC0E0C94872478
:100130000C9484040C94AE240C94392B0C947D2BD9
:100140000C94F9050C94000E0C94AA240C94C92963
:100150000C94570E0C94A0240C9483040C943A062F
:100160000C94100E0C94A8240C94D42B0C942C06F4
:100170000C940E2B0C94AC2B0C9407060C941406C8
:100180000C940E060C948E050C94C62A0C942A0E20
:100190000C94A4240C9403060C9418060C94230EBF
:1001A0000C94C2040C949E370C9422060C94AC243C
:1001B0005570646174696E672074696D652066723C
:1001C0006F6D204750532E2E2E00496E636F727252
:1001D00065637420536F6E6720466F726D61742182
:1001E000005247423D6F6666005247423D6F6E00C7
:1001F0004D6F6E74683A004461793A00446F776ECF
:10020000206C6F6E672E2E2E2E00446F776E20733B
:10021000686F7274005570206C6F6E672E2E2E2ED4
:100220000055702073686F7274004D6F6465206CA8
:100230006F6E672E2E2E2E004D6F64652073686FD3
:10024000727400416C6C20617474656D70747320FD
:100250007765726520756E73756363657373667514
:100260006C2E00417474656D707420746F20737906
:100270006E632077697468204750532E0057616B76
:10028000652075702C204E656F21004461746520D7
:100290006F722054696D65206E6F7420696E2072D4
:1002A000616E676500426C75653D00475245454E7D
:1002B0003D005245443D00526561646564206672AC
:1002C0006F6D20454550524F4D0000000A0B02094A
:1002D0000C0D0E08070304010000000000000000E0
:1002E000000000000000000000000000000000000E
:1002F00000000000000012111000000000000000CB
:1003000000000000000000000000000000000000ED
:1003100002010000002100240027002A002D0030E7
:1003200000330001010000040107010A0153746F4A
:100330007020546573740054656D702E2073656E63
:10034000736F72206E6F7420666F756E642E004737
:100350005053204E4F542064657465637465642166
:10036000004750532064657465637465640053747A
:100370006172742054657374004E435333313420DA
:10038000666F7220485720332E78004669726D7769
:100390006172652076657273696F6E3A20004661FE
:1003A000756C747920445333323331210044533314
:1003B0003233315F543D005761726E696E672120A0
:1003C00052544320444F4E275420524553504F4ED1
:1003D00044210000002200250028002B002E0031BF
:1003E00000340002010000050108010B010000209B
:1003F000002300260029002C002F003200000100FD
:10040000000301060109010505050507050808089F
:1004100008020202020A0A08080404040401010195
:10042000010101010103030303030303030407079D
:10043000070C0C0C0C0C0C0C0C020202020606063B
:1004400006060606060B0B0B0B0B0B0B0B01021023
:1004500020200808102040102040800201020108DE
:10046000040201010204081020408080402010088E
:1004700004020180040201804020100804020108E7
:100480000402010102040810204080010204081047
:100490002040800068309E3711241FBECFEFD1E28C
:1004A000DEBFCDBF00E00CBF29E0AAEEB4E001C082
:1004B0001D92A83EB207E1F714E0A0E0B2E0ECE73D
:1004C000FAE700E00BBF02C007900D92AA3EB10709
:1004D000D9F712E0CBE4D2E000E006C02197010991
:1004E000802FFE010E94FF3ACA34D10780E008073E
:1004F000A9F70E94FF310C942C3D0C9400008F92C0
:100500009F92AF92BF92CF92DF92EF92FF92CF93E2
:10051000209138093091390982179307E8F54B018A
:10052000AA24BB24C82DC52ED62EE72EFF24BC2D11
:10053000A42F20913E09222361F0829E40011124C4
:10054000C92D2C9D60011124BD2D249FF001112483
:10055000AF2FE0914409E0903F09F09040093091BD
:100560004109E31323C09C01220F331F820F931F05
:100570008E0D9F1DE0914109E80FF92FF11DC083F9
:10058000E0914209E80FF92FF11DB0832091430952
:10059000820F911DFC01A083CF91FF90EF90DF901F
:1005A000CF90BF90AF909F908F900895880F991F24
:1005B000880F991F8E0D9F1D472F55276627772778
:1005C000222349F030E0249F7001259FF00C349FD6
:1005D000F00C11244F2DE80FF92FF11D4083CACFE5
:1005E0008F929F92AF92BF92CF92DF92EF92FF9243
:1005F0000F931F93CF93DF936B017C018CE3882EC5
:10060000912CA12CB12CC701A50194010E94BE3AE6
:1006100060930907CA01B901A50194010E94BE3A7D
:1006200060930A07C701B60120E13EE040E050E0D8
:100630000E94BE3ACA01B90128E130E040E050E032
:100640000E94BE3A60930B07C701B60120E831E56E
:1006500041E050E00E94BE3A69017A01CA01B90145
:100660006C5F7F4F8F4F9F4F27E030E040E050E0BE
:100670000E94BE3A6F5F60930C07812C912C54014D
:1006800040E0C4E6D0E000E911E0242F30E02E5431
:10069000384FF901E370FF273097F9F4C901BE0123
:1006A0000E94AA3A892B31F4C901B8010E94AA3AE2
:1006B000892B99F48EE691E0A0E0B0E0880E991EB7
:1006C000AA1EBB1ED501C401AA27BB27C816D9067E
:1006D000EA06FB0638F04F5FD8CF8DE691E0A0E048
:1006E000B0E0ECCF40930F07C90164E670E00E94D0
:1006F000AA3AEC01C90160E971E00E94AA3A309778
:1007000021F42097D9F40097C9F04DE651E060E05C
:1007100070E0841A950AA60AB70AC818D908EA0828
:10072000FB08A3EEB3E020E0213069F4309789F5AF
:10073000209711F4009769F54DE106C04EE651E0AF
:1007400060E070E0E6CF4C9150E070E060E031E0B6
:10075000320FC416D506E606F70640F0C41AD50ACD
:10076000E60AF70A1196232F3C30F1F62F5F20930B
:100770000E07C394C0920D07DF91CF911F910F9187
:10078000FF90EF90DF90CF90BF90AF909F908F90B1
:1007900008954CE1D9CF80919D09E0919E09F09197
:1007A0009F09F8949181982B91832281382F30955D
:1007B00023232283A7E0B0E01197F1F791819323DF
:1007C0009183A3E2B0E01197F1F790817894EFEC78
:1007D000F0E03197F1F7982381E009F480E0089583
:1007E00090919D09E0919E09F0919F09292F2095F4
:1007F00080FF14C0F8948281822382838181892BB7
:100800008183A3E2B0E01197F1F78281982B928364
:10081000789487ED90E00197F1F70895F89482813C
:10082000822382838181892B8183AFEFB0E011978E
:10083000F1F78281982B928378948FE090E0EBCF50
:100840000F931F93CF93DF93082FC8E0D0E011E000
:1008500081E0902F912309F480E00E94F003110FB2
:100860002197B1F7F894E0919E09F0919F09918149
:1008700080919D09809598239183E0919E09F09144
:100880009F099281892382837894DF91CF911F9170
:100890000F91089580919D09E0919E09F0919F0923
:1008A000F8949181282F20959223918378943DE7A5
:1008B00043E050E0315029F1DA011197F1F79081CE
:1008C0009823C1F3F8949281922392839181982B7B
:1008D00091837894ABE7B7E01197F1F7F8949181A1
:1008E00092239183A3E1B1E01197F1F790819823CE
:1008F00081E009F080E07894E3E6F6E03197F1F7E3
:10090000089580E00895089508950895AF92BF92E4
:10091000CF92DF92EF92FF920F931F93CF93DF93CB
:100920006C017B018B01040F151FEB015E01AE18FA
:10093000BF08C017D10759F06991D601ED91FC911C
:100940000190F081E02DC6011995892B79F7C50139
:10095000DF91CF911F910F91FF90EF90DF90CF909B
:10096000BF90AF900895FC01538D448D252F30E04A
:10097000842F90E0821B930B541710F0CF960895AC
:1009800001970895FC01918D828D981761F0A28DD9
:10099000AE0FBF2FB11D5D968C91928D9F5F9F739F
:1009A000928F90E008958FEF9FEF0895FC01918D55
:1009B000828D981731F0828DE80FF11D858D90E0C2
:1009C00008958FEF9FEF0895FC01918D228D892F5F
:1009D00090E0805C9F4F821B91098F739927089547
:1009E0008EE197E00E94E40421E0892B09F420E0E5
:1009F000822F08958BEB97E00E94E40421E0892B7D
:100A000009F420E0822F0895FC01A48DA80FB92FCE
:100A1000B11DA35ABF4F2C91848D90E001968F7326
:100A20009927848FA689B7892C93A089B1898C9145
:100A3000837080648C93938D848D981306C0028894
:100A4000F389E02D80818F7D80830895EF92FF925E
:100A50000F931F93CF93DF93EC0181E0888F9B8DE1
:100A60008C8D98131AC0E889F989808185FF15C09B
:100A70009FB7F894EE89FF896083E889F9898081BE
:100A80008370806480839FBF81E090E0DF91CF918D
:100A90001F910F91FF90EF900895F62E0B8D10E0AF
:100AA0000F5F1F4F0F731127E02E8C8D8E110CC01E
:100AB0000FB607FCFACFE889F989808185FFF5CF69
:100AC000CE010E940405F1CFEB8DEC0FFD2FF11D3F
:100AD000E35AFF4FF0829FB7F8940B8FEA89FB89A6
:100AE00080818062CFCF0F931F93CF93DF938C01D0
:100AF000D0E0C0E0F801EC0FFD1F6491662341F0E7
:100B00008BEB97E00E942605892B11F02196F2CFFE
:100B1000CE01DF91CF911F910F910895CF93DF9375
:100B2000EC01888D8823B9F0AA89BB89E889F98905
:100B30008C9185FD03C0808186FD0DC00FB607FC3A
:100B4000F7CF8C9185FFF2CF808185FFEDCFCE016D
:100B50000E940405E9CFDF91CF91089580E090E0F5
:100B6000892B29F00E94FA0481110E94000080E084
:100B700090E0892B29F00E94F00481110E9400006E
:100B800080E090E0892B49F080E090E0892B29F00B
:100B90000E94000081110E94000080E090E0892BFB
:100BA00049F080E090E0892B29F00E94000081113B
:100BB0000C94000008958150823108F05AC0E82F4B
:100BC000F0E08827E951FA4F8F4F0C94FF3A07065F
:100BD0000B06F905FF05030639060E06140618066E
:100BE0001E06220626062C063006390634063A066C
:100BF0003E06809180008F778093800008958091D9
:100C000080008F7DF9CF80918000877FF5CF84B5FC
:100C10008F7784BD089584B58F7DFBCF8091B00020
:100C20008F778093B00008958091B0008F7DF9CFC9
:100C3000809190008F77809390000895809190002C
:100C40008F7DF9CF80919000877FF5CF8091A000B4
:100C50008F778093A00008958091A0008F7DF9CFB9
:100C60008091A000877FF5CF809120018F778093BE
:100C700020010895809120018F7DF9CF809120017E
:100C8000877FF5CFCF93DF93282F30E0F901E6532C
:100C9000FD4F8491F901E35BFB4FD491F901E95FCA
:100CA000FB4FC491CC23A1F081110E94DB05EC2FF6
:100CB000F0E0EE0FFF1FE351FC4FA591B491EC91D2
:100CC000ED2381E090E009F480E0DF91CF91089579
:100CD00080E090E0FACF1F93CF93DF93282F30E08E
:100CE000F901E653FD4F8491F901E35BFB4FD49189
:100CF000F901E95FFB4FC491CC23A9F0162F8111B4
:100D00000E94DB05EC2FF0E0EE0FFF1FED52FC4FD1
:100D1000A591B4918FB7F894EC91111108C0D095BA
:100D2000DE23DC938FBFDF91CF911F910895DE2BDF
:100D3000F8CFCF93DF9390E0FC01E35BFB4F24916E
:100D4000895F9B4FFC0184918823C9F090E0880F54
:100D5000991FFC01ED5EFC4FA591B491FC01ED5291
:100D6000FC4FC591D49161110DC09FB7F8948C913F
:100D7000209582238C938881282328839FBFDF912D
:100D8000CF910895623051F49FB7F8943C91822F2F
:100D9000809583238C93E8812E2BEFCF8FB7F89427
:100DA000EC912E2B2C938FBFEACF4F925F926F92D4
:100DB0007F928F929F92AF92BF92CF92DF92EF92EB
:100DC000FF920F931F93CF93DF9300D01F921F9238
:100DD000CDB7DEB720911D0727FD2CC149835A836B
:100DE0006B837C838C0161E080911C070E949906D3
:100DF00080911D078D834801B12CA12C8D7F09F0B6
:100E000031C160E072E18AE790E0A50198010E949B
:100E1000E03A29013A017A01690191E0C91AD10841
:100E2000E108F108AFEFCA16D104E104F10409F0BA
:100E30000CF4C7C060E472E48FE090E0A501980173
:100E40000E94E03A69017A01B1E0CB1AD108E108C9
:100E5000F1088D81823009F06AC082E09FEFC916E7
:100E6000D104E104F10409F00CF45EC160E970ED15
:100E700083E090E0A50198010E94E03A69017A01BF
:100E8000A1E0CA1AD108E108F10883E0BFEFCB1650
:100E9000D104E104F10409F00CF446C168E478EEF1
:100EA00081E090E0A50198010E94E03A69017A0191
:100EB00081E0C81AD108E108F10884E09FEFC91663
:100EC000D104E104F10409F00CF42EC164E274EFE2
:100ED00080E090E0A50194010E94E03A69017A0166
:100EE000B1E0CB1AD108E108F10885E09FEFC916FF
:100EF000D104E104F10409F008F416C162E17AE7D3
:100F000080E090E0A50194010E94E03A69017A0135
:100F1000B1E0CB1AD108E108F1088FEFC816D1046F
:100F2000E104F10411F008F0F0C086E0FDC08FEF9D
:100F3000C816D104E104F10409F00CF491C068E48E
:100F400078EE81E090E0A50198010E94E03A690105
:100F50007A0191E0C91AD108E108F108AD8184E075
:100F6000A111C4CF83E0AFEFCA16D104E104F104AC
:100F700061F15CF162E17AE780E090E0A501940123
:100F80000E94E03A69017A0181E0C81AD108E108BB
:100F9000F10884E09FEFC916D104E104F104A9F03F
:100FA000A0F0730162019AE0F594E794D794C79496
:100FB0009A95D1F7A1E0CA1AD108E108F10885E0B5
:100FC00004C081E0AD81A111AFC095B5987F892B98
:100FD00085BD89819A81AB81BC812FEF3FEFA9014B
:100FE000892B8A2B8B2B79F0D801AA0FBB1F298163
:100FF0003A814B815C810E94603928EE33E040E009
:1010000050E00E94BE3A9D81913009F45CC092305C
:1010100009F46BC091110EC0C7BC20931807309320
:10102000190740931A0750931B0780916E00826046
:1010300080936E000F900F900F900F900F90DF91A4
:10104000CF911F910F91FF90EF90DF90CF90BF90C5
:10105000AF909F908F907F906F905F904F9008958A
:1010600082E0B0CF60E072E18AE790E0A5019801EC
:101070000E94E03A69017A01B1E0CB1AD108E10897
:10108000F10891E0C114D10481E0E806F10484F094
:1010900068E478EE81E090E0A50198010E94E03AD2
:1010A00069017A0191E0C91AD108E108F10893E0D9
:1010B000AD81A13009F08DCF80918100887F892B8F
:1010C0008093810086CFD0928900C09288002093BF
:1010D0001407309315074093160750931707809114
:1010E0006F00826080936F00A5CFC092B300209301
:1010F0001007309311074093120750931307809104
:10110000700082608093700095CF730162018AE065
:10111000F594E794D794C7948A95D1F7B1E0CB1AA8
:10112000D108E108F10887E09091B100987F892B00
:101130008093B1004ECF3FB7F89480916B069091A9
:101140006C06A0916D06B0916E0626B5A89B05C0F1
:101150002F3F19F00196A11DB11D3FBFBA2FA92F36
:10116000982F8827BC01CD01620F711D811D911D33
:1011700042E0660F771F881F991F4A95D1F708959F
:10118000CF92DF92EF92FF920F931F93CF93DF9353
:1011900000D000D000D0CDB7DEB780913F0990914C
:1011A0004009892B09F480C0C0904509D0904609B8
:1011B000E0904709F09048090E949B086C157D0556
:1011C0008E059F0550F40E949B086093450970931B
:1011D000460980934709909348090E949B08009113
:1011E0004509109146092091470930914809601B33
:1011F000710B820B930B6C32714081059105A0F24B
:10120000F89480913A0990913B099A838983E091FF
:101210003F09F0914009DF01119680818987909103
:101220003609E0914909F0914A0980914B099923C7
:1012300009F449C09081982B9887908180958923E3
:101240008F838F818C8388E08B8358856F8149855C
:101250003B812C8189819A81508347FD252F3A95C6
:101260002083262F39F0441F00C000006083000057
:1012700000C0F2CF38E04D9160830000019761F724
:10128000F0934A09E093490949873B832C839A8369
:10129000898378940E949B0860934509709346095E
:1012A000809347099093480929960FB6F894DEBFBA
:1012B0000FBECDBFDF91CF911F910F91FF90EF90A7
:1012C000DF90CF9008959081982B9887908180959A
:1012D00089238F838F818E8388E08D8358856F81EA
:1012E00049853D812E8189819A81508347FD252F33
:1012F00000C000C0208300C000C000C000C000C00B
:1013000060830000262F3A9541F0441F000000C082
:1013100000C000C000C000C0E8CF38E04D9100C060
:10132000608300C0019709F7F0934A09E0934909E7
:1013300049873D832E83ABCF8F929F92AF92BF920E
:10134000CF92DF92EF92FF924B015C010E949B08CB
:101350006B017C010E949B086C197D098E099F0915
:10136000683E734081059105A8F321E0821A910837
:10137000A108B10888EEC80E83E0D81EE11CF11C5C
:1013800081149104A104B10429F7FF90EF90DF903C
:10139000CF90BF90AF909F908F9008952FB7F89403
:1013A00060916706709168068091690690916A065F
:1013B0002FBF08956093620670936306809364065E
:1013C00090936506645D7E4F8F4F9F4F60935E06DE
:1013D00070935F06809360069093610682E090E0D0
:1013E00090935D0680935C060E94CE096093580638
:1013F0007093590680935A0690935B0608952F9236
:101400003F924F925F926F927F928F929F92AF9294
:10141000BF92CF92DF92EF92FF920F931F93CF93E1
:10142000DF93382E962E842E222E84E6E816F104C1
:101430000CF459C092EBE91A97E0F90AE0920F0711
:1014400000930E0720920D0730920B0790920A0727
:1014500080920907AE2DB0E020E833E341EE51E081
:101460000E9460392B013C0122EB37E0FF24E4E6C7
:10147000F0E0C0E9D1E0C901825B97408E159F057D
:10148000B4F19EE4E91A98EFF90AC70164E670E046
:101490000E94AA3A6C01C70160E971E00E94AA3A71
:1014A0005C01C3EED3E0E1E0F0E0112783E0E82245
:1014B000FF24E017F1070CF042C0E230F10591F58E
:1014C000E114F10479F5C114D10419F4A114B104A3
:1014D00049F580E8480E8BE3581E86E2681E711CB1
:1014E00031962196E6CF8EE1E80EF11CA7CFC90117
:1014F00083709927892B99F4C901BF010E94AA3AE8
:10150000892B31F4C901BE010E94AA3A892B39F412
:1015100090E8490E91E5591E91E0691E711C2F5FFC
:101520003F4FA9CFA881B0E020E831E541E050E08D
:101530000E946039460E571E681E791ED1CF292D94
:1015400030E0ACE3B0E00E946B396B017C01C80C69
:10155000D11CE11CF11C232D30E0A0E1BEE00E9473
:101560006B39C60ED71EE81EF91E822D8150990BCD
:10157000DC0120E831E541E050E00E940E3B6C0DBB
:101580007D1D8E1D9F1D640D751D861D971DDF9190
:10159000CF911F910F91FF90EF90DF90CF90BF9070
:1015A000AF909F908F907F906F905F904F903F9003
:1015B0002F900C94DA09CF92DF92EF92FF920F9363
:1015C0001F930E94CE098B019C01C0905806D090B9
:1015D0005906E0905A06F0905B06609162067091A1
:1015E000630680916406909165060C191D092E0909
:1015F0003F09083E134021053105E0F0DC01CB0135
:101600000196A11DB11D8093620690936306A0937D
:101610006406B0936506B701A60148515C4F6F4F51
:101620007F4F409358065093590660935A06709323
:101630005B06C7CF1F910F91FF90EF90DF90CF9087
:101640000895CF92DF92EF92FF92C0905406D0900F
:101650005506E0905606F0905706C616D706E806DF
:10166000F90661F06B017C010E94F002C092540601
:10167000D0925506E0925606F0925706FF90EF90F2
:10168000DF90CF9008950E94DB0A0E94210B809189
:101690000F0790E08E54984F08950E94DB0A0E9435
:1016A000210B80910E0790E008950E94DB0A0E94B2
:1016B000210B80910D0790E008950E94DB0A0E94A3
:1016C000210B8091090790E008950E94DB0A0E9497
:1016D000210B80910A0790E008950E94DB0A0E9486
:1016E000210B80910B0790E00895CF92DF92EF924B
:1016F000FF92CF93DF93EC010E94CE096B017C0136
:101700008F850E9442069C0181E02115310509F474
:1017100080E0898B8889811105C091E0232B09F035
:1017200090E0998B29898A89281721F0CD8ADE8A51
:10173000EF8AF88E8D899E89AF89B88DB701A60191
:10174000481B590B6A0B7B0BDB01CA01CB80DC8089
:10175000ED80FE80C816D906EA06FB0664F43A81DD
:10176000231749F02A83222349F04B895C894F5F74
:101770005F4F5C8B4B8B3A81311117C0CF80D8847F
:10178000E984FA84C816D906EA06FB0634F48B8984
:101790009C89998388831C8A1B8A2A8BDF91CF912D
:1017A000FF90EF90DF90CF900895CB84DC84ED84A0
:1017B000FE84C816D906EA06FB067CF78B899C894D
:1017C000919581959109E5CF20913106260F332718
:1017D000331F21323105ECF42091DF06FC0190E04B
:1017E00080E0243069F082E00895A09131062191D3
:1017F000AC014F5E594FA40FB52FB11D2C9301962C
:10180000861798F380913106680F6093310680E067
:10181000089581E008951092DF0681E08093DE064E
:101820001092B90661E084E10E946B0661E085E1F7
:101830000E946B06E9EBF0E080818E7F80838081DF
:101840008D7F808388E48093B80085E48093BC001A
:101850000895CF93DF9391E0909310068823B9F019
:10186000C091B800D091BA008091BC008A7B80936F
:10187000BC0060E084E10E946B0660E085E10E94AC
:101880006B060E940B0CD093BA00C093B800DF9196
:10189000CF910895CF92DF92EF92FF920F931F9313
:1018A000CF93DF93D091080781E0D13208F09CC03C
:1018B000C09107070E949B086B017C018091DF06A5
:1018C00081116CC082E08093DF0681E08093DE06A8
:1018D0008FEF8093DD061092DC06D093DB06A7EE37
:1018E000B6E0EBEBF6E080E0D8138DC01092BA06BC
:1018F0008091BA06CC0FC82BC093BA068091B90666
:10190000813009F084C01092B9060E949B086B01D7
:101910007C018091BA068093BB008091E106909192
:10192000E206A091E306B091E406892B8A2B8B2B6B
:10193000A1F00E949B080091E1061091E20620911F
:10194000E3063091E4066C197D098E099F0906179C
:1019500017072807390708F442C08091BC0083FDAF
:10196000D8CF85EC8093BC000E949B086B017C0162
:101970008091DF06823009F44CC08091DD068F3FF4
:1019800009F469C08091DD06803209F466C0809157
:10199000DD06803309F463C084E026C08091E1064F
:1019A0009091E206A091E306B091E406892B8A2B80
:1019B0008B2B09F483CF0E949B080091E1061091C4
:1019C000E2062091E3063091E4066C197D098E0948
:1019D0009F09061717072807390708F06FCF80916E
:1019E000E0060E94290C85E01092E6061092080796
:1019F0001092E506DF91CF911F910F91FF90EF902C
:101A0000DF90CF9008959D9191938F5F6DCF85EE7C
:101A1000A9CF8091E1069091E206A091E306B091F2
:101A2000E406892B8A2B8B2B09F4A2CF0E949B08FA
:101A30000091E1061091E2062091E3063091E40660
:101A40006C197D098E099F090617170728073907A2
:101A500008F08ECFC4CF80E0C7CF82E0C5CF83E04F
:101A6000C3CFCF92DF92EF92FF920F931F93CF934A
:101A7000DF93D82FC62F613208F098C00E949B08D0
:101A80006B017C018091DF0681116BC081E0809346
:101A9000DF068093DE069FEF9093DD061092DC0652
:101AA0009C0F9093DB068093BA068091BA06DD0FF7
:101AB000D82BD093BA068091B906813009F078C04E
:101AC0001092B9060E949B086B017C018091BA06B6
:101AD0008093BB008091E1069091E206A091E3061D
:101AE000B091E406892B8A2B8B2BA1F00E949B08D6
:101AF0000091E1061091E2062091E3063091E406A0
:101B00006C197D098E099F090617170728073907E1
:101B100008F448C08091BC0083FDD8CF85EC809349
:101B2000BC000E949B086B017C018091DF06813024
:101B300009F440C08091DC068C1710F4C091DC06DB
:101B4000EBEBF6E0A9E9B6E080E08C1355C08C2FF2
:101B5000DF91CF911F910F91FF90EF90DF90CF9089
:101B600008958091E1069091E206A091E306B0917C
:101B7000E406892B8A2B8B2B09F484CF0E949B08C7
:101B80000091E1061091E2062091E3063091E4060F
:101B90006C197D098E099F09061717072807390751
:101BA00008F070CF8091E0060E94290CC0E0CFCFF2
:101BB00085EEB5CF8091E1069091E206A091E30613
:101BC000B091E406892B8A2B8B2B09F4AECF0E94AF
:101BD0009B080091E1061091E2062091E306309106
:101BE000E4066C197D098E099F0906171707280757
:101BF000390708F09ACFD6CF91919D938F5FA5CFEB
:101C00000895E0918A0680918906E81730F4F0E0A3
:101C1000E756F94F808190E008958FEF9FEF089588
:101C200090918A06809189062FEF3FEF981748F42C
:101C3000E92FF0E0E756F94F208130E09F5F909365
:101C40008A06C90108958091890690918A06891BA8
:101C5000990B0895CF92DF92EF92FF920F931F930B
:101C6000CF93DF937C01CB018A012091E5062223EB
:101C700089F0EB016B01C40ED51ECC15DD0569F0B2
:101C80006991D701ED91FC910190F081E02DC701A0
:101C90001995F3CF642F0E94E40BC801DF91CF9117
:101CA0001F910F91FF90EF90DF90CF900895CF9309
:101CB000DF931F92CDB7DEB769832091E50622231B
:101CC000F9F020910807203258F021E030E0FC01C3
:101CD0003383228390E080E00F90DF91CF910895CD
:101CE0008091E606E82FF0E0E951F94F9981908361
:101CF0008F5F8093E6068093080781E090E0ECCF49
:101D000061E0CE0101960E94E40BF7CFDF92EF92E3
:101D1000FF920F931F93CF93DF93182FF62ED42E9D
:101D2000D22F81E08093E50688E680930707109222
:101D3000E6061092080760E088E598E00E94570EDA
:101D4000CAE08D2D6C2F0E948A3A8295807F682F81
:101D5000690F88E598E00E94570E8F2D6C2F0E9426
:101D60008A3A8295807F682F690F88E598E00E9403
:101D7000570E812F6C2F0E948A3A8295807F682FA0
:101D8000690F88E598E00E94570E61E088E598E0C9
:101D90000E94570E8D2F6C2F0E948A3A8295807F69
:101DA000682F690F88E598E00E94570E802F6C2FEE
:101DB0000E948A3A8295807F682F690F88E598E0B3
:101DC0000E94570E8E2D6C2F0E948A3A8295807F3A
:101DD000682F690F88E598E00E94570E60E088E55B
:101DE00098E00E94570EDF91CF911F910F91FF90C5
:101DF000EF90DF900C944A0C90E080E00895CF9330
:101E0000DF93D0E0C0E040E050E0BA01CE010E9494
:101E10007F022196C830D105B1F7DF91CF910C94A4
:101E2000C008CF92DF92EF92FF920F931F93CF9350
:101E3000DF9390910F0691110BC08FEF9FEFDF9111
:101E4000CF911F910F91FF90EF90DF90CF90089569
:101E500090910E06992389F3082FC0910D06D0E0CA
:101E60008091050681110DC00E94CE096093010684
:101E700070930206809303069093040681E080939A
:101E800005060E94CE09C0900106D0900206E0909F
:101E90000306F09004066C197D098E099F096D32C6
:101EA000714081059105B0F0109100060E94CE09A5
:101EB00060930106709302068093030690930406D4
:101EC00091E0912790930006992331F11092FF053C
:101ED0001092FE052091FE053091FF05209530956A
:101EE0008091FD05282326FF1CC081E08093FC051E
:101EF00027FF1AC081E08093FB05809100068823AC
:101F000009F49BCF02C0D595C7950A95E2F7C0FFAB
:101F100094CF80E09CE393CFD093FF05C093FE0560
:101F2000D9CF1092FC05E4CF1092FB05E6CFEF92DB
:101F3000FF920F931F93CF93DF93E82E0E944A04E2
:101F40008CEC0E94200484E40E9420040E944A0435
:101F50008CEC0E9420048EEB0E94200408E010E02C
:101F6000D0E0C1E00E94CB038111DC2BCC0F0150EB
:101F70001109C1F708E010E0C0E0FF24F3940E94CB
:101F8000CB038111CF29FF0C01501109C1F77C2F20
:101F90006D2F6F3F760711F470E060E0072E000CA4
:101FA000880B990B0E942D3820E030E040E85DE37B
:101FB0000E948C38E1100DC020E030E040E251E496
:101FC0000E948C38DF91CF911F910F91FF90EF907D
:101FD000089526E636E646EE5FE30E948C3820E060
:101FE00030E040E052E40E947B39E6CFCF93DF93AC
:101FF000EC012196FC0120812A33C9F42181243689
:1020000009F5229630E020E06AE0899190ED980F82
:102010009A3078F4629FA001639F500D1124082E1E
:10202000000C990BC0979A01280F391FEECFCE01F3
:10203000DFCF3093C2052093C1052115310511F082
:102040002093370288818F3689F48A81082E000C0C
:10205000990B9C01205331093093C2052093C1058F
:10206000C397059710F42093360224968881823610
:10207000F1F4229630E020E06AE0899190ED980F2B
:102080009A3068F4629FA001639F500D1124082EBE
:10209000000C990BC0979A01280F391FEECF30938F
:1020A000C2052093C105309335022093340220915C
:1020B000340230913502032E000C440B550B60E6C0
:1020C0007AEE80E090E00E94E03A82E0220F331F37
:1020D000441F551F8A95D1F72093BD053093BE0547
:1020E0004093BF055093C005CE01DF91CF91089575
:1020F000CF92DF92EF92FF920F931F93CF93DF93D4
:10210000EC018B010E94CE09CE80DF80E884F98447
:10211000AB01BC014C195D096E097F098881998169
:10212000092E000CAA0BBB0B84179507A607B7074F
:10213000A0F48A85882389F01A868D811C821D82ED
:10214000823060F181E090E0DF91CF911F910F919B
:10215000FF90EF90DF90CF9008958B859C8580173E
:102160009107C9F481E08C838D818F5F8D830E94FC
:10217000CE096E837F838887998781E08A872D8146
:102180008A819B81281719064CF01C821D821A86B1
:102190008FEF9FEFD9CF8C81811103C090E080E059
:1021A000D3CF0F3F1F4FD1F7DFCF8EBD00000DB44F
:1021B00007FEFDCF8EB50895CF9381E08093E506AD
:1021C00088E6809307071092E6061092080760E001
:1021D00088E598E00E94570E0E944A0C67E088E666
:1021E0000E94310D10928A068093890688E598E056
:1021F0000E94100E982F92959F70CAE08F709C9F3E
:10220000800D112490E0909397068093960688E5C0
:1022100098E00E94100E982F92959F708F709C9F4F
:10222000800D112490E090938E0680938D0688E5B2
:1022300098E00E94100E982F929593708F709C9F3B
:10224000800D112490E090938C0680938B0688E596
:1022500098E00E94100E88E598E00E94100E982FDA
:1022600092959F708F709C9F800D112490E09093A9
:10227000900680938F0688E598E00E94100E982FB4
:1022800092959F708F709C9F800D112490E0909389
:1022900092068093910688E598E00E94100E982F90
:1022A00092959F708F709C9F800D112490E0909369
:1022B000940680939306CF910895CF93DF93EC011A
:1022C00088819981009711F00E94B23B198218828F
:1022D0001D821C821B821A82DF91CF910895FC011E
:1022E00080819181009711F00C94B23B08958F92F8
:1022F0009F92AF92BF920F931F93CF93DF93CDB76F
:10230000DEB7A1970FB6F894DEBF0FBECDBF19A2FE
:10231000423008F44AE08E010F5D1F4F842E912C4D
:10232000B12CA12CA50194010E94BE3AE62FB9015F
:10233000CA01EA3044F5E05DD801EE938D01232B0C
:10234000242B252B79F790E080E0109769F0FD01B0
:1023500001900020E9F73197AF014A1B5B0BBD01EB
:102360008BEB97E00E948604A1960FB6F894DEBF2F
:102370000FBECDBFDF91CF911F910F91BF90AF9056
:102380009F908F900895E95CD7CF42E050E063E1E1
:1023900074E08BEB97E00C948604CF93DF930E945C
:1023A0007305EC010E94C5118C0F9D1FDF91CF9129
:1023B00008950F931F9380915B0290915C02892B8B
:1023C00009F44DC08091CE058823A9F00E94CE0962
:1023D0000091CA051091CB052091CC053091CD0517
:1023E000601B710B820B930B693E73408105910555
:1023F000B0F11092CE050E946D0B209155023091E4
:1024000056028217930759F50E94650B20915702D7
:10241000309158028217930711F50E945D0B2091AD
:10242000590230915A0282179307C9F40E94CE09CB
:102430006093CA057093CB058093CC059093CD052E
:1024400081E08093CE058DE792E00E94CD118091CE
:1024500038029091390290938806809387061F91E5
:102460000F910895CF92DF92EF92FF92CF93DF9377
:102470006C01990FEE08FF08F7FE1DC06DE28BEBB3
:1024800097E00E942605EC0166277727CB016C199F
:102490007D098E099F094AE00E947711C80FD91F54
:1024A0000E94C5118C0F9D1FDF91CF91FF90EF907F
:1024B000DF90CF9008954AE0C701B6010E947711DE
:1024C000EC01EECFCF93DF93FC0144815581608115
:1024D00071818BEB97E00E948604EC010E94C5118C
:1024E0008C0F9D1FDF91CF910895CF93DF93682FBD
:1024F00070E090E080E04AE00E947711EC010E94D9
:10250000C5118C0F9D1FDF91CF910895FC01808133
:102510009181009711F00C94B53760E070E0CB0129
:1025200008950F931F93CF93DF938C01EB01FC0170
:10253000808191810097E1F0688179816115710551
:10254000A9F0428153812C813D814217530770F0DD
:102550000E94253D8C819D81F801958384831D8295
:102560001C82DF91CF911F910F9108950E94B23B81
:1025700088819981F801918380838A819B819383EB
:1025800082838C819D8195838483198218821B822A
:102590001A82E5CF0F931F93CF93DF93EC018881CD
:1025A0009981009759F02A813B812617370730F02F
:1025B00081E0DF91CF911F910F9108958B016F5FA3
:1025C0007F4F0E943B3C009759F0998388831B837F
:1025D0000A832C813D81232B59F7FC011082E8CF1F
:1025E00080E0E7CFEF92FF920F931F93CF93DF939B
:1025F0006115710541F480E0DF91CF911F910F913A
:10260000FF90EF90089541155105B1F07B01EC0169
:102610000C811D81040F151FB8010E94CA12882366
:1026200051F3288139818C819D81B701820F931FDD
:102630000E94253D1D830C8381E0DECFCF93DF9385
:10264000EC01FB0101900020E9F73197AF01461B37
:10265000570B0E94F212811103C0CE010E945D113E
:10266000CE01DF91CF910895CF93DF93EC01FB0171
:1026700044815581608171810E94F212811103C0F1
:10268000CE010E945D11CE01DF91CF910895EF92AE
:10269000FF920F931F93CF93DF93EC017B018A018D
:1026A000BA010E94CA1281110BC0CE010E945D11B5
:1026B000CE01DF91CF911F910F91FF90EF90089580
:1026C0001D830C83B701888199810E94253DF0CF3D
:1026D000FB0101900020E9F73197AF01461B570B32
:1026E0000C9447130F931F93CF93DF93CDB7DEB7AF
:1026F00062970FB6F894DEBF0FBECDBF8C01CB0141
:10270000F8011182108213821282158214824AE02B
:10271000BE016F5F7F4F0E94DC37BE016F5F7F4F4E
:10272000C8010E94681362960FB6F894DEBF0FBE10
:10273000CDBFDF91CF911F910F910895CF93DF937C
:10274000EC01FB018617970749F0608171816115E3
:10275000710541F0448155810E944713CE01DF91FC
:10276000CF9108950E945D11F9CFFC011182108272
:1027700013821282158214820C949E13FC01118222
:1027800010821382128215821482FB0101900020B4
:10279000E9F73197AF01461B570B0C944713AF92E3
:1027A000BF92CF92DF92EF92FF920F931F93CF933E
:1027B000DF936C015B017A0189012417350720F44E
:1027C0008F2D7901042F182F65E174E0C6010E9456
:1027D000BE13D5011496CD91DC91EC16FD06E0F404
:1027E0000C171D0708F4E801D501ED91FC91119734
:1027F000EC0FFD1F108110826D917C916E0D7F1D7D
:10280000C60161157105A1F00E946813F501808170
:102810009181C80FD91F1883C601DF91CF911F91F5
:102820000F91FF90EF90DF90CF90BF90AF90089501
:102830000E945D11EBCF4F925F926F927F928F92C9
:102840009F92AF92BF92CF92DF92EF92FF920F933F
:102850001F93CF93DF9300D000D0CDB7DEB77C01BC
:102860004B015A018091DC0581113AC081E08093CF
:10287000DC0596ED692E95E0792E20ED422E25E0BF
:10288000522E10E000E00F5F1F4F680181E0C81A70
:10289000D1089801A601B401CE0101960E94CF1380
:1028A000CE0101960E948612D3016D933D01CE01A7
:1028B00001960E946F119801A601B501CE01019603
:1028C0000E94CF13CE0101960E948612F2016193FD
:1028D0002F01CE0101960E946F110630110599F665
:1028E0009091CF0586EDC82E85E0D82EE0EDF5E07D
:1028F0008601A801D8018C919A3008F04DC08F5FF5
:102900008C930F5F1F4FDA018C918A3019F4D80134
:1029100011971C923196B5E00C3D1B0751F79F5F54
:10292000943109F43FC09093CF0565E174E0C7018D
:102930000E94BE13FE0131965F01D6018D916D019B
:102940004AE0B50190E00E94DC37F50101900020DB
:10295000E9F73197AF014A195B09B501C7010E9438
:10296000F2120C151D0549F7C70126960FB6F8940B
:10297000DEBF0FBECDBFDF91CF911F910F91FF90B2
:10298000EF90DF90CF90BF90AF909F908F907F900F
:102990006F905F904F9008952081281709F4B1CF70
:1029A0008F5FAECF1092CF051092DC05BECFCF92D5
:1029B000DF92EF92FF921F93CF93DF93CDB7DEB7F5
:1029C0002C970FB6F894DEBF0FBECDBF182F69E36A
:1029D00074E0CE0107960E94BE1322E030E050E082
:1029E00040E0133071F024E030E042E050E01C3071
:1029F00041F01033B9F420919B0930919C0944E0D7
:102A000050E067E979E0CE0101960E94CF13BE0144
:102A10006F5F7F4FCE0107960E949112CE01019603
:102A20000E946F11CE0107960E9486126B01CE01A3
:102A300007960E946F11C6012C960FB6F894DEBF60
:102A40000FBECDBFDF91CF911F91FF90EF90DF9030
:102A5000CF9008950F931F93CF93DF93CDB7DEB739
:102A600062970FB6F894DEBF0FBECDBF8C0177FF23
:102A700003C07195619571096A307105A4F5CE01A5
:102A80000D960E9472136BE174E0CE0101960E94D4
:102A9000BE13BE016F5F7F4FCE0107960E94B51334
:102AA000BE01635F7F4FCE0107960E943413BC01C5
:102AB000C8010E94B513CE0107960E946F11CE0186
:102AC00001960E946F11CE010D960E946F11C801F0
:102AD00062960FB6F894DEBF0FBECDBFDF91CF91E7
:102AE0001F910F910895C8010E947213F0CF0F93A8
:102AF0001F93CF93DF93CDB7DEB768970FB6F894E7
:102B0000DEBF0FBECDBF8B01833079F520919B09CD
:102B100030919C0942E050E067E979E0CE010D96E2
:102B20000E94CF13B801CE0101960E942A15BE0162
:102B30006F5F7F4FCE0107960E94B513BE01635FA2
:102B40007F4FCE0107960E943413BC0187E999E0BC
:102B50000E949E13CE0107960E946F11CE0101962E
:102B60000E946F11CE010D9644C08C3009F04EC00A
:102B700020919B0930919C0944E050E067E979E09D
:102B8000CE0143960E94CF13B801CE010D960E944C
:102B90002A1522E030E050E040E067E979E0CE011C
:102BA00001960E94CF13BE016F5F7F4FCE01079643
:102BB0000E94B513BE01635F7F4FCE0107960E944E
:102BC0003413BE016D5E7F4F0E943413BC0187E950
:102BD00099E00E949E13CE0107960E946F11CE01CC
:102BE00001960E946F11CE010D960E946F11CE01C9
:102BF00043960E946F1168960FB6F894DEBF0FBE21
:102C0000CDBFDF91CF911F910F910895803399F738
:102C1000CE010D960E942A1524E030E050E040E0FD
:102C200067E979E0CE0101960E94CF1380CF0E9420
:102C3000CE096093C6057093C7058093C80590932D
:102C4000C9058091C505882309F44FC02091C305AB
:102C50003091C405C901880F991F21313105A1F1B7
:102C6000FC01E55CFD4F4081518141505109518388
:102C70004083DC01A55CBD4F6D917C911197FC01F7
:102C8000E554FC4F40815181641775073CF4FC0109
:102C9000E158FC4F408151814D935C9320313105C7
:102CA00009F520915B0230915C0221303105B9F4C5
:102CB00020E82093FD05855C9D4FFC0160817181BA
:102CC00080910D060C94771540915D0250915E0243
:102CD0004C50510950935E0240935D02CACF10924E
:102CE000FD05E9CF2930310531F708950E94CE095D
:102CF0006093C6057093C7058093C8059093C90576
:102D00008091C505882309F444C02091C305309102
:102D1000C405C901880F991F2131310561F1FC01FA
:102D2000E55CFD4F408151814F5F5F4F5183408390
:102D3000DC01A55CBD4F6D917C911197FC01E158C0
:102D4000FC4F40815181461757073CF4FC01E55484
:102D5000FC4F408151814D935C9320313105B1F49A
:102D60001092FD05855C9D4FFC0160817181809111
:102D70000D060C94771540915D0250915E02445F00
:102D80005F4F50935E0240935D02D2CF29303105F0
:102D900049F708950F931F93CF93DF93CDB7DEB715
:102DA00068970FB6F894DEBF0FBECDBF8C0180913F
:102DB0005D0290915E02489709F048C00E945D0B49
:102DC000BC01CE0143960E942A150E94650BBC01EE
:102DD000CE010D960E942A150E946D0BBC01CE01FA
:102DE00001960E942A15BE016F5F7F4FCE010796A4
:102DF0000E94B513BE01635F7F4FCE0107960E940C
:102E00003413BE016D5E7F4F0E943413BC01C801B4
:102E10000E94B513CE0107960E946F11CE01019654
:102E20000E946F11CE010D960E946F11CE01439644
:102E30000E946F11C80168960FB6F894DEBF0FBEEE
:102E4000CDBFDF91CF911F910F9108950E945D0B2F
:102E5000BC01CE0143960E942A150E94650BBC015D
:102E6000CE010D960E942A150E94DB0A0E94210BBA
:102E700080910B076CE070E0882309F4B0CF682FD5
:102E800070E08D3008F4ABCF6C507109A8CF8F92F1
:102E90009F92AF92BF92CF92DF92EF92FF920F93E9
:102EA0001F93CF93DF93CDB7DEB72C970FB6F8946F
:102EB000DEBF0FBECDBF8C016A017B018091EF05A3
:102EC000811111C00E94CE09645B7B4F8F4F9F4FD1
:102ED0006093EB057093EC058093ED059093EE0500
:102EE00081E08093EF058091E305811109C066E1DF
:102EF00074E08DED95E00E94BE1381E08093E305C0
:102F00000E94CE098090EB059090EC05A090ED0515
:102F1000B090EE05681979098A099B09693E7340EA
:102F20008105910508F4D0C00E94CE096093EB059D
:102F30007093EC058093ED059093EE0520E030E072
:102F4000A901C701B6010E94753A20E030E040E0D7
:102F50005FE387FDD2C0C701B6010E947B390E94A2
:102F6000FE397B0177FF04C0EE24FF24E61AF70A3E
:102F70005B0139E1A31A3CEFB30A80915F029091A3
:102F800060029B012D593F4F69012A5531094901C2
:102F9000B701892B09F0B6C0CE0107960E947213C3
:102FA0006BE174E0CE0101960E94BE13BE01695F21
:102FB0007F4FCE0101960E9434136BE174E00E94B2
:102FC0001E13BC018DED95E00E949E13CE0101966B
:102FD0000E946F11CE0107960E946F113FECA3165D
:102FE00037E0B30618F5B701CE0107960E947213B9
:102FF0006AE174E0CE0101960E94BE13BE01695FD2
:103000007F4FCE0101960E9434136BE174E00E9461
:103010001E13BC018DED95E00E949E13CE0101961A
:103020000E946F11CE0107960E946F1187ECC8169F
:10303000D10418F5B701CE0107960E94721369E119
:1030400074E0CE0101960E94BE13BE01695F7F4FFE
:10305000CE0101960E9434136BE174E00E941E13AE
:10306000BC018DED95E00E949E13CE0101960E9459
:103070006F11CE0107960E946F1123E18216910411
:1030800018F5B701CE0107960E94721368E174E04B
:10309000CE0101960E94BE13BE01695F7F4FCE0133
:1030A00001960E9434136BE174E00E941E13BC0170
:1030B0008DED95E00E949E13CE0101960E946F1146
:1030C000CE0107960E946F116DED75E0C8010E9458
:1030D000B513C8012C960FB6F894DEBF0FBECDBF56
:1030E000DF91CF911F910F91FF90EF90DF90CF90E4
:1030F000BF90AF909F908F900895C701B6010E9436
:103100007A392DCFCE0107960E9472136BE174E0DD
:10311000CE0101960E94BE13BE01695F7F4FCE01B2
:1031200001960E9434136BE174E00E941E13BC01EF
:103130008DED95E00E949E13CE0101960E946F11C5
:10314000CE0107960E946F113FECA31637E0B3063D
:1031500038F5C7016AE070E00E94AA3ACE010796EE
:103160000E9472136AE174E0CE0101960E94BE13C0
:10317000BE01695F7F4FCE0101960E9434136AE160
:1031800074E00E941E13BC018DED95E00E949E1319
:10319000CE0101960E946F11CE0107960E946F1119
:1031A00087ECC816D10438F5C7016AE070E00E94C8
:1031B000AA3ACE0107960E94721369E174E0CE012B
:1031C00001960E94BE13BE01695F7F4FCE0101963A
:1031D0000E9434136AE174E00E941E13BC018DED5D
:1031E00095E00E949E13CE0101960E946F11CE01C0
:1031F00007960E946F1123E18216910408F064CFB4
:10320000C7016AE070E00E94AA3ACE0107960E94C8
:10321000721368E174E0CE0101960E94BE13BE01F4
:10322000695F7F4FCE0101960E9434136AE174E01A
:103230003CCF85ED8093BC008091E1069091E20641
:10324000A091E306B091E4060796A11DB11D23E00D
:10325000B695A795979587952A95D1F72091BC00AB
:1032600024FD03C01092DF0608954091E1065091BD
:10327000E2066091E3067091E406452B462B472B4E
:1032800069F30097A105B10541F025E32A95F1F70F
:1032900000000197A109B109E1CF8091E0060C94EB
:1032A000290C0C9452390C944A398F929F92AF9208
:1032B000BF92CF92DF92EF92FF920F931F93CF9323
:1032C000DF9388E090E00E945319C82FC82ED12CBC
:1032D00089E090E00E945319882EE82EF12C8AE0B4
:1032E00090E00E945319082F10E0912CB12CA12CD2
:1032F000BA2CA92C982C8824AC2A882AD0E0C0E0CB
:10330000B501A401CE010E947F022196C830D105EB
:10331000B9F70E94C00887EB92E00E94CD1182EBC2
:1033200092E00E947305C6010E9432128BEA92E07D
:103330000E947305C7010E94321285EA92E00E9442
:103340007305C801DF91CF911F910F91FF90EF900E
:10335000DF90CF90BF90AF909F908F900C943212DF
:103360002F923F924F925F926F927F928F929F9295
:10337000AF92BF92CF92DF92EF92FF920F931F9383
:10338000CF93DF93CDB7DEB764970FB6F894DEBF67
:103390000FBECDBF0E949B080091F7051091F80564
:1033A0002091F9053091FA05601B710B820B930B8C
:1033B0006E34734C8105910508F4B9C20E949B08D4
:1033C0006093F7057093F8058093F9059093FA05DB
:1033D00087E999E00E94861269877A878B879C87A4
:1033E000EAE02E2E312C412C512CA20191010E9499
:1033F000E03A49015A01660F771F69557C4FDB019E
:10340000ED90FC9085E090E00E94110F3C01C50119
:10341000B401A20191010E94E03A660F771F69553D
:103420007C4FFB01C080D18084E090E00E94110FAE
:103430004C0169857A858B859C8524E630E040E0E7
:1034400050E00E94E03ACA01B901A20191010E9434
:10345000E03A660F771F69557C4FDB01AD90BC9059
:1034600083E090E00E94110FE620F72010E000E0DA
:1034700024E1EE0CFF1C001F111F2A95D1F78A21B1
:103480009B21B0E0A0E08E299F29A02BB12B8C209E
:103490009D20B12CA12C3AE0880C991CAA1CBB1CC5
:1034A0003A95D1F76C017D01C828D928EA28FB2874
:1034B00069857A858B859C8528EE33E040E050E075
:1034C0000E94E03A298B3A8B4B8B5C8B8091FC05F8
:1034D000882309F4ADC16894F6F88091FB05882330
:1034E00009F4A9C1A701960150682D873E874F872F
:1034F000588B10E000E01D821E821F821886198200
:103500001A821B821C82412C512C32014394B80137
:103510006F5D7F4F072E000C880B990B0E942D3892
:103520004B015C0120E030E040E85EE30E948C3813
:103530000E94E7396B017C0120E030E040E850E474
:103540000E948C38A50194010E947A399B01AC013C
:1035500060E070E080E490E40E947A3920E030E09E
:1035600040E851E40E948C38A70196010E947B3903
:103570000E94FE39CD84DE84EF84F888002E04C0DA
:10358000F694E794D794C7940A94D2F7A1E0CA229C
:10359000DD24EE24FF24613271050CF061C161501D
:1035A0007109D301C20104C0880F991FAA1FBB1F54
:1035B0006A95D2F7CD28CE28CF2809F444C12981B5
:1035C0003A814B815C81282B392B4A2B5B2B298339
:1035D0003A834B835C830F5F1F4F0032110509F064
:1035E00096CF8AE0482E512C612C712C69897A89FA
:1035F0008B899C89A30192010E94E03A660F771F94
:1036000069557C4FDB01ED90FC9082E090E00E94D8
:10361000110F5C0169857A858B859C8520E137E2F5
:1036200040E050E00E94E03ACA01B901A3019201D2
:103630000E94E03A660F771F69557C4FFB01C080FE
:10364000D18081E090E00E94110FEA20FB2010E081
:1036500000E034E1EE0CFF1C001F111F3A95D1F77A
:103660008C219D21B0E0A0E04AE0880F991FAA1F9D
:10367000BB1F4A95D1F767017801C82AD92AEA2ADF
:10368000FB2A69857A858B859C8520EA36E841E0AE
:1036900050E00E94E03ACA01B901A30192010E94E0
:1036A000E03A660F771F69557C4FDB010D911C9145
:1036B00090E080E00E94110F80239123B0E0A0E011
:1036C0008C299D29AE29BF292091FC056C017D0123
:1036D000222309F4EEC06894F6F88091FB05882354
:1036E00009F4EAC06894F7F801E010E0B801012E8F
:1036F000000C880B990B0E942D382B013C0120E017
:1037000030E040E85EE30E948C380E94E7394B01CC
:103710005C0120E030E040E850E40E948C38A301D6
:1037200092010E947A399B01AC0160E070E080E474
:1037300090E40E947A3920E030E040E851E40E94B1
:103740008C38A50194010E947B390E94FE399801B2
:10375000215031094601570104C0B694A7949794AB
:1037600087942A95D2F7B1E08B229924AA24BB240E
:10377000613271050CF0B0C06150710981E090E0D8
:10378000A0E0B0E004C0880F991FAA1FBB1F6A9574
:10379000D2F789288A288B2809F491C029813A8197
:1037A0004B815C81282B392B4A2B5B2B29833A8355
:1037B0004B835C830F5F1F4F0132110509F096CFD9
:1037C00088850E94D5108F810E94D5108E810E941D
:1037D000D5108D810E94D5108C810E94D5108B81CF
:1037E0000E94D5108A810E94D51089810E94D5102F
:1037F00061E08AE00E946B0660E08AE064960FB6A2
:10380000F894DEBF0FBECDBFDF91CF911F910F9116
:10381000FF90EF90DF90CF90BF90AF909F908F90F0
:103820007F906F905F904F903F902F900C946B061D
:10383000E894F6F852CED701C601BF778D879E87F0
:10384000AF87B88B56CE80959095A095B09529817D
:103850003A814B815C81282339234A235B23B7CEED
:1038600061527109D301C20104C0880F991FAA1FB8
:10387000BB1F6A95D2F7CD28CE28CF2869F02D81BD
:103880003E814F815885282B392B4A2B5B2B2D836A
:103890003E834F8358879FCE80959095A095B09595
:1038A0002D813E814F815885282339234A235B236C
:1038B000EECFE894F6F811CFE894F7F815CF80959D
:1038C0009095A095B09529813A814B815C81282300
:1038D00039234A235B236ACF6152710981E090E06A
:1038E000A0E0B0E004C0880F991FAA1FBB1F6A9513
:1038F000D2F789288A288B2869F02D813E814F8153
:103900005885282B392B4A2B5B2B2D833E834F83E5
:10391000588750CF80959095A095B0952D813E8188
:103920004F815885282339234A235B23EECF6496A1
:103930000FB6F894DEBF0FBECDBFDF91CF911F91C0
:103940000F91FF90EF90DF90CF90BF90AF909F903E
:103950008F907F906F905F904F903F902F90089541
:103960002F923F924F925F926F927F928F929F928F
:10397000AF92BF92CF92DF92EF92FF920F931F937D
:10398000CF93DF93CDB7DEB7EE970FB6F894DEBFD7
:103990000FBECDBF0E94CE0920E137E240E050E0EB
:1039A0000E94BE3A672B682B692B01F58091950622
:1039B0008823E1F00E94DC10E0909306F0909406DA
:1039C000009191061091920620918F0630919006F9
:1039D000409196065091970660918D0670918E06E3
:1039E00080918B0690918C060E94FF090E94CE095F
:1039F0006093B9057093BA058093BB059093BC059D
:103A00000091B5051091B6052091B7053091B80524
:103A1000601B710B820B930B0091300210913102ED
:103A20002091320230913302061717072807390711
:103A3000E0F58091B405811107C083E692E00E9411
:103A4000CD1181E08093B4058EE197E00E94E404FB
:103A5000892B59F18EE197E00E94C20490913D05B7
:103A6000E92FF0E0E651FB4F80839F5F923509F428
:103A700044C190933D058A30C1F4E0913D05F0E0EA
:103A8000E651FB4F108210923D05EBEEF4E021E091
:103A900030E040E05191C90101965A3209F430C139
:103AA00045279C0183359105A9F74091B9055091AF
:103AB000BA056091BB057091BC058091B5059091E8
:103AC000B605A091B705B091B8058A019B01081B06
:103AD000190B2A0B3B0B8091300290913102A0917F
:103AE0003202B0913302805A9541AF4FBF4F8017D9
:103AF0009107A207B30770F44093B5055093B6053C
:103B00006093B7057093B80583E492E00E94CD11ED
:103B10001092B4051092A8051092A9051092AA055A
:103B20001092AB058BE698E09093AF058093AE05BD
:103B30000091680810E01093B1050093B0058091E2
:103B4000350990E09093B3058093B20580916408A5
:103B50008530A1F5809168088A3108F4ABC2809164
:103B60006B0890916C08843F914008F074C21092E9
:103B7000AD051092AC058FEF9FEFDC018093A80597
:103B80009093A905A093AA05B093AB058BE090E0B4
:103B90009093A5058093A4056091A8057091A9054F
:103BA0008091AA059091AB0540E10E9477110E9497
:103BB000C51182E080936408109268086091A8059E
:103BC0007091A90585EC99E00E9478109093A30567
:103BD0008093A205019721F488E392E00E94CD1121
:103BE0008091A2059091A305019621F48AE292E0CA
:103BF0000E94CD116091A8057091A90588EB99E00C
:103C00000E9478109093A1058093A005019721F45C
:103C100081E292E00E94CD118091A0059091A105D2
:103C2000019621F485E192E00E94CD116091A805F2
:103C30007091A9058BEA99E00E94781090939F05F6
:103C400080939E05019721F48AE092E00E94CD11B5
:103C500080919E0590919F05019621F48CEF91E053
:103C60000E94CD110091870610918806F80180818D
:103C7000882309F489C30E94CE09C0904405D090DE
:103C80004505E0904605F09047056C197D098E09C1
:103C90009F09C0904005D0904105E0904205F0900A
:103CA0004305C616D706E806F90608F06DC30E945C
:103CB000CE094B015C018092440590924505A0928B
:103CC0004605B0924705780130E020E04AE0F8016F
:103CD000D1908F0180ED8D0D8A3008F08BC2429F0C
:103CE000C001439F900D11242D2DDD0C330B20536B
:103CF0003109280F391F7F01EACF10923D05BBCE55
:103D000086519B4FFC01808181340CF08753829552
:103D1000807F26513B4FF901928191340CF492C17E
:103D20009753890F4813C1CE8091EA04843209F079
:103D3000BCCE8091ED04823509F0B7CE8091EE04BF
:103D40008D3409F0B2CE8091EF04833409F0ADCE0A
:103D5000A090F1049090F204B090F3044090F40429
:103D6000C090F5045090F604A6EFB4E090E080E037
:103D7000ECE0F0E02D912C3209F066C1019688301C
:103D8000910509F061C1EF5FF0E0E651FB4FE08083
:103D9000F180728083808481082E000C990BC0977B
:103DA0000AE0D02ED89E8001D99E100D1124005318
:103DB000184F8581080F111D87FD1A9500531109B1
:103DC00046EF57E062EE77E0C8010E949037882303
:103DD00009F46BCE872D770C990BC097D89E3001D4
:103DE000D99E700C1124680C711C87FC7A94F0E346
:103DF0006F1A71084CE050E061E070E0C3010E946E
:103E00009037882309F451CE8E2DEE0C990BC09774
:103E1000D89E9001D99E300D1124C9018F0D911D9E
:103E2000F7FC9A957C0190E3E91AF1084FE150E024
:103E300061E070E0C7010E949037882309F435CE15
:103E40008A2DAA0C990BC097D89E9001D99E300D4F
:103E50001124F901E90DF11D97FCFA954F01F0E3EA
:103E60008F1A910847E150E070E060E0C4010E94C1
:103E70009037882309F419CE8B2DBB0C990BC09772
:103E8000D89E5001D99EB00C1124A40CB11C47FC43
:103E9000BA9420E3A21AB1084BE350E070E060E06E
:103EA000C5010E949037882309F4FFCD8C2DCC0CDE
:103EB000990BC097D89E9001D99E300D11246901AD
:103EC000C50CD11C57FCDA9430E3C31AD1084BE37C
:103ED00050E070E060E0C6010E949037882309F44A
:103EE000E4CD8092D209A092D309C092D409E09285
:103EF000D5096092D6091093D8090093D7090E947A
:103F0000CE096B017C01C092DA09D092DB09E09204
:103F1000DC09F092DD090E94CE096C197D098E0939
:103F20009F09693B7B408105910508F0BECD80EB80
:103F300091E00E94CD118091D2090E94751280916A
:103F4000D3090E9475128091D4090E947512809144
:103F5000D7099091D80918EEC12E13E0D12EB601E1
:103F60000E94AA3A7C010091D60910E02091D5095F
:103F700030E04091D40950E06091D30970E0809125
:103F8000D20990E00E94FF09A0916102B091620203
:103F900020E13EE00E94073B00916206109163061B
:103FA0002091640630916506DC01CB01800F911FE2
:103FB000A21FB31F8093620690936306A0936406CA
:103FC000B09365060E94DB0A0E94F0020E94430B38
:103FD0004C010E944D0B082F0E94550BB82E0E94D9
:103FE0005D0BF82E0E94650B182F0E946D0B382F69
:103FF000C401B6010E94AA3AE82E2B2D4F2D612F45
:10400000832F0E94860E8091B9059091BA05A091E8
:10401000BB05B091BC058093B5059093B605A09300
:10402000B705B093B80580E497E7ABE1B0E08093C3
:10403000300290933102A0933202B0933302109277
:10404000B40533CD90536DCE3196E335F10509F0CB
:1040500091CEE0E099CE80916D0890916E088597A1
:104060004B9740F5E4E6F8E082E090E040E050E075
:10407000BA01DC011196209168082A171B0609F085
:104080000CF48EC023853485275031092730310543
:1040900008F085C025853685235131092F3031053B
:1040A00008F470C0258536852A503109293031053C
:1040B00008F470C0063011050CF47BCD24E638E01E
:1040C0003EAF2DAF53E0252E312C65ECC62E6DE9A9
:1040D000D62E6CE1E62E61E8F62E201631060CF0A5
:1040E00078C0EDADFEAD65857685A184B28490E0A3
:1040F00080E00E942B382B013C01B50190E080E06C
:104100000E942B384B015C012DEC3CEC4CE45FE34E
:104110000E948C389B01AC01C301B2010E94263879
:10412000F0E0E0E087FD14C02DEC3CEC4CE45FE3F4
:10413000C301B2010E948C389B01AC01C501B401DE
:104140000E942638E2E0F0E087FD02C0E1E0F0E006
:10415000A701960163E971E080E091E00E947A3A5C
:104160006F01FF0FEE08FF08C626D726E826F926BE
:10417000FFEF2F1A3F0A2DAD3EAD2E5F3F4F3EAFF2
:104180002DAFABCF440F551F661F771F41600296BE
:1041900034966FCF440F551F661F771FF8CFCD01A0
:1041A0000197959587959093AD058093AC050C97F5
:1041B0002CF41092AD051092AC057CCF4093A8056D
:1041C0005093A9056093AA057093AB0584E090E035
:1041D000DFCCC092A805D092A905E092AA05F09282
:1041E000AB0580E290E09093AD058093AC058FEF36
:1041F0009FEFCECC3093C2052093C1056091BD05E1
:104200007091BE058091BF059091C00521153105C3
:1042100011F1032E000C440B550B0E94E03A209341
:104220004005309341054093420550934305EFE923
:10423000ED0DE730B0F40E2E000CFF0B8827EC5D7F
:10424000FE4D8F4F0C94FF3AAC24AE24A024A4243E
:10425000A624A824AA242091370230E050E040E0B0
:10426000DCCF10923F05F7018181833241F48091C8
:104270003F058F5F80933F0587010E5F1F4FF80159
:1042800080818E32F1F4C0904005D0904105E090DD
:104290004205F0904305C701B60122E030E040E05E
:1042A00050E00E94E03AC20ED31EE41EF51EC092FA
:1042B0004005D0924105E0924205F09243050F5F20
:1042C0001F4FF801808180538A3008F049C38093E2
:1042D0003E050F5F1F4FF80180818C3211F40F5F94
:1042E0001F4FE0913F05EE2309F44EC0C0904005FA
:1042F000D0904105E0904205F090430580913E0545
:104300008450990B4CE0489F9001499F300D112437
:10431000E20FF32FF11DEE0FFF1FEF57FD4FB70117
:10432000A601808191810E94D5060E94CE0968195C
:1043300079098A099B09C616D706E806F90620F509
:104340000E94CE096093440570934505809346050D
:104350009093470580911D07813009F406C3823090
:1043600009F409C3811105C080916E008D7F80938F
:104370006E0060E080911C070E946B068AEC91E061
:104380000E94CD1110E000E010938806009387068C
:104390000E94CE0900919A0510919B0520919C05E1
:1043A00030919D05601B710B820B930B6932710577
:1043B00081059105F8F080911D07813009F4E1C273
:1043C000823009F4E1C2811105C080916E008695AA
:1043D000817031F480913A028111D9C20E94FF0E9E
:1043E0000E94CE0960939A0570939B0580939C056B
:1043F00090939D058091C3059091C405892B21F070
:10440000809199058111DBC18091C5058111D7C1CA
:1044100080915E0581110DC00E94CE0960935A05FE
:1044200070935B0580935C0590935D0581E08093BC
:104430005E058091520581110DC00E94CE096093E6
:104440004E0570934F05809350059093510581E080
:10445000809352050E94CE0900915A0510915B0588
:1044600020915C0530915D05601B710B820B930BF5
:10447000009100021091010220910202309103028A
:10448000061717072807390708F04DC00E94CE0904
:1044900060935A0570935B0580935C0590935D056E
:1044A00080914C0590914D05009709F0F4C281E090
:1044B00090E09093C4058093C30588E893E1A0E061
:1044C000B0E08093000290930102A0930202B093A7
:1044D000030280914C0590914D058230910581F445
:1044E0001092C4051092C30540E65AEE60E070E0F9
:1044F0004093000250930102609302027093030202
:104500000196833091050CF0E6C290934D0580939F
:104510004C0580919905882321F01092C4051092D2
:10452000C305109299050E94CE0900915A05109179
:104530005B0520915C0530915D05601B710B820B62
:10454000930B603D77408105910508F096C30E946A
:10455000CE0900914E0510914F05209150053091E4
:104560005105601B710B820B930B6536710581053C
:10457000910508F424C10E94CE0960934E05709302
:104580004F0580935005909351058091C3059091FC
:10459000C40520917E06222309F4A2C2892B89F545
:1045A000CE0149960E94CA1681E020915F023091A7
:1045B0006002232B09F480E00E94970FAB01BC013D
:1045C000CE0101960E944717AE01475E5F4FBE01C4
:1045D0006F5F7F4FCE014F960E941B14BE01615E3C
:1045E0007F4F87E999E00E949112CE014F960E9479
:1045F0006F11CE0101960E946F11CE0149960E9463
:104600006F118091C3059091C405019709F062C0B4
:104610000E94430B68EE73E00E94AA3ABC01CE01EF
:104620008B960E942A150E944D0BBC01CE018596E7
:104630000E942A150E94550BBC01CE0149960E948A
:104640002A15BE01675E7F4FCE014F960E94B513BB
:10465000BE016B5D7F4FCE014F960E943413BE01A9
:10466000655D7F4F0E943413BC01CE01C1960E944C
:10467000B513CE0101960E94CA16AE014F5C5F4F82
:10468000BE016F5F7F4FCE01C7960E941B14BE0113
:10469000695C7F4F87E999E00E949112CE01C7962D
:1046A0000E946F11CE0101960E946F11CE01C1963A
:1046B0000E946F11CE014F960E946F11CE01499654
:1046C0000E946F11CE0185960E946F11CE018B96CC
:1046D0000E946F118091C3059091C405049709F061
:1046E0006EC081E020915F0230916002232B09F4BB
:1046F00080E00E94970FAB01BC01CE01C1960E94E1
:1047000047170E94430B68EE73E00E94AA3ABC016F
:10471000CE0185960E942A150E944D0BBC01CE0148
:104720004F960E942A150E94550BBC01CE0101969E
:104730000E942A15BE016F5F7F4FCE0149960E94ED
:10474000B513BE01615E7F4FCE0149960E943413BE
:10475000BE016B5D7F4F0E943413BC01CE018B966E
:104760000E94B513AE014F5C5F4FBE01655D7F4F88
:10477000CE01C7960E941B14BE01695C7F4F87E97A
:1047800099E00E949112CE01C7960E946F11CE014E
:104790008B960E946F11CE0149960E946F11CE0137
:1047A00001960E946F11CE014F960E946F11CE01AB
:1047B00085960E946F11CE01C1960E946F110E94D2
:1047C000B0198EE799E00E94750B85E699E00E948A
:1047D000750B8CE499E00E94750B8091C5058111E1
:1047E0004FC210920D0680917E0990917F09181694
:1047F00019063CF08091A2059091A305019709F05C
:104800003EC381E080939905109288061092870636
:1048100044E650E060E070E088EE93E00E94D50648
:104820000E94CE096093C6057093C7058093C805A2
:104830009093C9058091C3059091C4050196863077
:10484000910509F44AC29093C4058093C305209151
:10485000C3053091C4058901000F111FF801E85FFD
:10486000FD4F808180930D06D9011197FD01EE0F58
:10487000FF1FE15DFC4F608171816115710509F4D5
:10488000EFC2AB0141505109FA01EE0FFF1FE95F82
:10489000FC4F0190F081E02DAE17BF0709F0E0C298
:1048A0006230710509F01EC288E1E9E6F2E0DE013E
:1048B000119601900D928A95E1F7809153029091A3
:1048C000540283709927892B21F48DE190E09C8319
:1048D0008B8380915102909152020197880F991F0A
:1048E00021E030E02C0F3D1F820F931F20914F02DB
:1048F00030915002FC0180819181821793070CF066
:10490000F1C18AE090E09093C4058093C305EE96D0
:104910000FB6F894DEBF0FBECDBFDF91CF911F91D0
:104920000F91FF90EF90DF90CF90BF90AF909F904E
:104930008F907F906F905F904F903F902F90089551
:1049400081E080933F058FCC83E0FBCF85E0F9CFFA
:1049500086E0F7CF88E0F5CF8AE0F3CF8CE0F1CFA7
:104960008091360280933E05B6CC80916F008D7F9A
:1049700080936F00FECC809170008D7F80937000DB
:10498000F8CC80916F0023CD8091700020CD809174
:104990009806811125CD00914A0510914B05F8012B
:1049A000EE0FFF1FE00FF11FDF01AA0FBB1FAD517C
:1049B000BD4F8D919C914AE0489F9001499F300DD9
:1049C00011248091060290910702280F391F30931D
:1049D000070220930602DF01AA0FBB1FAB51BD4F98
:1049E0008D919C91489FB001499F700D1124809139
:1049F0008F0590919005860F971F90939005809357
:104A00008F05EE0FFF1FE951FD4F60817181469FB9
:104A10006001479FD00C112440918D0550918E0567
:104A2000C40ED51ED0928E05C0928D05D12CF12CCE
:104A3000E22ED82AB12CA12CB701A601C5010E94F3
:104A40007F02FFEFAF1ABF0A28E0A216B104A1F758
:104A50000E94C00880914805909149050196909365
:104A6000490580934805499751F40F5F1F4F1093F4
:104A70004B0500934A051092490510924805809114
:104A80004A0590914B0506970CF4AACC10924B0561
:104A900010924A05A5CC019709F01BCD84E090E067
:104AA0009093C4058093C30588E893E1A0E0B0E04B
:104AB0008093000290930102A0930202B09303023C
:104AC00080917E068111C8C682E090E090934D05EA
:104AD00080934C05FECC10924D0510924C0519CDDB
:104AE000892B09F062C0CE01C1960E94CA160E94AD
:104AF000430B68EE73E00E94AA3ABC01CE01859692
:104B00000E942A150E944D0BBC01CE014F960E94B7
:104B10002A150E94550BBC01CE0101960E942A1550
:104B2000BE016F5F7F4FCE0149960E94B513BE0153
:104B3000615E7F4FCE0149960E943413BE016B5DCA
:104B40007F4F0E943413BC01CE018B960E94B51397
:104B5000AE014F5C5F4FBE01655D7F4FCE01C796D2
:104B60000E941B14BE01695C7F4F87E999E00E9497
:104B70009112CE01C7960E946F11CE018B960E94B2
:104B80006F11CE0149960E946F11CE0101960E94CD
:104B90006F11CE014F960E946F11CE0185960E9433
:104BA0006F11CE01C1960E946F118091C305909143
:104BB000C405019709F003CE0E94430B68EE73E031
:104BC0000E94AA3ABC01CE018B960E942A150E942F
:104BD0004D0BBC01CE0185960E942A150E94550BF3
:104BE000BC01CE0149960E942A15BE01675E7F4F27
:104BF000CE014F960E94B513BE016B5D7F4FCE0173
:104C00004F960E943413BE01655D7F4F0E9434139E
:104C1000BC01CE01C1960E94B513CE0101960E943F
:104C2000CA16AE014F5C5F4FBE016F5F7F4FCE0172
:104C3000C7960E941B14BE01695C7F4F87E999E00B
:104C40000E949112CE01C7960E946F11CE0101966B
:104C50000E946F11CE01C1960E946F11CE014F9636
:104C60000E946F11CE0149960E946F11CE01859668
:104C70000E946F11CE018B96A0CD1092DC059FCDC6
:104C80000E94CE090091C6051091C7052091C80564
:104C90003091C905601B710B820B930B61367A4E04
:104CA0008105910508F49FCD1092C505E091C305DB
:104CB000F091C405EE0FFF1FE95AFC4F80819181EE
:104CC0009093C4058093C305880F991FFC01E85F8A
:104CD000FD4F808180930D0686CD1092C405109201
:104CE000C305B5CD1092C5055093C4054093C305C7
:104CF000452BB9F40E94430B7C010E944D0B8C01A3
:104D00000E94550B40914B0250914C026091490218
:104D100070914A029C0180914702909148020E9442
:104D2000FF098091C3059091C4050197B9F587EFFC
:104D300091E00E94730580914F02909150020E9471
:104D4000321280EF91E00E947305809151029091A0
:104D500052020E943212E0905302F0905402F0E3AB
:104D6000EF1AF8EFFF0A0091510210915202809061
:104D70004F02909050020E945D0B5C010E94650BF7
:104D80006C010E946D0B9401A501B6010E94FF0900
:104D900060914D028DE090E00E9451198091C30511
:104DA0009091C4050297C1F46091550282E090E0B1
:104DB0000E9451196091570283E090E00E945119BE
:104DC0006091590284E090E00E94511960915B0269
:104DD00086E090E00E9451198091C3059091C4052E
:104DE000039731F460915D0281E090E00E945119D7
:104DF0008091C3059091C405049731F460915F02DE
:104E00008BE090E00E9451198091C3059091C405F8
:104E1000059739F460916102645F8CE090E00E9434
:104E200051190E94430B5C010E944D0B082F0E94F8
:104E3000550BD82E0E945D0BF82E0E94650B182F83
:104E40000E946D0B382FC50168EE73E00E94AA3AEC
:104E5000E82E2D2D4F2D612F832F0E94860E57CDCA
:104E60002331310561F0295031092230310538F004
:104E70000E94D714F801E55CFD4F918380838091F7
:104E80007E0990917F0997FD07C08091A2059091BE
:104E9000A305019609F0F3C044E650E060E070E03D
:104EA00088EE93E00E94D5068091C50581114DC022
:104EB0000091C3051091C4050E94CE096093C605F8
:104EC0007093C7058093C8059093C905012BE9F538
:104ED0000E945D0BBC01CE0185960E942A150E949E
:104EE000650BBC01CE014F960E942A150E946D0BE6
:104EF000BC01CE0101960E942A15BE016F5F7F4F53
:104F0000CE0149960E94B513BE01615E7F4FCE016E
:104F100049960E943413BE016B5D7F4F0E9434138B
:104F2000BC0187E999E00E949E13CE0149960E9438
:104F30006F11CE0101960E946F11CE014F960E9413
:104F40006F11CE0185960E946F118091C3059091DB
:104F5000C405019709F05AC00E94550B9093500266
:104F600080934F020E944D0B909352028093510206
:104F70000E94430B68EE73E00E94AA3ABC01909332
:104F800054028093530280914D0290914E02892BDE
:104F900009F0A3C1CE0185960E942A1560915102A5
:104FA00070915202CE014F960E942A1560914F02D5
:104FB00070915002CE0101960E942A15BE016F5FCA
:104FC0007F4FCE0149960E94B513BE01615E7F4FAF
:104FD000CE0149960E943413BE016B5D7F4F0E9443
:104FE0003413BC0187E999E00E949E13CE014996D3
:104FF0000E946F11CE0101960E946F11CE014F9653
:105000000E946F11CE0185960E946F11E091C30539
:10501000F091C405EE0FFF1FE95AFC4F208131814A
:105020003093C4052093C3052D30310549F481E048
:1050300090E090935C0280935B0280E88093FD0592
:105040008091C50591E089278093C5058901000FEE
:10505000111FF801E85FFD4F808180930D06A901C3
:10506000425151094230510550F02930310539F093
:105070000E94D714F801E55CFD4F918380838091F5
:10508000650990916609009709F038C18091A005E3
:105090009091A1050197E1F481E080939905109228
:1050A00088061092870644E650E060E070E088EEE3
:1050B00093E00E94D5060E9476168091C505811165
:1050C00007C01092980660E087E090E00E945119B6
:1050D0008091970590919805019609F018C18091EB
:1050E0006709882309F413C110920F068091C50542
:1050F0008823F9F00E94CE09009193051091940540
:105100002091950530919605601B710B820B930BD6
:10511000673971058105910560F00E94CE096093A1
:1051200093057093940580939505909396050E943E
:10513000761680914C0990914D09009709F0EBC0CB
:1051400080919E0590919F05019771F511E0109354
:105150009905109288061092870644E650E060E0B8
:1051600070E088EE93E00E94D5060E9417168091A9
:10517000C505811119C01093980661E087E090E0A1
:105180000E9451196091060288E090E00E94511936
:1051900060918F0589E090E00E94511960918D0522
:1051A0008AE090E00E9451198091910590919205BA
:1051B000019609F0B9C080914E09882309F4B4C062
:1051C0008091C50510920E06882321F10E94CE0918
:1051D0000091890510918A0520918B0530918C05ED
:1051E000601B710B820B930B67397105810591056B
:1051F00008F451C00E94CE096093890570938A0516
:1052000080938B0590938C050E9417168091C5059D
:10521000811141C0809165099091660997FD06C092
:105220008091A0059091A1050196B1F444E650E06B
:1052300060E070E088EE93E00E94D50681E0809304
:105240003A0261E090E080E00E94511989EE91E01D
:105250000E94CD110E94551980914C0990914D09E1
:1052600097FD06C080919E0590919F05019699F447
:1052700044E650E060E070E088EE93E00E94D506DE
:1052800010923A0260E090E080E00E94511981EEB5
:1052900091E00E94CD11E091C305F091C405E43185
:1052A000F10508F034CB8827E75AF64D8F4F0C9460
:1052B000FF3A9829C929C62A0E2B392B7D2B872422
:1052C00087248724AC2BD42BD42BD42B872487245E
:1052D000872487248724392B7D2BCE0185960E9435
:1052E0002A1560914F0270915002CE014F960E9494
:1052F0002A1560915102709152025CCE90939805EC
:1053000080939705181619060CF4C6CEBFCE81E01F
:1053100080930F060ECF90939205809391051816F7
:1053200019060CF413CF0CCF81E080930E066ECFDC
:105330008091DC0581111EC00E945D0B209104024A
:105340003091050282179307E9F00E945D0B90935C
:10535000050280930402CE0101960E94CA16BE0186
:105360006F5F7F4F87E999E00E949112CE0101960D
:105370000E946F110E945D0B80FD76C180EC8093CE
:10538000FD0574C167E979E0CE0101960E94B5136D
:10539000E6CF8091DC058111E2C080918105811109
:1053A00011C00E94CE0967517C4F8F4F9F4F609371
:1053B0007D0570937E0580937F059093800581E045
:1053C0008093810580917505811144C00E94430B33
:1053D00068EE73E00E94AA3ABC01CE0101960E94D9
:1053E0002A150E944D0BBC01CE0149960E942A1538
:1053F0000E94550BBC01CE0185960E942A15BE0164
:105400006B5D7F4FCE014F960E94B513BE01675E64
:105410007F4FCE014F960E943413BE016F5F7F4FC6
:105420000E943413BC018FE695E00E94B51381E021
:1054300080937505CE014F960E946F11CE0185961F
:105440000E946F11CE0149960E946F11CE01019604
:105450000E946F1100914D0210914E0280916705DC
:10546000811105C00093660581E0809367050E9465
:10547000CE09C0907D05D0907E05E0907F05F0902C
:1054800080056C197D098E099F09693E734081056D
:10549000910530F4809166058017110609F44EC01D
:1054A0000E94CE0960937D0570937E0580937F05F1
:1054B00090938005012B09F054C00E94430B68EEC5
:1054C00073E00E94AA3ABC01CE0101960E942A15FF
:1054D0000E944D0BBC01CE0149960E942A150E94E4
:1054E000550BBC01CE0185960E942A15BE016B5D4D
:1054F0007F4FCE014F960E94B513BE01675E7F4F6E
:10550000CE014F960E943413BE016F5F7F4F0E9401
:105510003413BC018FE695E00E949E13CE014F9696
:105520000E946F11CE0185960E946F11CE0149969F
:105530000E946F11CE0101960E946F116FE675E017
:10554000CE0101960E94B513BE016F5F7F4F87E9C0
:1055500099E00E949112CE0101960E946F1180E4A1
:105560000ECF0E94430B68EE73E00E94AA3ABC0182
:10557000CE0101960E942A150E94550BBC01CE0156
:1055800049960E942A150E944D0BABCF609159029B
:1055900070915A02CE0185960E942A156091570299
:1055A00070915802CE014F960E942A1560915502C3
:1055B00070915602CE0101960E942A15BE016F5FBE
:1055C0007F4FCE0149960E94B513BE01615E7F4FA9
:1055D000CE0149960E943413BE016B5D7F4F0E943D
:1055E0003413BC0187E999E00E949E13CE014996CD
:1055F0000E946F11CE0101960E946F11CE014F964D
:105600000E946F11CE0185960E946F1180915B02FE
:1056100090915C02019741F580E8B1CE60915D0206
:1056200070915E02CE0149960E9472136AE174E0A5
:10563000CE0101960E94BE13BE01675E7F4FCE0170
:1056400001960E9434136AE174E00E941E13BC01AB
:1056500087E999E00E949E13CE0101960E946F1186
:10566000CE0149960E946F111092FD050E94D9113A
:105670004EC98091DC05811124C081E020915F0238
:1056800030916002232B09F480E00E94970FAB0158
:10569000BC01CE0101960E944717BE016F5F7F4F8C
:1056A00087E999E00E949112CE0101960E946F1144
:1056B00080915F0290916002892BD1F480E4809305
:1056C000FD0581E020915F0230916002232B09F4F7
:1056D00080E00E94970F1091FD0520E030E0A901C5
:1056E0000E94263887FF07C010681093FD050FC978
:1056F0001092FD05E6CF1F77F8CF6091610270919F
:105700006202CE0101960E942A15BE016F5F7F4F93
:10571000CE0149960E94B51368E174E0CE01499626
:105720000E941E13BC0187E999E00E949E13CE01DE
:1057300049960E946F11CE0101960E946F118091CF
:1057400061029091620297FD03C01092FD05DFC8CF
:1057500080E88093FD05DBC880914D0290914E0258
:10576000892B99F46DE174E087E999E00E94681350
:1057700083E090E090931D0280931C028CE090E007
:1057800090931F0280931E02C2C864E274E087E90E
:1057900099E00E9468138CE090E090931D02809342
:1057A0001C0283E090E0ECCF6091530270915402B0
:1057B00080914D0290914E02892BE9F5CE0185969C
:1057C0000E942A156091510270915202CE014F96AB
:1057D0000E942A1560914F0270915002CE010196ED
:1057E0000E942A15BE016F5F7F4FCE0149960E942D
:1057F000B513BE01615E7F4FCE0149960E943413FE
:10580000BE016B5D7F4F0E943413BC0187E999E0B4
:105810000E949E13CE0149960E946F11CE010196FF
:105820000E946F11CE014F960E946F11CE01859696
:105830000E946F116CC8CE0185960E942A15609156
:105840004F0270915002CE014F960E942A1560912E
:10585000510270915202C2CF81E090E00C948022FC
:105860001F920F920FB60F9211240BB60F922F9327
:105870003F934F935F936F937F938F939F93AF93D8
:10588000BF93EF93FF938EE197E00E940405FF9191
:10589000EF91BF91AF919F918F917F916F915F91A8
:1058A0004F913F912F910F900BBE0F900FBE0F9015
:1058B0001F9018951F920F920FB60F9211240BB6DE
:1058C0000F922F938F939F93EF93FF93E0912E0767
:1058D000F0912F078081E0913407F091350782FD28
:1058E0001DC09081809137078F5F8F73209138079B
:1058F000821741F0E0913707F0E0E25EF84F958FB4
:1059000080933707FF91EF919F918F912F910F9087
:105910000BBE0F900FBE0F901F9018958081F2CF95
:105920001F920F920FB60F9211240BB60F922F9366
:105930003F934F935F936F937F938F939F93AF9317
:10594000BF93EF93FF938BEB97E00E940405FF91C9
:10595000EF91BF91AF919F918F917F916F915F91E7
:105960004F913F912F910F900BBE0F900FBE0F9054
:105970001F9018951F920F920FB60F9211240BB61D
:105980000F922F938F939F93EF93FF93E091CB0709
:10599000F091CC078081E091D107F091D20782FD90
:1059A0001DC090818091D4078F5F8F732091D507A0
:1059B000821741F0E091D407F0E0E554F84F958F5D
:1059C0008093D407FF91EF919F918F912F910F902A
:1059D0000BBE0F900FBE0F901F9018958081F2CFD5
:1059E0001F920F920FB60F9211242F933F938F9314
:1059F0009F93AF93BF938091670690916806A091A3
:105A00006906B0916A063091660623E0230F2D37B0
:105A100058F50196A11DB11D209366068093670677
:105A200090936806A0936906B0936A0680916B060E
:105A300090916C06A0916D06B0916E060196A11D25
:105A4000B11D80936B0690936C06A0936D06B09386
:105A50006E06BF91AF919F918F913F912F910F90C3
:105A60000FBE0F901F90189526E8230F0296A11DD8
:105A7000B11DD2CF1F920F920FB60F9211240BB609
:105A80000F922F933F934F935F936F937F938F93D7
:105A90009F93AF93BF93EF93FF93809165080E940C
:105AA00042062091690830916A082F5F3F4F30937A
:105AB0006A082093690890916808953618F096E076
:105AC0009093640890916408943009F466C0B8F427
:105AD0009230F1F0933009F444C090916708992313
