:020000040000FA
:100000000C94DB000C9403010C9403010C94030189
:100010000C9403010C9403010C9403010C9421270C
:100020000C9403010C9403010C9403010C947027AD
:100030000C9403010C9403010C94CB270C94030142
:100040000C94D7260C9403010C94A5260C947F26BF
:100050000C9403010C9403010C9403010C94030110
:100060000C9426280C940301496E636F72726563C9
:100070007420536F6E6720466F726D617421005259
:1000800047423D6F6666005247423D6F6E004D6FBE
:100090006E74683A004461793A0057616B65207567
:1000A000702C204E656F2100426C75653D004752F3
:1000B00045454E3D005245443D00526561646564CE
:1000C0002066726F6D20454550524F4D0000000074
:1000D0000800020100000304070000000000000007
:1000E0000002010000000000240027002A005374D1
:1000F0006F7020546573740054656D702E207365A5
:100100006E736F72206E6F7420666F756E642E0052
:1001100053746172742054657374004E43533331C9
:100120003420666F7220485720332E78004669725B
:100130006D776172652076657273696F6E3A200023
:100140004661756C74792044533332333121004455
:1001500053333233315F543D005761726E696E67BD
:10016000212052544320444F4E275420524553508F
:100170004F4E44210000000000250028002B000005
:1001800000000023002600290004040404040404E1
:100190000402020202020203030303030301020436
:1001A00008102040800102040810200102040810F9
:1001B00020007E29832F11241FBECFEFD8E0DEBFA1
:1001C000CDBF26E0A6EEB3E001C01D92A93EB20766
:1001D000E1F713E0A0E0B1E0E0E3FAE602C0059049
:1001E0000D92A63EB107D9F710E0CAEDD0E004C0E9
:1001F0002197FE010E940B33C93DD107C9F70E9428
:100200007A2A0C940B350C9400008F929F92AF9237
:10021000BF92CF92DF92EF92FF92CF9320916C0624
:1002200030916D0682179307E8F54B01AA24BB2491
:10023000C82DC52ED62EE72EFF24BC2DA42F20912D
:100240007206222361F0829E40011124C92D2C9D4B
:1002500060011124BD2D249FF0011124AF2FE091E6
:100260007806E0907306F090740630917506E313FB
:1002700023C09C01220F331F820F931F8E0D9F1DE1
:10028000E0917506E80FF92FF11DC083E091760625
:10029000E80FF92FF11DB08320917706820F911D91
:1002A000FC01A083CF91FF90EF90DF90CF90BF90A3
:1002B000AF909F908F900895880F991F880F991F76
:1002C0008E0D9F1D472F552766277727222349F03C
:1002D00030E0249F7001259FF00C349FF00C112416
:1002E0004F2DE80FF92FF11D4083CACF8091D10621
:1002F000E091D206F091D306F8949181982B9183E6
:100300002281382F309523232283A7E0B0E0119774
:10031000F1F7918193239183A3E2B0E01197F1F774
:1003200090817894EFECF0E03197F1F7982381E039
:1003300009F480E008959091D106E091D206F09101
:10034000D306292F209580FF14C0F8948281822340
:1003500082838181892B8183A3E2B0E01197F1F739
:100360008281982B9283789487ED90E00197F1F742
:100370000895F8948281822382838181892B8183ED
:10038000AFEFB0E01197F1F78281982B92837894C8
:100390008FE090E0EBCF0F931F93CF93DF93082F65
:1003A000C8E0D0E011E081E0902F912309F480E0D3
:1003B0000E949B01110F2197B1F7F894E091D206AA
:1003C000F091D30691818091D106809598239183F5
:1003D000E091D206F091D3069281892382837894AA
:1003E000DF91CF911F910F9108958091D106E091F7
:1003F000D206F091D306F8949181282F209592236C
:10040000918378943DE743E050E0315029F1DA01DF
:100410001197F1F790819823C1F3F8949281922378
:1004200092839181982B91837894ABE7B7E01197F1
:10043000F1F7F894918192239183A3E1B1E01197B0
:10044000F1F79081982381E009F080E07894E3E669
:10045000F6E03197F1F7089580E008950895089542
:100460000895AF92BF92CF92DF92EF92FF920F93D7
:100470001F93CF93DF936C017B018B01040F151F3A
:10048000EB015E01AE18BF08C017D10759F06991A2
:10049000D601ED91FC910190F081E02DC601099506
:1004A000892B79F7C501DF91CF911F910F91FF90B3
:1004B000EF90DF90CF90BF90AF900895FC01538DE7
:1004C000448D252F30E0842F90E0821B930B54172E
:1004D00010F0CF96089501970895FC01918D828DBB
:1004E000981761F0A28DAE0FBF2FB11D5D968C9154
:1004F000928D9F5F9F73928F90E008958FEF9FEF93
:100500000895FC01918D828D981731F0828DE80F4E
:10051000F11D858D90E008958FEF9FEF0895FC0108
:10052000918D228D892F90E0805C9F4F821B9109D5
:100530008F739927089581EC95E00E948F0221E046
:10054000892B09F420E0822F089580E090E0892B28
:1005500029F00E949B0281110C9400000895FC0177
:10056000A48DA80FB92FB11DA35ABF4F2C91848D14
:1005700090E001968F739927848FA689B7892C9371
:10058000A089B1898C91837080648C93938D848DC4
:10059000981306C00288F389E02D80818F7D8083C7
:1005A0000895EF92FF920F931F93CF93DF93EC0187
:1005B00081E0888F9B8D8C8D98131AC0E889F9890A
:1005C000808185FF15C09FB7F894EE89FF8960830D
:1005D000E889F98980818370806480839FBF81E08E
:1005E00090E0DF91CF911F910F91FF90EF900895D0
:1005F000F62E0B8D10E00F5F1F4F0F731127E02EAB
:100600008C8D8E110CC00FB607FCFACFE889F989E2
:10061000808185FFF5CFCE010E94AF02F1CFEB8D37
:10062000EC0FFD2FF11DE35AFF4FF0829FB7F894B6
:100630000B8FEA89FB8980818062CFCF0F931F9354
:10064000CF93DF938C01D0E0C0E0F801EC0FFD1FE9
:100650006491662341F081EC95E00E94D102892BE0
:1006600011F02196F2CFCE01DF91CF911F910F9122
:100670000895CF93DF93EC01888D8823B9F0AA8980
:10068000BB89E889F9898C9185FD03C0808186FD4D
:100690000DC00FB607FCF7CF8C9185FFF2CF80819C
:1006A00085FFEDCFCE010E94AF02E9CFDF91CF9160
:1006B0000895833081F028F4813099F08230A9F0D8
:1006C00008958730A9F08830C9F08430B1F4809162
:1006D00080008F7D03C0809180008F7780938000A1
:1006E000089584B58F7784BD089584B58F7DFBCF41
:1006F0008091B0008F778093B00008958091B00012
:100700008F7DF9CFCF93DF93282F30E0F901E353AA
:10071000FF4F8491F901E356FE4FD491F901E75759
:10072000FE4FC491CC23A1F081110E945903EC2FFC
:10073000F0E0EE0FFF1FE158FE4FA591B491EC9150
:10074000ED2381E090E009F480E0DF91CF910895FE
:1007500080E090E0FACF1F93CF93DF93282F30E013
:10076000F901E353FF4F8491F901E356FE4FD49111
:10077000F901E757FE4FC491CC23A9F0162F811140
:100780000E945903EC2FF0E0EE0FFF1FEB58FE4FD5
:10079000A591B4918FB7F894EC91111108C0D09540
:1007A000DE23DC938FBFDF91CF911F910895DE2B65
:1007B000F8CFCF93DF9390E0FC01E356FE4F2491F6
:1007C00087579E4FFC0184918823C9F090E0880FE1
:1007D000991FFC01EC51FF4FA591B491FC01EB581E
:1007E000FE4FC591D49161110DC09FB7F8948C91C3
:1007F000209582238C938881282328839FBFDF91B3
:10080000CF910895623051F49FB7F8943C91822FB4
:10081000809583238C93E8812E2BEFCF8FB7F894AC
:10082000EC912E2B2C938FBFEACF4F925F926F9259
:100830007F928F929F92AF92BF92CF92DF92EF9270
:10084000FF920F931F93CF93DF9300D000D01F929E
:10085000CDB7DEB72091C00527FD2CC149835A834F
:100860006B837C838C0161E08091BF050E94D9037A
:100870008091C0058D834801B12CA12C8D7F09F09A
:1008800031C160E072E18AE790E0A50198010E9421
:10089000EC3229013A017A01690191E0C91AD108C3
:1008A000E108F108AFEFCA16D104E104F10409F040
:1008B0000CF4C7C060E472E48FE090E0A5019801F9
:1008C0000E94EC3269017A01B1E0CB1AD108E1084B
:1008D000F1088D81823009F06AC082E09FEFC9166D
:1008E000D104E104F10409F00CF45EC160E970ED9B
:1008F00083E090E0A50198010E94EC3269017A0141
:10090000A1E0CA1AD108E108F10883E0BFEFCB16D5
:10091000D104E104F10409F00CF446C168E478EE76
:1009200081E090E0A50198010E94EC3269017A0112
:1009300081E0C81AD108E108F10884E09FEFC916E8
:10094000D104E104F10409F00CF42EC164E274EF67
:1009500080E090E0A50194010E94EC3269017A01E7
:10096000B1E0CB1AD108E108F10885E09FEFC91684
:10097000D104E104F10409F008F416C162E17AE758
:1009800080E090E0A50194010E94EC3269017A01B7
:10099000B1E0CB1AD108E108F1088FEFC816D104F5
:1009A000E104F10411F008F0F0C086E0FDC08FEF23
:1009B000C816D104E104F10409F00CF491C068E414
:1009C00078EE81E090E0A50198010E94EC32690187
:1009D0007A0191E0C91AD108E108F108AD8184E0FB
:1009E000A111C4CF83E0AFEFCA16D104E104F10432
:1009F00061F15CF162E17AE780E090E0A5019401A9
:100A00000E94EC3269017A0181E0C81AD108E1083C
:100A1000F10884E09FEFC916D104E104F104A9F0C4
:100A2000A0F0730162019AE0F594E794D794C7941B
:100A30009A95D1F7A1E0CA1AD108E108F10885E03A
:100A400004C081E0AD81A111AFC095B5987F892B1D
:100A500085BD89819A81AB81BC812FEF3FEFA901D0
:100A6000892B8A2B8B2B79F0D801AA0FBB1F2981E8
:100A70003A814B815C810E94453128EE33E040E0B1
:100A800050E00E94CA329D81913009F45CC09230DE
:100A900009F46BC091110EC0C7BC2093BB05309305
:100AA000BC054093BD055093BE0580916E008260E9
:100AB00080936E000F900F900F900F900F90DF912A
:100AC000CF911F910F91FF90EF90DF90CF90BF904B
:100AD000AF909F908F907F906F905F904F90089510
:100AE00082E0B0CF60E072E18AE790E0A501980172
:100AF0000E94EC3269017A01B1E0CB1AD108E10819
:100B0000F10891E0C114D10481E0E806F10484F019
:100B100068E478EE81E090E0A50198010E94EC3253
:100B200069017A0191E0C91AD108E108F10893E05E
:100B3000AD81A13009F08DCF80918100887F892B14
:100B40008093810086CFD0928900C0928800209344
:100B5000B7053093B8054093B9055093BA05809115
:100B60006F00826080936F00A5CFC092B300209386
:100B7000B3053093B4054093B5055093B605809105
:100B8000700082608093700095CF730162018AE0EB
:100B9000F594E794D794C7948A95D1F7B1E0CB1A2E
:100BA000D108E108F10887E09091B100987F892B86
:100BB0008093B1004ECF3FB7F89480911505909186
:100BC0001605A0911705B091180526B5A89B05C07C
:100BD0002F3F19F00196A11DB11D3FBFBA2FA92FBC
:100BE000982F8827BC01CD01620F711D811D911DB9
:100BF00042E0660F771F881F991F4A95D1F7089525
:100C0000CF92DF92EF92FF920F931F93CF93DF93D8
:100C1000CDB7DEB729970FB6F894DEBF0FBECDBFB4
:100C20008091730690917406892B09F480C0C0905E
:100C30007906D0907A06E0907B06F0907C060E94C0
:100C4000DB056C157D058E059F0550F40E94DB05C4
:100C50006093790670937A0680937B0690937C0666
:100C60000E94DB050091790610917A0620917B069F
:100C700030917C06601B710B820B930B6C327140C0
:100C800081059105A0F2F89480916E0690916F060F
:100C90009A838983E0917306F0917406DF011196BF
:100CA0008081898790916A06E0917D06F0917E06A9
:100CB00080917F06992309F449C09081982B9887E9
:100CC0009081809589238F838F818C8388E08B83AB
:100CD00058856F8149853B812C8189819A81508318
:100CE00047FD252F3A952083262F39F0441F00C059
:100CF00000006083000000C0F2CF38E04D916083B7
:100D00000000019761F7F0937E06E0937D06498726
:100D10003B832C839A83898378940E94DB056093BC
:100D2000790670937A0680937B0690937C062996C9
:100D30000FB6F894DEBF0FBECDBFDF91CF911F91EC
:100D40000F91FF90EF90DF90CF9008959081982BB6
:100D500098879081809589238F838F818E8388E007
:100D60008D8358856F8149853D812E8189819A8146
:100D7000508347FD252F00C000C0208300C000C065
:100D800000C000C000C060830000262F3A9541F0EB
:100D9000441F000000C000C000C000C000C0E8CF79
:100DA00038E04D9100C0608300C0019709F7F093CF
:100DB0007E06E0937D0649873D832E83ABCF8F92DD
:100DC0009F92AF92BF92CF92DF92EF92FF924B0130
:100DD0005C010E94DB056B017C010E94DB056C1944
:100DE0007D098E099F09683E734081059105A8F32E
:100DF00021E0821A9108A108B10888EEC80E83E0AC
:100E0000D81EE11CF11C81149104A104B10429F73E
:100E1000FF90EF90DF90CF90BF90AF909F908F901A
:100E200008952FB7F8946091110570911205809183
:100E30001305909114052FBF0895609305057093D5
:100E400006058093070590930805645D7E4F8F4FDC
:100E50009F4F609301057093020580930305909363
:100E6000040582E090E0909300058093FF040E94C7
:100E700011076093FB047093FC048093FD0490932E
:100E8000FE0408952F923F924F925F926F927F924D
:100E90008F929F92AF92BF92CF92DF92EF92FF928A
:100EA0000F931F93CF93DF93382E962E842E222EEE
:100EB00084E6E816F1040CF459C092EBE91A97E0C5
:100EC000F90AE0920F0500930E0520920D0530926D
:100ED0000B0590920A0580920905AE2DB0E020E83E
:100EE00033E341EE51E00E9445312B013C0122EBFE
:100EF00037E0FF24E4E6F0E0C0E9D1E0C901825B1D
:100F000097408E159F05B4F19EE4E91A98EFF90A0F
:100F1000C70164E670E00E94B6326C01C70160E967
:100F200071E00E94B6325C01C7EBD2E0E1E0F0E094
:100F3000112783E0E822FF24E017F1070CF042C0FC
:100F4000E230F10591F5E114F10479F5C114D10411
:100F500019F4A114B10449F580E8480E8BE3581E3A
:100F600086E2681E711C31962196E6CF8EE1E80E6E
:100F7000F11CA7CFC90183709927892B99F4C90166
:100F8000BF010E94B632892B31F4C901BE010E9413
:100F9000B632892B39F490E8490E91E5591E91E05B
:100FA000691E711C2F5F3F4FA9CFA881B0E020E8D8
:100FB00031E541E050E00E944531460E571E681E63
:100FC000791ED1CF292D30E0ACE3B0E00E9487310B
:100FD0006B017C01C80CD11CE11CF11C232D30E0FD
:100FE000A0E1BEE00E948731C60ED71EE81EF91EA2
:100FF000822D8150990BDC0120E831E541E050E081
:101000000E9411336C0D7D1D8E1D9F1D640D751D7D
:10101000861D971DDF91CF911F910F91FF90EF904B
:10102000DF90CF90BF90AF909F908F907F906F9008
:101030005F904F903F902F900C941D07CF92DF92BE
:10104000EF92FF920F931F930E9411078B019C0157
:10105000C090FB04D090FC04E090FD04F090FE04EE
:10106000609105057091060580910705909108052E
:101070000C191D092E093F09083E134021053105B1
:10108000E0F0DC01CB010196A11DB11D80930505A7
:1010900090930605A0930705B0930805B701A60134
:1010A00048515C4F6F4F7F4F4093FB045093FC04BB
:1010B0006093FD047093FE04C7CF1F910F91FF90C2
:1010C000EF90DF90CF9008954F925F926F927F9252
:1010D0008F929F92AF92BF92CF92DF92EF92FF9248
:1010E0000F931F93CF93DF934B015C018091F70423
:1010F0009091F804A091F904B091FA04881599052B
:10110000AA05BB0509F4C6C08CE3C82ED12CE12C7E
:10111000F12CC501A70196010E94CA32609309050E
:10112000CA01B901A70196010E94CA3260930A055B
:10113000C501B40120E13EE040E050E00E94CA3227
:10114000CA01B90128E130E040E050E00E94CA3213
:1011500060930B05C501B40120E831E541E050E0A2
:101160000E94CA3269017A01CA01B9016C5F7F4FDE
:101170008F4F9F4F27E030E040E050E00E94CA329E
:101180006F5F60930C05412C512C320140E004E666
:1011900010E0C0E9D1E0242F30E02E54384FF9019F
:1011A000E370FF273097F9F4C901B8010E94B63205
:1011B000892B31F4C901BE010E94B632892B99F402
:1011C0008EE691E0A0E0B0E0480E591E6A1E7B1E3C
:1011D000D301C201AA27BB27C816D906EA06FB0617
:1011E00038F04F5FD8CF8DE691E0A0E0B0E0ECCFD3
:1011F00040930F05C90164E670E00E94B632EC012D
:10120000C90160E971E00E94B632309721F420975D
:10121000D9F40097C9F04DE651E060E070E0441A5F
:10122000550A660A770AC418D508E608F708A7EB36
:10123000B2E020E0213069F43097E9F5209711F40D
:101240000097C9F54DE106C04EE651E060E070E060
:10125000E6CF4C9150E070E060E031E0320FC41610
:10126000D506E606F70640F0C41AD50AE60AF70ADC
:101270001196232F3C30F1F62F5F20930E05C39477
:10128000C0920D058092F7049092F804A092F904A0
:10129000B092FA04DF91CF911F910F91FF90EF90E0
:1012A000DF90CF90BF90AF909F908F907F906F9086
:1012B0005F904F9008954CE1CDCF0E941E080E9490
:1012C000640880910F0590E08E54984F08950E9415
:1012D0001E080E94640880910E0590E008950E9407
:1012E0001E080E94640880910D0590E008950E94F8
:1012F0001E080E9464088091090590E008950E94EC
:101300001E080E94640880910A0590E008950E94DA
:101310001E080E94640880910B0590E00895CF920A
:10132000DF92EF92FF92CF93DF93EC010E941107BF
:101330006B017C018F850E9482039C0181E0211555
:10134000310509F480E0898B8889811105C091E01D
:10135000232B09F090E0998B29898A89281721F09D
:10136000CD8ADE8AEF8AF88E8D899E89AF89B88D05
:10137000B701A601481B590B6A0B7B0BDB01CA01A5
:10138000CB80DC80ED80FE80C816D906EA06FB061D
:1013900064F43A81231749F02A83222349F04B89C8
:1013A0005C894F5F5F4F5C8B4B8B3A81311117C06B
:1013B000CF80D884E984FA84C816D906EA06FB06E9
:1013C00034F48B899C89998388831C8A1B8A2A8B95
:1013D000DF91CF91FF90EF90DF90CF900895CB8475
:1013E000DC84ED84FE84C816D906EA06FB067CF789
:1013F0008B899C89919581959109E5CF2091D404A1
:10140000260F3327331F21323105ECF42091890553
:10141000FC0190E080E0243069F082E00895A09122
:10142000D4042191AC014C545B4FA40FB52FB11DD6
:101430002C930196861798F38091D404680F6093DB
:10144000D40480E0089581E008951092890581E038
:10145000809388051092630561E082E10E94AB03EE
:1014600061E083E10E94AB03E9EBF0E080818E7FD5
:10147000808380818D7F808388E48093B80085E4B9
:101480008093BC000895CF93DF9391E09093B304D1
:101490008823B9F0C091B800D091BA008091BC0007
:1014A0008A7B8093BC0060E082E10E94AB0360E035
:1014B00083E10E94AB030E94250AD093BA00C09337
:1014C000B800DF91CF910895CF92DF92EF92FF9213
:1014D0000F931F93CF93DF93D091B20581E0D13268
:1014E00008F09CC0C091B1050E94DB056B017C0136
:1014F0008091890581116CC082E08093890581E02B
:10150000809388058FEF8093870510928605D0938E
:101510008505A1E9B5E0E5E6F5E080E0D8138DC0EA
:101520001092640580916405CC0FC82BC0936405AC
:1015300080916305813009F084C0109263050E9498
:10154000DB056B017C01809164058093BB00809179
:101550008B0590918C05A0918D05B0918E05892BFE
:101560008A2B8B2BA1F00E94DB0500918B0510913B
:101570008C0520918D0530918E056C197D098E09A1
:101580009F09061717072807390708F442C08091FA
:10159000BC0083FDD8CF85EC8093BC000E94DB05A6
:1015A0006B017C0180918905823009F44CC08091E7
:1015B00087058F3F09F469C080918705803209F45F
:1015C00066C080918705803309F463C084E026C03B
:1015D00080918B0590918C05A0918D05B0918E0521
:1015E000892B8A2B8B2B09F483CF0E94DB0500917A
:1015F0008B0510918C0520918D0530918E056C190D
:101600007D098E099F09061717072807390708F073
:101610006FCF80918A050E94430A85E01092900561
:101620001092B20510928F05DF91CF911F910F910B
:10163000FF90EF90DF90CF9008959D9191938F5FF1
:101640006DCF85EEA9CF80918B0590918C05A091EF
:101650008D05B0918E05892B8A2B8B2B09F4A2CF97
:101660000E94DB0500918B0510918C0520918D0562
:1016700030918E056C197D098E099F090617170791
:101680002807390708F08ECFC4CF80E0C7CF82E0AB
:10169000C5CF83E0C3CFCF92DF92EF92FF920F933B
:1016A0001F93CF93DF93D82FC62F613208F098C0D5
:1016B0000E94DB056B017C018091890581116BC063
:1016C00081E080938905809388059FEF909387053B
:1016D000109286059C0F90938505809364058091F8
:1016E0006405DD0FD82BD0936405809163058130AC
:1016F00009F078C0109263050E94DB056B017C0144
:10170000809164058093BB0080918B0590918C053E
:10171000A0918D05B0918E05892B8A2B8B2BA1F082
:101720000E94DB0500918B0510918C0520918D05A1
:1017300030918E056C197D098E099F0906171707D0
:101740002807390708F448C08091BC0083FDD8CF32
:1017500085EC8093BC000E94DB056B017C018091CD
:101760008905813009F440C0809186058C1710F4FA
:10177000C0918605E5E6F5E0A3E4B5E080E08C13D2
:1017800055C08C2FDF91CF911F910F91FF90EF905B
:10179000DF90CF90089580918B0590918C05A0915A
:1017A0008D05B0918E05892B8A2B8B2B09F484CF64
:1017B0000E94DB0500918B0510918C0520918D0511
:1017C00030918E056C197D098E099F090617170740
:1017D0002807390708F070CF80918A050E94430AD4
:1017E000C0E0CFCF85EEB5CF80918B0590918C0571
:1017F000A0918D05B0918E05892B8A2B8B2B09F436
:10180000AECF0E94DB0500918B0510918C052091D5
:101810008D0530918E056C197D098E099F0906177B
:1018200017072807390708F09ACFD6CF91919D93D3
:101830008F5FA5CF0895E091340580913305E817B7
:1018400030F4F0E0ED5BFA4F808190E008958FEF87
:101850009FEF089590913405809133052FEF3FEF6E
:10186000981748F4E92FF0E0ED5BFA4F208130E063
:101870009F5F90933405C90108958091330590913D
:101880003405891B990B0895CF92DF92EF92FF9256
:101890000F931F93CF93DF937C01CB018A0120919B
:1018A0008F05222389F0EB016B01C40ED51ECC15E8
:1018B000DD0569F06991D701ED91FC910190F0810E
:1018C000E02DC7010995F3CF642F0E94FE09C801DE
:1018D000DF91CF911F910F91FF90EF90DF90CF900C
:1018E0000895CF93DF931F92CDB7DEB76983209120
:1018F0008F052223F9F02091B205203258F021E023
:1019000030E0FC013383228390E080E00F90DF9190
:10191000CF91089580919005E82FF0E0EF56FA4FAF
:10192000998190838F5F809390058093B20581E0C9
:1019300090E0ECCF61E0CE0101960E94FE09F7CF66
:1019400090E080E00895CF93DF93D0E0C0E040E0E6
:1019500050E0BA01CE010E9405012196C830D105A0
:10196000B1F7DF91CF910C940006CF92DF92EF9206
:10197000FF920F931F93CF93DF939091B204911135
:101980000BC08FEF9FEFDF91CF911F910F91FF90D1
:10199000EF90DF90CF9008959091B104992389F34F
:1019A000082FC091B004D0E08091A80481110DC02F
:1019B0000E9411076093A4047093A5048093A60469
:1019C0009093A70481E08093A8040E941107C0901F
:1019D000A404D090A504E090A604F090A7046C198C
:1019E0007D098E099F096D32714081059105B0F026
:1019F0001091A3040E9411076093A4047093A5049E
:101A00008093A6049093A70491E091279093A30458
:101A1000992331F11092A2041092A1042091A10403
:101A20003091A204209530958091A004282326FFB0
:101A30001CC081E080939F0427FF1AC081E080933F
:101A40009E048091A304882309F49BCF02C0D595FE
:101A5000C7950A95E2F7C0FF94CF80E09CE393CF4F
:101A6000D093A204C093A104D9CF10929F04E4CFD5
:101A700010929E04E6CFEF92FF920F931F93CF93A5
:101A8000DF93182F8091780481110DC00E941107F7
:101A90006093740470937504809376049093770434
:101AA00081E080937804C0917204D0917304C930AE
:101AB000D10508F075C0FE01E05AF24F0C940B33CB
:101AC000690D750D790D870D690D750DAC0DAE0D98
:101AD000BF0D0E94F5012196CA30D10509F097C0CB
:101AE000109273041092720428C08CEC0E94CB01F7
:101AF000F2CF84E40E94CB010E941107609374042A
:101B0000709375048093760490937704E4CF0E94D9
:101B1000110700917404109175042091760430919E
:101B20007704601B710B820B930BC4E0D0E06E3E18
:101B300072408105910508F06AC060916E04709151
:101B40006F048091700490917104DF91CF911F9187
:101B50000F91FF90EF9008958EEBC8CF98E0E92E9B
:101B6000F12C10E001E00E9476018111102B000F92
:101B700081E0E81AF108B9F710936C04ACCF88E063
:101B8000E82EF12C10E001E00E9476018111102B6B
:101B9000000F21E0E21AF108B9F710936D049BCF12
:101BA000C930D10509F097CF60916C0470916D0434
:101BB0006F3F760711F470E060E0072E000C880B91
:101BC000990B0E94123020E030E040E85DE30E9473
:101BD000713011110FC020E030E040E251E40E946A
:101BE000713060936E0470936F04809370049093CF
:101BF000710471CF26E636E646EE5FE30E9471304F
:101C000020E030E040E052E40E949731E4CFD093EE
:101C10007304C093720491CFCF93DF93EC012196AC
:101C2000FC0120812A33C9F42181243609F522964A
:101C300030E020E06AE0899190ED980F9A3078F4D6
:101C4000629FA001639F500D1124082E000C990B78
:101C5000C0979A01280F391FEECFCE01DFCF309306
:101C60005104209350042115310511F020933301C4
:101C700088818F3689F48A81082E000C990B9C018B
:101C8000205331093093510420935004C397059792
:101C900010F420933201249688818236F1F4229642
:101CA00030E020E06AE0899190ED980F9A3068F476
:101CB000629FA001639F500D1124082E000C990B08
:101CC000C0979A01280F391FEECF3093510420930B
:101CD0005004309331012093300120913001309134
:101CE0003101032E000C440B550B60E67AEE80E0C8
:101CF00090E00E94EC3282E0220F331F441F551FF8
:101D00008A95D1F720934C0430934D0440934E04B0
:101D100050934F04CE01DF91CF9108958EBD000006
:101D20000DB407FEFDCF8EB50895CF9381E080936B
:101D30008F0588E68093B105109290051092B20548
:101D400060E08EE596E00E94710C0E94640A67E0F4
:101D500088E60E944B0B10923405809333058EE584
:101D600096E00E942A0C982F92959F70CAE08F707F
:101D70009C9F800D112490E0909341058093400535
:101D80008EE596E00E942A0C982F92959F708F7096
:101D90009C9F800D112490E0909338058093370527
:101DA0008EE596E00E942A0C982F929593708F7082
:101DB0009C9F800D112490E090933605809335050B
:101DC0008EE596E00E942A0C8EE596E00E942A0C91
:101DD000982F92959F708F709C9F800D112490E09A
:101DE00090933A05809339058EE596E00E942A0C7F
:101DF000982F92959F708F709C9F800D112490E07A
:101E000090933C0580933B058EE596E00E942A0C5A
:101E1000982F92959F708F709C9F800D112490E059
:101E200090933E0580933D05CF910895CF93DF9326
:101E3000EC0188819981009711F00E94B5331982D5
:101E400018821D821C821B821A82DF91CF91089515
:101E5000FC0180819181009711F00C94B5330895B5
:101E60008F929F92AF92BF920F931F93CF93DF9366
:101E7000CDB7DEB7A1970FB6F894DEBF0FBECDBFCA
:101E800019A2423008F44AE08E010F5D1F4F842EE4
:101E9000912CB12CA12CA50194010E94CA32E62FED
:101EA000B901CA01EA3044F5E05DD801EE938D0135
:101EB000232B242B252B79F790E080E0109769F0F5
:101EC000FD0101900020E9F73197AF014A1B5B0B40
:101ED000BD0181EC95E00E943102A1960FB6F89405
:101EE000DEBF0FBECDBFDF91CF911F910F91BF908D
:101EF000AF909F908F900895E95CD7CF42E050E07B
:101F00006FE073E081EC95E00C943102CF93DF93A6
:101F10000E941E03EC010E947E0F8C0F9D1FDF911B
:101F2000CF9108950F931F9380915701909158017D
:101F3000892B09F44DC080915D048823A9F00E948B
:101F400011070091590410915A0420915B043091BB
:101F50005C04601B710B820B930B693E734081051F
:101F60009105B0F110925D040E9487092091510102
:101F7000309152018217930759F50E947F092091F1
:101F80005301309154018217930711F50E9477098C
:101F9000209155013091560182179307C9F40E9490
:101FA00011076093590470935A0480935B049093D3
:101FB0005C0481E080935D048AE990E00E94860FD2
:101FC00080913401909135019093320580933105D1
:101FD0001F910F910895CF93DF93FC0144815581A8
:101FE0006081718181EC95E00E943102EC010E94D8
:101FF0007E0F8C0F9D1FDF91CF910895CF92DF92BE
:10200000EF92FF92CF93DF936C01990FEE08FF08D8
:10201000F7FE1DC06DE281EC95E00E94D102EC015B
:1020200066277727CB016C197D098E099F094AE045
:102030000E94300FC80FD91F0E947E0F8C0F9D1F6A
:10204000DF91CF91FF90EF90DF90CF9008954AE01D
:10205000C701B6010E94300FEC01EECFFC01808178
:102060009181009711F00C949A2F60E070E0CB0101
:1020700008950F931F93CF93DF938C01EB01FC0125
:10208000808191810097E1F0688179816115710506
:10209000A9F0428153812C813D814217530770F092
:1020A0000E9404358C819D81F801958384831D8273
:1020B0001C82DF91CF911F910F9108950E94B5333B
:1020C00088819981F801918380838A819B819383A0
:1020D00082838C819D8195838483198218821B82DF
:1020E0001A82E5CF0F931F93CF93DF93EC01888182
:1020F0009981009759F02A813B812617370730F0E4
:1021000081E0DF91CF911F910F9108958B016F5F57
:102110007F4F0E943E34009759F0998388831B8338
:102120000A832C813D81232B59F7FC011082E8CFD3
:1021300080E0E7CFEF92FF920F931F93CF93DF934F
:102140006115710541F480E0DF91CF911F910F91EE
:10215000FF90EF90089541155105B1F07B01EC011E
:102160000C811D81040F151FB8010E947210882375
:1021700051F3288139818C819D81B701820F931F92
:102180000E9404351D830C8381E0DECFCF93DF9363
:10219000EC01FB0101900020E9F73197AF01461BEC
:1021A000570B0E949A10811103C0CE010E94160F96
:1021B000CE01DF91CF910895CF93DF93EC01FB0126
:1021C00044815581608171810E949A10811103C000
:1021D000CE010E94160FCE01DF91CF910895EF92AC
:1021E000FF920F931F93CF93DF93EC017B018A0142
:1021F000BA010E94721081110BC0CE010E94160F0D
:10220000CE01DF91CF911F910F91FF90EF90089534
:102210001D830C83B701888199810E940435F0CF1A
:10222000FB0101900020E9F73197AF01461B570BE6
:102230000C94EF100F931F93CF93DF93CDB7DEB7BE
:1022400062970FB6F894DEBF0FBECDBF8C01CB01F5
:10225000F8011182108213821282158214824AE0E0
:10226000BE016F5F7F4F0E94C12FBE016F5F7F4F26
:10227000C8010E94101162960FB6F894DEBF0FBE1F
:10228000CDBFDF91CF911F910F910895CF93DF9331
:10229000EC01FB018617970749F060817181611598
:1022A000710541F0448155810E94EF10CE01DF910C
:1022B000CF9108950E94160FF9CFFC011182108270
:1022C00013821282158214820C944611FC01118231
:1022D00010821382128215821482FB010190002069
:1022E000E9F73197AF01461B570B0C94EF10AF92F3
:1022F000BF92CF92DF92EF92FF920F931F93CF93F3
:10230000DF936C015B017A0189012417350720F402
:102310008F2D7901042F182F61E173E0C6010E940F
:102320006611D5011496CD91DC91EC16FD06E0F412
:102330000C171D0708F4E801D501ED91FC911197E8
:10234000EC0FFD1F108110826D917C916E0D7F1D31
:10235000C60161157105A1F00E941011F50180817F
:102360009181C80FD91F1883C601DF91CF911F91AA
:102370000F91FF90EF90DF90CF90BF90AF900895B6
:102380000E94160FEBCF4F925F926F927F928F92C7
:102390009F92AF92BF92CF92DF92EF92FF920F93F4
:1023A0001F93CF93DF9300D000D000D0CDB7DEB71E
:1023B0007C014B015A0180916B0481113AC081E08C
:1023C00080936B0495E6692E94E0792E2FE5422EDA
:1023D00024E0522E10E000E00F5F1F4F680181E003
:1023E000C81AD1089801A601B401CE0101960E9435
:1023F0007711CE0101960E942E10D3016D933D01FD
:10240000CE0101960E94280F9801A601B501CE01C8
:1024100001960E947711CE0101960E942E10F201C2
:1024200061932F01CE0101960E94280F06301105FD
:1024300099F690915E0485E6C82E84E0D82EEFE5EB
:10244000F4E08601A801D8018C919A3008F04DC0C3
:102450008F5F8C930F5F1F4FDA018C918A3019F4D4
:10246000D80111971C923196B4E00B361B0751F737
:102470009F5F943109F43FC090935E0461E173E083
:10248000C7010E946611FE0131965F01D6018D9150
:102490006D014AE0B50190E00E94C12FF501019065
:1024A0000020E9F73197AF014A195B09B501C7016F
:1024B0000E949A100C151D0549F7C70126960FB604
:1024C000F894DEBF0FBECDBFDF91CF911F910F916A
:1024D000FF90EF90DF90CF90BF90AF909F908F9044
:1024E0007F906F905F904F9008952081281709F496
:1024F000B1CF8F5FAECF10925E0410926B04BECF4F
:10250000CF92DF92EF92FF921F93CF93DF93CDB7DD
:10251000DEB72C970FB6F894DEBF0FBECDBF182FD5
:1025200065E373E0CE0107960E94661122E030E079
:1025300050E040E0133071F024E030E042E050E041
:102540001C3041F01033B9F42091CF063091D00601
:1025500044E050E06BEC76E0CE0101960E947711EA
:10256000BE016F5F7F4FCE0107960E943910CE01EA
:1025700001960E94280FCE0107960E942E106B0133
:10258000CE0107960E94280FC6012C960FB6F8942C
:10259000DEBF0FBECDBFDF91CF911F91FF90EF90B7
:1025A000DF90CF9008950F931F93CF93DF93CDB714
:1025B000DEB762970FB6F894DEBF0FBECDBF8C01B9
:1025C00077FF03C07195619571096A307105A4F5B3
:1025D000CE010D960E941A1167E173E0CE010196BB
:1025E0000E946611BE016F5F7F4FCE0107960E9469
:1025F0005D11BE01635F7F4FCE0107960E94DC1024
:10260000BC01C8010E945D11CE0107960E94280FEF
:10261000CE0101960E94280FCE010D960E94280F30
:10262000C80162960FB6F894DEBF0FBECDBFDF9132
:10263000CF911F910F910895C8010E941A11F0CFF8
:102640000F931F93CF93DF93CDB7DEB768970FB685
:10265000F894DEBF0FBECDBF8B01833079F520919A
:10266000CF063091D00642E050E06BEC76E0CE0130
:102670000D960E947711B801CE0101960E94D312E7
:10268000BE016F5F7F4FCE0107960E945D11BE01B4
:10269000635F7F4FCE0107960E94DC10BC018BEC7C
:1026A00096E00E944611CE0107960E94280FCE01A7
:1026B00001960E94280FCE010D9644C08C3009F07F
:1026C0004EC02091CF063091D00644E050E06BEC34
:1026D00076E0CE0143960E947711B801CE010D96A7
:1026E0000E94D31222E030E050E040E06BEC76E054
:1026F000CE0101960E947711BE016F5F7F4FCE0120
:1027000007960E945D11BE01635F7F4FCE01079661
:102710000E94DC10BE016D5E7F4F0E94DC10BC0188
:102720008BEC96E00E944611CE0107960E94280F7E
:10273000CE0101960E94280FCE010D960E94280F0F
:10274000CE0143960E94280F68960FB6F894DEBF1C
:102750000FBECDBFDF91CF911F910F9108958033B0
:1027600099F7CE010D960E94D31224E030E050E09C
:1027700040E06BEC76E0CE0101960E94771180CFAD
:102780000E94110760935504709356048093570478
:102790009093580480915404882309F44FC02091E9
:1027A000520430915304C901880F991F213131051A
:1027B000A1F1FC01E95CFE4F40815181415051097A
:1027C00051834083DC01A95CBE4F6D917C911197D0
:1027D000FC01ED53FD4F40815181641775073CF4B6
:1027E000FC01E558FD4F408151814D935C932031B0
:1027F000310509F5209157013091580121303105FB
:10280000B9F420E82093A004895C9E4FFC0160810C
:1028100071818091B0040C94201340915901509122
:102820005A014C50510950935A0140935901CACF53
:102830001092A004E9CF2930310531F708950E94A4
:102840001107609355047093560480935704909336
:10285000580480915404882309F444C02091520400
:1028600030915304C901880F991F2131310561F15D
:10287000FC01E95CFE4F408151814F5F5F4F518306
:102880004083DC01A95CBE4F6D917C911197FC01E6
:10289000E558FD4F40815181461757073CF4FC0134
:1028A000ED53FD4F408151814D935C9320313105B3
:1028B000B1F41092A004895C9E4FFC01608171818B
:1028C0008091B0040C9420134091590150915A0109
:1028D000445F5F4F50935A0140935901D2CF293042
:1028E000310549F708950F931F93CF93DF93CDB729
:1028F000DEB768970FB6F894DEBF0FBECDBF8C0170
:102900008091590190915A01489709F048C00E945E
:102910007709BC01CE0143960E94D3120E947F0921
:10292000BC01CE010D960E94D3120E948709BC0102
:10293000CE0101960E94D312BE016F5F7F4FCE0180
:1029400007960E945D11BE01635F7F4FCE0107961F
:102950000E94DC10BE016D5E7F4F0E94DC10BC0146
:10296000C8010E945D11CE0107960E94280FCE017A
:1029700001960E94280FCE010D960E94280FCE01CD
:1029800043960E94280FC80168960FB6F894DEBFE0
:102990000FBECDBFDF91CF911F910F9108950E947F
:1029A0007709BC01CE0143960E94D3120E947F0991
:1029B000BC01CE010D960E94D3120E941E080E94F7
:1029C000640880910B056CE070E0882309F4B0CFB7
:1029D000682F70E08D3008F4ABCF6C507109A8CF30
:1029E0008F929F92AF92BF92CF92DF92EF92FF921F
:1029F0000F931F93CF93DF93CDB7DEB72C970FB60E
:102A0000F894DEBF0FBECDBF8C016A017B018091BF
:102A10009204811111C00E941107645B7B4F8F4F9C
:102A20009F4F60938E0470938F04809390049093D3
:102A3000910481E08093920480918604811109C001
:102A400062E173E080E894E00E94661181E0809387
:102A500086040E94110780908E0490908F04A090AD
:102A60009004B0909104681979098A099B09693E1C
:102A700073408105910508F4D0C00E94110760934E
:102A80008E0470938F04809390049093910420E0BF
:102A900030E0A901C701B6010E94913220E030E088
:102AA00040E05FE387FDD2C0C701B6010E949731C5
:102AB0000E941A327B0177FF04C0EE24FF24E61A3D
:102AC000F70A5B0139E1A31A3CEFB30A80915B017D
:102AD00090915C019B012D593F4F69012A553109A5
:102AE0004901B701892B09F0B6C0CE0107960E94B3
:102AF0001A1167E173E0CE0101960E946611BE01D2
:102B0000695F7F4FCE0101960E94DC1067E173E0A0
:102B10000E94C610BC0180E894E00E944611CE01DC
:102B200001960E94280FCE0107960E94280F3FECC5
:102B3000A31637E0B30618F5B701CE0107960E9439
:102B40001A1166E173E0CE0101960E946611BE0182
:102B5000695F7F4FCE0101960E94DC1067E173E050
:102B60000E94C610BC0180E894E00E944611CE018C
:102B700001960E94280FCE0107960E94280F87EC2D
:102B8000C816D10418F5B701CE0107960E941A1194
:102B900065E173E0CE0101960E946611BE01695F96
:102BA0007F4FCE0101960E94DC1067E173E00E9426
:102BB000C610BC0180E894E00E944611CE01019647
:102BC0000E94280FCE0107960E94280F23E182164B
:102BD000910418F5B701CE0107960E941A1164E11D
:102BE00073E0CE0101960E946611BE01695F7F4FBE
:102BF000CE0101960E94DC1067E173E00E94C610CE
:102C0000BC0180E894E00E944611CE0101960E942A
:102C1000280FCE0107960E94280F60E874E0C801D3
:102C20000E945D11C8012C960FB6F894DEBF0FBE4E
:102C3000CDBFDF91CF911F910F91FF90EF90DF906B
:102C4000CF90BF90AF909F908F900895C701B6012D
:102C50000E9496312DCFCE0107960E941A1167E18E
:102C600073E0CE0101960E946611BE01695F7F4F3D
:102C7000CE0101960E94DC1067E173E00E94C6104D
:102C8000BC0180E894E00E944611CE0101960E94AA
:102C9000280FCE0107960E94280F3FECA31637E0BD
:102CA000B30638F5C7016AE070E00E94B632CE0183
:102CB00007960E941A1166E173E0CE0101960E9408
:102CC0006611BE01695F7F4FCE0101960E94DC1044
:102CD00066E173E00E94C610BC0180E894E00E94A7
:102CE0004611CE0101960E94280FCE0107960E9440
:102CF000280F87ECC816D10438F5C7016AE070E0E8
:102D00000E94B632CE0107960E941A1165E173E067
:102D1000CE0101960E946611BE01695F7F4FCE0110
:102D200001960E94DC1066E173E00E94C610BC01AF
:102D300080E894E00E944611CE0101960E94280F7F
:102D4000CE0107960E94280F23E18216910408F015
:102D500064CFC7016AE070E00E94B632CE010796E8
:102D60000E941A1164E173E0CE0101960E9466117F
:102D7000BE01695F7F4FCE0101960E94DC1066E1C3
:102D800073E03CCF85ED8093BC0080918B059091E2
:102D90008C05A0918D05B0918E050796A11DB11DE2
:102DA00023E0B695A795979587952A95D1F7209119
:102DB000BC0024FD03C010928905089540918B0545
:102DC00050918C0560918D0570918E05452B462B99
:102DD000472B69F30097A105B10541F02AE22A9536
:102DE000F1F700C00197A109B109E1CF80918A05EF
:102DF0000C94430A0C9437310C942F318F929F928C
:102E0000AF92BF92CF92DF92EF92FF920F931F93F8
:102E1000CF93DF9388E090E00E94FC16C82FC82E65
:102E2000D12C89E090E00E94FC16882EE82EF12C2F
:102E30008AE090E00E94FC16082F10E0912CB12C43
:102E4000A12CBA2CA92C982C8824AC2A882AD0E052
:102E5000C0E0B501A401CE010E9405012196C83051
:102E6000D105B9F70E9400068AEB90E00E94860F18
:102E700085EB90E00E941E03C6010E94FE0F8EEAC1
:102E800090E00E941E03C7010E94FE0F88EA90E0B6
:102E90000E941E03C801DF91CF911F910F91FF90F7
:102EA000EF90DF90CF90BF90AF909F908F900C9459
:102EB000FE0F2F923F924F925F926F927F928F926E
:102EC0009F92AF92BF92CF92DF92EF92FF920F93B9
:102ED0001F93CF93DF93CDB7DEB764970FB6F89407
:102EE000DEBF0FBECDBF0E94DB0500919A0410919A
:102EF0009B0420919C0430919D04601B710B820BFC
:102F0000930B6E34734C8105910508F4B9C20E948D
:102F1000DB0560939A0470939B0480939C049093C8
:102F20009D048BEC96E00E942E1069877A878B8730
:102F30009C87EAE02E2E312C412C512CA2019101CC
:102F40000E94EC3249015A01660F771F6D557D4F83
:102F5000DB01ED90FC9085E090E00E94B50C3C0117
:102F6000C501B401A20191010E94EC32660F771FE6
:102F70006D557D4FFB01C080D18084E090E00E94C0
:102F8000B50C4C0169857A858B859C8524E630E0FB
:102F900040E050E00E94EC32CA01B901A201910167
:102FA0000E94EC32660F771F6D557D4FDB01AD90AF
:102FB000BC9083E090E00E94B50CE620F72010E082
:102FC00000E024E1EE0CFF1C001F111F2A95D1F731
:102FD0008A219B21B0E0A0E08E299F29A02BB12B54
:102FE0008C209D20B12CA12C3AE0880C991CAA1CA5
:102FF000BB1C3A95D1F76C017D01C828D928EA2875
:10300000FB2869857A858B859C8528EE33E040E036
:1030100050E00E94EC32298B3A8B4B8B5C8B809179
:103020009F04882309F4ADC16894F6F880919E044A
:10303000882309F4A9C1A701960150682D873E870E
:103040004F87588B10E000E01D821E821F82188679
:1030500019821A821B821C82412C512C320143940A
:10306000B8016F5D7F4F072E000C880B990B0E94F3
:1030700012304B015C0120E030E040E85EE30E944A
:1030800071300E9403326B017C0120E030E040E8A7
:1030900050E40E947130A50194010E9496319B0179
:1030A000AC0160E070E080E490E40E94963120E0A2
:1030B00030E040E851E40E947130A70196010E947F
:1030C00097310E941A32CD84DE84EF84F888002E76
:1030D00004C0F694E794D794C7940A94D2F7A1E079
:1030E000CA22DD24EE24FF24613271050CF061C197
:1030F00061507109D301C20104C0880F991FAA1F32
:10310000BB1F6A95D2F7CD28CE28CF2809F444C139
:1031100029813A814B815C81282B392B4A2B5B2BEF
:1031200029833A834B835C830F5F1F4F0032110565
:1031300009F096CF8AE0482E512C612C712C6989B8
:103140007A898B899C89A30192010E94EC32660FD7
:10315000771F6D557D4FDB01ED90FC9082E090E094
:103160000E94B50C5C0169857A858B859C8520E180
:1031700037E240E050E00E94EC32CA01B901A301FD
:1031800092010E94EC32660F771F6D557D4FFB0157
:10319000C080D18081E090E00E94B50CEA20FB2045
:1031A00010E000E034E1EE0CFF1C001F111F3A9507
:1031B000D1F78C219D21B0E0A0E04AE0880F991F53
:1031C000AA1FBB1F4A95D1F767017801C82AD92ADF
:1031D000EA2AFB2A69857A858B859C8520EA36E870
:1031E00041E050E00E94EC32CA01B901A301920112
:1031F0000E94EC32660F771F6D557D4FDB010D91FC
:103200001C9190E080E00E94B50C80239123B0E0F7
:10321000A0E08C299D29AE29BF2920919F046C0133
:103220007D01222309F4EEC06894F6F880919E0493
:10323000882309F4EAC06894F7F801E010E0B801C7
:10324000012E000C880B990B0E9412302B013C01BF
:1032500020E030E040E85EE30E9471300E940332DB
:103260004B015C0120E030E040E850E40E94713006
:10327000A30192010E9496319B01AC0160E070E0D5
:1032800080E490E40E94963120E030E040E851E490
:103290000E947130A50194010E9497310E941A3258
:1032A0009801215031094601570104C0B694A794F2
:1032B000979487942A95D2F7B1E08B229924AA2477
:1032C000BB24613271050CF0B0C06150710981E01E
:1032D00090E0A0E0B0E004C0880F991FAA1FBB1FB8
:1032E0006A95D2F789288A288B2809F491C0298108
:1032F0003A814B815C81282B392B4A2B5B2B29830C
:103300003A834B835C830F5F1F4F0132110509F035
:1033100096CF88850E948E0E8F810E948E0E8E81A0
:103320000E948E0E8D810E948E0E8C810E948E0EC8
:103330008B810E948E0E8A810E948E0E89810E944E
:103340008E0E61E08AE00E94AB0360E08AE0649642
:103350000FB6F894DEBF0FBECDBFDF91CF911F91A6
:103360000F91FF90EF90DF90CF90BF90AF909F9024
:103370008F907F906F905F904F903F902F900C9424
:10338000AB03E894F6F852CED701C601BF778D871C
:103390009E87AF87B88B56CE80959095A095B095B7
:1033A00029813A814B815C81282339234A235B237D
:1033B000B7CE61527109D301C20104C0880F991FB1
:1033C000AA1FBB1F6A95D2F7CD28CE28CF2869F057
:1033D0002D813E814F815885282B392B4A2B5B2B21
:1033E0002D833E834F8358879FCE80959095A095DF
:1033F000B0952D813E814F815885282339234A235A
:103400005B23EECFE894F6F811CFE894F7F815CFE8
:1034100080959095A095B09529813A814B815C81EA
:10342000282339234A235B236ACF6152710981E043
:1034300090E0A0E0B0E004C0880F991FAA1FBB1F56
:103440006A95D2F789288A288B2869F02D813E81D8
:103450004F815885282B392B4A2B5B2B2D833E839C
:103460004F83588750CF80959095A095B0952D812A
:103470003E814F815885282339234A235B23EECF91
:1034800064960FB6F894DEBF0FBECDBFDF91CF912B
:103490001F910F91FF90EF90DF90CF90BF90AF9072
:1034A0009F908F907F906F905F904F903F902F9064
:1034B00008958F929F92AF92BF92CF92DF92EF9238
:1034C000FF920F931F93CF93DF93CDB7DEB7EC97A7
:1034D0000FB6F894DEBF0FBECDBF0E94110720E1EA
:1034E00037E240E050E00E94CA32672B682B692B1C
:1034F00001F580913F058823E1F00E94950EE09050
:103500003D05F0903E0500913B0510913C05209152
:10351000390530913A05409140055091410560913F
:1035200037057091380580913505909136050E94D8
:10353000420710924B0410924A04109249041092D0
:1035400048041092470410924604009131051091EE
:103550003205F8018081882309F409C10E9411070E
:10356000C090EC03D090ED03E090EE03F090EF03F9
:103570006C197D098E099F09C090E803D090E9037A
:10358000E090EA03F090EB03C616D706E806F906CA
:1035900008F0EDC00E9411074B015C018092EC0322
:1035A0009092ED03A092EE03B092EF03680130E039
:1035B00020E04AE0F801F1908F0180ED8F0D8A3014
:1035C00070F4429FC001439F900D11242F2DFF0CDA
:1035D000330B20533109280F391F6F01EBCF309384
:1035E00051042093500460914C0470914D048091DB
:1035F0004E0490914F042115310501F1032E000C6A
:10360000440B550B0E94EC322093E8033093E903FE
:103610004093EA035093EB03EFE9EF0DE730A0F49A
:103620000E2E000CFF0BE95EF44E0C940B33A31E20
:10363000A51E971E9B1E9D1E9F1EA11E209133013D
:1036400030E050E040E0DECF1092E703F6018181E8
:10365000833241F48091E7038F5F8093E703860113
:103660000E5F1F4FF80180818E32F1F4C090E803A5
:10367000D090E903E090EA03F090EB03C701B601B4
:1036800022E030E040E050E00E94EC32C20ED31E57
:10369000E41EF51EC092E803D092E903E092EA032B
:1036A000F092EB030F5F1F4FF801808180538A3047
:1036B00008F04DC38093E6030F5F1F4FF801808130
:1036C0008C3211F40F5F1F4FE091E703EE2309F4F2
:1036D0004EC0C090E803D090E903E090EA03F09078
:1036E000EB038091E6038450990B4CE0489F9001D6
:1036F000499F300D1124E20FF32FF11DEE0FFF1F34
:10370000E358FE4FB701A601808191810E94150404
:103710000E941107681979098A099B09C616D706FC
:10372000E806F90620F50E9411076093EC037093F8
:10373000ED038093EE039093EF038091C0058130F9
:1037400009F40AC3823009F40DC3811105C08091C8
:103750006E008D7F80936E0060E08091BF050E94B7
:10376000AB0388E690E00E94860F10E000E0109323
:103770003205009331050E94110700914204109117
:1037800043042091440430914504601B710B820B6B
:10379000930B6932710581059105F8F08091C005A0
:1037A000813009F4E5C2823009F4E5C2811105C017
:1037B00080916E008695817031F48091360181117F
:1037C000DDC20E94A30C0E94110760934204709313
:1037D0004304809344049093450480915204909153
:1037E0005304892B21F0809141048111DBC1809128
:1037F00054048111D7C18091060481110DC00E942B
:10380000110760930204709303048093040490935F
:10381000050481E0809306048091FA0381110DC0B4
:103820000E9411076093F6037093F7038093F803E7
:103830009093F90381E08093FA030E9411070091AD
:103840000204109103042091040430910504601BCC
:10385000710B820B930B00910001109101012091DB
:10386000020130910301061717072807390708F0EE
:103870004DC00E941107609302047093030480936B
:103880000404909305048091F4039091F50300974C
:1038900009F0F8C281E090E09093530480935204C1
:1038A00088E893E1A0E0B0E08093000190930101EB
:1038B000A0930201B09303018091F4039091F5036A
:1038C0008230910581F4109253041092520440E624
:1038D0005AEE60E070E04093000150930101609364
:1038E0000201709303010196833091050CF0EAC246
:1038F0009093F5038093F40380914104882321F091
:103900001092530410925204109241040E94110725
:1039100000910204109103042091040430910504E5
:10392000601B710B820B930B603D77408105910505
:1039300008F09AC30E9411070091F6031091F70353
:103940002091F8033091F903601B710B820B930BEC
:10395000653671058105910508F424C10E9411079F
:103960006093F6037093F7038093F8039093F90341
:10397000809152049091530420912805222309F448
:10398000A6C2892B89F5CE0149960E94731481E065
:1039900020915B0130915C01232B09F480E00E94AF
:1039A0003B0DAB01BC01CE0101960E94F014AE01AB
:1039B000475E5F4FBE016F5F7F4FCE014F960E9403
:1039C000C311BE01615E7F4F8BEC96E00E943910FF
:1039D000CE014F960E94280FCE0101960E94280F1B
:1039E000CE0149960E94280F809152049091530471
:1039F000019709F062C00E945D0968EE73E00E94C1
:103A0000B632BC01CE018B960E94D3120E94670988
:103A1000BC01CE0185960E94D3120E946F09BC01A1
:103A2000CE0149960E94D312BE01675E7F4FCE0140
:103A30004F960E945D11BE016B5D7F4FCE014F9688
:103A40000E94DC10BE01655D7F4F0E94DC10BC014E
:103A5000CE01C1960E945D11CE0101960E947314A1
:103A6000AE014F5C5F4FBE016F5F7F4FCE01C796C7
:103A70000E94C311BE01695C7F4F8BEC96E00E94EF
:103A80003910CE01C7960E94280FCE0101960E94E0
:103A9000280FCE01C1960E94280FCE014F960E949A
:103AA000280FCE0149960E94280FCE0185960E94CC
:103AB000280FCE018B960E94280F8091520490917E
:103AC0005304049709F06EC081E020915B013091AE
:103AD0005C01232B09F480E00E943B0DAB01BC018B
:103AE000CE01C1960E94F0140E945D0968EE73E059
:103AF0000E94B632BC01CE0185960E94D3120E946C
:103B00006709BC01CE014F960E94D3120E946F0933
:103B1000BC01CE0101960E94D312BE016F5F7F4FA0
:103B2000CE0149960E945D11BE01615E7F4FCE01BC
:103B300049960E94DC10BE016B5D7F4F0E94DC1035
:103B4000BC01CE018B960E945D11AE014F5C5F4FB0
:103B5000BE01655D7F4FCE01C7960E94C311BE01B5
:103B6000695C7F4F8BEC96E00E943910CE01C796BE
:103B70000E94280FCE018B960E94280FCE014996F5
:103B80000E94280FCE0101960E94280FCE014F9669
:103B90000E94280FCE0185960E94280FCE01C19663
:103BA0000E94280F0E94591782EB96E00E948F090D
:103BB00089E996E00E948F0980E896E00E948F09CB
:103BC00080915404811153C21092B0048091B206C6
:103BD0009091B306181619063CF080914A04909112
:103BE0004B04019709F09CC381E08093410410923B
:103BF00032051092310544E650E060E070E088EE56
:103C000093E00E9415040E9411076093550470937D
:103C100056048093570490935804809152049091D5
:103C2000530401968530910509F44EC290935304D4
:103C3000809352048091520490915304069721F48A
:103C40001092530410925204209152043091530464
:103C50008901000F111FF801E85FFE4F80818093FA
:103C6000B004D9011197FD01EE0FFF1FE55DFD4F77
:103C7000608171816115710509F443C3AB01415045
:103C80005109FA01EE0FFF1FED5FFD4F0190F0812A
:103C9000E02DAE17BF0709F034C36230710509F09B
:103CA00016C288E1E5E6F1E0DE01119601900D9281
:103CB0008A95E1F780914F01909150018370992787
:103CC000892B21F48DE190E09C838B8380914D01C1
:103CD00090914E010197880F991F21E030E02C0F41
:103CE0003D1F820F931F20914B0130914C01FC012D
:103CF00080819181821793070CF0E9C18AE090E0FE
:103D00009093530480935204EC960FB6F894DEBF60
:103D10000FBECDBFDF91CF911F910F91FF90EF901C
:103D2000DF90CF90BF90AF909F908F90089581E0EB
:103D30008093E7038BCC83E0FBCF85E0F9CF86E06F
:103D4000F7CF88E0F5CF8AE0F3CF8CE0F1CF809118
:103D500032018093E603B2CC80916F008D7F809317
:103D60006F00FACC809170008D7F80937000F4CC4E
:103D700080916F001FCD809170001CCD8091420515
:103D8000811121CD0091F2031091F303F801EE0FA0
:103D9000FF1FE00FF11FDF01AA0FBB1FA152BE4F93
:103DA0008D919C914AE0489F9001499F300D1124CC
:103DB0008091060190910701280F391F3093070168
:103DC00020930601DF01AA0FBB1FAF51BE4F8D919B
:103DD0009C91489FB001499F700D11248091370438
:103DE00090913804860F971F90933804809337047E
:103DF000EE0FFF1FED51FE4F60817181469F600104
:103E0000479FD00C11244091350450913604C40EC4
:103E1000D51ED0923604C0923504D12CF12CE22E5E
:103E2000D82AB12CA12CB701A601C5010E94050119
:103E3000FFEFAF1ABF0A28E0A216B104A1F70E9453
:103E400000068091F0039091F10301969093F103A5
:103E50008093F003499751F40F5F1F4F1093F303C2
:103E60000093F2031092F1031092F0038091F20399
:103E70009091F30306970CF4A6CC1092F3031092E2
:103E8000F203A1CC019709F017CD84E090E0909364
:103E900053048093520488E893E1A0E0B0E080935B
:103EA000000190930101A0930201B093030180915E
:103EB0002805811120C782E090E09093F50380935C
:103EC000F403FACC1092F5031092F40315CD892B6C
:103ED00009F062C0CE01C1960E9473140E945D0970
:103EE00068EE73E00E94B632BC01CE0185960E9456
:103EF000D3120E946709BC01CE014F960E94D312D3
:103F00000E946F09BC01CE0101960E94D312BE012E
:103F10006F5F7F4FCE0149960E945D11BE01615EC9
:103F20007F4FCE0149960E94DC10BE016B5D7F4F32
:103F30000E94DC10BC01CE018B960E945D11AE0187
:103F40004F5C5F4FBE01655D7F4FCE01C7960E94FB
:103F5000C311BE01695C7F4F8BEC96E00E94391063
:103F6000CE01C7960E94280FCE018B960E94280F83
:103F7000CE0149960E94280FCE0101960E94280F7B
:103F8000CE014F960E94280FCE0185960E94280FE1
:103F9000CE01C1960E94280F809152049091530443
:103FA000019709F0FFCD0E945D0968EE73E00E9461
:103FB000B632BC01CE018B960E94D3120E946709D3
:103FC000BC01CE0185960E94D3120E946F09BC01EC
:103FD000CE0149960E94D312BE01675E7F4FCE018B
:103FE0004F960E945D11BE016B5D7F4FCE014F96D3
:103FF0000E94DC10BE01655D7F4F0E94DC10BC0199
:10400000CE01C1960E945D11CE0101960E947314EB
:10401000AE014F5C5F4FBE016F5F7F4FCE01C79611
:104020000E94C311BE01695C7F4F8BEC96E00E9439
:104030003910CE01C7960E94280FCE0101960E942A
:10404000280FCE01C1960E94280FCE014F960E94E4
:10405000280FCE0149960E94280FCE0185960E9416
:10406000280FCE018B969CCD10926B049BCD0E94A5
:104070001107009155041091560420915704309176
:104080005804601B710B820B930B61367A4E8105CD
:10409000910508F49BCD10925404E0915204F091E4
:1040A0005304EE0FFF1FED5AFD4F808191819093D5
:1040B000530480935204880F991FFC01E85FFE4F60
:1040C00080818093B00482CD86E090E0AFCD1092E5
:1040D00054045093530440935204452BB9F40E9466
:1040E0005D097C010E9467098C010E946F09409163
:1040F00047015091480160914501709146019C0132
:1041000080914301909144010E94420780915204A2
:10411000909153040197B9F585E990E00E941E0340
:1041200080914B0190914C010E94FE0F8EE890E02F
:104130000E941E0380914D0190914E010E94FE0F3E
:10414000E0904F01F0905001F0E3EF1AF8EFFF0A12
:1041500000914D0110914E0180904B0190904C01C7
:104160000E9477095C010E947F096C010E94870907
:104170009401A501B6010E944207609149018DE0BA
:1041800090E00E94FA168091520490915304029795
:10419000C1F46091510182E090E00E94FA166091B2
:1041A000530183E090E00E94FA166091550184E08B
:1041B00090E00E94FA166091570186E090E00E941C
:1041C000FA168091520490915304039731F4609150
:1041D000590181E090E00E94FA168091520490917A
:1041E0005304049731F460915B018BE090E00E94EE
:1041F000FA168091520490915304059739F4609116
:104200005D01645F8CE090E00E94FA160E945D09F7
:1042100068EE73E00E94B632082F0E946709F82EFC
:104220000E946F09E82E0E947709B82E0E947F092C
:10423000C82E0E948709D82E81E080938F0588E6DA
:104240008093B105109290051092B20560E08EE562
:1042500096E00E94710C1AE08B2D612F0E9496321D
:104260008295807F682F690F8EE596E00E94710C21
:104270008C2D612F0E9496328295807F682F690F66
:104280008EE596E00E94710C8D2D612F0E94963272
:104290008295807F682F690F8EE596E00E94710CF1
:1042A00061E08EE596E00E94710C8E2D612F0E94D8
:1042B00096328295807F682F690F8EE596E00E9486
:1042C000710C8F2D612F0E9496328295807F682F0E
:1042D000690F8EE596E00E94710C802F612F0E947D
:1042E00096328295807F682F690F8EE596E00E9456
:1042F000710C60E08EE596E00E94710C0E94640AE9
:1043000003CD2331310561F02950310922303105C7
:1043100038F00E948012F801E95CFE4F918380839F
:104320008091B2069091B30697FD07C080914A0430
:1043300090914B04019609F0F3C044E650E060E030
:1043400070E088EE93E00E9415048091540481117E
:104350004DC000915204109153040E9411076093C4
:104360005504709356048093570490935804012B7E
:10437000E9F50E947709BC01CE0185960E94D3120F
:104380000E947F09BC01CE014F960E94D3120E9469
:104390008709BC01CE0101960E94D312BE016F5F56
:1043A0007F4FCE0149960E945D11BE01615E7F4F35
:1043B000CE0149960E94DC10BE016B5D7F4F0E94CA
:1043C000DC10BC018BEC96E00E944611CE014996B0
:1043D0000E94280FCE0101960E94280FCE014F9611
:1043E0000E94280FCE0185960E94280F80915204CA
:1043F00090915304019709F05AC00E946F0990935D
:104400004C0180934B010E94670990934E01809369
:104410004D010E945D0968EE73E00E94B632BC0156
:104420009093500180934F018091490190914A01EE
:10443000892B09F0A1C1CE0185960E94D31260910B
:104440004D0170914E01CE014F960E94D3126091A2
:104450004B0170914C01CE0101960E94D312BE0116
:104460006F5F7F4FCE0149960E945D11BE01615E74
:104470007F4FCE0149960E94DC10BE016B5D7F4FDD
:104480000E94DC10BC018BEC96E00E944611CE012C
:1044900049960E94280FCE0101960E94280FCE0156
:1044A0004F960E94280FCE0185960E94280FE0911A
:1044B0005204F0915304EE0FFF1FED5AFD4F20817F
:1044C000318130935304209352042D30310549F447
:1044D00081E090E0909358018093570180E88093A9
:1044E000A0048091540491E08927809354048901A9
:1044F000000F111FF801E85FFE4F80818093B00428
:10450000A901425151094230510550F0293031057D
:1045100039F00E948012F801E95CFE4F918380839C
:104520008091990690919A06009709F036C1809182
:104530004804909149040197E1F481E0809341049B
:10454000109232051092310544E650E060E070E0D0
:1045500088EE93E00E9415040E941F148091540479
:10456000811107C01092420560E087E090E00E9450
:10457000FA1680913F0490914004019609F016C10B
:1045800080919B06882309F411C11092B204809196
:1045900054048823F9F00E94110700913B04109104
:1045A0003C0420913D0430913E04601B710B820B52
:1045B000930B673971058105910560F00E94110721
:1045C00060933B0470933C0480933D0490933E04BD
:1045D0000E941F148091800690918106009709F037
:1045E000E9C08091460490914704019771F511E06C
:1045F00010934104109232051092310544E650E0C8
:1046000060E070E088EE93E00E9415040E94C01301
:1046100080915404811119C01093420561E087E034
:1046200090E00E94FA166091060188E090E00E94F6
:10463000FA166091370489E090E00E94FA166091C2
:1046400035048AE090E00E94FA1680913904909136
:104650003A04019609F0B7C080918206882309F4D4
:10466000B2C0809154041092B104882321F10E94B9
:1046700011070091310410913204209133043091DC
:104680003404601B710B820B930B67397105810534
:10469000910508F451C00E94110760933104709392
:1046A000320480933304909334040E94C0138091A9
:1046B0005404811141C08091990690919A0697FD0A
:1046C00006C080914804909149040196B1F444E6F3
:1046D00050E060E070E088EE93E00E94150481E015
:1046E0008093360161E090E080E00E94FA1687E84E
:1046F00090E00E94860F0E94FE16809180069091A5
:10470000810697FD06C0809146049091470401966A
:1047100099F444E650E060E070E088EE93E00E9497
:1047200015041092360160E090E080E00E94FA16D5
:104730008FE790E00E94860FE0915204F0915304BD
:10474000E431F10508F0E0CAE855FC4D0C940B3358
:10475000E723182415255D258825CC25841E841E75
:10476000841EFB25232623262326841E841E841EC6
:10477000841E841E8825CC25CE0185960E94D312E6
:1047800060914B0170914C01CE014F960E94D31263
:1047900060914D0170914E015ECE909340048093E4
:1047A0003F04181619060CF4C8CEC1CE81E08093E0
:1047B000B20410CF90933A04809339041816190666
:1047C0000CF415CF0ECF81E08093B10470CF8091AF
:1047D0006B0481111EC00E94770920910401309161
:1047E000050182179307E9F00E947709909305016C
:1047F00080930401CE0101960E947314BE016F5F85
:104800007F4F8BEC96E00E943910CE0101960E94FA
:10481000280F0E94770980FD76C180EC8093A00468
:1048200074C16BEC76E0CE0101960E945D11E6CF7B
:1048300080916B048111E2C080912904811111C023
:104840000E94110767517C4F8F4F9F4F6093250443
:1048500070932604809327049093280481E080932A
:10486000290480911D04811144C00E945D0968EEF5
:1048700073E00E94B632BC01CE0101960E94D312B1
:104880000E946709BC01CE0149960E94D3120E9482
:104890006F09BC01CE0185960E94D312BE016B5DEB
:1048A0007F4FCE014F960E945D11BE01675E7F4F24
:1048B000CE014F960E94DC10BE016F5F7F4F0E94B9
:1048C000DC10BC0187E194E00E945D1181E08093DF
:1048D0001D04CE014F960E94280FCE0185960E949E
:1048E000280FCE0149960E94280FCE0101960E9402
:1048F000280F0091490110914A0180910F04811104
:1049000005C000930E0481E080930F040E941107FC
:10491000C0902504D0902604E0902704F09028044D
:104920006C197D098E099F09693E734081059105C7
:1049300030F480910E048017110609F44EC00E94D5
:1049400011076093250470932604809327049093A5
:104950002804012B09F054C00E945D0968EE73E041
:104960000E94B632BC01CE0101960E94D3120E9471
:104970006709BC01CE0149960E94D3120E946F09BB
:10498000BC01CE0185960E94D312BE016B5D7F4FA4
:10499000CE014F960E945D11BE01675E7F4FCE0132
:1049A0004F960E94DC10BE016F5F7F4F0E94DC10AB
:1049B000BC0187E194E00E944611CE014F960E940F
:1049C000280FCE0185960E94280FCE0149960E949D
:1049D000280FCE0101960E94280F67E174E0CE01F6
:1049E00001960E945D11BE016F5F7F4F8BEC96E0D8
:1049F0000E943910CE0101960E94280F80E40ECF4C
:104A00000E945D0968EE73E00E94B632BC01CE01DF
:104A100001960E94D3120E946F09BC01CE014996F3
:104A20000E94D3120E946709ABCF6091550170912B
:104A30005601CE0185960E94D31260915301709168
:104A40005401CE014F960E94D31260915101709192
:104A50005201CE0101960E94D312BE016F5F7F4FBB
:104A6000CE0149960E945D11BE01615E7F4FCE016D
:104A700049960E94DC10BE016B5D7F4F0E94DC10E6
:104A8000BC018BEC96E00E944611CE0149960E9433
:104A9000280FCE0101960E94280FCE014F960E944A
:104AA000280FCE0185960E94280F80915701909182
:104AB0005801019741F580E8B1CE6091590170919C
:104AC0005A01CE0149960E941A1166E173E0CE01A7
:104AD00001960E946611BE01675E7F4FCE0101966E
:104AE0000E94DC1066E173E00E94C610BC018BECF2
:104AF00096E00E944611CE0101960E94280FCE0139
:104B000049960E94280F1092A0040E94920FFCC8A0
:104B100080916B04811124C081E020915B01309170
:104B20005C01232B09F480E00E943B0DAB01BC012A
:104B3000CE0101960E94F014BE016F5F7F4F8BEC97
:104B400096E00E943910CE0101960E94280F8091B4
:104B50005B0190915C01892BD1F480E48093A004E7
:104B600081E020915B0130915C01232B09F480E00E
:104B70000E943B0D1091A00420E030E0A9010E94AA
:104B80000B3087FF07C010681093A004BDC81092B7
:104B9000A004E6CF1F77F8CF60915D0170915E01B0
:104BA000CE0101960E94D312BE016F5F7F4FCE01EE
:104BB00049960E945D1164E173E0CE0149960E941E
:104BC000C610BC018BEC96E00E944611CE014996BE
:104BD0000E94280FCE0101960E94280F80915D014E
:104BE00090915E0197FD03C01092A0048DC880E8EB
:104BF0008093A00489C88091490190914A01892B32
:104C000099F469E173E08BEC96E00E94101183E067
:104C100090E090931D0180931C018CE090E09093B4
:104C20001F0180931E0170C860E273E08BEC96E078
:104C30000E9410118CE090E090931D0180931C0164
:104C400083E090E0ECCF60914F0170915001809132
:104C5000490190914A01892BE9F5CE0185960E9480
:104C6000D31260914D0170914E01CE014F960E947A
:104C7000D31260914B0170914C01CE0101960E94BC
:104C8000D312BE016F5F7F4FCE0149960E945D1126
:104C9000BE01615E7F4FCE0149960E94DC10BE01CD
:104CA0006B5D7F4F0E94DC10BC018BEC96E00E9494
:104CB0004611CE0149960E94280FCE0101960E940E
:104CC000280FCE014F960E94280FCE0185960E9494
:104CD000280F1AC8CE0185960E94D31260914B010D
:104CE00070914C01CE014F960E94D31260914D01FC
:104CF00070914E01C2CF81E090E00C94731C1F9222
:104D00000F920FB60F9211242F933F934F935F93FF
:104D10006F937F938F939F93AF93BF93EF93FF9383
:104D200081EC95E00E94AF02FF91EF91BF91AF91AE
:104D30009F918F917F916F915F914F913F912F91B3
:104D40000F900FBE0F901F9018951F920F920FB6E5
:104D50000F9211242F938F939F93EF93FF93E091E2
:104D6000D105F091D2058081E091D705F091D80569
:104D700082FD1BC090818091DA058F5F8F73209137
:104D8000DB05821741F0E091DA05F0E0EF53FA4FCE
:104D9000958F8093DA05FF91EF919F918F912F91DD
:104DA0000F900FBE0F901F9018958081F4CF1F9227
:104DB0000F920FB60F9211242F933F938F939F93CF
:104DC000AF93BF938091110590911205A0911305A7
:104DD000B09114053091100523E0230F2D3758F5BD
:104DE0000196A11DB11D209310058093110590938C
:104DF0001205A0931305B0931405809115059091A9
:104E00001605A0911705B09118050196A11DB11DB9
:104E10008093150590931605A0931705B093180578
:104E2000BF91AF919F918F913F912F910F900FBEA6
:104E30000F901F90189526E8230F0296A11DB11D13
:104E4000D2CF1F920F920FB60F9211242F933F9340
:104E50008F939F93AF93BF93EF93FF938091B3058D
:104E60009091B405A091B505B091B6050097A10544
:104E7000B10531F130911D05E0911E05F0911F053E
:104E8000208123272083181619061A061B061CF4F6
:104E90000197A109B1098093B3059093B405A0933C
:104EA000B505B093B605FF91EF91BF91AF919F917A
:104EB0008F913F912F910F900FBE0F901F901895DB
:104EC000209170002D7F2093700020911D05E091AE
:104ED0001E05F0911F053081209523232083DBCF11
:104EE0001F920F920FB60F9211248F939F93AF933F
:104EF000BF93EF93FF938091B7059091B805A09170
:104F0000B905B091BA05892B8A2B8B2BA1F1909111
:104F10002005E0912105F091220580818927808379
:104F20008091B7059091B805A091B905B091BA05E7
:104F3000181619061A061B069CF48091B705909165
:104F4000B805A091B905B091BA050197A109B109B9
:104F50008093B7059093B805A093B905B093BA05AF
:104F6000FF91EF91BF91AF919F918F910F900FBEE5
:104F70000F901F90189580916F008D7F80936F0028
:104F800080912005E0912105F09122059081809586
:104F900089238083E5CF1F920F920FB60F921124C1
:104FA0008F939F93AF93BF93EF93FF938091BB0534
:104FB0009091BC05A091BD05B091BE05892B8A2BAF
:104FC0008B2BA1F190912305E0912405F09125050B
:104FD0008081892780838091BB059091BC05A09139
:104FE000BD05B091BE05181619061A061B069CF4DD
:104FF0008091BB059091BC05A091BD05B091BE0507
:105000000197A109B1098093BB059093BC05A093BA
:10501000BD05B093BE05FF91EF91BF91AF919F91F8
:105020008F910F900FBE0F901F90189580916E007A
:105030008D7F80936E0080912305E0912405F0918F
:1050400025059081809589238083E5CF1F920F925B
:105050000FB60F9211242F933F934F935F936F934B
:105060007F938F939F93AF93BF93EF93FF93809121
:10507000B900887F803609F44AC0F0F5883209F417
:10508000A7C018F5803109F49BC0B8F4882309F44F
:10509000F9C0883009F494C0FF91EF91BF91AF91AE
:1050A0009F918F917F916F915F914F913F912F9140
:1050B0000F900FBE0F901F901895883109F488C08B
:1050C000803251F78093870514C0803409F49DC065
:1050D00040F48033B9F38833F9F68093870585EC83
:1050E000B0C0803509F485C0883509F496C088348D
:1050F00099F60E94C216D0CF883909F48CC038F5D1
:10510000883729F050F4883611F0803729F683E08B
:10511000809389051092F60457C0883809F47BC043
:10512000803919F0803809F0B7CF8091F6048032C9
:1051300008F071C0E091F60481E08E0F8093F604D0
:105140008091BB00F0E0EA52FB4F80833DC0803B82
:1051500039F0E0F4803A09F479C0883A09F09CCF3C
:1051600084E0809389051092D5041092D404E091D4
:105170001B05F0911C0509958091D40481110FC085
:1051800081E08093D4041092B40409C0803C09F4F7
:10519000A6CF883C09F4A3CF883B09F07DCFE091EE
:1051A000D50481E08E0F8093D504F0E0EC54FB4FE2
:1051B00080818093BB009091D5048091D40429C054
:1051C000809164058093BB0085EC8093BC0064CF24
:1051D0009091860580918505981758F5E091860590
:1051E00081E08E0F80938605F0E0EB59FA4F8081C5
:1051F000E9CFE091860581E08E0F8093860580914E
:10520000BB00F0E0EB59FA4F8083909186058091C6
:1052100085059817C8F285E8D8CFE091860581E02A
:105220008E0F809386058091BB00F0E0EB59FA4F1A
:1052300080838091880581115CCF81E08093630534
:1052400084EA8093BC001092890526CF85EC809378
:10525000BC00109289058091F604803230F4E09110
:10526000F604F0E0EA52FB4F10826091F60470E021
:10527000E0911905F0911A0586ED94E009951092D8
:10528000F6040ACF1092870534CFCF93DF93EC0159
:10529000862F6F87188A91E0998B9A8B1C8A1B8ABC
:1052A000198218821A821D8A1E8A1F8A188E44E16A
:1052B00050E060E070E04B835C836D837E834AEF57
:1052C00050E060E070E04F83588769877A8748EE46
:1052D00053E060E070E04B875C876D877E8760E01D
:1052E0000E94D9038889811106C061E08F85DF9112
:1052F000CF910C94AB03DF91CF9108951092C40528
:105300001092C30588EE93E0A0E0B0E08093C5055D
:105310009093C605A093C705B093C8052FEE32E061
:105320003093C2052093C10525EC30E03093CE05C3
:105330002093CD0524EC30E03093D0052093CF05A9
:1053400020EC30E03093D2052093D10521EC30E001
:105350003093D4052093D30522EC30E03093D6056A
:105360002093D50526EC30E03093D8052093D7055F
:105370001092DA051092DB051092DC051092DD0523
:105380001092610610926006809362069093630605
:10539000A0936406B093650681E093E090935F0666
:1053A00080935E0667E273E08FED96E00E946611DF
:1053B00060E087E00E94D903E4EAF1E0E491E09341
:1053C000D106E0E9F1E0E491F0E0EE0FFF1FE158D3
:1053D000FE4F859194919093D3068093D2061092BC
:1053E000DC061092DE061092DD061092DB061092AB
:1053F000DA061092D9061092D8061092D7061092AB
:10540000D6061092D5061092D40662E173E08BECBA
:1054100096E00E9466116EE082EB96E00E944529BC
:1054200060E189E996E00E9445296FE080E896E016
:105430000E94452910926B0610927206109279060E
:1054400010927A0610927B0610927C0681E080937F
:105450007806809375061092760692E09093770610
:1054600080936A0688E190E090936F0680936E06C1
:105470000E9419339093740680937306009789F104
:1054800028E1FC0111922A95E9F788E090E09093D9
:105490006D0680936C0686E090E090937106809391
:1054A000700680916B06882341F061E086E00E94DF
:1054B000D90360E086E00E94AB03EFE8F1E0E491FD
:1054C000F0E0EE0FFF1FEB58FE4F85919491909303
:1054D0007E0680937D06E3EAF1E0E491E0937F06A7
:1054E000089510926F0610926E0610926D0610923B
:1054F0006C06D1CFCF93DF93CDB7DEB7CE54D109B1
:105500000FB6F894DEBF0FBECDBF789484B582602D
:1055100084BD84B5816084BD85B5826085BD85B557
:10552000816085BD80916E00816080936E001092D5
:105530008100809181008260809381008091810050
:1055400081608093810080918000816080938000E1
:105550008091B10084608093B1008091B00081603F
:105560008093B00080917A00846080937A0080916B
:105570007A00826080937A0080917A0081608093C3
:105580007A0080917A00806880937A001092C1003E
:105590001092340510923305109290051092B205C6
:1055A0000E94250A8EE292E090931C0580931B05D1
:1055B0008FE292E090931A0580931905E091D1054E
:1055C000F091D20582E08083E091CD05F091CE0587
:1055D0001082E091CF05F091D00580E18083109298
:1055E000D905E091D505F091D60586E08083E0915C
:1055F000D305F091D405808180618083E091D3054B
:10560000F091D405808188608083E091D305F0918A
:10561000D405808180688083E091D305F091D40522
:1056200080818F7D808381E090E00E94FC168C3029
:1056300009F404C188E190E090935A0180935901E4
:1056400090E080E00E94FC16882309F4FAC081E013
:105650008093360182E090E00E94FC168F3F09F0B3
:10566000F3C0109252011092510183E090E00E9429
:10567000FC168F3F09F0EEC01092540110925301B6
:1056800084E090E00E94FC168F3F09F0E9C0109280
:1056900056011092550186E090E00E94FC168F3F63
:1056A00009F0E4C0109258011092570187E090E091
:1056B0000E94FC168F3F09F0DFC0109242058BE07C
:1056C00090E00E94FC168F3F09F0DDC010925C0153
:1056D00010925B018CE090E00E94FC168F3F31F04D
:1056E0008C50990B90935E0180935D018DE090E06A
:1056F0000E94FC168F3F29F090E090934A0180931E
:10570000490180912605833008F032C192E09093E0
:10571000BF05E82FF0E0EF51FF4FE491E093C005A3
:105720008F5F80932605E13009F4D4C008F4B1C03E
:10573000E23009F4F6C080913401909135010E9465
:105740000C0E909335018093340161E08AE00E9451
:10575000D90361E085E00E94D90361E085E00E9401
:10576000AB031FB7F89480912705811127C0E3E9A7
:10577000F1E08491E7EAF1E09491E82FF0E0EE0F98
:10578000FF1FEC51FF4FA591B491EC91E92321F457
:1057900061E08AE00E94AB0361E08AE00E94D903E5
:1057A0008CB580618CBD8CB580648CBD61E08DE072
:1057B0000E94D90361E08BE00E94D9038091270504
:1057C0008F5F809327051FBF8DE58CBD1DBC809129
:1057D00070069091710697FD08C061E00E94D903A0
:1057E00060E0809170060E94AB0381E080936B06BD
:1057F00060917206633309F4C5C02091730630913D
:105800007406615009F4B8C070E08FEF92E30E9413
:10581000A232F90140916E0650916F06CF01821BB2
:10582000930B8417950708F0AAC04081469FC001DA
:10583000479F900D112490833196ECCF8CE090E03F
:10584000FBCE1092360106CF90E0909352018093E8
:1058500051010BCF90E0909354018093530110CFEE
:1058600090E0909356018093550115CF90E090936E
:105870005801809357011ACF91E0811101C090E047
:10588000909342051CCF90E090935C0180935B0164
:1058900021CF14BC15BC84B5826084BD85B5816000
:1058A00085BD8091BF0590E0FC01E757FE4FE49174
:1058B000F0E0EE0FFF1FEB58FE4F2591349130932F
:1058C000250520932405FC01E356FE4FE491E09367
:1058D000230531CF109280001092810080918100C9
:1058E0008860809381008091810081608093810035
:1058F0008091BF0590E0FC01E757FE4FE491F0E096
:10590000EE0FFF1FEB58FE4F259134913093220587
:1059100020932105FC01E356FE4FE491E09320051E
:105920000ACF1092B0001092B1008091B000826056
:105930008093B0008091B10081608093B10080912C
:10594000BF0590E0FC01E757FE4FE491F0E0EE0F59
:10595000FF1FEB58FE4F2591349130931F05209384
:105960001E05FC01E356FE4FE491E0931D05E3CED6
:105970008FEF8093C005DFCE70E060E04ACF83E315
:105980008093720662E08EE00E94D90362E080E1BB
:105990000E94D90362E08FE00E94D90361E082E0B7
:1059A0000E94D90304E110E020E030E00093B50646
:1059B0001093B6062093B7063093B8064EE150E038
:1059C00060E070E04093B9065093BA066093BB065E
:1059D0007093BC0680ED97E0A0E0B0E08093BD0638
:1059E0009093BE06A093BF06B093C00600939C069A
:1059F00010939D0620939E0630939F064093A00629
:105A00005093A1066093A2067093A3068093A40608
:105A10009093A506A093A606B093A70600938306CD
:105A2000109384062093850630938606409387065C
:105A3000509388066093890670938A0680938B063C
:105A400090938C06A0938D06B0938E068DE291E024
:105A50000E941E0325E030E042E050E06FED76E06A
:105A6000CE0101967C010E94771122E030E041E0F6
:105A700050E06FED76E0CE01875B9F4F0E9477117B
:105A8000BE01675B7F4FCE018D5B9F4F0E945D1112
:105A90006EE273E0CE018D5B9F4F0E94C610B7018E
:105AA0000E94DC100E94EB0FCE018D5B9F4F0E9485
:105AB000280FCE01875B9F4F0E94280FC7010E94CD
:105AC000280F0BE111E042E1D42EDA94DD2049F0F9
:105AD000F801649181EC95E00E94D1020F5F1F4FA5
