:10000000A6C10000D5C10000D3C10000D1C10000CD
:10001000CFC10000CDC10000CBC10000C9C10000AC
:10002000C7C10000C5C10000C3C10000C1C10000BC
:10003000BFC100000C941813BBC10000B9C100007F
:10004000B7C100000C947713B3C10000B1C1000028
:10005000AFC100000C94E013ABC100000C9412126D
:10006000A7C100000C945E100C943510A1C10000D3
:100070009FC100009DC100009BC1000099C100000C
:1000800097C1000095C1000093C1000091C100001C
:100090000C940C100C94E30F8BC10000A6C400005C
:1000A00087C1000085C1000083C1000081C100003C
:1000B0007FC100007DC100007BC100000C945C1278
:1000C00077C1000075C1000073C1000071C100005C
:1000D0006FC100006DC100006BC1000069C100006C
:1000E00067C1000099239B238F239123932395239A
:1000F0009723CD2C442D292E832EBD2E0C2F482F37
:10010000482F482F482F482F482F482F482F482F37
:10011000482F482FBD2E0C2FF60DF90DE80DEC0DD4
:10012000F20D300EFD0D010E070E0B0E0F0E150E0B
:10013000190E1D0E300E230E270E2B0E41114611E7
:100140004B1155115F11D81169117111791183117A
:100150008D119711A611B011D811BA11C411CE1179
:1001600000002200250028002B002E003100340062
:1001700002010000050108010B010201000000213D
:1001800000240027002A002D003000330001010068
:1001900000040107010A0153746F702054657374E1
:1001A0000054656D70203D200053746172742054BA
:1001B000657374004669726D776172652076657249
:1001C00073696F6E3A20005761726E696E67212005
:1001D00052544320444F4E275420524553504F4EC3
:1001E0004421006C6564206C6F636B3D00496E6355
:1001F0006F727265637420536F6E6720466F726D05
:10020000617421005247423D6F6666005247423D8D
:100210006F6E0076616C75653D006D656E75506F33
:10022000736974696F6E3D0076616C75653D006D34
:10023000656E75506F736974696F6E3D0053796EAA
:10024000632066726F6D204750530053796E6300D0
:1002500057616B652075702C204E656F2100000082
:100260000A0B02090C0D0E08070304010000000030
:10027000000000000000000000000000000000007E
:10028000000000000000000000001211100000003B
:10029000000000000000000000000000000000005E
:1002A00000000000000020002300260029002C0090
:1002B0002F003200000100000301060109010505BD
:1002C0000505070508080808020202020A0A0808CC
:1002D00004040404010101010101010103030303FA
:1002E00003030303040707070C0C0C0C0C0C0C0C89
:1002F0000202020206060606060606060B0B0B0B9A
:100300000B0B0B0B010210202008081020401020BE
:1003100040800201020108040201010204081020C9
:1003200040808040201008040201800402018040C7
:100330002010080402010804020101020408102030
:10034000408001020408102040805B3053301124AB
:100350001FBECFEFD1E2DEBFCDBF00E00CBF2AE071
:10036000A2E6B5E001C01D92AA32B207E1F715E09E
:10037000A0E0B2E0E8ECFDE600E00BBF02C00790B1
:100380000D92A236B107D9F711E0C6EAD1E000E03C
:1003900006C021970109802FFE010E945534C53AFD
:1003A000D10780E00807A9F70E94DE190C94D33624
:1003B00027CE4F925F926F927F928F929F92AF92D1
:1003C000BF92CF92DF92EF92FF920F931F93CF9342
:1003D000DF934B015C018091FC069091FD06A0919A
:1003E000FE06B091FF0688169906AA06BB0609F418
:1003F000C2C08CE3C82ED12CE12CF12CC501B40174
:10040000A70196010E94173460930C07CA01B90135
:10041000A70196010E94173460930D07CA01B90124
:1004200028E130E040E050E00E94173469017A0191
:1004300060930E07CA01B9016C5F7F4F8F4F9F4FCA
:1004400027E030E040E050E00E9417346F5F609397
:100450000F07412C512C320140E004E610E0C0E9C6
:10046000D1E0242F30E02E54384FF901E370FF27FC
:10047000309789F4C901B8010E940434892B31F402
:10048000C901BE010E940434892B29F48EE691E053
:10049000A0E0B0E004C08DE691E0A0E0B0E0480E3E
:1004A000591E6A1E7B1ED301C201AA27BB27C8168C
:1004B000D906EA06FB0610F04F5FD3CF4093120730
:1004C000309799F4C90164E670E00E940434892BE6
:1004D00039F4C90160E971E00E940434892B29F4E0
:1004E0008EE691E0A0E0B0E004C08DE691E0A0E0EF
:1004F000B0E0481A590A6A0A7B0AC418D508E60807
:10050000F708C90164E670E00E940434EC01C901F7
:1005100060E971E00E940434A6EDB3E020E02130F0
:1005200039F4309749F4209729F4009729F402C050
:100530004C9103C04DE101C04CE150E060E070E03F
:10054000C416D506E606F70640F0C41AD50AE60A30
:10055000F70A2F5F11962C3011F72F5F20931107A8
:10056000C394C09210078092FC069092FD06A09260
:10057000FE06B092FF06DF91CF911F910F91FF9081
:10058000EF90DF90CF90BF90AF909F908F907F9033
:100590006F905F904F90089585ED8093BC0080919F
:1005A000BC0084FDFCCF1092420708954091D7060D
:1005B000262F30E0240F311D21323105DCF420914B
:1005C00042072430C9F4FC0180E090E0861758F41B
:1005D0003091D7062191DC01AB54B94FA30FB11D67
:1005E0002C930196F3CF8091D706680F6093D706BE
:1005F00080E0089581E0089582E008950895E091F3
:10060000630580916205E81730F4F0E0EB56F94F8E
:10061000808190E008958FEF9FEF0895909163059A
:1006200080916205981750F4E92FF0E0EB56F94FEE
:10063000208130E09F5F9093630502C02FEF3FEF72
:10064000C90108958091620590E020916305821BA5
:1006500091090895CF92DF92EF92FF920F931F932B
:10066000CF93DF937C01262F972F8A018091430738
:10067000882391F0C62FD72F6E01C40ED51ECC153E
:10068000DD0569F06991D701ED91FC910190F08150
:10069000E02DC7011995F3CF642F822F87DFC801A2
:1006A000DF91CF911F910F91FF90EF90DF90CF904E
:1006B0000895CF93DF931F92CDB7DEB76983209162
:1006C00043072223D1F020916607203240F021E039
:1006D00030E0FC013383228380E090E014C08091FD
:1006E0004407E82FF0E0EB5BF84F998190838F5F30
:1006F000809344078093660704C061E0CE010196B1
:1007000055DF81E090E00F90DF91CF91089508953B
:1007100080E090E00895CF92DF92EF92FF920F93E6
:100720001F930E940612C0900207D0900307E0902A
:100730000407F09005078B019C010C191D092E0977
:100740003F0980916D0590916E05A0916F05B09164
:100750007005083E134021053105D0F00196A11D1A
:10076000B11D80936D0590936E05A0936F05B093B6
:100770007005B701A60148515C4F6F4F7F4F409302
:100780000207509303076093040770930507C9CFCE
:10079000409108075091090760910A0770910B0773
:1007A00084179507A607B70788F1E0910007F09135
:1007B0000107309759F1199561157105810591056A
:1007C00019F00E94491422C080916D0590916E0528
:1007D000A0916F05B0917005845D9E4FAF4FBF4FE4
:1007E0008093080790930907A0930A07B0930B071B
:1007F00081E090E02091060730910707232B11F448
:1008000080E090E0909307078093060760916D0564
:1008100070916E0580916F05909170051F910F91F9
:10082000FF90EF90DF90CF90089581E795E00C94D2
:10083000390F71DFBEDD8091120790E08E54984F22
:10084000089569DFB6DD8091110790E0089563DFB8
:10085000B0DD8091100790E008955DDFAADD809102
:100860000C0790E0089557DFA4DD80910D0790E01C
:10087000089551DF9EDD80910E0790E00895CF929C
:10088000DF92EF92FF92CF93DF93EC010E9406126A
:100890006B017C018F850E94871021E0892B09F470
:1008A00020E0298B8889811103C081E08227898B10
:1008B00029898A89281721F0CD8ADE8AEF8AF88E65
:1008C0008D899E89AF89B88DB701A601481B590B48
:1008D0006A0B7B0BDB01CA01CB80DC80ED80FE80E4
:1008E000C416D506E606F70664F43A81231749F0E4
:1008F0002A83222331F04B895C894F5F5F4F5C8BE9
:100900004B8B3A8131110CC0CF80D884E984FA84B2
:10091000C816D906EA06FB06ACF48B899C890EC082
:10092000CB84DC84ED84FE84C816D906EA06FB0677
:100930004CF48B899C899195819591099983888341
:100940001C8A1B8A2A8BDF91CF91FF90EF90DF905A
:10095000CF9008950F931F93CF93DF931F92CDB73E
:10096000DEB78C01862FF8016787408B91E049271D
:10097000418B428B148A138A118210821282158A4B
:10098000168A178A108E44E150E060E070E04383DD
:100990005483658376834AEF50E060E070E04783DC
:1009A00050876187728748EE53E060E070E04387CC
:1009B00054876587768760E029830E94DE10F801FE
:1009C0008089298181110BC0222349F061E087854C
:1009D0000F90DF91CF911F910F910C94AF100F905A
:1009E000DF91CF911F910F9108951F920F920FB633
:1009F0000F9211240BB60F922F933F934F935F9357
:100A00006F937F938F939F93AF93BF93EF93FF93D6
:100A10008091B900887F803609F49CC068F58832DF
:100A200009F45BC090F4803109F454C038F4882391
:100A300009F4F6C0883009F44DC0F5C0883109F4D6
:100A40004CC0803209F45DC0EEC0803409F468C047
:100A500048F4803309F455C0883309F0E4C080932A
:100A60004007D8C0803509F44FC0883509F45DC00F
:100A7000883409F0D8C0D6C0883909F4C7C0A8F4B2
:100A8000883709F467C038F4883609F463C08037C2
:100A900009F460C0C8C0883809F4B8C0803909F4C6
:100AA0005FC0803809F0BFC05BC0803B09F486C0DE
:100AB00038F4803A09F466C0883A09F47FC0B3C0BC
:100AC000803C09F4A7C0883C09F4A4C0883B09F421
:100AD0008AC0A9C080911D0710C090913F078091E6
:100AE0003E07981770F5E0913F0781E08E0F8093E5
:100AF0003F07F0E0E25EF84F80818093BB0085EC19
:100B000086C0809340078EC0E0913F0781E08E0F42
:100B100080933F078091BB00F0E0E25EF84F808356
:100B200090913F0780913E076EC0E0913F0781E0C2
:100B30008E0F80933F078091BB00F0E0E25EF84F9C
:100B400080838091410781116DC081E080931C07F3
:100B500084EA61C083E0809342071092FB06CFCF06
:100B60008091FB06803208F051C0E091FB0681E0E5
:100B70008E0F8093FB068091BB00F0E0E552F94FA9
:100B80008083BDCF85EC8093BC001092420780919A
:100B9000FB06803230F4E091FB06F0E0E552F94FBD
:100BA00010826091FB0670E0E091D906F091DA06C0
:100BB0008BED96E019951092FB0635C084E080938A
:100BC00042071092D8061092D706E091D506F09110
:100BD000D60619958091D706811105C081E08093D2
:100BE000D7061092B506E091D80681E08E0F80936B
:100BF000D806F0E0EB54F94F80818093BB009091D0
:100C0000D8068091D706981708F479CF85E88093A5
:100C1000BC0009C085EC8093BC001092420703C061
:100C200010924007B9DCFF91EF91BF91AF919F9176
:100C30008F917F916F915F914F913F912F910F9085
:100C40000BBE0F900FBE0F901F9018950C94283379
:100C50000C942033209177053091780502C03595AA
:100C600027958A95E2F7C901817099279195819519
:100C700091090895CF93DF93D82F0E94B5188CEC7B
:100C80000E94551884E40E9455180E94B5188CECF7
:100C90000E9455188EEB0E9455180E941918C82FF3
:100CA0000E9419186C2F70E0782B072E000C880B0F
:100CB000990B0E940D3220E030E040E85DE30E9495
:100CC0006C32DD2361F026E636E646EE5FE30E94F5
:100CD0006C3220E030E040E052E40E94503320E0EB
:100CE00030E040E251E40E946C32DF91CF910895F0
:100CF0008F929F92AF92BF92CF92DF92EF92FF922C
:100D00000F931F93CF93DF93CDB7DEB72C970FB61A
:100D1000F894DEBF0FBECDBF7C014A015B0120E02D
:100D200030E0A901C501B4010E94E53320E030E0C4
:100D300040E05FE387FD05C0C501B4010E94503368
:100D400004C0C501B4010E944F330E94B4338B012B
:100D50006AE074E0C7010E947D0F680117FF04C0BC
:100D6000CC24DD24C01AD10A4AE0B601CE01079690
:100D70000E943E0F60E174E0CE0101960E947D0F5B
:100D8000BE01695F7F4FCE0101960E94DA0E60E1DD
:100D900074E0F9D7BC01C7010E94EB0ECE010196A9
:100DA0000E94390FCE0107960E94390FC801895160
:100DB0009C4F8F3C974000F54AE0B601CE01079664
:100DC0000E943E0F6FE074E0CE0101960E947D0FFD
:100DD000BE01695F7F4FCE010196ECD760E174E000
:100DE000D2D7BC01C701F7D7CE0101960E94390FB7
:100DF000CE0107960E94390FC8018D599F4F873C3D
:100E0000910500F54AE0B601CE0107960E943E0F1B
:100E10006EE074E0CE0101960E947D0FBE01695F15
:100E20007F4FCE010196C6D760E174E0ACD7BC011C
:100E3000C701D1D7CE0101960E94390FCE01079686
:100E40000E94390F075F1F4F03311105F0F44AE08C
:100E5000B601CE0107960E943E0F6DE074E0CE0110
:100E600001960E947D0FBE01695F7F4FCE01019602
:100E7000A1D760E174E087D7BC01C701ACD7CE0130
:100E80000196F7D7CE010796F4D7C7012C960FB677
:100E9000F894DEBF0FBECDBFDF91CF911F910F91B0
:100EA000FF90EF90DF90CF90BF90AF909F908F908A
:100EB00008954F925F926F927F928F929F92AF921E
:100EC000BF92CF92DF92EF92FF920F931F93CF9337
:100ED000DF9300D000D0CDB7DEB77C014B015A01C3
:100EE00080917905882341F0809188060FE816E00B
:100EF000A9E8B6E0F80146C081E080937905109238
:100F00007805109277058FE8682E86E0782E99E8AC
:100F1000492E96E0592E00E010E00F5F1F4F680148
:100F200081E0C81AD1089801A601B401CE0101964A
:100F3000F8D7CE010196EFD6F30161933F01CE01C0
:100F4000019697D79801A601B501CE010196E9D780
:100F5000CE010196E0D6F20161932F01CE010196F8
:100F600088D706301105C9F6BFCF2C9192130DC05A
:100F700090819A3009F410823196119696E0E53905
:100F8000F90731F090818A3080F79F5F9083F0CF2E
:100F90008F5F843119F08093880604C01092880610
:100FA000109279056AE074E0C701A7D7FE01319677
:100FB0006F01F80181918F014AE0B60190E00E9433
:100FC000BF31F60101900020E9F73197AF014C19CC
:100FD0005D09B601C701AAD6F6E005391F0749F732
:100FE000C70126960FB6F894DEBF0FBECDBFDF91C6
:100FF000CF911F910F91FF90EF90DF90CF90BF9016
:10100000AF909F908F907F906F905F904F900895DA
:1010100088E090E01DDE682F89E00E94AF1089E033
:1010200090E016DE682F86E00E94AF108AE090E024
:101030000FDE682F83E00C94AF100F931F93809105
:101040002B0290912C02892B09F452C080918706C3
:101050008823A9F00E94061200918306109184064D
:101060002091850630918606DC01CB01801B910B17
:10107000A20BB30B893E9340A105B105B0F5809159
:101080008706811135C0F5DB2091250230912602BB
:101090008217930769F5E7DB209127023091280238
:1010A0008217930729F5D9DB2091290230912A0272
:1010B00082179307E9F40E940612609383067093E7
:1010C0008406809385069093860681E08093870648
:1010D00080E592E00E9455178091020290910302F0
:1010E000909386058093850503C010928706C7CF2D
:1010F0001F910F910895CF92DF92EF92FF921F936D
:10110000CF93DF93CDB7DEB72C970FB6F894DEBF41
:101110000FBECDBF182F67E174E0CE010196EDD66A
:10112000133029F422E030E040E050E00FC01C30E2
:1011300029F424E030E042E050E008C01033A1F48C
:101140002091DC093091DD0944E050E068ED79E060
:10115000CE010796E6D6BE01695F7F4FCE010196AC
:101160004FD6CE01079685D6CE010196D4D56B0118
:101170007C01CE0101967DD6C6012C960FB6F8945F
:10118000DEBF0FBECDBFDF91CF911F91FF90EF90DB
:10119000DF90CF9008950F931F93CF93DF9390919B
:1011A0007B05911103C080E090E07CC090917A05AE
:1011B0009923C9F3D82FC091810580917B068111B5
:1011C0000DC00E9406126093770670937806809394
:1011D000790690937A0681E080937B060E9406123E
:1011E00000917706109178062091790630917A0661
:1011F000DC01CB01801B910BA20BB30B8D32914014
:10120000A105B105F0F00E94061260937706709375
:1012100078068093790690937A068091760691E01D
:10122000982790937606992329F0109275061092CC
:10123000740607C08091810590E0909375068093B5
:1012400074062091740630917506890100951095F9
:1012500040917C0550E04023512346FF02C061E0ED
:1012600001C060E088E07BD740917C0550E09801A8
:101270002423352327FF02C061E001C060E08CE039
:101280006ED780917606882309F48DCF8C2F90E05D
:1012900002C095958795DA95E2F781709927919527
:1012A00081959109DF91CF911F910F91089581E070
:1012B0008093430788E68093650710924407109255
:1012C000660760E08FEA98E0F4D90E94EC188091FC
:1012D00042078111FCCF81E0809342078093410750
:1012E0009FEF9093400710923F0796E090933E0740
:1012F00080931D0780911D07806D80931D0780914D
:101300001C07813061F410921C0780911D078093A7
:10131000BB008091BC0083FDF8CF85EC01C085EE59
:101320008093BC00809142078130E1F380913F07B8
:10133000873018F480913F0701C087E0AEE1B7E045
:1013400025E936E0F9019E2F921B981718F49D911C
:101350009193F9CF10926305809362058FEA98E02C
:101360005DD9982F92959F708F702AE0929F800D83
:10137000112490E090938C0580938B058FEA98E080
:101380004DD9982F92959F708F702AE0929F800D73
:10139000112490E090938A05809389058FEA98E064
:1013A0003DD9982F9695969596959670292F220F50
:1013B000220F920F8F70890F90E090938805809391
:1013C00087058FEA98E02AD9982F92959F708F70A1
:1013D0002AE0929F800D112490E0909373068093F1
:1013E00072068FEA98E01AD9982F92959F708F70A5
:1013F0002AE0929F800D112490E090938E058093B7
:101400008D058FEA98E00AD9982F92959F708F707A
:101410002AE0929F800D112490E090939005809394
:101420008F058FEA98E0FAD8982F92959F708F7069
:101430002AE0929F800D112490E090939205809372
:10144000910508950F931F93CF93DF93CDB7DEB728
:1014500062970FB6F894DEBF0FBECDBF8C0177FF49
:1014600003C07195619571094AE06A3071050CF508
:10147000CE010D9603D560E174E0CE0101963DD515
:10148000BE016F5F7F4FCE0107962FD5BE01635F10
:101490007F4FCE0107968ED4BC01C80126D5CE0160
:1014A0000796E7D4CE010196E4D4CE010D96E1D49F
:1014B00002C0C801E3D4C80162960FB6F894DEBF3B
:1014C0000FBECDBFDF91CF911F910F9108950F9364
:1014D0001F93CF93DF93CDB7DEB768970FB6F8941D
:1014E000DEBF0FBECDBF8B01833081F42091DC09BC
:1014F0003091DD0942E050E068ED79E0CE010D96D3
:1015000010D5B801CE0101969DDF49C08C3009F09D
:1015100038C02091DC093091DD0944E050E068EDED
:1015200079E0CE014396FDD4B801CE010D968ADF55
:1015300022E030E040E050E068ED79E0CE01019635
:10154000F0D4BE016F5F7F4FCE010796CED4BE01AF
:10155000635F7F4FCE0107962DD4BE016D5E7F4F36
:1015600029D4BC0188ED99E036D4CE01079681D408
:10157000CE0101967ED4CE010D967BD4CE0143964A
:1015800026C0803329F5CE010D965CDF24E030E0E3
:1015900040E050E068ED79E0CE010196C2D4BE0192
:1015A0006F5F7F4FCE010796A0D4BE01635F7F4F70
:1015B000CE010796FFD3BC0188ED99E00CD4CE0193
:1015C000079657D4CE01019654D4CE010D9651D42E
:1015D00068960FB6F894DEBF0FBECDBFDF91CF91F6
:1015E0001F910F91089512D760937D0570937E052A
:1015F00080937F059093800580918205882309F46C
:101600005BC02091830530918405C901880F991F23
:101610002031310551F0FC01E35FFD4F40815181E4
:1016200041505109518340830AC040912D0250918D
:101630002E024C50510950932E0240932D02DC0192
:10164000A35FBD4F6D917C911197FC01E251FD4F5D
:1016500040815181641775073CF4FC01E455FC4F4F
:10166000408151814D935C932F30310569F4209175
:101670002B0230912C022130310521F420E82093F7
:101680007C0502C010927C05FC01E35FFD4F608188
:101690007181809181051BDF82E595E00E94221710
:1016A000E0918305F0918405EE0FFF1FE35FFD4F8E
:1016B000808191810C94AD170895A8D660937D0523
:1016C00070937E0580937F059093800580918205BD
:1016D000882309F450C02091830530918405C90105
:1016E000880F991F2031310551F0FC01E35FFD4F58
:1016F000408151814F5F5F4F518340830AC04091C9
:101700002D0250912E02445F5F4F50932E02409362
:101710002D02DC01A35FBD4F6D917C911197FC01FF
:10172000E455FC4F40815181461757073CF4FC01BA
:10173000E251FD4F408151814D935C932F30310533
:1017400011F410927C05FC01E35FFD4F6081718113
:1017500080918105BCDE82E595E00E942217E09130
:101760008305F0918405EE0FFF1FE35FFD4F80813D
:1017700091810C94AD1708950F931F93CF93DF932E
:10178000CDB7DEB768970FB6F894DEBF0FBECDBFFA
:101790008C0180912D0290912E02489769F45DD8BA
:1017A000BC01CE0143964EDE5ED8BC01CE010D9643
:1017B00049DE5FD8BC011BC050D8BC01CE014396A6
:1017C00041DE51D8BC01CE010D963CDE0E948B0358
:1017D0000E94D90180910E07882339F0682F70E0AC
:1017E0008D3028F06C50710902C06CE070E0CE01C1
:1017F000019628DEBE016F5F7F4FCE01079675D33D
:10180000BE01635F7F4FCE010796D4D2BE016D5EED
:101810007F4FD0D2BC01C80168D3CE01079629D32F
:10182000CE01019626D3CE010D9623D3CE01439649
:1018300020D3C80168960FB6F894DEBF0FBECDBFA7
:10184000DF91CF911F910F910895CF92DF92EF9288
:10185000FF920F931F93CF93DF93EC018B01D6D5AB
:10186000CE80DF80E884F984AB01BC014C195D09AE
:101870006E097F0988819981092E000CAA0BBB0B88
:1018800084179507A607B70718F48A85811128C021
:101890008B859C850817190719F481E08C8309C092
:1018A0008C81811103C080E090E026C00F3F1F4F64
:1018B000D1F78D818F5F8D83A9D56E837F838887D4
:1018C000998781E08A878D8190E02A813B81821708
:1018D00093074CF31C821D821A868FEF9FEF0CC07A
:1018E0001A868D81823028F01C821D8281E090E072
:1018F00003C01C821D82D7CFDF91CF911F910F9122
:10190000FF90EF90DF90CF9008958EBD00000DB452
:1019100007FEFDCF8EB508950895CF92DF92EF9226
:10192000FF920F931F93CF93DF936C017A018B018A
:10193000C0E0D0E0CE15DF0589F0D8016D918D01B2
:10194000D601ED91FC910190F081E02DC601199531
:10195000892B11F47E0102C02196ECCFC701DF91E3
:10196000CF911F910F91FF90EF90DF90CF9008954E
:10197000FC01A089B1898C91A689B78982FD0FC02D
:101980009C91818D8F5F8F73228D821749F0218DFD
:10199000DF01A20FB11D5D969C93818F08958C91FC
:1019A0000895FC01538D448D252F30E0842F90E065
:1019B000821B930B541710F0CF960895019708954A
:1019C000FC01918D828D981761F0828DDF01A80F47
:1019D000B11D5D968C91928D9F5F9F73928F90E069
:1019E00008958FEF9FEF0895FC01918D828D9817D8
:1019F00031F0828DE80FF11D858D90E008958FEF15
:101A00009FEF0895FC01918D228D892F90E0805CDD
:101A10009F4F821B91098F739927089585E797E05F
:101A2000F1DF21E0892B09F420E0822F089582E183
:101A300098E0E8DF21E0892B09F420E0822F089567
:101A4000FC01848DDF01A80FB11DA35ABF4F2C915B
:101A5000848D90E001968F739927848FA689B7892A
:101A60002C93A089B1898C9180648C93938D848D03
:101A7000981306C00288F389E02D80818F7D8083D2
:101A80000895EF92FF920F931F93CF93DF93EC0192
:101A900081E0888F9B8D8C8D981305C0E889F9892A
:101AA000808185FD23C0F62E0B8D10E00F5F1F4F48
:101AB0000F731127E02E8C8DE8120BC00FB607FCB8
:101AC000FACFE889F989808185FFF5CFCE01B8DFAB
:101AD000F2CF8B8DFE01E80FF11DE35AFF4FF0822C
:101AE0000B8FEA89FB898081806207C0EE89FF89BC
:101AF0006083E889F98980818064808381E090E057
:101B0000DF91CF911F910F91FF90EF900895CF93A8
:101B1000DF93EC01888D8823C1F0EA89FB898081FD
:101B200085FD05C0A889B9898C9186FD0EC00FB6C8
:101B300007FCF5CF808185FFF2CFA889B9898C9108
:101B400085FFEDCFCE017CDFE8CFDF91CF91089507
:101B500080E090E0892B19F06ADF811120C080E0DD
:101B600090E0892B19F05ADF81111CC080E090E0D1
:101B7000892B41F080E090E0892B21F00E94000049
:101B8000811113C080E090E0892BA1F080E090E00B
:101B9000892B81F00E94000081110AC008950E94E3
:101BA0000000DDCF0E940000E1CF0E940000EACFDC
:101BB0000C940000089590E0FC013197E231F105AA
:101BC00008F04EC08827E457FF4F8F4F0C945534D0
:101BD000809180008F7703C0809180008F7D8093FB
:101BE0008000089580918000877FF9CF84B58F773A
:101BF00002C084B58F7D84BD08958091B0008F7739
:101C000003C08091B0008F7D8093B00008958091D3
:101C100090008F7707C0809190008F7D03C08091E6
:101C20009000877F8093900008958091A0008F7727
:101C300007C08091A0008F7D03C08091A000877FA6
:101C40008093A0000895809120018F7707C0809134
:101C500020018F7D03C080912001877F8093200128
:101C600008950E94BF36CF93DF93EC01888199815C
:101C7000009711F00E944335198218821D821C8240
:101C80001B821A82DF91CF9108950F931F93CF93F8
:101C9000DF93EC0188819981009729F02A813B81AB
:101CA0002617370788F48B016F5F7F4F0E94DB3563
:101CB000009761F0998388831B830A832C813D817F
:101CC000232B11F4FC01108281E001C080E0DF9140
:101CD000CF911F910F910895EF92FF920F931F9351
:101CE000CF93DF93EC017B018A01BA01CEDF811132
:101CF00003C0CE01B8DF07C01D830C83B701888104
:101D000099810E94CC36CE01DF91CF911F910F9126
:101D1000FF90EF900895FC0180819181009711F070
:101D20000C948F3160E070E0CB010895EF92FF9248
:101D30000F931F93CF93DF93FC01248135816115AD
:101D4000710511F480E018C041155105A1F07B0127
:101D5000EC018A01020F131FB80197DF882391F36A
:101D6000288139818C819D81B701820F931F0E9448
:101D7000CC361D830C8381E0DF91CF911F910F91B1
:101D8000FF90EF900895CF93DF93EC0161157105FB
:101D900059F0FB0101900020E9F73197AF01461B94
:101DA000570BC4DF811102C0CE015DDFCE01DF9190
:101DB000CF910895CF93DF93EC01FB0144815581CE
:101DC00060817181B3DF811102C0CE014CDFCE0191
:101DD000DF91CF910895CF93DF93EC01FB0186173C
:101DE000970751F0608171816115710521F044817F
:101DF000558172DF01C037DFCE01DF91CF910895A9
:101E00000F931F93CF93DF938C01EB01FC01808133
:101E100091810097B1F0688179816115710579F040
:101E2000428153812C813D814217530740F00E942B
:101E3000CC368C819D81F8019583848313C00E94E8
:101E4000433588819981F801918380838A819B81C0
:101E5000938382838C819D819583848319821882E8
:101E60001B821A821D821C82DF91CF911F910F91DC
:101E70000895FC01808191810C944335EF92FF928B
:101E80000F931F93CF93DF93CDB7DEB762970FB653
:101E9000F894DEBF0FBECDBF8C01CB01F8011182DB
:101EA0001082138212821582148250E09E012F5FED
:101EB0003F4F7901B9010E94B531F701019000202F
:101EC000E9F73197AF014E195F09B701C80104DF87
:101ED00062960FB6F894DEBF0FBECDBFDF91CF91F3
:101EE0001F910F91FF90EF900895FC0111821082D5
:101EF00013821282158214826ECFFC01118210822D
:101F000013821282158214826115710549F0FB015A
:101F100001900020E9F73197AF01461B570BDCCE4B
:101F20000895BF92CF92DF92EF92FF920F931F938B
:101F3000CF93DF937C016B01EA01890124173507F8
:101F400020F48D2FE901042F182F6AE074E0C701F7
:101F5000D4DFD60114968D919C911597C817D90797
:101F600038F58017910708F48C01D601ED91FC91AA
:101F70001197E00FF11FB08010824D915C91BA0172
:101F80006C0F7D1F6115710559F0FB010190002058
:101F9000E9F73197AF01461B570BC7019DDE02C021
:101FA000C70161DED601ED91FC91E00FF11FB08217
:101FB000C701DF91CF911F910F91FF90EF90DF90BC
:101FC000CF90BF9008951F920F920FB60F921124D9
:101FD0000BB60F922F933F934F935F936F937F9323
:101FE0008F939F93AF93BF93EF93FF9385E797E012
:101FF00027DDFF91EF91BF91AF919F918F917F91DD
:102000006F915F914F913F912F910F900BBE0F9069
:102010000FBE0F901F9018951F920F920FB60F9240
:1020200011240BB60F922F933F934F935F936F93AF
:102030007F938F939F93AF93BF93EF93FF9385E726
:1020400097E096DCFF91EF91BF91AF919F918F91B7
:102050007F916F915F914F913F912F910F900BBEA8
:102060000F900FBE0F901F9018951F920F920FB6F2
:102070000F9211240BB60F922F933F934F935F93C0
:102080006F937F938F939F93AF93BF93EF93FF9340
:1020900082E198E0D5DCFF91EF91BF91AF919F91E4
:1020A0008F917F916F915F914F913F912F910F9001
:1020B0000BBE0F900FBE0F901F9018951F920F929E
:1020C0000FB60F9211240BB60F922F933F934F939D
:1020D0005F936F937F938F939F93AF93BF93EF9390
:1020E000FF9382E198E044DCFF91EF91BF91AF91C3
:1020F0009F918F917F916F915F914F913F912F9120
:102100000F900BBE0F900FBE0F901F901895CF939E
:10211000DF93282F30E0F901E25AFD4F8491F90155
:10212000EC5FFC4FD491F901E254FD4FC491CC23F4
:1021300089F0811140DDEC2FF0E0EE0FFF1FEC5530
:10214000FD4FA591B491EC91ED2381E090E021F455
:1021500080E002C080E090E0DF91CF9108951F936E
:10216000CF93DF93282F30E0F901E25AFD4F84919D
:10217000F901EC5FFC4FD491F901E254FD4FC49199
:10218000CC23C1F0162F811116DDEC2FF0E0EE0FFD
:10219000FF1FE05AFE4FA591B4918FB7F89411112B
:1021A00005C09C91ED2FE095E92302C0EC91ED2B49
:1021B000EC938FBFDF91CF911F910895CF93DF9361
:1021C00090E0FC01EC5FFC4F2491FC01E254FD4FD8
:1021D0008491882361F190E0880F991FFC01E358F6
:1021E000FE4FC591D491FC01E05AFE4FA591B491E8
:1021F000611109C09FB7F894888120958223888354
:10220000EC912E230BC0623061F49FB7F8943881B3
:10221000822F809583238883EC912E2B2C939FBF54
:1022200006C08FB7F894E8812E2B28838FBFDF91EB
:10223000CF9108951F93CF93DF93182FEB0161E0A7
:10224000BDDF209711F460E004C0CF3FD10531F429
:1022500061E0812FDF91CF911F9181CFE12FF0E0DD
:10226000E25AFD4FE4914E2F50E0FA013197E231EE
:10227000F10508F09DC08827E256FF4F8F4F0C9460
:10228000553484B5806884BDC7BD97C084B580626D
:1022900084BDC8BD92C0809180008068809380001A
:1022A000D0938900C093880088C0809180008062AC
:1022B00080938000D0938B00C0938A007EC0809171
:1022C0008000886080938000D0938D00C0938C0044
:1022D00074C08091B00080688093B000C093B30058
:1022E0006CC08091B00080628093B000C093B40055
:1022F00064C080919000806880939000D093990092
:10230000C09398005AC080919000806280939000A2
:10231000D0939B00C0939A0050C080919000886039
:1023200080939000D0939D00C0939C0046C0809104
:10233000A00080688093A0008091A0008F7B809394
:10234000A000D093A900C093A80037C08091A0003E
:1023500080628093A000D093AB00C093AA002DC0F0
:102360008091A00088608093A000D093AD00C093BE
:10237000AC0023C080912001806880932001D0931D
:102380002901C093280119C08091200180628093A7
:102390002001D0932B01C0932A010FC0809120010E
:1023A000886080932001D0932D01C0932C0105C03B
:1023B000C038D1050CF04CCF46CFDF91CF911F91A3
:1023C00008953FB7F8948091180790911907A0914C
:1023D0001A07B0911B0726B5A89B05C02F3F19F01F
:1023E0000196A11DB11D3FBFBA2FA92F982F882795
:1023F000820F911DA11DB11DBC01CD0142E0660FF0
:10240000771F881F991F4A95D1F708952FB7F89421
:102410006091140770911507809116079091170726
:102420002FBF08951F920F920FB60F9211242F9372
:102430003F938F939F93AF93BF9380911407909195
:102440001507A0911607B09117073091130723E0E5
:10245000230F2D3720F40196A11DB11D05C026E8DC
:10246000230F0296A11DB11D20931307809314071B
:1024700090931507A0931607B0931707809118073C
:1024800090911907A0911A07B0911B070196A11D01
:10249000B11D8093180790931907A0931A07B09362
:1024A0001B07BF91AF919F918F913F912F910F90FB
:1024B0000FBE0F901F9018951F920F920FB60F929C
:1024C00011240BB60F922F933F934F935F936F930B
:1024D0007F938F939F93AF93BF93EF93FF938091DD
:1024E000BC0815DE2091C0083091C1082F5F3F4F16
:1024F0003093C1082093C0089091BF08953618F01A
:1025000096E09093BB089091BB089430C9F128F4F1
:10251000923069F09330D1F05EC0953009F451C02B
:10252000963009F058C091E090938C0951C0811108
:1025300052C02091C0083091C1082436310508F4FA
:1025400042C010928C091092BF081CC0813009F063
:1025500042C0E091BF0891E09E0F9093BF08F0E069
:102560002091C0083091C108EE0FFF1FE554F74FCE
:10257000308727831092C1081092C00894E029C0C8
:10258000811117C0E091BF0891E09E0F9093BF08A2
:10259000F0E02091C0083091C108EE0FFF1FE55414
:1025A000F74F308727831092C1081092C00893E03C
:1025B00010C02091C0083091C1082536310558F06F
:1025C00007C0811108C01092C1081092C00803C052
:1025D00095E09093BB089091BE089923B1F08111CA
:1025E0000AC08091BD08882321F08091BD0861E078
:1025F00009C02F9A0AC08091BD08882329F08091D4
:10260000BD0860E0ACDD01C02F98FF91EF91BF9154
:10261000AF919F918F917F916F915F914F913F917A
:102620002F910F900BBE0F900FBE0F901F9018951B
:102630001F920F920FB60F9211240BB60F922F9389
:102640003F934F935F936F937F938F939F93EF93FA
:10265000FF934091670750916807609169077091F7
:102660006A07411551056105710599F0809164056E
:10267000E0916505F09166059081892780831416A5
:10268000150616061706D4F441505109610971095F
:1026900015C0809170008D7F8093700090916405CB
:1026A000E0916505F09166058081282F30E0892F43
:1026B00090E08095909582239323808340936707D1
:1026C000509368076093690770936A07FF91EF91D1
:1026D0009F918F917F916F915F914F913F912F913A
:1026E0000F900BBE0F900FBE0F901F9018951F926A
:1026F0000F920FB60F9211240BB60F922F933F93A8
:102700008F939F93AF93BF93EF93FF9380916B074A
:1027100090916C07A0916D07B0916E07892B8A2B61
:102720008B2B51F180916705E0916805F091690567
:1027300090818927808380916B0790916C07A0918D
:102740006D07B0916E07181619061A061B064CF590
:1027500080916B0790916C07A0916D07B0916E0707
:102760000197A109B10980936B0790936C07A0931F
:102770006D07B0936E0715C080916F008D7F8093B9
:102780006F0090916705E0916805F091690580817F
:10279000282F30E0892F90E0809590958223932315
:1027A0008083FF91EF91BF91AF919F918F913F9166
:1027B0002F910F900BBE0F900FBE0F901F9018958A
:1027C0001F920F920FB60F9211240BB60F922F93F8
:1027D0003F938F939F93AF93BF93EF93FF9380911A
:1027E0006F0790917007A0917107B0917207892BC4
:1027F0008A2B8B2B51F180916A05E0916B05F0914A
:102800006C0590818927808380916F079091700774
:10281000A0917107B0917207181619061A061B06C7
:102820004CF580916F0790917007A0917107B0915E
:1028300072070197A109B10980936F079093700700
:10284000A0937107B093720715C080916E008D7FC1
:1028500080936E0090916A05E0916B05F0916C0594
:102860008081282F30E0892F90E0809590958223F9
:1028700093238083FF91EF91BF91AF919F918F91AF
:102880003F912F910F900BBE0F900FBE0F901F9096
:10289000189560936D0570936E0580936F05909306
:1028A0007005DC01CB01845D9E4FAF4FBF4F80931D
:1028B000080790930907A0930A07B0930B0782E0DB
:1028C00090E09093070780930607A0DD60930207CE
:1028D00070930307809304079093050708953F9230
:1028E0004F925F926F927F928F929F92AF92BF9220
:1028F000CF92DF92EF92FF920F931F93CF93DF93CC
:10290000382E962E842EF90184E6E816F1042CF078
:1029100082EBE81A87E0F80A03C08EE1E80EF11CAA
:10292000E092120700931107E093100730920E0710
:1029300090920D0780920C07AE2DB0E020E833E3B3
:1029400041EE51E00E9436332B013C0122EB37E08F
:10295000FF2484E6C82ED12CC0E9D1E0C901825BF6
:1029600097408E159F05DCF4C90183709927892B48
:1029700099F4C901B6010E940434892B31F4C901CC
:10298000BE010E940434892B39F480E8480E81E5A9
:10299000581E81E0681E711C2F5F3F4FDFCF8EE411
:1029A000E81A88EFF80AC70164E670E00E94043470
:1029B0006C01C70160E971E00E9404345C01C1E070
:1029C000D0E0112783E0E822FF24C017D1072CF5BF
:1029D000C230D10589F4E114F10471F4C114D104B9
:1029E00019F4A114B10441F480E8480E8BE3581E99
:1029F00086E2681E711C0FC0DE01AB52BC4FAC9169
:102A0000B0E020E831E541E050E00E943633460E68
:102A1000571E681E791E2196D8CF292D30E0ACE3D1
:102A2000B0E00E9440336B017C01C80CD11CE11C5A
:102A3000F11C232D30E0A0E1BEE00E944033C60E21
:102A4000D71EE81EF91EDF01BB27119720E831E5EC
:102A500041E050E00E945D34DC01CB018C0D9D1DF6
:102A6000AE1DBF1DBC01CD01640D751D861D971DDA
:102A7000DF91CF911F910F91FF90EF90DF90CF905A
:102A8000BF90AF909F908F907F906F905F904F908E
:102A90003F90FFCE3F924F925F926F927F928F92C4
:102AA0009F92AF92BF92CF92DF92EF92FF920F93DD
:102AB0001F93CF93DF9300D01F92CDB7DEB7209145
:102AC000740727FDA9C149835A836B837C838C01DA
:102AD00061E08091730772DB30907407832D8D7FE6
:102AE0004801A12CB12C09F0B7C060E072E18AE77F
:102AF00090E0A50194010E94393429013A0169014D
:102B00007A0121E0C21AD108E108F1088FEFC81656
:102B1000D104E104F10409F008F44CC060E472E46B
:102B20008FE090E0A50194010E94393469017A0197
:102B300091E0C91AD108E108F108A2E03A1220C0D8
:102B4000BFEFCB16D104E104F10409F008F462C12F
:102B500060E970ED83E090E0A50194010E943934B2
:102B600069017A01E1E0CE1AD108E108F108FFEF2E
:102B7000CF16D104E104F10409F0C0F583E065C08B
:102B80002FEFC216D104E104F104B1F0A8F068E41B
:102B900078EE81E090E0A50194010E94393469014A
:102BA0007A0181E0C81AD108E108F108332009F45C
:102BB000D9C027C181E001C082E0332091F045C037
:102BC000D301C2012AE0B595A795979587952A95D7
:102BD000D1F76C017D01E1E0CE1AD108E108F108DE
:102BE00085E095B5987F892B85BD66C068E478EE51
:102BF00081E090E0A50194010E94393469017A01D5
:102C0000B1E0CB1AD108E108F108EFEFCE16D104FC
:102C1000E104F10409F008F4A3C064E274EF80E079
:102C200090E0A50194010E94393469017A0191E094
:102C3000C91AD108E108F108AFEFCA16D104E104BE
:102C4000F10411F008F0B0C085E09091B100987FD8
:102C5000892B8093B10030C060E072E18AE790E098
:102C6000A50194010E94393469017A01F1E0CF1A7B
:102C7000D108E108F108C114D10421E0E206F10411
:102C800088F068E478EE81E090E0A50194010E946C
:102C9000393469017A0181E0C81AD108E108F108E4
:102CA00093E001C091E0A1E03A1206C0809181005A
:102CB000887F892B8093810089819A81AB81BC8137
:102CC000892B8A2B8B2B81F0D801AA0FBB1F29815E
:102CD0003A814B815C810E94363328EE33E040E03C
:102CE00050E00E94173403C02FEF3FEFA90191E09D
:102CF0003916A1F0A2E03A1619F131108DC0C7BC07
:102D000020936F07309370074093710750937207B9
:102D100080916E00826080936E007EC0D0928900A8
:102D2000C092880020936B0730936C0740936D0727
:102D300050936E0780916F00826080936F006CC02B
:102D4000C092B300209367073093680740936907E8
:102D500050936A07809170008260809370005CC01D
:102D600084E073CF8FEFC816D104E104F104D1F0F1
:102D7000C8F062E17AE780E090E0A50194010E944A
:102D8000393469017A01F1E0CF1AD108E108F1087C
:102D90002FEFC216D104E104F10411F008F010CFB6
:102DA00084E01FCF83E01DCF62E17AE780E090E00E
:102DB000A50194010E94393469017A0191E0C91A90
:102DC000D108E108F108AFEFCA16D104E104F1041B
:102DD000B1F0A8F0D301C2014AE0B595A795979547
:102DE00087954A95D1F76C017D01E1E0CE1AD108B3
:102DF000E108F108332009F4F3CE87E026CF86E01E
:102E0000DCCEBFEFCB16D104E104F10409F060F68B
:102E100084E0D3CE82E019CF0F900F900F900F90E7
:102E2000DF91CF911F910F91FF90EF90DF90CF90A6
:102E3000BF90AF909F908F907F906F905F904F90DA
:102E40003F900895009769F0FC0101900020E9F798
:102E50003197AF01481B590BBC0182E198E00C94FB
:102E60008D0C80E090E008950F931F93CF93DF9334
:102E70008C01C0E0D0E0F801EC0FFD1F64916623E7
:102E800071F0E0911208F09113080190F081E02DAB
:102E900082E198E01995892B11F02196ECCFCE01B3
:102EA000DF91CF911F910F910895CF93DF93DCDFD6
:102EB000EC0188E094E0C6DF8C0F9D1FDF91CF917D
:102EC0000895CF93DF93BEDFEC0188E094E0BADF92
:102ED0008C0F9D1FDF91CF9108958F929F92AF929B
:102EE000BF920F931F93CF93DF93CDB7DEB7A19718
:102EF0000FB6F894DEBF0FBECDBF19A2423008F462
:102F00004AE08E010F5D1F4F842E912CA12CB12C15
:102F1000A50194010E941734E62FB901CA0101509E
:102F20001109EA3014F4E05D01C0E95CD801EC93CA
:102F3000232B242B252B61F7C80184DFA1960FB624
:102F4000F894DEBF0FBECDBFDF91CF911F910F91DF
:102F5000BF90AF909F908F900895CF92DF92EF92A5
:102F6000FF92CF93DF936C01990FEE08FF08F7FEF5
:102F700019C0E0911208F09113080190F081E02D42
:102F80006DE282E198E01995EC0166277727CB0185
:102F90006C197D098E099F094AE09FDF7C01EC0EC8
:102FA000FD1E05C04AE0C701B60197DF7C0188E03D
:102FB00094E048DF8E0D9F1DDF91CF91FF90EF9041
:102FC000DF90CF9008958F929F92AF92BF92CF9251
:102FD000DF92EF92FF92F5D94B015C0188EEC82E8B
:102FE00083E0D82EE12CF12CECD9DC01CB0188193F
:102FF0009909AA09BB09883E9340A105B10558F07B
:1030000021E0C21AD108E108F10888EE880E83E0B9
:10301000981EA11CB11CC114D104E104F10421F7D4
:10302000FF90EF90DF90CF90BF90AF909F908F90E8
:103030000895EF92FF920F931F93CF93DF9348E091
:1030400050E031E080E097E0E92EF12CC3E2D0E0DF
:103050000FEC10E09091DE09E091DF09F091E009BA
:10306000F8942181292B21836281292F20956223C5
:103070006283D7011197F1F7618126232183DE0155
:103080001197F1F720817894F8013197F1F79223A5
:1030900009F0832B330F41505109E1F6DF91CF91B5
:1030A0001F910F91FF90EF900895CF92DF92EF92D2
:1030B000FF920F931F93CF93DF9328E030E041E01E
:1030C0006FEF70E09FE0C92ED12CC3E2D0E007ED96
:1030D00010E09091DE09E091DF09F091E009592FAD
:1030E0005095F42EF82281F0F894F2805F215283FB
:1030F0005181592B5183DE011197F1F75281952BA4
:1031000092837894F8010FC0F894F2805F21528383
:103110005181592B5183DB011197F1F75281952B86
:1031200092837894F6013197F1F7440F21503109D9
:1031300081F6F894E091DF09F091E00991818091A6
:10314000DE09809598239183E091DF09F091E009F1
:103150009281892382837894DF91CF911F910F917F
:10316000FF90EF90DF90CF9008959091DE09E0916D
:10317000DF09F091E009F8948181292F20958223BD
:10318000818378948DE743E050E0815021F1DA01AA
:103190001197F1F730813923C1F3F89482818223AA
:1031A00082838181892B81837894ABE7B7E0119783
:1031B000F1F7F894818128232183A3E1B1E01197ED
:1031C000F1F78081982381E009F080E07894E3E6CC
:1031D000F6E03197F1F70895209166079091650721
:1031E000213208F04AC0809142078111FCCF32E0C1
:1031F0003093420731E0309341073FEF309340076F
:1032000010923F0720933E07A5E4B7E04EE157E058
:10321000FA013E2F341B321718F43D913193F9CF48
:1032200010921D0720911D07990F922B90931D0757
:1032300090911C07913061F410921C0790911D072A
:103240009093BB009091BC0093FDF8CF95EC01C02A
:1032500095EE9093BC00909142079230E1F39091EB
:1032600040079F3F79F080914007803241F0809184
:103270004007803331F084E005C081E003C082E084
:1032800001C083E010924407109266071092430732
:103290000895DF92EF92FF920F931F93CF93DF93E6
:1032A0001F921F92CDB7DEB7F82E162F81E08093C4
:1032B000430788E6809365071092440710926607DB
:1032C00060E08FEA98E02A8349830E9459038AE0EC
:1032D000D82E4981842F6D2D0E94F833692F30E15B
:1032E000839F600D11248FEA98E00E945903812F7B
:1032F0006D2D0E94F833692F30E1839F600D1124FA
:103300008FEA98E00E9459038F2D6D2D0E94F833AB
:10331000692F30E1839F600D11248FEA98E00E94AD
:10332000590361E08FEA98E00E9459032A81822FB5
:103330006D2D0E94F833692F20E1829F600D1124CA
:103340008FEA98E00E945903802F6D2D0E94F83378
:10335000692F30E1839F600D11248FEA98E00E946D
:1033600059038E2D6D2D0E94F833692F20E1829F25
:10337000600D11248FEA98E00E94590360E08FEA03
:1033800098E00E9459030F900F90DF91CF911F9109
:103390000F91FF90EF90DF901FCFCF93DF93682FB7
:1033A00070E080E090E04AE098DDEC0188E094E095
:1033B00049DD8C0F9D1FDF91CF910895CF93DF934F
:1033C000CDB7DEB7CE57D1090FB6F894DEBF0FBE2A
:1033D000CDBF789484B5826084BD84B5816084BD9E
:1033E00085B5826085BD85B5816085BD80916E00A3
:1033F000816080936E0010928100809181008260D4
:103400008093810080918100816080938100809110
:1034100080008160809380008091B10084608093FF
:10342000B1008091B00081608093B00080919100E4
:1034300082608093910080919100816080939100DF
:10344000809190008160809390008091A1008260C3
:103450008093A1008091A10081608093A100809160
:10346000A00081608093A000809121018260809300
:1034700021018091210181608093210180912001AF
:1034800081608093200180917A00846080937A002B
:1034900080917A00826080937A0080917A008160C6
:1034A00080937A0080917A00806880937A001092ED
:1034B000C10060E085E00E94AF1010926305109299
:1034C000620510924407109266071092420781E04D
:1034D0008093410710921C0761E084E10E94AF10C5
:1034E00061E085E10E94AF108091B9008E7F8093EA
:1034F000B9008091B9008D7F8093B90088E48093F2
:10350000B80085E48093BC00E0912208F091230884
:1035100082E08083E0911E08F0911F081082E09104
:103520002008F091210880E1808310922A08E09120
:103530002608F091270886E08083E0912408F09126
:103540002508808180618083E0912408F09125081E
:10355000808188608083E0912408F0912508808133
:1035600080688083E0912408F091250880818F7D18
:10357000808381E090E00E9428068C3019F088E179
:1035800090E002C08CE090E090932E0280932D0298
:1035900080E090E00E942806882321F081E080935B
:1035A0000A0202C010920A0282E090E00E942806FD
:1035B0008F3F29F4109226021092250205C090E058
:1035C000909326028093250283E090E00E942806D3
:1035D0008F3F29F4109228021092270205C090E034
:1035E000909328028093270284E090E00E942806AE
:1035F0008F3F29F410922A021092290205C090E010
:1036000090932A028093290286E090E00E94280687
:103610008F3F29F410922C0210922B0205C090E0EB
:1036200090932C0280932B0287E090E00E94280662
:103630008F3F19F41092530606C091E0811101C02A
:1036400090E0909353068BE090E00E9428068F3F15
:1036500029F41092300210922F0205C090E090934E
:10366000300280932F028CE090E00E9428068F3F6A
:1036700031F090E00C97909332028093310283EE08
:1036800091E0F2DB8091530690E067DC61E089E035
:103690000E94DE1061E086E00E94DE1061E083E0BF
:1036A0000E94DE1080919305833008F083C092E081
:1036B00090937307E82FF0E0E658FE4FE491E09313
:1036C00074078F5F80939305E13031F1E23009F4A4
:1036D0004AC0E11172C014BC15BC84B5826084BDBF
:1036E00085B5816085BD8091730790E0FC01E2544F
:1036F000FD4FE491F0E0EE0FFF1FE05AFE4F2591E1
:10370000349130936C0520936B05FC01EC5FFC4F0A
:10371000E491E0936A0551C01092800010928100FC
:103720008091810088608093810080918100816018
:10373000809381008091730790E0FC01E254FD4F7B
:10374000E491F0E0EE0FFF1FE05AFE4F2591349117
:103750003093690520936805FC01EC5FFC4FE49110
:10376000E09367052AC01092B0001092B1008091DA
:10377000B00082608093B0008091B100816080933E
:10378000B1008091730790E0FC01E254FD4FE49199
:10379000F0E0EE0FFF1FE05AFE4F25913491309379
:1037A000660520936505FC01EC5FFC4FE491E09316
:1037B000640503C08FEF809374078091020290919B
:1037C0000302FC01019620812A33D9F78C01818103
:1037D000843621F5339620E030E04AE0DF01808135
:1037E000319690ED980F9A3068F4429FB001439F54
:1037F000700D1124082E000C990BC0979B01280F07
:10380000391FECCF3093F5052093F40521153105D0
:1038100011F0209305028D010F5F1F4FD8018C918D
:103820008F3699F412968C91082E000C990B9C01FE
:10383000205331093093F5052093F405C39705977C
:1038400010F4209304020C5F1F4FF8018081823630
:10385000F9F4329620E030E04AE0819190ED980F43
:103860009A3068F4429FB001439F700D1124082ED6
:10387000000C990BC0979B01280F391FEECF309396
:10388000F5052093F40530930102209300028F0187
:103890002091000230910102032E000C440B550BC5
:1038A00060E67AEE80E090E00E943934DA01C901E6
:1038B00022E0880F991FAA1FBB1F2A95D1F780937A
:1038C000F0059093F105A093F205B093F3051093E2
:1038D00003020093020261E08AE00E94DE1061E0D0
:1038E00085E00E94DE101FB7F89480919405811145
:1038F00027C0E3EFF2E08491E9E3F3E09491E82F4D
:10390000F0E0EE0FFF1FE358FE4FA591B491EC914C
:10391000E92321F461E085E30E94AF1061E085E3D3
:103920000E94DE108CB580618CBD8CB580648CBD2E
:1039300061E084E30E94DE1061E083E30E94DE1018
:10394000809194058F5F809394051FBF8CB58C6028
:103950008CBD8CB583608CBD8DB58E7F8DBD62E0D6
:1039600086E30E94DE1062E088E30E94DE1062E0DF
:1039700087E30E94DE1061E082E00E94DE1004E135
:1039800010E020E030E00093C2091093C3092093B7
:10399000C4093093C5094EE150E060E070E0409307
:1039A000C6095093C7096093C8097093C90980ED8F
:1039B00097E0A0E0B0E08093CA099093CB09A09370
:1039C000CC09B093CD090093A9091093AA092093BB
:1039D000AB093093AC094093AD095093AE096093A5
:1039E000AF097093B0098093B1099093B209A09385
:1039F000B309B093B40900939009109391092093EF
:103A000092093093930940939409509395096093D8
:103A10009609709397098093980990939909A093B8
:103A20009A09B0939B0984EB91E01EDA25E030E01F
:103A300042E050E060E27AE08E010F5F1F4FC80164
:103A40000E94910F22E030E041E050E060E27AE035
:103A5000CE01815B9F4F0E94910FBE01615B7F4F42
:103A6000CE01875B9F4F0E94750F67E874E0CE011F
:103A7000875B9F4F0E94C30EB8010E94DA0EDC01E3
:103A800014964D915C9115976D917C9182E198E02F
:103A90000E948D0C88E094E0D5D9CE01875B9F4FC2
:103AA0000E94390FCE01815B9F4F0E94390FC801E0
:103AB0000E94390F89EA91E0F8D980910202909131
:103AC000030290938605809385056FEF70E089E08F
:103AD0000E941A1178DA60E070E089E00E941A1101
:103AE0006FEF70E086E00E941A116DDA60E070E01E
:103AF00086E00E941A116FEF70E083E00E941A11B5
:103B000062DA6BE074E0C8010E947D0F62E174E04C
:103B1000CE0107960E947D0F69E174E0CE010D96FB
:103B20000E947D0F60E274E0CE0143960E947D0FFB
:103B300067E274E0CE0149960E947D0F6EE274E068
:103B4000CE014F960E947D0F65E374E0CE0185960D
:103B50000E947D0F6CE374E0CE018B960E947D0F76
:103B600063E474E0CE01C1960E947D0F6AE474E0C4
:103B7000CE01C7960E947D0F6AE074E0CE01CD961B
:103B80000E947D0F6AE074E0CE018D5B9F4F0E9422
:103B90007D0F60E27AE0CE018D5B9F4F0E94EB0EBD
:103BA00081EA91E061D980E090E0D7D90E940612C5
:103BB0009B01AC0128513C4F4F4F5F4FE1962CAF1A
:103BC0003DAF4EAF5FAFE19761E085E00E94AF107F
:103BD00088248A9444EF51E0E3965FAF4EAFE397B9
:103BE000212C87E30E948710892B11F4222423942F
:103BF00088E30E948710892B09F4212C86E30E9418
:103C00008710892B81F487E991E04FD98E01075BFA
:103C10001F4FAE960FAFAE97E2961FAFE297CE0161
:103C200001961C01A2C1BBE03B2E91E0E4969FAF40
:103C3000E4970E940612DC01CB01E1962CAD3DAD6C
:103C40004EAD5FADE197821B930BA40BB50BE396D2
:103C50004EAD5FADE3978A01550F220B330B08176A
:103C600019072A073B0708F073C10E940612E19664
:103C70006CAF7DAF8EAF9FAFE197211001C08394F1
:103C80005AE0851639F08CE088120AC0E4961FAE1F
:103C9000E49706C0A8EBBBE0E396BFAFAEAFE397F7
:103CA00061E070E06C0F7D1FB6E0B89D600D711D86
:103CB000112488ED99E00E94EB0E88ED99E00E94B6
:103CC0008B0E2AE030E040E050E00E9439342901B8
:103CD0003A01660F771FFB01E952FD4F4081518188
:103CE000F6E0440F551FFA95E1F79A0140E050E0E5
:103CF00060E070E080E090E000E30E9463347901CE
:103D0000942EA52EC62EB72ED82E192FC301B20180
:103D10002AE030E040E050E00E94393429013A01C5
:103D2000660F771FFB01E952FD4F40815181B6E0DC
:103D3000440F551FBA95E1F79A0140E050E060E06A
:103D400070E080E090E006E20E946334E22AF32A09
:103D5000942AA52AC62AB72AD82A192BC301B20148
:103D60002AE030E040E050E00E94393429013A0175
:103D7000660F771FFB01E952FD4F4081518186E0BC
:103D8000440F551F8A95E1F79A0140E050E060E04A
:103D900070E080E090E00CE10E946334E22AF32AB4
:103DA000942AA52AC62AB72AD82A192BC301B201F8
:103DB0002AE030E040E050E00E94393429013A0125
:103DC000660F771FFB01E952FD4F4081518126E0CC
:103DD000440F551F2A95E1F79A0140E050E060E05A
:103DE00070E080E090E002E10E946334E22AF32A6E
:103DF000942AA52AC62AB72AD82A192BC301B201A8
:103E00002AE030E040E050E00E94393429013A01D4
:103E1000660F771FFB01E952FD4F4081518166E03B
:103E2000440F551F6A95E1F79A0140E050E060E0C9
:103E300070E080E090E008E00E946334E22AF32A18
:103E4000942AA52AC62AB72AD82A192BC301B20157
:103E50002AE030E040E050E00E943934660F771FDE
:103E6000FB01E952FD4F40815181F6E0440F551F9F
:103E7000FA95E1F756954795569547952E2D242BA3
:103E80003F2D352B492D5A2D6C2D7B2D8D2D912FAE
:103E900004E00E947E34122F932E5A016B017C01A4
:103EA00061E08AE00E94AF10212F392DA501B601F3
:103EB000C70108E30E947E34822F0E94850C212FC7
:103EC000392DA501B601C70100E30E947E34822F7F
:103ED0000E94850C212F392DA501B601C70108E2EA
:103EE0000E947E34822F0E94850C212F392DA5013E
:103EF000B601C70100E20E947E34822F0E94850C29
:103F0000212F392DA501B601C70108E10E947E3499
:103F1000822F0E94850C212F392DA501B601C701E2
:103F200000E10E947E34822F0E94850C212F392DC2
:103F3000A501B601C70108E00E947E34822F0E94CD
:103F4000850C812F0E94850C60E08AE00E94AF10F2
:103F50003A9431106ECE8BE39FE10197F1F7E4962E
:103F6000EFADE497E1113DCE4ECE06501109C801E8
:103F70000E94390F02151305C1F780915306811174
:103F80000E9408080E94570900918B0510918C052A
:103F90000E9406126B017C0181E080935B06112771
:103FA00080918B0590918C0508171907A9F40E9440
:103FB00057090E940612DC01CB018C199D09AE093C
:103FC000BF09893B9B40A105B10550F387EC91E007
:103FD0000E94551710925B06E0909105F0909205B3
:103FE00000918F051091900520918D0530918E05DF
:103FF00040918B0550918C056091890570918A05DF
:1040000080918705909188050E946F1460E085E09B
:104010000E94AF1061E085E00E94AF10E09185073B
:10402000F091860782E08083E0918107F09182071A
:104030001082E0918307F09184079FEC90831092A7
:104040008D07E0918907F0918A0796E09083E091CF
:104050008707F0918807908190619083E0918707AE
:10406000F0918807908198609083E0918707F091A4
:104070008807908190689083E0918707F091880786
:1040800090819F7D90831092BE08F8941092200139
:1040900099E09093210120E233E0309329012093AD
:1040A00028011092250110922401809373007894C6
:1040B0008093BB081092BF088091BC0860E00E940A
:1040C000DE1085E797E00E94020D892B09F44CC0B1
:1040D00085E797E00E94E00C9091E805E92FF0E079
:1040E000EB56FA4F80839F5F923519F09093E80565
:1040F00002C01092E8058A30B9F5E091E805F0E0D9
:10410000EB56FA4F10821092E80581E090E020E033
:10411000FC01EB56FA4F30813A3241F023270196E9
:1041200083359105A9F781E594E011C0818181343F
:104130000CF087538295807F9281913414F09753CD
:1041400001C09053890F821729F081E694E00E9404
:1041500061170AC080919505843231F480919805E9
:10416000823511F40C944C2F10926606109267065B
:10417000109268061092690682EC98E090936D06A2
:1041800080936C068091BF08482F50E0E5965FAFA2
:104190004EAFE59750936F0640936E0680918C0961
:1041A00090E090937106809370068091BB088530F3
:1041B00009F0FEC08091BF088A3108F469C080917F
:1041C000C2089091C308843F914090F410926B060E
:1041D00010926A068FEF9FEFDC0180936606909342
:1041E0006706A0936806B09369068BE090E03CC038
:1041F0008091C4089091C50885974B9708F048C0F6
:10420000E8ECF8E082E090E0C12CD12C7601AC0122
:104210004F5F5F4F2091BF0830E04217530764F4AF
:10422000DF0112972D913C9127503109273031053C
:1042300010F40C941230CA010197959587959093CC
:104240006B0680936A060C972CF410926B06109202
:104250006A061EC0C0926606D0926706E0926806A3
:10426000F092690684E090E0909363068093620682
:104270006091660670916706809168069091690664
:1042800040E10E946D1788E094E00E9422178BC0E5
:10429000E596AEADBFADE59716970CF484C008EC7B
:1042A00018E0E3E0F0E0E796FFAFEEAFE79765ECEC
:1042B000C62E6DE9D62E6CE1E62E61E8F62EE79665
:1042C0002EAD3FADE797E5964EAD5FADE597241770
:1042D00035070CF057C0D8016D917C91F8013497E7
:1042E000A080B18080E090E00E940B322B013C0165
:1042F000B50180E090E00E940B324B015C012DEC97
:104300003CEC4CE45FE30E946C329B01AC01C301C6
:10431000B2010E94073287FD17C02DEC3CEC4CE443
:104320005FE3C301B2010E946C329B01AC01C50185
:10433000B4010E940732E82F880FFF0BEE27FF0F12
:10434000EE1FFF27319602C0E0E0F0E0A7019601E2
:1043500063E971E080E091E00E94E9336F01FF0FB3
:10436000EE08FF08C626D726E826F926E796EEAD22
:10437000FFADE7973196E796FFAFEEAFE7970E5F99
:104380001F4F9DCFC0926606D0926706E0926806E6
:10439000F092690680E290E090936B0680936A0643
:1043A0008FEF9FEF61CF82E08093BB081092BF0830
:1043B000609166067091670682E19AE00E94250C82
:1043C0009093610680936006019721F480E794E062
:1043D0000E9461178091600690916106019621F418
:1043E0008BE794E00E946117609166067091670602
:1043F00085E09AE00E94250C90935F0680935E060C
:10440000019721F489E894E00E94611780915E068B
:1044100090915F06019621F482E994E00E94611771
:10442000609166067091670688EF99E00E94250CFE
:1044300090935D0680935C06019721F48EE994E0E9
:104440000E94611780915C0690915D06019621F4AF
:1044500089EA94E00E9461170E94061220E137E287
:1044600040E050E00E941734672B682B692B29F439
:1044700080915B0681110C9431300E94061221E17B
:1044800037E240E050E00E941734672B682B692B1D
:1044900009F0C2C08091ED0581119FC00E940612F3
:1044A0000091F4091091F5092091F6093091F7096E
:1044B000DC01CB01801B910BA20BB30B893B9B4012
:1044C000A105B10528F087EB94E00E946117A0C018
:1044D0008AEC94E00E9461178091EC090E94CD194A
:1044E0008091ED090E94CD198091EE090E94CD19AD
:1044F0008091F1099091F20948EEC42E43E0D42E48
:10450000B6010E9404347C010091F00910E0209172
:10451000EF0930E04091EE0950E06091ED0970E064
:104520008091EC0990E00E946F144091310250910B
:10453000320220E13EE0429FC001439F900D529F16
:10454000900D1124092E000CAA0BBB0B40916D0598
:1045500050916E0560916F0570917005840F951FE5
:10456000A61FB71F80936D0590936E05A0936F05EE
:10457000B09370050E9419047C010E942104082F49
:104580000E942704EE968FAFEE970E942D04EF96BF
:104590008FAFEF970E943304182F0E943904382FF1
:1045A000C701B6010E940434E82EEE962FADEE97B7
:1045B000EF964FADEF97612F832F0E94491981E04D
:1045C0008093ED050E9406126093E9057093EA0559
:1045D0008093EB059093EC051BC00E94061200919E
:1045E000E9051091EA052091EB053091EC05DC011D
:1045F000CB01801B910BA20BB30B81349747AB41CE
:10460000B10518F01092ED0503C081E08093ED052F
:104610008DE392E00E945517009185051091860563
:10462000D8018C91882309F42DC10E940612C090F4
:10463000FA05D090FB05E090FC05F090FD05DC014B
:10464000CB018C199D09AE09BF09C090F605D09029
:10465000F705E090F805F090F905C816D906EA06C6
:10466000FB0608F00FC10E9406126B017C016093EB
:10467000FA057093FB058093FC059093FD05C80136
:1046800020E030E06AE08C01FC01B080019640ED52
:104690004B0D4A3068F4629FA001639F500D1124B6
:1046A0002B2DBB0C330B20533109240F351FEBCFBF
:1046B0003093F5052093F4056091F0057091F105B4
:1046C0008091F2059091F3052115310529F0032E13
:1046D000000C440B550B05C02091050230E040E072
:1046E00050E00E9439342093F6053093F70540934B
:1046F000F8055093F9058B2DBB0C990BAA0BBB0B3E
:10470000FC01E156F109E730F10530F48827EE5855
:10471000FF4F8F4F0C9455341092EF050FC081E07E
:104720000BC083E009C085E007C086E005C088E0D3
:1047300003C08AE001C08CE08093EF05D801119698
:104740008C91833219F00F5F1F4F07C08091EF05E6
:104750008F5F8093EF050E5F1F4FF80180818E32CF
:10476000F1F48090F6059090F705A090F805B090D0
:10477000F905C501B40122E030E040E050E00E94BC
:104780003934820E931EA41EB51E8092F6059092B7
:10479000F705A092F805B092F9050F5F1F4FD801F9
:1047A0008C9180538A3028F48093EE050F5F1F4F61
:1047B00004C0809104028093EE058091EE05F8011B
:1047C00090819C3211F40F5F1F4F2091EF0522233F
:1047D00009F458C08090F6059090F705A090F80570
:1047E000B090F90590E004973CE0389FF001399FC4
:1047F000F00D1124E20FF11DEE0FFF1FEF5AFD4FD8
:10480000B501A401808191810E944A150E9406127F
:10481000DC01CB018C199D09AE09BF0988169906E8
:10482000AA06BB0678F50E9406126093FA057093FB
:10483000FB058093FC059093FD0580917407813002
:1048400051F0823071F0811111C080916E008D7F26
:1048500080936E000BC080916F008D7F80936F00FE
:1048600005C0809170008D7F8093700060E0809122
:1048700073070E94AF108DEE91E00E94551790E0F3
:1048800080E002C0902F812F90938505809386054C
:104890000E94061200915706109158062091590661
:1048A00030915A06DC01CB01801B910BA20BB30B9C
:1048B0000697A105B10508F489C080910A0281110B
:1048C00010C060E070E089E00E941A1160E070E0C2
:1048D00086E00E941A1160E070E083E00E941A11E5
:1048E0006BC080915306811167C000910006109142
:1048F0000106C801880F991F800F911FFC01EE0F60
:10490000FF1FED54FD4F60910B0270910C0220814E
:104910003181620F731F70930C0260930B02FC01D4
:10492000EE0FFF1FEB54FD4F20914B0630914C06CC
:10493000E080F180E20EF31EF0924C06E0924B060E
:10494000880F991FFC01E954FD4F80914906909111
:104950004A06C080D180C80ED91ED0924A06C092A5
:10496000490689E00E941A11B70186E00E941A11D7
:10497000B60183E00E941A118091FE059091FF0517
:1049800001969093FF058093FE058F3F910551F4AA
:104990000F5F1F4F10930106009300061092FF0552
:1049A0001092FE058091000690910106069724F072
:1049B00010920106109200060E940612609357069C
:1049C000709358068093590690935A0680918305F8
:1049D00090918405892B21F080915606811112C295
:1049E0008091820581110EC28091140681110DC043
:1049F0000E940612609310067093110680931206AF
:104A00009093130681E0809314068091080681112B
:104A10000DC00E94061260930406709305068093F1
:104A200006069093070681E0809308060E9406120E
:104A30000091100610911106209112063091130674
:104A4000DC01CB01801B910BA20BB30B0091060282
:104A500010910702209108023091090208171907E6
:104A60002A073B0708F053C00E9406126093100605
:104A7000709311068093120690931306809102069C
:104A800090910306009719F421E030E005C08130D1
:104A9000910599F424E030E0309384052093830558
:104AA00048E853E160E070E040930602509307024B
:104AB000609308027093090213C08230910581F45B
:104AC000109284051092830520E63AEE40E050E013
:104AD0002093060230930702409308025093090284
:104AE0000196833091052CF490930306809302067F
:104AF00004C0109203061092020680915606882385
:104B000021F01092840510928305109256060E949F
:104B10000612009110061091110620911206309194
:104B20001306DC01CB01801B910BA20BB30B803D64
:104B30009740A105B10508F063C10E9406120091DB
:104B40000406109105062091060630910706DC0147
:104B5000CB01801B910BA20BB30B85369105A105F0
:104B6000B10508F44FC10E940612609304067093C9
:104B70000506809306069093070680918305909121
:104B80008405892BD1F5AE968FADAE97E2969FAD99
:104B9000E2970E94BC0B81E020912F0230913002FD
:104BA000232B09F480E00E943A06AB01BC01C1014D
:104BB0000E947806AE964FADAE97E2965FADE29753
:104BC000B101CE01815B9F4F0E945907BE01615B1D
:104BD0007F4F88ED99E00E94000FCE01815B9F4FCF
:104BE0000E94390FC1010E94390FAE968FADAE976A
:104BF000E2969FADE2970E94390F809183059091D4
:104C00008405019709F074C00E94190468EE73E0EE
:104C10000E940434BC01CE01855A9F4F0E94220A93
:104C20000E942104BC01CE018B5A9F4F0E94220A90
:104C30000E942704BC01AE968FADAE97E2969FAD61
:104C4000E2970E94220AAE966FADAE97E2967FADD4
:104C5000E297CE01815B9F4F0E94750FBE016B5A98
:104C60007F4FCE01815B9F4F0E94DA0EBE01655AD5
:104C70007F4F0E94DA0EBC01CE018F599F4F0E94D8
:104C8000750FC1010E94BC0BAE014F595F4FB101BE
:104C9000CE0189599F4F0E945907BE0169597F4F24
:104CA00088ED99E00E94000FCE0189599F4F0E9424
:104CB000390FC1010E94390FCE018F599F4F0E94B9
:104CC000390FCE01815B9F4F0E94390FAE968FAD99
:104CD000AE97E2969FADE2970E94390FCE018B5AB4
:104CE0009F4F0E94390FCE01855A9F4F0E94390F66
:104CF0008091830590918405049709F083C081E039
:104D000020912F0230913002232B09F480E00E9481
:104D10003A06AB01BC01CE018F599F4F0E94780625
:104D20000E94190468EE73E00E940434BC01CE01B5
:104D30008B5A9F4F0E94220A0E942104BC01CE017F
:104D4000815B9F4F0E94220A0E942704BC01C1017F
:104D50000E94220AB101AE968FADAE97E2969FAD4A
:104D6000E2970E94750FBE01615B7F4FAE968FADDB
:104D7000AE97E2969FADE2970E94DA0EBE016B5AA3
:104D80007F4F0E94DA0EBC01CE01855A9F4F0E94D0
:104D9000750FAE014F595F4FBE01655A7F4FCE016F
:104DA00089599F4F0E945907BE0169597F4F88ED6D
:104DB00099E00E94000FCE0189599F4F0E94390F40
:104DC000CE01855A9F4F0E94390FAE968FADAE9798
:104DD000E2969FADE2970E94390FC1010E94390F00
:104DE000CE01815B9F4F0E94390FCE018B5A9F4F9E
:104DF0000E94390FCE018F599F4F0E94390F02C078
:104E0000109279050E94E11100911C0610911D0677
:104E100020911E0630911F06DC01CB01801B910BF7
:104E2000A20BB30B8A319144A105B10508F418C255
:104E30000E94E11160931C0670931D0680931E066C
:104E400090931F0660E08AE00E94AF1088ED99E021
:104E50000E948B0E3AE0C32ED12CE12CF12CA7013D
:104E600096010E94393449015A01660F771FFB01F0
:104E7000E952FD4F0081118185E090E00E94CB084E
:104E80003C0180E090E00E942A0686299729AC0127
:104E9000402B512B66E0440F551F6A95E1F79A01AC
:104EA00040E050E060E070E080E090E000E30E94CD
:104EB0006334E4962FAFE497E6963FAFE6972A0176
:104EC0003B01E8968FAFE897ED969FAFED97C50150
:104ED000B401A70196010E94393449015A01660FB5
:104EE000771FFB01E952FD4F0081118184E090E0C2
:104EF0000E94CB08AC0181E090E0EF964FAFEF97B6
:104F0000EE965FAFEE970E942A06EF964FADEF97B1
:104F1000EE965FADEE97842B952BAC01402B512B79
:104F2000F6E0440F551FFA95E1F79A0140E050E092
:104F300060E070E080E090E006E20E946334E49676
:104F4000AFADE497A22BE496AFAFE497E696BFAD82
:104F5000E697B32BE696BFAFE697442A552A662A12
:104F60007729EC967FAFEC97E896EFADE897E82BC2
:104F7000E896EFAFE897ED967FACED97792AC501FB
:104F8000B401A70196010E94393449015A01660F04
:104F9000771FFB01E952FD4F0081118183E090E012
:104FA0000E94CB08AC0182E090E0EF964FAFEF9704
:104FB000EE965FAFEE970E942A06EF964FADEF9701
:104FC000EE965FADEE97842B952BAC01402B512BC9
:104FD000B6E0440F551FBA95E1F79A0140E050E062
:104FE00060E070E080E090E00CE10E946334E496C1
:104FF000FFADE497F22BE496FFAFE497E6962FAD72
:10500000E697232BE6962FAFE697442A552A662A81
:10501000EC963FADEC97372BEC963FAFEC97E896CC
:105020001FADE897182B792AC501B401A701960195
:105030000E943934EB962CAF3DAF4EAF5FAFEB978C
:10504000660F771FFB01E952FD4FA080B18082E01F
:1050500090E00E94CB084C0183E090E00E942A0679
:1050600088299929AC014A295B2986E0440F551FFC
:105070008A95E1F79A0140E050E060E070E080E05E
:1050800090E002E10E946334E496AFADE497A22B76
:10509000E496AFAFE497E696BFADE697B32BE696FE
:1050A000BFAFE697442A552A662AEC96AFACEC9738
:1050B000A72A182BEC961FAFEC97B72CB92AEB96C2
:1050C0006CAD7DAD8EAD9FADEB97A70196010E94B3
:1050D0003934EB962CAF3DAF4EAF5FAFEB97660F19
:1050E000771FFB01E952FD4F8080918081E090E0C5
:1050F0000E94CB088C0184E090E00E942A06802B5D
:10510000912BAC014829592926E0440F551F2A95B7
:10511000E1F79A0140E050E060E070E080E090E06C
:1051200008E00E946334E4969FACE497922AE696E6
:105130000FADE697032B442A552A662A7A2C772A44
:10514000EC961FADEC97182BB92AEB966CAD7DADA4
:105150008EAD9FADEB97A70196010E943934660F83
:10516000771FFB01E952FD4FE080F18080E090E085
:105170000E94CB086C0185E090E00E942A068C29F1
:105180009D29AC014E295F2966E0440F551F6A95A1
:10519000E1F75695479556954795292D242B302FA5
:1051A000352BA201B301812F9B2D04E00E947E3498
:1051B000122F932E5A016B017C0108E30E947E346A
:1051C000822F0E94850C212F392DA501B601C70120
:1051D00000E30E947E34822F0E94850C212F392DFE
:1051E000A501B601C70108E20E947E34822F0E9409
:1051F000850C212F392DA501B601C70100E20E94BF
:105200007E34822F0E94850C212F392DA501B601F5
:10521000C70108E10E947E34822F0E94850C212F55
:10522000392DA501B601C70100E10E947E34822F0D
:105230000E94850C212F392DA501B601C70108E078
:105240000E947E34822F0E94850C812F0E94850C43
:1052500061E08AE00E94AF1060E08AE00E94AF1037
:105260008FEB99E00E943F0486EA99E00E943F0498
:105270008DE899E00E943F0480918205811103C06E
:10528000109281052DC00E94061200917D0510919B
:105290007E0520917F0530918005DC01CB01801BCC
:1052A000910BA20BB30B81369A4EA105B105C0F04C
:1052B00010928205E0918305F0918405EE0FFF1FA7
:1052C000EA57FC4F808191819093840580938305F8
:1052D000880F991FFC01E05AFC4F80818093810563
:1052E0008091BF099091C009181619063CF0809171
:1052F000600690916106019709F05FC181E080939B
:105300005606109286051092850544E650E060E04E
:1053100070E088EE93E00E944A150E9406126093A6
:105320007D0570937E0580937F0590938005809125
:1053300083059091840501968630910529F090931C
:1053400084058093830504C0109284051092830520
:105350008FE292E00E94341780918305909184053A
:105360000E94AD1788E292E00E943417E091830515
:10537000F0918405EE0FFF1FE35FFD4F8081918167
:105380000E94AD172091830530918405F901EE0F3D
:10539000FF1FE05AFC4F8081809381052150310925
:1053A000F901EE0FFF1FE65CFC4F40815181411572
:1053B000510509F4F0C0CA010197FC01EE0FFF1F6F
:1053C000EC5EFC4F608171816217730709F0E3C0E6
:1053D0004230510569F528E1E9E3F2E0D10101909D
:1053E0000D922A95E1F72091230230912402237037
:1053F0003327232B21F42DE130E03C832B832091B4
:105400001F0230912002E0912102F0912202319797
:10541000EE0FFF1FE20DF31D40815181421753072C
:105420003CF489E090E0909384058093830530C537
:10543000109282059093840580938305892BB9F49B
:105440000E9419047C010E9421048C010E942704FF
:1054500040911D0250911E0260911B0270911C022E
:105460009C018091190290911A020E946F14809100
:105470008305909184050197E9F4E0902302F09070
:105480002402F0E3EF1AF8EFFF0A009121021091D5
:10549000220280901F02909020020E942D045C0145
:1054A0000E9433046C010E9439049401A501B601E5
:1054B0000E946F1480918305909184050297C1F436
:1054C0006091250282E090E00E942606609127020A
:1054D00083E090E00E9426066091290284E090E03B
:1054E0000E94260660912B0286E090E00E9426062C
:1054F0008091830590918405039731F460912D028A
:1055000081E090E00E9426068091830590918405B9
:10551000049731F460912F028BE090E00E94260600
:105520008091830590918405059739F4609131024B
:10553000645F8CE090E00E94260660E085E00E94B7
:10554000AF100E9419047C010E942104082F0E94C0
:105550002704EE968FAFEE970E942D04EF968FAF43
:10556000EF970E943304182F0E943904382FC70187
:1055700068EE73E00E940434E82EEE962FADEE97AD
:10558000EF964FADEF97612F832F0E94491961E08D
:1055900085E00E94AF1000918305109184050231CF
:1055A000110559F0809181050E947B08000F111FA1
:1055B000F801E35FFD4F918380838091BF09909153
:1055C000C00997FD07C08091600690916106019621
:1055D00009F0B5C044E650E060E070E088EE93E08A
:1055E0000E944A158091820581115AC00E940612BC
:1055F00060937D0570937E0580937F059093800571
:105600008091830590918405892B09F049C00E94FF
:105610002D04BC01C1010E94220A0E943304BC0176
:10562000AE968FADAE97E2969FADE2970E94220AAA
:105630000E943904BC01CE018B5A9F4F0E94220A5E
:10564000BE016B5A7F4FCE01815B9F4F0E94750F49
:10565000AE966FADAE97E2967FADE297CE01815BDD
:105660009F4F0E94DA0EB1010E94DA0EBC0188ED54
:1056700099E00E94EB0ECE01815B9F4F0E94390F93
:10568000CE018B5A9F4F0E94390FAE968FADAE97C9
:10569000E2969FADE2970E94390FC1010E94390F37
:1056A000E0918305F0918405EE0FFF1FEA57FC4F50
:1056B0002081318130938405209383052C3031057E
:1056C00049F481E090E090932C0280932B0280E8D3
:1056D00080937C059091820581E0892780938205E3
:1056E0008901000F111FF801E05AFC4F808180935F
:1056F0008105215131092230310538F00E947B08A3
:10570000F801E35FFD4F918380838AE192E00E947C
:10571000341780918305909184050E94AD1783E131
:1057200092E00E943417E0918305F0918405EE0F1A
:10573000FF1FE35FFD4F808191810E94AD17809133
:10574000A6099091A709009739F480915E0690917F
:105750005F06019721F507C0909355068093540684
:105760001816190694F781E0809356061092860564
:105770001092850544E650E060E070E088EE93E02A
:105780000E944A150E945D0B80918205811107C01D
:105790001092530660E087E090E00E942606809118
:1057A000540690915506019661F58091A8098823C9
:1057B00041F110927B0580918205882329F10E9496
:1057C000061200914F06109150062091510630911B
:1057D0005206DC01CB01801B910BA20BB30B873966
:1057E0009105A105B10580F00E94061260934F0655
:1057F0007093500680935106909352060E945D0B61
:1058000003C081E080937B0580918D0990918E0982
:10581000009739F480915C0690915D060197B1F58F
:1058200007C090934E0680934D061816190694F7FC
:1058300011E010935606109286051092850544E6F5
:1058400050E060E070E088EE93E00E944A150E940C
:10585000F30A80918205811119C01093530661E00B
:1058600087E090E00E94260660910B0288E090E0BD
:105870000E94260660914B0689E090E00E94260671
:10588000609149068AE090E00E94260680914D06CC
:1058900090914E06019661F580918F09882341F120
:1058A00010927A0580918205882329F10E940612C0
:1058B0000091450610914606209147063091480612
:1058C000DC01CB01801B910BA20BB30B8739910537
:1058D000A105B10580F00E94061260934506709301
:1058E000460680934706909348060E94F30A03C039
:1058F00081E080937A0580918205811141C0809179
:10590000A6099091A70997FD06C080915E06909127
:105910005F060196B1F444E650E060E070E088EE86
:1059200093E00E944A1581E080930A0261E080E0E2
:1059300090E00E9426068CE092E00E9455170E949B
:10594000080880918D0990918E0997FD06C080917D
:105950005C0690915D06019699F444E650E060E0A3
:1059600070E088EE93E00E944A1510920A0260E00F
:1059700080E090E00E94260684E092E00E945517A5
:10598000E0918305F0918405E331F10508F080C2D0
:105990008827E758FF4F8F4F88C78091790581117D
:1059A00035C00E9406120091200610912106209118
:1059B000220630912306DC01CB01801B910BA20B48
:1059C000B30B893E9340A105B10578F00E94061201
:1059D00060932006709321068093220690932306FD
:1059E000CE0101960E94BC0B06C068ED79E0CE01A5
:1059F00001960E94750FBE016F5F7F4F88ED99E0A1
:105A00000E94000FCE0101960E94390F8091290655
:105A100081110DC00E940612609325067093260620
:105A2000809327069093280681E0809329060E94A0
:105A30000612009125061091260620912706309126
:105A40002806DC01CB01801B910BA20BB30B893E16
:105A50009340A105B10508F4F5C00E9406126093B9
:105A6000250670932606809327069093280690912A
:105A7000240681E0892780932406882311F080EC96
:105A8000DFC010927C05DEC0809179058111D7C0FE
:105A900080913D0681110DC00E9406126093390667
:105AA00070933A0680933B0690933C0681E0809386
:105AB0003D068091310681114AC00E94190468EEAA
:105AC00073E0A2D6BC01CE0101960E94220A0E9478
:105AD0002104BC01CE01875B9F4F0E94220A0E94D5
