:100000000C94E2000C940A010C940A010C940A016D
:100010000C940A010C940A010C940A010C94420EEF
:100020000C940A010C940A010C940A010C949D0E84
:100030000C940A010C940A010C94020F0C940A010E
:100040000C94F80D0C940A010C947A0C0C94540C3A
:100050000C940A010C940A010C940A010C940A01F4
:100060000C94D1010C940A01C01EC21EB61EB81E0B
:10007000BA1EBC1EBE1E8827FA27CF281D294B2971
:100080009729C729C729C729C729C729C729C72920
:10009000C729C729C729C7294B299729000000006C
:1000A000250028002B00020100000000002400278A
:1000B000002A0053746F7020546573740054656D8A
:1000C00070203D2000537461727420546573740075
:1000D0004669726D776172652076657273696F6EBD
:1000E0003A20005761726E696E6721205254432096
:1000F000444F4E275420524553504F4E4421006CDC
:100100006564206C6F636B3D00496E636F7272654E
:10011000637420536F6E6720466F726D61742100A7
:100120005247423D6F6666005247423D6F6E007611
:10013000616C75653D006D656E75506F73697469AE
:100140006F6E3D0076616C75653D006D656E755036
:100150006F736974696F6E3D0053796E63206672C8
:100160006F6D204750530053796E630057616B6584
:100170002075702C204E656F2100000000080002E1
:100180000100000304070000000000000000000060
:1001900000002300260029000404040404040404CD
:1001A0000202020202020303030303030102040822
:1001B00010204080010204081020010204081020D1
:1001C000F529ED2911241FBECFEFD8E0DEBFCDBF4A
:1001D00026E0A6EFB3E001C01D92A33CB207E1F711
:1001E00013E0A0E0B1E0E4E2F0E602C005900D9279
:1001F000A63FB107D9F710E0C1EED0E004C02197C7
:10020000FE010E94A02DC03ED107C9F70E943B17F6
:100210000C9405300C94000085ED8093BC00809117
:10022000BC0084FDFCCF1092720508954091070533
:10023000262F30E0240F311D21323105DCF42091CE
:1002400072052430C9F4FC0180E090E0861758F470
:10025000309107052191DC01AB51BB4FA30FB11DBC
:100260002C930196F3CF80910705680F60930705E3
:1002700080E0089581E0089582E008950895E09176
:10028000F7038091F603E81730F4F0E0EB53FB4FEF
:10029000808190E008958FEF9FEF08959091F7038C
:1002A0008091F603981750F4E92FF0E0EB53FB4FE1
:1002B000208130E09F5F9093F70302C02FEF3FEF64
:1002C000C90108958091F60390E02091F703821B05
:1002D00091090895CF92DF92EF92FF920F931F93AF
:1002E000CF93DF937C01262F972F8A01809173058E
:1002F000882391F0C62FD72F6E01C40ED51ECC15C2
:10030000DD0571F06991D701ED91FC910190F081CB
:10031000E02DC7010995F3CF642F822F0E941601AB
:10032000C801DF91CF911F910F91FF90EF90DF9067
:10033000CF900895CF93DF931F92CDB7DEB7698337
:10034000209173052223D1F020919605203240F0B0
:1003500021E030E0FC013383228380E090E015C08F
:1003600080917405E82FF0E0EB58FA4F9981908363
:100370008F5F809374058093960505C061E0CE0180
:1003800001960E94160181E090E00F90DF91CF91DD
:100390000895089580E090E0089585E094E00C943D
:1003A000A40B1F920F920FB60F9211242F933F931D
:1003B0004F935F936F937F938F939F93AF93BF936D
:1003C000EF93FF938091B900887F803609F49CC039
:1003D00068F5883209F45BC090F4803109F454C0A8
:1003E00038F4882309F4F6C0883009F44DC0F6C00B
:1003F000883109F44CC0803209F45DC0EFC080340C
:1004000009F468C048F4803309F455C0883309F012
:10041000E5C080937005D8C0803509F44FC0883599
:1004200009F45DC0883409F0D9C0D6C0883909F410
:10043000C7C0A8F4883709F467C038F4883609F4CF
:1004400063C0803709F460C0C9C0883809F4B8C0F7
:10045000803909F45FC0803809F0C0C05BC0803BC0
:1004600009F486C038F4803A09F466C0883A09F481
:100470007FC0B4C0803C09F4A7C0883C09F4A4C084
:10048000883B09F48AC0AAC080914D0510C09091A4
:100490006F0580916E05981770F5E0916F0581E00A
:1004A0008E0F80936F05F0E0E25BFA4F80818093BE
:1004B000BB0085EC86C0809370058EC0E0916F050F
:1004C00081E08E0F80936F058091BB00F0E0E25BCE
:1004D000FA4F808390916F0580916E056EC0E09118
:1004E0006F0581E08E0F80936F058091BB00F0E077
:1004F000E25BFA4F80838091710581116DC081E0CC
:1005000080934C0584EA61C083E080937205109269
:100510002B05CFCF80912B05803208F051C0E091A0
:100520002B0581E08E0F80932B058091BB00F0E0BE
:10053000E55FFA4F8083BDCF85EC8093BC001092BD
:10054000720580912B05803230F4E0912B05F0E0AC
:10055000E55FFA4F108260912B0570E0E09109058C
:10056000F0910A058BE095E0099510922B0536C0B5
:1005700084E0809372051092080510920705E091BF
:100580000505F0910605099580910705811105C0C3
:1005900081E0809307051092E504E091080581E071
:1005A0008E0F80930805F0E0EB51FB4F8081809324
:1005B000BB009091080580910705981708F479CF42
:1005C00085E88093BC000AC085EC8093BC00109243
:1005D000720504C0109270050E940C01FF91EF910A
:1005E000BF91AF919F918F917F916F915F914F914B
:1005F0003F912F910F900FBE0F901F9018950C9464
:10060000382C0C94302C20910B0430910C0402C037
:10061000359527958A95E2F7C901817099279195BB
:10062000819591090895CF93DF93D82F0E941016DA
:100630008CEC0E94B01584E40E94B0150E94101644
:100640008CEC0E94B0158EEB0E94B0150E947415C0
:10065000C82F0E9474156C2F70E0782B072E000CA9
:10066000880B990B0E94132B20E030E040E85DE3FB
:100670000E94722BDD2361F026E636E646EE5FE34C
:100680000E94722B20E030E040E052E40E94982C5F
:1006900020E030E040E251E40E94722BDF91CF91E4
:1006A00008958F929F92AF92BF92CF92DF92EF9276
:1006B000FF920F931F93CF93DF93CDB7DEB72C97A5
:1006C0000FB6F894DEBF0FBECDBF7C014A015B01BF
:1006D00020E030E0A901C501B4010E943A2D20E0DC
:1006E00030E040E05FE387FD05C0C501B4010E9432
:1006F000982C04C0C501B4010E94972C0E94042DBF
:100700008B0165E073E0C7010E94EA0B680117FFE7
:1007100004C0CC24DD24C01AD10A4AE0B601CE01BF
:1007200007960E94A90B6BE073E0CE0101960E9430
:10073000EA0BBE01695F7F4FCE0101960E94410B1B
:100740006BE073E00E94280BBC01C7010E94540BB0
:10075000CE0101960E94A40BCE0107960E94A40B25
:10076000C80189519C4F8F3C974018F54AE0B6016B
:10077000CE0107960E94A90B6AE073E0CE010196B4
:100780000E94EA0BBE01695F7F4FCE0101960E9475
:10079000410B6BE073E00E94280BBC01C7010E9473
:1007A000540BCE0101960E94A40BCE0107960E9425
:1007B000A40BC8018D599F4F873C910518F54AE05D
:1007C000B601CE0107960E94A90B69E073E0CE0145
:1007D00001960E94EA0BBE01695F7F4FCE01019630
:1007E0000E94410B6BE073E00E94280BBC01C70123
:1007F0000E94540BCE0101960E94A40BCE010796D5
:100800000E94A40B075F1F4F0331110518F54AE042
:10081000B601CE0107960E94A90B68E073E0CE01F5
:1008200001960E94EA0BBE01695F7F4FCE010196DF
:100830000E94410B6BE073E00E94280BBC01C701D2
:100840000E94540BCE0101960E94A40BCE01079684
:100850000E94A40BC7012C960FB6F894DEBF0FBE02
:10086000CDBFDF91CF911F910F91FF90EF90DF905F
:10087000CF90BF90AF909F908F9008954F925F92CE
:100880006F927F928F929F92AF92BF92CF92DF92A0
:10089000EF92FF920F931F93CF93DF9300D000D07E
:1008A00000D0CDB7DEB77C014B015A0180910D0419
:1008B000882341F08091B8040FEB14E0A9EBB4E079
:1008C000F8014CC081E080930D0410920C0410924A
:1008D0000B048FEB682E84E0782E99EB492E94E080
:1008E000592E00E010E00F5F1F4F680181E0C81A29
:1008F000D1089801A601B401CE0101960E94FF0B18
:10090000CE0101960E94EF0AF30161933F01CE01EF
:1009100001960E94A40B9801A601B501CE01019693
:100920000E94FF0BCE0101960E94EF0AF201619333
:100930002F01CE0101960E94A40B0630110599F6F5
:10094000B9CF2C9192130DC090819A3009F4108286
:100950003196119694E0E53CF90731F090818A30A8
:1009600080F79F5F9083F0CF8F5F843119F0809381
:10097000B80404C01092B80410920D0465E073E04E
:10098000C7010E94EA0BFE0131966F01F8018191C7
:100990008F014AE0B60190E00E94C22AF601019060
:1009A0000020E9F73197AF014C195D09B601C70185
:1009B0000E94FA0AF4E0053C1F0741F7C70126969A
:1009C0000FB6F894DEBF0FBECDBFDF91CF911F9160
:1009D0000F91FF90EF90DF90CF90BF90AF909F90DE
:1009E0008F907F906F905F904F90089588E090E097
:1009F0000E940103682F89E00E94D50C89E090E0F5
:100A00000E940103682F86E00E94D50C8AE090E0E6
:100A10000E940103682F83E00C94D50C0F931F9361
:100A200080912B0190912C01892B09F455C0809164
:100A3000B7048823A9F00E94C50D0091B30410915A
:100A4000B4042091B5043091B604DC01CB01801BC5
:100A5000910BA20BB30B893E9340A105B105C8F5DC
:100A60008091B704811138C00E94EA1120912501BC
:100A7000309126018217930779F50E94E2112091A7
:100A80002701309128018217930731F50E94DA116E
:100A90002091290130912A0182179307E9F40E94DD
:100AA000C50D6093B3047093B4048093B504909320
:100AB000B60481E08093B7048CE691E00E94F514BF
:100AC000809102019091030190931A04809319047C
:100AD00003C01092B704C4CF1F910F910895CF9215
:100AE000DF92EF92FF921F93CF93DF93CDB7DEB7E4
:100AF0002C970FB6F894DEBF0FBECDBF182F62E162
:100B000073E0CE0101960E94EA0B133029F422E033
:100B100030E040E050E00FC01C3029F424E030E029
:100B200042E050E008C01033B9F420919D063091A6
:100B30009E0644E050E069E976E0CE0107960E9407
:100B4000FF0BBE01695F7F4FCE0101960E946B0BC8
:100B5000CE0107960E94A40BCE0101960E94EF0AD7
:100B60006B017C01CE0101960E94A40BC6012C965C
:100B70000FB6F894DEBF0FBECDBFDF91CF911F91AE
:100B8000FF90EF90DF90CF9008950F931F93CF9336
:100B9000DF9390910F04911103C080E090E07EC03C
:100BA00090910E049923C9F3D82FC0911504809118
:100BB000AB0481110DC00E94C50D6093A704709312
:100BC000A8048093A9049093AA0481E08093AB04C5
:100BD0000E94C50D0091A7041091A8042091A904BA
:100BE0003091AA04DC01CB01801B910BA20BB30B4B
:100BF0008D329140A105B105F0F00E94C50D6093C2
:100C0000A7047093A8048093A9049093AA048091E8
:100C1000A60491E098279093A604992329F01092B6
:100C2000A5041092A40407C08091150490E090934D
:100C3000A5048093A4042091A4043091A504890103
:100C4000009510954091100450E04023512346FF39
:100C500002C061E001C060E088E00E94D50C4091D4
:100C6000100450E098012423352327FF02C061E0DF
:100C700001C060E08CE00E94D50C8091A60488231E
:100C800009F48BCF8C2F90E002C095958795DA956B
:100C9000E2F781709927919581959109DF91CF9124
:100CA0001F910F91089581E08093730588E68093EA
:100CB0009505109274051092960560E082E496E026
:100CC0000E949A010E944716809172058111FCCF03
:100CD00081E080937205809371059FEF909370057A
:100CE00010926F0596E090936E0580934D0580916C
:100CF0004D05806D80934D0580914C05813061F4E8
:100D000010924C0580914D058093BB008091BC00F2
:100D100083FDF8CF85EC01C085EE8093BC00809107
:100D200072058130E1F380916F05873018F480916E
:100D30006F0501C087E0AEE4B5E025EC34E0F901D1
:100D40009E2F921B981718F49D919193F9CF1092B2
:100D5000F7038093F60382E496E00E944E01982FF9
:100D600092959F708F702AE0929F800D112490E0E1
:100D70009093200480931F0482E496E00E944E0129
:100D8000982F92959F708F702AE0929F800D11246A
:100D900090E090931E0480931D0482E496E00E94EC
:100DA0004E01982F9695969596959670292F220F1D
:100DB000220F920F8F70890F90E090931C04809304
:100DC0001B0482E496E00E944E01982F92959F703A
:100DD0008F702AE0929F800D112490E09093A304DD
:100DE0008093A20482E496E00E944E01982F92958F
:100DF0009F708F702AE0929F800D112490E0909355
:100E000022048093210482E496E00E944E01982FF0
:100E100092959F708F702AE0929F800D112490E030
:100E2000909324048093230482E496E00E944E0170
:100E3000982F92959F708F702AE0929F800D1124B9
:100E400090E0909326048093250408950F931F93B8
:100E5000CF93DF93CDB7DEB762970FB6F894DEBFBE
:100E60000FBECDBF8C0177FF03C0719561957109ED
:100E70004AE06A3071054CF5CE010D960E94A90B2F
:100E80006BE073E0CE0101960E94EA0BBE016F5F3A
:100E90007F4FCE0107960E94E10BBE01635F7F4F3B
:100EA000CE0107960E94410BBC01C8010E94E10BD4
:100EB000CE0107960E94A40BCE0101960E94A40BBE
:100EC000CE010D960E94A40B03C0C8010E94A90B7D
:100ED000C80162960FB6F894DEBF0FBECDBFDF919A
:100EE000CF911F910F9108950F931F93CF93DF938D
:100EF000CDB7DEB768970FB6F894DEBF0FBECDBF93
:100F00008B01833091F420919D0630919E0642E042
:100F100050E069E976E0CE010D960E94FF0BB80122
:100F2000CE0101960E94260755C08C3009F042C0C0
:100F300020919D0630919E0644E050E069E976E0FC
:100F4000CE0143960E94FF0BB801CE010D960E9480
:100F5000260722E030E040E050E069E976E0CE018B
:100F600001960E94FF0BBE016F5F7F4FCE01079677
:100F70000E94E10BBE01635F7F4FCE0107960E9486
:100F8000410BBE016D5E7F4F0E94410BBC0189E9A0
:100F900096E00E94540BCE0107960E94A40BCE014E
:100FA00001960E94A40BCE010D960E94A40BCE01C7
:100FB00043962DC0803369F5CE010D960E94260719
:100FC00024E030E040E050E069E976E0CE010196AF
:100FD0000E94FF0BBE016F5F7F4FCE0107960E94FC
:100FE000E10BBE01635F7F4FCE0107960E94410B6C
:100FF000BC0189E996E00E94540BCE0107960E943D
:10100000A40BCE0101960E94A40BCE010D960E9466
:10101000A40B68960FB6F894DEBF0FBECDBFDF916C
:10102000CF911F910F9108950E94C50D60931104F7
:101030007093120480931304909314048091160407
:10104000882309F45CC02091170430911804C90169
:10105000880F991F2031310551F0FC01E35FFE4FED
:101060004081518141505109518340830AC04091D0
:101070002D0150912E014C50510950932E01409357
:101080002D01DC01A35FBE4F6D917C911197FC0196
:10109000E251FE4F40815181641775073CF4FC0119
:1010A000E455FD4F408151814D935C932F303105C4
:1010B00069F420912B0130912C012130310521F46C
:1010C00020E82093100402C010921004FC01E35F9A
:1010D000FE4F60817181809115040E94740787EE34
:1010E00093E00E948114E0911704F0911804EE0F30
:1010F000FF1FE35FFE4F808191810C9403150895DB
:101100000E94C50D60931104709312048093130420
:101110009093140480911604882309F451C02091FF
:10112000170430911804C901880F991F2031310527
:1011300051F0FC01E35FFE4F408151814F5F5F4FF3
:10114000518340830AC040912D0150912E01445F8C
:101150005F4F50932E0140932D01DC01A35FBE4FE2
:101160006D917C911197FC01E455FD4F40815181B7
:10117000461757073CF4FC01E251FE4F4081518174
:101180004D935C932F30310511F410921004FC0143
:10119000E35FFE4F60817181809115040E947407A6
:1011A00087EE93E00E948114E0911704F0911804F7
:1011B000EE0FFF1FE35FFE4F808191810C940315BA
:1011C00008950F931F93CF93DF93CDB7DEB7689742
:1011D0000FB6F894DEBF0FBECDBF8C0180912D01FC
:1011E00090912E01489791F40E94DA11BC01CE0132
:1011F00043960E9426070E94E211BC01CE010D9683
:101200000E9426070E94EA11BC011FC00E94DA1149
:10121000BC01CE0143960E9426070E94E211BC0148
:10122000CE010D960E9426070E9443100E94CD1009
:1012300080912E05882339F0682F70E08D3028F0DA
:101240006C50710902C06CE070E0CE0101960E9402
:101250002607BE016F5F7F4FCE0107960E94E10B0C
:10126000BE01635F7F4FCE0107960E94410BBE0116
:101270006D5E7F4F0E94410BBC01C8010E94E10BD3
:10128000CE0107960E94A40BCE0101960E94A40BEA
:10129000CE010D960E94A40BCE0143960E94A40B92
:1012A000C80168960FB6F894DEBF0FBECDBFDF91C0
:1012B000CF911F910F9108958EBD00000DB407FED0
:1012C000FDCF8EB508950895CF92DF92EF92FF92F1
:1012D0000F931F93CF93DF936C017A018B01C0E0D2
:1012E000D0E0CE15DF0589F0D8016D918D01D601D2
:1012F000ED91FC910190F081E02DC6010995892BBB
:1013000011F47E0102C02196ECCFC701DF91CF918D
:101310001F910F91FF90EF90DF90CF900895FC0107
:10132000538D448D252F30E0842F90E0821B930B4A
:10133000541710F0CF96089501970895FC01918DF0
:10134000828D981761F0828DDF01A80FB11D5D9627
:101350008C91928D9F5F9F73928F90E008958FEF95
:101360009FEF0895FC01918D828D981731F0828D49
:10137000E80FF11D858D90E008958FEF9FEF0895A0
:10138000FC01918D228D892F90E0805C9F4F821B04
:1013900091098F739927089585EA95E00E94C00905
:1013A00021E0892B09F420E0822F0895FC01848D2F
:1013B000DF01A80FB11DA35ABF4F2C91848D90E07F
:1013C00001968F739927848FA689B7892C93A0895A
:1013D000B1898C9180648C93938D848D981306C011
:1013E0000288F389E02D80818F7D80830895EF92BC
:1013F000FF920F931F93CF93DF93EC0181E0888FCF
:101400009B8D8C8D981305C0E889F989808185FDB5
:1014100024C0F62E0B8D10E00F5F1F4F0F731127A6
:10142000E02E8C8DE8120CC00FB607FCFACFE889CD
:10143000F989808185FFF5CFCE010E94D609F1CFD1
:101440008B8DFE01E80FF11DE35AFF4FF0820B8FE9
:10145000EA89FB898081806207C0EE89FF89608309
:10146000E889F98980818064808381E090E0DF9160
:10147000CF911F910F91FF90EF900895CF93DF933D
:10148000EC01888D8823C9F0EA89FB89808185FD7C
:1014900005C0A889B9898C9186FD0FC00FB607FCDD
:1014A000F5CF808185FFF2CFA889B9898C9185FF1E
:1014B000EDCFCE010E94D609E7CFDF91CF910895FD
:1014C00080E090E0892B29F00E94CC0981110C94D6
:1014D00000000895833081F028F4813099F0823043
:1014E000A1F008958730A9F08830B9F08430D1F4A4
:1014F000809180008F7D03C0809180008F778093E2
:101500008000089584B58F7702C084B58F7D84BD37
:1015100008958091B0008F7703C08091B0008F7DD7
:101520008093B00008950E94F02FCF93DF93EC01D9
:1015300088819981009711F00E948E2E198218825D
:101540001D821C821B821A82DF91CF9108950F9316
:101550001F93CF93DF93EC0188819981009729F045
:101560002A813B812617370788F48B016F5F7F4FF5
:101570000E94262F009761F0998388831B830A833A
:101580002C813D81232B11F4FC01108281E001C0EC
:1015900080E0DF91CF911F910F910895EF92FF921C
:1015A0000F931F93CF93DF93EC017B018A01BA0164
:1015B0000E94A70A811104C0CE010E94950A07C0AB
:1015C0001D830C83B701888199810E94FE2FCE0173
:1015D000DF91CF911F910F91FF90EF900895FC0143
:1015E00080819181009711F00C94902A60E070E066
:1015F000CB010895EF92FF920F931F93CF93DF9348
:10160000FC01248135816115710511F480E019C058
:1016100041155105A9F07B01EC018A01020F131F4E
:10162000B8010E94A70A882389F3288139818C8117
:101630009D81B701820F931F0E94FE2F1D830C8393
:1016400081E0DF91CF911F910F91FF90EF9008956E
:10165000CF93DF93EC016115710561F0FB010190FF
:101660000020E9F73197AF01461B570B0E94FA0A99
:10167000811103C0CE010E94950ACE01DF91CF9166
:101680000895CF93DF93EC01FB0144815581608184
:1016900071810E94FA0A811103C0CE010E94950A4D
:1016A000CE01DF91CF910895CF93DF93EC01FB0141
:1016B0008617970761F0608171816115710529F0C6
:1016C000448155810E94CE0A02C00E94950ACE0133
:1016D000DF91CF9108950F931F93CF93DF938C01E8
:1016E000EB01FC01808191810097B1F068817981E3
:1016F0006115710579F0428153812C813D8142173A
:10170000530740F00E94FE2F8C819D81F801958344
:10171000848313C00E948E2E88819981F801918361
:1017200080838A819B81938382838C819D81958331
:101730008483198218821B821A821D821C82DF9187
:10174000CF911F910F910895FC01808191810C949C
:101750008E2EEF92FF920F931F93CF93DF93CDB70F
:10176000DEB762970FB6F894DEBF0FBECDBF8C0117
:10177000CB01F80111821082138212821582148229
:1017800050E09E012F5F3F4F7901B9010E94B72AB7
:10179000F70101900020E9F73197AF014E195F0979
:1017A000B701C8010E94CE0A62960FB6F894DEBF58
:1017B0000FBECDBFDF91CF911F910F91FF90EF90A2
:1017C0000895FC0111821082138212821582148204
:1017D0000C94540BFC011182108213821282158228
:1017E00014826115710551F0FB0101900020E9F7A9
:1017F0003197AF01461B570B0C94CE0A0895BF9248
:10180000CF92DF92EF92FF920F931F93CF93DF93CC
:101810007C016B01EA0189012417350720F48D2F23
:10182000E901042F182F65E073E0C7010E94EA0B5D
:10183000D60114968D919C911597C817D90748F534
:101840008017910708F48C01D601ED91FC91119756
:10185000E00FF11FB08010824D915C91BA016C0FC6
:101860007D1F6115710561F0FB0101900020E9F712
:101870003197AF01461B570BC7010E94CE0A03C028
:10188000C7010E94950AD601ED91FC91E00FF11F6E
:10189000B082C701DF91CF911F910F91FF90EF9020
:1018A000DF90CF90BF9008951F920F920FB60F92C6
:1018B00011242F933F934F935F936F937F938F9355
:1018C0009F93AF93BF93EF93FF9385EA95E00E94B8
:1018D000D609FF91EF91BF91AF919F918F917F9129
:1018E0006F915F914F913F912F910F900FBE0F908D
:1018F0001F9018951F920F920FB60F9211242F93DD
:101900008F939F93EF93FF93E091B505F091B60508
:101910008081E091BB05F091BC0582FD12C09081F1
:101920008091BE058F5F8F732091BF05821751F0A4
:10193000E091BE05F0E0EB55FA4F958F8093BE0520
:1019400001C08081FF91EF919F918F912F910F9016
:101950000FBE0F901F901895CF93DF93282F30E084
:10196000F901E658FE4F8491F901E455FE4FD491F8
:10197000F901E856FE4FC491CC2391F081110E94E9
:101980006A0AEC2FF0E0EE0FFF1FE257FE4FA59121
:10199000B491EC91ED2381E090E021F480E002C06D
:1019A00080E090E0DF91CF9108951F93CF93DF9374
:1019B000282F30E0F901E658FE4F8491F901E455F3
:1019C000FE4FD491F901E856FE4FC491CC23C9F0E3
:1019D000162F81110E946A0AEC2FF0E0EE0FFF1F14
:1019E000E456FF4FA591B4918FB7F894111105C03B
:1019F0009C91ED2FE095E92302C0EC91ED2BEC9347
:101A00008FBFDF91CF911F910895CF93DF9390E027
:101A1000FC01E455FE4F2491FC01E856FE4F8491F1
:101A2000882361F190E0880F991FFC01E755FF4F73
:101A3000C591D491FC01E456FF4FA591B491611179
:101A400009C09FB7F8948881209582238883EC9100
:101A50002E230BC0623061F49FB7F8943881822F37
:101A6000809583238883EC912E2B2C939FBF06C0F7
:101A70008FB7F894E8812E2B28838FBFDF91CF9109
:101A800008951F93CF93DF93182FEB0161E00E941D
:101A9000050D209711F460E004C0CF3FD10539F463
:101AA00061E0812FDF91CF911F910C94D50CE12F34
:101AB000F0E0E658FE4FE491E330F9F048F4E1300D
:101AC000B9F0E230A1F584B5806284BDC8BD34C0F0
:101AD000E730E9F0E83019F1E43049F58091800011
:101AE000806280938000D0938B00C0938A0024C0D2
:101AF00084B5806884BDC7BD1FC0809180008068A8
:101B000080938000D0938900C093880015C0809195
:101B1000B00080688093B000C093B3000DC0809186
:101B2000B00080628093B000C093B40005C0C0389C
:101B3000D1050CF0B5CFAFCFDF91CF911F910895B4
:101B40003FB7F8948091480590914905A0914A05C6
:101B5000B0914B0526B5A89B05C02F3F19F0019603
:101B6000A11DB11D3FBFBA2FA92F982F8827820F23
:101B7000911DA11DB11DBC01CD0142E0660F771F73
:101B8000881F991F4A95D1F708952FB7F89460914F
:101B900044057091450580914605909147052FBFFA
:101BA000089560930104709302048093030490935A
:101BB0000404DC01CB01845D9E4FAF4FBF4F809387
:101BC0003F0590934005A0934105B093420582E004
:101BD00090E090933E0580933D050E94C50D609373
:101BE000390570933A0580933B0590933C05089521
:101BF0001F920F920FB60F9211242F933F938F9342
:101C00009F93AF93BF938091440590914505A09118
:101C10004605B09147053091430523E0230F2D374A
:101C200020F40196A11DB11D05C026E8230F0296E0
:101C3000A11DB11D20934305809344059093450554
:101C4000A0934605B09347058091480590914905BA
:101C5000A0914A05B0914B050196A11DB11D80933D
:101C6000480590934905A0934A05B0934B05BF9151
:101C7000AF919F918F913F912F910F900FBE0F9039
:101C80001F9018951F920F920FB60F9211242F9349
:101C90003F934F935F936F937F938F939F93EF93B4
:101CA000FF93409197055091980560919905709127
:101CB0009A05411551056105710599F08091F80368
:101CC000E091F903F091FA0390818927808314163B
:101CD000150616061706D4F4415051096109710919
:101CE00015C0809170008D7F809370009091F803F3
:101CF000E091F903F091FA038081282F30E0892FD9
:101D000090E080959095822393238083409397055C
:101D1000509398056093990570939A05FF91EF9100
:101D20009F918F917F916F915F914F913F912F91F3
:101D30000F900FBE0F901F9018951F920F920FB625
:101D40000F9211242F933F938F939F93AF93BF9341
:101D5000EF93FF9380919B0590919C05A0919D0529
:101D6000B0919E05892B8A2B8B2B51F18091FB031F
:101D7000E091FC03F091FD0390818927808380919D
:101D80009B0590919C05A0919D05B0919E0518160C
:101D900019061A061B064CF580919B0590919C052F
:101DA000A0919D05B0919E050197A109B10980936D
:101DB0009B0590939C05A0939D05B0939E0515C02F
:101DC00080916F008D7F80936F009091FB03E09175
:101DD000FC03F091FD038081282F30E0892F90E0F3
:101DE00080959095822393238083FF91EF91BF91FB
:101DF000AF919F918F913F912F910F900FBE0F90B8
:101E00001F9018951F920F920FB60F9211242F93C7
:101E10003F938F939F93AF93BF93EF93FF938091E3
:101E20009F059091A005A091A105B091A205892BD5
:101E30008A2B8B2B51F18091FE03E091FF03F091EF
:101E4000000490818927808380919F059091A0054F
:101E5000A091A105B091A205181619061A061B0635
:101E60004CF580919F059091A005A091A105B0919E
:101E7000A2050197A109B10980939F059093A00540
:101E8000A093A105B093A20515C080916E008D7F2F
:101E900080936E009091FE03E091FF03F0910004A7
:101EA0008081282F30E0892F90E0809590958223C3
:101EB00093238083FF91EF91BF91AF919F918F9179
:101EC0003F912F910F900FBE0F901F9018953F924A
:101ED0004F925F926F927F928F929F92AF92BF923A
:101EE000CF92DF92EF92FF920F931F93CF93DF93E6
:101EF000382E962E842EF90184E6E816F1042CF093
:101F000082EBE81A87E0F80A03C08EE1E80EF11CC4
:101F1000E092320500933105E093300530922E05B2
:101F200090922D0580922C05AE2DB0E020E833E391
:101F300041EE51E00E94462C2B013C0122EB37E0A0
:101F4000FF2484E6C82ED12CC0E9D1E0C901825B10
:101F500097408E159F05DCF4C90183709927892B62
:101F600099F4C901B6010E944B2D892B31F4C901A6
:101F7000BE010E944B2D892B39F480E8480E81E583
:101F8000581E81E0681E711C2F5F3F4FDFCF8EE42B
:101F9000E81A88EFF80AC70164E670E00E944B2D4A
:101FA0006C01C70160E971E00E944B2D5C01C1E04A
:101FB000D0E0112783E0E822FF24C017D1072CF5D9
:101FC000C230D10589F4E114F10471F4C114D104D3
:101FD00019F4A114B10441F480E8480E8BE3581EB3
:101FE00086E2681E711C0FC0DE01AF52BD4FAC917E
:101FF000B0E020E831E541E050E00E94462C460E7A
:10200000571E681E791E2196D8CF292D30E0ACE3EB
:10201000B0E00E94882C6B017C01C80CD11CE11C33
:10202000F11C232D30E0A0E1BEE00E94882CC60EFA
:10203000D71EE81EF91EDF01BB27119720E831E506
:1020400041E050E00E94A62DDC01CB018C0D9D1DCE
:10205000AE1DBF1DBC01CD01640D751D861D971DF4
:10206000DF91CF911F910F91FF90EF90DF90CF9074
:10207000BF90AF909F908F907F906F905F904F90A8
:102080003F900C94D10DCF92DF92EF92FF920F937D
:102090001F930E94C50DC0903905D0903A05E0907D
:1020A0003B05F0903C058B019C010C191D092E0984
:1020B0003F098091010490910204A0910304B09122
:1020C0000404083E134021053105D0F00196A11DFE
:1020D000B11D8093010490930204A0930304B09374
:1020E0000404B701A60148515C4F6F4F7F4F4093E6
:1020F000390550933A0560933B0570933C05C9CF71
:1021000040913F0550914005609141057091420515
:1021100084179507A607B70788F1E0913705F09176
:102120003805309759F109956115710581059105BB
:1021300019F00E94D10D22C08091010490910204F7
:10214000A0910304B0910404845D9E4FAF4FBF4F34
:1021500080933F0590934005A0934105B0934205BD
:1021600081E090E020913D0530913E05232B11F454
:1021700080E090E090933E0580933D0560910104DE
:102180007091020480910304909104041F910F91B7
:10219000FF90EF90DF90CF9008954F925F926F92F3
:1021A0007F928F929F92AF92BF92CF92DF92EF92E7
:1021B000FF920F931F93CF93DF934B015C018091AC
:1021C000330590913405A0913505B09136058816F8
:1021D0009906AA06BB0609F4C2C08CE3C82ED12C0E
:1021E000E12CF12CC501B401A70196010E945F2DDD
:1021F00060932C05CA01B901A70196010E945F2DC9
:1022000060932D05CA01B90128E130E040E050E0BB
:102210000E945F2D69017A0160932E05CA01B90100
:102220006C5F7F4F8F4F9F4F27E030E040E050E0E2
:102230000E945F2D6F5F60932F05412C512C32015E
:1022400040E004E610E0C0E9D1E0242F30E02E5455
:10225000384FF901E370FF27309789F4C901B801BD
:102260000E944B2D892B31F4C901BE010E944B2DD8
:10227000892B29F48EE691E0A0E0B0E004C08DE661
:1022800091E0A0E0B0E0480E591E6A1E7B1ED3010B
:10229000C201AA27BB27C816D906EA06FB0610F01A
:1022A0004F5FD3CF40933205309799F4C90164E66C
:1022B00070E00E944B2D892B39F4C90160E971E06F
:1022C0000E944B2D892B29F48EE691E0A0E0B0E02E
:1022D00004C08DE691E0A0E0B0E0481A590A6A0A0D
:1022E0007B0AC418D508E608F708C90164E670E05F
:1022F0000E944B2DEC01C90160E971E00E944B2D59
:10230000A2EDB2E020E0213039F4309749F4209773
:1023100029F4009729F402C04C9103C04DE101C09B
:102320004CE150E060E070E0C416D506E606F70622
:1023300040F0C41AD50AE60AF70A2F5F11962C302E
:1023400011F72F5F20933105C394C092300580921E
:10235000330590923405A0923505B0923605DF9191
:10236000CF911F910F91FF90EF90DF90CF90BF9092
:10237000AF909F908F907F906F905F904F90089557
:102380000E9443100E94CD108091320590E08E543F
:10239000984F08950E9443100E94CD1080913105FE
:1023A00090E008950E9443100E94CD108091300566
:1023B00090E008950E9443100E94CD1080912C055A
:1023C00090E008950E9443100E94CD1080912D0549
:1023D00090E008950E9443100E94CD1080912E0538
:1023E00090E00895CF92DF92EF92FF92CF93DF9328
:1023F000EC010E94C50D6B017C018F850E94AC0C25
:1024000021E0892B09F420E0298B8889811103C000
:1024100081E08227898B29898A89281721F0CD8A32
:10242000DE8AEF8AF88E8D899E89AF89B88DB701D3
:10243000A601481B590B6A0B7B0BDB01CA01CB8041
:10244000DC80ED80FE80C416D506E606F70664F44F
:102450003A81231749F02A83222331F04B895C8982
:102460004F5F5F4F5C8B4B8B3A8131110CC0CF803B
:10247000D884E984FA84C816D906EA06FB06ACF4C7
:102480008B899C890EC0CB84DC84ED84FE84C816C5
:10249000D906EA06FB064CF48B899C8991958195B7
:1024A0009109998388831C8A1B8A2A8BDF91CF919B
:1024B000FF90EF90DF90CF9008950F931F93CF93ED
:1024C000DF931F92CDB7DEB78C01862FF8016787A7
:1024D000408B91E04927418B428B148A138A1182E9
:1024E00010821282158A168A178A108E44E150E0F3
:1024F00060E070E043835483658376834AEF50E065
:1025000060E070E0478350876187728748EE53E050
:1025100060E070E0438754876587768760E02983B1
:102520000E94050DF8018089298181110BC02223A9
:1025300049F061E087850F90DF91CF911F910F9156
:102540000C94D50C0F90DF91CF911F910F910895AE
:102550003F924F925F926F927F928F929F92AF9233
:10256000BF92CF92DF92EF92FF920F931F93CF9380
:10257000DF9300D000D0CDB7DEB72091A40527FDB2
:10258000AAC149835A836B837C838C0161E080916B
:10259000A3050E94050D3090A405832D8D7F480171
:1025A000A12CB12C09F0B7C060E072E18AE790E09D
:1025B000A50194010E94812D29013A0169017A0146
:1025C00021E0C21AD108E108F1088FEFC816D10442
:1025D000E104F10409F008F44CC060E472E48FE017
:1025E00090E0A50194010E94812D69017A0191E09A
:1025F000C91AD108E108F108A2E03A1220C0BFEFE1
:10260000CB16D104E104F10409F008F462C160E9D9
:1026100070ED83E090E0A50194010E94812D690195
:102620007A01E1E0CE1AD108E108F108FFEFCF16F8
:10263000D104E104F10409F0C0F583E065C02FEF97
:10264000C216D104E104F104B1F0A8F068E478EE18
:1026500081E090E0A50194010E94812D69017A0139
:1026600081E0C81AD108E108F108332009F4D9C083
:1026700027C181E001C082E0332091F045C0D30141
:10268000C2012AE0B595A795979587952A95D1F728
:102690006C017D01E1E0CE1AD108E108F10885E086
:1026A00095B5987F892B85BD66C068E478EE81E09A
:1026B00090E0A50194010E94812D69017A01B1E0A9
:1026C000CB1AD108E108F108EFEFCE16D104E104EE
:1026D000F10409F008F4A3C064E274EF80E090E034
:1026E000A50194010E94812D69017A0191E0C91A26
:1026F000D108E108F108AFEFCA16D104E104F104F2
:1027000011F008F0B0C085E09091B100987F892B5E
:102710008093B10030C060E072E18AE790E0A501EB
:1027200094010E94812D69017A01F1E0CF1AD1084C
:10273000E108F108C114D10421E0E206F10488F0B7
:1027400068E478EE81E090E0A50194010E94812D7B
:1027500069017A0181E0C81AD108E108F10893E023
:1027600001C091E0A1E03A1206C080918100887F0B
:10277000892B8093810089819A81AB81BC81892BCF
:102780008A2B8B2B81F0D801AA0FBB1F29813A819C
:102790004B815C810E94462C28EE33E040E050E003
:1027A0000E945F2D03C02FEF3FEFA90191E0391682
:1027B000A1F0A2E03A1619F131108DC0C7BC2093E8
:1027C0009F053093A0054093A1055093A2058091E9
:1027D0006E00826080936E007EC0D0928900C092AD
:1027E000880020939B0530939C0540939D05509352
:1027F0009E0580916F00826080936F006CC0C092D4
:10280000B300209397053093980540939905509312
:102810009A05809170008260809370005CC084E0B3
:1028200073CF8FEFC816D104E104F104D1F0C8F0E2
:1028300062E17AE780E090E0A50194010E94812D99
:1028400069017A01F1E0CF1AD108E108F1082FEF10
:10285000C216D104E104F10411F008F010CF84E0B5
:102860001FCF83E01DCF62E17AE780E090E0A50111
:1028700094010E94812D69017A0191E0C91AD10861
:10288000E108F108AFEFCA16D104E104F104B1F098
:10289000A8F0D301C2014AE0B595A7959795879511
:1028A0004A95D1F76C017D01E1E0CE1AD108E1082B
:1028B000F108332009F4F3CE87E026CF86E0DCCEA2
:1028C000BFEFCB16D104E104F10409F060F684E017
:1028D000D3CE82E019CF0F900F900F900F90DF9121
:1028E000CF911F910F91FF90EF90DF90CF90BF900D
:1028F000AF909F908F907F906F905F904F903F90A0
:102900000895009769F0FC0101900020E9F73197E4
:10291000AF01481B590BBC0185EA95E00C94640992
:1029200080E090E008958F929F92AF92BF920F93B4
:102930001F93CF93DF93CDB7DEB7A1970FB6F8946F
:10294000DEBF0FBECDBF19A2423008F44AE08E01AF
:102950000F5D1F4F842E912CA12CB12CA501940149
:102960000E945F2DE62FB901CA0101501109EA301A
:1029700014F4E05D01C0E95CD801EC93232B242B17
:10298000252B61F7C8010E948114A1960FB6F89417
:10299000DEBF0FBECDBFDF91CF911F910F91BF90D2
:1029A000AF909F908F9008950F931F93CF93DF93D5
:1029B0008C01C0E0D0E0F801EC0FFD1F64916623AC
:1029C00071F0E091A505F091A6050190F081E02D50
:1029D00085EA95E00995892B11F02196ECCFCE017F
:1029E000DF91CF911F910F910895CF93DF930E94B4
:1029F000D414EC0183E093E00E9481148C0F9D1F9E
:102A0000DF91CF910895CF92DF92EF92FF92CF9313
:102A1000DF936C01990FEE08FF08F7FE1AC0E091F2
:102A2000A505F091A6050190F081E02D6DE285EA03
:102A300095E00995EC0166277727CB016C197D0994
:102A40008E099F094AE00E9493147C01EC0EFD1E42
:102A500006C04AE0C701B6010E9493147C0183E0DE
:102A600093E00E9481148E0D9F1DDF91CF91FF9006
:102A7000EF90DF90CF9008958F929F92AF92BF9288
:102A8000CF92DF92EF92FF920E94A00D4B015C016A
:102A900088EEC82E83E0D82EE12CF12C0E94A00DE8
:102AA000DC01CB0188199909AA09BB09883E93402A
:102AB000A105B10558F021E0C21AD108E108F108DA
:102AC00088EE880E83E0981EA11CB11CC114D104AD
:102AD000E104F10419F7FF90EF90DF90CF90BF90E1
:102AE000AF909F908F900895EF92FF920F931F9356
:102AF000CF93DF9348E050E031E080E097E0E92EAB
:102B0000F12CC3E2D0E00FEC10E090919F06E09131
:102B1000A006F091A106F8942181292B21836281DE
:102B2000292F209562236283D7011197F1F76181E4
:102B300026232183DE011197F1F720817894F80193
:102B40003197F1F7922309F0832B330F415051094C
:102B5000E1F6DF91CF911F910F91FF90EF900895D3
:102B6000CF92DF92EF92FF920F931F93CF93DF9359
:102B700028E030E041E06FEF70E09FE0C92ED12CFB
:102B8000C3E2D0E007ED10E090919F06E091A0062F
:102B9000F091A106592F5095F42EF82281F0F89467
:102BA000F2805F2152835181592B5183DE011197AD
:102BB000F1F75281952B92837894F8010FC0F89425
:102BC000F2805F2152835181592B5183DB01119790
:102BD000F1F75281952B92837894F6013197F1F7B2
:102BE000440F2150310981F6F894E091A006F0914C
:102BF000A106918180919F06809598239183E09111
:102C0000A006F091A1069281892382837894DF91B6
:102C1000CF911F910F91FF90EF90DF90CF9008958B
:102C200090919F06E091A006F091A106F894818111
:102C3000292F20958223818378948DE743E050E00B
:102C4000815021F1DA011197F1F730813923C1F375
:102C5000F8948281822382838181892B8183789475
:102C6000ABE7B7E01197F1F7F8948181282321832E
:102C7000A3E1B1E01197F1F78081982381E009F099
:102C800080E07894E3E6F6E03197F1F7089520913B
:102C9000960590919505213208F04AC08091720501
:102CA0008111FCCF32E03093720531E03093710531
:102CB0003FEF3093700510926F0520936E05A5E7E6
:102CC000B5E04EE455E0FA013E2F341B321718F4FC
:102CD0003D913193F9CF10924D0520914D05990FFB
:102CE000922B90934D0590914C05913061F4109288
:102CF0004C0590914D059093BB009091BC0093FDC5
:102D0000F8CF95EC01C095EE9093BC0090917205C0
:102D10009230E1F3909170059F3F79F080917005BA
:102D2000803241F080917005803331F084E005C03D
:102D300081E003C082E001C083E01092740510922C
:102D40009605109273050895DF92EF92FF920F930C
:102D50001F93CF93DF9300D0CDB7DEB7F82E162F99
:102D600081E08093730588E6809395051092740541
:102D70001092960560E082E496E02A8349830E94DF
:102D80009A018AE0D82E4981842F6D2D0E943F2D13
:102D9000692F30E1839F600D112482E496E00E9448
:102DA0009A01812F6D2D0E943F2D692F30E1839F65
:102DB000600D112482E496E00E949A018F2D6D2D02
:102DC0000E943F2D692F30E1839F600D112482E422
:102DD00096E00E949A0161E082E496E00E949A01E6
:102DE0002A81822F6D2D0E943F2D692F20E1829F25
:102DF000600D112482E496E00E949A01802F6D2DCF
:102E00000E943F2D692F30E1839F600D112482E4E1
:102E100096E00E949A018E2D6D2D0E943F2D692F04
:102E200020E1829F600D112482E496E00E949A01C5
:102E300060E082E496E00E949A010F900F90DF918B
:102E4000CF911F910F91FF90EF90DF900C94471658
:102E5000CF93DF93682F70E080E090E04AE00E941B
:102E60009314EC0183E093E00E9481148C0F9D1F6A
:102E7000DF91CF910895CF93DF93CDB7DEB7C857D9
:102E8000D1090FB6F894DEBF0FBECDBF789484B5DC
:102E9000826084BD84B5816084BD85B5826085BD56
:102EA00085B5816085BD80916E00816080936E00E4
:102EB00010928100809181008260809381008091D6
:102EC0008100816080938100809180008160809387
:102ED00080008091B10084608093B1008091B00047
:102EE00081608093B00080917A00846080937A0042
:102EF00080917A00826080937A0080917A0081606C
:102F000080937A0080917A00806880937A00109292
:102F1000C10060E085E00E94D50C1092F70310928A
:102F2000F60310927405109296051092720581E0D6
:102F30008093710510924C0561E082E10E94D50CEE
:102F400061E083E10E94D50C8091B9008E7F80936F
:102F5000B9008091B9008D7F8093B90088E4809397
:102F6000B80085E48093BC00E091B505F091B6050A
:102F700082E08083E091B105F091B2051082E0918A
:102F8000B305F091B40580E180831092BD05E09116
:102F9000B905F091BA0586E08083E091B705F0911C
:102FA000B805808180618083E091B705F091B80514
:102FB000808188608083E091B705F091B8058081B9
:102FC00080688083E091B705F091B80580818F7D9E
:102FD000808381E090E00E9401038C3019F088E149
:102FE00090E002C08CE090E090932E0180932D0140
:102FF00080E090E00E940103882321F081E080932B
:103000000A0102C010920A0182E090E00E940103CE
:103010008F3F29F4109226011092250105C090E0FF
:10302000909326018093250183E090E00E940103A4
:103030008F3F29F4109228011092270105C090E0DB
:10304000909328018093270184E090E00E9401037F
:103050008F3F29F410922A011092290105C090E0B7
:1030600090932A018093290186E090E00E94010359
:103070008F3F29F410922C0110922B0105C090E093
:1030800090932C0180932B0187E090E00E94010334
:103090008F3F19F41092930406C091E0811101C092
:1030A00090E0909393048BE090E00E9401038F3FA7
:1030B00029F41092300110922F0105C090E09093F6
:1030C000300180932F018CE090E00E9401038F3F3C
:1030D00031F090E00C9790933201809331018FEFA3
:1030E00090E00E94D4148091930490E00E94031514
:1030F00061E089E00E94050D61E086E00E94050D17
:1031000061E083E00E94050D80912704833008F080
:1031100083C092E09093A305E82FF0E0EA55FF4FBB
:10312000E491E093A4058F5F80932704E13031F1AF
:10313000E23009F44AC0E11172C014BC15BC84B578
:10314000826084BD85B5816085BD8091A30590E0D6
:10315000FC01E856FE4FE491F0E0EE0FFF1FE4564D
:10316000FF4F25913491309300042093FF03FC011D
:10317000E455FE4FE491E093FE0351C010928000AD
:1031800010928100809181008860809381008091FD
:1031900081008160809381008091A30590E0FC0113
:1031A000E856FE4FE491F0E0EE0FFF1FE456FF4FAC
:1031B000259134913093FD032093FC03FC01E455E9
:1031C000FE4FE491E093FB032AC01092B0001092EE
:1031D000B1008091B00082608093B0008091B10016
:1031E00081608093B1008091A30590E0FC01E856D6
:1031F000FE4FE491F0E0EE0FFF1FE456FF4F2591E4
:1032000034913093FA032093F903FC01E455FE4F07
:10321000E491E093F80303C08FEF8093A4058091BD
:10322000020190910301FC01019620812A33D9F714
:103230008C018181843621F5339620E030E04AE02C
:10324000DF018081319690ED980F9A3068F4429FAB
:10325000B001439F700D1124082E000C990BC097EC
:103260009B01280F391FECCF309335042093340491
:103270002115310511F0209305018D010F5F1F4FBE
:10328000F80180818F3691F48281082E000C990B11
:103290009C01205331093093350420933404C397A3
:1032A000059710F4209304010C5F1F4FF8018081F3
:1032B0008236F9F4329620E030E04AE0819190EDD8
:1032C000980F9A3068F4429FB001439F700D11240B
:1032D000082E000C990BC0979B01280F391FEECFC9
:1032E000309335042093340430930101209300017E
:1032F0008F012091000130910101032E000C440B3D
:10330000550B60E67AEE80E090E00E94812DDA01B4
:10331000C90132E0880F991FAA1FBB1F3A95D1F748
:103320008093300490933104A0933204B09333041B
:10333000109303010093020161E08AE00E94050DF1
:1033400061E085E00E94050D1FB7F8948091280484
:10335000811127C0E2EAF1E08491E6EBF1E094917B
:10336000E82FF0E0EE0FFF1FE755FF4FA591B49156
:10337000EC91E92321F461E08AE00E94D50C61E040
:103380008AE00E94050D8CB580618CBD8CB580648F
:103390008CBD61E08DE00E94050D61E08BE00E9434
:1033A000050D809128048F5F809328041FBF8CB582
:1033B0008C608CBD8CB583608CBD8DB58E7F8DBDD2
:1033C00062E08EE00E94050D62E080E10E94050D42
:1033D00062E08FE00E94050D61E082E00E94050D31
:1033E00004E110E020E030E00093830610938406AF
:1033F00020938506309386064EE150E060E070E051
:1034000040938706509388066093890670938A06D6
:1034100080ED97E0A0E0B0E080938B0690938C065F
:10342000A0938D06B0938E0600936A0610936B06E8
:1034300020936C0630936D0640936E0650936F0692
:103440006093700670937106809372069093730672
:10345000A0937406B093750600935106109352061C
:1034600020935306309354064093550650935606C6
:1034700060935706709358068093590690935A06A6
:10348000A0935B06B0935C0680ED90E00E94D4149C
:1034900025E030E042E050E069EB76E08E010F5F1E
:1034A0001F4FC8010E94FF0B22E030E041E050E0D6
:1034B00069EB76E0CE01815B9F4F0E94FF0BBE015E
:1034C000615B7F4FCE01875B9F4F0E94E10B6EE6F1
:1034D00073E0CE01875B9F4F0E94280BB8010E94CA
:1034E000410BFC01448155816081718185EA95E041
:1034F0000E94640983E093E00E948114CE01875BFF
:103500009F4F0E94A40BCE01815B9F4F0E94A40B92
:10351000C8010E94A40B85EC90E00E94F5148091F4
:1035200002019091030190931A04809319046FEFA4
:1035300070E089E00E94410D0E943C1560E070E05F
:1035400089E00E94410D6FEF70E086E00E94410D1E
:103550000E943C1560E070E086E00E94410D6FEF34
:1035600070E083E00E94410D0E943C1566E073E02C
:10357000C8010E94EA0B6DE073E0CE0107960E943D
:10358000EA0B64E173E0CE010D960E94EA0B6BE159
:1035900073E0CE0143960E94EA0B62E273E0CE0133
:1035A00049960E94EA0B69E273E0CE014F960E94B1
:1035B000EA0B60E373E0CE0185960E94EA0B67E3B5
:1035C00073E0CE018B960E94EA0B6EE373E0CE01AE
:1035D000C1960E94EA0B65E473E0CE01C7960E9493
:1035E000EA0B65E073E0CE01CD960E94EA0B65E040
:1035F00073E0CE018D5B9F4F0E94EA0B69EB76E092
:10360000CE018D5B9F4F0E94540B8DEB90E00E948A
:10361000D41480E090E00E9403150E94C50D9B0128
:10362000AC0128513C4F4F4F5F4FE7962CAF3DAF59
:103630004EAF5FAFE79761E085E00E94D50C88242C
:103640008A9444EF51E0AF965FAF4EAFAF97212C15
:103650008FE00E94AC0C892B11F42224239480E18A
:103660000E94AC0C892B09F4212C8EE00E94AC0C3A
:10367000892B69F483EB90E00E94F5148E01075BBF
:103680001F4FD02EC12ECE0101961C01A3C18BE08D
:10369000382E91E0E0969FAFE0970E94C50DDC01C7
:1036A000CB01E7962CAD3DAD4EAD5FADE797821BEC
:1036B000930BA40BB50BAF964EAD5FADAF978A01E0
:1036C000550F220B330B081719072A073B0708F081
:1036D00074C10E94C50DE7966CAF7DAF8EAF9FAFF2
:1036E000E797211001C083945AE0851639F08CE0E9
:1036F00088120AC0E0961FAEE09706C0E8EBFBE038
:10370000AF96FFAFEEAFAF9761E070E06C0F7D1F3B
:10371000F6E0F89D600D711D112489E996E00E9484
:10372000540B89E996E00E94EF0A2AE030E040E07D
:1037300050E00E94812D29013A01660F771FFB019D
:10374000E952FE4F4081518116E0440F551F1A95F2
:10375000E1F79A0140E050E060E070E080E090E046
:1037600000E30E94AE2D922EA32EB42EC52ED62E8F
:10377000E72EF82E192FC301B2012AE030E040E015
:1037800050E00E94812D29013A01660F771FFB014D
:10379000E952FE4F4081518186E0440F551F8A95C2
:1037A000E1F79A0140E050E060E070E080E090E0F6
:1037B00006E20E94AE2D922AA32AB42AC52AD62A4E
:1037C000E72AF82A192BC301B2012AE030E040E0D1
:1037D00050E00E94812D29013A01660F771FFB01FD
:1037E000E952FE4F4081518126E0440F551F2A9532
:1037F000E1F79A0140E050E060E070E080E090E0A6
:103800000CE10E94AE2D922AA32AB42AC52AD62AF8
:10381000E72AF82A192BC301B2012AE030E040E080
:1038200050E00E94812D29013A01660F771FFB01AC
:10383000E952FE4F4081518166E0440F551F6A9561
:10384000E1F79A0140E050E060E070E080E090E055
:1038500002E10E94AE2D922AA32AB42AC52AD62AB2
:10386000E72AF82A192BC301B2012AE030E040E030
:1038700050E00E94812D29013A01660F771FFB015C
:10388000E952FE4F40815181F6E0440F551FFA95F1
:10389000E1F79A0140E050E060E070E080E090E005
:1038A00008E00E94AE2D922AA32AB42AC52AD62A5D
:1038B000E72AF82A192BC301B2012AE030E040E0E0
:1038C00050E00E94812D660F771FFB01E952FE4FE9
:1038D00040815181B6E0440F551FBA95E1F75695E6
:1038E000479556954795292D242B3A2D352B4B2D51
:1038F0005C2D6D2D7E2D8F2D912F04E00E94C92D02
:10390000122F932E5A016B017C0161E08AE00E9424
:10391000D50C212F392DA501B601C70108E30E945E
:10392000C92D822F0E945C09212F392DA501B601D6
:10393000C70100E30E94C92D822F0E945C09212F3C
:10394000392DA501B601C70108E20E94C92D822FB9
:103950000E945C09212F392DA501B601C70100E2A3
:103960000E94C92D822F0E945C09212F392DA501AB
:10397000B601C70108E10E94C92D822F0E945C098F
:10398000212F392DA501B601C70100E10E94C92DE3
:10399000822F0E945C09212F392DA501B601C70194
:1039A00008E00E94C92D822F0E945C09812F0E948D
:1039B0005C0960E08AE00E94D50C3A9431106DCE2B
:1039C0008BE39FE10197F1F7E0962FADE09721118E
:1039D0003FCE50CE06501109C8010E94A40B02151B
:1039E0001305C1F78091930481110E94F6040E948F
:1039F000530600911F04109120040E94C50D4B0135
:103A00005C0181E080939B04112780911F049091B9
:103A1000200408171907A9F40E9453060E94C50D37
:103A2000DC01CB0188199909AA09BB09893B9B4094
:103A3000A105B10550F383EE90E00E94F5141092B9
:103A40009B04E0902504F09026040091230410913B
:103A50002404209121043091220440911F045091AC
:103A6000200460911D0470911E0480911B049091AC
:103A70001C040E94670F60E085E00E94D50C61E0A5
:103A800085E00E94D50C1092A1041092A00410921F
:103A90009F0410929E0410929D0410929C040E9418
:103AA000C50D20E137E240E050E00E945F2D672B1A
:103AB000682B692B29F480919B0481110C94CB29EC
:103AC0000E94C50D21E137E240E050E00E945F2DE9
:103AD000672B682B692B09F0C8C080912D048111D8
:103AE000A5C00E94C50D0091B5061091B6062091A3
:103AF000B7063091B806DC01CB01801B910BA20BFD
:103B0000B30B893B9B40A105B10548F08CE493E0E1
:103B10000E94811483E093E00E948114A2C08FE58B
:103B200093E00E94811483E093E00E9481148091CD
:103B3000AD060E9428178091AE060E94281780913A
:103B4000AF060E9428178091B2069091B30668EEE6
:103B500073E00E944B2D7C010091B10610E0209192
:103B6000B00630E04091AF0650E06091AE0670E0E4
:103B70008091AD0690E00E94670F20913101309155
:103B80003201E0E1FEE02E9FC0012F9F900D3E9F8D
:103B9000900D1124092E000CAA0BBB0B40910104BF
:103BA000509102046091030470910404840F951FE6
:103BB000A61FB71F8093010490930204A0930304EF
:103BC000B09304040E94C0117C010E94CA11082F06
:103BD0000E94D211E9968FAFE9970E94DA11E89618
:103BE0008FAFE8970E94E211182F0E94EA11382F38
:103BF000C70168EE73E00E944B2DE82EE9962FADC9
:103C0000E997E8964FADE897612F832F0E94A4169D
:103C100081E080932D040E94C50D60932904709368
:103C20002A0480932B0490932C041BC00E94C50D82
:103C30000091290410912A0420912B0430912C0426
:103C4000DC01CB01801B910BA20BB30B8134974796
:103C5000AB41B10518F010922D0403C081E08093B0
:103C60002D0489E591E00E94F5140091190410914A
:103C70001A04F8018081882309F42AC10E94C50D25
:103C800080903A0490903B04A0903C04B0903D0496
:103C9000DC01CB0188199909AA09BB098090360477
:103CA00090903704A0903804B09039048816990693
:103CB000AA06BB0608F00CC10E94C50D4B015C01B1
:103CC00060933A0470933B0480933C0490933D04CA
:103CD000C80120E030E06AE08C01FC01F080019630
:103CE00040ED4F0D4A3068F4629FA001639F500D74
:103CF00011242F2DFF0C330B20533109240F351FB6
:103D0000EBCF3093350420933404609130047091EC
:103D1000310480913204909133042115310529F04A
:103D2000032E000C440B550B05C02091050130E01B
:103D300040E050E00E94812D2093360430933704F8
:103D400040933804509339048F2DFF0C990BAA0B24
:103D5000BB0BFC01E156F109E730F10520F4EC5C06
:103D6000FF4F0C94A02D10922F040FC081E00BC0C8
:103D700083E009C085E007C086E005C088E003C095
:103D80008AE001C08CE080932F04F80181818332A6
:103D900019F00F5F1F4F07C080912F048F5F809332
:103DA0002F040E5F1F4FF80180818E32F1F4409096
:103DB0003604509037046090380470903904C30181
:103DC000B20122E030E040E050E00E94812D420E3E
:103DD000531E641E751E4092360450923704609242
:103DE0003804709239040F5F1F4FF80180818053AF
:103DF0008A3028F480932E040F5F1F4F04C08091F7
:103E0000040180932E0480912E04F80190819C324D
:103E100011F40F5F1F4F20912F04222309F458C083
:103E20004090360450903704609038047090390404
:103E300090E004973CE0389FF001399FF00D112489
:103E4000E20FF11DEE0FFF1FEF5AFE4FB301A2016B
:103E5000808191810E94A8120E94C50DDC01CB01D6
:103E600088199909AA09BB09481659066A067B06EA
:103E700078F50E94C50D60933A0470933B048093DB
:103E80003C0490933D048091A405813051F0823030
:103E900071F0811111C080916E008D7F80936E0052
:103EA0000BC080916F008D7F80936F0005C0809163
:103EB00070008D7F8093700060E08091A3050E9468
:103EC000D50C89E091E00E94F51490E080E002C0FA
:103ED000902F812F9093190480931A040E94C50D8E
:103EE00000919704109198042091990430919A04BC
:103EF000DC01CB01801B910BA20BB30B0697A10534
:103F0000B10508F489C080910A01811110C060E0F8
:103F100070E089E00E94410D60E070E086E00E9460
:103F2000410D60E070E083E00E94410D6BC0809124
:103F30009304811167C00091400410914104C801AD
:103F4000880F991F800F911FFC01EE0FFF1FED548A
:103F5000FE4F60910B0170910C0120813181620F45
:103F6000731F70930C0160930B01FC01EE0FFF1F98
:103F7000EB54FE4F20918B0430918C04E080F18053
:103F8000E20EF31EF0928C04E0928B04880F991FCE
:103F9000FC01E954FE4F8091890490918A04A0802D
:103FA000B180A80EB91EB0928A04A092890489E05B
:103FB0000E94410DB70186E00E94410DB50183E0EA
:103FC0000E94410D80913E0490913F040196909390
:103FD0003F0480933E048F3F910551F40F5F1F4FC4
:103FE000109341040093400410923F0410923E0449
:103FF0008091400490914104069724F0109241046E
:10400000109240040E94C50D609397047093980429
:104010008093990490939A048091170490911804C6
:10402000892B21F0809196048111E6C180911604BC
:104030008111E2C18091540481110DC00E94C50D0F
:1040400060935004709351048093520490935304EE
:1040500081E0809354048091480481110DC00E9436
:10406000C50D609344047093450480934604909377
:10407000470481E0809348040E94C50D00915004DC
:10408000109151042091520430915304DC01CB0172
:10409000801B910BA20BB30B00910601109107013D
:1040A0002091080130910901081719072A073B07D9
:1040B00008F04BC00E94C50D6093500470935104EA
:1040C000809352049093530480914204909143044E
:1040D000009719F421E030E005C08130910559F4D2
:1040E00024E030E0309318042093170428E833E1EB
:1040F00040E050E00BC08230910581F4109218042A
:104100001092170420E63AEE40E050E020930601BA
:1041100030930701409308015093090101968330C1
:1041200091052CF4909343048093420404C01092B0
:1041300043041092420480919604882321F0109247
:10414000180410921704109296040E94C50D009155
:104150005004109151042091520430915304DC0119
:10416000CB01801B910BA20BB30B803D9740A105A7
:10417000B10508F03FC10E94C50D009144041091A3
:1041800045042091460430914704DC01CB01801B9B
:10419000910BA20BB30B85369105A105B10508F46F
:1041A0002BC10E94C50D6093440470934504809315
:1041B0004604909347048091170490911804892B2A
:1041C00071F58D2D9C2D0E94E10881E020912F0139
:1041D00030913001232B09F480E00E941303AB01DE
:1041E000BC01C1010E9451034D2D5C2DB101CE01D6
:1041F000815B9F4F0E943E04BE01615B7F4F89E956
:1042000096E00E946B0BCE01815B9F4F0E94A40B36
:10421000C1010E94A40B8D2D9C2D0E94A40B8091A6
:10422000170490911804019709F068C00E94C0110A
:1042300068EE73E00E944B2DBC01CE01855A9F4F62
:104240000E9426070E94CA11BC01CE018B5A9F4FC3
:104250000E9426070E94D211BC018D2D9C2D0E9428
:1042600026076D2D7C2DCE01815B9F4F0E94E10BB7
:10427000BE016B5A7F4FCE01815B9F4F0E94410B65
:10428000BE01655A7F4F0E94410BBC01CE018F5980
:104290009F4F0E94E10BC1010E94E108AE014F59FE
:1042A0005F4FB101CE0189599F4F0E943E04BE016C
:1042B00069597F4F89E996E00E946B0BCE018959BD
:1042C0009F4F0E94A40BC1010E94A40BCE018F59E5
:1042D0009F4F0E94A40BCE01815B9F4F0E94A40BB5
:1042E0008D2D9C2D0E94A40BCE018B5A9F4F0E94B6
:1042F000A40BCE01855A9F4F0E94A40B80911704F6
:1043000090911804049709F077C081E020912F0163
:1043100030913001232B09F480E00E941303AB019C
:10432000BC01CE018F599F4F0E9451030E94C011C2
:1043300068EE73E00E944B2DBC01CE018B5A9F4F5B
:104340000E9426070E94CA11BC01CE01815B9F4FCB
:104350000E9426070E94D211BC01C1010E942607BB
:10436000B1018D2D9C2D0E94E10BBE01615B7F4F41
:104370008D2D9C2D0E94410BBE016B5A7F4F0E94D8
:10438000410BBC01CE01855A9F4F0E94E10BAE014B
:104390004F595F4FBE01655A7F4FCE0189599F4FDC
:1043A0000E943E04BE0169597F4F89E996E00E9450
:1043B0006B0BCE0189599F4F0E94A40BCE01855AE9
:1043C0009F4F0E94A40B8D2D9C2D0E94A40BC10118
:1043D0000E94A40BCE01815B9F4F0E94A40BCE01D3
:1043E0008B5A9F4F0E94A40BCE018F599F4F0E9462
:1043F000A40B02C010920D040E94A00D00915C0459
:1044000010915D0420915E0430915F04DC01CB01CA
:10441000801B910BA20BB30B8A319144A105B1050E
:1044200008F4E7C10E94A00D60935C0470935D04E2
:1044300080935E0490935F0460E08AE00E94D50C54
:1044400089E996E00E94EF0A2AE030E040E050E07F
:104450000E94812D29013A01660F771FFB01E95265
:10446000FE4F0081118185E090E00E94C5057C012E
:1044700080E090E00E9403038E299F29AC01402B2D
:10448000512B96E0440F551F9A95E1F79A0140E0B1
:1044900050E060E070E080E090E000E30E94AE2D2C
:1044A000922EA32EAE964FAFAE97852E7B01B82EDF
:1044B000E4969FAFE497C301B2012AE030E040E008
:1044C00050E00E94812DE3962CAF3DAF4EAF5FAF21
:1044D000E397660F771FFB01E952FE4F4080518042
:1044E00084E090E00E94C5058C0181E090E00E948C
:1044F0000303802B912BAC014429552936E0440F4E
:10450000551F3A95E1F79A0140E050E060E070E015
:1045100080E090E006E20E94AE2D922AA32AAE9699
:10452000EFADAE97E42BAE96EFAFAE97452E482891
:10453000562E5E28872E8F28B82AE4961FADE49762
:10454000192BE3966CAD7DAD8EAD9FADE3972AE060
:1045500030E040E050E00E94812DE3962CAF3DAF6B
:104560004EAF5FAFE397660F771FFB01E952FE4F37
:10457000E080F18083E090E00E94C5053C0182E08C
:1045800090E00E94030386299729AC014E295F29F8
:1045900066E0440F551F6A95E1F79A0140E050E04C
:1045A00060E070E080E090E00CE10E94AE2D922A85
:1045B000A32AAE96FFADAE97F42BAE96FFAFAE97A3
:1045C000452A562A872AB82A192BE3966CAD7DAD69
:1045D0008EAD9FADE3972AE030E040E050E00E94CE
:1045E000812DE3962CAF3DAF4EAF5FAFE397660FE3
:1045F000771FFB01E952FE4FE080F18082E090E0FE
:104600000E94C5053C0183E090E00E9403038629D7
:104610009729AC014E295F29F6E0440F551FFA9502
:10462000E1F79A0140E050E060E070E080E090E067
:1046300002E10E94AE2D922AA32AAE962FADAE972C
:10464000242BAE962FAFAE97452A562A872AB82A32
:10465000192BE3966CAD7DAD8EAD9FADE3972AE04F
:1046600030E040E050E00E94812DE3962CAF3DAF5A
:104670004EAF5FAFE397660F771FFB01E952FE4F26
:10468000E080F18081E090E00E94C5053C0184E07B
:1046900090E00E94030386299729AC014E295F29E7
:1046A000B6E0440F551FBA95E1F79A0140E050E09B
:1046B00060E070E080E090E008E00E94AE2D922A79
:1046C000A32AAE960FADAE97042B452A562A872A09
:1046D000B82A192BE3966CAD7DAD8EAD9FADE397F7
:1046E0002AE030E040E050E00E94812D660F771F05
:1046F000FB01E952FE4FE080F18080E090E00E94F3
:10470000C5053C0185E090E00E94030386299729B6
:10471000AC014E295F2996E0440F551F9A95E1F7A9
:104720005695479556954795292D242B3A2D352B8F
:10473000402F542D652D782D8B2D912F04E00E9454
:10474000C92D122F732E4A015B017C0108E30E94E0
:10475000C92D822F0E945C09212F372DA401B5019C
:10476000C70100E30E94C92D822F0E945C09212FFE
:10477000372DA401B501C70108E20E94C92D822F7F
:104780000E945C09212F372DA401B501C70100E269
:104790000E94C92D822F0E945C09212F372DA40170
:1047A000B501C70108E10E94C92D822F0E945C0952
:1047B000212F372DA401B501C70100E10E94C92DA9
:1047C000822F0E945C09212F372DA401B501C7015A
:1047D00008E00E94C92D822F0E945C09812F0E944F
:1047E0005C0961E08AE00E94D50C60E08AE00E94EA
:1047F000D50C80E896E00E94F21187E696E00E94D0
:10480000F2118EE496E00E94F2118091160481115B
:1048100003C0109215042DC00E94C50D0091110413
:10482000109112042091130430911404DC01CB0187
:10483000801B910BA20BB30B81369A4EA105B105DB
:10484000C0F010921604E0911704F0911804EE0FD6
:10485000FF1FEA57FD4F8081918190931804809348
:104860001704880F991FFC01E05AFD4F8081809347
:1048700015048091800690918106181619063CF067
:104880008091A0049091A104019709F05FC181E09B
:104890008093960410921A041092190444E650E092
:1048A00060E070E088EE93E00E94A8120E94C50DBF
:1048B0006093110470931204809313049093140472
:1048C000809117049091180401968630910529F083
:1048D000909318048093170404C010921804109247
:1048E00017048BE491E00E94D414809117049091F6
:1048F00018040E94031584E491E00E94D414E0910E
:104900001704F0911804EE0FFF1FE35FFE4F808144
:1049100091810E9403152091170430911804F90128
:10492000EE0FFF1FE05AFD4F808180931504215048
:104930003109F901EE0FFF1FE65CFD4F4081518107
:104940004115510509F4F0C0CA010197FC01EE0FB1
:10495000FF1FEC5EFD4F608171816217730709F0E4
:10496000E3C04230510569F528E1E9E3F1E0D10106
:1049700001900D922A95E1F72091230130912401B5
:1049800023703327232B21F42DE130E03C832B834C
:1049900020911F0130912001E0912101F09122012D
:1049A0003197EE0FFF1FE20DF31D40815181421739
:1049B00053073CF489E090E0909318048093170427
:1049C000E6C4109216049093180480931704892B60
:1049D000B9F40E94C0117C010E94CA118C010E948E
:1049E000D21140911D0150911E0160911B017091E7
:1049F0001C019C018091190190911A010E94670F7E
:104A000080911704909118040197E9F4E090230134
:104A1000F090240140E3E41A48EFF40A00912101E8
:104A20001091220160901F01709020010E94DA1104
:104A30004C010E94E2115C010E94EA119301A40161
:104A4000B5010E94670F8091170490911804029796
:104A5000C1F46091250182E090E00E94FF02609124
:104A6000270183E090E00E94FF026091290184E029
:104A700090E00E94FF0260912B0186E090E00E948E
:104A8000FF028091170490911804039731F460910C
:104A90002D0181E090E00E94FF0280911704909127
:104AA0001804049731F460912F018BE090E00E948C
:104AB000FF028091170490911804059739F46091D2
:104AC0003101645F8CE090E00E94FF0260E085E0CD
:104AD0000E94D50C0E94C0117C010E94CA11082FAF
:104AE0000E94D211E9968FAFE9970E94DA11E896F9
:104AF0008FAFE8970E94E211182F0E94EA11382F19
:104B0000C70168EE73E00E944B2DE82EE9962FADA9
:104B1000E997E8964FADE897612F832F0E94A4167E
:104B200061E085E00E94D50C0091170410911804F3
:104B30000231110559F0809115040E946F05000F94
:104B4000111FF801E35FFE4F9183808380918006FF
:104B50009091810697FD07C08091A0049091A104D7
:104B6000019609F0A8C044E650E060E070E088EEED
:104B700093E00E94A8128091160481114DC00E94FA
:104B8000C50D6093110470931204809313049093E5
:104B900014048091170490911804892BE9F50E9460
:104BA000DA11BC01C1010E9426070E94E211BC017A
:104BB0008D2D9C2D0E9426070E94EA11BC01CE017A
:104BC0008B5A9F4F0E942607BE016B5A7F4FCE0122
:104BD000815B9F4F0E94E10B6D2D7C2DCE01815B8F
:104BE0009F4F0E94410BB1010E94410BBC0189E91A
:104BF00096E00E94540BCE01815B9F4F0E94A40B54
:104C0000CE018B5A9F4F0E94A40B8D2D9C2D0E948C
:104C1000A40BC1010E94A40BE0911704F0911804A9
:104C2000EE0FFF1FEA57FD4F2081318130931804AA
:104C3000209317042C30310549F481E090E09093E3
:104C40002C0180932B0180E880931004909116042E
:104C500081E08927809316048901000F111FF80154
:104C6000E05AFD4F80818093150421513109223093
:104C7000310538F00E946F05F801E35FFE4F918324
:104C8000808386E391E00E94D41480911704909170
:104C900018040E9403158FE291E00E94D414E09161
:104CA0001704F0911804EE0FFF1FE35FFE4F8081A1
:104CB00091810E9403158091670690916806009784
:104CC00039F480919E0490919F04019721F507C0CB
:104CD00090939504809394041816190694F781E034
:104CE0008093960410921A041092190444E650E03E
:104CF00060E070E088EE93E00E94A8120E948008B5
:104D000080911604811107C01092930460E087E03F
:104D100090E00E94FF028091940490919504019686
:104D200061F580916906882341F110920F0480910A
:104D30001604882329F10E94C50D00918F0410915B
:104D400090042091910430919204DC01CB01801BEE
:104D5000910BA20BB30B87399105A105B10580F02A
:104D60000E94C50D60938F0470939004809391040A
:104D7000909392040E94800803C081E080930F0406
:104D800080914E0690914F06009739F480919C04D3
:104D900090919D040197B1F507C090938E04809384
:104DA0008D041816190694F711E0109396041092CA
:104DB0001A041092190444E650E060E070E088EEB6
:104DC00093E00E94A8120E94140880911604811199
:104DD00019C01093930461E087E090E00E94FF0205
:104DE00060910B0188E090E00E94FF0260918B04CB
:104DF00089E090E00E94FF02609189048AE090E0DF
:104E00000E94FF0280918D0490918E04019661F5BD
:104E100080915006882341F110920E04809116046F
:104E2000882329F10E94C50D009185041091860404
:104E30002091870430918804DC01CB01801B910B09
:104E4000A20BB30B87399105A105B10580F00E9433
:104E5000C50D6093850470938604809387049093B6
:104E600088040E94140803C081E080930E0480919E
:104E70001604811141C0809167069091680697FDE4
:104E800006C080919E0490919F040196B1F444E67F
:104E900050E060E070E088EE93E00E94A81281E0AC
:104EA00080930A0161E080E090E00E94FF0288E2C6
:104EB00091E00E94F5140E94F60480914E069091B4
:104EC0004F0697FD06C080919C0490919D04019629
:104ED00099F444E650E060E070E088EE93E00E94D0
:104EE000A81210920A0160E080E090E00E94FF02A8
:104EF00080E291E00E94F514E0911704F09118040B
:104F0000E331F10508F043C2E55CFF4F0C94A02D9E
:104F100080910D04811130C00E94C50D0091600484
:104F2000109161042091620430916304DC01CB0193
:104F3000801B910BA20BB30B893E9340A105B105D9
:104F400070F00E94C50D60936004709361048093BB
:104F5000620490936304C1010E94E10805C069E9FD
:104F600076E0C1010E94E10BB10189E996E00E945F
:104F70006B0BC1010E94A40B8091690481110DC0CB
:104F80000E94C50D60936504709366048093670466
:104F90009093680481E0809369040E94C50D00919C
:104FA0006504109166042091670430916804DC0167
:104FB000CB01801B910BA20BB30B893E9340A10543
:104FC000B10508F4E5C00E94C50D609365047093B7
:104FD000660480936704909368049091640481E070
:104FE000892780936404882311F080ECCFC010924D
:104FF0001004CEC080910D048111C7C080917D0442
:1050000081110DC00E94C50D6093790470937A04DC
:1050100080937B0490937C0481E080937D04809155
:105020007104811144C00E94C01168EE73E00E94B7
:105030004B2DBC01C1010E9426070E94CA11BC0170
:105040008D2D9C2D0E9426070E94D211BC01CE01FD
:105050008B5A9F4F0E942607BE016B5A7F4FCE018D
:10506000815B9F4F0E94E10B6D2D7C2DCE01815BFA
:105070009F4F0E94410BB1010E94410BBC0185E092
:1050800094E00E94E10B81E080937104CE01815B8A
:105090009F4F0E94A40BCE018B5A9F4F0E94A40BDE
:1050A0008D2D9C2D0E94A40BC1010E94A40B0E9477
:1050B000C50D0091790410917A0420917B04309100
:1050C0007C04DC01CB01801B910BA20BB30B893E4E
:1050D0009340A105B10508F44BC00E94C50D609333
:1050E000790470937A0480937B0490937C040E94EB
:1050F000C01168EE73E00E944B2DBC01C1010E94FB
:1051000026070E94CA11BC018D2D9C2D0E942607E6
:105110000E94D211BC01CE018B5A9F4F0E942607DC
:10512000BE016B5A7F4FCE01815B9F4F0E94E10B06
:105130006D2D7C2DCE01815B9F4F0E94410BB101F3
:105140000E94410BBC0185E094E00E94540BCE010B
:10515000815B9F4F0E94A40BCE018B5A9F4F0E94F0
:10516000A40B8D2D9C2D0E94A40BC1010E94A40BA9
:1051700065E074E0C1010E94E10BB10189E996E0AC
:105180000E946B0BC1010E94A40B80E48093100469
:105190000E940E0510920C0410920B04F8C060914E
:1051A000290170912A01C1010E94260760912701FF
:1051B000709128018D2D9C2D0E942607609125015C
:1051C00070912601CE018B5A9F4F0E942607BE0187
:1051D0006B5A7F4FCE01815B9F4F0E94E10B6D2D7B
:1051E0007C2DCE01815B9F4F0E94410BB1010E943B
:1051F000410BBC0189E996E00E94540BCE01815B12
:105200009F4F0E94A40BCE018B5A9F4F0E94A40B6C
:105210008D2D9C2D0E94A40BC1010E94A40B109205
:105220000C0410920B0480912B0190912C0101979A
:1052300069F580E8809310042BC060912D01709176
:105240002E014AE0C1010E94A90B6AE073E08D2D96
:105250009C2D0E94EA0BB1018D2D9C2D0E94410BCB
:105260006AE073E00E94280BBC0189E996E00E9485
:10527000540B8D2D9C2D0E94A40BC1010E94A40BE8
:1052800083E390E090930C0480930B04109210043D
:105290000E940E057CC080910D0481112FC081E019
:1052A00020912F0130913001232B09F480E00E94DE
:1052B0001303AB01BC01C1010E945103B10189E993
:1052C00096E00E946B0BC1010E94A40B80912F01FC
:1052D00090913001892B51F481E390E090930C047C
:1052E00080930B0480E48093100408C083E290E074
:1052F00090930C0480930B041092100481E0209191
:105300002F0130913001232B09F480E00E94130318
:1053100020E030E0A9010E940C2B9091100487FF3F
:1053200002C0906801C09F779093100430C06091D4
:105330003101709132018D2D9C2D0E9426076D2D1B
:105340007C2DC1010E94E10B68E073E0C1010E9465
:10535000280BBC0189E996E00E94540BC1010E9410
:10536000A40B8D2D9C2D0E94A40B8FE090E09093B8
:105370000C0480930B04809131019091320197FDD0
:1053800003C01092100403C080E8809310040E94B0
:10539000600A0C94431D0E945306E0902504F0908F
:1053A00026040091230410912404209121043091BB
:1053B000220440911F045091200460911D047091BB
:1053C0001E0480911B0490911C040E94670F87E6C5
:1053D00091E00E94F5140C94601D89E996E00E940A
:1053E000A40B89EB96E00C94A40B1092A8051092E4
:1053F000A70588EE93E0A0E0B0E08093A905909324
:10540000AA05A093AB05B093AC0523EE32E0309330
:10541000A6052093A50525EC30E03093B205209336
:10542000B10524EC30E03093B4052093B30520ECB3
:1054300030E03093B6052093B50521EC30E0309391
:10544000B8052093B70522EC30E03093BA052093DD
:10545000B90526EC30E03093BC052093BB051092D3
:10546000BE051092BF051092C0051092C1051092A2
:105470004506109244068093460690934706A093F3
:105480004806B093490685EF92E0909343068093D7
:1054900042066FEE73E089EB96E00E94EA0B1092F1
:1054A000B40660E087E00E94050DE3EBF1E0E491D3
:1054B000E0939F06EFE9F1E0E491F0E0EE0FFF1FCB
:1054C000E257FE4F859194919093A1068093A00698
:1054D0001092AA061092AC061092AB06EAEAF6E029
:1054E000129286E0E23AF807D9F766E073E089E9BC
:1054F00096E00E94EA0B21E040E06EE080E896E052
:105500000E945D1221E040E060E187E696E00E94A3
:105510005D1221E040E06FE08EE496E00C945D12B5
:105520001F93FC0199278827BC01E8941191103240
:10553000E9F3193010F01E30C8F31B3251F01D3260
:1055400049F4689406C00E94CD2A610F711D811D27
:10555000911D119110531A30B0F33EF4909580953F
:10556000709561957F4F8F4F9F4F1F9108954532E2
:10557000510520F4423010F00C94C22AFB01108235
:10558000CB010895BB274A3031F4992322F4BDE2C0
:10559000909581959F4F0C94E32A592F482F372FD0
:1055A000262F660F771F881F991F660F771F881F8A
:1055B000991F620F731F841F951F660F771F881F27
:1055C000991F0895BB27FB015527AA27880F991F0C
:1055D000AA1FA41710F0A41B83955051B9F7A05D22
:1055E000AA3308F0A95DA193009779F7B111B1939F
:1055F0001192CB010C94FC2ADC01FC01672F719104
:105600007723E1F7329704C07C916D9370836291A8
:10561000AE17BF07C8F308950E944E2B08F481E02F
:105620000895E89409C097FB3EF490958095709595
:1056300061957F4F8F4F9F4F9923A9F0F92F96E9DE
:10564000BB279395F695879577956795B795F11153
:10565000F8CFFAF4BB0F11F460FF1BC06F5F7F4FF0
:105660008F4F9F4F16C0882311F096E911C0772302
:1056700021F09EE8872F762F05C0662371F096E80B
:10568000862F70E060E02AF09A95660F771F881FDA
:10569000DAF7880F9695879597F90895990F00087E
:1056A000550FAA0BE0E8FEEF16161706E807F907F4
:1056B000C0F012161306E407F50798F0621B730B8F
:1056C000840B950B39F40A2661F0232B242B252B10
:1056D00021F408950A2609F4A140A6958FEF811DB3
:1056E000811D08950E94852B0C94F62B0E94E82BB7
:1056F00038F00E94EF2B20F0952311F00C94DF2B53
:105700000C94E52B11240C942A2C0E94072C70F386
:10571000959FC1F3950F50E0551F629FF001729F56
:10572000BB27F00DB11D639FAA27F00DB11DAA1F65
:10573000649F6627B00DA11D661F829F2227B00DB2
:10574000A11D621F739FB00DA11D621F839FA00D3D
:10575000611D221F749F3327A00D611D231F849F8D
:10576000600D211D822F762F6A2F11249F575040E4
:105770009AF0F1F088234AF0EE0FFF1FBB1F661F5F
:10578000771F881F91505040A9F79E3F510580F028
:105790000C94DF2B0C942A2C5F3FE4F3983ED4F357
:1057A000869577956795B795F795E7959F5FC1F7CC
:1057B000FE2B880F911D9695879597F9089597F977
:1057C0009F6780E870E060E008959FEF80EC0895A7
:1057D00000240A94161617061806090608950024D0
:1057E0000A9412161306140605060895092E03944A
:1057F000000C11F4882352F0BB0F40F4BF2B11F4BE
:1058000060FF04C06F5F7F4F8F4F9F4F089557FD1C
:105810009058440F551F59F05F3F71F04795880F1E
:1058200097FB991F61F09F3F79F0879508951216B5
:1058300013061406551FF2CF4695F1DF08C0161661
:1058400017061806991FF1CF869571056105089412
:105850000895E894BB2766277727CB0197F9089529
:10586000F999FECF92BD81BDF89A992780B5089528
:10587000262FF999FECF1FBA92BD81BD20BD0FB66C
:10588000F894FA9AF99A0FBE019608950E94882C0E
:10589000A59F900DB49F900DA49F800D911D112484
:1058A00008952F923F924F925F926F927F928F92C4
:1058B0009F92AF92BF92CF92DF92EF92FF920F939F
:1058C0001F93CF93DF93CDB7DEB7CA1BDB0B0FB6A9
:1058D000F894DEBF0FBECDBF09942A883988488866
:1058E0005F846E847D848C849B84AA84B984C884FC
:1058F000DF80EE80FD800C811B81AA81B981CE0FF3
:10590000D11D0FB6F894DEBF0FBECDBFED010895D7
:10591000A29FB001B39FC001A39F700D811D1124F0
:10592000911DB29F700D811D1124911D0895505835
:10593000BB27AA270E94AF2C0C94F62B0E94E82BC1
:1059400038F00E94EF2B20F039F49F3F19F426F431
:105950000C94E52B0EF4E095E7FB0C94DF2BE92F7C
:105960000E94072C58F3BA1762077307840795073C
:1059700020F079F4A6F50C94292C0EF4E0950B2E6A
:10598000BA2FA02D0B01B90190010C01CA01A00191
:105990001124FF27591B99F0593F50F4503E68F1EC
:1059A0001A16F040A22F232F342F4427585FF3CF2D
:1059B000469537952795A795F0405395C9F77EF4FE
:1059C0001F16BA0B620B730B840BBAF09150A1F047
:1059D000FF0FBB1F661F771F881FC2F70EC0BA0FCD
:1059E000621F731F841F48F4879577956795B79555
:1059F000F7959E3F08F0B0CF9395880F08F0992750
:105A0000EE0F9795879508950E940B2D6894B1111C
:105A10000C942A2C08950E940F2C88F09F5798F020
:105A2000B92F9927B751B0F0E1F0660F771F881FA3
:105A3000991F1AF0BA95C9F714C0B13091F00E94BD
:105A4000292CB1E008950C94292C672F782F8827F2
:105A5000B85F39F0B93FCCF3869577956795B395E4
:105A6000D9F73EF490958095709561957F4F8F4F53
:105A70009F4F08950E944E2B08F48FEF0895991BB5
:105A800079E004C0991F961708F0961B881F7A9535
:105A9000C9F78095089597FB072E16F4009407D058
:105AA00077FD09D00E94E52D07FC05D03EF49095C6
:105AB00081959F4F0895709561957F4F0895A1E25C
:105AC0001A2EAA1BBB1BFD010DC0AA1FBB1FEE1F78
:105AD000FF1FA217B307E407F50720F0A21BB30BC3
